:100000000C94F20E0C941F0F0C941F0F0C941F0FE6
:100010000C941F0F0C941F0F0C941F0F0C941F0FA8
:100020000C941F0F0C941F0F0C941F0F0C941F0F98
:100030000C941F0F0C9412E40C941F0F0C941F0FC0
:100040000C941F0F0C94AD7E0C941F0F0C941F0F7B
:100050000C941F0F0C941F0F0C944D880C945FE0B0
:100060000C941F0F0C946E2C0C941F0F0C941F0FEC
:100070000C941F0F0C941F0F0C941F0F0C941F0F48
:100080000C941F0F0C941F0F0C941F0F0C941F0F38
:100090000C941F0F0C941F0F0C941F0F0C94E6DC94
:1000A0000C941F0F0C941F0F0C941F0F0C941F0F18
:1000B0000C941F0F0C941F0F0C941F0F0C941F0F08
:1000C0000C941F0F0C941F0F0C941F0F0C941F0FF8
:1000D0000C941F0F0C941F0F0C941F0F0C941F0FE8
:1000E0000C941F0F084AD73B3BCE016E84BCBFFD6A
:1000F000C12F3D6C74319ABD56833DDA3D00C77FF8
:1001000011BED9E4BB4C3E916BAAAABE0000008090
:100110003F05A84CCDB2D44EB93836A9020C50B91F
:10012000918688083CA6AAAA2ABE000000803F4DFE
:10013000383420582059205A20450043616E6E6F94
:100140007420656E746572207375626469723A20FA
:10015000004D3234004D3233202573006175746FC9
:1001600025692E67006572726F72207772697469F3
:100170006E6720746F2066696C65004E6F74205343
:1001800044207072696E74696E67002F00534420BA
:100190007072696E74696E67206279746520002ED2
:1001A0000044656C6574696F6E206661696C656496
:1001B0002C2046696C653A200046696C65206465B0
:1001C0006C657465643A002E006F70656E20666120
:1001D000696C65642C2046696C653A200057726929
:1001E00074696E6720746F2066696C653A20002E12
:1001F000006F70656E206661696C65642C204669CD
:100200006C653A20002E006F70656E206661696C27
:1002100065642C2046696C653A200046696C65204F
:1002200073656C6563746564002053697A653A2070
:100230000046696C65206F70656E65643A20002E1B
:10024000006F70656E206661696C65642C2046697C
:100250006C653A20004E6F77206672657368206681
:10026000696C653A20004E6F7720646F696E672075
:1002700066696C653A20002220706F73002220703E
:100280006172656E743A2200535542524F5554497B
:100290004E452043414C4C207461726765743A228C
:1002A00000747279696E6720746F2063616C6C20D2
:1002B0007375622D67636F64652066696C65732072
:1002C0007769746820746F6F206D616E79206C653A
:1002D00076656C732E204D4158206C6576656C20D8
:1002E00069733A0053442063617264206F6B006F3E
:1002F00070656E526F6F74206661696C656400761C
:100300006F6C756D652E696E6974206661696C65C8
:100310006400534420696E6974206661696C00480A
:10032000617264636F6465642044656661756C74B2
:100330002053657474696E6773204C6F61646564E3
:100340000053746F7265642073657474696E6773AB
:1003500020726574726965766564002044002049E6
:10036000002020204D33303120500050494420736C
:10037000657474696E67733A00205A002059002032
:10038000204D323036205800486F6D65206F66660C
:1003900073657420286D6D293A00204500205A00AD
:1003A00020580020420020540020204D32303520BB
:1003B0005300416476616E636564207661726961A1
:1003C000626C65733A20533D4D696E2066656564C5
:1003D0007261746520286D6D2F73292C20543D4D5A
:1003E000696E2074726176656C2066656564726101
:1003F000746520286D6D2F73292C20423D6D696E28
:10040000696D756D207365676D656E742074696DB7
:100410006520286D73292C20583D6D6178696D75B4
:100420006D205859206A65726B20286D6D2F7329D5
:100430002C20205A3D6D6178696D756D205A206AB7
:1004400065726B20286D6D2F73292C2020453D6D22
:100450006178696D756D2045206A65726B20286D25
:100460006D2F73290020540020204D32303420534A
:1004700000416363656C65726174696F6E3A205305
:100480003D616363656C65726174696F6E2C2054A5
:100490003D7265747261637420616363656C65723B
:1004A0006174696F6E00204500205A0020590020B9
:1004B000204D3230312058004D6178696D756D20C6
:1004C000416363656C65726174696F6E20286D6D40
:1004D0002F7332293A00204500205A00205900206D
:1004E000204D3230332058004D6178696D756D2094
:1004F00066656564726174657320286D6D2F73295C
:100500003A00204500205A0020590020204D393261
:1005100020580053746570732070657220756E6981
:10052000743A0053657474696E67732053746F7204
:100530006564004572726F723A006563686F3A00D5
:1005400053544F505045442E20005072696E7465CC
:10055000722073746F707065642064756520746FA9
:10056000206572726F72732E2046697820746865F8
:10057000206572726F7220616E6420757365204D04
:1005800039393920746F20726573746172742E204A
:100590002854656D70657261747572652069732089
:1005A00072657365742E20536574206974206166CA
:1005B0007465722072657374617274696E67290064
:1005C0004B494C4C45442E20005072696E74657244
:1005D0002068616C7465642E206B696C6C2829201E
:1005E00063616C6C656421006F6B00526573656EAE
:1005F000643A20002200556E6B6E6F776E20636F39
:100600006D6D616E643A2022004368616E676520FB
:1006100066696C616D656E74005A204F666673651D
:1006200074203A20007A5F6D61783A20007A5F6D1D
:10063000696E3A20005A204F6666736574005A202E
:100640004F6666736574206F6B00486F74656E64E7
:10065000206F6666736574733A007A5F6D61783AED
:1006600020007A5F6D696E3A2000795F6D61783A9B
:100670002000795F6D696E3A2000785F6D61783A8D
:100680002000785F6D696E3A2000205A3A002059A8
:100690003A0020436F756E7420583A200020453A86
:1006A00000205A3A0020593A00583A000A000A201D
:1006B00068617264776172653A004649524D5741EC
:1006C00052455F4E414D453A56312E302E30342042
:1006D00020537072696E7465722F6772626C206D40
:1006E000617368757020666F722067656E3620468C
:1006F00049524D574152455F55524C3A2020505275
:100700004F544F434F4C5F56455253494F4E3A3129
:100710002E30204D414348494E455F545950453A8B
:100720004475706C696361746F723520204558544C
:1007300052554445525F434F554E543A3220555519
:1007400049443A004475706C696361746F72352076
:10075000204F66662E004475706C696361746F7219
:1007600035202072656164792E0042656420646FD3
:100770006E652E0020423A0020453A00543A00426D
:1007800065642048656174696E672E004865617410
:10079000696E6720646F6E652E0020573A00204511
:1007A0003A00543A0048656174696E672E2E2E0037
:1007B0002042403A0020403A00202F003A002054C6
:1007C00000202F0020423A00202F006F6B20543A67
:1007D000002569206D696E2C2025692073656300F2
:1007E000456E642066696C65206C697374004265AF
:1007F00067696E2066696C65206C697374004E6F62
:10080000206D6F76652E004475706C696361746F3E
:100810007235202072656164792E00526573756DA2
:10082000696E67207072696E740057616974206622
:100830006F7220757365722E2E2E00536C65657075
:100840002E2E2E000101FF0000844300000A430009
:100850000017430000A0400000A04000000040003E
:1008600000844300000A4300000000000000000074
:10087000000000000000000000844300000A430064
:10088000001743256920686F757273202569206DF4
:10089000696E7574657300446F6E65207072696E61
:1008A00074696E672066696C650053544F505045FB
:1008B000442E20005072696E7465722073746F70DC
:1008C0007065642064756520746F206572726F7244
:1008D000732E2046697820746865206572726F7285
:1008E00020616E6420757365204D39393920746F2D
:1008F00020726573746172742E202854656D706562
:100900007261747572652069732072657365742EE7
:100910002053657420697420616674657220726565
:100920007374617274696E6729004E6F204C696E32
:1009300065204E756D626572207769746820636802
:1009400065636B73756D2C204C617374204C696EFC
:10095000653A20004E6F20436865636B73756D20A8
:1009600077697468206C696E65206E756D6265725A
:100970002C204C617374204C696E653A20006368CA
:1009800065636B73756D206D69736D617463682C3D
:10099000204C617374204C696E653A20004C696E7E
:1009A00065204E756D626572206973206E6F7420CC
:1009B0004C617374204C696E65204E756D62657272
:1009C0002B312C204C617374204C696E653A2000E9
:1009D0004D31313000446F6E6520736176696E670A
:1009E0002066696C652E006F6B004D323900202047
:1009F000506C616E6E65724275666665724279749E
:100A000065733A20002046726565204D656D6F72F2
:100A1000793A20004E6F7620323420323031370060
:100A2000436F6D70696C65643A2000286765656581
:100A3000746563682C204475706C696361746F72AF
:100A4000352900207C20417574686F723A20004E71
:100A50006F7620323420323031372031333A32351C
:100A60003A353000204C61737420557064617465B0
:100A7000643A200056312E302E3034004D61726CB5
:100A8000696E0020536F66747761726520526573DA
:100A9000657400205761746368646F6720526573E2
:100AA0006574002042726F776E206F7574205265F6
:100AB000736574002045787465726E616C205265B0
:100AC00073657400506F776572557000737461724E
:100AD00074002200656E717565696E6720220022C0
:100AE00000656E717565696E6720220020746F6FF6
:100AF000206C6F6E6720657874727573696F6E20F5
:100B000070726576656E7465640020636F6C642036
:100B1000657874727573696F6E2070726576656E34
:100B2000746564007C3C3E5E2B3D3F2F5B5D3B2C3F
:100B30002A225C0045303A20005A3A2000593A20D7
:100B400000583A20004D53312C4D53322050696EDD
:100B5000730A0024F404D9201BC40C5C0E9804C44E
:100B6000095F0265077101F405F900FB04B3004851
:100B7000048700C10369005803550003034500BE04
:100B8000023A008402310053022A0029022500049F
:100B9000022000E4011C00C8011900AF01170098F1
:100BA0000114008401130071011000610110005153
:100BB000010E0043010D0036010B002B010B00203C
:100BC000010B00150109000C01090003010800FBDD
:100BD000000800F3000800EB000700E4000600DE58
:100BE000000600D8000600D2000600CC000500C7B1
:100BF000000500C2000500BD000400B9000400B5F6
:100C0000000400B1000400AD000400A9000400A528
:100C1000000300A20003009F0004009B0003009853
:100C20000003009500020093000300900003008D74
:100C30000002008B0003008800020086000200848E
:100C4000000300810002007F0002007D0002007BA3
:100C500000020079000200770001007600020074B3
:100C600000020072000100710002006F0002006DBE
:100C70000001006C0002006A0001006900020067C8
:100C800000010066000100650001006400020062CE
:100C900000010061000100600001005F0002005DD2
:100CA0000001005C0001005B0001005A00010059D6
:100CB00000010058000100570001005600010055D6
:100CC00000010054000100530000005300010052D5
:100CD00000010051000100500001004F0001004ED2
:100CE0000000004E0001004D0001004C0001004BCF
:100CF0000000004B0001004A0001004900010048CB
:100D000000000048000100470001004600000046C6
:100D100000010045000000450001004400010043BF
:100D200000000043000100420000004200010041B9
:100D300000000041000100400001003F0000003FB2
:100D40000001003E0000003E0001003D0000003DAB
:100D50000001003C0000003C0000003C0001003BA2
:100D60000000003B0001003A0000003A0001003999
:100D70000000003900010038000000380000003891
:100D80000001003700000037000100360000003687
:100D9000000000360001003500000035000000357D
:100DA0000001003400000034000000340001003372
:100DB0000000003300000033000100320000003268
:100DC000000000320001003100000031000000315D
:100DD0000001003000000030000000300001002F52
:100DE0000000002F0000002F0000002F0001002E47
:100DF0000000002E0000002E0001002D0000002D3C
:100E00000000002D0000002D0001002C0000002C2F
:100E10000000002C0000002C0001002B0000002B23
:100E20000000002B0000002B0001002A0000002A17
:100E30000000002A0000002A00010029000000290B
:100E400000000029000000290000002900010028FE
:100E500000000028000000280000002800000028F2
:100E600000010027000000270000002700000027E5
:100E700000000027000100260000002600000026D8
:100E800000000026000000260001002500000025CB
:100E900000000025000000250000002500000025BE
:100EA00000010024000000240000002400000024B1
:100EB00000000024000100230000002300000023A4
:100EC0000000002300000023000000230000002396
:100ED0000001002200000022000000220000002289
:100EE000000000220000002200010021000000217B
:100EF000000000210000002100000021000000216E
:100F0000000000210001002000000020000000205F
:100F10000000002000000020000000200000002051
:100F2000000000200001001F0000001F0000001F43
:100F30000000001F0000001F0000001F0000001F35
:100F40000001001E0000001E0000001E0000001E28
:100F500000000024F4D43050C38E20C2A240178277
:100F60008B7011127A910D816CD90AA861E108C7C2
:100F7000586607615143061E4B5D05C145A7041A1B
:100F8000411104093D9803713931034036DB026594
:100F9000339102D4305402802E1D02632CEE017571
:100FA0002AC501B028A001102781018F2564012BDB
:100FB000244B01E0223401AC211F018D200D018062
:100FC0001FFC00841EED00971DDF00B81CD200E658
:100FD0001BC600201BBC00641AB200B219A8000A8C
:100FE00019A0006A189900D117910040178B00B51D
:100FF00016840031167E00B31579003A157300C7C8
:10100000146F0058146A00EE1366008813630025FD
:10101000135E00C7125B006C12570015125400C11A
:1010200011510070114F0021114B00D61049008D55
:101030001047004610440002104200C00F400080DC
:101040000F3E00420F3C00060F3B00CB0E380093D2
:101050000E37005C0E3500270E3400F30D3200C150
:101060000D3100900D3000600D2E00320D2D000569
:101070000D2C00D90C2B00AE0C2900850C29005C2E
:101080000C2700350C27000E0C2600E80B2400C4AA
:101090000B2400A00B23007D0B23005A0B210039E9
:1010A0000B2100180B2000F80A1F00D90A1E00BBF4
:1010B0000A1E009D0A1D00800A1D00630A1C0047CD
:1010C0000A1B002C0A1B00110A1A00F7091A00DD7E
:1010D000091900C4091900AB091900920917007B0E
:1010E000091800630917004C09160036091600207C
:1010F0000916000A091500F5081500E0081400CCCF
:10110000081400B8081400A4081400900813007D07
:101110000812006B08130058081200460812003429
:10112000081100230811001208110001081100F035
:10113000071000E0071000D0071000C0071000B033
:10114000070F00A107100091070E0083070F00741E
:10115000070F0065070E0057070E0049070E003BFA
:10116000070D002E070E0020070D0013070D0006C7
:10117000070D00F9060C00ED060D00E0060C00D48A
:10118000060C00C8060C00BC060C00B0060C00A43F
:10119000060B0099060C008D060B0082060B0077EB
:1011A000060B006C060B0061060A0057060B004C8C
:1011B000060A0042060A0038060A002E060A002423
:1011C000060A001A060A001006090007060A00FDB2
:1011D000050900F4050900EB050900E2050900D93D
:1011E000050900D0050900C7050900BE050900B5BD
:1011F000050800AD050800A50509009C0508009438
:101200000508008C050800840508007C05080074AA
:101210000508006C050700650508005D0507005618
:101220000508004E0507004705070040050800387F
:10123000050700310507002A050700230507001CE4
:10124000050600160507000F050700080506000241
:10125000050700FB040600F5040700EE040600E89D
:10126000040600E2040700DB040600D5040600CFF4
:10127000040600C9040600C3040600BD040600B746
:10128000040600B1040500AC040600A6040600A094
:101290000405009B04060095040500900406008ADE
:1012A00004050085040500800406007A0405007525
:1012B000040500700405006B040500660405006168
:1012C0000405005C04050057040500520405004DA8
:1012D00004050048040500430405003E0404003AE8
:1012E00004050035040500300404002C0405002723
:1012F000040400230405001E0404001A040400165C
:10130000040500110404000D040400090405000490
:1013100004040000040400FC030400F8030400F4C7
:10132000030400F0030400EC030400E8030400E4F9
:10133000030400E0030400DC030400D8030400D429
:10134000030400D0030400CC030400C8030300C559
:10135000030300656E6473746F7073206869743A78
:10136000205A00205A3A00656E6473746F707320BF
:101370006869743A20590020593A00656E647374A4
:101380006F7073206869743A20580020583A0065DD
:101390006E6473746F7073206869743A20004572CC
:1013A000723A204D415854454D5020424544005416
:1013B000656D7065726174757265206865617465CC
:1013C0006420626564207377697463686564206F64
:1013D00066662E204D415854454D50207472696701
:1013E0006765726564202121004572723A204D497B
:1013F0004E54454D50003A204578747275646572BC
:10140000207377697463686564206F66662E204D6B
:10141000494E54454D502074726967676572656422
:101420002021004572723A204D415854454D5000DC
:101430003A204578747275646572207377697463B5
:10144000686564206F66662E204D415854454D50A6
:1014500020747269676765726564202100202D2001
:10146000496E76616C696420657874727564657222
:10147000206E756D62657220210070012C01900153
:101480002701B0012201C0011D01F0011801100265
:10149000130130020E016002090190020401C00232
:1014A000FF000003FA004003F5008003F000D003C2
:1014B000EB002004E6007004E100E004DC004005DD
:1014C000D700C005D2004006CD00D006C800800776
:1014D000C3003008BE00F008B900C009B400B00A6B
:1014E000AF00B00BAA00D00CA500000EA000500F5A
:1014F0009B00C01096005012910000148C00C01583
:101500008700B0178200B0197D00D01B7800001E44
:10151000730040206E0090226900F0246400402790
:101520005F0090295A00E02B5500102E500020300B
:101530004B0010324600E033410090353C0010373C
:10154000370070383200A0392D00B03A2800A03B97
:101550002300603C1E00103D1900903D1400103E19
:101560000F00703E0A00C03E0500003F00005049D9
:1015700044204175746F74756E652066696E697379
:10158000686564212050757420746865206C6173EF
:1015900074204B702C204B6920616E64204B6420BA
:1015A000636F6E7374616E74732066726F6D206109
:1015B000626F766520696E746F20436F6E6669672F
:1015C00075726174696F6E2E6800504944204175D0
:1015D000746F74756E65206661696C656421207432
:1015E000696D656F75740020403A006F6B20543A46
:1015F000006F6B20423A00504944204175746F746B
:10160000756E65206661696C6564212054656D7036
:101610006572617475726520746F6F2068696768A0
:1016200000204B643A2000204B693A2000204B7088
:101630003A200020436C6173736963205049442051
:10164000002054753A2000204B753A2000206D612F
:10165000783A2000206D696E3A200020643A20001C
:1016600020626961733A20002D2D3A2D2D002D2D19
:101670002D005344000120000120000120004162A0
:101680006F7574004C69676874204F4E004C696731
:101690006874204F4646004E6F20534420636172A9
:1016A00064005072696E742066726F6D205344003E
:1016B00053746F70207072696E7400526573756D2B
:1016C00065207072696E7400506175736520707268
:1016D000696E7400436F6E74726F6C005072657047
:1016E0006172650054756E6500496E666F207363A4
:1016F0007265656E004D61696E00052E2E004D61AC
:10170000696E004D3234004D3233202573004D3860
:101710003420582059205A204500526573746F7246
:1017200065206661696C73616665004C6F61642059
:101730006D656D6F72790053746F7265206D656DA4
:101740006F72790046696C616D656E74004D6F74DF
:10175000696F6E0054656D706572617475726500B5
:101760004D61696E0046696C2E204469612E2032FD
:101770000046696C2E204469612E20320046696C57
:101780002E204469612E20310046696C2E20446968
:10179000612E2031004F6666004F6E20004F666656
:1017A000004F6E20004520696E206D6D3300436F41
:1017B0006E74726F6C004573746570732F6D6D007D
:1017C0004573746570732F6D6D005A737465707313
:1017D0002F6D6D005A73746570732F6D6D005973A2
:1017E000746570732F6D6D005973746570732F6D10
:1017F0006D005873746570732F6D6D005873746548
:1018000070732F6D6D00412D726574726163740089
:10181000412D7265747261637400416D6178206559
:1018200000416D6178206500416D6178207A00414A
:101830006D6178207A00416D6178207900416D6199
:1018400078207900416D6178207800416D617820C1
:1018500078005654726176206D696E00565472613C
:1018600076206D696E00566D696E00566D696E006A
:10187000566D6178206500566D6178206500566D63
:101880006178207A00566D6178207A00566D617813
:10189000207900566D6178207900566D6178207846
:1018A00000566D617820780056652D6A65726B0070
:1018B00056652D6A65726B00567A2D6A65726B00EB
:1018C000567A2D6A65726B005678792D6A65726B4F
:1018D000005678792D6A65726B00416363656C0010
:1018E000416363656C00436F6E74726F6C0050727D
:1018F00065686561742041425320636F6E660050D5
:1019000072656865617420504C4120636F6E66009B
:101910005049442D43005049442D43005049442D23
:1019200044005049442D44005049442D4900504939
:10193000442D49005049442D50005049442D500039
:101940002002204661637400200220466163740017
:101950002002204D6178002002204D617800200295
:10196000204D696E002002204D696E004F666600B2
:101970004F6E20004F6666004F6E20004175746FF9
:1019800074656D700046616E207370656564004615
:10199000616E207370656564004265640042656431
:1019A000004E6F7A7A6C6532004E6F7A7A6C6532CF
:1019B000004E6F7A7A6C65004E6F7A7A6C650043E0
:1019C0006F6E74726F6C0053746F7265206D656D0D
:1019D0006F72790042656400426564004E6F7A7AE6
:1019E0006C65004E6F7A7A6C650046616E2073708C
:1019F0006565640046616E207370656564005465BA
:101A00006D70657261747572650053746F726520D4
:101A10006D656D6F72790042656400426564004EC9
:101A20006F7A7A6C65004E6F7A7A6C650046616EEB
:101A30002073706565640046616E2073706565642F
:101A40000054656D7065726174757265004D6F76D6
:101A5000652061786973004D38300053776974638D
:101A60006820706F776572206F6E004D38310053BB
:101A7000776974636820706F776572206F6666009F
:101A8000436F6F6C646F776E005072656865617448
:101A900020414253005072656865617420504C418A
:101AA0000053657420686F6D65206F66667365749A
:101AB0007300473238004175746F20686F6D6500A0
:101AC0004D38340044697361626C652073746570CD
:101AD00070657273004D61696E004D6F76652030E0
:101AE0002E316D6D004D6F766520316D6D004D6F3F
:101AF00076652031306D6D005072657061726500E1
:101B00004578747275646572004D6F7665205A0071
:101B10004D6F76652059004D6F76652058004D6FEA
:101B200076652061786973004578747275646572B2
:101B3000005A005900580050726568656174204170
:101B400042532042656400507265686561742041AB
:101B5000425320416C6C005072656865617420418D
:101B600042532032005072656865617420414253CF
:101B70002031005072657061726500507265686551
:101B8000617420504C412042656400507265686564
:101B9000617420504C4120416C6C00507265686546
:101BA000617420504C412032005072656865617448
:101BB00020504C4120310050726570617265004DBB
:101BC000363030004368616E67652066696C616D10
:101BD000656E7400466C6F77203100466C6F77201D
:101BE0003100466C6F77203000466C6F77203000F4
:101BF000466C6F7700466C6F770046616E2073709D
:101C00006565640046616E207370656564004265B9
:101C10006400426564004E6F7A7A6C6532004E6FE4
:101C20007A7A6C6532004E6F7A7A6C65004E6F7A04
:101C30007A6C650053706565640053706565640077
:101C40004D61696E00436172642072656D6F7665E7
:101C500064004361726420696E7365727465640028
:101C60004D33303020533639382050323030004D2B
:101C700033303020533635392050323030000000B8
:101C80002100240027002A002D003000330001012C
:101C90000000040107010A010000220025002800BD
:101CA0002B002E0031003400020100000501080164
:101CB0000B01000020002300260029002C002F002B
:101CC00032000001000003010601090105050505B8
:101CD000070508080808020202020A0A08080404A4
:101CE00004040101010101010101030303030303D2
:101CF0000303040707070C0C0C0C0C0C0C0C020261
:101D0000020206060606060606060B0B0B0B0B0B5D
:101D10000B0B0102102020080810204010204080EA
:101D2000020102010804020101020408102040809F
:101D3000804020100804020180040201804020102D
:101D40000804020108040201010204081020408076
:101D500001020408102040800000090A02080B0C50
:101D60000D07060304010000000000000000000051
:101D70000000000000000000000000000000000063
:101D80000000000011100F00000000000000000023
:101D900000000000000000000000000000000249F8
:101DA0004E46494E4954594E414ECDCCCC3D0AD7B2
:101DB000233C17B7D13877CC2B329595E6241FB149
:101DC0004F0A000020410000C84200401C4620BCD1
:101DD000BE4CCA1B0E5AAEC59D74022DB72F64CEE1
:101DE00055DCB22F11241FBECFEFD1E2DEBFCDBF35
:101DF00000E00CBF15E0A0E0B2E0E4E9F9ED01E09D
:101E00000BBF02C007900D92A233B107D9F71BBEDA
:101E100013E1A2E3B5E001C01D92A83FB107E1F7CD
:101E20001DE1C2EEDDE104C02297FE010E9470ECCC
:101E3000CA3DD107C9F70E946CE30C94BEEC0C9428
:101E40000000A0E0B0E0E7E2FFE00C948DECEC01D4
:101E50005B016115710519F0FB0191838083F99095
:101E60008F2D90E00E9474EC892BC9F7FDE2FF16DC
:101E700021F4F990EE24E39405C02BE2F21609F464
:101E8000F990EE248E0101501040C8016FE97DE108
:101E900043E050E072D2892BF9F48E010E5F1F4FA0
:101EA000C80162EA7DE145E050E067D2892B19F470
:101EB0008E01095F1F4FA114B10419F0F5011183C0
:101EC0000083E0FC04C070E090E080E813C070E0A4
:101ED00090E080E86FEF07C1C80167EA7DE143E069
:101EE00050E04BD2892B69F4A114B10429F470E0BD
:101EF00090E080EC6FE7F7C02296F501D183C083B4
:101F0000F6CF8824992440E050E060E070E0EF2DA7
:101F1000E053EA30A0F5F2E0EF2A8E2D90E09C012C
:101F200028703070E2FE06C0232B79F50894811CDE
:101F3000911C2BC0232B19F0089481089108DB0118
:101F4000CA0112E0880F991FAA1FBB1F1A95D1F76B
:101F5000480F591F6A1F7B1F440F551F661F771FAD
:101F60004E0F511D611D711D483929E9520729E99C
:101F7000620729E1720748F084E0E82A06C0EE3FD4
:101F800031F4E3FC39C098E0E92AF990C0CFE53399
:101F900011F0E53189F529912D3219F4E0E1EE2AAD
:101FA00005C02B3219F081E090E003C0299182E056
:101FB00090E0E22FE053EA3018F0C81BD90B1CC0A8
:101FC00020E030E0FCE020383F075CF4C901880FD6
:101FD000991F880F991F280F391F220F331F2E0FAB
:101FE000311DE991E053EA3068F3E4FE03C0309517
:101FF00021953F4F820E931ECE2CDD24E1FE07C0BB
:10200000A114B10421F02197F501D183C083CB0144
:10201000BA010E94D9E87B018C01F3E0CF22DD24D4
:1020200023E0C216D10421F417FB109517F910957F
:1020300057016801C801B70120E030E040E050E0FE
:102040000E9439E8882309F44AC097FE0DC02EEBA0
:10205000E22E2DE1F22E9094819491089394C0E2A7
:10206000D0E000E010E012C096EDE92E9DE1F92EDF
:10207000F6CFF7012591359145915491C601B501EF
:102080000E9419EB5B016C018C1A9D0A8C169D064F
:1020900084F7D595C7950F5F1F4F0630110529F0BE
:1020A0008CEF9FEFE80EF91EF1CFC501D6017C0140
:1020B0008D018C2D880F8D2D881F8F3F51F0C6010B
:1020C000B50120E030E040E050E00E9439E888238C
:1020D00031F482E290E09093F7138093F6137E2D13
:1020E0009F2D802F612F272F392F482F562FB90171
:1020F000CA01CDB7DEB7ECE00C94A9EC2F923F9269
:102100005F926F927F928F929F92AF92BF92CF9287
:10211000DF92EF92FF920F931F93CF93DF938C0187
:102120001B01EA016115710519F0FB0191838083A0
:10213000209749F0CE010297839728F020E030E005
:1021400040E050E0F6C0F801A1908F018A2D90E0A8
:102150000E9474EC892BB9F7FDE2AF1631F4F80157
:10216000A1908F015524539407C0FBE2AF1619F4D8
:10217000F801A1908F015524209719F0C031D105A5
:10218000C1F4F0E3AF1679F4F8018081883711F0DB
:10219000883549F4F801A1800E5F1F4FF2E05F2AF5
:1021A000C0E1D0E006C0209721F480E3A816E9F44E
:1021B00027C0C830D10531F1C930D10524F4C2306F
:1021C000D10531F50CC0CA30D10589F0C031D10537
:1021D000F9F4C12CD12CE12CB8E0FB2E28C0C12C85
:1021E000D12CE12CA0E4FA2E22C0CAE0D0E0FCEC15
:1021F000CF2EFCECDF2EFCECEF2EFCE0FF2E17C008
:10220000C8E0D0E0C12CD12CE12CE0E1FE2E0FC0C3
:102210009E01442737FD4095542F60E070E080E038
:1022200090E80E9431ECC901DA016C017D0120E0E7
:1022300030E040E050E060E03E01882477FC80948C
:10224000982C70EDB72EBA0CE9E0EB1570F48A2DDE
:1022500081548A3118F499ECB92E06C08A2D815622
:102260008A3150F589EAB82EBA0C8B2D90E08C1784
:102270009D0714F56F3FE1F0C216D306E406F5069C
:10228000B0F0CA01B901A40193010E94EBEB9B01DC
:10229000AC012B0D311D411D511D2130F0E03F07D8
:1022A000F0E04F07F0E85F0710F461E001C06FEF66
:1022B000F801A1908F01C5CF2114310481F066236C
:1022C00031F001501040F1011183008308C051FE2C
:1022D0001AC002501040F1011183008314C067FF3F
:1022E00012C050FC05C02FEF3FEF4FEF5FE704C077
:1022F00020E030E040E050E882E290E09093F71375
:102300008093F61316C050FE08C050954095309546
:1023100021953F4F4F4F5F4F0CC057FF0AC082E2DD
:1023200090E09093F7138093F6132FEF3FEF4FEF6A
:102330005FE7B901CA01DF91CF911F910F91FF9023
:10234000EF90DF90CF90BF90AF909F908F907F9055
:102350006F905F903F902F900895FB01DC010590F6
:102360000D920020E1F70895FC0105900020E9F7A7
:10237000809590958E0F9F1F0895FB01DC014150C1
:10238000504088F08D9181341CF08B350CF4805EC8
:10239000659161341CF06B350CF4605E861B611135
:1023A00071F3990B0895881BFCCFFB01DC014150B0
:1023B000504048F005900D920020C9F701C01D92D1
:1023C00041505040E0F70895FB0155915523A9F085
:1023D000BF01DC014D9145174111E1F759F4CD01E1
:1023E0000590002049F04D9140154111C9F3FB01C2
:1023F0004111EFCF81E090E001970895FB01DC01EE
:1024000004C08D910190801921F441505040C8F7CB
:10241000881B990B0895FB01DC0102C001900D920D
:1024200041505040D8F70895FB01DC018D91813473
:102430001CF08B350CF4805E619161341CF06B35BF
:102440000CF4605E861B611189F3990B0895FB0102
:10245000DC010D900020E9F7119701900D9200200A
:10246000E1F70895FC018191861721F08823D9F7BF
:10247000992708953197CF010895FB01DC018D91D3
:10248000019080190110D9F3990B0895FB01DC012B
:1024900001900D920020E1F70895FB01DC0141500D
:1024A000504030F08D910190801919F40020B9F757
:1024B000881B990B0895FB01DC014150504048F006
:1024C00001900D920020C9F701C01D92415050406B
:1024D000E0F70895AEE0B0E0E0E7F2E10C9495ECAF
:1024E0000E891F898EE08C831A8309838FEF9FE703
:1024F0009E838D839E01265E3F4FCE010196688D9F
:10250000798DA9010AD02F813885020F131FF80198
:1025100010822E96E4E00C94B1ECABE0B0E0E3E97D
:10252000F2E10C9487EC3C012B015A01FC0117826B
:102530001682838181FD03C06FEF7FEFB9C19AE0FE
:10254000892E1E010894211C311CF3012381F20104
:1025500023FD859123FF81912F01882309F4A5C1D3
:10256000853239F423FD859123FF81912F01853236
:1025700021F490E0B301B7D1E8CF982FFF24EE24E7
:102580009924FFE1FF15D0F09B3269F09C3228F4CA
:10259000903259F0933291F40EC09D3249F090334D
:1025A00069F441E024C052E0F52A84E0F82A28C00A
:1025B00098E0F92A25C0E0E1FE2A22C0F7FC29C0F4
:1025C000892F80538A3070F4F6FE05C0989C902CB9
:1025D0001124980E15C0E89CE02C1124E80EF0E2BE
:1025E000FF2A0EC09E3229F4F6FC5FC140E4F42AB3
:1025F00007C09C3619F450E8F52A02C0983649F411
:10260000F20123FD959123FF91912F01992309F068
:10261000B8CF892F8554833018F08052833038F436
:1026200044E050E0A40EB51E5FE359830FC093361B
:1026300031F0933779F0933509F052C01FC0F5019E
:102640008081898342E050E0A40EB51E610101E063
:1026500010E011C0F501C080D180F6FC03C06FEF1F
:102660007FEF02C0692D70E042E050E0A40EB51E7D
:10267000C6012ED18C015FE7F52213C0F501C080A1
:10268000D180F6FC03C06FEF7FEF02C0692D70E0D0
:1026900042E050E0A40EB51EC6010FD18C0150E8F7
:1026A000F52AF3FE06C018C080E290E0B3011BD10A
:1026B000EA948E2D90E008171907B0F30DC0F601CB
:1026C000F7FC8591F7FE81916F0190E0B3010BD18A
:1026D000E110EA94015010400115110581F7E2C0A4
:1026E000943611F0993661F5F7FE08C0F5012081A6
:1026F00031814281538184E090E00AC0F5018081FC
:1027000091819C01442737FD4095542F82E090E051
:10271000A80EB91E9FE6F92257FF09C050954095B3
:10272000309521953F4F4F4F5F4FE0E8FE2ACA0199
:10273000B901A1012AE030E002D1D82ED2183FC061
:10274000953729F41F2D1F7E2AE030E01DC01F2D74
:10275000197F9F3661F0903720F4983509F0A5C0B5
:102760000FC0903739F0983709F09FC004C028E0B7
:1027700030E00AC0106114FD146020E130E004C0B4
:1027800014FD166020E132E017FF08C0F5016081FA
:1027900071818281938144E050E008C0F50180811D
:1027A0009181BC0180E090E042E050E0A40EB51EB3
:1027B000A101C5D0D82ED2188FE7F82EF122F6FE4F
:1027C0000BC05EEFF522D91438F4F4FE07C0F2FC1A
:1027D00005C08FEEF82202C01D2D01C0192DF4FE98
:1027E0000DC0FE01ED0DF11D8081803319F499EECD
:1027F000F92208C01F5FF2FE05C003C08F2D867846
:1028000009F01F5F0F2DF3FC13C0F0FE0EC01E1564
:1028100010F09D2C0AC09D2C9E0C911A1E2D05C0F7
:1028200080E290E0B3015FD01F5F1E15C8F304C0C3
:102830001E1510F4E11A01C0EE2404FF0EC080E35F
:1028400090E0B30150D002FF1BC001FD03C088E738
:1028500090E00EC088E590E00BC0802F867881F074
:1028600001FF02C08BE201C080E2F7FC8DE290E044
:10287000B30139D005C080E390E0B30134D09A941D
:10288000D914C8F3DA94F101ED0DF11D808190E0C7
:10289000B30129D0DD20B1F705C080E290E0B3019B
:1028A00022D0EA94EE20C9F750CEF30166817781F9
:1028B000CB012B96E2E10C94A3ECFC010590615056
:1028C00070400110D8F7809590958E0F9F1F089546
:1028D000FC016150704001900110D8F780959095EF
:1028E0008E0F9F1F08950F931F93CF93DF938C013B
:1028F000EB018B8181FF1BC082FF0DC02E813F81C8
:102900008C819D812817390764F4E881F98101934E
:10291000F983E88306C0E885F985802F1995892B0E
:1029200031F48E819F8101969F838E8302C00FEFC9
:102930001FEFC801DF91CF911F910F910895FA0108
:10294000AA27283051F1203181F1E8946F936E7FEE
:102950006E5F7F4F8F4F9F4FAF4FB1E03ED0B4E0DF
:102960003CD0670F781F891F9A1FA11D680F791F20
:102970008A1F911DA11D6A0F711D811D911DA11D31
:1029800020D009F468943F912AE0269F1124301941
:10299000305D3193DEF6CF010895462F4770405DDC
:1029A0004193B3E00FD0C9F7F6CF462F4F70405D8B
:1029B0004A3318F0495D31FD4052419302D0A9F7E6
:1029C000EACFB4E0A6959795879577956795BA95E0
:1029D000C9F700976105710508959B01AC010A2EA6
:1029E00006945795479537952795BA95C9F7620F7D
:1029F000731F841F951FA01D0895FC01128213826E
:102A00000895FC018381882311F081E08283089579
:102A1000FC018281811112820895CF93DF93DC0142
:102A2000FC01EB55FE4F808191810097C9F1019720
:102A300091838083ED01CC5ADF4FFD01ED58FF4FAC
:102A40008BE1019009928150E1F7FD01EE5AFF4FB1
:102A5000AF58BF4F8D919C911197A157B040918372
:102A60008083FD01ED58FF4F20E030E0AD014B5574
:102A70005E4F10C02F5F3F4FEF01DF015F968BE18C
:102A80000D9009928150E1F7858D968D3297918353
:102A90008083B196DA018D919C912817390750F304
:102AA000DF91CF910895FC0187EB94E091838083BF
:102AB0008781882321F0CF0104960C94B17008958A
:102AC000CF92DF92EF92FF920F931F93DF93CF93FA
:102AD000CDB7DEB76F970FB6F894DEBF0FBECDBF90
:102AE0008C016B01095A1F4FD8018C91075510407A
:102AF000882321F42FE2E22EF12C03C090E5E92E89
:102B0000F12CE00EF11E87EB94E09A8389831C82FE
:102B10001B8218861D82B7016C5F7F4FCE01059620
:102B2000A60121E00E949D77882391F5EAE3F5E074
:102B3000949108C08091C00085FFFCCF9093C6009F
:102B4000319694919923B1F7EBE3F1E0949108C0A9
:102B50008091C00085FFFCCF9093C6003196949180
:102B60009923B1F709C08091C00085FFFCCF08947C
:102B7000C11CD11C9093C600F6019081992399F74E
:102B80008091C00085FFFCCF8AE08093C6005AC0C8
:102B9000F801EB55FE4F208131812A30310508F0D4
:102BA00040C02F5F3F4F3183208321503040F901D7
:102BB00085E0EE0FFF1F8A95E1F7E21BF30BED585E
:102BC000FF4FE00FF11F13C0AF01415E5F4FBF0128
:102BD0008BE1DB010D90BD01DA010D92AD01815059
:102BE000C1F7929182913296968F858F7F9721506F
:102BF0003040BFEF2E3F3B0739F7D801AD58BF4FEC
:102C0000F70134968BE101900D928150E1F70F5856
:102C10001F4FF70182819381D8018D939C930157B7
:102C20001040D801AC5ABF4FFE0135968BE10190A0
:102C30000D928150E1F70E5A1F4F8B819C81F80154
:102C400091838083CE0101962EDF6F960FB6F894A4
:102C5000DEBF0FBECDBFCF91DF911F910F91FF90CF
:102C6000EF90DF90CF900895EF92FF920F931F9314
:102C70008C013EECE32E31E0F32EE80EF91EC70185
:102C80000E946270C7010E94B170F8011082118227
:102C90001F910F91FF90EF900895CF92DF92EF92E6
:102CA000FF920F931F93CF93DF937C016B01DB01A6
:102CB0000D900020E9F78D0101501040061B170B05
:102CC000EEECF1E0EE0EFF1ED7011C92E2E3FEEF08
:102CD000EE0EFF1ECB016EE470E0C4DBEC0100974A
:102CE00031F4F8013197EC0DFD1D86010CC060E256
:102CF00070E0B8DB8C010F5F1F4FCE016AE270E01D
:102D0000B1DBFC0131978DE081838AE082831382FD
:102D1000C70186539E4FB8010E94AE788EEC91E0B9
:102D2000E80EF91ED7018C91882319F1E3E3F5E051
:102D3000949108C08091C00085FFFCCF9093C6009D
:102D4000319694919923B1F7E5E6F1E0949108C0AA
:102D50008091C00085FFFCCF9093C600319694917E
:102D60009923B1F78091C00085FFFCCF8AE0809362
:102D7000C600DF91CF911F910F91FF90EF90DF90F0
:102D8000CF900895CF93DF93EC018B81882309F4D2
:102D90003BC0EDE8F1E0949108C08091C00085FF50
:102DA000FCCF9093C600319694919923B1F7CD57FB
:102DB000DD4F488159816A817B81C358D24086EBBF
:102DC00095E02AE030E00E949B2DEBE8F1E0949141
:102DD00008C08091C00085FFFCCF9093C60031965B
:102DE00094919923B1F7C558DD4F488159816A8183
:102DF0007B8186EB95E02AE030E00E949B2D80915C
:102E0000C00085FFFCCF12C0EBE7F1E0949108C051
:102E10008091C00085FFFCCF9093C60031969491BD
:102E20009923B1F78091C00085FFFCCF8AE08093A1
:102E3000C600DF91CF9108952F923F924F925F92FB
:102E40006F927F928F929F92AF92BF92CF92DF92BA
:102E5000EF92FF920F931F93DF93CF93CDB7DEB71F
:102E6000AC970FB6F894DEBF0FBECDBF5C014B012F
:102E7000FC018381882309F43BC1C50182539E4F25
:102E80000E94B170F50112821A8A1D8A198A188A65
:102E900087EB94E09F878E875EE4C52ED12CCA0C09
:102EA000DB1C2FE230E0A20EB31EF601B182A0823D
:102EB00021ED3FEFA20EB31EF40180818F3209F0A5
:102EC0008DC0C4016FE270E0CDDA7C010894E11C92
:102ED000F11C3E010894611C711C260142E1242E64
:102EE000312C2C0E3D1E75C0C7016FE270E0BADABE
:102EF0006C01009709F480C0E816F90608F07CC060
:102F00008C010E191F09C301B701A801D4DA060DFF
:102F1000171DF8011082F30107C08091C00085FFE2
:102F2000FCCF31969093C60090819923B1F78091A0
:102F3000C00085FFFCCFFAE0F093C600F20160818B
:102F400071816115710519F460E070E002C06C5F79
:102F50007F4FC101A30121E00E949D77882371F575
:102F6000E9ECF1E0949108C08091C00085FFFCCFAE
:102F70009093C600319694919923B1F7FE01319652
:102F800007C08091C00085FFFCCF31969093C600AA
:102F900090819923B1F7E7ECF1E0949108C080911A
:102FA000C00085FFFCCF9093C60031969491992381
:102FB000B1F78091C00085FFFCCF94C02EE030E0D7
:102FC0002C0F3D1FF2013183208376010894E11C10
:102FD000F11CE114F10409F087CF0BC080E590E00B
:102FE000A80EB91EF601B182A08220EB3FEFA20E1F
:102FF000B31ED82C092D02C0DE2C0F2D8EE490E0DC
:10300000A80EB91EF5018081918122EB3FEFA20E3F
:10301000B31E009719F480E090E001C004966D2D76
:10302000702F0E946978882371F1E9EBF1E09491A7
:1030300008C08091C00085FFFCCF9093C6003196F8
:1030400094919923B1F78D2D902F9C01F90107C020
:103050008091C00085FFFCCF31969093C60090818F
:103060009923B1F78091C00085FFFCCF8AE080935F
:10307000C60083E892E0A80EB91EF5011082118205
:103080001282138232C0E1EAF1E0949108C080918B
:10309000C00085FFFCCF9093C60031969491992390
:1030A000B1F78D2D902F9C01F90107C08091C000D0
:1030B00085FFFCCF31969093C60090819923B1F79C
:1030C000EFE9F1E0949108C08091C00085FFFCCF4A
:1030D0009093C600319694919923B1F78091C000E6
:1030E00085FFFCCF8AE08093C600CE010E96DBDC24
:1030F000AC960FB6F894DEBF0FBECDBFCF91DF9177
:103100001F910F91FF90EF90DF90CF90BF90AF9005
:103110009F908F907F906F905F904F903F902F90F7
:103120000895BF92CF92DF92EF92FF920F931F9379
:10313000CF93DF938C01EB018FE28993EE24E3942C
:10314000FF2475EAC72E71E0D72EC00ED11E6FE1A5
:10315000B62E14C0FB9CC00111248D589F4F800FC8
:10316000911FBE010E94C17002C02196E394888124
:10317000882319F08CE88E15C0F7F3942F2D30E0DA
:10318000F601808191812817390720F3E7FC07C0F9
:10319000C80182539E4FBE010E94C17001C01882B7
:1031A000DF91CF911F910F91FF90EF90DF90CF9023
:1031B000BF900895EF92FF920F931F93CF93DF93E9
:1031C0008C01FC01138286A9882321F0C801C396D3
:1031D0000E94B170E7EAEE2EE1E0FE2EE00EF11E55
:1031E000C70160E045E30E945E6E882309F5EAE3CB
:1031F000F5E0949108C08091C00085FFFCCF9093CA
:10320000C600319694919923B1F7E2E1F3E09491ED
:1032100008C08091C00085FFFCCF9093C600319616
:1032200094919923B1F78091C00085FFFCCF7DC0B8
:10323000E801C455DE4FCE01B70141E00E943F795D
:10324000882341F5CE01B70140E00E943F798823F1
:1032500009F5E3E3F5E0949108C08091C00085FF93
:10326000FCCF9093C600319694919923B1F7EFEF7C
:10327000F2E0949108C08091C00085FFFCCF90934C
:10328000C600319694919923B1F78091C00085FFD3
:10329000FCCF4BC0C801C396BE010E94A373882314
:1032A00009F5E3E3F5E0949108C08091C00085FF43
:1032B000FCCF9093C600319694919923B1F7EFEE2D
:1032C000F2E0949108C08091C00085FFFCCF9093FC
:1032D000C600319694919923B1F78091C00085FF83
:1032E000FCCF23C081E0F8018383EAE3F5E0949109
:1032F00008C08091C00085FFFCCF9093C600319636
:1033000094919923B1F7E4EEF2E0949108C0809192
:10331000C00085FFFCCF9093C6003196949199230D
:10332000B1F78091C00085FFFCCF8AE08093C60092
:10333000D801AC5ABF4FF801F3968BE101900D9282
:103340008150E1F7F80181A992A90E5A1F4FF801A7
:103350009183808302551040C8018F96025B1F4FF6
:10336000F80191838083DF91CF911F910F91FF909E
:10337000EF9008952F923F924F925F926F927F92BB
:103380009F92AF92BF92CF92DF92EF92FF920F93F4
:103390001F93DF93CF93CDB7DEB7CC55D0400FB698
:1033A000F894DEBF0FBECDBF6C01662311F527E890
:1033B00032E0C20ED31ED6018C91E9E7FDEFCE0EAE
:1033C000DF1E882309F4E2C02FE732E0C20ED31ECD
:1033D000D601ED90FD900D911C91E1E8FDEFCE0E30
:1033E000DF1E0E94A7E0E616F7060807190708F493
:1033F000CDC027E832E0C20ED31ED6011C92E9E709
:10340000FDEFCE0EDF1ED60113968C91882339F482
:10341000C601D0DEF6018381882309F4B7C000D04D
:1034200000D0EDB7FEB731967E010894E11CF11C87
:10343000ADB7BEB71296FC92EE9211978CE591E073
:1034400093838283D6019D968D919C919E979583BF
:10345000848340D88701EDB7FEB736960FB6F8944F
:10346000FEBF0FBEEDBF57010AC0D8018C9199274E
:1034700087FD90950E947CECF80181938F01F50106
:1034800001900020E9F73197EA19FB09802F8E1986
:103490008E175CF313E3A12EB12CAC0CBD1CC5013F
:1034A00040E050E060E070E00E94986F9924BDE336
:1034B000EB2EF12CEC0EFD1E2E010894411C511C2C
:1034C000AFE16A2E712C6C0E7D1EF5E52F2EF1E01A
:1034D0003F2E42C0D8018C9190E00E947CECF80114
:1034E00081938F01D7010D900020E9F71197AE1954
:1034F000BF09802F8E198A176CF327968FAD2797F7
:103500008E3751F1C701B20145E050E00E944D12E3
:10351000009711F500D000D0EDB7FEB73196ADB7EA
:10352000BEB712967C926E92119733822282558298
:1035300044820E946A12EDB7FEB736960FB6F89431
:10354000FEBF0FBEEDBFC3010E942F5481E591E085
:103550000E94B65399249394C501B70140E050E00E
:103560000E94C272181614F48701BCCF992041F44E
:103570008FEF9FEFD6019E969C938E939D9706C0EA
:10358000F60185A596A5019696A785A7C45ADF4F93
:103590000FB6F894DEBF0FBECDBFCF91DF911F9164
:1035A0000F91FF90EF90DF90CF90BF90AF909F90E2
:1035B0007F906F905F904F903F902F9008952F9243
:1035C0003F924F925F926F927F928F929F92AF92B3
:1035D000BF92CF92DF92EF92FF920F931F93DF93F0
:1035E000CF93CDB7DEB7CF58D0400FB6F894DEBF3B
:1035F0000FBECDBF8C012B016A01C757DF4F398346
:103600002883C958D04084E090E0C80ED91EF80144
:103610007196C957DF4FF983E883C758D04044E01B
:10362000642E712C600E711ECA57DF4F1882C65867
:10363000D04036E6E32EF12CEC0EFD1EC7010B96B2
:10364000C557DF4F99838883CB58D04028E8822E16
:1036500022E0922E800E911E9AE8A92E92E0B92EB9
:10366000A00EB11E87E4282E312C2C0E3D1EF10138
:103670003496C357DF4FF983E883CD58D040EAE34F
:10368000F5E08491C157DF4F8883CF58D04053C1B4
:10369000F7018385482F50E0BA016871707060317E
:1036A000710509F056C1F4012081318121303105C5
:1036B00009F44FC12230310509F44BC1F701DE0195
:1036C00011969081903239F08E2F8E19883011F436
:1036D0008EE28D939D933196C557DF4F88819981F6
:1036E000CB58D040E817F90761F71C921E86F2010B
:1036F0008081882331F4CE010E9660E072E00E9452
:103700002712CE010E96B2010E942712CE010E960C
:10371000BE016F5F7F4F0E942712CE010E9660E0C0
:1037200072E00E9427121CA61FA61BA61AA687EBF2
:1037300094E099A788A7CE018C96B601AE014F5FA1
:103740005F4F21E00E949D77882309F03FC0F4017C
:1037500080819181892BD1F5C157DF4F9881CF5856
:10376000D040EAE3F5E008C08091C00085FFFCCFBF
:103770009093C600319694919923B1F7E2E0F2E07C
:1037800007C08091C00085FFFCCF31969093C600A2
:1037900090819923B1F78091C00085FFFCCFFAE0BA
:1037A000F093C600FE01319607C08091C00085FFEE
:1037B000FCCF31969093C60090819923B1F7809108
:1037C000C00085FFFCCF8AE08093C600C357DF4F5F
:1037D000A881B981CD58D040FE01BC968BE1019003
:1037E0000D928150E1F78AA59BA5F1019383828315
:1037F00087EB94E091838083C801BE01625F7F4FB5
:10380000A10120E030E0DBDEC1014DD9CE01889678
:103810004AD991C09E3209F48EC09F3509F48BC0FD
:10382000F80191899E3209F486C09F3509F483C05E
:1038300043FD81C080E06031710509F481E0F80149
:1038400084A7882349F4F7018085873409F073C081
:1038500081858E3709F46FC0D301F70180818032F2
:1038600041F08E2F8E19883011F48EE28D93808175
:103870008D933196C557DF4F88819981CB58D040C1
:10388000E817F90759F71C92F4018081918100979C
:1038900001F5F20107C08091C00085FFFCCF319691
:1038A0009093C60090819923B1F7F30107C08091EE
:1038B000C00085FFFCCF31969093C600908199237C
:1038C000B1F78091C00085FFFCCFFAE0F093C6000D
:1038D00032C08130910539F4F501808191810196E2
:1038E0009183808328C0029731F5C757DF4F8881C5
:1038F0009981C958D040009731F0B3010E94141249
:10390000892B71F42BC0CA57DF4F9881C658D0401D
:10391000292F30E0F5018081918128173907F1F0D6
:10392000CA57DF4FF881C658D040FF5FCA57DF4FF4
:10393000F883C658D040C601B701C957DF4F488148
:103940005981C758D0400E94C27218160CF4A0CEFC
:1039500005C0F7019081992309F05CCFC157DF4F73
:103960000FB6F894DEBF0FBECDBFCF91DF911F9190
:103970000F91FF90EF90DF90CF90BF90AF909F900E
:103980008F907F906F905F904F903F902F90089511
:10399000EF92FF920F931F93DF93CF93CDB7DEB7D4
:1039A0006F970FB6F894DEBF0FBECDBF7C018C01C0
:1039B000025B1F4F805B9F4FF8019183808328E853
:1039C00032E0E20EF31E21E030E0F7012193319363
:1039D0007F011182108226E73DEFE20EF31E04966E
:1039E00040E050E060E070E00E94986FF8012081B4
:1039F0003181DE011596F90134968BE101900D922B
:103A00008150E1F7F901828193819C838B8387EB5D
:103A100094E09A838983C70165E172E08E010F5FAC
:103A20001F4FA80120E030E0CADDC8013CD8F701F3
:103A3000E657FD4F808191816F960FB6F894DEBFF7
:103A40000FBECDBFCF91DF911F910F91FF90EF90EF
:103A50000895CF92DF92EF92FF920F931F93DF931F
:103A6000CF93CDB7DEB76F970FB6F894DEBF0FBE1A
:103A7000CDBF7C016A018C01025B1F4F805B9F4FB1
:103A8000F8019183808328E832E0E20EF31E22E001
:103A900030E0F701219331937F017183608326E742
:103AA0003DEFE20EF31E049640E050E060E070E06F
:103AB0000E94986FF80120813181DE011596F9018D
:103AC00034968BE101900D928150E1F7F9018281EA
:103AD00093819C838B8387EB94E09A838983C701CE
:103AE00065E172E08E010F5F1F4FA801960167DD4F
:103AF000C8010E9453156F960FB6F894DEBF0FBE33
:103B0000CDBFCF91DF911F910F91FF90EF90DF908C
:103B1000CF9008952F923F924F925F926F927F9233
:103B20008F929F92AF92BF92CF92DF92EF92FF92CD
:103B30000F931F93DF93CF93CDB7DEB7AD970FB63B
:103B4000F894DEBF0FBECDBF7C013B014DA7DC0169
:103B500013968C91882309F450C3E1EDF1E0EE0E49
:103B6000FF1ED7018C91EFE2FEEFEE0EFF1E8823C1
:103B700009F418C1222309F0E0C029EE31E0E20E79
:103B8000F31ED7018C91E7E1FEEFEE0EFF1E8823B6
:103B900071F1E3E3F5E0949108C08091C00085FFE6
:103BA000FCCF9093C600319694919923B1F7E1EA46
:103BB000F2E0949108C08091C00085FFFCCF909303
:103BC000C600319694919923B1F786EB95E061E0B8
:103BD00070E04AE050E00E94EA2D8091C00085FF2D
:103BE000FCCF8AE08093C6000E945E3006C3EAE301
:103BF000F5E0949108C08091C00085FFFCCF9093C0
:103C0000C600319694919923B1F7E8E8F2E09491D7
:103C100008C08091C00085FFFCCF9093C60031960C
:103C200094919923B1F7F30107C08091C00085FFFB
:103C3000FCCF31969093C60090819923B1F7EDE7C0
:103C4000F2E0949108C08091C00085FFFCCF909372
:103C5000C600319694919923B1F7C7012EEE31E059
:103C6000E20EF31EB7015DDA4BEF5FEFE40EF51ED7
:103C7000D7019C91E7E1FEEFEE0EFF1E8DE8989FC5
:103C8000F0011124E251FE4FEE0DFF1D07C080919F
:103C9000C00085FFFCCF31969093C6009081992398
:103CA000B1F7E7E7F2E0949108C08091C00085FF8A
:103CB000FCCF9093C600319694919923B1F723E8F5
:103CC00032E0E20EF31ED7014D915D916D917C9132
:103CD000EDE7FDEFEE0EFF1E86EB95E02AE030E00B
:103CE0000E949B2D8091C00085FFFCCF8AE08093CD
:103CF000C600A70147515E4FDA012C91E22FF0E098
:103D0000EE0FFF1FEE0FFF1FEE0DFF1DE651FE4FE2
:103D100083E892E0E80EF91ED701AD90BD90CD90FA
:103D2000DC908DE79DEFE80EF91EA082B182C28281
:103D3000D3822F5FDA012C932FC0EAE3F5E0949150
:103D400008C08091C00085FFFCCF9093C6003196DB
:103D500094919923B1F7E6E6F2E0949108C080913E
:103D6000C00085FFFCCF9093C600319694919923B3
:103D7000B1F7F30107C08091C00085FFFCCF3196F9
:103D80009093C60090819923B1F78091C00085FF80
:103D9000FCCF8AE08093C600C70182539E4F0E94E9
:103DA000B17039C0E9EEF1E0EE0EFF1ED7011C92B2
:103DB000E7E1FEEFEE0EFF1EEAE3F5E0949108C0A6
:103DC0008091C00085FFFCCF9093C60031969491FE
:103DD0009923B1F7E5E5F2E0949108C08091C00025
:103DE00085FFFCCF9093C600319694919923B1F74B
:103DF000F30107C08091C00085FFFCCF31969093FE
:103E0000C60090819923B1F78091C00085FFFCCF57
:103E10008AE08093C600D70112961C921A8A1D8AE6
:103E2000198A188A87EB94E09F878E876EE4A62E06
:103E3000B12CAE0CBF1CEFE2F0E0EE0EFF1ED50180
:103E4000ED92FC92E1EDFFEFEE0EFF1ED3018C919F
:103E50008F3209F090C0C3016FE270E00E9432120D
:103E60006C010894C11CD11C4E010894811C911C4A
:103E7000250152E1252E312C2C0E3D1E77C0C601A6
:103E80006FE270E00E9432125C01009709F480C07A
:103E9000C816D90608F07CC08C010C191D09C40194
:103EA000B601A8010E945B12080D191DF8011082CD
:103EB000F40107C08091C00085FFFCCF319690933C
:103EC000C60090819923B1F78091C00085FFFCCF97
:103ED000FAE0F093C600D2016D917C9161157105F5
:103EE00019F460E070E002C06C5F7F4FC101A40173
:103EF00021E00E949D77882371F5E1E4F2E094913E
:103F000008C08091C00085FFFCCF9093C600319619
:103F100094919923B1F7FE01319607C08091C000BA
:103F200085FFFCCF31969093C60090819923B1F71D
:103F3000EFE3F2E0949108C08091C00085FFFCCFD0
:103F40009093C600319694919923B1F78091C00067
:103F500085FFFCCF23C12EE030E02C0F3D1FF20186
:103F60003183208365010894C11CD11CC114D10484
:103F700009F085CF0BC040E550E0E40EF51ED501F9
:103F8000ED92FC92E0EBFFEFEE0EFF1E830101C00D
:103F90008601F701E25BFF4F2DA5222309F4BFC084
:103FA000608171816115710519F460E070E002C0F3
:103FB0006C5F7F4FC70182539E4FA80121E00E9492
:103FC0009D77882309F47EC04FED51E0E40EF51E85
:103FD000D7014D915D916D917C91ECE9F0E0EE0E91
:103FE000FF1ED7014D935D936D937C931397E5E886
:103FF000FDEFEE0EFF1EE1E3F2E0949108C0809128
:10400000C00085FFFCCF9093C60031969491992310
:10401000B1F7F80107C08091C00085FFFCCF319651
:104020009093C60090819923B1F7E9E2F2E0949170
:1040300008C08091C00085FFFCCF9093C6003196E8
:1040400094919923B1F786EB95E02AE030E00E9445
:104050009B2D8091C00085FFFCCF8AE08093C60035
:1040600023E832E0E20EF31ED7011D921D921D924D
:104070001C921397EDE7FDEFEE0EFF1EEBE1F2E071
:10408000949108C08091C00085FFFCCF9093C6003A
:10409000319694919923B1F78091C00085FFFCCFB0
:1040A0008AE08093C600C70160E070E0A801D1DC1F
:1040B000D70151968C91882309F498C087010F5E2F
:1040C0001F4F94C0E7E0F2E0949108C08091C000D7
:1040D00085FFFCCF9093C600319694919923B1F758
:1040E000F80107C08091C00085FFFCCF3196909306
:1040F000C60090819923B1F7E5E0F2E0949108C001
:104100008091C00085FFFCCF9093C60031969491BA
:104110009923B1F78091C00085FFFCCF3FC060813B
:1041200071816115710519F460E070E002C06C5F87
:104130007F4FC70182539E4FA80126E50E949D77BD
:10414000882381F5E1EFF1E0949108C08091C000EF
:1041500085FFFCCF9093C600319694919923B1F7D7
:10416000F80107C08091C00085FFFCCF3196909385
:10417000C60090819923B1F7EFEEF1E0949108C069
:104180008091C00085FFFCCF9093C600319694913A
:104190009923B1F78091C00085FFFCCF8AE080931E
:1041A000C60027C081E0F7018083EDEDF1E0949136
:1041B00008C08091C00085FFFCCF9093C600319667
:1041C00094919923B1F7F30107C08091C00085FF56
:1041D000FCCF31969093C60090819923B1F78091DE
:1041E000C00085FFFCCF8AE08093C600C8010E9412
:1041F000B3CECE010E960E945315AD960FB6F8942D
:10420000DEBF0FBECDBFCF91DF911F910F91FF9009
:10421000EF90DF90CF90BF90AF909F908F907F9066
:104220006F905F904F903F902F900895EF92FF9284
:104230000F931F93CF93DF93EC010E948A7E8E0130
:1042400007511E4FD8018C91BEECEB2EB1E0FB2E36
:10425000EC0EFD1E882399F1C7010E94B170F80190
:104260006081615060838DE8689FB00111246251C4
:104270007E4F6C0F7D1FCE0141E021E04BDCD80169
:10428000EC91F0E0EE0FFF1FEE0FFF1FEC0FFD1F94
:10429000E651FE4F4081518162817381CD57DD4FE0
:1042A000488359836A837B83C358D240C7010E94E5
:1042B000986F8B81882389F181E08A832EC00E94C8
:1042C000687EC7010E94B1701A828FE291E00E945D
:1042D000B6538091D60A882301F11092D60A8091B4
:1042E0008B08C82FD0E0CC0FDD1FC05EDD4E68818B
:1042F0007981882777FD8095982F0E94DBE82091AF
:10430000FF033091000440910104509102040E9487
:1043100047EA181614F419821882DF91CF911F9181
:104320000F91FF90EF900895FC0181E08183CF0110
:1043300040E021E0EFCBEF92FF920F931F93DF93CA
:10434000CF93CDB7DEB76F970FB6F894DEBF0FBE31
:10435000CDBF7C0188E892E0E80EF91EF7011182DA
:10436000108288E79DEFE80EF91E87010D5C1F4F54
:10437000C80140E050E060E070E00E94986FDE010C
:104380001596F8018BE101900D928150E1F7F7014C
:1043900081A992A99C838B8387EB94E09A8389837C
:1043A000C70165E172E08E010F5F1F4FA80120E099
:1043B00030E005D9C8010E9453156F960FB6F894E6
:1043C000DEBF0FBECDBFCF91DF911F910F91FF9048
:1043D000EF9008950F931F93CF93DF93DC01D39653
:1043E0001C92D397D6961C92D697D2961C921E9268
:1043F000D19787EB94E0D0969C938E939F97AC5A7D
:10440000BF4F1C9213961C92A755B040FD01E05B74
:10441000FF4FAE5ABF4F11961C921E92A255B0404C
:1044200091838083ED01C159DF4FFE0120E030E030
:10443000482F148217821382128240839183215E57
:104440003F4F7F9681E02633380799F7A855BE4F36
:1044500089E18C9313961C9258961C921B961C9281
:1044600013961C92A15DB140FD01E653FE4FA4538B
:10447000BE4F11961C921E9240839183A155BF4F4F
:104480001D921D921D921C92139718961D921D92BB
:104490001D921C921397A358B24012961C92129729
:1044A00013961C9213971C9211961C9211978D01D2
:1044B00001581D4FF8011082118212821382AB55F0
:1044C000BE4F11961C921E92AC5BBF4F1C92FE0118
:1044D000C90111920197E9F7A256BF4F81E08C9371
:1044E000A758B2409E961C921E929D970E94A7E0EC
:1044F00068577C4E8F4F9F4FF80160837183828392
:104500009383DF91CF911F910F910895DF93CF9304
:10451000CDB7DEB72A970FB6F894DEBF0FBECDBF7A
:104520008091160290911702A0911802B091190281
:104530008B839C83AD83BE83FE01339624E630E0FB
:104540008081F999FECF1FBA32BD21BD80BD0FB663
:10455000F894FA9AF99A0FBE2F5F3F4F283631052B
:1045600011F03196EDCFEAE7FAE08081F999FECFBC
:104570001FBA32BD21BD80BD0FB6F894FA9AF99AE0
:104580000FBE2F5F3F4F2837310511F03196EDCF29
:10459000EAE6FAE08081F999FECF1FBA32BD21BD6B
:1045A00080BD0FB6F894FA9AF99A0FBE2F5F3F4F6D
:1045B0002838310511F03196EDCFEAE8FAE0808134
:1045C000F999FECF1FBA32BD21BD80BD0FB6F89458
:1045D000FA9AF99A0FBE2F5F3F4F2839310511F033
:1045E0003196EDCFEEE9FAE08081F999FECF1FBA5E
:1045F00032BD21BD80BD0FB6F894FA9AF99A0FBE6C
:104600002F5F3F4F2C39310511F03196EDCFE2EAA3
:10461000FAE08081F999FECF1FBA32BD21BD80BD7D
:104620000FB6F894FA9AF99A0FBE2F5F3F4F203ACF
:10463000310511F03196EDCFEAE9FAE08081F99980
:10464000FECF1FBA32BD21BD80BD0FB6F894FA9AD5
:10465000F99A0FBE2F5F3F4F243A310511F0319682
:10466000EDCFE2EBFAE08081F999FECF1FBA32BDBF
:1046700021BD80BD0FB6F894FA9AF99A0FBE2F5F4C
:104680003F4F283A310511F03196EDCFE6E6FAE0DA
:104690008081F999FECF1FBA32BD21BD80BD0FB612
:1046A000F894FA9AF99A0FBE2F5F3F4F2C3A3105D2
:1046B00011F03196EDCFE6EAFAE08081F999FECF6C
:1046C0001FBA32BD21BD80BD0FB6F894FA9AF99A8F
:1046D0000FBE2F5F3F4F203B310511F03196EDCFDC
:1046E000EAEAFAE08081F999FECF1FBA32BD21BD16
:1046F00080BD0FB6F894FA9AF99A0FBE2F5F3F4F1C
:10470000243B310511F03196EDCFEEEAFAE08081DD
:10471000F999FECF1FBA32BD21BD80BD0FB6F89406
:10472000FA9AF99A0FBE2F5F3F4F283B310511F0DF
:104730003196EDCFECE5F8E08081F999FECF1FBA14
:1047400032BD21BD80BD0FB6F894FA9AF99A0FBE1A
:104750002F5F3F4F243C310511F03196EDCFE1EA58
:10476000F2E18081F999FECF1FBA32BD21BD80BD33
:104770000FB6F894FA9AF99A0FBE2F5F3F4F263C76
:10478000310511F03196EDCFE3EAF2E18081F9993C
:10479000FECF1FBA32BD21BD80BD0FB6F894FA9A84
:1047A000F99A0FBE2F5F3F4F283C310511F031962B
:1047B000EDCFE5EAF2E18081F999FECF1FBA32BD73
:1047C00021BD80BD0FB6F894FA9AF99A0FBE2F5FFB
:1047D0003F4F2A3C310511F03196EDCFE7EAF2E187
:1047E0008081F999FECF1FBA32BD21BD80BD0FB6C1
:1047F000F894FA9AF99A0FBE2F5F3F4F2C3C31057F
:1048000011F03196EDCFE9EAF2E18081F999FECF1E
:104810001FBA32BD21BD80BD0FB6F894FA9AF99A3D
:104820000FBE2F5F3F4F2E3C310511F03196EDCF7B
:10483000EBEAF2E18081F999FECF1FBA32BD21BDCA
:1048400080BD0FB6F894FA9AF99A0FBE2F5F3F4FCA
:10485000203D310511F03196EDCFE7E7F8E080819A
:10486000F999FECF1FBA32BD21BD80BD0FB6F894B5
:10487000FA9AF99A0FBE2F5F3F4F243D310511F090
:104880003196EDCFECE0F4E08081F999FECF1FBACC
:1048900032BD21BD80BD0FB6F894FA9AF99A0FBEC9
:1048A0002F5F3F4F283D310511F03196EDCFE0E10C
:1048B000F4E08081F999FECF1FBA32BD21BD80BDE1
:1048C0000FB6F894FA9AF99A0FBE2F5F3F4F2C3D1E
:1048D000310511F03196EDCFE4E1F4E08081F999F2
:1048E000FECF1FBA32BD21BD80BD0FB6F894FA9A33
:1048F000F99A0FBE2F5F3F4F203E310511F03196E0
:10490000EDCF80E290E09A838983FE013196808129
:10491000F999FECF1FBA32BD21BD80BD0FB6F89404
:10492000FA9AF99A0FBE213E310521F0319621EE17
:1049300030E0EDCF20914B08F999FECF1FBA82EEFF
:1049400090E092BD81BD20BD0FB6F894FA9AF99A15
:104950000FBEEDEBF3E083EE90E02081F999FECFFE
:104960001FBA92BD81BD20BD0FB6F894FA9AF99A8C
:104970000FBE0196873E910511F03196EECFE1EC26
:10498000F3E02081F999FECF1FBA92BD81BD20BD11
:104990000FB6F894FA9AF99A0FBE01968B3E9105DC
:1049A00011F03196EECFE4EEF3E02081F999FECFDD
:1049B0001FBA92BD81BD20BD0FB6F894FA9AF99A3C
:1049C0000FBE01968C3F910511F03196EECFE5EFC9
:1049D000F3E02081F999FECF1FBA92BD81BD20BDC1
:1049E0000FB6F894FA9AF99A0FBE21E08130920737
:1049F00019F001963196EDCF80911A0290911B0229
:104A0000A0911C02B0911D028F839887A987BA8755
:104A1000FE01379684E690E02081F999FECF1FBA17
:104A200092BD81BD20BD0FB6F894FA9AF99A0FBED7
:104A30008736910519F001963196EECFEAE3F5E05D
:104A4000949108C08091C00085FFFCCF9093C60070
:104A5000319694919923B1F7E3E2F5E0949108C07F
:104A60008091C00085FFFCCF9093C6003196949151
:104A70009923B1F78091C00085FFFCCF8AE0809335
:104A8000C6002A960FB6F894DEBF0FBECDBFCF91F9
:104A9000DF910895DF93CF93CDB7DEB7E0970FB6E0
:104AA000F894DEBF0FBECDBFDE011196EFE5F4E056
:104AB00080E101900D928150E1F7DE015196EFE423
:104AC000F4E080E101900D928150E1F7DE019196D2
:104AD000EFE3F4E080E101900D928150E1F78981EC
:104AE0009A81AB81BC8180937A0A90937B0AA093D0
:104AF0007C0AB0937D0A89899A89AB89BC898093A5
:104B00006A0A90936B0AA0936C0AB0936D0A89A10C
:104B10009AA1ABA1BCA180938A0A90938B0AA0931F
:104B20008C0AB0938D0A8D819E81AF81B885809368
:104B30007E0A90937F0AA093800AB093810A8D89A0
:104B40009E89AF89B88D80936E0A90936F0AA09367
:104B5000700AB093710A8DA19EA1AFA1B8A58093F0
:104B60008E0A90938F0AA093900AB093910A898538
:104B70009A85AB85BC858093820A9093830AA09323
:104B8000840AB093850A898D9A8DAB8DBC8D8093F4
:104B9000720A9093730AA093740AB093750A89A558
:104BA0009AA5ABA5BCA58093920A9093930AA09373
:104BB000940AB093950A8D859E85AF85B8898093B8
:104BC000860A9093870AA093880AB093890A8D8DEC
:104BD0009E8DAF8DB8A18093760A9093770AA093AB
:104BE000780AB093790A8DA59EA5AFA5B8A9809340
:104BF000960A9093970AA093980AB093990A0E94F4
:104C00004D5B80E090E0AAE7B4E480939E0A909325
:104C10009F0AA093A00AB093A10A80E090E0AAEFB7
:104C2000B4E48093A20A9093A30AA093A40AB09339
:104C3000A50A20E030E040E050E020939A0A30934B
:104C40009B0A40939C0A50939D0A80E29EE4A0E058
:104C5000B0E08093660A9093670AA093680AB093C5
:104C6000690A2093B20A3093B30A4093B40A50936E
:104C7000B50A80E090E0A0EAB1E48093A60A9093A0
:104C8000A70AA093A80AB093A90A8DEC9CECACECFF
:104C9000BEE38093AA0A9093AB0AA093AC0AB093A8
:104CA000AD0A80E090E0A0EAB0E48093AE0A909371
:104CB000AF0AA093B00AB093B10A2093640830936E
:104CC0006508409366085093670820936008309306
:104CD0006108409362085093630820935C08309306
:104CE0005D0840935E0850935F0884EB90E09093DA
:104CF000A2128093A11286E490E09093A412809374
:104D0000A3122FEF30E03093A6122093A51280EF6C
:104D100090E09093A8128093A71284E690E090937D
:104D2000AA128093A9123093AC122093AB128AE995
:104D300099E9A1EBB1E480930C0490930D04A09346
:104D40000E04B0930F0461E77DE38AE89FE30E94BD
:104D500083876093100470931104809312049093DE
:104D6000130460E070E084EE92E40E948F87609309
:104D700014047093150480931604909317040E94F2
:104D80008E8680E090E0A0E8BFE3809318049093C3
:104D90001904A0931A04B0931B0410924B0880E0EE
:104DA00090E0A0E4B0E48093BD039093BE03A09391
:104DB000BF03B093C0038093C1039093C203A09339
:104DC000C303B093C4030E94F92FEAE3F5E0949182
:104DD00008C08091C00085FFFCCF9093C60031963B
:104DE00094919923B1F7EFE1F3E0949108C0809199
:104DF000C00085FFFCCF9093C60031969491992313
:104E0000B1F78091C00085FFFCCF8AE08093C60097
:104E1000E0960FB6F894DEBF0FBECDBFCF91DF9105
:104E200008950F931F93DF93CF93CDB7DEB72A97E3
:104E30000FB6F894DEBF0FBECDBF80911A029091DD
:104E40001B02A0911C02B0911D028F839887A98735
:104E5000BA87FE01339604E610E0F999FECF12BD41
:104E600001BDF89A80B580830F5F1F4F083611058A
:104E700011F03196F2CFCE010796BE016D5F7F4FE4
:104E800043E050E00E944D12009709F0E6C1EAE7C6
:104E9000FAE0F999FECF12BD01BDF89A80B5808382
:104EA0000F5F1F4F0837110511F03196F2CFEAE678
:104EB000FAE0F999FECF12BD01BDF89A80B5808362
:104EC0000F5F1F4F0838110511F03196F2CFEAE855
:104ED000FAE0F999FECF12BD01BDF89A80B5808342
:104EE0000F5F1F4F0839110511F03196F2CF0E9464
:104EF0004D5BEEE9FAE0F999FECF12BD01BDF89ADB
:104F000080B580830F5F1F4F0C39110511F031966A
:104F1000F2CFE2EAFAE0F999FECF12BD01BDF89AAC
:104F200080B580830F5F1F4F003A110511F0319655
:104F3000F2CFEAE9FAE0F999FECF12BD01BDF89A85
:104F400080B580830F5F1F4F043A110511F0319631
:104F5000F2CFE2EBFAE0F999FECF12BD01BDF89A6B
:104F600080B580830F5F1F4F083A110511F031960D
:104F7000F2CFE6E6FAE0F999FECF12BD01BDF89A4C
:104F800080B580830F5F1F4F0C3A110511F03196E9
:104F9000F2CFE6EAFAE0F999FECF12BD01BDF89A28
:104FA00080B580830F5F1F4F003B110511F03196D4
:104FB000F2CFEAEAFAE0F999FECF12BD01BDF89A04
:104FC00080B580830F5F1F4F043B110511F03196B0
:104FD000F2CFEEEAFAE0F999FECF12BD01BDF89AE0
:104FE00080B580830F5F1F4F083B110511F031968C
:104FF000F2CFECE5F8E0F999FECF12BD01BDF89AC9
:1050000080B580830F5F1F4F043C110511F031966E
:10501000F2CFE1EAF2E1F999FECF12BD01BDF89AB3
:1050200080B580830F5F1F4F063C110511F031964C
:10503000F2CFE3EAF2E1F999FECF12BD01BDF89A91
:1050400080B580830F5F1F4F083C110511F031962A
:10505000F2CFE5EAF2E1F999FECF12BD01BDF89A6F
:1050600080B580830F5F1F4F0A3C110511F0319608
:10507000F2CFE7EAF2E1F999FECF12BD01BDF89A4D
:1050800080B580830F5F1F4F0C3C110511F03196E6
:10509000F2CFE9EAF2E1F999FECF12BD01BDF89A2B
:1050A00080B580830F5F1F4F0E3C110511F03196C4
:1050B000F2CFEBEAF2E1F999FECF12BD01BDF89A09
:1050C00080B580830F5F1F4F003D110511F03196B1
:1050D000F2CFE7E7F8E0F999FECF12BD01BDF89AEB
:1050E00080B580830F5F1F4F043D110511F031968D
:1050F000F2CFECE0F4E0F999FECF12BD01BDF89AD1
:1051000080B580830F5F1F4F083D110511F0319668
:10511000F2CFE0E1F4E0F999FECF12BD01BDF89ABB
:1051200080B580830F5F1F4F0C3D110511F0319644
:10513000F2CFE4E1F4E0F999FECF12BD01BDF89A97
:1051400080B580830F5F1F4F003E110511F031962F
:10515000F2CFFE013196F999FECF12BD01BDF89A4A
:1051600080B58083013E110521F0319601EE10E0FB
:10517000F2CFF999FECF82EE90E092BD81BDF89A10
:1051800080B580934B08EDEBF3E023EE30E0F99926
:10519000FECF32BD21BDF89A80B580832F5F3F4F8F
:1051A000273E310511F03196F2CFE1ECF3E0F999A9
:1051B000FECF32BD21BDF89A80B580832F5F3F4F6F
:1051C0002B3E310511F03196F2CFE4EEF3E0F99980
:1051D000FECF32BD21BDF89A80B580832F5F3F4F4F
:1051E0002C3F310511F03196F2CFE5EFF3E0F9995C
:1051F000FECF32BD21BDF89A80B5808381E0213099
:10520000380721F02F5F3F4F3196F1CFF2D60E9441
:105210008E86EAE3F5E0949108C08091C00085FF96
:10522000FCCF9093C600319694919923B1F7E1E4B5
:10523000F3E0949108C08091C00085FFFCCF90936B
:10524000C600319694919923B1F78091C00085FFF3
:10525000FCCF8AE08093C60001C01CDC2A960FB602
:10526000F894DEBF0FBECDBFCF91DF911F910F919C
:105270000895CF93DF93CAE3D5E0FE01949108C06F
:105280008091C00085FFFCCF9093C6003196949129
:105290009923B1F7E3E1F5E0949108C08091C00053
:1052A00085FFFCCF9093C600319694919923B1F776
:1052B0008091C00085FFFCCF8AE08093C600FE018C
:1052C0009491EAE3F5E008C08091C00085FFFCCF2F
:1052D0009093C600319694919923B1F740917A0A40
:1052E00050917B0A60917C0A70917D0A8BE095E079
:1052F0000E944C3440917E0A50917F0A6091800A4E
:105300007091810A88E095E00E944C344091820AB5
:105310005091830A6091840A7091850A85E095E036
:105320000E944C344091860A5091870A6091880A05
:105330007091890A82E095E00E944C34EEE1F2E03F
:1053400007C08091C00085FFFCCF31969093C600C6
:1053500090819923B1F78091C00085FFFCCF8AE04E
:105360008093C600FE019491EAE3F5E008C08091C5
:10537000C00085FFFCCF9093C6003196949199238D
:10538000B1F7E8EEF4E0949108C08091C00085FF89
:10539000FCCF9093C600319694919923B1F78091F8
:1053A000C00085FFFCCF8AE08093C600FE01949187
:1053B000EAE3F5E008C08091C00085FFFCCF909340
:1053C000C600319694919923B1F740916A0A5091A1
:1053D0006B0A60916C0A70916D0A8FED94E00E94E7
:1053E0004C3440916E0A50916F0A6091700A70912E
:1053F000710A8CED94E00E944C344091720A5091F5
:10540000730A6091740A7091750A89ED94E00E94A4
:105410004C344091760A5091770A6091780A7091E5
:10542000790A86ED94E00E944C34EEE1F2E007C088
:105430008091C00085FFFCCF31969093C60090818B
:105440009923B1F78091C00085FFFCCF8AE080935B
:10545000C600FE019491EAE3F5E008C08091C00027
:1054600085FFFCCF9093C600319694919923B1F7B4
:10547000E8EBF4E0949108C08091C00085FFFCCF78
:105480009093C600319694919923B1F78091C00012
:1054900085FFFCCF8AE08093C600FE019491EAE389
:1054A000F5E008C08091C00085FFFCCF9093C60056
:1054B000319694919923B1F740918A0A50918B0AC1
:1054C00060918C0A70918D0A8FEA94E00E945E349C
:1054D00040918E0A50918F0A6091900A7091910AC2
:1054E0008CEA94E00E945E344091920A5091930AB3
:1054F0006091940A7091950A89EA94E00E945E3462
:105500004091960A5091970A6091980A7091990A71
:1055100086EA94E00E945E34EEE1F2E007C08091FA
:10552000C00085FFFCCF31969093C60090819923EF
:10553000B1F78091C00085FFFCCF8AE08093C60060
:10554000FE019491EAE3F5E008C08091C00085FF78
:10555000FCCF9093C600319694919923B1F7E1E77F
:10556000F4E0949108C08091C00085FFFCCF909337
:10557000C600319694919923B1F78091C00085FFC0
:10558000FCCF8AE08093C600FE019491EAE3F5E047
:1055900008C08091C00085FFFCCF9093C600319673
:1055A00094919923B1F740919E0A50919F0A60917E
:1055B000A00A7091A10A88E694E00E944C344091C0
:1055C000A20A5091A30A6091A40A7091A50A85E6E7
:1055D00094E00E944C34EEE1F2E007C08091C000FC
:1055E00085FFFCCF31969093C60090819923B1F747
:1055F0008091C00085FFFCCF8AE08093C600FE0149
:105600009491EAE3F5E008C08091C00085FFFCCFEB
:105610009093C600319694919923B1F7E2EBF3E0B1
:10562000949108C08091C00085FFFCCF9093C60084
:10563000319694919923B1F78091C00085FFFCCFFA
:105640008AE08093C600FE019491EAE3F5E008C089
:105650008091C00085FFFCCF9093C6003196949155
:105660009923B1F740919A0A50919B0A60919C0A44
:1056700070919D0A89EA93E00E944C344091B20AED
:105680005091B30A6091B40A7091B50A86EA93E02A
:105690000E944C344091660A5091670A6091680AF2
:1056A0007091690A83EA93E00E945E344091A60AF1
:1056B0005091A70A6091A80A7091A90A80EA93E024
:1056C0000E944C344091AA0A5091AB0A6091AC0AF6
:1056D0007091AD0A8DE993E00E944C344091AE0A7E
:1056E0005091AF0A6091B00A7091B10A8AE993E0D3
:1056F0000E944C34EEE1F2E007C08091C00085FFCB
:10570000FCCF31969093C60090819923B1F7809198
:10571000C00085FFFCCF8AE08093C600FE01949113
:10572000EAE3F5E008C08091C00085FFFCCF9093CC
:10573000C600319694919923B1F7E8E8F3E094918B
:1057400008C08091C00085FFFCCF9093C6003196C1
:1057500094919923B1F78091C00085FFFCCF8AE036
:105760008093C600FE019491EAE3F5E008C08091C1
:10577000C00085FFFCCF9093C60031969491992389
:10578000B1F740915C0850915D0860915E0870919E
:105790005F088FE793E00E944C344091600850917D
:1057A000610860916208709163088CE793E00E9441
:1057B0004C3440916408509165086091660870917E
:1057C000670889E793E00E944C34EEE1F2E007C0FD
:1057D0008091C00085FFFCCF31969093C6009081E8
:1057E0009923B1F78091C00085FFFCCF8AE08093B8
:1057F000C600FE019491EAE3F5E008C08091C00084
:1058000085FFFCCF9093C600319694919923B1F710
:10581000EBE6F3E0949108C08091C00085FFFCCFD7
:105820009093C600319694919923B1F78091C0006E
:1058300085FFFCCF8AE08093C600FE019491EAE3E5
:10584000F5E008C08091C00085FFFCCF9093C600B2
:10585000319694919923B1F740910C0450910D0425
:1058600060910E0470910F0481E693E00E944C3425
:1058700060911004709111048091120490911304AE
:105880000E948987AB01BC018EE593E00E944C34F5
:10589000609114047091150480911604909117047E
:1058A0000E949587AB01BC018BE593E0F5D7EEE153
:1058B000F2E007C08091C00085FFFCCF3196909345
:1058C000C60090819923B1F78091C00085FFFCCF7D
:1058D0008AE08093C600DF91CF9108951F920F92C6
:1058E0000FB60F920BB60F9211242F933F934F9345
:1058F0008F939F93EF93FF934091C600E091B20581
:10590000F091B30531969F012F77307031978091D8
:10591000B4059091B5052817390739F0EE5CFA4FB8
:1059200040833093B3052093B205FF91EF919F918F
:105930008F914F913F912F910F900BBE0F900FBE03
:105940000F901F9018959A01AB01203081EE380717
:1059500080E0480780E0580749F182E08093C0006A
:1059600060E079E08DE390E00E9453EC21503040FC
:1059700040405040CA01B90122E030E040E050E030
:105980000E9453EC3093C5002093C4008091C10065
:1059900080618093C1008091C10088608093C100C4
:1059A0008091C10080688093C10008951092C0006A
:1059B00020E130E0E7CF2091B4053091B50580912A
:1059C000B2059091B3058217930719F42FEF3FEFBB
:1059D0000EC0F901EE5CFA4F80812F5F3F4F2F77A9
:1059E00030703093B5052093B405282F30E0C901FD
:1059F00008958091B4059091B5059093B305809377
:105A0000B205089508952F923F924F925F926F9240
:105A10007F928F929F92AF92BF92CF92DF92EF923E
:105A2000FF920F931F93DF93CF93CDB7DEB7A0976D
:105A30000FB6F894DEBF0FBECDBF1C016A017B011B
:105A4000411551056105710541F440E350E060E006
:105A500070E020E030E08BD055C0882499245401B8
:105A6000422E55246624772401E010E00C0F1D1F00
:105A7000080D191DC701B601A30192010E9431EC66
:105A8000F80160830894811C911CA11CB11CC70102
:105A9000B601A30192010E9431ECC901DA016C0147
:105AA0007D01C114D104E104F104F1F681E0E82E96
:105AB000F12CEC0EFD1EE80CF91C3E010894611C53
:105AC000711CD501C4010197A109B1096C01C81865
:105AD000D90815C0F601EE0DFF1D40814A3010F4C3
