:100000000C94CE0E0C94FF0E0C94FF0E0C94FF0E6D
:100010000C94FF0E0C94FF0E0C94FF0E0C94FF0E2C
:100020000C94FF0E0C94FF0E0C94FF0E0C94FF0E1C
:100030000C94FF0E0C9421BE0C94FF0E0C94FF0E3A
:100040000C94FF0E0C94686A0C94FF0E0C94FF0E37
:100050000C94FF0E0C94FF0E0C94347B0C94EEB7B2
:100060000C94FF0E0C9487150C94FF0E0C94FF0E4D
:100070000C94FF0E0C94FF0E0C94FF0E0C94FF0ECC
:100080000C94FF0E0C94FF0E0C94FF0E0C94FF0EBC
:100090000C94FF0E0C94FF0E0C94FF0E0C94FF0EAC
:1000A0000C94FF0E0C94FF0E0C94FF0E0C94FF0E9C
:1000B0000C94FF0E0C94FF0E0C94FF0E0C94FF0E8C
:1000C0000C94FF0E0C94FF0E0C94FF0E0C94FF0E7C
:1000D0000C94FF0E0C94FF0E0C94FF0E0C94FF0E6C
:1000E0000C94FF0E7D7B8C7BA87BB77BD17BE07B68
:1000F000FA7BFE7B007C047C0C7C1DB922B927B9FD
:1001000031B93BB9B4B945B94DB955B95FB969B958
:1001100073B982B98CB9B4B996B9A0B9AAB9D6B92C
:10012000D9B9C8B9CCB9D2B910BADDB9E1B9E7B912
:10013000EBB9EFB9F5B9F9B9FDB910BA03BA07BA15
:100140000BBA084AD73B3BCE016E84BCBFFDC12F22
:100150003D6C74319ABD56833DDA3D00C77F11BEB8
:10016000D9E4BB4C3E916BAAAABE000000803F05BB
:10017000A84CCDB2D44EB93836A9020C50B99186EC
:1001800088083CA6AAAA2ABE000000803F00486159
:100190007264636F6465642044656661756C742085
:1001A00053657474696E6773204C6F616465640095
:1001B00053746F7265642073657474696E6773201D
:1001C0007265747269657665640020440020490098
:1001D0002020204D33303120500050494420736599
:1001E0007474696E67733A00205A00205900202009
:1001F0004D323036205800486F6D65206F6666734B
:10020000657420286D6D293A00204500205A002091
:10021000580020420020540020204D323035205319
:1002200000416476616E6365642076617269616223
:100230006C65733A20533D4D696E20666565647246
:1002400061746520286D6D2F73292C20543D4D69F4
:100250006E2074726176656C206665656472617487
:100260006520286D6D2F73292C20423D6D696E69C4
:100270006D756D207365676D656E742074696D654D
:1002800020286D73292C20583D6D6178696D756D3E
:10029000205859206A65726B20286D6D2F73292CA8
:1002A00020205A3D6D6178696D756D205A206A6510
:1002B000726B20286D6D2F73292C2020453D6D61B8
:1002C00078696D756D2045206A65726B20286D6DAB
:1002D0002F73290020540020204D32303420530049
:1002E000416363656C65726174696F6E3A20533D5A
:1002F000616363656C65726174696F6E2C20543D37
:100300007265747261637420616363656C657261A8
:1003100074696F6E00204500205A0020590020208B
:100320004D3230312058004D6178696D756D204136
:100330006363656C65726174696F6E20286D6D2FE3
:100340007332293A00204500205A0020590020200D
:100350004D3230332058004D6178696D756D2066DF
:10036000656564726174657320286D6D2F73293A19
:1003700000204500205A0020590020204D3932200D
:10038000580053746570732070657220756E6974BF
:100390003A0053657474696E67732053746F7265A5
:1003A000640053544F505045442E20005072696EE3
:1003B0007465722073746F70706564206475652055
:1003C000746F206572726F72732E20466978207484
:1003D0006865206572726F7220616E642075736546
:1003E000204D39393920746F2072657374617274CD
:1003F0002E202854656D7065726174757265206970
:10040000732072657365742E20536574206974209F
:1004100061667465722072657374617274696E6767
:1004200029004B494C4C45442E20005072696E7493
:1004300065722068616C7465642E206B696C6C2831
:10044000292063616C6C656421006F6B00526573D9
:10045000656E643A20002200556E6B6E6F776E20D9
:10046000636F6D6D616E643A2022004368616E6750
:10047000652066696C616D656E74005A204F666612
:10048000736574203A20007A5F6D61783A20007AB3
:100490005F6D696E3A20005A204F6666736574007E
:1004A0005A204F6666736574206F6B007A5F6D69C2
:1004B0006E3A2000795F6D696E3A2000785F6D6951
:1004C0006E3A2000205A3A0020593A0020436F75B6
:1004D0006E7420583A200020453A00205A3A0020F5
:1004E000593A00583A000A000A206861726477613C
:1004F00072653A004649524D574152455F4E414D53
:10050000453A56312E302E30352020537072696EA8
:100510007465722F6772626C206D617368757020EC
:10052000666F722067656E36204649524D574152BC
:10053000455F55524C3A68747470733A2F2F67694F
:10054000746875622E636F6D2F556C74696D616B85
:1005500065722F4D61726C696E2050524F544F433B
:100560004F4C5F56455253494F4E3A312E30204D35
:10057000414348494E455F545950453A493370729A
:100580006F422045585452554445525F434F554E93
:10059000543A3120555549443A30303030303030BB
:1005A000302D303030302D303030302D3030303054
:1005B0002D3030303030303030303030300A005074
:1005C00049332050726F204220204F66662E005023
:1005D00049332050726F2042202072656164792E69
:1005E0000042656420646F6E652E0020423A002050
:1005F000453A00543A004265642048656174696E6A
:10060000672E0048656174696E6720646F6E652EA1
:100610000020573A0020453A00543A00486561747A
:10062000696E672E2E2E002042403A0020403A008C
:10063000202F003A00205400202F0020423A0020B2
:100640002F006F6B20543A002569206D696E2C20B5
:1006500025692073656300456E642066696C6520BA
:100660006C69737400426567696E2066696C652009
:100670006C697374004E6F206D6F76652E00504963
:10068000332050726F2042202072656164792E0001
:10069000526573756D696E67207072696E7400576C
:1006A00061697420666F7220757365722E2E2E003C
:1006B000536C6565702E2E2E00256920686F75724B
:1006C00073202569206D696E7574657300446F6EC3
:1006D00065207072696E74696E672066696C65006A
:1006E00053544F505045442E20005072696E74652B
:1006F000722073746F707065642064756520746F08
:10070000206572726F72732E204669782074686556
:10071000206572726F7220616E6420757365204D62
:1007200039393920746F20726573746172742E20A8
:100730002854656D706572617475726520697320E7
:1007400072657365742E2053657420697420616628
:100750007465722072657374617274696E672900C2
:100760004E6F204C696E65204E756D626572207704
:1007700069746820636865636B73756D2C204C61C8
:100780007374204C696E653A20004E6F2043686593
:10079000636B73756D2077697468206C696E652072
:1007A0006E756D6265722C204C617374204C696E9D
:1007B000653A2000636865636B73756D206D6973BE
:1007C0006D617463682C204C617374204C696E6594
:1007D0003A20004C696E65204E756D626572206925
:1007E00073206E6F74204C617374204C696E6520A9
:1007F0004E756D6265722B312C204C617374204CE8
:10080000696E653A20004D31313000446F6E6520CD
:10081000736176696E672066696C652E006F6B0088
:100820004D3239002020506C616E6E6572427566E3
:1008300066657242797465733A2000204672656578
:10084000204D656D6F72793A20004A756E203237FF
:10085000203230313800436F6D70696C65643A2026
:10086000002867656565746563682C2049332063DB
:100870006F6E6669672900207C20417574686F720D
:100880003A20004A756E203237203230313820311C
:10089000363A31393A323400204C61737420557045
:1008A00064617465643A2000312E302E3035004D7D
:1008B00061726C696E0020536F6674776172652097
:1008C000526573657400205761746368646F6720B4
:1008D0005265736574002042726F776E206F757475
:1008E000205265736574002045787465726E616C82
:1008F00020526573657400506F7765725570007390
:1009000074617274002200656E717565696E67208E
:1009100022002200656E717565696E67202200FFF6
:10092000FFFF0000A0400000A040000000400000C9
:100930005243000052430000344300000000000016
:10094000000000000000000052430000524300007D
:100950003443000000000000000000000000656358
:10096000686F3A004572726F723A007C3C3E5E2BB3
:100970003D3F2F5B5D3B2C2A225C004D38342058D4
:100980002059205A20450043616E6E6F7420656EB9
:10099000746572207375626469723A20004D323456
:1009A000004D3233202573006175746F25692E6701
:1009B000006572726F722077726974696E67207455
:1009C0006F2066696C65004E6F742053442070720E
:1009D000696E74696E67002F005344207072696EEF
:1009E00074696E67206279746520002E0044656C1E
:1009F0006574696F6E206661696C65642C20466958
:100A00006C653A200046696C652064656C657465A8
:100A1000643A002E006F70656E206661696C6564D3
:100A20002C2046696C653A200057726974696E67BC
:100A300020746F2066696C653A20002E006F706527
:100A40006E206661696C65642C2046696C653A208D
:100A5000002E006F70656E206661696C65642C20E5
:100A600046696C653A200046696C652073656C6563
:100A700063746564002053697A653A200046696CA6
:100A800065206F70656E65643A20002E006F70659A
:100A90006E206661696C65642C2046696C653A203D
:100AA000004E6F772066726573682066696C653AE0
:100AB00020004E6F7720646F696E672066696C65F1
:100AC0003A20002220706F73002220706172656EE0
:100AD000743A2200535542524F5554494E452043D3
:100AE000414C4C207461726765743A2200747279CB
:100AF000696E6720746F2063616C6C207375622D62
:100B000067636F64652066696C65732077697468D4
:100B100020746F6F206D616E79206C6576656C73E3
:100B20002E204D4158206C6576656C2069733A0023
:100B300053442063617264206F6B006F70656E5266
:100B40006F6F74206661696C656400766F6C756D9B
:100B5000652E696E6974206661696C656400534432
:100B600020696E6974206661696C0020746F6F2063
:100B70006C6F6E6720657874727573696F6E207024
:100B8000726576656E7465640020636F6C642065C1
:100B90007874727573696F6E2070726576656E74A5
:100BA000656400656E6473746F7073206869743A6D
:100BB000205A00205A3A00656E6473746F70732077
:100BC0006869743A20590020593A00656E6473745C
:100BD0006F7073206869743A20580020583A006595
:100BE0006E6473746F7073206869743A200024F423
:100BF000D43050C38E20C2A24017828B7011127A5B
:100C0000910D816CD90AA861E108C7586607615146
:100C100043061E4B5D05C145A7041A411104093D59
:100C20009803713931034036DB0265339102D430C9
:100C30005402802E1D02632CEE01752AC501B028D6
:100C4000A001102781018F2564012B244B01E02294
:100C50003401AC211F018D200D01801FFC00841E7A
:100C6000ED00971DDF00B81CD200E61BC600201B5C
:100C7000BC00641AB200B219A8000A19A0006A18D0
:100C80009900D117910040178B00B51684003116DA
:100C90007E00B31579003A157300C7146F0058141D
:100CA0006A00EE1366008813630025135E00C71206
:100CB0005B006C12570015125400C11151007011E5
:100CC0004F0021114B00D61049008D1047004610EF
:100CD000440002104200C00F4000800F3E00420F4F
:100CE0003C00060F3B00CB0E3800930E37005C0E25
:100CF0003500270E3400F30D3200C10D3100900D88
:100D00003000600D2E00320D2D00050D2C00D90C89
:100D10002B00AE0C2900850C29005C0C2700350C3B
:100D200027000E0C2600E80B2400C40B2400A00BA7
:100D300023007D0B23005A0B2100390B2100180BD7
:100D40002000F80A1F00D90A1E00BB0A1E009D0AD7
:100D50001D00800A1D00630A1C00470A1B002C0AA4
:100D60001B00110A1A00F7091A00DD091900C4094D
:100D70001900AB091900920917007B0918006309D3
:100D800017004C09160036091600200916000A093A
:100D90001500F5081500E0081400CC081400B80888
:100DA0001400A4081400900813007D0812006B08BA
:100DB00013005808120046081200340811002308D6
:100DC00011001208110001081100F0071000E007DF
:100DD0001000D0071000C0071000B0070F00A107D7
:100DE000100091070E0083070F0074070F006507BE
:100DF0000E0057070E0049070E003B070D002E0797
:100E00000E0020070D0013070D0006070D00F90660
:100E10000C00ED060D00E0060C00D4060C00C80620
:100E20000C00BC060C00B0060C00A4060B009906D2
:100E30000C008D060B0082060B0077060B006C067B
:100E40000B0061060A0057060B004C060A0042061A
:100E50000A0038060A002E060A0024060A001A06AE
:100E60000A001006090007060A00FD050900F4053E
:100E70000900EB050900E2050900D9050900D005C4
:100E80000900C7050900BE050900B5050800AD0544
:100E90000800A50509009C050800940508008C05BC
:100EA0000800840508007C050800740508006C052E
:100EB0000700650508005D050700560508004E059A
:100EC0000700470507004005080038050700310501
:100ED00007002A050700230507001C050600160564
:100EE00007000F0507000805060002050700FB04C0
:100EF0000600F5040700EE040600E8040600E2041C
:100F00000700DB040600D5040600CF040600C90470
:100F10000600C3040600BD040600B7040600B104C1
:100F20000500AC040600A6040600A00405009B040E
:100F3000060095040500900406008A040500850457
:100F40000500800406007A0405007504050070049D
:100F500005006B04050066040500610405005C04DF
:100F6000050057040500520405004D04050048041F
:100F70000500430405003E0404003A04050035045E
:100F80000500300404002C04050027040400230499
:100F900005001E0404001A040400160405001104D0
:100FA00004000D0404000904050004040400000406
:100FB0000400FC030400F8030400F4030400F0033D
:100FC0000400EC030400E8030400E4030400E0036D
:100FD0000400DC030400D8030400D4030400D0039D
:100FE0000400CC030400C8030300C503030024F479
:100FF00004D9201BC40C5C0E9804C4095F02650769
:101000007101F405F900FB04B30048048700C10333
:1010100069005803550003034500BE023A008402EC
:10102000310053022A002902250004022000E401B5
:101030001C00C8011900AF011700980114008401B9
:101040001300710110006101100051010E004301F5
:101050000D0036010B002B010B0020010B001501C8
:1010600009000C01090003010800FB000800F3005F
:101070000800EB000700E4000600DE000600D800D0
:101080000600D2000600CC000500C7000500C20023
:101090000500BD000400B9000400B5000400B10063
:1010A0000400AD000400A9000400A5000300A20094
:1010B00003009F0004009B000300980003009500BC
:1010C000020093000300900003008D0002008B00DB
:1010D00003008800020086000200840003008100F3
:1010E00002007F0002007D0002007B000200790008
:1010F0000200770001007600020074000200720016
:101100000100710002006F0002006D0001006C0020
:1011100002006A0001006900020067000100660029
:10112000010065000100640002006200010061002E
:101130000100600001005F0002005D0001005C0032
:1011400001005B0001005A00010059000100580035
:101150000100570001005600010055000100540035
:101160000100530000005300010052000100510033
:101170000100500001004F0001004E0000004E0031
:1011800001004D0001004C0001004B0000004B002D
:1011900001004A0001004900010048000000480029
:1011A0000100470001004600000046000100450024
:1011B000000045000100440001004300000043001E
:1011C0000100420000004200010041000000410017
:1011D0000100400001003F0000003F0001003E0010
:1011E00000003E0001003D0000003D0001003C0009
:1011F00000003C0000003C0001003B0000003B0000
:1012000001003A0000003A000100390000003900F6
:1012100001003800000038000000380001003700ED
:1012200000003700010036000000360000003600E4
:1012300001003500000035000000350001003400D9
:1012400000003400000034000100330000003300CF
:1012500000003300010032000000320000003200C4
:1012600001003100000031000000310001003000B9
:10127000000030000000300001002F0000002F00AF
:1012800000002F0000002F0001002E0000002E00A3
:1012900000002E0001002D0000002D0000002D0098
:1012A00000002D0001002C0000002C0000002C008C
:1012B00000002C0001002B0000002B0000002B0080
:1012C00000002B0001002A0000002A0000002A0074
:1012D00000002A0001002900000029000000290068
:1012E000000029000000290001002800000028005B
:1012F000000028000000280000002800010027004E
:101300000000270000002700000027000000270041
:101310000100260000002600000026000000260034
:101320000000260001002500000025000000250027
:101330000000250000002500000025000100240019
:10134000000024000000240000002400000024000D
:101350000100230000002300000023000000230000
:1013600000002300000023000000230001002200F1
:1013700000002200000022000000220000002200E5
:1013800000002200010021000000210000002100D7
:1013900000002100000021000000210000002100C9
:1013A00001002000000020000000200000002000BC
:1013B00000002000000020000000200000002000AD
:1013C00001001F0000001F0000001F0000001F00A0
:1013D00000001F0000001F0000001F0001001E0091
:1013E00000001E0000001E0000001E0000004572EC
:1013F000723A204D415854454D50204245440054C6
:10140000656D70657261747572652068656174657B
:101410006420626564207377697463686564206F13
:1014200066662E204D415854454D502074726967B0
:101430006765726564202121004572723A204D492A
:101440004E54454D50003A2045787472756465726B
:10145000207377697463686564206F66662E204D1B
:10146000494E54454D5020747269676765726564D2
:101470002021004572723A204D415854454D50008C
:101480003A20457874727564657220737769746365
:10149000686564206F66662E204D415854454D5056
:1014A00020747269676765726564202100202D20B1
:1014B000496E76616C6964206578747275646572D2
:1014C000206E756D6265722021005049442041757F
:1014D000746F74756E652066696E697368656421E2
:1014E0002050757420746865206C617374204B7093
:1014F0002C204B6920616E64204B6420636F6E73F7
:1015000074616E74732066726F6D2061626F7665B0
:1015100020696E746F20436F6E66696775726174BF
:10152000696F6E2E6800504944204175746F747560
:101530006E65206661696C6564212074696D656FF4
:1015400075740020403A006F6B20543A006F6B2096
:10155000423A00504944204175746F74756E65209D
:101560006661696C6564212054656D706572617493
:1015700075726520746F6F206869676800204B641E
:101580003A2000204B693A2000204B703A2000207E
:10159000436C617373696320504944200020547583
:1015A0003A2000204B753A2000206D61783A2000E7
:1015B000206D696E3A200020643A20002062696143
:1015C000733A200070012C0190012701B001220123
:1015D000C0011D01F00118011002130130020E01BB
:1015E0006002090190020401C002FF000003FA003A
:1015F0004003F5008003F000D003EB002004E60078
:101600007004E100E004DC004005D700C005D20012
:101610004006CD00D006C8008007C3003008BE00D9
:10162000F008B900C009B400B00AAF00B00BAA00BE
:10163000D00CA500000EA000500F9B00C01096001B
:101640005012910000148C00C0158700B017820062
:10165000B0197D00D01B7800001E730040206E0082
:1016600090226900F024640040275F0090295A000E
:10167000E02B5500102E500020304B001032460059
:10168000E033410090353C001037370070383200AD
:10169000A0392D00B03A2800A03B2300603C1E007A
:1016A000103D1900903D1400103E0F00703E0A00DE
:1016B000C03E0500003F0000436172642072656D0A
:1016C0006F766564004361726420696E736572743D
:1016D0006564004D33303020533639382050323075
:1016E00030004D33303020533635392050323030D1
:1016F000002D2D3A2D2D002D2D2D00534400205965
:10170000000120000120004D363030004368616E3A
:1017100067652066696C616D656E7400466C6F77F5
:10172000203000466C6F77203000466C6F770046A3
:101730006C6F770046616E2073706565640046616A
:101740006E207370656564004265640042656400E4
:101750004E6F7A7A6C65004E6F7A7A6C65005370C2
:10176000656564005370656564004D61696E005085
:1017700072656865617420504C4120426564005078
:1017800072656865617420504C412031005072656B
:1017900070617265005072656865617420414253E2
:1017A000204265640050726568656174204142534F
:1017B0002031005072657061726500580059005AFE
:1017C000004578747275646572004578747275644A
:1017D0006572004D6F7665205A004D6F7665205911
:1017E000004D6F76652058004D6F766520617869F1
:1017F00073004D6F766520302E316D6D004D6F7624
:101800006520316D6D004D6F76652031306D6D0056
:1018100050726570617265004D6F76652061786900
:1018200073004D38300053776974636820706F77A8
:101830006572206F6E004D383100537769746368AC
:1018400020706F776572206F666600436F6F6C64FF
:101850006F776E0050726568656174204142530075
:101860005072656865617420504C41005365742066
:10187000686F6D65206F66667365747300473238F4
:10188000004175746F20686F6D65004D38340044F9
:10189000697361626C652073746570706572730042
:1018A0004D61696E0053746F7265206D656D6F7266
:1018B000790042656400426564004E6F7A7A6C6517
:1018C000004E6F7A7A6C650046616E2073706565B4
:1018D000640046616E2073706565640054656D70C8
:1018E000657261747572650053746F7265206D6501
:1018F0006D6F72790042656400426564004E6F7AD4
:101900007A6C65004E6F7A7A6C650046616E207362
:10191000706565640046616E20737065656400548F
:10192000656D706572617475726500507265686589
:1019300061742041425320636F6E66005072656887
:1019400065617420504C4120636F6E6600504944BD
:101950002D43005049442D43005049442D4400502C
:1019600049442D44005049442D49005049442D49D3
:10197000005049442D50005049442D500020022071
:1019800046616374002002204661637400200220D7
:101990004D6178002002204D6178002002204D69C1
:1019A0006E002002204D696E004F6666004F6E206B
:1019B000004F6666004F6E20004175746F74656D50
:1019C000700046616E2073706565640046616E202C
:1019D00073706565640042656400426564004E6F23
:1019E0007A7A6C65004E6F7A7A6C6500436F6E741C
:1019F000726F6C004573746570732F6D6D00457365
:101A0000746570732F6D6D005A73746570732F6DEC
:101A10006D005A73746570732F6D6D005973746522
:101A200070732F6D6D005973746570732F6D6D0039
:101A30005873746570732F6D6D005873746570738F
:101A40002F6D6D00412D7265747261637400412DBC
:101A50007265747261637400416D61782065004144
:101A60006D6178206500416D6178207A00416D617B
:101A700078207A00416D6178207900416D6178208D
:101A80007900416D6178207800416D61782078009F
:101A90005654726176206D696E00565472617620DC
:101AA0006D696E00566D696E00566D696E00566DFB
:101AB0006178206500566D6178206500566D61780B
:101AC000207A00566D6178207A00566D6178207911
:101AD00000566D6178207900566D61782078005647
:101AE0006D617820780056652D6A65726B005665C9
:101AF0002D6A65726B00567A2D6A65726B00567A94
:101B00002D6A65726B005678792D6A65726B005686
:101B100078792D6A65726B00416363656C0041637F
:101B200063656C00436F6E74726F6C0046696C2E57
:101B3000204469612E20310046696C2E2044696181
:101B40002E2031004F6666004F6E20004F66660003
:101B50004F6E20004520696E206D6D3300436F6E1F
:101B600074726F6C00526573746F72652066616980
:101B70006C73616665004C6F6164206D656D6F729A
:101B8000790053746F7265206D656D6F72790046D0
:101B9000696C616D656E74004D6F74696F6E005491
:101BA000656D7065726174757265004D61696E0076
:101BB0004D383420582059205A2045004D323400E9
:101BC0004D323320257300052E2E004D61696E00C5
:101BD0004D61696E0041626F7574004E6F20534411
:101BE0002063617264005072696E742066726F6D5A
:101BF0002053440053746F70207072696E740052E9
:101C00006573756D65207072696E740050617573CF
:101C100065207072696E7400436F6E74726F6C0031
:101C2000507265706172650054756E6500496E662C
:101C30006F2073637265656E0000000A0B02090C69
:101C40000D0E080703040100000000000000000062
:101C50000000000000000000000000000000000084
:101C60000000000000121110000000000000000041
:101C70000000000000000000000000000000000163
:101C8000021020200808102040102040800201028D
:101C90000108040201010204081020408080402055
:101CA0001008040201800402018040201008040290
:101CB000010804020101020408102040800102040E
:101CC00008102040800505050507050808080802DA
:101CD0000202020A0A0808040404040101010101C5
:101CE0000101010303030303030303040707070CB4
:101CF0000C0C0C0C0C0C0C0202020206060606066A
:101D00000606060B0B0B0B0B0B0B0B000020002326
:101D100000260029002C002F0032000001000003E3
:101D2000010601090100002200250028002B002ED9
:101D3000003100340002010000050108010B010020
:101D4000002100240027002A002D0030003300016C
:101D5000010000040107010A01024E414E494E49AB
:101D60005459494E46CDCCCC3D0AD7233C17B7D168
:101D70003877CC2B329595E6241FB14F0A0000200E
:101D8000410000C84200401C4620BCBE4CCA1B0E8D
:101D90005AAEC59D7400A13AD6A5A53A11241FBE1E
:101DA000CFEFD1E2DEBFCDBF00E00CBF14E0A0E07A
:101DB000B2E0E6EEF3E901E00BBF02C007900D923E
:101DC000A43FB107D9F722E1A4EFB4E001C01D920E
:101DD000A63BB207E1F71DE1CAE9DDE100E006C07C
:101DE00022970109FE010BBF0E948EC3C639D1079D
:101DF00080E00807A9F70E9481BE0C94E2C90C9408
:101E00000000EF92FF920F931F93CF93DF931F92E7
:101E1000CDB7DEB78C017B01460FF70161917F01E1
:101E2000F8018081918149830E942BC9F80180814A
:101E3000918101969183808349814E11EECF0F905D
:101E4000DF91CF911F910F91FF90EF900895EF9246
:101E5000FF920F931F93CF93DF931F92CDB7DEB7FF
:101E60008C017B01460FF8018081918149830E949A
:101E700023C9F70181937F01F80180819181019647
:101E80009183808349814E11EECF0F90DF91CF91E6
:101E90001F910F91FF90EF9008950F931F93CF9391
:101EA000DF93CDB7DEB72C970FB6F894DEBF0FBE29
:101EB000CDBF80E390E3A0E3B0E08D839E83AF834A
:101EC000B88704E610E01C870B8744E0BE016B5F17
:101ED0007F4FCE010B9695DF40E16DE571E1CE01BC
:101EE0000B968FDF40E16DE671E1CE010B9689DF45
:101EF00040E16DE471E1CE010B9683DF44E065E4DF
:101F000071E1CE010B967DDF44E061E471E1CE0129
:101F10000B9677DF44E069E471E1CE010B9671DF47
:101F200044E061E371E1CE010B966BDF44E06DE7C5
:101F300071E1CE010B9665DF44E06DE371E1CE0106
:101F40000B965FDF44E069E371E1CE010B9659DF48
:101F500044E065E371E1CE010B9653DF4CE065E6AA
:101F600077E0CE010B964DDF42E06AE772E1CE01E9
:101F70000B9647DF42E068E772E1CE010B9641DF46
:101F800042E066E772E1CE010B963BDF42E064E798
:101F900072E1CE010B9635DF42E062E772E1CE01DD
:101FA0000B962FDF42E060E772E1CE010B9629DF4E
:101FB00044E062E577E0CE010B9623DF44E069E779
:101FC00072E0CE010B961DDF44E065E772E0CE01C2
:101FD0000B9617DF44E061E772E0CE010B9611DF4C
:101FE00080E290E09A87898742E0BE01675F7F4F79
:101FF000CE010B9606DF41E061E877E0CE010B965B
:1020000000DF44E061E272E0CE010B96FADE41E1CE
:1020100061E572E0CE010B96F4DE46E06BE472E01F
:10202000CE010B96EEDE86E591E3A3E3B0E0898373
:102030009A83AB83BC831C870B8744E0BE016F5F30
:102040007F4FCE010B96DDDEEEE5F9E0849188232B
:1020500041F09091C00095FFFCCF8093C60031966F
:10206000F5CFE2E9F3E08491882341F09091C0003C
:1020700095FFFCCF8093C6003196F5CF8091C000CC
:1020800085FFFCCF8AE08093C6002C960FB6F894AB
:10209000DEBF0FBECDBFDF91CF911F910F9108958D
:1020A000CF93DF93CEE5D9E0FE018491882341F000
:1020B0009091C00095FFFCCF8093C6003196F5CF7C
:1020C000E2E8F3E08491882341F09091C00095FF0D
:1020D000FCCF8093C6003196F5CF8091C00085FF7C
:1020E000FCCF8AE08093C600FE018491EEE5F9E022
:1020F000882349F09091C00095FFFCCF8093C600E3
:1021000031968491F5CF40915D1150915E116091AF
:102110005F11709160118AE793E00E941F1940914E
:10212000611150916211609163117091641187E7A0
:1021300093E00E941F1940916511509166116091C2
:1021400067117091681184E793E00E941F19409114
:10215000691150916A1160916B1170916C1181E756
:1021600093E00E941F198091C00085FFFCCF8AE098
:102170008093C600FE018491EEE5F9E0882349F0E2
:102180009091C00095FFFCCF8093C600319684915A
:10219000F5CFE7E5F3E08491882341F09091C0000A
:1021A00095FFFCCF8093C6003196F5CF8091C0009B
:1021B00085FFFCCF8AE08093C600FE018491EEE5A6
:1021C000F9E0882349F09091C00095FFFCCF8093FF
:1021D000C60031968491F5CF40916D1150916E11EA
:1021E00060916F11709170118EE493E00E941F193D
:1021F000409171115091721160917311709174112D
:102200008BE493E00E941F19409175115091761153
:10221000609177117091781188E493E00E941F1902
:102220004091791150917A1160917B1170917C11DC
:1022300085E493E00E941F198091C00085FFFCCFC8
:102240008AE08093C600FE018491EEE5F9E08823E0
:1022500049F09091C00095FFFCCF8093C600319665
:102260008491F5CFE7E2F3E08491882341F09091E7
:10227000C00095FFFCCF8093C6003196F5CF8091CA
:10228000C00085FFFCCF8AE08093C600FE018491E8
:10229000EEE5F9E0882349F09091C00095FFFCCF6E
:1022A0008093C60031968491F5CF40914D115091A5
:1022B0004E1160914F11709150118EE193E0D0D783
:1022C00040915111509152116091531170915411DC
:1022D0008BE193E0C5D74091551150915611609113
:1022E00057117091581188E193E0BAD74091591174
:1022F00050915A1160915B1170915C1185E193E0EE
:10230000AFD78091C00085FFFCCF8AE08093C600E4
:10231000FE018491EEE5F9E0882349F09091C00038
:1023200095FFFCCF8093C60031968491F5CFE0EE07
:10233000F2E08491882341F09091C00095FFFCCF9A
:102340008093C6003196F5CF8091C00085FFFCCF09
:102350008AE08093C600FE018491EEE5F9E08823CF
:1023600049F09091C00095FFFCCF8093C600319654
:102370008491F5CF409145115091461160914711DC
:102380007091481187ED92E05AD7409141115091D8
:102390004211609143117091441184ED92E04FD746
:1023A0008091C00085FFFCCF8AE08093C600FE01CB
:1023B0008491EEE5F9E0882349F09091C00095FF03
:1023C000FCCF8093C60031968491F5CFE1E2F2E034
:1023D0008491882341F09091C00095FFFCCF8093B9
:1023E000C6003196F5CF8091C00085FFFCCF8AE012
:1023F0008093C600FE018491EEE5F9E0882349F060
:102400009091C00095FFFCCF8093C60031968491D7
:10241000F5CF4091491150914A1160914B11709143
:102420004C1188E192E00BD740913111509132115B
:10243000609133117091341185E192E000D74091A1
:102440007D1150917E1160917F117091801182E118
:1024500092E006D740913D1150913E1160913F119D
:10246000709140118FE092E0EAD64091391150917D
:102470003A1160913B1170913C118CE092E0DFD6F3
:10248000409135115091361160913711709138118A
:1024900089E092E0D4D68091C00085FFFCCF8AE02D
:1024A0008093C600FE018491EEE5F9E0882349F0AF
:1024B0009091C00095FFFCCF8093C6003196849127
:1024C000F5CFE7EFF1E08491882341F09091C000CF
:1024D00095FFFCCF8093C6003196F5CF8091C00068
:1024E00085FFFCCF8AE08093C600FE018491EEE573
:1024F000F9E0882349F09091C00095FFFCCF8093CC
:10250000C60031968491F5CF4091650750916607DA
:1025100060916707709168078EEE91E090D64091C8
:10252000690750916A0760916B0770916C078BEE99
:1025300091E085D640916D0750916E0760916F07CD
:102540007091700788EE91E07AD68091C00085FF87
:10255000FCCF8AE08093C600FE018491EEE5F9E0AD
:10256000882349F09091C00095FFFCCF8093C6006E
:1025700031968491F5CFEAEDF1E08491882341F022
:102580009091C00095FFFCCF8093C6003196F5CFA7
:102590008091C00085FFFCCF8AE08093C600FE01D9
:1025A000C491EEE5F9E0CC2349F08091C00085FFAD
:1025B000FCCFC093C6003196C491F5CF409179020B
:1025C00050917A0260917B0270917C0280ED91E0E3
:1025D00036D6609175027091760280917702909163
:1025E00078020E948F7CAB01BC018DEC91E027D674
:1025F00060917102709172028091730290917402E5
:102600000E949B7CAB01BC018AEC91E018D68091C2
:10261000C00085FFFCCF8AE08093C600DF91CF9198
:102620000895AF92BF92CF92DF92EF92FF920F93F5
:102630001F93CF93DF93CDB7DEB7E0970FB6F89433
:10264000DEBF0FBECDBF80E1E6E9F2E0DE0191968C
:1026500001900D928A95E1F780E1E6EAF2E0DE0171
:10266000519601900D928A95E1F780E1E6EBF2E058
:10267000DE01119601900D928A95E1F76E0181E2DB
:10268000C80ED11C8DE5E82E81E1F82E8E010F5E7B
:102690001F4F6DE671E1AE014F5F5F4F9DE4A92EC4
:1026A00091E1B92E20E030E0F60181919191A19164
:1026B000B1916F01F70181939193A193B1937F0140
:1026C000F80181919191A191B1918F01FB018193C9
:1026D0009193A193B193BF01FA0181919191A1913D
:1026E000B191AF01F50181939193A193B1935F01F2
:1026F0002F5F3F4F24303105B9F60E94756980E0A5
:1027000090E0AAE7B4E48093451190934611A0931A
:102710004711B093481180E090E0AAEFB4E48093B1
:10272000411190934211A0934311B0934411109220
:10273000491110924A1110924B1110924C1180E2E3
:102740009EE4A0E0B0E080937D1190937E11A09371
:102750007F11B093801110923111109232111092AA
:1027600033111092341180E090E0A0EAB1E480933C
:102770003D1190933E11A0933F11B09340118DEC09
:102780009CECACECBEE38093391190933A11A0938A
:102790003B11B0933C1180E090E0A0EAB0E480935C
:1027A000351190933611A0933711B09338111092D0
:1027B0006D0710926E0710926F07109270071092BB
:1027C000690710926A0710926B0710926C071092BB
:1027D000650710926607109267071092680784EBEE
:1027E00090E090937B1280937A1286E490E090932D
:1027F0007912809378128FEF90E090937712809304
:10280000761220EF30E0309375122093741224E694
:1028100030E0309373122093721290937112809370
:1028200070128AE999E9A1EBB1E48093790290935F
:102830007A02A0937B02B0937C0261E77DE38AE891
:102840009FE30E94897C6093750270937602809367
:1028500077029093780260E070E084EE92E40E9448
:10286000957C6093710270937202809373029093CF
:1028700074020E94897380E090E0A0E8BFE3809337
:102880006D0290936E02A0936F02B093700210924B
:10289000810780E090E0A0E4B0E48093210290936F
:1028A0002202A0932302B09324020E947424EEE536
:1028B000F9E08491882341F09091C00095FFFCCF0E
:1028C0008093C6003196F5CFEEE8F1E0849188233D
:1028D00041F09091C00095FFFCCF8093C6003196E7
:1028E000F5CF8091C00085FFFCCF8AE08093C600C1
:1028F000E0960FB6F894DEBF0FBECDBFDF91CF914B
:102900001F910F91FF90EF90DF90CF90BF90AF900D
:102910000895CF93DF93CDB7DEB72C970FB6F89419
:10292000DEBF0FBECDBF84E690E09C878B8786E537
:1029300091E3A3E3B0E089839A83AB83BC8344E053
:10294000BE016B5F7F4FCE010B9681DA43E050E012
:10295000BE016B5F7F4FCE0101960E94EAC6892BB4
:1029600009F0CBC040E16DE571E1CE010B966FDA65
:1029700040E16DE671E1CE010B9669DA40E16DE46C
:1029800071E1CE010B9663DA0E94756944E065E45B
:1029900071E1CE010B965BDA44E061E471E1CE01B6
:1029A0000B9655DA44E069E471E1CE010B964FDAFB
:1029B00044E061E371E1CE010B9649DA44E06DE752
:1029C00071E1CE010B9643DA44E06DE371E1CE0193
:1029D0000B963DDA44E069E371E1CE010B9637DAFC
:1029E00044E065E371E1CE010B9631DA4CE065E637
:1029F00077E0CE010B962BDA42E06AE772E1CE0176
:102A00000B9625DA42E068E772E1CE010B961FDAF9
:102A100042E066E772E1CE010B9619DA42E064E724
:102A200072E1CE010B9613DA42E062E772E1CE0169
:102A30000B960DDA42E060E772E1CE010B9607DA01
:102A400044E062E577E0CE010B9601DA44E069E705
:102A500072E0CE010B96FBD944E065E772E0CE014F
:102A60000B96F5D944E061E772E0CE010B96EFD901
:102A700042E0BE01675F7F4FCE010B96E8D941E08F
:102A800061E877E0CE010B96E2D944E061E272E0C2
:102A9000CE010B96DCD941E161E572E0CE010B96E7
:102AA000D6D946E06BE472E0CE010B96D0D90E94F5
:102AB00074240E948973EEE5F9E08491882341F043
:102AC0009091C00095FFFCCF8093C6003196F5CF62
:102AD000E0EBF1E08491882341F09091C00095FFF4
:102AE000FCCF8093C6003196F5CF8091C00085FF62
:102AF000FCCF8AE08093C60001C093DD2C960FB610
:102B0000F894DEBF0FBECDBFDF91CF9108951F9225
:102B10000F920FB60F9211240BB60F922F933F9383
:102B20004F935F936F938F939F93EF93FF93609176
:102B3000C6002091750530917605C90101968F7701
:102B4000992740917705509178058417950741F0B2
:102B5000F901EB50FB4F60839093760580937505E8
:102B6000FF91EF919F918F916F915F914F913F9165
:102B70002F910F900BBE0F900FBE0F901F901895C6
:102B80009A01AB01211581EE38074105510549F144
:102B900082E08093C00060E079E08DE390E00E94E5
:102BA0005CC32150310941095109CA01B90122E030
:102BB00030E040E050E00E945CC33093C5002093B9
:102BC000C4008091C10080618093C1008091C100E8
:102BD00088608093C1008091C10080688093C100AB
:102BE00008951092C00020E130E0E7CF20917705F2
:102BF000309178058091750590917605821793073D
:102C000071F0F901EB50FB4F80812F5F3F4F2F7721
:102C10003327309378052093770590E008958FEF60
:102C20009FEF0895809177059091780590937605B0
:102C30008093750508954F925F926F927F928F9265
:102C40009F92AF92BF92CF92DF92EF92FF920F933B
:102C50001F93CF93DF93CDB7DEB7A0970FB6F8944D
:102C6000DEBF0FBECDBF5C01411551056105710589
:102C7000E9F420E030E040E350E060E070E0A0964E
:102C80000FB6F894DEBF0FBECDBFDF91CF911F917D
:102C90000F91FF90EF90DF90CF90BF90AF909F90FB
:102CA0008F907F906F905F904F905BC08E010F5F11
:102CB0001F4FC12CD12C76014801422E512C612C82
:102CC000712C8FEFC81AD80AE80AF80ACB01BA01AA
:102CD000A30192010E943AC3CA01F80161938F01D6
:102CE000A901BC01411551056105710551F7F1E0DC
:102CF000CF1AD108E108F108F401EC0DFD1D808127
:102D00008A3010F440E301C047E3480F552747FDE0
:102D10005095652F752F20E030E0C50122D081E06D
:102D2000C81AD108E108F108EFEFCE16DE06EE066C
:102D3000FE0611F7A0960FB6F894DEBF0FBECDBF0A
:102D4000DF91CF911F910F91FF90EF90DF90CF9087
:102D5000BF90AF909F908F907F906F905F904F90BB
:102D600008952115310539F48091C00085FFFCCF0D
:102D70004093C60008952A30310509F41CC05BCF8A
:102D8000CF93DF93EC0120E030E04DE050E060E0D5
:102D900070E0E7DF20E030E04AE050E060E070E023
:102DA000CE01DF91CF91DDCF9A01AB01662757FDB0
:102DB0006095762FD6CFCF92DF92EF92FF92CF938E
:102DC000DF93EC016A017B0177FF0FC020E030E068
:102DD0004DE250E060E070E0C4DFF094E094D09405
:102DE000C094C11CD11CE11CF11C2AE0B701A60152
:102DF000CE01DF91CF91FF90EF90DF90CF901BCF6E
:102E00002115310539F48091C00085FFFCCF409336
:102E1000C600089510CF9A01462F50E060E070E0A0
:102E2000EFCFCF93DF93EC019A01AB0160E070E04C
:102E3000E7DFCE01DF91CF91A3CF8F929F92AF9228
:102E4000BF92CF92DF92EF92FF921F93CF93DF93C7
:102E5000EC016A017B01122F20E030E0A901C701DB
:102E6000B6010E9469BF87FF0CC020E030E04DE250
:102E700050E060E070E0CE0174DFF7FAF094F7F80C
:102E8000F094B12C60E070E080E09FE3B11641F077
:102E900020E030E040E251E40E9470BFB394F6CFEE
:102EA0009B01AC01C701B6010E9490BE6B017C0181
:102EB0000E94DDBF4B015C010E9409C09B01AC0177
:102EC000C701B6010E948FBE6B017C012AE0B501EB
:102ED000A401CE01B0DE112361F0EFE9F4E08191AD
:102EE000882339F09091C00095FFFCCF8093C600F5
:102EF000F6CF112319F120E030E040E251E4C701A0
:102F0000B6010E943EC26B017C010E94D8BF4B01FA
:102F1000AA2497FCA094BA2CB501A401CE014BDFE2
:102F2000C501B4010E940BC09B01AC01C701B601F1
:102F30000E948FBE6B017C011150DBCFDF91CF91DE
:102F40001F91FF90EF90DF90CF90BF90AF909F9038
:102F50008F90089572CFFC01659175918591949140
:102F600008952F923F924F925F926F927F928F922D
:102F70009F92AF92BF92CF92DF92EF92FF920F9308
:102F80001F93CF93DF9300D000D0CDB7DEB71C01E5
:102F9000FC01E15EF64F14919C01220F331F220FBA
:102FA000331F3E832D832F58384F4901F90110827A
:102FB0001182128213822DE737E049E757E065E777
:102FC00077E081E797E00E94A3688D819E81825D12
:102FD000964FC1DF6B017C01612F772767FD7095EC
:102FE000872F972F0E940BC02B013C012D813E8122
:102FF000225C384F590120E030E040EC5FE3C7012C
:10300000B6010E943EC2A30192010E943EC2F50198
:1030100060837183828393832D813E81255D3D4F43
:103020003C832B83F901608171818281938160935C
:103030000B0270930C0280930D0290930E0220E01D
:1030400030E040E752E40E9470BF21E5C22E27E045
:10305000D22E7B018C012AE437E046E457E062E49B
:1030600077E08EE397E00E94DD5E0E946171F401DB
:1030700010821182128213822DE737E049E757E070
:1030800065E777E081E797E00E94A3682D813E81A4
:103090002E5D364F3A832983C9015DDF9058A30125
:1030A00092010E943EC2F501608371838283938303
:1030B00020E030E040E752E460910B0270910C0296
:1030C00080910D0290910E020E9470BF7B018C01D5
:1030D0002AE437E046E457E062E477E08EE397E0E5
:1030E0000E94DD5E0E94617189819A8134DF9B01BB
:1030F000AC010E9490BEA30192010E943EC2F50164
:10310000608371838283938320E030E040E05FE35B
:10311000EB81FC8160817181828193810E943EC23A
:1031200060930B0270930C0280930D0290930E0239
:1031300020E030E040E752E40E9470BF7B018C0148
:103140002AE437E046E457E062E477E08EE397E074
:103150000E94DD5E0E9461718D819E81865C964F2A
:10316000FADE0D811E810B59184FF8012081318143
:10317000428153810E9490BEF401608371838283F7
:1031800093838D819E818E5A964FE5DE2D813E81FF
:10319000275A384F7901F8012081318142815381CA
:1031A0000E9490BEF70160837183828393838D8137
:1031B0009E818A5B964FCFDE2D813E812F5E3D4FF3
:1031C0007901F80120813181428153810E9490BEB2
:1031D000F7016083718382839383F40180819181FD
:1031E000A281B381F50180839183A283B38310927E
:1031F0000B0210920C0210920D0210920E020E940D
:10320000586AF101EA5AF84F81E0808326960FB69A
:10321000F894DEBF0FBECDBFDF91CF911F910F910C
:10322000FF90EF90DF90CF90BF90AF909F908F90E6
:103230007F906F905F904F903F902F900895FC018A
:103240002491222341F03091C00035FFFCCF209320
:10325000C6000196F4CF22E030E084EF94E07ACE0D
:10326000FC012491222341F03091C00035FFFCCFB6
:103270002093C6000196F4CF2AE030E084EF94E07A
:10328000BFCD2091930530919405243031050CF089
:103290006AC0409195055091960560E6649F900143
:1032A000659F300D1124BC01C90183569A4F0E94BD
:1032B000E3C6EEE5F9E08491882341F09091C000E7
:1032C00095FFFCCF8093C6003196F5CFE4E1F9E09D
:1032D0008491882341F09091C00095FFFCCF8093AA
:1032E000C6003196F5CF809195059091960520E620
:1032F000289FF001299FF00D1124E356FA4F819188
:10330000882339F09091C00095FFFCCF8093C600D0
:10331000F6CFE2E1F9E08491882341F09091C0007A
:1033200095FFFCCF8093C6003196F5CF8091C00009
:1033300085FFFCCF8AE08093C6008091950590912F
:103340009605019664E070E00E9427C3909396056D
:1033500080939505809193059091940501969093A3
:1033600094058093930508952091930530919405D9
:10337000243031050CF06AC04091950550919605B6
:1033800060E6649F9001659F300D1124BC01C90166
:1033900083569A4F0E944AC6EEE5F9E0849188234D
:1033A00041F09091C00095FFFCCF8093C60031960C
:1033B000F5CFE7E0F9E08491882341F09091C000D7
:1033C00095FFFCCF8093C6003196F5CF809195058F
:1033D0009091960520E6289FF001299FF00D112479
:1033E000E356FA4F8191882339F09091C00095FF00
:1033F000FCCF8093C600F6CFE5E0F9E08491882306
:1034000041F09091C00095FFFCCF8093C6003196AB
:10341000F5CF8091C00085FFFCCF8AE08093C60085
:103420008091950590919605019664E070E00E9468
:1034300027C390939605809395058091930590916D
:103440009405019690939405809393050895809A2E
:10345000889A269A2E980895809A88980895F7DF7A
:1034600040E950ED63E070E084EF94E089DBEFEF3A
:10347000F8E08491882341F09091C00095FFFCCF43
:103480008093C6003196F5CF8091C00085FFFCCFB8
:103490008AE08093C6008EE599E0FC012491222306
:1034A00041F03091C00035FFFCCF2093C60031962B
:1034B000F5CF24B720FF14C0E7EFF8E034913323B1
:1034C00041F04091C00045FFFCCF3093C6003196DB
:1034D000F5CF3091C00035FFFCCF3AE03093C60005
:1034E00021FF14C0E7EEF8E03491332341F040911E
:1034F000C00045FFFCCF3093C6003196F5CF309128
:10350000C00035FFFCCF3AE03093C60022FF14C064
:10351000E6EDF8E03491332341F04091C00045FFDF
:10352000FCCF3093C6003196F5CF3091C00035FF07
:10353000FCCF3AE03093C60023FF14C0E6ECF8E07D
:103540003491332341F04091C00045FFFCCF3093CC
:10355000C6003196F5CF3091C00035FFFCCF3AE080
:103560003093C60025FF14C0E6EBF8E02491222337
:1035700041F03091C00035FFFCCF2093C60031965A
:10358000F5CF2091C00025FFFCCF2AE02093C60094
:1035900014BEEFEAF8E02491222341F03091C000FC
:1035A00035FFFCCF2093C6003196F5CFE8EAF8E06E
:1035B0002491222341F03091C00035FFFCCF2093AD
:1035C000C6003196F5CF2091C00025FFFCCF2AE040
:1035D0002093C600FC012491EEE5F9E0222349F096
:1035E0003091C00035FFFCCF2093C6003196249166
:1035F000F5CFE8E9F8E02491222341F03091C000B2
:1036000035FFFCCF2093C6003196F5CFE3E8F8E014
:103610002491222341F03091C00035FFFCCF20934C
:10362000C6003196F5CFE7E7F8E02491222341F078
:103630003091C00035FFFCCF2093C6003196F5CF06
:10364000E1E6F8E02491222341F03091C00035FFFB
:10365000FCCF2093C6003196F5CF2091C00025FF06
:10366000FCCF2AE02093C600E6E5F8E0249122236F
:1036700041F03091C00035FFFCCF2093C600319659
:10368000F5CFEAE4F8E02491222341F03091C00024
:1036900035FFFCCF2093C6003196F5CF2091C000B6
:1036A00025FFFCCF2AE02093C600FC018491EEE5C3
:1036B000F9E0882349F09091C00095FFFCCF8093FA
:1036C000C60031968491F5CFEBE3F8E0849188232E
:1036D00041F09091C00095FFFCCF8093C6003196D9
:1036E000F5CF0E9496454AE050E0BC0184EF94E09B
:1036F0005BDBE4E2F8E08491882341F09091C00024
:1037000095FFFCCF8093C6003196F5CF4AE050E09C
:1037100060ED74E084EF94E047DB8091C00085FFAA
:10372000FCCF8AE08093C6001092990510929A050A
:1037300010929B0510929C05ECD80E94BD750E94CA
:10374000775D0E94E5700E949593FFEF23ED80E383
:10375000F15020408040E1F700C0000008958091C2
:103760008D0590918E0560E070E001960C94A1C3E8
:1037700080918D0590918E054AE050E060E070E008
:1037800001960C9409C5682F772767FD70952091E5
:1037900097053091980540E6429FC001439F900DE8
:1037A000112483569A4F0E94CFC690938E05809322
:1037B0008D0521E0892B09F420E0822F08950E94D5
:1037C00038B86093890570938A0580938B05909330
:1037D0008C0508950E9438B86093890570938A0516
:1037E00080938B0590938C05E0919705F091980557
:1037F000E756FA4F8081811114C0EAE4F4E0849125
:10380000882341F09091C00095FFFCCF8093C600C3
:103810003196F5CF8091C00085FFFCCF8AE0809380
:10382000C600089584EF94E0FDD9EDE4F4E08491BE
:10383000882341F09091C00095FFFCCF8093C60093
:103840003196F5CF409122075091230760912407CC
:10385000709125074F5F5F4F6F4F7F4F2AE030E039
:1038600084EF94E07EDA8091C00085FFFCCF8AE08F
:103870008093C600AFCF8F929F92AF92BF92CF92AC
:10388000DF92EF92FF920F931F93CF93DF933FE26C
:10389000E32E34E0F32E01E717E0CEE3D7E044E86F
:1038A000C42E47E0D42EF70181917F016CDF88237D
:1038B00011F155DF4B015C01F6018081811103C0DC
:1038C00060911D0701C061E070E080E090E00E941F
:1038D0000BC0F80120813181428153810E943EC298
:1038E0009B01AC01C501B4010E9490BE688379833D
:1038F0008A839B8309C0F80180819181A281B38171
:1039000088839983AA83BB830C5F1F4F2496FFEFA4
:10391000CF1ADF0A83E3E81684E0F80621F686E48E
:1039200032DF8823D1F01BDF6B017C0160932E070F
:1039300070932F07809330079093310720E030E099
:10394000A9010E946CC1181644F4C0920B02D092D7
:103950000C02E0920D02F0920E02DF91CF911F91C6
:103960000F91FF90EF90DF90CF90BF90AF909F901E
:103970008F90089580DF89E406DF882351F0EFDE21
:103980006093320770933307809334079093350721
:1039900008C0109232071092330710923407109229
:1039A00035078AE4F0DE882351F0D9DE60933607CC
:1039B00070933707809338079093390708951092D2
:1039C000360710923707109238071092390708957A
:1039D000CF92DF92EF92FF92CF93DF93EC01C090F2
:1039E0005907D0905A07E0905B07F0905C07A70159
:1039F0009601688179818A819B810E9469BF87FFD6
:103A000004C0C882D982EA82FB82C0905D07D09050
:103A10005E07E0905F07F0906007A70196016C8158
:103A20007D818E819F810E9469BF87FF04C0CC8207
:103A3000DD82EE82FF8220E030E0A9016091610723
:103A40007091620780916307909164070E9490BE15
:103A50006B017C019B01AC01688579858A859B851A
:103A60000E9469BF87FF04C0C886D986EA86FB86A4
:103A7000C0901102D0901202E0901302F090140254
:103A8000A7019601688179818A819B810E946CC11E
:103A9000181624F4C882D982EA82FB82C0901502EB
:103AA000D0901602E0901702F0901802A70196013C
:103AB0006C817D818E819F810E946CC1181624F4D7
:103AC000CC82DD82EE82FF82C0901902D0901A0271
:103AD000E0901B02F0901C02A70196016885798591
:103AE0008A859B850E946CC1181624F4C886D986E5
:103AF000EA86FB86DF91CF91FF90EF90DF90CF9029
:103B00000895CF92DF92EF92FF920F931F938EE36F
:103B100097E05EDF0E9438B86093890570938A054C
:103B200080938B0590938C0520913E0730913F0741
:103B30004091400750914107609171077091720761
:103B400080917307909174070E9469BF811179C0B9
:103B50002091420730914307409144075091450717
:103B6000609175077091760780917707909178073B
:103B70000E9469BF811165C020E030E040E752E457
:103B800060910B0270910C0280910D0290910E02D7
:103B90000E9470BF51E5C52E57E0D52E7B018C01E8
:103BA0002AE437E046E457E062E477E08EE397E00A
:103BB0000E94DD5E80913E0790913F07A0914007F3
:103BC000B09141078093710790937207A093730798
:103BD000B09374078091420790914307A0914407E6
:103BE000B09145078093750790937607A093770768
:103BF000B09378078091460790914707A0914807B6
:103C0000B09149078093790790937A07A0937B0737
:103C1000B0937C0780914A0790914B07A0914C0785
:103C2000B0914D0780937D0790937E07A0937F0707
:103C3000B09380071F910F91FF90EF90DF90CF908E
:103C400008956091290270912A02882777FD809556
:103C5000982F0E940BC020910B0230910C024091D2
:103C60000D0250910E020E943EC220E030E040E77B
:103C700052E40E9470BF20E030E048EC52E488CF6C
:103C8000AF92BF92CF92DF92EF92FF920F931F936A
:103C9000CF93DF93D82F209136073091370740918B
:103CA000380750913907609132077091330780913E
:103CB0003407909135070E9479C1C62F172F082F1E
:103CC000F92E6091290270912A02882777FD80954C
:103CD000982F0E940BC020910B0230910C02409152
:103CE0000D0250910E020E943EC220E030E040E7FB
:103CF00052E40E9470BF20E030E048EC52E40E94A1
:103D000070BF209151072F93DF93FF920F931F9362
:103D1000CF935B016C0162E0E62E01E020E042E31C
:103D200057E06EE377E081E797E00E944F5680917D
:103D30003E0790913F07A0914007B09141078093C3
:103D4000710790937207A0937307B09374078091E3
:103D5000420790914307A0914407B0914507809393
:103D6000750790937607A0937707B09378078091B3
:103D7000460790914707A0914807B0914907809363
:103D8000790790937A07A0937B07B0937C07809183
:103D90004A0790914B07A0914C07B0914D07809333
:103DA0007D0790937E07A0937F07B09380070E94C2
:103DB00038B86093890570938A0580938B0590933A
:103DC0008C050F900F900F900F900F900F90DF9138
:103DD000CF911F910F91FF90EF90DF90CF90BF9008
:103DE000AF900895F8940E945C76159A1092560749
:103DF000179A10925707429A10925807A09A60E0BB
:103E00008CE00E9411BAE4E6F9E08491882341F045
:103E10009091C00095FFFCCF8093C6003196F5CFFE
:103E2000EBE2F4E08491882341F09091C00095FF8B
:103E3000FCCF8093C6003196F5CF8091C00085FFFE
:103E4000FCCF8AE08093C60082E294E00E94329325
:103E50007894C6E0D0E0219749F068EC70E080E00B
:103E600090E00E9467B80E94B893F5CFF894F4DA16
:103E7000FFCF2F923F924F925F926F927F928F92DD
:103E80009F92AF92BF92CF92DF92EF92FF920F93E9
:103E90001F93CF93DF93CDB7DEB76E970FB6F8942D
:103EA000DEBF0FBECDBFA0E6BA2EB4E0EB2EF12CE4
:103EB0001AEEC12E16E0D12E0AE0A02E992493947A
:103EC0008091750590917605209177053091780560
:103ED000821B930B8F779927892B09F418C2809145
:103EE00093059091940504970CF011C284EF94E02F
:103EF0000E94F615809392052091900530919105CE
:103F00008A3061F08D3051F08A3321F490918F0521
:103F1000992321F02F3531050CF41BC121153105F2
:103F200009F435C18091950590919605B89E3001B0
:103F3000B99E700C1124F301E20FF31FE356FA4F00
:103F4000108220918F052111FFC0FC01E756FA4F26
:103F50001082830103561A4F6EE470E0C8010E947C
:103F6000CFC60097F1F190938E0580938D05801B4D
:103F7000910B860D971D4AE050E060E070E082569C
:103F80009A4F0E9409C56093260770932707809374
:103F900028079093290740902207509023076090AC
:103FA0002407709025072FEF421A520A620A720AFC
:103FB0000091950510919605641575058605970580
:103FC00009F4E8C0B09EC001B19E900D112466E0D6
:103FD00078E083569A4F0E9481C6892B09F0DAC097
:103FE00069C16AE270E0C8010E94CFC6892B09F45A
:103FF00044C0E4E6F9E08491882341F09091C00048
:1040000095FFFCCF8093C6003196F5CFE0E6F7E050
:104010008491882341F09091C00095FFFCCF80935C
:10402000C6003196F5CF4091220750912307609149
:104030002407709125072AE030E084EF94E00E9485
:10404000B1168091C00085FFFCCF8AE08093C60046
:104050001092910510929005C0C280912607909110
:104060002707A0912807B0912907809322079093F2
:104070002307A0932407B09325078091950590917D
:104080009605B89E8001B99E100D1124C801835673
:104090009A4F3C0167E470E00E94CFC6009781F11F
:1040A00090938E0580938D0586199709800F911F37
:1040B00060E070E082569A4F0E94A1C30E94D8BF70
:1040C00064307105E8F480917B058823C9F0F6011E
:1040D0008491EAEEF6E0882349F09091C00095FFC4
:1040E000FCCF8093C60031968491F5CF8091C000BB
:1040F00085FFFCCFA092C60080EE96E00E9425933B
:104100000091950510919605B09EC001B19E900D4D
:10411000112466E073E083569A4F0E94DAC6892B19
:1041200009F460DEC8010196B7010E9427C390938D
:10413000960580939505809193059091940501963D
:104140009093940580939305109291051092900599
:10415000B7CE8B3311F490928F0590918F0591110A
:10416000AFCE4091950550919605B9016F5F7F4F95
:104170007093910560939005B49EF001B59EF00D8B
:104180001124E20FF31FE356FA4F808399CE109269
:104190008F0523C2B09E3001B19E700C1124C30163
:1041A00083569A4F1C016AE270E00E94CFC60097C6
:1041B00089F5E4E6F9E08491882341F09091C0000C
:1041C00095FFFCCF8093C6003196F5CFEAE8F7E083
:1041D0008491882341F09091C00095FFFCCF80939B
:1041E000C6003196F5CF4091220750912307609188
:1041F0002407709125072AE030E084EF94E00E94C4
:10420000B1168091C00085FFFCCF8AE08093C60084
:1042100009DB1ECF20E010E0F301E20FF11DE356B1
:10422000FA4F30813A3219F02F5F1327F5CF909370
:104230008E0580938D0582199309860D971D60E088
:1042400070E082569A4F0E94A1C30E94D8BF212FCE
:1042500030E02617370709F400CFE4E6F9E084914F
:10426000882341F09091C00095FFFCCF8093C60059
:104270003196F5CFE4EBF7E08491882341F09091FB
:10428000C00095FFFCCF8093C6003196F5CF4091DA
:1042900022075091230760912407709125072AE097
:1042A00030E084EF94E00E94B1168091C00085FF59
:1042B000FCCFABCFE4E6F9E08491882341F0909104
:1042C000C00095FFFCCF8093C6003196F5CFE3ED9B
:1042D000F7E08491882341F09091C00095FFFCCFD6
:1042E0008093C6003196F5CF409122075091230765
:1042F00060912407709125072AE030E084EF94E074
:104300000E94B1168091C00085FFFCCF7ECF8091C6
:104310008A07882309F461C18091900590919105E5
:10432000892B09F05AC18091930590919405892BAE
:1043300011F410927905E8EE2E2EE3E03E2E412C8A
:10434000512CFCE3CF2ED12CE12CF12C8E010F5FF0
:104350001F4F70E6672E7724739440910B0A50919B
:104360000C0A60910D0A70910E0A8091030A9091D7
:10437000040AA091050AB091060A481759076A076E
:104380007B0708F02AC180919305909194050497CA
:104390000CF023C18091790581111FC180915E09C4
:1043A00090915F09A0916009B091610980930B0A17
:1043B00090930C0AA0930D0AB0930E0A86E599E03B
:1043C0000E94683F482F809392058A30B9F04D30A3
:1043D000A9F0433229F420918F05211103C00EC0AA
:1043E0004A33C9F320919005309191052F3531055D
:1043F0002CF48F3FFFEF9F0709F0D1C040910B0ACB
:1044000050910C0A60910D0A70910E0A8091030A76
:104410009091040AA091050AB091060A481759071D
:104420006A077B0708F481C0EDECF6E084918823ED
:1044300041F09091C00095FFFCCF8093C60031966B
:10444000F5CF8091C00085FFFCCFFAE0F093C60065
:104450000E9438B860937D0570937E0580937F0538
:10446000909380058090810590908205A0908305AF
:10447000B0908405681979098A099B09A201910104
:104480000E943AC349015A01CA01B901A701960124
:104490000E943AC3CA01B901A70196010E943AC31A
:1044A0007F936F93C501B40120E13EE040E050E00E
:1044B0000E943AC33F932F93A9EBB6E0BF93AF930B
:1044C0001F930F930E9407C7EEE5F9E084910FB6A2
:1044D000F894DEBF0FBECDBF882349F09091C00095
:1044E00095FFFCCF8093C60031968491F5CFF801FB
:1044F0008191882339F09091C00095FFFCCF809383
:10450000C600F6CF8091C00085FFFCCF3AE0309323
:10451000C600C8010E94F38F88E897E00E94D35537
:1045200061E088E897E00E940B5080919205833209
:1045300011F4709279052091900530919105211523
:10454000310509F424CE8091950590919605689ED9
:10455000F001699EF00D1124E20FF31FE356FA4FAC
:104560001082FC01E756FA4F70822091930530913A
:1045700094052F5F3F4F3093940520939305019648
:1045800064E070E00E9427C39093960580939505A0
:1045900010928F051092910510929005DECE4B334C
:1045A00011F470928F0540918F054111D2CE409148
:1045B000950550919605B9016F5F7F4F70939105F6
:1045C00060939005649EF001659EF00D1124E20F4A
:1045D000F31FE356FA4F8083C0CE6E960FB6F89461
:1045E000DEBF0FBECDBFDF91CF911F910F91FF9026
:1045F000EF90DF90CF90BF90AF909F908F907F9083
:104600006F905F904F903F902F900895CF92DF92E0
:10461000EF92FF920F931F93CF93C82F8091930532
:104620009091940503970CF424DC0E9438B8009113
:104630008505109186052091870530918805C090E9
:104640008905D0908A05E0908B05F0908C056C1957
:104650007D098E099F09061717072807390728F4CF
:10466000012B022B032B09F0BDDB40910702509177
:1046700008026091090270910A02452B462B472BD4
:1046800019F10E9438B80091890510918A0520918E
:104690008B0530918C05601B710B820B930B009185
:1046A0000702109108022091090230910A020617B0
:1046B00017072807390740F49091280C8091270CA0
:1046C000981302C0CC2349F0CF911F910F91FF9016
:1046D000EF90DF90CF900C94C05E159A1092560721
:1046E000179A10925707429A10925807A09AECCF47
:1046F0000E945C7680917B05811138C081E08093B7
:104700007B058091220790912307A0912407B09107
:10471000250780931E0790931F07A0932007B0934F
:104720002107E4E6F9E08491882341F09091C000EC
:1047300095FFFCCF8093C6003196F5CFECEAF3E00D
:104740008491882341F09091C00095FFFCCF809325
:10475000C6003196F5CF8091C00085FFFCCF8AE07E
:104760008093C60082EA93E00C942593089580918B
:104770007B050895CF93DF93EC01809151078093DF
:104780007C0584E500D8811102C080E075C00E94DC
:10479000AF1B0E94DDBF60937C056623B1F3EEE59D
:1047A000F9E08491882341F09091C00095FFFCCFFF
:1047B0008093C6003196F5CFCD36D105B9F054F4CB
:1047C000C836D105B1F0C936D10509F045C0E0E5DC
:1047D000F3E021C0CA3DD10531F0CD3DD105E1F571
:1047E000EBE0F3E036C0E2E2F3E029C0E9E3F3E016
:1047F0001CC0E7E6F3E08191882371F19091C0003D
:1048000095FFFCCF8093C600F6CF9091C00095FF36
:10481000FCCF8093C60081918111F7CF1DC090918C
:10482000C00095FFFCCF8093C60081918111F7CF26
:1048300013C09091C00095FFFCCF8093C60081917A
:104840008111F7CF09C09091C00095FFFCCF8093F4
:10485000C60081918111F7CF40E050E060917C0566
:1048600084EF94E00E940B178091C00085FFFCCF7D
:104870008AE08093C60081E0DF91CF910895CF92C6
:10488000DF92EF92FF92209181072223F1F020E046
:1048900030E040E05FE30E943EC26B017C0120E01B
:1048A00030E0A9010E9469BF882379F0A701960131
:1048B000C701B6010E943EC22BED3FE049E450E43F
:1048C0000E943EC29B01AC0104C020E030E040E801
:1048D0005FE360E070E080E89FE30E9470BFFF90BC
:1048E000EF90DF90CF9008956091210270912202A5
:1048F0008091230290912402C2DF60931D02709385
:104900001E0280931F029093200208953F924F92BF
:104910005F926F927F928F929F92AF92BF92CF924F
:10492000DF92EF92FF920F931F93CF93DF93CDB758
:10493000DEB7E0970FB6F894DEBF0FBECDBF87E4B9
:104940000E94C31B882309F417C20E94AF1B0E9458
:10495000D8BF6430710509F43EC044F4623071057B
:1049600021F174F577FF17C00C9428386A3571056A
:1049700009F4AEC134F46C31710509F474C00C94BF
:1049800028386B35710509F4A7C16C35710509F438
:10499000A8C10C94283880917B0581110C9428388B
:1049A0000E943B1CAED80C94283880917B05811165
:1049B0000C9428380E94BA1C81E062D90C942838E3
:1049C00080917B0581110C9428380E94BA1C80E0EC
:1049D00057D90C94283880EB96E00E94259380E507
:1049E0000E94C31B882339F00E94AF1B0E94DDBFC9
:1049F0004B015C0103C0812C912C540183E50E9482
:104A0000C31B882361F00E94AF1B20E030E04AE71F
:104A100054E40E943EC20E94DDBF4B015C010E9433
:104A200061710E9438B86B017C01C80CD91CEA1C6A
:104A3000FB1C0E9438B86093890570938A058093A7
:104A40008B0590938C050E9438B86C157D058E05FA
:104A50009F0510F00C9428380E94AB7380E0D6DDDF
:104A60000E94B893F0CF80910B0290910C02A0911C
:104A70000D02B0910E0280932A0790932B07A0930A
:104A80002C07B0932D078091290290912A029093D0
:104A900083078093820784E690E090932A028093B4
:104AA00029020E9438B86093890570938A05809323
:104AB0008B0590938C0581E00E945F6A809171075D
:104AC00090917207A0917307B091740780933E078D
:104AD00090933F07A0934007B093410780917507DB
:104AE00090917607A0917707B0917807809342075D
:104AF00090934307A0934407B093450780917907AB
:104B000090917A07A0917B07B0917C07809346072C
:104B100090934707A0934807B093490780917D077A
:104B200090917E07A0917F07B091800780934A07FC
:104B300090934B07A0934C07B0934D0710920B0234
:104B400010920C0210920D0210920E0288E50E9443
:104B5000C31B882311F090E00AC089E50E94C31BA3
:104B60008111F9CF8AE50E94C31B91E098279093A9
:104B70000F0291110C942B3888E50E94C31B811100
:104B80000C942B3880910F0281110C94313889E5F7
:104B90000E94C31B81110C94313888E50E94C31B0D
:104BA0008823D1F00E94B81B672B682B692BA1F0DA
:104BB0000E94AF1B209165073091660740916707FF
:104BC000509168070E9490BE6093710770937207BE
:104BD000809373079093740789E50E94C31B882311
:104BE000D1F00E94B81B672B682B692BA1F00E94A3
:104BF000AF1B2091690730916A0740916B07509174
:104C00006C070E9490BE609375077093760780933F
:104C100077079093780780910F0281110C943738B1
:104C20008AE50E94C31B81110C9437388AE50E94E3
:104C3000C31B8823D1F00E94B81B672B682B692BFC
:104C4000A1F00E94AF1B20916D0730916E0740913B
:104C50006F07509170070E9490BE60937907709320
:104C60007A0780937B0790937C072DE737E049E72D
:104C700057E065E777E081E797E00E94A36880E06E
:104C80000E945F6A80912A0790912B07A0912C07C0
:104C9000B0912D0780930B0290930C02A0930D020C
:104CA000B0930E02809182079091830790932A021D
:104CB000809329020E9438B86093890570938A0511
:104CC00080938B0590938C050E94586A0C94283829
:104CD00010921D070C94283881E080931D070C94D6
:104CE000283885E40E94C31B811102C00E946171B3
:104CF0006FE2C62E64E0D62E75E6E72E77E0F72E3B
:104D000001E717E0B12CF60181916F010E94C31BEE
:104D1000882339F1F3E0BF120CC00E94AF1BF801E9
:104D200060837183828393838DE797E00E94486953
:104D300018C00E94AF1BF70120813181428153814D
:104D40000E9490BEF80160837183828393832DE774
:104D500037E049E757E065E777E081E797E00E94B1
:104D6000A368B394F4E0EF0EF11C0C5F1F4F24E036
:104D7000B212C9CF0C9428388DE40E94C31B88233B
:104D800011F40C9457370E94AF1B0E94D8BF6237B2
:104D9000710511F40C94BD2F0CF08FC06F317105AB
:104DA00009F49FC3A4F56631710509F443C2BCF44C
:104DB0006131710509F400C234F46230710508F400
:104DC0005CC10C9428386431710509F4FFC10CF002
:104DD0002BC26231710509F4B8C70C9428386A31C6
:104DE000710509F45BC23CF46831710509F440C2F5
:104DF0000CF426C24DC26C31710509F463C20CF487
:104E00005BC26E31710509F492C20C942838653585
:104E1000710509F4D2C7ECF46135710509F471C765
:104E200074F46A32710509F4E3C36035710509F45D
:104E300059C76032710511F00C942838B6C2633539
:104E4000710509F47DC70CF080C7109287070C9498
:104E500028386A36710509F415C7E4F46836710517
:104E600009F40DC40CF03BC46C35710511F00C94C1
:104E700028382FE234E038AB2FA70DE511E14DE6DD
:104E8000842E41E1942E51E2A52E51E1B52E312C14
:104E90000C94592F6D36710509F42DC560377105D5
:104EA00009F40AC46B36710511F00C94283810927D
:104EB000500710924F070C942838623E710511F488
:104EC0000C9492320CF061C0683C710511F40C94A2
:104ED00020314CF56837710511F40C949C308CF43A
:104EE0006537710511F40C94A92F6737710509F422
:104EF000C0C06337710511F00C942838E4EFF4E07A
:104F0000F1C76C38710509F4D9C36E3B710509F41A
:104F1000AEC56937710511F00C94283881E00E9404
:104F20005F6A0C9428386D3C710511F40C94E831DB
:104F3000ACF46B3C710511F40C94AC3114F00C948E
:104F4000C831693C710511F00C9428380FE214E067
:104F50002DE4E22E21E1F22E0C9492316C3D71058C
:104F600011F40C945D326D3D710511F40C946C32AA
:104F70006E3C710511F00C9428380FE214E085E6C0
:104F8000E82E87E0F82E0C944E32663F31E073072E
:104F900011F40C9464344CF56F3291E0790711F4FC
:104FA0000C94F73384F46D32F1E07F0711F40C9424
:104FB000233314F00C94E9336C32714011F40C94E7
:104FC000ED320C942838643F81E0780711F40C949A
:104FD0002F3414F00C9432346039714011F00C9479
:104FE00028380E9461710C942838603AF3E07F07FA
:104FF00009F444C2ACF4683532E0730711F40C9440
:105000003C35633583E0780711F40C946734673FCF
:10501000714011F00C9428380E9450100C942838DC
:10502000603DE7E07E0711F40C943534693DF7E00C
:105030007F0711F40C944C34673E734011F00C94CC
:10504000283810927B050E94389380911E0790911A
:105050001F07A0912007B09121078093220790930A
:105060002307A0932407B09325070E94121C0C94D9
:105070002838EDE8F3E00C94A63000918D051091EE
:105080008E050E5F1F4F80E50E94C31B882379F0B9
:105090000E94AF1B0E94DDBF6B017C01BB24B39457
:1050A000611571058105910531F4B12C04C0B12C55
:1050B000C12CD12C760183E50E94C31B882399F073
:1050C0000E94AF1B20E030E04AE754E40E943EC259
:1050D0000E94DDBF6B017C01AA24A39461157105B8
:1050E0008105910509F4A12C6AE270E0C8010E94D3
:1050F000CFC6009711F0FC011082F801CF01219179
:105100002032E1F3B11007C0A11005C0222319F02D
:105110000E94F38F04C08FE996E00E94259381E0FE
:105120000E94D38F0E9461710E9438B860938905F4
:1051300070938A0580938B0590938C05C114D104DC
:10514000E104F104A9F00E9438B84B015C018C0C19
:105150009D1CAE1CBF1C0E9438B8681579058A05D5
:105160009B05B8F40E947D94811113C00C943D38C6
:105170000E947B94882311F40C9428380E947D941B
:1051800081110AC00E94AB7380E040DA0E94B8939C
:10519000F5CF80E00E94D38F80918A07882331F079
:1051A00080E996E00E9425930C9428388EE796E0DB
:1051B0000E9425930C94283885E796E00E94259359
:1051C000159817984298A0980C942838E5E6F6E0D0
:1051D0008491882341F09091C00095FFFCCF80938B
:1051E000C6003196F5CF8091C00085FFFCCF8AE0E4
:1051F0008093C60088E897E00E94794CE7E5F6E0E6
:105200008491882341F09091C00095FFFCCF80935A
:10521000C6003196F5CF8091C00085FFFCCF8AE0B3
:105220008093C6000C94283888E897E00E94D24CFE
:105230000C94283888E897E00E94964D0C94283802
:1052400000918D0510918E050C5F1F4F6AE270E092
:10525000C8010E94CFC6009711F0FC01108221E026
:1052600041E0B80188E897E00E946F510C9428381B
:1052700088E897E00E949A4D0E9438B860938105B3
:105280007093820580938305909384050C9428384D
:1052900088E897E00E94A14D0C94283880918B07F4
:1052A000882311F40C94283883E50E94C31B8111D4
:1052B0000C9446380C94283888E897E00E94454FB3
:1052C0000C94283880918D0590918E056AE270E0EB
:1052D00004960E94CFC68C010097D9F020919705C3
:1052E0003091980540E6429FC001439F900D1124E4
:1052F0006EE470E083569A4F0E94CFC660E270E081
:105300000E94CFC6019690938E0580938D05F8017B
:10531000108260918D0570918E056C5F7F4F21E04A
:1053200040E088E897E00E946F510C942838809103
:105330008B07882311F40C94283860E088E897E004
:105340000E94FF5080918D0590918E056AE270E079
:1053500004960E94CFC68C010097D9F02091970542
:105360003091980540E6429FC001439F900D112463
:105370006EE470E083569A4F0E94CFC660E270E000
:105380000E94CFC6019690938E0580938D05F801FB
:10539000108260918D0570918E056C5F7F4F88E85B
:1053A00097E00E94054E0C94283880918A0781115D
:1053B0000E94617100918D0510918E050C5F1F4F49
:1053C0006AE270E0C8010E94CFC67C0161E270E031
:1053D000C8010E94CFC6009719F08C010F5F1F4FC4
:1053E000E114F10411F0F701108280E50E94C31B63
:1053F000F82E20918D0530918E050217130708F4C1
:10540000F12C80918B07882311F40C94283821E02B
:105410002F2541E0B80188E897E00E946F5183E5AD
:105420000E94C31B8823B9F020918D0530918E0511
:105430002017310780F40E94B81BAB01BC014093D8
:105440000B0A50930C0A60930D0A70930E0A86E5BE
:1054500099E00E94314088E897E00E949A4DF1104F
:105460000C9428380E9438B86093810570938205A7
:1054700080938305909384050C94283880918D0542
:1054800090918E056AE270E005960E94CFC68C016D
:105490000097D9F0209197053091980540E6429FFA
:1054A000C001439F900D11246EE470E083569A4F23
:1054B0000E94CFC660E270E00E94CFC60196909332
:1054C0008E0580938D05F801108260918D05709195
:1054D0008E056B5F7F4F88E897E00E948E540C9496
:1054E00028380E9438B860937D0570937E058093BC
:1054F0007F05909380050091810510918205209190
:10550000830530918405601B710B820B930B28EE91
:1055100033E040E050E00E943AC3CA01B9012CE3F5
:1055200030E040E050E00E943AC37F936F933F9396
:105530002F9388E496E09F938F93CE0101969F93DB
:105540008F930E9407C7EEE5F9E084910FB6F894B7
:10555000DEBF0FBECDBF882349F09091C00095FFFC
:10556000FCCF8093C60031968491F5CFFE01319631
:105570008191882339F09091C00095FFFCCF8093F2
:10558000C600F6CF8091C00085FFFCCF8AE08093F3
:10559000C600CE0101960E94F38F8091FC108823F3
:1055A00011F40C9428381092FC100091510710E06F
:1055B000000F111F085E1D4EF80160817181882760
:1055C00077FD8095982F0E940BC020914302309167
:1055D000440240914502509146020E946CC1181647
:1055E00014F00C942838F801118210820C94283899
:1055F00083E50E94C31B882311F40C9428380E9471
:10560000AF1B0E94D8BFF62EE72E862F9E2D8C0151
:1056100080E50E94C31B882331F00F3F110509F07C
:1056200010F40C9456380DE010E0E7EFF3E08191B0
:1056300091918017910711F40C94283824E0EF32EF
:10564000F207A9F70730110539F48F2D9E2D90939D
:10565000500780934F0704C017FF02C00C942838EE
:1056600061E0802F0E9411BA6F2D802F0E944ABAEC
:105670006F2D7E2D802F0E94F9B80C94283888E673
:1056800090E078D881110C94283883E50E94C31BE0
:10569000882371F000917C050E94AF1B10E0000F81
:1056A000111F085E1D4E0E94D8BFF80171836083F0
:1056B0000E945B760C9428380E94F21E83E50E94BB
:1056C000C31B882311F40C9428380E94AF1B0E943E
:1056D000D8BF70931712609316120C94283889E67D
:1056E00090E048D881110C942838E2E4F6E08491E7
:1056F000882341F09091C00095FFFCCF8093C600B5
:105700003196F5CFE0917C0524E0E29FF001112471
:10571000E05FFD4E408151816281738121E030E084
:1057200084EF94E00E94AA17EFE3F6E084918823C7
:1057300041F09091C00095FFFCCF8093C600319658
:10574000F5CFE0917C05F0E0EE0FFF1FE85EFD4E27
:1057500060817181882777FD8095982F0E940BC00A
:10576000AB01BC0121E030E084EF94E00E94AA1775
:10577000EBE3F6E08491882341F09091C00095FF1F
:10578000FCCF8093C6003196F5CF40910A1250911C
:105790000B1260910C1270910D1221E030E084EF39
:1057A00094E00E94AA17E8E3F6E08491882341F090
:1057B0009091C00095FFFCCF8093C6003196F5CF45
:1057C0006091161270911712882777FD8095982F97
:1057D0000E940BC0AB01BC0121E030E084EF94E0FB
:1057E0000E94AA17E5E3F6E08491882341F09091A6
:1057F000C00095FFFCCF8093C6003196F5CF4AE0FC
:1058000050E060E070E084EF94E00E94D416E3E39F
:10581000F6E08491882341F09091C00095FFFCCF81
:105820008093C6003196F5CF40911012509111121D
:10583000609112127091131221E030E084EF94E035
:105840000E94AA17E0E3F6E08491882341F090914A
:10585000C00095FFFCCF8093C6003196F5CF6091D4
:10586000181270911912882777FD8095982F0E9441
:105870000BC0AB01BC0121E030E084EF94E00E945A
:10588000AA17ECE2F6E08491882341F09091C000E1
:1058900095FFFCCF8093C6003196F5CF80917C05B3
:1058A00090E00E94A0734AE050E0BC0184EF94E0D5
:1058B0000E94D416E7E2F6E08491882341F09091AB
:1058C000C00095FFFCCF8093C6003196F5CF8FEFD7
:1058D0009FEF0E94A0734AE050E0BC0184EF94E087
:1058E0000E94D4168091C00085FFFCCF8AE080938F
:1058F000C6000C94AC398DE690E00E94BA23811169
:105900000C9428388CE196E00E9425931092FC10AC
:1059100083E50E94C31B882391F000917C050E94BF
:10592000AF1B10E0000F111F085E1D4E0E94D8BF74
:10593000F8017183608381E08093060215C082E5DF
:105940000E94C31B882381F000917C050E94AF1B3D
:1059500010E0000F111F085E1D4E0E94D8BFF80115
:10596000718360831092060283E50E94C31B882323
:1059700051F00E94AF1B60934302709344028093E6
:1059800045029093460282E40E94C31B882351F093
:105990000E94AF1B609347027093480280934902B4
:1059A00090934A0286E40E94C31B882369F00E94F8
:1059B000AF1B60933F02709340028093410290932B
:1059C000420281E08093FC100E945B760E9438B80E
:1059D0004B015C0100917C0510E0F801EE0FFF1F08
:1059E000E85EFD4E60817181882777FD8095982F54
:1059F0000E940BC0F801EE0FFF1FEE0FFF1FE05FCC
:105A0000FD4E11E020813181428153810E946CC1A1
:105A100018160CF010E010937A0510924E07CC2463
:105A2000CA94DC2C760148EE442E43E0542E612CBF
:105A3000712C5AE0352E80914E0781110C945D38FF
:105A4000FFEFCF16DF06EF06FF0611F40C94763851
:105A5000F7FE02C00C945D380E9438B86C197D09BD
:105A60006031774210F40C9476380C945D3886EFF0
:105A700095E00E94259383E50E94C31B882361F073
:105A80000E94AF1B0E94D8BF70931712609316122A
:105A900081E0809306020FC082E50E94C31B882329
:105AA00051F00E94AF1B0E94D8BF709317126093F1
:105AB0001612109206020E9438B84B015C01109237
:105AC0004E076091161270911712882777FD809506
:105AD000982F0E940BC011E020910A1230910B12F6
