:100000000C9496110C94C7110C94C7110C94C71141
:100010000C94C7110C94C7110C94C7110C94C71100
:100020000C94C7110C94C7110C94C7110C94C711F0
:100030000C94C7110C94C7110C94C7110C94C711E0
:100040000C94C7110C94317D0C94C7110C94C711FA
:100050000C94C7110C94C7110C94949E0C94C8C3B3
:100060000C94C7110C94A4350C94C7110C94C711AF
:100070000C94C7110C94C7110C94C7110C94C711A0
:100080000C94C7110C94C7110C94C7110C94C71190
:100090000C94C7110C94C7110C94C7110C94C71180
:1000A0000C94C7110C94C7110C94C7110C94C71170
:1000B0000C94C7110C94C7110C94C7110C94C71160
:1000C0000C94C7110C94C7110C94C7110C94C71150
:1000D0000C94C7110C94C7110C94C7110C94C71140
:1000E0000C94C711B5C1B8C1A7C1ABC1B1C1EFC1B3
:1000F000BCC1C0C1C6C1CAC1CEC1D4C1D8C1DCC196
:10010000EFC1E2C1E6C1EAC1E4C2E9C2EEC2F8C28F
:1001100002C37BC30CC314C31CC326C330C33AC37E
:1001200049C353C37BC35DC367C371C3084AD73B8D
:100130003BCE016E84BCBFFDC12F3D6C74319ABDB6
:1001400056833DDA3D00C77F11BED9E4BB4C3E91DA
:100150006BAAAABE000000803F05A84CCDB2D44EC9
:10016000B93836A9020C50B9918688083CA6AAAACB
:100170002ABE000000803F004E414E494E4954596E
:10018000494E46CDCCCC3D0AD7233C17B7D1387762
:10019000CC2B329595E6241FB14F0A000020410078
:1001A00000C84200401C4620BCBE4CCA1B0E5AAEC2
:1001B000C59D74434F4D4D554E49434154494F4E93
:1001C0000044525952554E004552524F5253004925
:1001D0004E464F004543484F0020746F6F206C6FB0
:1001E0006E6720657874727573696F6E20707265C2
:1001F00076656E7465640A0047322F47332062616A
:100200006420706172616D65746572730A00536C6D
:100210006565702E2E2E00526573756D696E6720B0
:100220007072696E74004131304D2072656164797D
:100230002E00436C69636B20746F20726573756D5B
:10024000652E2E2E004E6F206D6F76652E00456E4A
:10025000642066696C65206C6973740A0042656786
:10026000696E2066696C65206C6973740A00466962
:100270006C652064656C657465643A0044656C6502
:1002800074696F6E206661696C65642C2046696CC8
:10029000653A20006F70656E206661696C65642C3C
:1002A0002046696C653A20002569730025696D2038
:1002B000256973002569682025696D20256973000B
:1002C000256964202569682025696D2025697300EA
:1002D00025697920256964202569682025696D20B4
:1002E000256973005072696E742074696D653A20D7
:1002F0000050726F7465637465642050696E0A0003
:10030000452569202573004131304D2072656164B7
:10031000792E00D401CF01C801C101B3016F666617
:100320000044454255473A004B494C4C45442E2029
:10033000004D3131332053006F6B004865617469A3
:100340006E6720646F6E652E0020573A0045256960
:10035000202573004131304D2072656164792E0093
:1003600042656420646F6E652E0020573A00426536
:10037000642048656174696E672E004131304D20FC
:100380004F66662E002F2F20007A5F6D696E3A202F
:1003900000795F6D696E3A2000785F6D696E3A2072
:1003A000005265706F7274696E6720656E64737455
:1003B0006F70207374617475730A004D3134352089
:1003C000533C696E6465783E206F7574206F6620BB
:1003D00072616E67652028302D31290A00576172DD
:1003E0006E696E673A204D697820666163746F723A
:1003F00073206D7573742061646420757020746F50
:1004000020312E302E205363616C696E672E0A00F6
:1004100053657474696E672054726176656C20410F
:100420006363656C65726174696F6E3A2000536531
:100430007474696E672052657472616374204163DD
:1004400063656C65726174696F6E3A200053657400
:1004500074696E67205072696E7420416363656CC5
:1004600065726174696F6E3A200053657474696EC9
:1004700067205072696E7420616E642054726176D8
:10048000656C20416363656C65726174696F6E3A77
:100490002000205A00205900580020204D61783A51
:1004A0002000205A00205900580020204D696E3A43
:1004B00020004F6E20004F666600536F6674206503
:1004C0006E6473746F70733A20000001252723183F
:1004D000FF1F211D1CFF19171B1EFFFF0C0409FF26
:1004E000FFFF2E2C0CFFFF312F3004400AFF41FF8D
:1004F000FFFFFFFFFF20643A0020693A0020703AB6
:100500000020643A0020693A0020703A004B6420D1
:100510000023646566696E65202044454641554C5C
:10052000545F004B69200023646566696E65202076
:1005300044454641554C545F004B70200023646590
:1005400066696E65202044454641554C545F005015
:100550004944204175746F74756E652066696E69D3
:1005600073686564212050757420746865206C611F
:100570007374204B702C204B6920616E64204B6497
:1005800020636F6E7374616E74732066726F6D207A
:1005900062656C6F7720696E746F20436F6E666959
:1005A0006775726174696F6E2E680A005049442045
:1005B0004175746F74756E65206661696C65642140
:1005C0002074696D656F75740A0050494420417547
:1005D000746F74756E65206661696C656421205462
:1005E000656D706572617475726520746F6F2068D7
:1005F0006967680A00204B643A2000204B693A2062
:1006000000204B703A20000A20436C6173736963C9
:1006100020504944200A002054753A2000204B7590
:100620003A2000206D61783A2000206D696E3A20F2
:100630000020643A200020626961733A200043611F
:100640007365206C696768743A2000556E6B6E6F35
:10065000776E20636F6D6D616E643A2022004C6985
:100660006E65204E756D626572206973206E6F74C1
:10067000204C617374204C696E65204E756D626507
:10068000722B312C204C617374204C696E653A20BA
:10069000004B494C4C45442E200053544F5050457C
:1006A000442E20005072696E7465722073746F70EE
:1006B0007065642064756520746F206572726F7256
:1006C000732E2046697820746865206572726F7297
:1006D00020616E6420757365204D39393920746F3F
:1006E00020726573746172742E202854656D706574
:1006F0007261747572652069732072657365742EFA
:100700002053657420697420616674657220726577
:100710007374617274696E67290A004E6F204368B2
:1007200065636B73756D2077697468206C696E659D
:10073000206E756D6265722C204C617374204C695B
:100740006E653A2000636865636B73756D206D6933
:10075000736D617463682C204C617374204C696EF6
:10076000653A20004D313130004D33310047323889
:100770002058590053442072656164206572726F7D
:10078000720A00446F6E65207072696E74696E67DC
:100790002066696C650A0020496E76616C69642088
:1007A00065787472756465722000205A3A00205989
:1007B0003A0020436F756E7420583A0020453A0085
:1007C000205A3A0020593A00583A003A00436170E2
:1007D0003A00454D455247454E43595F50415253AB
:1007E000455200434153455F4C494748545F42528C
:1007F000494748544E45535300544F47474C455F73
:100800004C494748545300534F4654574152455F53
:10081000504F574552004255494C445F5045524352
:10082000454E54004C4556454C494E475F44415453
:1008300041005A5F50524F4245004155544F4C457C
:1008400056454C005052494E545F4A4F4200505258
:100850004F4752455353004155544F5245504F5204
:10086000545F54454D5000564F4C554D45545249D8
:100870004300454550524F4D0053455249414C5F4E
:10088000584F4E5F584F4646004649524D574152C9
:10089000455F4E414D453A4D61726C696E20312E77
:1008A000312E3820284769746875622920534F55C6
:1008B0005243455F434F44455F55524C3A68747408
:1008C00070733A2F2F6769746875622E636F6D2F8E
:1008D0004D61726C696E4669726D776172652F4DFC
:1008E00061726C696E2050524F544F434F4C5F56AB
:1008F000455253494F4E3A312E30204D41434849DD
:100900004E455F545950453A4131304D2045585479
:1009100052554445525F434F554E543A3120555538
:1009200049443A63656465326132662D343161321F
:100930002D343734382D396231322D6335356336F5
:10094000326633363766660A004B494C4C45442EB6
:100950002000202D20496E76616C696420657874D2
:100960007275646572206E756D62657220210A0071
:100970002D2D2D2D2D2D007C4D61726C696E7C000E
:100980002D2D2D2D2D2D00687474703A2F2F6D6133
:10099000726C696E66772E6F726700687474703A55
:1009A0002F2F6D61726C696E66772E6F72670020F3
:1009B000312E312E38007265636F76657279256449
:1009C000002020506C616E6E6572427566666572BD
:1009D00042797465733A20002046726565204D6542
:1009E0006D6F72793A2000436F6D70696C65643A7F
:1009F000204F637420313220323031380A00207C9D
:100A000020417574686F723A20286E6F6E652C20D5
:100A100064656661756C7420636F6E666967290A28
:100A200000323031372D31322D32352031323A30EB
:100A30003000204C61737420557064617465643AB1
:100A40002000312E312E380A004D61726C696E0023
:100A500020536F6674776172652052657365740AFE
:100A600000205761746368646F6720526573657412
:100A70000A002042726F776E206F75742052657382
:100A800065740A002045787465726E616C20526549
:100A90007365740A00506F77657255700A0073743D
:100AA0006172740A006572726F722077726974697C
:100AB0006E6720746F2066696C650A00456E64730A
:100AC000746F7073202563202563202563202563C0
:100AD00000205A3A0020593A0020583A00656E64C6
:100AE00073746F7073206869743A2000473238203D
:100AF000580047636F203A2000473238205900479A
:100B000032382058004D313039205430205325756B
:100B1000004D3139302053257500446F6E652073C8
:100B20006176696E672066696C652E0A004D323900
:100B3000004572726F722077726974696E672074F3
:100B40006F20454550524F4D210A00290A0020626E
:100B5000797465733B206372632000536574746914
:100B60006E67732053746F726564202800534420AD
:100B70007072696E74696E67206279746520004EC8
:100B80006F74205344207072696E74696E670A0036
:100B900053442063617264206F6B0A006F70656E4E
:100BA000526F6F74206661696C65640A00766F6CC1
:100BB000756D652E696E6974206661696C65640A7D
:100BC00000534420696E6974206661696C0A006193
:100BD00075746F25692E670046696C616D656E746A
:100BE000204F66660046696C616D656E74204F6EBD
:100BF000200046696C616D656E74204F6666004624
:100C0000696C616D656E74204F6E200046696C2EB4
:100C1000204469612E0046696C2E204469612E00D3
:100C20004F6666004F6E20004520696E206D6D3363
:100C300000436F6E74726F6C0043616E6E6F742050
:100C4000656E746572207375626469723A2000057E
:100C50002E2E004D61696E004D61782054656D70D7
:100C60003A20313530004D696E2054656D703A2060
:100C70003500544265643A4550434F53203130307B
:100C80004B004D61782054656D703A203237350045
:100C90004D696E2054656D703A20350054303A200D
:100CA0004550434F53203130304B005053553A207C
:100CB00047656E657269630050726F746F636F6C25
:100CC0003A20312E3000426175643A20323530309E
:100CD0003030004754323536302056332E30004500
:100CE00078747275646572733A2031006874747038
:100CF0003A2F2F6D61726C696E66772E6F72670086
:100D00004131304D00323031372D31322D323520E6
:100D100031323A303000312E312E38004D61726C54
:100D2000696E00546865726D6973746F7273004206
:100D30006F61726420496E666F005072696E7465EF
:100D40007220496E666F004D61696E0020746F6F8E
:100D5000206C6F6E6720657874727573696F6E2092
:100D600070726576656E7465640A00777269746581
:100D70002066696C65206E616D653A2000290A0065
:100D80002062797465733B206372632000706F7713
:100D900065726F66662053746F7265642028002048
:100DA0000D0A62797465733B206372632065727209
:100DB0006F722000200D0A62797465733B206372A4
:100DC00063206572726F72200072656164206669CB
:100DD0006C65206E616D653A200072656164206605
:100DE000696C65206469723A2000290A00206279E2
:100DF0007465733B206372632000706F7765726F58
:100E000066662073746F7265642073657474696EAE
:100E100067732072657472696576656420280020A6
:100E20002863616C63756C6174656429210A002014
:100E3000213D2000454550524F4D20435243206DE7
:100E400069736D61746368202D202873746F7265F7
:100E500064292000290A002062797465733B2063AD
:100E6000726320002073746F7265642073657474FC
:100E7000696E67732072657472696576656420288F
:100E800000204D61726C696E3D563131290A00288F
:100E9000454550524F4D3D00454550524F4D2076EF
:100EA000657273696F6E206D69736D61746368201C
:100EB0000048617264636F646564204465666175AF
:100EC0006C742053657474696E6773204C6F616431
:100ED00065640A00881300008813000032000000D7
:100EE000881300000000C8430000C8430000C84346
:100EF000000034429A99A0429A99A1420000C84346
:100F00000000AA43496E697469616C697A6520457D
:100F10004550524F4D00436F6E74726F6C005265B6
:100F200073746F7265206661696C73616665004CED
:100F30006F61642073657474696E677300496E69CC
:100F40007469616C697A6520454550524F4D005374
:100F5000746F72652073657474696E677300466997
:100F60006C616D656E74004D6F74696F6E005465D1
:100F70006D7065726174757265004D61696E0050C7
:100F80007265686561742041425320636F6E66002C
:100F90005072656865617420504C4120636F6E66C5
:100FA000005049442D44005049442D4400504944C8
:100FB0002D49005049442D49005049442D500050BE
:100FC00049442D5000200220466163740020022015
:100FD00046616374002002204D6178002002204D9C
:100FE0006178002002204D6178002002204D696E5A
:100FF000002002204D696E002002204D696E004FD6
:101000006666004F6E20004175746F74656D7000E8
:1010100046616E2073706565640046616E20737072
:101020006565640042656400426564004E6F7A7ACB
:101030006C65004E6F7A7A6C6500436F6E74726FE8
:101040006C0053746F72652073657474696E677396
:101050000042656400426564004E6F7A7A6C6500F8
:101060004E6F7A7A6C650046616E207370656564B8
:101070000046616E2073706565640054656D70652F
:10108000726174757265005654726176206D696E76
:10109000005654726176206D696E00565472617606
:1010A000206D696E00566D696E00566D696E005652
:1010B0006D696E00566D6178204500566D6178202F
:1010C0004500566D6178204500566D6178205A00C4
:1010D000566D6178205A00566D6178205A00566D21
:1010E0006178205900566D6178205900566D6178FD
:1010F000205900566D6178205800566D617820584F
:1011000000566D61782058004D6F74696F6E004114
:101110006D6178204500416D6178204500416D6129
:1011200078205A00416D6178205A00416D61782025
:101130005900416D6178205900416D617820580057
:10114000416D6178205800412D74726176656C00A4
:10115000412D74726176656C00412D726574726107
:10116000637400412D72657472616374004163633E
:10117000656C00416363656C004D6F74696F6E0050
:1011800056652D6A65726B0056652D6A65726B0037
:1011900056652D6A65726B00567A2D6A65726B0012
:1011A000567A2D6A65726B0056792D6A65726B00EE
:1011B00056792D6A65726B0056792D6A65726B00DF
:1011C00056782D6A65726B0056782D6A65726B00D1
:1011D00056782D6A65726B004D6F74696F6E0045AD
:1011E00073746570732F6D6D004573746570732F24
:1011F0006D6D005A73746570732F6D6D005A737442
:101200006570732F6D6D005973746570732F6D6DFC
:10121000005973746570732F6D6D00587374657029
:10122000732F6D6D005873746570732F6D6D004D65
:101230006F74696F6E0053746570732F6D6D004A23
:1012400065726B00416363656C65726174696F6E92
:101250000056656C6F6369747900436F6E74726FCA
:101260006C0024F4D43050C38E20C2A24017828B6D
:101270007011127A910D816CD90AA861E108C758E2
:101280006607615143061E4B5D05C145A7041A411F
:101290001104093D9803713931034036DB0265338F
:1012A0009102D4305402802E1D02632CEE01752A67
:1012B000C501B028A001102781018F2564012B24CE
:1012C0004B01E0223401AC211F018D200D01801F54
:1012D000FC00841EED00971DDF00B81CD200E61B49
:1012E000C600201BBC00641AB200B219A8000A197B
:1012F000A0006A189900D117910040178B00B5160D
:10130000840031167E00B31579003A157300C714B6
:101310006F0058146A00EE136600881363002513EB
:101320005E00C7125B006C12570015125400C11109
:10133000510070114F0021114B00D61049008D1043
:1013400047004610440002104200C00F4000800FCA
:101350003E00420F3C00060F3B00CB0E3800930EC0
:1013600037005C0E3500270E3400F30D3200C10D3E
:101370003100900D3000600D2E00320D2D00050D56
:101380002C00D90C2B00AE0C2900850C29005C0C1C
:101390002700350C27000E0C2600E80B2400C40B98
:1013A0002400A00B23007D0B23005A0B2100390BD6
:1013B0002100180B2000F80A1F00D90A1E00BB0AE2
:1013C0001E009D0A1D00800A1D00630A1C00470ABA
:1013D0001B002C0A1B00110A1A00F7091A00DD096C
:1013E0001900C4091900AB091900920917007B09FB
:1013F0001800630917004C09160036091600200969
:1014000016000A091500F5081500E0081400CC08BC
:101410001400B8081400A4081400900813007D08F4
:1014200012006B0813005808120046081200340816
:101430001100230811001208110001081100F00723
:101440001000E0071000D0071000C0071000B00720
:101450000F00A107100091070E0083070F0074070B
:101460000F0065070E0057070E0049070E003B07E7
:101470000D002E070E0020070D0013070D000607B4
:101480000D00F9060C00ED060D00E0060C00D40678
:101490000C00C8060C00BC060C00B0060C00A4062C
:1014A0000B0099060C008D060B0082060B007706D8
:1014B0000B006C060B0061060A0057060B004C0679
:1014C0000A0042060A0038060A002E060A00240610
:1014D0000A001A060A001006090007060A00FD05A0
:1014E0000900F4050900EB050900E2050900D9052A
:1014F0000900D0050900C7050900BE050900B505AA
:101500000800AD050800A50509009C050800940524
:1015100008008C050800840508007C050800740597
:1015200008006C050700650508005D050700560505
:1015300008004E050700470507004005080038056C
:101540000700310507002A050700230507001C05D1
:101550000600160507000F0507000805060002052E
:101560000700FB040600F5040700EE040600E8048B
:101570000600E2040700DB040600D5040600CF04E1
:101580000600C9040600C3040600BD040600B70433
:101590000600B1040500AC040600A6040600A00481
:1015A00005009B04060095040500900406008A04CB
:1015B000050085040500800406007A040500750412
:1015C0000500700405006B04050066040500610455
:1015D00005005C04050057040500520405004D0495
:1015E000050048040500430405003E0404003A04D5
:1015F000050035040500300404002C040500270410
:101600000400230405001E0404001A040400160448
:101610000500110404000D0404000904050004047D
:10162000040000040400FC030400F8030400F403B5
:101630000400F0030400EC030400E8030400E403E6
:101640000400E0030400DC030400D8030400D40316
:101650000400D0030400CC030400C8030300C50346
:10166000030024F404D9201BC40C5C0E9804C409A4
:101670005F0265077101F405F900FB04B30048043B
:101680008700C10369005803550003034500BE02EB
:101690003A008402310053022A0029022500040284
:1016A0002000E4011C00C8011900AF0117009801D7
:1016B0001400840113007101100061011000510138
:1016C0000E0043010D0036010B002B010B00200121
:1016D0000B00150109000C01090003010800FB00C3
:1016E0000800F3000800EB000700E4000600DE003D
:1016F0000600D8000600D2000600CC000500C70096
:101700000500C2000500BD000400B9000400B500DA
:101710000400B1000400AD000400A9000400A5000D
:101720000300A20003009F0004009B000300980038
:1017300003009500020093000300900003008D0059
:1017400002008B0003008800020086000200840073
:101750000300810002007F0002007D0002007B0088
:101760000200790002007700010076000200740098
:10177000020072000100710002006F0002006D00A3
:1017800001006C0002006A000100690002006700AD
:1017900001006600010065000100640002006200B3
:1017A000010061000100600001005F0002005D00B7
:1017B00001005C0001005B0001005A0001005900BB
:1017C00001005800010057000100560001005500BB
:1017D00001005400010053000000530001005200BA
:1017E000010051000100500001004F0001004E00B7
:1017F00000004E0001004D0001004C0001004B00B4
:1018000000004B0001004A000100490001004800AF
:1018100000004800010047000100460000004600AB
:1018200001004500000045000100440001004300A4
:10183000000043000100420000004200010041009E
:10184000000041000100400001003F0000003F0097
:1018500001003E0000003E0001003D0000003D0090
:1018600001003C0000003C0000003C0001003B0087
:1018700000003B0001003A0000003A00010039007E
:101880000000390001003800000038000000380076
:10189000010037000000370001003600000036006C
:1018A0000000360001003500000035000000350062
:1018B0000100340000003400000034000100330057
:1018C000000033000000330001003200000032004D
:1018D0000000320001003100000031000000310042
:1018E00001003000000030000000300001002F0037
:1018F00000002F0000002F0000002F0001002E002C
:1019000000002E0000002E0001002D0000002D0020
:1019100000002D0000002D0001002C0000002C0014
:1019200000002C0000002C0001002B0000002B0008
:1019300000002B0000002B0001002A0000002A00FC
:1019400000002A0000002A000100290000002900F0
:1019500000002900000029000000290001002800E3
:1019600000002800000028000000280000002800D7
:1019700001002700000027000000270000002700CA
:1019800000002700010026000000260000002600BD
:1019900000002600000026000100250000002500B0
:1019A00000002500000025000000250000002500A3
:1019B0000100240000002400000024000000240096
:1019C0000000240001002300000023000000230089
:1019D000000023000000230000002300000023007B
:1019E000010022000000220000002200000022006E
:1019F0000000220000002200010021000000210060
:101A00000000210000002100000021000000210052
:101A10000000210001002000000020000000200044
:101A20000000200000002000000020000000200036
:101A30000000200001001F0000001F0000001F0028
:101A400000001F0000001F0000001F0000001F001A
:101A500001001E0000001E0000001E0000001E000D
:101A600000004D383420582059205A204500257355
:101A70002C005A25752C45256C752C50256C752C21
:101A80005425752C4225752C004131304D2072654E
:101A90006164792E004572723A4E6F2046696C611E
:101AA0006D656E74005072696E7420706175736537
:101AB0006400005072696E742061626F72746564B4
:101AC000004E6F2053442063617264005072696E4F
:101AD000742066726F6D2053440053746F702070D1
:101AE00072696E7400526573756D65207072696EEF
:101AF000740041626F7574205072696E7465720073
:101B00005061757365207072696E74004D697865F7
:101B10007200436F6E74726F6C0050726570617208
:101B2000650054756E6500496E666F20736372655B
:101B3000656E00466C6F7700466C6F770046616E8D
:101B40002073706565640046616E2073706565641E
:101B50000042656400426564004E6F7A7A6C6500ED
:101B60004E6F7A7A6C6500537065656400537065DA
:101B70006564004D61696E0050726568656174202E
:101B8000504C4120456E6400507265686561742058
:101B9000504C412042656400507265686561742054
:101BA000504C4100507265706172650050726568FA
:101BB0006561742041425320456E6400507265682F
:101BC000656174204142532042656400507265682B
:101BD0006561742041425300507265706172650006
:101BE000436172642072656D6F7665640043617253
:101BF0006420696E73657274656400526573656E06
:101C0000643A20006F6B00627573793A20706175D9
:101C100073656420666F7220696E7075740A006265
:101C20007573793A2070617573656420666F7220F0
:101C3000757365720A00627573793A2070726F630A
:101C4000657373696E670A004B494C4C45442E20FE
:101C5000004B494C4C2063617573656420627920A8
:101C6000746F6F206D75636820696E616374697647
:101C7000652074696D65202D2063757272656E74C0
:101C800020636F6D6D616E643A2000506C65617306
:101C900065207265736574005052494E5445522058
:101CA00048414C544544005072696E746572206816
:101CB000616C7465642E206B696C6C2829206361EB
:101CC0006C6C6564210A0000000000000000000048
:101CD0000000000000484200004842000080400030
:101CE0000000005761726E696E673A20486F6D6937
:101CF0006E672042756D702044697669736F72203B
:101D00003C20310A000202040000A0400000A04074
:101D10000000004000005C4300005C430000824380
:101D2000FFFFFF6265640A002C2073797374656D90
:101D30002073746F707065642120486561746572EA
:101D40005F49443A200070012C0190012701B00145
:101D50002201C0011D01F00118011002130130021F
:101D60000E016002090190020401C002FF0000039D
:101D7000FA004003F5008003F000D003EB002004DC
:101D8000E6007004E100E004DC004005D700C00577
:101D9000D2004006CD00D006C8008007C30030083E
:101DA000BE00F008B900C009B400B00AAF00B00B23
:101DB000AA00D00CA500000EA000500F9B00C01080
:101DC00096005012910000148C00C0158700B017C7
:101DD0008200B0197D00D01B7800001E73004020E7
:101DE0006E0090226900F024640040275F00902973
:101DF0005A00E02B5500102E500020304B001032BE
:101E00004600E033410090353C0010373700703811
:101E10003200A0392D00B03A2800A03B2300603CDE
:101E20001E00103D1900903D1400103E0F00703E42
:101E30000A00C03E0500003F0000403FFBFF803F1E
:101E4000F6FFC03FF1FF4572723A204D494E5445AE
:101E50004D5020424544004572723A204D494E543F
:101E6000454D50004D494E54454D502074726967A0
:101E70006765726564004572723A204D4158544559
:101E80004D5020424544004572723A204D4158540D
:101E9000454D50004D415854454D5020747269676E
:101EA000676572656400202F002042403A002040A0
:101EB0003A004261636B004E65787420636F726E06
:101EC0006572005072656865617420504C41004332
:101ED0006F6F6C646F776E00507265686561742017
:101EE0004142530044697361626C6520737465708C
:101EF00070657273004D3834004C6576656C2063F4
:101F00006F726E657273004175746F20686F6D65D6
:101F100000473238004D6F76652061786973004D57
:101F200061696E004D6F76652058004D6F766520B3
:101F300059004D6F7665205A004578747275646556
:101F400072004D6F766520302E316D6D004D6F76CD
:101F50006520316D6D004D6F76652031306D6D00FF
:101F60004D6F766520617869730045787472756489
:101F70006572004D6F7665205A004D6F7665205969
:101F8000004D6F76652058004578747275646572EF
:101F9000004D6F7665205A004D6F76652059004DD3
:101FA0006F766520580050726570617265007C3CE8
:101FB0003E5E2B3D3F2F5B5D3B2C2A225C000000E8
:101FC0000000010204040000001C1C0C04040402B4
:101FD0000100000000000408100000000000001CC8
:101FE0001F11111F00000006191803130C00040E26
:101FF0001F041C000000000E1315110E00001C1021
:10200000181705060500040A0A0A0A11110E0C1217
:10201000120C00000000001F1511151F00004D31AB
:102020003034205325750047393220452575004747
:102030003932205A25752E2575004D353030004E29
:102040004F202000596573202000526573756D651F
:10205000207072696E74203F0025753A2530327504
:1020600000253032753A25303275002D2D2D005364
:1020700044005A004D3234004D323320257300574E
:10208000726974696E6720746F2066696C653A20A6
:10209000006F70656E206661696C65642C2046690E
:1020A0006C653A20006F70656E206661696C6564CE
:1020B0002C2046696C653A200046696C6520736582
:1020C0006C65637465640A002053697A653A200080
:1020D00046696C65206F70656E65643A20006F70AC
:1020E000656E206661696C65642C2046696C653A92
:1020F00020002066696C653A2000646F696E670095
:102100006672657368004E6F772000454E44205319
:102110005542524F5554494E450A002220706F7364
:10212000002220706172656E743A2200535542524B
:102130004F5554494E452043414C4C2074617267C1
:1021400065743A22004B494C4C45442E2000747271
:1021500079696E6720746F2063616C6C207375629F
:102160002D67636F64652066696C65732077697499
:102170006820746F6F206D616E79206C6576656C78
:10218000732E204D4158206C6576656C2069733A3A
:10219000004572726F723A0043616E6E6F74206F09
:1021A00070656E20737562646972200000006D694D
:1021B000782070657263656E74006D697820706553
:1021C0007263656E7400000074656D706C61746597
:1021D0000074656D706C6174650066696C616D6535
:1021E0006E744C0066696C616D656E7452004D6969
:1021F0007865720000002100240027002A002D00CD
:102200003000330001010000040107010A01000051
:102210002200250028002B002E003100340002018E
:102220000000050108010B0100002000230026002A
:1022300029002C002F0032000001000003010601DC
:10224000090105050505070508080808020202023C
:102250000A0A080804040404010101010101010142
:102260000303030303030303040707070C0C0C0C0D
:102270000C0C0C0C020202020606060606060606F6
:102280000B0B0B0B0B0B0B0B010210202008081083
:1022900020401020408002010201080402010102D6
:1022A00004081020408080402010080402018004AF
:1022B000020180402010080402010804020101020A
:1022C0000408102040800102040810204080000013
:1022D0000A0B02090C0D0E080703040100000000A0
:1022E00000000000000000000000000000000000EE
:1022F00000000000000000000000121110000000AB
:1023000000000000000000000000000000000000CD
:1023100000000000656E7175657565696E67202245
:10232000006563686F3A000085D423D411241FBE72
:10233000CFEFD1E2DEBFCDBF00E00CBF14E0A0E0E4
:10234000B2E0E6E6F4EC01E00BBF02C007900D92AC
:10235000AE3DB107D9F727E1AEEDB4E001C01D9263
:10236000A037B207E1F711E1C5E9D1E100E006C00D
:1023700021970109802FFE010E9462E1C439D10733
:1023800080E00807A9F70E944CC90C9422E20C9443
:1023900000002F923F924F925F926F927F928F92A6
:1023A0009F92AF92BF92CF92DF92EF92FF920F93E4
:1023B0001F93CF93DF93CDB7DEB7C757D1090FB6C1
:1023C000F894DEBF0FBECDBF81E090E09093731311
:1023D000809372138091EF128D3409F4D1C3843548
:1023E00011F40C944527873411F00C9493278091B5
:1023F000ED129091EE128430910509F4ECC154F481
:1024000097FF02C00C94AD2720912F0282309105D6
:102410003CF521C08A35910509F42FC32CF44C9763
:1024200009F41FC20C94AD278B35910509F429C31B
:102430008C35910511F00C94AD270E943EC9F1E74F
:102440002F2EF2E03F2EA6E5EA2EAAE0FA2E00E0BB
:10245000D12C10E040C321110C94B4270C94AD276B
:10246000222311F40C94AD2711E0029709F010E03B
:102470000E94A02F19821A821B821C821D821E823A
:102480001F82188682E50E94942F882309F454C184
:102490000E94322F6B017C012091560A3091570A1D
:1024A0004091580A5091590A2BAF3CAF4DAF5EAFE7
:1024B00080905A0A90905B0AA0905C0AB0905D0AE6
:1024C0008091460A9091470AA091480AB091490A22
:1024D00023968CAF9DAFAEAFBFAF239720914A0A32
:1024E00030914B0A40914C0A50914D0A27962CAFDF
:1024F0003DAF4EAF5FAF279720E030E0A901C701A5
:10250000B6010E9444DA882309F42CC12BAD3CADFE
:102510004DAD5EAD23966CAD7DAD8EAD9FAD239779
:102520000E9444DA81110DC0A501940127966CAD7B
:102530007DAD8EAD9FAD27970E9444DA882309F4C4
:1025400011C120E030E0A901C701B6010E9444DAC0
:10255000881F8827881F18130BC080E090E0A0E830
:10256000BFE367968CAF9DAFAEAFBFAF67970AC0B2
:1025700020E030E040E85FEB67962CAF3DAF4EAF18
:102580005FAF67972BAD3CAD4DAD5EAD23966CADA7
:102590007DAD8EAD9FAD23970E945ADE2F966CAF16
:1025A0007DAF8EAF9FAF2F97A501940127966CAD9D
:1025B0007DAD8EAD9FAD27970E945ADE63966CAFBE
:1025C0007DAF8EAF9FAF63972F962CAD3DAD4EADD7
:1025D0005FAD2F97CA01B9010E94A9DA2B013C0116
:1025E00063962CAD3DAD4EAD5FAD6397CA01B901A9
:1025F0000E94A9DA9B01AC01C301B2010E945BDE1B
:102600000E94C6E02B966CAF7DAF8EAF9FAF2B972D
:1026100020E030E040E05FE30E94A9DA2B013C01BA
:10262000A7019601C701B6010E94A9DA6B017C01DE
:10263000A3019201C301B2010E94A9DA9B01AC017E
:10264000C701B6010E945ADE0E94C6E09B01AC01A0
:1026500067966CAD7DAD8EAD9FAD67970E94A9DA90
:102660006B017C0123962CAD3DAD4EAD5FAD239744
:102670006BAD7CAD8DAD9EAD0E945BDE20E030E0A9
:1026800040E05FE30E94A9DA2B013C0163966CAD48
:102690007DAD8EAD9FAD639790582B962CAD3DAD23
:1026A0004EAD5FAD2B970E9437DF9B01AC01C70198
:1026B000B6010E94A9DA9B01AC01C301B2010E94DC
:1026C0005BDE2BAD3CAD4DAD5EAD0E945ADE698345
:1026D0007A838B839C8327962CAD3DAD4EAD5FAD49
:1026E0002797C501B4010E945BDE20E030E040E0A6
:1026F0005FE30E94A9DA2B013C012B962CAD3DAD86
:102700004EAD5FAD2B972F966CAD7DAD8EAD9FAD71
:102710002F970E9437DF9B01AC01C701B6010E94D1
:10272000A9DA9B01AC01C301B2010E945BDEA501E5
:1027300094010E945ADE12C089E40E94942F8823DB
:1027400031F00E94322F69837A838B839C838AE4E1
:102750000E94942F882331F00E94322F6D837E8354
:102760008F83988720E030E0A90169817A818B818D
:102770009C810E9444DA81110BC020E030E0A90165
:102780006D817E818F8198850E9444DA882349F08B
:10279000612FCE0101960E940E460E9484300C9457
:1027A000AD27E1E9F1E284918F010F5F1F4F88238C
:1027B00021F00E948F30F801F6CFE8EFF1E084912C
:1027C0008F010F5F1F4F882311F40C94AD270E94D7
:1027D0008F30F801F4CF80E50E94942F882329F0F0
:1027E0000E94F22E6B017C0103C0C12CD12C76011A
:1027F00083E50E94942F882361F00E94322F20E00D
:1028000030E04AE754E40E94A9DA0E94A4DF6B0199
:102810007C010E943EC980913402811105C060E0B4
:102820008EE092E00E9465910E94843080917B133B
:1028300090917C13A0917D13B0917E13C80ED91E88
:10284000EA1EFB1E0E94BCC3DC01CB018C199D0952
:10285000AE09BF09B7FD02C00C94AD270E94EF95E9
:10286000F1CF0E943EC980910B0290910C02A09181
:102870000D02B0910E028093E5049093E604A093BC
:10288000E704B093E8048091090290910A029093C2
:10289000E4048093E30484E690E090930A0280933A
:1028A00009020E94843081E08093B01488E50E9480
:1028B000652FE82E89E50E94652F082F8AE50E9482
:1028C000652FF82EE11005C0011105C011E0182791
:1028D00005C0011102C010E001C0182F80E1E6E53B
:1028E000FAE0A6E4BAE001900D928A95E1F71111A1
:1028F00005C0E11003C0002309F492C010924E0AF3
:1029000010924F0A1092500A1092510A20E030E0C3
:10291000A90160915E0A70915F0A8091600A9091AE
:10292000610A0E9444DA87FF68C080910B0290918F
:102930000C02A0910D02B0910E028BAF9CAFADAF17
:10294000BEAFEBEDFCE145905590659074904092E0
:102950000B0250920C0260920D0270920E021092C5
:102960005E0A10925F0A1092600A1092610A0E9439
:10297000F22D85E595E5A5E0B3E480930B029093F5
:102980000C02A0930D02B0930E020E94F22D8090D3
:102990004E0A90904F0AA090500AB090510AA5019B
:1029A000940160915E0A70915F0A8091600A909133
:1029B000610A0E9481E0181694F440920B02509232
:1029C0000C0260920D0270920E0280925E0A90924A
:1029D0005F0AA092600AB092610A0E94F22D0E94E2
:1029E0003EC92BAD3CAD4DAD5EAD20930B02309397
:1029F0000C0240930D0250930E02111105C0E1101C
:102A000003C0011107C00CC080E090E00E94B794A1
:102A10001123B9F381E090E00E94B794111102C034
:102A2000FF2021F082E090E00E94B7940E947E2E69
:102A30008091AF148093B0148091E5049091E604E6
:102A4000A091E704B091E80480930B0290930C02EC
:102A5000A0930D02B0930E028091E3049091E404E0
:102A600090930A02809309020E94843083E080934D
:102A70000F020E94E5340C94AD271092E2040C94EE
:102A8000AD2781E08093E2040C94AD270E94322FA1
:102A90002B013C01F70120813181428153810E9449
:102AA0005ADE4B015C012DEB37E346E855EB0E9403
:102AB00081E087FD18C02DEB37E346E855E3C501FB
:102AC000B4010E9444DA181674F01F5FB4E0EB0EF4
:102AD000F11C1430A9F0D1018D911D010E94942F99
:102AE000882399F3D3CF133019F0DD24D39401C098
:102AF00001E0D7014D925D926D927C921397E5CFE4
:102B0000DD2019F00E947E2E37C00023A9F1C0906D
:102B1000620AD090630AE090640AF090650A2091FE
:102B20001C0D30911D0D40911E0D50911F0DC701C0
:102B3000B6010E94A9DA0E948CE06093A9147093F8
:102B4000AA148093AB149093AC14C701B6010E94F1
:102B50009FDF2FB7F89460939F137093A013809317
:102B6000A1139093A2132FBF1092991410929A144C
:102B700010929B1410929C140E94E5340C94AD2783
:102B80008091ED129091EE128137910509F4F4C510
:102B90000CF0D5C08B34910509F406C50CF066C065
:102BA0008831910509F48FC2ECF58231910509F461
:102BB000E9C6FCF497FF02C00C94AD278230910562
:102BC0000CF499C1419711F00C94AD2760E085E4B5
:102BD00092E00E9465914298179815982E989FB799
:102BE000F89480910B018D7F80930B019FBF0C9413
:102BF000AD278531910509F44BC23CF4449711F09F
:102C00000C94AD27EDE5F2E000C28631910509F4A0
:102C100043C2479711F00C94AD27E091EB12F0916D
:102C2000EC1244C28C31910509F46AC264F48A3111
:102C3000910509F453C20CF05FC21092DF140E9498
:102C400095450C94AD278F31910509F4C7C32CF439
:102C50004E9709F45FC20C94AD278032910509F4B8
:102C600071C38A9709F460C40C94AD278836910526
:102C700009F4A6C40CF044C08235910509F479C664
:102C800034F58D34910509F497C40CF491C4813561
:102C9000910511F00C94AD270E940D9E0E943EC933
:102CA0000E9497951092390A1092380A68EE73E0E4
:102CB00080E090E00E94BF900E943EC90E94062ED4
:102CC00060E08BE793E00E9465910C94AD2784351A
:102CD000910509F457C60CF450C68535910509F4E1
:102CE00088C68C35910511F00C94AD2791E7C92E5B
:102CF00092E0D92E20E1E22E2DE0F22E10E094C6D3
:102D00008C36910509F434C53CF48A36910509F4F2
:102D1000F9C50CF479C51BC68E36910509F4A4C417
:102D20000CF4B6C58F36910509F4B1C4803791050E
:102D300011F00C94AD2788E293E00E94A0958D3CA1
:102D4000910511F40C94E3200CF05BC081399105DE
:102D500009F4A4C74CF58637910509F4EFC6A4F42D
:102D60008337910509F4E6C60CF4DEC68537910574
:102D700011F00C94AD2760E08091EB129091EC1271
:102D80000E9483910C94AD278837910509F479C787
:102D90000CF413C78937910509F47AC78C3891056B
:102DA00009F416C50C94AD278E3B910509F48EC528
:102DB0007CF4833A910509F4EBC7843A910511F448
:102DC0000C94151F8B39910511F00C94AD2739C562
:102DD000893C910511F40C943B203CF4883C91050E
:102DE00011F40C94F51F0C94AD278B3C910511F454
:102DF0000C945C208C3C910511F40C9479200C947B
:102E0000AD278336E1E09E0711F40C94F226A4F579
:102E1000823E910511F40C941D229CF48C3D910589
:102E200011F40C94C9218D3D910511F40C94D62117
:102E3000833D910511F00C94AD27E1E2F3E20C948F
:102E40004E218D3221E0920711F40C9470223CF453
:102E50008C32914011F40C9447220C94AD278F32A0
:102E600051E0950711F40C948B238033914011F4B9
:102E70000C940E230C94AD27843FB1E09B0711F412
:102E80000C94E926DCF48839F1E09F0781F14CF4D9
:102E90008039914011F00C94AD270E943EC90C94EA
:102EA000AD27893941E09407F1F08A39914011F05A
:102EB0000C94AD270E941E300C94AD27863FA1E0F4
:102EC0009A0711F40C94EF2614F40C94EC26803A33
:102ED000E3E09E0709F475C2873E934011F40C9419
:102EE00031270C94AD2706EF12E00C94DB2607E1A6
:102EF00013E00C94CC26A090EB12B090EC1280E57D
:102F00000E94942F882359F00E94F22E6B017C01BD
:102F100011E0672B682B692B31F410E004C010E03E
:102F2000C12CD12C760183E50E94942F8823F1F0E7
:102F30000E94322F20E030E04AE754E40E94A9DAF0
:102F40000E94A4DF6B017C01111112C0672B682B5A
:102F5000692B71F4A114B10459F0D5018C91882327
:102F600039F061E0C5010E94839107C0112391F3FC
:102F700060E082E392E00E94659183E090E09093AC
:102F800073138093721381E08093B9120E943EC93B
:102F90000E948430C114D104E104F104E9F080916D
:102FA0007B1390917C13A0917D13B0917E13C80E7A
:102FB000D91EEA1EFB1E0E94BCC3DC01CB018C198A
:102FC0009D09AE09BF09B7FF1CC08091B9128823C3
:102FD000C1F00E94EF95EFCF8091B912882319F0CC
:102FE0000E94EF95F9CF8091CF149091D01460E0BA
:102FF000029719F486E292E002C087E192E00E9413
:1030000065911092B9120C94AD2784918F010F5FD6
:103010001F4F882321F00E948F30F801F6CF1092C5
:1030200065171092641740E050E0BA0188E195E11D
:103030000E94C63D8BE1E8E1F5E1DE0115960190C5
:103040000D928A95E1F780911615909117159C8342
:103050008B838FEC92E09A83898340E050E0BE013D
:103060006F5F7F4F8AEC94E00E9459B4CE010196C5
:103070000E948595EEE4F2E084918F010F5F1F4F6F
:10308000882311F40C94AD270E948F30F801F4CFFF
:103090000E947F430C94AD271092DF141092E0142D
:1030A0000C94AD27803209F4108231968081811111
:1030B000F9CF40E061E08091EB129091EC120E9418
:1030C00098B60C94AD278091E014882319F081E024
:1030D0008093DF140E9455450C94AD278091E01435
:1030E000882311F40C94AD2783E50E94942F81115D
:1030F0000C9444280C94AD270E94AF450C94AD2746
:1031000040E060E08091EB129091EC120E9498B642
:103110000C94AD278091E014882311F40C94AD2712
:1031200082EB96E10E94853D82EB96E10E94E7A842
:103130001092DE141092DD14E090EB12F090EC127D
:103140008091E014882311F40C94AD270E9429C8C3
:103150001D8218861C821B828FEC92E09A838983E1
:1031600084E195E19093341580933315F7018081C4
:103170008F3209F068C06FE270E0C7010E94B0E1D1
:103180008C010F5F1F4F9E012F5F3F4F49010115BB
:10319000110509F45EC06FE270E0C8010E94B0E161
:1031A0006C01009709F456C00817190708F052C0BF
:1031B0005C01A01AB10AA501B801CE0180960E9457
:1031C000D9E1E0E2F0E0EC0FFD1FEA0DFB1D1082FB
:1031D0008E01005E1F4FD8018D918D01882319F05B
:1031E0000E948F30F8CF8AE00E948F3060913315B3
:1031F000709134156115710511F06C5F7F4F21E0FE
:10320000AE01405E5F4FCE0105960E94F6AC811183
:1032100012C0BE01605E7F4F84E992E00E9441606F
:103220008EE20E948F308AE00E948F30C4010E949B
:1032300085950C94AD2790923415809233158601B4
:103240000F5F1F4FA4CF85E395E1909334158093D2
:10325000331587016091331570913415611571052F
:1032600011F06C5F7F4F18A21BA222E0A801CE01D3
:1032700080960E94F6AC811102C0F12C1EC0CE01D6
:1032800080960E9497C78823C1F36CA57DA58EA563
:103290009FA541E00E94D63B882379F3E8A9B0E2DC
:1032A000EB9FF0011124E359F54F309731F385EE90
:1032B00080831BA20E94963BF82ECE0180960E942E
:1032C0000F30FF2009F1EEE6F2E084917F012FEF4D
:1032D000E21AF20A882321F00E948F30F701F5CF1D
:1032E000D8018D918D01882319F00E948F30F8CF7D
:1032F0008AE00E948F3010921015109211151092D2
:1033000012151092131518C0ECE7F2E084917F01BA
:10331000BFEFEB1AFB0A882321F00E948F30F701E0
:10332000F5CFF80181918F01882319F00E948F3029
:10333000F8CF8EE20E948F30CE0101960E948595D3
:103340000C94AD278091DF1481110E943EC98091B9
:10335000E014882311F40C94AD2780E50E94942F8B
:10336000882319F00E94232F03C080E50E94652F57
:10337000182F482F61E08091EB129091EC120E947F
:1033800098B683E50E94942F882381F00E94022F33
:10339000AB01BC01409310155093111560931215A9
:1033A0007093131582EB96E10E94C63D8091E01464
:1033B000882319F081E08093DF1411110C94AD275C
:1033C00089CE8091EB129091EC1221E02093DE14D3
:1033D00040E060E00E9498B60C94AD270E9409C9B5
:1033E000ECE3CE2ED12CE12CF12CA70196010E940A
:1033F0001FDE762E672ECA01B901A70196010E9431
:103400001FDE6B017C01CA01B90128E130E040E018
:1034100050E00E941FDE4B015C01C9016DE671E0C6
:103420000E941FE18E010F5F1F4F6115710599F01A
:103430006F927F92DF92CF929F928F929F938F9302
:103440007F936F9380ED92E09F938F931F930F93E1
:103450000E94DDD912C00097B1F06F927F92DF9287
:10346000CF929F928F929F938F9380EC92E09F9345
:103470008F931F930F930E94DDD90FB6F894DEBF90
:103480000FBECDBF36C081149104A104B10479F000
:103490006F927F92DF92CF929F928F9284EB92E015
:1034A0009F938F931F930F930E94DDD9E6CFC11492
:1034B000D104E104F10469F06F927F92DF92CF9220
:1034C0008CEA92E09F938F931F930F930E94DDD914
:1034D000D4CF6F927F9288EA92E09F938F931F934D
:1034E0000F930E94DDD90F900F900F900F900F90C7
:1034F0000F9060E0C8010E948391E1E2F3E28491C1
:103500007F01BFEFEB1AFB0A882321F00E948F3066
:10351000F701F5CFB80184EE92E00E9441608AE0A5
:103520000E948F300C94AD2783E50E94942F88234E
:1035300011F40C94AD270E94122FE82E80E50E9412
:10354000942F882341F00E94022F8B0177FF02C045
:103550000C94AD2702C006E010E0902FEAECF4E0F6
:103560008BE28E0F2491921729F031968E13FACFA9
:103570000C945428E1E9F1E284918F010F5F1F4F11
:10358000882321F00E948F30F801F6CFE1EFF2E0BE
:1035900084918F010F5F1F4F882311F40C94AD2786
:1035A0000E948F30F801F4CF0E9455450C94AD274E
:1035B0000E9495450C94AD270E9434C80C94AD2709
:1035C00088E690E00E949B3381110C94AD27809196
:1035D0008A0C83FF02C00C94AD2783E50E94942FD0
:1035E000882309F43DC00E94322F0E949FDF709310
:1035F0003D0A60933C0A0E94322F20E030E04AEA04
:1036000052E40E9444DA18163CF00E9434C860E08C
:1036100087E093E00E9465910E94322F20910B1465
:1036200030910C1440910D1450910E140E9481E0C1
:103630001816B4F487E393E09F938F938091B313AC
:1036400090E001969F938F9380E093E09F938F93F8
:103650001F920E943A450FB6F894DEBF0FBECDBF51
:103660000E941BD20C94AD278EE40E94942F8823D5
:1036700011F40C94AD270E94022F6093690A709395
:103680006A0A80936B0A90936C0A0C94AD2783E5C9
:103690000E94652F882359F083E50E94942F882388
:1036A00019F00E94122F01C080E080938A0CE1E2A1
:1036B000F3E284918F010F5F1F4F882321F00E9456
:1036C0008F30F801F6CFE1E2F3E084918F010F5FD4
:1036D0001F4F882321F00E948F30F801F6CF809190
:1036E0008A0C8823A1F153E1C52E53E0D52EE12C9D
:1036F000F12C20E080918A0C90E00E2C02C0959570
:1037000087950A94E2F780FF17C0BB24B394B20EEA
:10371000222319F08CE20E948F30F601259134911A
:10372000F901849189010F5F1F4F882321F00E94C6
:103730008F309801F5CF2B2DFFEFEF1AFF0A32E003
:10374000C30ED11C45E0E416F104A1F60CC0EDE176
:10375000F3E084918F010F5F1F4F882321F00E94B7
:103760008F30F801F6CF8AE00E948F300C94AD279D
:10377000109221020C94AD2783E50E94942F882398
:1037800069F00E94122F8D3320F480932A020C944A
:10379000AD278CE380932A020C94AD27E1E2F3E29B
:1037A00084918F010F5F1F4F882321F00E948F307B
:1037B000F801F6CF40912A0250E060E070E081E32A
:1037C00093E00E943F868AE00E948F300C94AD27E0
:1037D00080918A0C83FF02C00C94AD2783E50E9480
:1037E000942F882311F40C94AD270E94322F0E944D
:1037F0009FDF6739710514F066E970E070933B0A4A
:1038000060933A0A0C94AD2789E690E00E949B33BE
:10381000811111C0E8E3F3E084918F010F5F1F4F26
:10382000882321F00E948F30F801F6CF0E94819DFD
:103830008AE00E948F3010927313109272130C94CE
:103840004D2D83E50E94942F882311F40C94AD270D
:103850000E94122F182F8D3308F01CE31093781359
:103860000E94BCC36B017C01212F30E0A8EEB3E0C5
:103870000E944BDEC60ED71EE81EF91EC0927413BE
:10388000D0927513E0927613F09277130C94AD27D3
:103890008DE690E00E949B3381110C94AD278091BE
:1038A0008A0C83FF02C00C94AD2783E50E94942FFD
:1038B00024968FAF249781110C946A2882E50E9488
:1038C000942F81110C946A280C94AD2780918A0C56
:1038D00083FF02C00C94AD2760E08EE693E00E9467
:1038E000659183E50E94942F24968FAF24978111D0
:1038F0000C94F22982E50E94942F81110C94F229F4
:103900000C94AD2780E50E94942F811108C083E5B7
:103910000E94942F811109C03FEF20E00AC00E944D
:10392000122F81110C94AD27F2CF0E94022F362F57
:10393000272F832F922F8F3F910519F010F08FEFD3
:1039400090E09093390A8093380A0C94AD2780E573
:103950000E94942F811106C01092390A1092380AE1
:103960000C94AD270E94022F672B11F00C94AD2709
:10397000F3CF1092E1040C94AD2781E08093E10431
:103980000C94AD2783E50E94942F8823A1F00E9418
:10399000322F20E030E04AE754E40E94A9DA0E9486
:1039A000A4DF60932B0270932C0280932D029093DE
:1039B0002E020C94AD2788E50E94652F81110C948E
:1039C0004E2B89E50E94652F81110C944E2B8AE5C0
:1039D0000E94652F81110C944E2B85E40E94652F67
:1039E00081110C944E2B0E943EC90E9497950C9415
:1039F000AD2783E50E94652F882311F40C94AD2731
:103A00000E94322F20E030E04AE754E40E94A9DA15
:103A10000E94A4DF60937F137093801380938113BF
:103A2000909382130C94AD27D6018D916D010E9465
:103A3000652F882309F46DC0133009F063C00E941C
:103A4000322F4B015C0120E030E040EA51E40E945B
:103A500044DA87FF4EC0A501940160911C0D70915E
:103A60001D0D80911E0D90911F0D0E9437DF2B01BF
:103A70003C019B01AC0160910C0D70910D0D80918A
:103A80000E0D90910F0D0E94A9DA60930C0D7093AA
:103A90000D0D80930E0D90930F0DA3019201609177
:103AA000E00C7091E10C8091E20C9091E30C0E948B
:103AB000A9DA6093E00C7093E10C8093E20C909390
:103AC000E30C6091970C7091980C8091990C9091F7
:103AD0009A0C0E9448DAA30192010E94A9DA0E947E
:103AE000A4DF6093970C7093980C8093990C90933B
:103AF0009A0C80921C0D90921D0DA0921E0DB092FA
:103B00001F0D07C00E94322FF701608371838283EB
:103B100093831F5FF4E0EF0EF11C143009F084CFA3
:103B20000E9496610C94AD270E943EC90E94E53424
:103B30000C94AD270E942E340C94AD2785E40E948E
:103B4000942F882319F00E94232F03C085E40E943C
:103B5000652F882361F0E1E2F3E284918F010F5F2A
:103B60001F4F882321F00E948F30F801F6CF81E4A7
:103B70000E94942F882319F00E94232F03C081E410
:103B80000E94652F882361F0E5E8F3E084918F01BE
:103B90000F5F1F4F882321F00E948F30F801F6CF6E
:103BA0000091EB121091EC12D8018D918D018823B8
:103BB00009F4D9CD0E948F30F7CFE1EAF3E0849188
:103BC0008F010F5F1F4F882321F00E948F30F80173
:103BD000F6CFE9E9F3E084918F010F5F1F4F88234F
:103BE00021F00E948F30F801F6CF029B03C003EE54
:103BF00012E002C008EE12E0F80181918F018823E3
:103C000019F00E948F30F8CF8AE00E948F30E1E9EE
:103C1000F3E084918F010F5F1F4F882321F00E94F2
:103C20008F30F801F6CF069B03C003EE12E002C00E
:103C300008EE12E0D8018D918D01882319F00E94C1
:103C40008F30F8CF8AE00E948F30E9E8F3E084916A
:103C50008F010F5F1F4F882321F00E948F30F801E2
:103C6000F6CF379B03C003EE12E002C008EE12E06D
:103C7000F80181918F01882309F475CD0E948F305E
:103C8000F7CF81E08093B0148093AF140C94AD27EC
:103C90001092B0141092AF140C94AD2783E50E94DB
:103CA000942F882319F00E94022F02C060E070E078
:103CB0008B01112702301105D4F0E1E9F1E2849182
:103CC0008F010F5F1F4F882321F00E948F30F80172
:103CD000F6CFEBEBF3E084918F010F5F1F4F88234A
:103CE00011F40C94AD270E948F30F801F4CF88E4D2
:103CF0000E94942F8823A9F00E94022F6A3A71052E
:103D00003CF06530F1E07F072CF064E071E002C028
:103D10006AEA70E0F801EE0FFF1FE854F34F718379
:103D2000608386E40E94942F8823A9F00E94022FCA
:103D3000F801EE0FFF1FE454F34F718360836F3F70
:103D4000710519F014F06FEF70E077FF02C060E0CA
:103D500070E07183608382E40E94942F882311F4C1
:103D60000C94AD270E94022F6530710534F068383D
:103D700071052CF067E870E002C065E070E0000FAC
:103D8000111FF801EC54F34F718360830C94AD273D
:103D900083E50E94942F882349F00E94022F8B0113
:103DA0006230710514F00C94AD2702C000E010E001
:103DB00080E50E94942F882359F00E94322F6B01D6
:103DC0007C0120E030E0A9010E9444DA87FF04C0B2
:103DD00060E070E0CB011CC02DEB37E346E855EB0B
:103DE000C701B6010E9481E087FD0AC02DEB37E3D1
:103DF00046E855E3C701B6010E9444DA181644F7B5
:103E0000A701960160E070E080E89FE30E9437DF41
:103E1000000F111F000F111FF801EC59FA4F6083BA
:103E20007183828393830C94AD2783E50E94942F42
:103E3000882349F00E94022F8B016031710514F034
:103E40000C94AD2702C000E010E0C0906405D09053
:103E50006505E0906605F09067052DEB37E346E8D1
:103E600055EBC701B6010E9481E087FF09C0A70199
:103E7000960160E070E080E89FE30E9437DF0DC0AC
:103E80002DEB37E346E855E3C701B6010E9444DA5B
:103E900018166CF360E070E0CB0120E030E0A9017F
:103EA0000E945BDE4B015C01C0906805D090690503
:103EB000E0906A05F0906B052DEB37E346E855EB93
:103EC000C701B6010E9481E087FF0BC0A7019601E0
:103ED00060E070E080E89FE30E9437DF9B01AC0167
:103EE0000DC02DEB37E346E855E3C701B6010E944C
:103EF00044DA18165CF320E030E0A901C501B401F2
:103F00000E945BDE4B015C0120E030E040E85FE3B3
:103F10000E945ADE6B017C012DEB37E346E855EB3E
:103F20000E9481E087FF03C0EDEDF3E00EC02DEBB2
:103F300037E346E855E3C701B6010E9444DA181694
:103F40009CF332C00E948F30F70184917F012FEFE4
:103F5000E21AF20A8111F6CFA5019401609164057D
:103F60007091650580916605909167050E94A9DAB8
:103F7000609364057093650580936605909367056B
:103F8000A5019401609168057091690580916A05A9
:103F900090916B050E94A9DA60936805709369059A
:103FA00080936A0590936B05E3E0000F111FEA957B
:103FB000E1F7F801E459FA4F8091640590916505A5
:103FC000A0916605B091670580839183A283B38336
:103FD0008091680590916905A0916A05B0916B0583
:103FE00084839583A683B783B8C788EC90E00E944A
:103FF0009B338111B2C784E40E94652F8823C1F1ED
:104000000E94322F11E020E030E0A9010E9444DA42
:10401000811101C010E010937D0C112349F10E9421
:10402000322FE091B31334E0E39FF0011124E758FD
:10403000F34F608371838283938320E030E0A90192
:104040006091790C70917A0C80917B0C90917C0C32
:104050000E9444DA81110CC080E090E0A0EEBFE342
:104060008093790C90937A0CA0937B0CB0937C0C8A
:104070000E94115272C764EEE62E6CE0F62E01E744
:1040800012E074E0D72ED00ED8018D918D010E94E0
:10409000652F882349F00E94322F0E94A4DFF70188
:1040A0006083718382839383F4E0EF0EF11CD0125E
:1040B000EBCF0E94696051C744EDE42E4CE0F42E32
:1040C00001E712E054E0D52ED00ED8018D918D017C
:1040D0000E94652F882339F00E94322FF7016083F8
:1040E000718382839383F4E0EF0EF11CD012EDCF45
:1040F00034C783E50E94652F8823D9F00E94322FB0
:10410000AB01BC014093FC0C5093FD0C6093FE0C82
:104110007093FF0C4093F40C5093F50C6093F60CE5
:104120007093F70C8AE694E00E940B608AE00E948C
:104130008F3080E50E94652F882399F00E94322FEE
:10414000AB01BC014093FC0C5093FD0C6093FE0C42
:104150007093FF0C8DE494E00E940B608AE00E9453
:104160008F3082E50E94652F882399F00E94322FBC
:10417000AB01BC014093F80C5093F90C6093FA0C1E
:104180007093FB0C8EE294E00E940B608AE00E9428
:104190008F3084E50E94652F882309F4DEC60E94D3
:1041A000322FAB01BC014093F40C5093F50C60939B
:1041B000F60C7093F70C80E194E00E940B608AE0AB
:1041C0000E948F30CAC683E50E94652F882351F074
:1041D0000E94322F6093D00C7093D10C8093D20C3C
:1041E0009093D30C84E50E94652F882351F00E94A0
:1041F000322F6093CC0C7093CD0C8093CE0C9093A7
:10420000CF0C82E40E94652F882351F00E94F22E89
:104210006093860C7093870C8093880C9093890C24
:1042200088E50E94652F882351F00E94322F609309
:10423000000D7093010D8093020D9093030D89E59D
:104240000E94652F882351F00E94322F6093040D45
:104250007093050D8093060D9093070D8AE50E94DB
:10426000652F882351F00E94322F6093080D7093C0
:10427000090D80930A0D90930B0D85E40E94652F24
:10428000882309F46AC60E94322F60930C0D709344
:104290000D0D80930E0D90930F0D5FC684918F01CD
:1042A0000F5F1F4F882321F00E948F30F801F6CF57
:1042B00083E50E94652F882321F00E94232F80939D
:1042C0000802EAEBF4E084918F010F5F1F4F88230F
:1042D00021F00E948F30F801F6CF80910802811101
:1042E00003C0E6EBF4E002C0E2EBF4E084918F015E
:1042F0000F5F1F4F882321F00E948F30F801F6CF07
:10430000EAEAF4E084918F010F5F1F4F882321F0C8
:104310000E948F30F801F6CF40E050E0BA0188EA01
:1043200094E00E940B6040E050E0BA0185EA94E01E
:104330000E940B6040E050E0BA0182EA94E00E94E3
:104340000B60EAE9F4E084918F010F5F1F4F88232F
:1043500021F00E948F30F801F6CF40E050E06CE58C
:1043600073E488E994E00E940B6040E050E06CE563
:1043700073E485E994E00E940B6040E050E062E85D
:1043800073E482E994E00E940B608AE00E948F301F
:10439000E4C583E50E94942F882309F4DEC50E94BA
:1043A000022F70930A0260930902D7C58DED90E049
:1043B0000E949B338111D1C583E50E94942F8823ED
:1043C00009F4CBC50091B31310E00E94022F000F37
:1043D000111FF801EA5DFD4F718360838091B31373
:1043E00090E08C01000F111F000F111F98012E5D2E
:1043F0003D4F7901880F991FFC01EA5DFD4F6081F7
:104400007181072E000C880B990B0E944ADA2AE072
:1044100037ED43E25CE30E94A9DAF801EE55FD4E68
:1044200020813181428153810E94A9DAD7016D93A5
:104430007D938D939C93139790C580E50E94652F83
:10444000882309F48AC50E94022F6B017C0183E551
:104450000E94942F882321F00E94022F8B0102C01A
:104460000FEF1FEFC8010196039708F076C5D7FC40
:1044700074C59C2DEAECF4E08BE28E0F2491921728
:1044800009F46BC531968E13F9CF0C94252D83E575
:104490000E94942F882319F00E94022F02C064E02A
:1044A00071E079A368A380E50E94942F882339F0F6
:1044B0000E94022F6938B3E17B0730F402C068EE36
:1044C00073E07A83698304C088E893E19A838983DF
:1044D000BE01605E7F4FCE0101960E9406453DC53C
:1044E00085E40E94942F811110C080E50E94652F01
:1044F000882391F00E94322F6093A70C7093A80C30
:104500008093A90C9093AA0C07C00E94122F8823B5
:1045100061F3E1E9F1E271C089E40E94652F88232B
:1045200081F00E94322F2CEA35EC47E25EE30E94D4
:10453000A9DA6093AF0C7093B00C8093B10C909398
:10454000B20C84E40E94652F882381F00E94322FF0
:104550002CEA35EC47E25EE30E9437DF6093AB0C58
:104560007093AC0C8093AD0C9093AE0CE1E2F3E24F
:1045700084918F010F5F1F4F882321F00E948F309D
:10458000F801F6CF4091A70C5091A80C6091A90CAE
:104590007091AA0C8DEF94E00E940B602CEA35EC30
:1045A00047E25EE36091AF0C7091B00C8091B10C6A
:1045B0009091B20C0E9437DFAB01BC0189EF94E00F
:1045C0000E94EE5F2CEA35EC47E25EE36091AB0CB3
:1045D0007091AC0C8091AD0C9091AE0C0E94A9DA58
:1045E000AB01BC0185EF94E00E94EE5F8AE00E947F
:1045F0008F30B3C40E948F30F80184918F010F5F18
:104600001F4F8111F7CF02E413E0F80181918F0170
:10461000882309F4A8C80E948F30F7CF80E50E9454
:10462000652F882351F00E94322F6093AB13709353
:10463000AC138093AD139093AE1389E40E94652F61
:10464000882381F00E94322F2CEA35EC47E25EE3AA
:104650000E94A9DA6093A7137093A8138093A913FB
:104660009093AA1384E40E94652F882381F00E940E
:10467000322F2CEA35EC47E25EE30E9437DF60938D
:10468000A3137093A4138093A5139093A613E1E250
:10469000F3E284918F010F5F1F4F882321F00E9466
:1046A0008F30F801F6CF4091AB135091AC1360916D
:1046B000AD137091AE1389E095E00E940B602CEA77
:1046C00035EC47E25EE36091A7137091A8138091E7
:1046D000A9139091AA130E9437DFAB01BC0185E0BA
:1046E00095E00E94EE5F2CEA35EC47E25EE36091D4
:1046F000A3137091A4138091A5139091A6130E9407
:10470000A9DAAB01BC0181E095E00E94EE5F8AE08E
:104710000E948F3022C485E40E94942F882321F0C8
:104720000E94022F7B0102C0E12CF12C83E40E9445
:10473000942F882331F00E94022FA5966FAFA59782
:1047400004C025E0A5962FAFA59785E50E94942F7C
:10475000882319F00E94232F03C085E50E94652F4E
:10476000E0968FAFE097F7FC07C0812C912C06E113
:10477000A02E03E4B02E06C0812C912C1CE8A12EA3
:1047800012E4B12E83E50E94942F882321F00E9429
:10479000322F4B015C01E114F10411F41092B313B8
:1047A0000E94BCC32B013C0181E08E0D823018F4C5
:1047B00003E513E00CC006E613E0D8018D918D01EE
:1047C000882311F40C94B31B0E948F30F6CFF801AC
:1047D00081918F01882319F00E948F30F8CFEBAEC2
:1047E0008AE00E948F300E940D9EFBADF7FF04C04F
:1047F0008FE78093B21307C0EE2DEE0CFF0BEF5442
:10480000FC4E8FE78083C501B4010E949FDF072E15
:10481000000C880B990B0E944ADA64966FAF64977C
:1048200068967FAF689769968FAF69976A969FAFD2
:104830006A9781E080932102AB964CAE5DAE6EAE7E
:104840007FAEAB97E4964CAE5DAE6EAE7FAEE497B6
:104850006B961FAE6B9720E46C962FAF6C973CE184
:104860006D963FAF6D9746E46E964FAF6E976F961D
:104870001FAE6F97A0961FAEA097A1961FAEA197EF
:10488000A2961FAEA29763961CAE1DAE1EAE1FAEC3
:1048900063972F961CAE1DAE1EAE1FAE2F97C12C78
:1048A000D12C7601AFE78A2E912CA12CB12C8FE769
:1048B00090E0A0E0B0E027968CAF9DAFAEAFBFAF69
:1048C0002797AF961CAE1DAE1EAE1FAEAF9791E000
:1048D000A7969FAFA79729961FAE1EAE299710E007
:1048E000212C312C00E0ABAD8A2FAA0F990BFC01D3
:1048F000EF54FC4EE696FFAFEEAFE697880F991F98
:10490000880F991F9C01255F3B4EA4963FAF2EAFA9
:10491000A497A5964FADA597042E000C550BA6960F
:104920005FAF4EAFA69780912102882309F41CC186
:104930000E94BCC323966CAF7DAF8EAF9FAF239711
:104940008091AF13882309F4EBC00E949AA05BAD5D
:1049500057FF09C010910F142090101430901114BB
:10496000009112140DC0A496AEADBFADA4971C91DA
:1049700011962C90119712963C90129713960C91C9
:10498000212F322D432D502F6F966FAD6F97A0962C
:104990007FADA097A1968FADA197A2969FADA2974C
:1049A0000E9444DA87FF0CC06F961FAF6F97A096E6
:1049B0002FAEA097A1963FAEA197A2960FAFA29758
:1049C000212F322D432D502F6B966FAD6B976C9628
:1049D0007FAD6C976D968FAD6D976E969FAD6E9710
:1049E0000E9481E0181664F46B961FAF6B976C966B
:1049F0002FAE6C976D963FAE6D976E960FAF6E971C
:104A0000A796BFADA79764962FAD649768963FAD04
:104A1000689769964FAD69976A965FAD6A97612FFF
:104A2000722D832D902FBB2309F45EC00E9481E07C
:104A300018160CF075C023964CAD5DAD6EAD7FAD14
:104A400023974419550966097709DB01CA0188587B
:104A50009341A109B109B7FD63C027968CAD9DAD07
:104A6000AEADBFAD279788199909AA09BB09EBAD6F
:104A7000B595A79597958795E7FF03C08093B213E7
:104A800005C0E696EEADFFADE6978083AF964CAFDE
:104A90005DAF6EAF7FAFAF976496FFAD64976F96D3
:104AA000FFAF6F9768962FAD6897A0962FAFA0972E
:104AB00069963FAD6997A1963FAFA1976A964FADB2
:104AC0006A97A2964FAFA29723968CAD9DADAEADDF
:104AD000BFAD2397AB968CAF9DAFAEAFBFAFAB97DB
:104AE000A7961FAEA7971CC00E9444DA87FF18C084
:104AF00023968CAD9DADAEADBFAD2397AB962CADDF
:104B00003DAD4EAD5FADAB97821B930BA40BB50BC8
:104B1000AC01BD01485853416109710977FFDDC5FA
:104B200020E030E040EA51E464966FAD6497689607
:104B30007FAD689769968FAD69976A969FAD6A97C2
:104B40000E945BDE9B01AC01612F722D832D902FA3
:104B50000E9481E018167CF4EAECF5E084918F0164
:104B60000F5F1F4F811103C00E940D9EF6C10E946E
:104B70008F30F801F3CF23968CAD9DADAEADBFADB8
:104B80002397E4962CAD3DAD4EAD5FADE497821B0F
:104B9000930BA40BB50BB7FD15C00E94819D8AE055
:104BA0000E948F3023968CAD9DADAEADBFAD2397E7
:104BB0008053984FAF4FBF4FE4968CAF9DAFAEAFD1
:104BC000BFAFE49723968CAD9DADAEADBFAD23973F
:104BD000880F991FAA1FBB1FAB962CAD3DAD4EADE4
:104BE0005FADAB97821B930BA40BB50B8419950992
:104BF000A609B70981389F44A241B10568F0ECEAE3
:104C0000F5E084918F010F5F1F4F882309F4ACCF2B
:104C10000E948F30F801F5CF29964EAD5FAD2997F0
:104C2000A6968EAD9FADA697841795070CF0B1C0E0
:104C3000EFE4F5E084918F010F5F1F4F882321F08F
:104C40000E948F30F801F6CF9BAD97FD03C00AECB0
:104C500014E002C002EF12E0B8018DE395E00E947B
:104C60004160B701A60189E395E00E940B608AE0EC
:104C70000E948F30B80187E295E00E9441602F9634
:104C80004CAD5DAD6EAD7FAD2F9783E295E00E9498
:104C90000B608AE00E948F30B80181E195E00E94AC
:104CA000416063964CAD5DAD6EAD7FAD63978DE0B9
:104CB00095E00E940B608AE00E948F30E096AFADD5
:104CC000E097AA2309F449C1BBADB7FF31C0C09238
:104CD000AB13D092AC13E092AD13F092AE132CEA6A
:104CE00035EC47E25EE32F966CAD7DAD8EAD9FADAA
:104CF0002F970E94A9DA6093A7137093A81380934B
:104D0000A9139093AA132CEA35EC47E25EE363966D
:104D10006CAD7DAD8EAD9FAD63970E9437DF609324
:104D2000A3137093A4138093A5139093A61315C196
:104D3000C092A70CD092A80CE092A90CF092AA0CF9
:104D40002CEA35EC47E25EE32F966CAD7DAD8EAD7F
:104D50009FAD2F970E94A9DA6093AF0C7093B00CAF
:104D60008093B10C9093B20C2CEA35EC47E25EE3F1
:104D700063966CAD7DAD8EAD9FAD63970E9437DFBE
:104D80006093AB0C7093AC0C8093AD0C9093AE0C15
:104D9000E4C00E949391C7CDF80181918F018823CF
:104DA00019F00E948F30F8CF8AE00E948F3081E0A6
:104DB0008093780CD2C0D8018D918D01882319F091
:104DC0000E948F30F8CF8AE00E948F301092780CCA
:104DD000C4C00E947636C1C00E940067BEC00E9457
:104DE000D265BBC080E50E94942F882331F00E94D9
:104DF000122F8093EC0511E001C010E083E50E94C2
:104E0000942F882329F00E94232F8093ED0501C061
:104E10001111D7D6E1E2F3E284918F010F5F1F4FAA
:104E2000882321F00E948F30F801F6CF8091ED05A4
:104E300081110CC00FE813E0F80181918F018823E4
:104E400011F40C94B31B0E948F30F6CF6091EC05E7
:104E500070E08EE396E00E9428608AE00E948F3026
:104E60007CC081E080932F021092660A83E50E9445
:104E7000942F882311F0E7D703C083E50E94652FA4
:104E800081116BC00E94729868C0E091ED12F091A0
:104E9000EE12FE2E2FE02E1708F1FF2783E0EE0F13
:104EA000FF1F8A95E1F7E459FA4F80819181A28131
:104EB000B3818093640590936505A0936605B093D4
:104EC000670584819581A681B78180936805909359
:104ED0006905A0936A05B0936B053FC0E1E2F3E278
:104EE00084918F010F5F1F4F882321F00E948F3024
:104EF000F801F6CF84E50E948F306F2D70E080E0DE
:104F000090E04AE00E94353380E20E948F3002E454
:104F100013E0D8018D918D01882311F40C94B31BFB
:104F20000E948F30F6CFE1E2F3E284918F010F5FB0
:104F30001F4F882321F00E948F30F801F6CF609137
:104F4000791370917A138BE496E00E94416082E2BB
:104F50000E948F308AE00E948F301092731310925B
:104F600072130E94539899C5EBD780910802882349
:104F700021F086E49AE00E9448940E948430809157
:104F80008A0C83FD52C0C090520AD090530AE09020
:104F9000540AF090550A8090620A9090630AA0909B
:104FA000640AB090650AA5019401C701B6010E9488
:104FB00044DA882309F439C0A5019401C701B60178
:104FC0000E945ADE9F772091220230912302409165
:104FD0002402509125020E94A9DA20E030E048E442
:104FE00053E40E9481E0181604F5C092620AD09240
:104FF000630AE092640AF092650AE1E2F3E28491C6
:105000008F010F5F1F4F882321F00E948F30F8011E
:10501000F6CFE9EDF1E084918F010F5F1F4F8823F8
:1050200021F00E948F30F801F6CF60910902709153
:105030000A02072E000C880B990B0E944ADA209175
:105040000B0230910C0240910D0250910E020E9411
:10505000A9DA2AE037ED43E25CE30E94A9DA69832A
:105060007A838B839C83E12C8E010F5F1F4F22E597
:105070003AE04EE45AE06AE47AE086E49AE00E947C
:10508000C0610E947A3069CFBDD6AB01BC014093AC
:10509000101550931115609312157093131582EB30
:1050A00096E10E94C63D59CF61E0802F0E9481C2E7
:1050B0006E2D802F0E943FC2F12CB701802F0E94DD
:1050C000BDC20930110509F048CFF092390AE092CB
:1050D000380A43CFC7D60E949FDF70933D0A609382
:1050E0003C0AC0D620E030E04AEA52E40E9444DAAA
:1050F000181644F00E9434C860E084E593E00E94F2
:10510000659102C00E94554560913C0A70913D0A2C
:10511000072E000C880B990B0E944ADA20910B1481
:1051200030910C1440910D1450910E140E9481E0A6
:105130001816B4F487E393E09F938F938091B31391
:1051400090E001969F938F938DE493E09F938F93CC
:105150001F920E943A450FB6F894DEBF0FBECDBF36
:105160000E941BD281E08093210223961CAE1DAECB
:105170001EAE1FAE23972B961CAE1DAE1EAE1FAEED
:105180002B971BAE2C961FAE2C979CE360969FAF7F
:105190006097ACE16496AFAF6497B6E46896BFAF32
:1051A0006897E12CF12C00E81FEB812C912C540125
:1051B00060913C0A70913D0A072E000C880B990BF8
:1051C0000E944ADA762E672E582E492E262F372F28
:1051D000482F592FB701C8010E9444DA882321F1D2
:1051E00020910B1430910C1440910D1450910E1419
:1051F000672D762D852D942D0E9444DA881F8827EF
:10520000881F8BAF2496EFAD2497EE2389F0882377
:1052100079F080912102882309F49FCE60E08BE32E
:1052200093E00E94659199CE7E2C6F2C502E412EDA
:105230000E94BCC36B017C01DC01CB012B962CAD21
:105240003DAD4EAD5FAD2B97821B930BA40BB50B01
:10525000B7FD39C0D701C60188519C4FAF4FBF4F32
:105260002B968CAF9DAFAEAFBFAF2B970E94819DA9
:10527000E9E4F3E084918F010F5F1F4F882319F059
:105280004ED7F801F7CF81149104A104B104B9F00D
:10529000D501C401805F984DAF4FBF4FBC01CD0118
:1052A0006C197D098E099F0928EE33E040E050E03B
:1052B0000E941FDECA01B9010E94D53302C08FE3EC
:1052C0002ED78AE02CD70E94EF951ED720900B1482
:1052D00030900C1400910D1410910E149101A8013E
:1052E000672D762D852D942D0E945ADE9F7781148F
:1052F0009104A104B10449F420E030E040E85FE308
:105300000E9444DA87FF0BC008C020E030E040E490
:1053100050E40E9481E0181614F4460157019BAD39
:10532000992309F443C023962CAD3DAD4EAD5FAD3E
:105330002397211531054105510541F0D701C601DB
:10534000821B930BA40BB50BB7FD30C09101A801D4
:105350002C966FAD2C9760967FAD609764968FAD5D
:10536000649768969FAD68970E945ADE20E030E00F
:1053700040EC5FE30E9444DA87FD4BCFD701C601C2
:10538000805A9541AF4FBF4F23968CAF9DAFAEAFC4
:10539000BFAF23972C962FAE2C9760963FAE6097A9
:1053A00064960FAF649768961FAF6897809121024B
:1053B000882309F42ECF81149104A104B10429F4A7
:1053C000E72CF62C052D142DF3CE90E1C91A97E2A7
:1053D000D90AE108F108C818D908EA08FB08F7FE5D
:1053E00018CFEECF3FD50E949FDF6739710514F0CB
:1053F00066E970E070933B0A60933A0A33D520E087
:1054000030E040EA50E40E9481E0181614F40E9453
:10541000554581E0809321021092B31323961CAE70
:105420001DAE1EAE1FAE23972B961CAE1DAE1EAE3C
:105430001FAE2B971BAE2C961FAE2C97ACE360963D
:10544000AFAF6097BCE16496BFAF6497E6E468963F
:10545000EFAF6897C12CD12C30E8E32E4FEBF42E40
:10546000812C912C540160913A0A70913B0A072ECD
:10547000000C880B990B0E944ADA162F072F782E02
:10548000692E262F372F482F592FB601C7010E94AA
:1054900044DA882321F120910F14309110144091A7
:1054A000111450911214612F702F872D962D0E9488
:1054B00044DA881F8827881F8BAF2496FFAD249776
:1054C000FF2389F0882379F080912102882309F451
:1054D00044CD60E080E693E00E9465913ECD1C2DB6
:1054E0000D2D7E2C6F2C0E94BCC36B017C01DC0156
:1054F000CB012B962CAD3DAD4EAD5FAD2B97821BF6
:10550000930BA40BB50BB7FD3AC0D701C601885168
:105510009C4FAF4FBF4F2B968CAF9DAFAEAFBFAF81
:105520002B970E94819DEAE6F3E084912F019FEF83
:10553000491A590A882319F0F2D5F201F6CF8114DD
:105540009104A104B104B9F0D501C401805F984D64
:10555000AF4FBF4FBC01CD016C197D098E099F096A
:1055600028EE33E040E050E00E941FDECA01B9019E
:105570000E94D53302C08FE3D2D58AE0D0D50E94F5
:10558000EF95C2D520900F14309010144090111454
:10559000509012149101A201612F702F872D962D2A
:1055A0000E945ADE9F7781149104A104B10449F44A
:1055B00020E030E040E85FE30E9444DA87FF0BC060
:1055C00008C020E030E040E450E40E9481E018167A
:1055D00014F446015701ABADAA2309F443C0239646
:1055E0002CAD3DAD4EAD5FAD239721153105410585
:1055F000510541F0D701C601821B930BA40BB50BDB
:10560000B7FD30C09101A2012C966FAD2C9760962A
:105610007FAD609764968FAD649768969FAD6897ED
:105620000E945ADE20E030E040EC5FE30E9444DA62
:1056300087FD4ACFD701C601805A9541AF4FBF4F72
:1056400023968CAF9DAFAEAFBFAF23972C962FAEF6
:105650002C9760963FAE609764964FAE64976896BD
:105660005FAE689780912102882309F42DCF8114C1
:105670009104A104B10429F4C12ED02EE72CF62CFC
:10568000F2CE90E1C91A97E2D90AE108F108C818E8
:10569000D908EA08FB08F7FE17CFEECF0E943EC9F3
:1056A00088E513D4882319F0429A1092260689E5DA
:1056B0000CD4882319F0179A109227068AE505D48E
:1056C000882319F0159A1092280685E4FED38823C2
:1056D00009F443CC0E948D9540CC29964EAD5FAD28
:1056E0002997452B09F46BC1AF964CAC5DAC6EAC01
:1056F0007FACAF97480E591E6A1E7B1EAF962CAD2D
:105700003DAD4EAD5FADAF97281B390B4A0B5B0B20
:10571000CA01B901A50194010E9410DEA301920102
:105720000E9446E127968CAC9DACAEACBFAC2797EF
:10573000820E931EA41EB51E34E183169104A104AB
:10574000B1041CF14CEE84169104A104B1043CF4A4
:1057500050E885169104A104B10434F426C05BEE30
:10576000852E912CA12CB12C27968CAE9DAEAEAE81
:10577000BFAE27978EEF90E0A0E0B0E088199909BE
:10578000AA09BB094C015D0116C024E130E040E0EC
:1057900050E027962CAF3DAF4EAF5FAF279744E167
:1057A000842E912CA12CB12C06C027968CAE9DAED8
:1057B000AEAEBFAE2797E6E3F6E084919F012F5F80
:1057C0003F4F882379F0E7962FAFE797E8963FAFF2
:1057D000E897A5D4E7962FADE797E8963FADE89711
:1057E000F901EBCF27966CAD7DAD8EAD9FAD2797C0
:1057F000DCD7E1E3F6E084919F012F5F3F4F8823E0
:1058000079F0E7962FAFE797E8963FAFE89787D410
:10581000E7962FADE797E8963FADE897F901EBCF14
:10582000C501B401C2D76B964FAD6B976C965FAD57
:105830006C976D966FAD6D976E967FAD6E978AE2A1
:1058400096E00E940B606F964FAD6F97A0965FAD8C
:10585000A097A1966FADA197A2967FADA29783E284
:1058600096E00E940B6029964EAD5FAD29974330BC
:1058700051050CF4A4C0C501B4010E944ADA20E02D
:1058800030E040E850E40E94A9DA6B017C016B969D
:105890002FAD6B976C963FAD6C976D964FAD6D9736
:1058A0006E965FAD6E976F966FAD6F97A0967FAD5A
:1058B000A097A1968FADA197A2969FADA2970E94A7
:1058C0005ADE2BED3FE049E450E40E94A9DA20E0E3
:1058D00030E040E05FE30E94A9DA9B01AC01C70120
:1058E000B6010E9437DF6B017C01C301B2010E9447
:1058F0004ADA2FE632E143E85AE30E94A9DA2B01A3
:105900003C01B701A6018DE196E00E940B60B30156
:10591000A20187E196E00E940B602AE939E949E19A
:105920005FE3C701B6010E94A9DA6B017C019B010C
:10593000AC010E945BDEA30192010E9437DF2F962B
:105940006CAF7DAF8EAF9FAF2F97A3019201C701C0
:10595000B6010E94A9DA20E030E040E05EE30E9458
:10596000A9DA63966CAF7DAF8EAF9FAF6397E7E028
:10597000F6E084913F015FEF651A750A882319F0FC
:10598000CED3F301F6CFB701A60181E096E00E94E5
:105990000B602F964CAD5DAD6EAD7FAD2F978BEF4D
:1059A00095E00E940B6063964CAD5DAD6EAD7FAD32
:1059B000639785EF95E00E940B608AE0B0D327964D
:1059C0008CAD9DADAEADBFAD2797880D991DAA1DBD
:1059D000BB1DEBADB595A79597958795E7FF03C0E0
:1059E0008093B21305C0E696EEADFFADE6978083D7
:1059F00029962EAD3FAD29972F5F3F4F29963FAF98
:105A00002EAF299764963FAD64976B963FAF6B9727
:105A100068964FAD68976C964FAF6C9769965FAD7F
:105A200069976D965FAF6D976A968FAD6A976E9620
:105A30008FAF6E9723964CAC5DAC6EAC7FAC23976A
:105A400091E0A7969FAFA7976BC80E943EC9BC2C58
:105A500060E08C2D0E9481C20F3FBFEF1B0759F4FD
:105A60008C2D0E9417C231E020E0892B09F030E034
:105A7000032F122F05C00130110561F000E010E086
:105A80008B2D0E9417C28017910709F466CA0E94E5
:105A9000EF95F6CF01E010E0F3CFC958DF4F0FB616
:105AA000F894DEBF0FBECDBFDF91CF911F910F9154
:105AB000FF90EF90DF90CF90BF90AF909F908F902E
:105AC0007F906F905F904F903F902F9008959091AE
:105AD000A112E92FF0E0E251FA4F80839F5F9A30E4
