:100000000C94D8100C9405110C9405110C94051146
:100010000C9405110C9405110C9405110C94051108
:100020000C9405110C9405110C9405110C940511F8
:100030000C9405110C94DEE10C9405110C9405113F
:100040000C9405110C94408E0C9405110C94051120
:100050000C9405110C9405110C94CD980C942BDE86
:100060000C9405110C9424310C9405110C94051179
:100070000C9405110C9405110C9405110C940511A8
:100080000C9405110C9405110C9405110C94051198
:100090000C9405110C9405110C9405110C94B2DA12
:1000A0000C9405110C9405110C9405110C94051178
:1000B0000C9405110C9405110C9405110C94051168
:1000C0000C9405110C9405110C9405110C94051158
:1000D0000C9405110C9405110C9405110C94051148
:1000E0000C940511084AD73B3BCE016E84BCBFFD82
:1000F000C12F3D6C74319ABD56833DDA3D00C77FF8
:1001000011BED9E4BB4C3E916BAAAABE0000008090
:100110003F05A84CCDB2D44EB93836A9020C50B91F
:10012000918688083CA6AAAA2ABE000000803F4DFE
:10013000383420582059205A20450043616E6E6F94
:100140007420656E746572207375626469723A20FA
:10015000004D3234004D3233202573006175746FC9
:1001600025692E67006572726F72207772697469F3
:100170006E6720746F2066696C65004E6F74205343
:1001800044207072696E74696E6700534420707207
:10019000696E74696E672062797465200044656CCD
:1001A0006574696F6E206661696C65642C204669B0
:1001B0006C653A200046696C652064656C65746501
:1001C000643A006F70656E206661696C65642C200E
:1001D00046696C653A200057726974696E672074CD
:1001E0006F2066696C653A20002E0A006F70656E9C
:1001F000206661696C65642C2046696C653A200054
:100200002E0A006F70656E206661696C65642C2033
:1002100046696C653A200046696C652073656C65BB
:1002200063746564002053697A653A200046696CFE
:1002300065206F70656E65643A20006F70656E2092
:100240006661696C65642C2046696C653A20004ED5
:100250006F772066726573682066696C653A200066
:100260004E6F7720646F696E672066696C653A200F
:10027000002220706F73002220706172656E743AE4
:100280002200535542524F5554494E452043414C4C
:100290004C207461726765743A22004B494C4C459E
:1002A000442E2000747279696E6720746F20636138
:1002B0006C6C207375622D67636F64652066696C72
:1002C0006573207769746820746F6F206D616E7933
:1002D000206C6576656C732E204D4158206C6576D8
:1002E000656C2069733A0053442063617264206F27
:1002F0006B006F70656E526F6F74206661696C651C
:100300006400766F6C756D652E696E697420666128
:10031000696C656400534420696E69742066616984
:100320006C00205A0020204D005A2D50726F6265DB
:10033000204F666673657420286D6D293A00466902
:100340006C616D656E742073657474696E67733A61
:100350002044697361626C65640020204D32303046
:1003600020440046696C616D656E74207365747419
:10037000696E67733A002043002044002049002042
:10038000204D33303120500050494420736574743F
:10039000696E67733A0020460020420020204D31EC
:1003A0003435204D312048002046002042002020D6
:1003B0004D313435204D302048004D6174657269EF
:1003C000616C2068656174757020706172616D6523
:1003D000746572733A0020530020520020204D367D
:1003E0003635204C0044656C746120736574746903
:1003F0006E67733A204C3D64656C74615F6469613B
:10040000676F6E616C5F726F642C20523D64656C27
:1004100074615F7261646975732C20533D64656C0F
:1004200074615F7365676D656E74735F7065725F2D
:100430007365636F6E6400205A0020590020204DC0
:10044000363636205800456E6473746F70206164D0
:100450006A7573746D656E7420286D6D293A00207D
:100460005A0020590020204D323036205800486F65
:100470006D65206F666673657420286D6D293A007E
:10048000204500205A00205800204200205400201F
:10049000204D323035205300416476616E636564CF
:1004A000207661726961626C65733A20533D4D69D3
:1004B0006E20666565647261746520286D6D2F73AA
:1004C000292C20543D4D696E2074726176656C2034
:1004D000666565647261746520286D6D2F73292CC3
:1004E00020423D6D696E696D756D207365676D6540
:1004F0006E742074696D6520286D73292C20583D19
:100500006D6178696D756D205859206A65726B2030
:10051000286D6D2F73292C20205A3D6D6178696DEF
:10052000756D205A206A65726B20286D6D2F7329B6
:100530002C2020453D6D6178696D756D2045206AE0
:1005400065726B20286D6D2F732900205400205296
:100550000020204D323034205000416363656C65CB
:10056000726174696F6E733A20503D7072696E7477
:10057000696E672C20523D726574726163742061EC
:100580006E6420543D74726176656C0020450020D5
:100590005A0020590020204D3230312058004D6142
:1005A00078696D756D20416363656C65726174690E
:1005B0006F6E20286D6D2F7332293A002045002080
:1005C0005A0020590020204D3230332058004D6110
:1005D00078696D756D2066656564726174657320F8
:1005E000286D6D2F73293A00204500205A002059AC
:1005F0000020204D393220580053746570732070EC
:10060000657220756E69743A0048617264636F6444
:1006100065642044656661756C7420536574746903
:100620006E6773204C6F6164656400206279746545
:100630007329002073746F72656420736574746924
:100640006E67732072657472696576656420280030
:10065000206279746573290053657474696E6773D9
:100660002053746F7265642028004572726F722087
:1006700077726974696E6720746F20454550524FD8
:100680004D21004572726F723A006563686F3A00DF
:1006900020496E76616C6964206578747275646552
:1006A00072200053544F505045442E200050726920
:1006B0006E7465722073746F707065642064756504
:1006C00020746F206572726F72732E2046697820D5
:1006D000746865206572726F7220616E6420757334
:1006E00065204D39393920746F20726573746172D9
:1006F000742E202854656D70657261747572652062
:1007000069732072657365742E2053657420697453
:100710002061667465722072657374617274696EAB
:100720006729005072696E7465722068616C746527
:10073000642E206B696C6C28292063616C6C656485
:1007400021004B494C4C45442E200020746F6F20F3
:100750006C6F6E6720657874727573696F6E207048
:10076000726576656E7465640020636F6C642065E5
:100770007874727573696F6E2070726576656E74C9
:100780006564006F6B00526573656E643A200053B8
:100790006C6565702E2E2E000101010000344300AF
:1007A000003443000048430000A0400000A0400087
:1007B00000A04000000000000000000000484300CE
:1007C00000B4C20000B4C2000000000000B4420047
:1007D00000B4420000484328422961636B00284668
:1007E00029726F6E74002852296967687400284C5A
:1007F000296566740052756E6E696E6720696E2099
:100800004452592D52554E206D6F64650047323960
:10081000204175746F20426564204C6576656C6973
:100820006E670A003F2856296572626F7365204C17
:100830006576656C20697320696D706C617573698C
:10084000626C652028302D34292E00486F6D65209C
:10085000582F59206265666F7265205A00486F6D87
:100860006520582F59206265666F7265205A0020F6
:100870005A3A200020593A200042656420583A2014
:1008800000205A3A200020593A200042656420583E
:100890003A200044656C74612047322072656164BF
:1008A000792E00526573756D696E67207072696E7E
:1008B00074005761697420666F7220757365722EBB
:1008C0002E2E004E6F206D6F76652E00456E6420D3
:1008D00066696C65206C69737400426567696E2097
:1008E00066696C65206C697374002569206D696E9A
:1008F0002C20256920736563004B494C4C45442EE0
:1009000020002042403A0020403A00202F0020548E
:1009100000202F0020423A00202F0020543A006F80
:100920006B0048656174696E6720646F6E652E00A8
:100930003F0020573A0020453A00543A004865618C
:1009400074696E672E2E2E0042656420646F6E659A
:100950002E0020423A0020453A00543A0042656495
:100960002048656174696E672E0044656C7461206F
:1009700047322072656164792E0044656C74612091
:100980004732204F66662E004649524D5741524528
:100990005F4E414D453A56312E302E303420464977
:1009A000524D574152455F55524C3A687474703AF3
:1009B0002F2F6669726D776172652E756C74696D23
:1009C000616B65722E636F6D2050524F544F434FD1
:1009D0004C5F56455253494F4E3A312E30204D41CF
:1009E0004348494E455F545950453A473270726FFB
:1009F0002045585452554445525F434F554E543A42
:100A00003120555549443A30303030303030302D77
:100A1000303030302D303030302D303030302D30DF
:100A200030303030303030303030300A00205A3AF8
:100A30000020593A0020436F756E7420583A200008
:100A400020453A00205A3A0020593A00583A007A94
:100A50005F6D61783A20007A5F6D696E3A200079A7
:100A60005F6D61783A2000785F6D61783A20004DC3
:100A700031343520533C696E6465783E206F75745F
:100A8000206F662072616E67652028302D31290045
:100A900053657474696E672054726176656C204189
:100AA0006363656C65726174696F6E3A20005365AB
:100AB0007474696E67205265747261637420416357
:100AC00063656C65726174696F6E3A20005365747A
:100AD00074696E67205072696E7420416363656C3F
:100AE00065726174696F6E3A200053657474696E43
:100AF00067205072696E7420616E64205472617652
:100B0000656C20416363656C65726174696F6E3AF0
:100B100020004D33303020533635392050323030BC
:100B20000A4D3330302053363938205032303000BF
:100B30004F6666736574206170706C6965642E0021
:100B40004D33303020533430205032303000457235
:100B5000723A20546F6F206661722100546F6F20CB
:100B60006661722066726F6D207265666572656E71
:100B7000636520706F696E74005A204F66667365F6
:100B800074203A20007A5F6D61783A20007A5F6DB8
:100B9000696E3A20005A204F6666736574005A20C9
:100BA0004F6666736574206F6B003F50726F6265AD
:100BB00020257320706F736974696F6E206F757470
:100BC000206F662072616E67652E0A00220A00554A
:100BD0006E6B6E6F776E20636F6D6D616E643A2021
:100BE0002200256920686F757273202569206D6960
:100BF0006E7574657300446F6E65207072696E74F3
:100C0000696E672066696C65004B494C4C45442E03
:100C1000200053544F505045442E20005072696EAE
:100C20007465722073746F707065642064756520DC
:100C3000746F206572726F72732E2046697820740B
:100C40006865206572726F7220616E6420757365CD
:100C5000204D39393920746F207265737461727454
:100C60002E202854656D70657261747572652069F7
:100C7000732072657365742E205365742069742027
:100C800061667465722072657374617274696E67EF
:100C900029004E6F204C696E65204E756D6265723D
:100CA000207769746820636865636B73756D2C20A9
:100CB0004C617374204C696E653A20004E6F20437E
:100CC0006865636B73756D2077697468206C696EF5
:100CD00065206E756D6265722C204C617374204CBA
:100CE000696E653A2000636865636B73756D206D8E
:100CF00069736D617463682C204C617374204C6956
:100D00006E653A20004C696E65204E756D626572A5
:100D1000206973206E6F74204C617374204C696E6F
:100D200065204E756D6265722B312C204C61737499
:100D3000204C696E653A20004D313130006F6B00F8
:100D4000446F6E6520736176696E672066696C65B5
:100D50002E004D3239002020506C616E6E6572425B
:100D6000756666657242797465733A200020467232
:100D70006565204D656D6F72793A20004649524D88
:100D8000574152455F4E414D453A56312E302E3037
:100D900034204649524D574152455F55524C3A68AE
:100DA0007474703A2F2F6669726D776172652E7553
:100DB0006C74696D616B65722E636F6D2050524F5C
:100DC000544F434F4C5F56455253494F4E3A312E84
:100DD00030204D414348494E455F545950453A47AC
:100DE0003270726F2045585452554445525F434FFC
:100DF000554E543A3120555549443A303030303010
:100E00003030302D303030302D303030302D3030EB
:100E100030302D3030303030303030303030300AFB
:100E2000004E6F76203131203230313600436F6D05
:100E300070696C65643A200028486F67616E2C20E9
:100E400044656C74612900207C20417574686F7260
:100E50003A20004E6F762031312032303136203149
:100E6000323A30313A313200204C6173742055707F
:100E700064617465643A20002056312E302E30347F
:100E8000004D61726C696E0020536F6674776172F9
:100E90006520526573657400205761746368646FE0
:100EA00067205265736574002042726F776E206F01
:100EB0007574205265736574002045787465726E90
:100EC000616C20526573657400506F776572557060
:100ED000007374617274002200656E7175657565CA
:100EE000696E6720220020746F6F206C6F6E672020
:100EF000657874727573696F6E2070726576656E51
:100F00007465640020636F6C642065787472757317
:100F1000696F6E2070726576656E746564007C3CE6
:100F20003E5E2B3D3F2F5B5D3B2C2A225C00453013
:100F30003A20005A3A2000593A2000583A20004DF1
:100F400053312C4D53322050696E730A004D3834A2
:100F500020582059205A20450024F404D9201BC4CD
:100F60000C5C0E9804C4095F0265077101F405F971
:100F700000FB04B30048048700C10369005803550F
:100F80000003034500BE023A008402310053022AE6
:100F9000002902250004022000E4011C00C80119F8
:100FA00000AF0117009801140084011300710110B3
:100FB000006101100051010E0043010D0036010BCC
:100FC000002B010B0020010B00150109000C010989
:100FD0000003010800FB000800F3000800EB000715
:100FE00000E4000600DE000600D8000600D200067D
:100FF00000CC000500C7000500C2000500BD0004CC
:1010000000B9000400B5000400B1000400AD000404
:1010100000A9000400A5000300A20003009F000433
:10102000009B00030098000300950002009300035A
:1010300000900003008D0002008B00030088000276
:10104000008600020084000300810002007F00028D
:10105000007D0002007B00020079000200770001A1
:1010600000760002007400020072000100710002AC
:10107000006F0002006D0001006C0002006A0001B8
:1010800000690002006700010066000100650001C0
:1010900000640002006200010061000100600001C4
:1010A000005F0002005D0001005C0001005B0001C8
:1010B000005A0001005900010058000100570001CA
:1010C00000560001005500010054000100530000CB
:1010D00000530001005200010051000100500001C6
:1010E000004F0001004E0000004E0001004D0001C5
:1010F000004C0001004B0000004B0001004A0001C1
:1011000000490001004800000048000100470001BC
:1011100000460000004600010045000000450001B7
:1011200000440001004300000043000100420000B1
:1011300000420001004100000041000100400001A8
:10114000003F0000003F0001003E0000003E0001A3
:10115000003D0000003D0001003C0000003C00009C
:10116000003C0001003B0000003B0001003A000091
:10117000003A000100390000003900010038000089
:10118000003800000038000100370000003700017F
:101190000036000000360000003600010035000077
:1011A000003500000035000100340000003400006C
:1011B0000034000100330000003300000033000160
:1011C0000032000000320000003200010031000057
:1011D000003100000031000100300000003000004C
:1011E00000300001002F0000002F0000002F000041
:1011F000002F0001002E0000002E0000002E000134
:10120000002D0000002D0000002D0000002D000129
:10121000002C0000002C0000002C0000002C00011D
:10122000002B0000002B0000002B0000002B000111
:10123000002A0000002A0000002A0000002A000105
:1012400000290000002900000029000000290000FA
:1012500000290001002800000028000000280000EC
:1012600000280000002800010027000000270000DF
:1012700000270000002700000027000100260000D2
:1012800000260000002600000026000000260001C5
:1012900000250000002500000025000000250000BA
:1012A00000250000002500010024000000240000AB
:1012B000002400000024000000240001002300009E
:1012C0000023000000230000002300000023000092
:1012D0000023000000230001002200000022000083
:1012E0000022000000220000002200000022000175
:1012F000002100000021000000210000002100006A
:101300000021000000210000002100010020000059
:10131000002000000020000000200000002000004D
:10132000002000000020000000200001001F00003D
:10133000001F0000001F0000001F0000001F000031
:10134000001F0000001F0001001E0000001E000022
:10135000001E0000001E00000024F4D43050C38E94
:1013600020C2A24017828B7011127A910D816CD924
:101370000AA861E108C7586607615143061E4B5D24
:1013800005C145A7041A411104093D98037139317B
:10139000034036DB0265339102D4305402802E1DA7
:1013A00002632CEE01752AC501B028A00110278127
:1013B000018F2564012B244B01E0223401AC211F55
:1013C000018D200D01801FFC00841EED00971DDFA4
:1013D00000B81CD200E61BC600201BBC00641AB279
:1013E00000B219A8000A19A0006A189900D1179133
:1013F0000040178B00B516840031167E00B31579B6
:10140000003A157300C7146F0058146A00EE136693
:10141000008813630025135E00C7125B006C12572F
:101420000015125400C111510070114F0021114BD1
:1014300000D61049008D10470046104400021042AB
:1014400000C00F4000800F3E00420F3C00060F3BE3
:1014500000CB0E3800930E37005C0E3500270E349B
:1014600000F30D3200C10D3100900D3000600D2EE3
:1014700000320D2D00050D2C00D90C2B00AE0C29CF
:1014800000850C29005C0C2700350C27000E0C266B
:1014900000E80B2400C40B2400A00B23007D0B23C9
:1014A000005A0B2100390B2100180B2000F80A1FED
:1014B00000D90A1E00BB0A1E009D0A1D00800A1DDD
:1014C00000630A1C00470A1B002C0A1B00110A1AA1
:1014D00000F7091A00DD091900C4091900AB091940
:1014E00000920917007B091800630917004C0916C0
:1014F0000036091600200916000A091500F508151E
:1015000000E0081400CC081400B8081400A4081463
:1015100000900813007D0812006B08130058081291
:1015200000460812003408110023081100120811A7
:101530000001081100F0071000E0071000D00710AC
:1015400000C0071000B0070F00A107100091070EA0
:101550000083070F0074070F0065070E0057070E82
:101560000049070E003B070D002E070E0020070D57
:101570000013070D0006070D00F9060C00ED060D1F
:1015800000E0060C00D4060C00C8060C00BC060CDB
:1015900000B0060C00A4060B0099060C008D060B8B
:1015A0000082060B0077060B006C060B0061060A32
:1015B0000057060B004C060A0042060A0038060ACD
:1015C000002E060A0024060A001A060A0010060960
:1015D0000007060A00FD050900F4050900EB0509EE
:1015E00000E2050900D9050900D0050900C7050971
:1015F00000BE050900B5050800AD050800A50509F0
:10160000009C050800940508008C05080084050866
:10161000007C050800740508006C050700650508D6
:10162000005D050700560508004E05070047050741
:10163000004005080038050700310507002A0507A6
:1016400000230507001C050600160507000F050707
:10165000000805060002050700FB040600F5040764
:1016600000EE040600E8040600E2040700DB0406BE
:1016700000D5040600CF040600C9040600C3040612
:1016800000BD040600B7040600B1040500AC040662
:1016900000A6040600A00405009B040600950405AE
:1016A00000900406008A04050085040500800406F5
:1016B000007A04050075040500700405006B04053C
:1016C0000066040500610405005C0405005704057C
:1016D00000520405004D04050048040500430405BC
:1016E000003E0404003A04050035040500300404FB
:1016F000002C04050027040400230405001E040434
:10170000001A04040016040500110404000D04046A
:1017100000090405000404040000040400FC0304A0
:1017200000F8030400F4030400F0030400EC0304D5
:1017300000E8030400E4030400E0030400DC030405
:1017400000D8030400D4030400D0030400CC030435
:1017500000C8030300C5030300656E6473746F70F3
:1017600073206869743A205A00205A3A00656E6402
:1017700073746F7073206869743A20590020593A65
:1017800000656E6473746F7073206869743A2058D2
:101790000020583A00656E6473746F707320686936
:1017A000743A20004572723A204D494E54454D50CE
:1017B00020424544004D494E54454D5020747269B5
:1017C000676765726564004572723A204D415854EE
:1017D000454D5020424544004D415854454D502000
:1017E00074726967676572656400626564002C20C5
:1017F00073797374656D2073746F707065642120E4
:101800004865617465725F49443A20004B494C4C0D
:1018100045442E2000202D20496E76616C6964209D
:101820006578747275646572206E756D626572207C
:10183000210070012C0190012701B0012201C0019B
:101840001D01F00118011002130130020E016002A7
:10185000090190020401C002FF000003FA004003E6
:10186000F5008003F000D003EB002004E6007004D4
:10187000E100E004DC004005D700C005D2004006CE
:10188000CD00D006C8008007C3003008BE00F008B5
:10189000B900C009B400B00AAF00B00BAA00D00C68
:1018A000A500000EA000500F9B00C0109600501223
:1018B000910000148C00C0158700B0178200B01989
:1018C0007D00D01B7800001E730040206E00902227
:1018D0006900F024640040275F0090295A00E02B43
:1018E0005500102E500020304B0010324600E033DF
:1018F000410090353C001037370070383200A03975
:101900002D00B03A2800A03B2300603C1E00103D93
:101910001900903D1400103E0F00703E0A00C03EBA
:101920000500003F00004572723A204D494E544573
:101930004D50004D494E54454D50207472696767B3
:1019400065726564004572723A204D415854454DA8
:1019500050004D415854454D502074726967676579
:10196000726564004B64200023646566696E6520BF
:101970002044454641554C545F004B692000236488
:101980006566696E65202044454641554C545F00AC
:101990004B70200023646566696E652020444546CF
:1019A00041554C545F00504944204175746F747523
:1019B0006E652066696E6973686564212050757470
:1019C00020746865206C617374204B702C204B6907
:1019D00020616E64204B6420636F6E7374616E745B
:1019E000732066726F6D2062656C6F7720696E740C
:1019F0006F20436F6E66696775726174696F6E2ED2
:101A00006800504944204175746F74756E65206696
:101A100061696C6564212074696D656F757400205F
:101A2000403A006F6B20543A006F6B20423A0050EE
:101A30004944204175746F74756E65206661696CE8
:101A40006564212054656D706572617475726520DE
:101A5000746F6F206869676800204B643A2000202B
:101A60004B693A2000204B703A200020436C617390
:101A70007369632050494420002054753A200020A7
:101A80004B753A2000206D61783A2000206D696E18
:101A90003A200020643A200020626961733A2000F5
:101AA0002D2D3A2D2D002D2D2D005344002D2D2DA3
:101AB0002E2D2D002D2D2D00202059002D2D2D00F7
:101AC0000120000120004E6F2053442063617264A6
:101AD000005072696E742066726F6D20534400531B
:101AE000746F70207072696E7400526573756D65E5
:101AF000207072696E740050617573652070726930
:101B00006E7400436F6E74726F6C0050726570611A
:101B100072650054756E6500496E666F207363725E
:101B200065656E005072696E742066726F6D205329
:101B300044005072696E742066726F6D20534400C9
:101B4000052E2E004D61696E004D3234004D32334A
:101B500020257300526573746F7265206661696C2D
:101B600073616665004C6F6164206D656D6F72799D
:101B70000053746F7265206D656D6F7279004669F0
:101B80006C616D656E74004D6F74696F6E005465A5
:101B90006D7065726174757265004D61696E0046A5
:101BA000696C2E204469612E20310046696C2E201C
:101BB0004469612E2031004F6666004F6E2000455B
:101BC00020696E206D6D3300436F6E74726F6C0010
:101BD0004573746570732F6D6D0045737465707314
:101BE0002F6D6D005A73746570732F6D6D005A738D
:101BF000746570732F6D6D005973746570732F6DFC
:101C00006D005973746570732F6D6D005873746532
:101C100070732F6D6D005873746570732F6D6D0048
:101C2000412D74726176656C00412D747261766528
:101C30006C00412D7265747261637400412D726590
:101C4000747261637400416D6178206500416D615B
:101C500078206500416D6178207A00416D617820BF
:101C60007A00416D6178207900416D6178207900BA
:101C7000416D6178207800416D617820780056547C
:101C8000726176206D696E005654726176206D69BE
:101C90006E00566D696E00566D696E00566D617806
:101CA000206500566D6178206500566D6178207A58
:101CB00000566D6178207A00566D61782079005663
:101CC0006D6178207900566D6178207800566D61DD
:101CD0007820780056652D6A65726B0056652D6A0E
:101CE00065726B00567A2D6A65726B00567A2D6AA2
:101CF00065726B005678792D6A65726B005678793B
:101D00002D6A65726B00416363656C0041636365B6
:101D10006C005A204F6666736574005A204F6666E1
:101D200073657400436F6E74726F6C0050726568F7
:101D30006561742041425320636F6E660050726586
:101D40006865617420504C4120636F6E6600504995
:101D5000442D43005049442D43005049442D440034
:101D60005049442D44005049442D49005049442DC8
:101D700049005049442D50005049442D5000200244
:101D800020466163740020022046616374002002D3
:101D9000204D6178002002204D6178002002204D06
:101DA000696E002002204D696E004F6666004F6E1E
:101DB00020004175746F74656D700046616E20730C
:101DC000706565640046616E2073706565640042ED
:101DD000656400426564004E6F7A7A6C65004E6FF0
:101DE0007A7A6C6500436F6E74726F6C0053746F17
:101DF0007265206D656D6F727900426564004265A1
:101E000064004E6F7A7A6C65004E6F7A7A6C65006A
:101E100046616E2073706565640046616E20737064
:101E20006565640054656D706572617475726500F6
:101E300053746F7265206D656D6F727900426564D1
:101E400000426564004E6F7A7A6C65004E6F7A7A54
:101E50006C650046616E2073706565640046616E56
:101E60002073706565640054656D7065726174758A
:101E70007265004D38300053776974636820706F65
:101E8000776572206F6E004D383100537769746347
:101E90006820706F776572206F666600436F6F6CA5
:101EA000646F776E005072656865617420414253BB
:101EB000005072656865617420504C41004D3834A3
:101EC0000044697361626C6520737465707065723B
:101ED00073004D6F76652061786973004732390071
:101EE0004C6576656C206265640053657420686F8C
:101EF0006D65206F66667365747300473238004104
:101F000075746F20686F6D65004D61696E00507269
:101F100065686561742041425320426564005072D7
:101F200065686561742041425320416C6C005072B9
:101F300065686561742041425320310050726570BC
:101F4000617265005072656865617420504C412073
:101F5000426564005072656865617420504C412090
:101F6000416C6C005072656865617420504C412072
:101F7000310050726570617265004D6F766520307A
:101F80002E316D6D004D6F766520316D6D004D6F9A
:101F900076652031306D6D0050726570617265003C
:101FA0004578747275646572004D6F7665205A00CD
:101FB0004D6F76652059004D6F76652058004D6F46
:101FC000766520617869730045787472756465720E
:101FD000005A0059005800466C6F77203000466C5C
:101FE0006F77203000466C6F7700466C6F77004645
:101FF000616E2073706565640046616E2073706564
:1020000065640042656400426564004E6F7A7A6CD4
:1020100065004E6F7A7A6C65005370656564005395
:1020200070656564004D61696E0043617264207281
:10203000656D6F766564004361726420696E7365D7
:1020400072746564004D34323800000021002400B1
:1020500027002A002D003000330001010000040198
:1020600007010A0100002200250028002B002E0095
:102070003100340002010000050108010B010000DD
:1020800020002300260029002C002F003200000130
:1020900000000301060109010505050507050808FB
:1020A0000808020202020A0A0808040404040101E2
:1020B00001010101010103030303030303030407F7
:1020C00007070C0C0C0C0C0C0C0C0202020206068E
:1020D0000606060606060B0B0B0B0B0B0B0B010281
:1020E000102020080810204010204080020102012A
:1020F00008040201010204081020408080402010E2
:10210000080402018004020180402010080402013A
:1021100008040201010204081020408001020408A2
:10212000102040800000090A02080B0C0D0706036E
:10213000040100000000000000000000000000009A
:10214000000000000000000000000000000000008F
:1021500011100F000000000000000000000000004F
:102160000000000000000000000002494E46494EF9
:102170004954594E414ECDCCCC3D0AD7233C17B7DC
:10218000D13877CC2B329595E6241FB14F0A000049
:1021900020410000C84200401C4620BCBE4CCA1B67
:1021A0000E5AAEC59D74B831E73835A921DAE23848
:1021B00011241FBECFEFD1E2DEBFCDBF00E00CBFC8
:1021C00014E0A0E0B2E0ECE2F5ED01E00BBF02C0EC
:1021D00007900D92A23FB107D9F71BBE14E1A2EF01
:1021E000B4E001C01D92A234B107E1F711E2CEEADA
:1021F000D1E204C02297FE010E943CEAC63AD10710
:10220000C9F70E9438E10C948AEA0C940000A0E01F
:10221000B0E0EDE0F1E10C9459EAEC015B016115ED
:10222000710519F0FB0191838083F9908F2D90E067
:102230000E9440EA892BC9F7FDE2FF1621F4F990CC
:10224000EE24E39405C02BE2F21609F4F990EE2493
:102250008E0101501040C8016BE671E243E050E08E
:1022600062D2892BF9F48E010E5F1F4FC8016EE612
:1022700071E245E050E057D2892B19F48E01095FD5
:102280001F4FA114B10419F0F50111830083E0FC84
:1022900004C070E090E080E813C070E090E080E857
:1022A0006FEF07C1C80163E771E243E050E03BD242
:1022B000892B69F4A114B10429F470E090E080EC5A
:1022C0006FE7F7C02296F501D183C083F6CF88244B
:1022D000992440E050E060E070E0EF2DE053EA30F8
:1022E000A0F5F2E0EF2A8E2D90E09C01287030706E
:1022F000E2FE06C0232B79F50894811C911C2BC0AB
:10230000232B19F0089481089108DB01CA0112E01F
:10231000880F991FAA1FBB1F1A95D1F7480F591F85
:102320006A1F7B1F440F551F661F771F4E0F511DDD
:10233000611D711D483929E9520729E9620729E120
:10234000720748F084E0E82A06C0EE3F31F4E3FC6F
:1023500039C098E0E92AF990C0CFE53311F0E531B2
:1023600089F529912D3219F4E0E1EE2A05C02B32CE
:1023700019F081E090E003C0299182E090E0E22F23
:10238000E053EA3018F0C81BD90B1CC020E030E045
:10239000FCE020383F075CF4C901880F991F880FC3
:1023A000991F280F391F220F331F2E0F311DE9915E
:1023B000E053EA3068F3E4FE03C0309521953F4FC7
:1023C000820E931ECE2CDD24E1FE07C0A114B104C1
:1023D00021F02197F501D183C083CB01BA010E947E
:1023E000A5E67B018C01F3E0CF22DD2423E0C216B9
:1023F000D10421F417FB109517F9109557016801C6
:10240000C801B70120E030E040E050E00E9405E65E
:10241000882309F44AC097FE0DC02AE8E22E21E283
:10242000F22E9094819491089394C0E2D0E000E061
:1024300010E012C092EAE92E91E2F92EF6CFF701F0
:102440002591359145915491C601B5010E94E5E869
:102450005B016C018C1A9D0A8C169D0684F7D5953C
:10246000C7950F5F1F4F0630110529F08CEF9FEFC6
:10247000E80EF91EF1CFC501D6017C018D018C2D2E
:10248000880F8D2D881F8F3F51F0C601B50120E0C8
:1024900030E040E050E00E9405E6882331F482E21B
:1024A00090E090934114809340147E2D9F2D802FB7
:1024B000612F272F392F482F562FB901CA01CDB7C9
:1024C000DEB7ECE00C9475EA2F923F925F926F9228
:1024D0007F928F929F92AF92BF92CF92DF92EF92B4
:1024E000FF920F931F93CF93DF938C011B01EA019F
:1024F0006115710519F0FB0191838083209749F0E4
:10250000CE010297839728F020E030E040E050E0D1
:10251000F6C0F801A1908F018A2D90E00E9440EA58
:10252000892BB9F7FDE2AF1631F4F801A1908F01C4
:102530005524539407C0FBE2AF1619F4F801A1909B
:102540008F015524209719F0C031D105C1F4F0E373
:10255000AF1679F4F8018081883711F0883549F495
:10256000F801A1800E5F1F4FF2E05F2AC0E1D0E0CA
:1025700006C0209721F480E3A816E9F427C0C830EC
:10258000D10531F1C930D10524F4C230D10531F57E
:102590000CC0CA30D10589F0C031D105F9F4C12C85
:1025A000D12CE12CB8E0FB2E28C0C12CD12CE12C81
:1025B000A0E4FA2E22C0CAE0D0E0FCECCF2EFCEC66
:1025C000DF2EFCECEF2EFCE0FF2E17C0C8E0D0E0C1
:1025D000C12CD12CE12CE0E1FE2E0FC09E0144273E
:1025E00037FD4095542F60E070E080E090E80E9455
:1025F000FDE9C901DA016C017D0120E030E040E035
:1026000050E060E03E01882477FC8094982C70EDC7
:10261000B72EBA0CE9E0EB1570F48A2D81548A319B
:1026200018F499ECB92E06C08A2D81568A3150F5DE
:1026300089EAB82EBA0C8B2D90E08C179D0714F503
:102640006F3FE1F0C216D306E406F506B0F0CA010A
:10265000B901A40193010E94B7E99B01AC012B0DC4
:10266000311D411D511D2130F0E03F07F0E04F07C3
:10267000F0E85F0710F461E001C06FEFF801A1908E
:102680008F01C5CF2114310481F0662331F0015050
:102690001040F1011183008308C051FE1AC002509E
:1026A0001040F1011183008314C067FF12C050FC79
:1026B00005C02FEF3FEF4FEF5FE704C020E030E0B1
:1026C00040E050E882E290E09093411480934014FF
:1026D00016C050FE08C050954095309521953F4F4B
:1026E0004F4F5F4F0CC057FF0AC082E290E09093BB
:1026F0004114809340142FEF3FEF4FEF5FE7B90194
:10270000CA01DF91CF911F910F91FF90EF90DF9061
:10271000CF90BF90AF909F908F907F906F905F9081
:102720003F902F900895FB01DC014150504088F00C
:102730008D9181341CF08B350CF4805E6591613491
:102740001CF06B350CF4605E861B611171F3990B04
:102750000895881BFCCFFB01DC014150504048F03C
:1027600005900D920020C9F701C01D9241505040C4
:10277000E0F70895FB0155915523A9F0BF01DC0155
:102780004D9145174111E1F759F4CD010590002015
:1027900049F04D9140154111C9F3FB014111EFCFB3
:1027A00081E090E001970895FB01DC0104C08D9168
:1027B0000190801921F441505040C8F7881B990BB3
:1027C0000895FB01DC0102C001900D924150504080
:1027D000D8F70895FB01DC018D9181341CF08B3515
:1027E0000CF4805E619161341CF06B350CF4605E1A
:1027F000861B611189F3990B0895FB01DC010D9093
:102800000020E9F7119701900D920020E1F708955B
:10281000FC018191861721F08823D9F79927089523
:102820003197CF010895FB01DC018D910190801952
:102830000110D9F3990B0895FB01DC0101900D9271
:102840000020E1F70895FB01DC014150504030F0D9
:102850008D910190801919F40020B9F7881B990B0C
:102860000895FB01DC014150504048F001900D9269
:102870000020C9F701C01D9241505040E0F7089573
:10288000AEE0B0E0E6E4F4E10C9461EA0E891F8961
:102890008EE08C831A8309838FEF9FE79E838D835D
:1028A0009E01265E3F4FCE010196688D798DA9016C
:1028B0000AD02F813885020F131FF80110822E963F
:1028C000E4E00C947DEAABE0B0E0E9E6F4E10C94DE
:1028D00053EA3C012B015A01FC01178216828381C5
:1028E00081FD03C06FEF7FEFB9C19AE0892E1E0111
:1028F0000894211C311CF3012381F20123FD8591F1
:1029000023FF81912F01882309F4A5C1853239F471
:1029100023FD859123FF81912F01853221F490E0E1
:10292000B301B7D1E8CF982FFF24EE249924FFE11B
:10293000FF15D0F09B3269F09C3228F4903259F0A8
:10294000933291F40EC09D3249F0903369F441E026
:1029500024C052E0F52A84E0F82A28C098E0F92A39
:1029600025C0E0E1FE2A22C0F7FC29C0892F805350
:102970008A3070F4F6FE05C0989C902C1124980EB5
:1029800015C0E89CE02C1124E80EF0E2FF2A0EC0EE
:102990009E3229F4F6FC5FC140E4F42A07C09C365D
:1029A00019F450E8F52A02C0983649F4F20123FDE3
:1029B000959123FF91912F01992309F0B8CF892F89
:1029C0008554833018F08052833038F444E050E06E
:1029D000A40EB51E5FE359830FC0933631F09337D1
:1029E00079F0933509F052C01FC0F50180818983C9
:1029F00042E050E0A40EB51E610101E010E011C0FC
:102A0000F501C080D180F6FC03C06FEF7FEF02C0FC
:102A1000692D70E042E050E0A40EB51EC6012ED133
:102A20008C015FE7F52213C0F501C080D180F6FC70
:102A300003C06FEF7FEF02C0692D70E042E050E00D
:102A4000A40EB51EC6010FD18C0150E8F52AF3FE85
:102A500006C018C080E290E0B3011BD1EA948E2D2D
:102A600090E008171907B0F30DC0F601F7FC859147
:102A7000F7FE81916F0190E0B3010BD1E110EA9470
:102A8000015010400115110581F7E2C0943611F094
:102A9000993661F5F7FE08C0F50120813181428148
:102AA000538184E090E00AC0F501808191819C010E
:102AB000442737FD4095542F82E090E0A80EB91EC0
:102AC0009FE6F92257FF09C0509540953095219512
:102AD0003F4F4F4F5F4FE0E8FE2ACA01B901A10105
:102AE0002AE030E002D1D82ED2183FC0953729F421
:102AF0001F2D1F7E2AE030E01DC01F2D197F9F363D
:102B000061F0903720F4983509F0A5C00FC09037D8
:102B100039F0983709F09FC004C028E030E00AC0BF
:102B2000106114FD146020E130E004C014FD166053
:102B300020E132E017FF08C0F501608171818281D8
:102B4000938144E050E008C0F50180819181BC018F
:102B500080E090E042E050E0A40EB51EA101C5D097
:102B6000D82ED2188FE7F82EF122F6FE0BC05EEFBA
:102B7000F522D91438F4F4FE07C0F2FC05C08FEE3C
:102B8000F82202C01D2D01C0192DF4FE0DC0FE015A
:102B9000ED0DF11D8081803319F499EEF92208C002
:102BA0001F5FF2FE05C003C08F2D867809F01F5FFE
:102BB0000F2DF3FC13C0F0FE0EC01E1510F09D2C5F
:102BC0000AC09D2C9E0C911A1E2D05C080E290E03B
:102BD000B3015FD01F5F1E15C8F304C01E1510F4AB
:102BE000E11A01C0EE2404FF0EC080E390E0B301BF
:102BF00050D002FF1BC001FD03C088E790E00EC06B
:102C000088E590E00BC0802F867881F001FF02C03C
:102C10008BE201C080E2F7FC8DE290E0B30139D095
:102C200005C080E390E0B30134D09A94D914C8F37E
:102C3000DA94F101ED0DF11D808190E0B30129D00E
:102C4000DD20B1F705C080E290E0B30122D0EA9424
:102C5000EE20C9F750CEF30166817781CB012B9628
:102C6000E2E10C946FEAFC010590615070400110A4
:102C7000D8F7809590958E0F9F1F0895FC016150A5
:102C8000704001900110D8F7809590958E0F9F1F8E
:102C900008950F931F93CF93DF938C01EB018B81EA
:102CA00081FF1BC082FF0DC02E813F818C819D81E1
:102CB0002817390764F4E881F9810193F983E883DF
:102CC00006C0E885F985802F1995892B31F48E810E
:102CD0009F8101969F838E8302C00FEF1FEFC80173
:102CE000DF91CF911F910F910895FA01AA27283003
:102CF00051F1203181F1E8946F936E7F6E5F7F4FC9
:102D00008F4F9F4FAF4FB1E03ED0B4E03CD0670F44
:102D1000781F891F9A1FA11D680F791F8A1F911D97
:102D2000A11D6A0F711D811D911DA11D20D009F4E7
:102D300068943F912AE0269F11243019305D319329
:102D4000DEF6CF010895462F4770405D4193B3E012
:102D50000FD0C9F7F6CF462F4F70405D4A3318F0B9
:102D6000495D31FD4052419302D0A9F7EACFB4E06A
:102D7000A6959795879577956795BA95C9F7009722
:102D80006105710508959B01AC010A2E06945795C3
:102D9000479537952795BA95C9F7620F731F841F1A
:102DA000951FA01D0895FC01128213820895FC0155
:102DB0008381882311F081E082830895FC01828160
:102DC000811112820895CF93DF93DC01FC01EB5552
:102DD000FE4F808191810097C9F101979183808393
:102DE000ED01CC5ADF4FFD01ED58FF4F8BE1019013
:102DF00009928150E1F7FD01EE5AFF4FAF58BF4FE6
:102E00008D919C911197A157B04091838083FD01D2
:102E1000ED58FF4F20E030E0AD014B555E4F10C044
:102E20002F5F3F4FEF01DF015F968BE10D9009921D
:102E30008150E1F7858D968D329791838083B1968D
:102E4000DA018D919C912817390750F3DF91CF91CA
:102E50000895FC018DE794E0918380838781882326
:102E600021F0CF0104960C9438800895CF92DF9220
:102E7000EF92FF920F931F93DF93CF93CDB7DEB7FF
:102E80006F970FB6F894DEBF0FBECDBF8C017B01EC
:102E9000095A1F4FD8018C9107551040882321F4FF
:102EA0002FE2C22ED12C03C090E5C92ED12CC00E2A
:102EB000D11E8DE794E09A8389831C821B82188639
:102EC0001D82B6016C5F7F4FCE010596A70121E000
:102ED0000E941A87882381F5EAE8F6E007C080910E
:102EE000C00085FFFCCF9093C60031969491992342
:102EF000B1F7EBE3F1E007C08091C00085FFFCCFA4
:102F00009093C600319694919923B1F709C08091AE
:102F1000C00085FFFCCF0894E11CF11C9093C60013
:102F2000F7019081992399F78091C00085FFFCCF2C
:102F30008AE08093C6005AC0F801EB55FE4F20810D
:102F400031812A30310508F040C02F5F3F4F318377
:102F5000208321503040F90185E0EE0FFF1F8A9554
:102F6000E1F7E21BF30BED58FF4FE00FF11F13C029
:102F7000AF01415E5F4FBF018BE1DB010D90BD01F1
:102F8000DA010D92AD018150C1F792918291329692
:102F9000968F858F7F9721503040BFEF2E3F3B07A4
:102FA00039F7D801AD58BF4FF60134968BE1019047
:102FB0000D928150E1F70F581F4FF60182819381E6
:102FC000D8018D939C9301571040D801AC5ABF4F44
:102FD000FE0135968BE101900D928150E1F70E5A7A
:102FE0001F4F8B819C81F80191838083CE010196D4
:102FF00030DF6F960FB6F894DEBF0FBECDBFCF9116
:10300000DF911F910F91FF90EF90DF90CF90089587
:10301000EF92FF920F931F938C013EECE32E31E071
:10302000F32EE80EF91EC7010E94EB7FC7010E9434
:103030003880F801118210821F910F91FF90EF905C
:103040000895CF92DF92EF92FF920F931F93CF9349
:10305000DF937C016B01DB010D900020E9F78D010E
:1030600001501040061B170BEEECF1E0EE0EFF1EB8
:10307000D7011C92E2E3FEEFEE0EFF1ECB016EE4E1
:1030800070E0C6DBEC01009731F4F8013197EC0DEC
:10309000FD1D86010CC060E270E0BADB8C010F5FA1
:1030A0001F4FCE016AE270E0B3DBFC0131978DE087
:1030B00081838AE082831382C70186539E4FB801C1
:1030C0000E942B888EEC91E0E80EF91ED7018C91BE
:1030D000882309F1E3E8F6E007C08091C00085FF8E
:1030E000FCCF9093C600319694919923B1F7E5E611
:1030F000F1E007C08091C00085FFFCCF9093C6002F
:10310000319694919923B1F78091C00085FFFCCF4F
:103110008AE08093C600DF91CF911F910F91FF90BD
:10312000EF90DF90CF900895CF93DF93EC018B81E8
:10313000882319F4EBE7F1E03AC0EBE8F1E007C0CF
:103140008091C00085FFFCCF9093C600319694918A
:103150009923B1F7CD57DD4F488159816A817B8131
:10316000C358D24086E795E02AE030E00E94513211
:103170008091C00085FFFCCF8FE28093C600C558C8
:10318000DD4F488159816A817B8186E795E02AE09D
:1031900030E00E9451328091C00085FFFCCF0EC00C
:1031A0008091C00085FFFCCF9093C600319694912A
:1031B0009923B1F78091C00085FFFCCF8AE080930E
:1031C000C600DF91CF9108952F923F924F925F9268
:1031D0006F927F928F929F92AF92BF92CF92DF9227
:1031E000EF92FF920F931F93DF93CF93CDB7DEB78C
:1031F000AC970FB6F894DEBF0FBECDBF5C014B019C
:10320000FC018381882309F41CC1C50182539E4FB0
:103210000E943880F50112821A8A1D8A198A188A3A
:103220008DE794E09F878E875EE4C52ED12CCA0C73
:10323000DB1C2FE230E0A20EB31EF601B182A082A9
:1032400021ED3FEFA20EB31EF40180818F3209F011
:103250007EC0C4016FE270E0DBDA7C010894E11CFF
:10326000F11C3E010894611C711C260142E1242ED0
:10327000312C2C0E3D1E66C0C7016FE270E0C8DA2B
:103280006C01009709F471C0E816F90608F06DC0EA
:103290008C010E191F09C301B701A801E2DA060D5E
:1032A000171DF8011082F30107C08091C00085FF4F
:1032B000FCCF31969093C60090819923B1F780910D
:1032C000C00085FFFCCFFAE0F093C600F2016081F8
:1032D00071816115710519F460E070E002C06C5FE6
:1032E0007F4FC101A30121E00E941A878823F9F4CE
:1032F000E3ECF1E007C08091C00085FFFCCF909324
:10330000C600319694919923B1F7FE01319607C01A
:103310008091C00085FFFCCF31969093C6009081CC
:103320009923B1F78091C00085FFFCCF84C02EE0C7
:1033300030E02C0F3D1FF201318320837601089489
:10334000E11CF11CE114F10409F096CF0BC080E5FB
:1033500090E0A80EB91EF601B182A08220EB3FEFEB
:10336000A20EB31ED82C092D02C0DE2C0F2D8EE428
:1033700090E0A80EB91EF5018081918122EB3FEF0C
:10338000A20EB31E009719F480E090E001C00496ED
:103390006D2D702F0E94E687882319F4EDE9F1E086
:1033A00034C0E5EBF1E007C08091C00085FFFCCFA1
:1033B0009093C600319694919923B1F78D2D902F5B
:1033C0009C01F90107C08091C00085FFFCCF3196B8
:1033D0009093C60090819923B1F78091C00085FF3A
:1033E000FCCF8AE08093C60083E892E0A80EB91E65
:1033F000F501108211821282138220C08091C000D8
:1034000085FFFCCF9093C600319694919923B1F734
:103410008D2D902F9C01F90107C08091C00085FF80
:10342000FCCF31969093C60090819923B1F780919B
:10343000C00085FFFCCF8EE28093C600CE010E96C1
:1034400008DDAC960FB6F894DEBF0FBECDBFCF91AE
:10345000DF911F910F91FF90EF90DF90CF90BF9081
:10346000AF909F908F907F906F905F904F903F9024
:103470002F900895BF92CF92DF92EF92FF920F9319
:103480001F93CF93DF938C01EB018FE28993EE249E
:10349000E394FF2475EAC72E71E0D72EC00ED11E2B
:1034A0006FE1B62E14C0FB9CC00111248D589F4FB4
:1034B000800F911FBE010E94488002C02196E394B4
:1034C0008881882319F08CE88E15C0F7F3942F2D8E
:1034D00030E0F601808191812817390720F3E7FC5D
:1034E00007C0C80182539E4FBE010E94488001C0A0
:1034F0001882DF91CF911F910F91FF90EF90DF9095
:10350000CF90BF900895EF92FF920F931F93CF93A8
:10351000DF93EC011B828EA9882321F0CE01C39694
:103520000E943880E7EAEE2EE1E0FE2EEC0EFD1E52
:10353000C70160E045E30E94E77D8823F9F4EAE8EB
:10354000F6E007C08091C00085FFFCCF9093C600D5
:10355000319694919923B1F7E5E1F3E007C08091AA
:10356000C00085FFFCCF9093C600319694919923BB
:10357000B1F78091C00085FFFCCF76C08E01045565
:103580001E4FC801B70141E00E94BC88882331F575
:10359000C801B70140E00E94BC888823F9F4E3E841
:1035A000F6E007C08091C00085FFFCCF9093C60075
:1035B000319694919923B1F7E2E0F3E007C080914E
:1035C000C00085FFFCCF9093C6003196949199235B
:1035D000B1F78091C00085FFFCCF46C0CE01C396F5
:1035E000B8010E9420838823F9F4E3E8F6E007C0DD
:1035F0008091C00085FFFCCF9093C60031969491D6
:103600009923B1F7E2EFF2E007C08091C00085FF97
:10361000FCCF9093C600319694919923B1F7809195
:10362000C00085FFFCCF20C081E08B83EAE8F6E094
:1036300007C08091C00085FFFCCF9093C6003196F3
:1036400094919923B1F7E7EEF2E007C08091C000B2
:1036500085FFFCCF9093C600319694919923B1F7E2
:103660008091C00085FFFCCF8AE08093C600DE0118
:10367000AC5ABF4FFE01F3968BE101900D92815041
:10368000E1F789A99AA9CE5ADF4F99838883C25559
:10369000D040CE018F96C25BDF4F99838883DF9144
:1036A000CF911F910F91FF90EF9008952F923F922D
:1036B0004F925F926F927F929F92AF92BF92CF9202
:1036C000DF92EF92FF920F931F93DF93CF93CDB7CB
:1036D000DEB7CC5BD0400FB6F894DEBF0FBECDBFD7
:1036E0006C01662309F0DFC027E832E0C20ED31E6A
:1036F000D6018C91E9E7FDEFCE0EDF1E882309F499
:10370000E3C02FE732E0C20ED31ED601ED90FD904C
:103710000D911C91E1E8FDEFCE0EDF1E0E9473DEDD
:10372000E616F7060807190708F4CEC0BCC0C601A4
:10373000EADED60113968C91882309F4C5C000D027
:1037400000D0EDB7FEB731967E010894E11CF11C64
:10375000ADB7BEB71296FC92EE9211978CE591E050
:1037600093838283D6019D968D919C919E9795839C
:10377000848386D88701EDB7FEB736960FB6F894E6
:10378000FEBF0FBEEDBF57010AC0D8018C9199272B
:1037900087FD90950E9448EAF80181938F01F50119
:1037A00001900020E9F73197EA19FB09802F8E1963
:1037B0008E175CF313E3A12EB12CAC0CBD1CC5011C
:1037C00040E050E060E070E00E94217F9924BBE07F
:1037D000EB2EF12CEC0EFD1E2E010894411C511C09
:1037E000ABE26A2E712C6C0E7D1EF5E52F2EF1E0FA
:1037F0003F2E3EC0D8018C9190E00E9448EAF8012B
:1038000081938F01D7010D900020E9F71197AE1930
:10381000BF09802F8E198A176CF38C898E3741F17E
:10382000C701B20145E050E00ED8009709F500D07D
:1038300000D0EDB7FEB73196ADB7BEB712967C9209
:103840006E921197338222825582448219D8EDB745
:10385000FEB736960FB6F894FEBF0FBEEDBFC3019C
:103860000E94E35081E591E00E94A25C9924939428
:10387000C501B70140E050E00E944982181614F4D7
:103880008701C0CF992041F48FEF9FEFD6019E961C
:103890009C938E939D9718C0F60185A596A50196D9
:1038A00096A785A711C027E832E0C20ED31ED60125
:1038B0001C92E9E7FDEFCE0EDF1ED60113968C9128
:1038C000882309F434CF3BCFC454DF4F0FB6F894AC
:1038D000DEBF0FBECDBFCF91DF911F910F91FF9043
:1038E000EF90DF90CF90BF90AF909F907F906F90C0
:1038F0005F904F903F902F9008952F923F924F925C
:103900005F926F927F928F929F92AF92BF92CF926F
:10391000DF92EF92FF920F931F93DF93CF93CDB778
:10392000DEB7C857D0400FB6F894DEBF0FBECDBF8C
:103930007C015B013A01E1963FAF2EAFE1978DB775
:103940009EB7E3969FAF8EAFE397E4E0F0E06E0E94
:103950007F1EC7014296AF969FAF8EAFAF9725E00F
:10396000822E912C8E0C9F1CAD961FAEAD979CE4C1
:10397000C92ED12CCC0EDD1EF701E857FD4FE9967C
:10398000FFAFEEAFE9978AE8282E82E0382E2E0CA2
:103990003F1C0BE0402E512C4C0C5D1C7DC1F601F0
:1039A0008385282F30E0A9014871507040315105BE
:1039B00009F07EC1E996EEADFFADE9978081918176
:1039C0008130910509F474C1029709F471C1FDB702
:1039D000E696FFAFE6978EB7E7968FAFE797F501CC
:1039E00001900020E9F7EA19FB093D968DB79EB7D3
:1039F0008E1B9F0B0FB6F8949EBF0FBE8DBF0DB7E9
:103A00001EB70F5F1F4FF601DE01119690819032B5
:103A100039F08E2F8C19883011F48EE28D939D939E
:103A20003196E415F50591F71C92F8011082F50125
:103A30008081882329F4C80160E072E00E94FD13B0
:103A4000E4960FAFE497E5961FAFE597C801B5017F
:103A50000E94FD13C801BE016F5F7F4F0E94FD13DE
:103A6000C80160E072E00E94FD131A8A1D8A198A5B
:103A7000188A8DE794E09F878E87CE014296B30126
:103A8000AE014F5F5F4F21E00E941A87882309F043
:103A90003DC0E996EEADFFADE99780819181892B1C
:103AA000A9F5EAE8F6E007C08091C00085FFFCCFE9
:103AB0009093C600319694919923B1F7E2E0F2E039
:103AC00007C08091C00085FFFCCF31969093C6005F
:103AD00090819923B1F78091C00085FFFCCFFAE077
:103AE000F093C600FE01319607C08091C00085FFAB
:103AF000FCCF31969093C60090819923B1F78091C5
:103B0000C00085FFFCCF8AE08093C600DE01D1961D
:103B1000FE0172968BE101900D928150E1F7888948
:103B2000998998AB8FA7EDE7F4E0FEA7EDA7C70151
:103B3000E4966FADE497E5967FADE597AE01435D02
:103B40005F4F20E030E0D9DECE018D9682D9CE01E4
:103B50000E967FD9E6962FADE697E7963FADE797AD
:103B6000C9010FB6F8949EBF0FBE8DBF95C08E32AF
:103B700009F492C0F70182898E3209F48DC023FDC9
:103B80008BC080E04031510509F481E0F701848366
:103B9000882349F4F6018085873409F07DC081854A
:103BA0008E3709F479C0E996EEADFFADE9978081D3
:103BB00091818130910531F082309105E1F1892BBD
:103BC00041F06AC0F10180819181019691838083E7
:103BD00063C0D401F6018081803241F08E2F8C19B0
:103BE000883011F48EE28D9380818D933196E415A7
:103BF000F50589F71C92F50107C08091C00085FF8B
:103C0000FCCF31969093C60090819923B1F7F401CF
:103C100007C08091C00085FFFCCF31969093C6000D
:103C200090819923B1F78091C00085FFFCCF9AE085
:103C30009093C60031C0D401F6018081803241F0FA
:103C40008E2F8C19883011F48EE28D9380818D93A4
:103C50003196E415F50589F71C92E196EEADFFADBE
:103C6000E197309739F0CF01B4010E94EA13892B14
:103C700061F423C0AD96FFADAD972F2F30E0F10179
:103C80008081918128173907C1F0AD96FFADAD97BE
:103C9000FF5FAD96FFAFAD97C301B601AF964EADD6
:103CA0005FADAF970E94498218160CF478CE05C01C
:103CB000F6018081882309F05ACFE3968EAD9FAD3F
:103CC000E3970FB6F8949EBF0FBE8DBFC858DF4F65
:103CD0000FB6F894DEBF0FBECDBFCF91DF911F911D
:103CE0000F91FF90EF90DF90CF90BF90AF909F909B
:103CF0008F907F906F905F904F903F902F9008959E
:103D0000EF92FF920F931F93DF93CF93CDB7DEB760
:103D10006F970FB6F894DEBF0FBECDBF7C018C014C
:103D2000025B1F4F805B9F4FF8019183808328E8DF
:103D300032E0E20EF31E21E030E0F70121933193EF
:103D40007F011182108226E73DEFE20EF31E0496FA
:103D500040E050E060E070E00E94217FF8012081A7
:103D60003181DE011596F90134968BE101900D92B7
:103D70008150E1F7F901828193819C838B838DE7E8
:103D800094E09A838983C70165E172E08E010F5F39
:103D90001F4FA80120E030E0B0DDC8015AD8F7017C
:103DA000E657FD4F808191816F960FB6F894DEBF84
:103DB0000FBECDBFCF91DF911F910F91FF90EF907C
:103DC0000895CF92DF92EF92FF920F931F93DF93AC
:103DD000CF93CDB7DEB76F970FB6F894DEBF0FBEA7
:103DE000CDBF7C016A018C01025B1F4F805B9F4F3E
:103DF000F8019183808328E832E0E20EF31E22E08E
:103E000030E0F701219331937F017183608326E7CE
:103E10003DEFE20EF31E049640E050E060E070E0FB
:103E20000E94217FF80120813181DE011596F90180
:103E300034968BE101900D928150E1F7F901828176
:103E400093819C838B838DE794E09A838983C70158
:103E500065E172E08E010F5F1F4FA80196014DDDF5
:103E6000C8010E9429176F960FB6F894DEBF0FBEE7
:103E7000CDBFCF91DF911F910F91FF90EF90DF9019
:103E8000CF9008952F923F924F925F926F927F92C0
:103E90008F929F92AF92BF92CF92DF92EF92FF925A
:103EA0000F931F93DF93CF93CDB7DEB7AD970FB6C8
:103EB000F894DEBF0FBECDBF7C014B014DA7DC01E6
:103EC00013968C91882309F41FC3E1EDF1E0EE0E07
:103ED000FF1ED7018C91EFE2FEEFEE0EFF1E88234E
:103EE00009F411C1222319F0EAE8F6E0E3C029EE53
:103EF00031E0E20EF31ED7018C91E7E1FEEFEE0E0A
:103F0000FF1E882319F4EAE8F6E035C0E3E8F6E09E
:103F100007C08091C00085FFFCCF9093C60031960A
:103F200094919923B1F7E4EAF2E007C08091C000D0
:103F300085FFFCCF9093C600319694919923B1F7F9
:103F400086E795E061E070E04AE050E00E94A03230
:103F50008091C00085FFFCCF8AE08093C6008BE98A
:103F600092E00E94F638D0C28091C00085FFFCCF5D
:103F70009093C600319694919923B1F7E2E8F2E06C
:103F800007C08091C00085FFFCCF9093C60031969A
:103F900094919923B1F7F40107C08091C00085FF87
:103FA000FCCF31969093C60090819923B1F7E7E753
:103FB000F2E007C08091C00085FFFCCF9093C6005F
:103FC000319694919923B1F7C7012EEE31E0E20EBC
:103FD000F31EB7014FDA4BEF5FEFE40EF51ED7018A
:103FE0009C91E7E1FEEFEE0EFF1E8DE8989FF00139
:103FF0001124E251FE4FEE0DFF1D07C08091C0005D
:1040000085FFFCCF31969093C60090819923B1F73C
:10401000E1E7F2E007C08091C00085FFFCCF9093FC
:10402000C600319694919923B1F723E832E0E20E6D
:10403000F31ED7014D915D916D917C91EDE7FDEF00
:10404000EE0EFF1E86E795E02AE030E00E94513236
:104050008091C00085FFFCCF8AE08093C600A70155
:1040600047515E4FDA012C91E22FF0E0EE0FFF1F77
:10407000EE0FFF1FEE0DFF1DE651FE4F83E892E0AD
:10408000E80EF91ED701AD90BD90CD90DC908DE784
:104090009DEFE80EF91EA082B182C282D3822F5F0B
:1040A000DA012C932AC08091C00085FFFCCF909349
:1040B000C600319694919923B1F7E0E6F2E007C08B
:1040C0008091C00085FFFCCF9093C60031969491FB
:1040D0009923B1F7F40107C08091C00085FFFCCFA0
:1040E00031969093C60090819923B1F78091C000DA
:1040F00085FFFCCF8AE08093C600C70182539E4FA4
:104100000E94388037C0E9EEF1E0EE0EFF1ED701C5
:104110001C92E7E1FEEFEE0EFF1EEAE8F6E007C0B4
:104120008091C00085FFFCCF9093C600319694919A
:104130009923B1F7EFE4F2E007C08091C00085FF5A
:10414000FCCF9093C600319694919923B1F7F40176
:1041500007C08091C00085FFFCCF31969093C600C8
:1041600090819923B1F78091C00085FFFCCF8AE050
:104170008093C600D70112961C921A8A1D8A198A4A
:10418000188A8DE794E09F878E87F701E25BFF4FE7
:104190002FE230E0E20EF31EF182E08241ED5FEFAC
:1041A000E40EF51ED4018C918F3209F07FC06401BA
:1041B0000894C11CD11C3E010894611C711C2F0184
:1041C00032E1232E312C2C0E3D1E6BC0C6016FE256
:1041D00070E00E9408145C01009709F473C0C816CF
:1041E000D90608F06FC08C010C191D09C301B60176
:1041F000A8010E943114060D171DF8011082F30169
:1042000007C08091C00085FFFCCF31969093C60017
:1042100090819923B1F78091C00085FFFCCFFAE02F
:10422000F093C600D2016D917C916115710519F46E
:1042300060E070E002C06C5F7F4FC101A30121E02C
:104240000E941A87882311F5EBE3F2E007C0809102
:10425000C00085FFFCCF9093C600319694919923BE
:10426000B1F7FE01319607C08091C00085FFFCCFF9
:1042700031969093C60090819923B1F78091C00048
:1042800085FFFCCF8EE28093C6003AC12EE030E07D
:104290002C0F3D1FF2013183208365010894C11C5E
:1042A000D11CC114D10409F091CF0AC040E550E0FF
:1042B000E40EF51EF182E08280EB9FEFE80EF91E1E
:1042C000840101C08601F701E25BFF4F9DA59923A0
:1042D00009F4B5C0608171816115710519F460E060
:1042E00070E002C06C5F7F4FC70182539E4FA801F0
:1042F00021E00E941A87882319F4E3E0F2E082C0EB
:10430000AFEDB1E0EA0EFB1EF70140815181628101
:1043100073812CE930E0E20EF31ED7014D935D93DB
:104320006D937C931397E5E8FDEFEE0EFF1EEDE233
:10433000F2E007C08091C00085FFFCCF9093C600DB
:10434000319694919923B1F7F80107C08091C0008C
:1043500085FFFCCF31969093C60090819923B1F7E9
:10436000E5E2F2E007C08091C00085FFFCCF9093AA
:10437000C600319694919923B1F786E795E02AE03B
:1043800030E00E9451328091C00085FFFCCF8AE06E
:104390008093C60023E832E0E20EF31ED7011D929F
:1043A0001D921D921C921397EDE7FDEFEE0EFF1E7E
:1043B000E7E1F2E007C08091C00085FFFCCF909359
:1043C000C600319694919923B1F78091C00085FF82
:1043D000FCCF8AE08093C600C70160E070E0A801CE
:1043E000F0DCD70152968C91882309F485C08701AF
:1043F0000E5E1F4F81C08091C00085FFFCCF90935F
:10440000C600319694919923B1F7F80107C08091C5
:10441000C00085FFFCCF31969093C6009081992310
:10442000B1F7E0E0F2E007C08091C00085FFFCCF6B
:104430009093C600319694919923B1F761C0608141
:1044400071816115710519F460E070E002C06C5F64
:104450007F4FC70182539E4FA80126E50E941A870D
:10446000882339F5ECEEF1E007C08091C00085FFAC
:10447000FCCF9093C600319694919923B1F7F8013F
:1044800007C08091C00085FFFCCF31969093C60095
:1044900090819923B1F7E9EEF1E007C08091C00067
:1044A00085FFFCCF9093C600319694919923B1F784
:1044B00027C081E0F7018083E7EDF1E007C080913C
:1044C000C00085FFFCCF9093C6003196949199234C
:1044D000B1F7F40107C08091C00085FFFCCF319691
:1044E0009093C60090819923B1F78091C00085FF19
:1044F000FCCF8AE08093C600C80160E00E9473ABE5
:10450000CE010E960E942917AD960FB6F894DEBF25
:104510000FBECDBFCF91DF911F910F91FF90EF9014
:10452000DF90CF90BF90AF909F908F907F906F90D3
:104530005F904F903F902F900895EF92FF920F93CE
:104540001F93CF93DF93EC010E94338E8E010751AE
:104550001E4FD8018C91BEECEB2EB1E0FB2EEC0E81
:10456000FD1E882399F1C7010E943880F8016081FF
:10457000615060838DE8689FB001112462517E4FC5
:104580006C0F7D1FCE0141E021E07CDCD801EC9175
:10459000F0E0EE0FFF1FEE0FFF1FEC0FFD1FE651C7
:1045A000FE4F4081518162817381CD57DD4F488339
:1045B00059836A837B83C358D240C7010E94217FFD
:1045C0008B81882379F181E08A832CC0C7010E9406
:1045D00038801A828FE291E00E94A25C8091250BC4
:1045E000882301F11092250B80912B08C82FD0E071
:1045F000CC0FDD1FC958DD4E68817981882777FD92
:104600008095982F0E94A7E62091A2033091A303E2
:104610004091A4035091A5030E9413E8181614F4C6
:1046200019821882DF91CF911F910F91FF90EF9027
:104630000895FC0181E08183CF0140E021E022CC9C
:10464000EF92FF920F931F93DF93CF93CDB7DEB717
:104650006F970FB6F894DEBF0FBECDBF7C0188E820
:1046600092E0E80EF91EF7011182108288E79DEFB3
:10467000E80EF91E87010D5C1F4FC80140E050E0B5
:1046800060E070E00E94217FDE011596F8018BE169
:1046900001900D928150E1F7F70181A992A99C83C5
:1046A0008B838DE794E09A838983C70165E172E08B
:1046B0008E010F5F1F4FA80120E030E01ED9C80116
:1046C0000E9429176F960FB6F894DEBF0FBECDBFBC
:1046D000CF91DF911F910F91FF90EF900895CF93AD
:1046E000DF93EC011BAA1EAA1AAA19AA8DE794E06F
:1046F00098AB8FA7CC5ADF4F188223961882C755E4
:10470000D040FE01E05BFF4FCE5ADF4F1982188286
:10471000C255D04091838083DE01A159BF4FFD0176
:1047200020E030E0482F14821782138212824083E7
:104730009183215E3F4F7F9681E02633380799F7BA
:10474000C855DE4F89E188832396188268961882BF
:104750002B96188223961882C15DD140FE01E65344
:10476000FE4FC453DE4F1982188240839183C15596
:10477000DF4F188219821A821B82289618821982AA
:104780001A821B82C358D2401A821B821882198255
:10479000CB55DE4F19821882CC5BDF4F1882FD01AA
:1047A000C90111920197E9F7C256DF4F81E0888372
:1047B000C758D2401EA61DA60E9473DEC158DD4F09
:1047C00068577C4E8F4F9F4F688379838A839B8382
:1047D000DF91CF910895CF93DF93EC01DB015AE095
:1047E0003CC0288139819C91F999FECF1FBA32BD16
:1047F00021BD90BD0FB6F894FA9AF99A0FBEF999B7
:10480000FECF32BD21BDF89A80B5891701F1EAE8E3
:10481000F6E007C08091C00085FFFCCF9093C600F2
:10482000319694919923B1F7EAE6F6E007C08091BA
:10483000C00085FFFCCF9093C600319694919923D8
:10484000B1F78091C00085FFFCCF5093C6002F5F69
:104850003F4F3983288311964150442309F0C1CF3B
:10486000DF91CF9108952F923F924F925F926F9276
:104870007F928F929F92AF92BF92CF92DF92EF92F0
:10488000FF920F931F93DF93CF93CDB7DEB7A1971E
:104890000FB6F894DEBF0FBECDBF0F2EF0E0CF2EC7
:1048A000F0E0DF2EF0E0EF2EF0E0FF2EF02DCA86D4
:1048B000DB86EC86FD868091160290911702A0910E
:1048C0001802B09119028E879F87A88BB98B84E656
:1048D00090E09D838C838E010C5F1F4FC801BE0149
:1048E000625F7F4F44E077DFC80165ED7AE040E129
:1048F00072DFC80165EC7AE040E16DDFC80165EE6A
:104900007AE040E168DFC80169EF7AE044E063DF04
:10491000C8016DEF7AE044E05EDFC80161E07BE052
:1049200044E059DFC80165EF7AE044E054DFC80194
:1049300061E17BE044E04FDFC80161EC7AE044E0F4
:104940004ADFC80165E07BE044E045DFC80169E07B
:104950007BE044E040DFC8016DE07BE044E03BDF0A
:10496000C8016FE178E04CE036DF83E089838A8319
:104970001B82C801BE016D5F7F4F41E02CDFC80183
:10498000BE016F5F7F4F41E026DFC801BE016E5F51
:104990007F4F41E020DFCA86DB86EC86FD86EE2471
:1049A000FF243AE0C32ED12CCC0EDD1E07C0C80177
:1049B000B60144E010DF0894E11CF11C8A812981D2
:1049C000829FC0011124E816F9068CF3C8016DE539
:1049D00073E044E000DFC8016AE478E04CE0FBDE0D
:1049E000C80162E673E044E0F6DEC80166E673E003
:1049F00044E0F1DEC8016AE673E044E0ECDEC801A1
:104A00006BEE72E142E0E7DEC8016DEE72E142E07A
:104A1000E2DEC8016FEE72E142E0DDDEC80161EF67
:104A200072E142E0D8DEC80163EF72E142E0D3DE1A
:104A3000C80165EF72E142E0CEDEEE24FF2424E0FF
:104A4000C22ED12CCC0EDD1E0F2EF0E04F2EF0E842
:104A50005F2EFBE36F2EF5E47F2EF02D9AE0292EDA
:104A6000312C2C0E3D1E0F2EF0E08F2EF0E09F2EED
:104A7000F0E0AF2EF0E0BF2EF02DE114F104A9F428
:104A8000C6016FEA73E044E0A6DEC60163EB73E0A3
:104A900044E0A1DEC60167EB73E044E09CDEC601A2
:104AA0006BEB73E044E097DE19C04A865B866C8648
:104AB0007D86C601B10144E08EDE8A869B86AC8687
:104AC000BD8603E010E004C0C601B10144E083DE0E
:104AD000015010408FEF0F3F1807B1F70894E11C09
:104AE000F11C84E0E816F10441F680E090E8ABE3C5
:104AF000B5E48A8B9B8BAC8BBD8B8E8B9F8BA88FE9
:104B0000B98F8A8F9B8FAC8FBD8F8E010C5F1F4F2B
:104B1000C801BE016E5E7F4F44E05DDEC801BE018C
:104B20006A5E7F4F44E057DEC801BE01665E7F4F7C
:104B300044E051DE80E290E09F838E83C801BE0195
:104B40006A5F7F4F42E047DE80E090E0A0E8BFE38D
:104B50008A879B87AC87BD878AE0A82EB12CAC0ED4
:104B6000BD1EC801B50144E036DEC8016EE178E043
:104B700041E031DEEE24FF24D02E012FE114F104B8
:104B800061F480913A0390913B03A0913C03B09172
:104B90003D038A879B87AC87BD878D2D902FB501FC
:104BA00044E019DE0894E11CF11C84E0E816F104ED
:104BB00029F780911A0290911B02A0911C02B091DA
:104BC0001D028E8F9F8FA8A3B9A384E690E09987DA
:104BD0008887CE010896BE01625E7F4F44E0FBDD10
:104BE000EAE8F6E007C08091C00085FFFCCF909313
:104BF000C600319694919923B1F74C815D81662767
:104C000057FD6095762F88E596E00E947647E0E5AF
:104C1000F6E007C08091C00085FFFCCF9093C600EE
:104C2000319694919923B1F78091C00085FFFCCF14
:104C30008AE08093C600A1960FB6F894DEBF0FBE3F
:104C4000CDBFCF91DF911F910F91FF90EF90DF903B
:104C5000CF90BF90AF909F908F907F906F905F901C
:104C60004F903F902F9008951F93182F882371F530
:104C7000EAE8F6E007C08091C00085FFFCCF909382
:104C8000C600319694919923B1F7E9EFF5E007C09A
:104C90008091C00085FFFCCF9093C600319694911F
:104CA0009923B1F78091C00085FFFCCF8AE0809303
:104CB000C600EAE8F6E007C08091C00085FFFCCF9F
:104CC0009093C600319694919923B1F74091D50AFB
:104CD0005091D60A6091D70A7091D80A81EF95E079
:104CE0000E9471434091D90A5091DA0A6091DB0A1F
:104CF0007091DC0A8EEE95E00E9471434091DD0ACE
:104D00005091DE0A6091DF0A7091E00A8BEE95E027
:104D10000E9471434091E10A5091E20A6091E30AD6
:104D20007091E40A88EE95E00E9471438091C00082
:104D300085FFFCCF8AE08093C600112371F5EAE875
:104D4000F6E007C08091C00085FFFCCF9093C600BD
:104D5000319694919923B1F7EEECF5E007C080917C
:104D6000C00085FFFCCF9093C600319694919923A3
:104D7000B1F78091C00085FFFCCF8AE08093C60028
:104D8000EAE8F6E007C08091C00085FFFCCF909371
:104D9000C600319694919923B1F74091C50A50917C
:104DA000C60A6091C70A7091C80A85EC95E00E9416
:104DB00071434091C90A5091CA0A6091CB0A70911F
:104DC000CC0A82EC95E00E9471434091CD0A50914B
:104DD000CE0A6091CF0A7091D00A8FEB95E00E94C5
:104DE00071434091D10A5091D20A6091D30A7091D7
:104DF000D40A8CEB95E00E9471438091C00085FF3E
:104E0000FCCF8AE08093C600112371F5EAE8F6E052
:104E100007C08091C00085FFFCCF9093C6003196FB
:104E200094919923B1F7EEE9F5E007C08091C000B5
:104E300085FFFCCF9093C600319694919923B1F7EA
:104E40008091C00085FFFCCF8AE08093C600EAE82D
:104E5000F6E007C08091C00085FFFCCF9093C600AC
:104E6000319694919923B1F74091E50A5091E60A61
:104E70006091E70A7091E80A85E995E00E9476471B
:104E80004091E90A5091EA0A6091EB0A7091EC0AAC
:104E900082E995E00E9476474091ED0A5091EE0A32
:104EA0006091EF0A7091F00A8FE895E00E947647D2
:104EB0004091F10A5091F20A6091F30A7091F40A5C
:104EC0008CE895E00E9476478091C00085FFFCCF7A
:104ED0008AE08093C600112371F5EAE8F6E007C086
:104EE0008091C00085FFFCCF9093C60031969491CD
:104EF0009923B1F7EAE5F5E007C08091C00085FF8E
:104F0000FCCF9093C600319694919923B1F780918C
:104F1000C00085FFFCCF8AE08093C600EAE8F6E097
:104F200007C08091C00085FFFCCF9093C6003196EA
:104F300094919923B1F74091F90A5091FA0A60913E
:104F4000FB0A7091FC0A81E595E00E947143409153
:104F5000FD0A5091FE0A6091FF0A7091000B8EE4E9
:104F600095E00E9471434091010B5091020B6091BA
:104F7000030B7091040B8BE495E00E9471438091C8
:104F8000C00085FFFCCF8AE08093C600112371F535
:104F9000EAE8F6E007C08091C00085FFFCCF90935F
:104FA000C600319694919923B1F7E8E9F4E007C07F
:104FB0008091C00085FFFCCF9093C60031969491FC
:104FC0009923B1F78091C00085FFFCCF8AE08093E0
:104FD000C600EAE8F6E007C08091C00085FFFCCF7C
:104FE0009093C600319694919923B1F74091F50AB8
:104FF0005091F60A6091F70A7091F80A8FE894E0F0
:105000000E9471434091110B5091120B6091130B50
:105010007091140B8CE894E00E9471434091C10A96
:105020005091C20A6091C30A7091C40A89E894E061
:105030000E9476474091050B5091060B6091070B3B
:105040007091080B86E894E00E9471434091090B2F
:1050500050910A0B60910B0B70910C0B83E894E05C
:105060000E94714340910D0B50910E0B60910F0BFC
:105070007091100B80E894E00E9471438091C00011
:1050800085FFFCCF8AE08093C600112371F5EAE822
:10509000F6E007C08091C00085FFFCCF9093C6006A
:1050A000319694919923B1F7EEE6F4E007C0809130
:1050B000C00085FFFCCF9093C60031969491992350
:1050C000B1F78091C00085FFFCCF8AE08093C600D5
:1050D000EAE8F6E007C08091C00085FFFCCF90931E
:1050E000C600319694919923B1F740911F085091D1
:1050F0002008609121087091220885E694E00E94C2
:1051000071434091230850912408609125087091C3
:10511000260882E694E00E9471434091270850914E
:1051200028086091290870912A088FE594E00E9470
:1051300071438091C00085FFFCCF8AE08093C60058
:10514000112371F5EAE8F6E007C08091C00085FF01
:10515000FCCF9093C600319694919923B1F7E6E481
:10516000F4E007C08091C00085FFFCCF9093C6009B
:10517000319694919923B1F78091C00085FFFCCFBF
:105180008AE08093C600EAE8F6E007C08091C0009C
:1051900085FFFCCF9093C600319694919923B1F787
:1051A00040914A0850914B0860914C0870914D080D
:1051B0008DE394E00E94714340914E0850914F0856
:1051C00060915008709151088AE394E00E94714305
:1051D00040915208509153086091540870915508BD
:1051E00087E394E00E9471438091C00085FFFCCF6B
:1051F0008AE08093C6001123B1F4EAE8F6E007C024
:105200008091C00085FFFCCF9093C60031969491A9
:105210009923B1F708C08091C00085FFFCCF90931F
:10522000C600319602C0E5EEF3E09491992399F718
:105230008091C00085FFFCCF8AE08093C6001123D7
:1052400069F4EAE8F6E007C08091C00085FFFCCF72
:105250009093C600319694919923B1F740916603DB
:105260005091670360916803709169038CED93E03E
:105270000E94714340916203509163036091640303
:105280007091650389ED93E00E94714340916A0338
:1052900050916B0360916C0370916D0386ED93E008
:1052A0000E9471438091C00085FFFCCF8AE080930B
:1052B000C600112371F5EAE8F6E007C08091C0004E
:1052C00085FFFCCF9093C600319694919923B1F756
:1052D000EAEBF3E007C08091C00085FFFCCF90931C
:1052E000C600319694919923B1F78091C00085FF53
:1052F000FCCF8AE08093C600EAE8F6E007C0809120
:10530000C00085FFFCCF9093C600319694919923FD
:10531000B1F74091EB125091EC12662757FD609562
:10532000762F8EEA93E00E9476474091ED125091DD
:10533000EE12662757FD6095762F8BEA93E00E9468
:1053400076474091EF125091F012662757FD609515
:10535000762F88EA93E00E9476478091C00085FF0F
:10536000FCCF8AE08093C600112369F4EAE8F6E0F6
:1053700007C08091C00085FFFCCF9093C600319696
:1053800094919923B1F74091F1125091F21266274E
:1053900057FD6095762F8CE993E00E947647409107
:1053A000F3125091F412662757FD6095762F89E924
:1053B00093E00E9476474091F5125091F6126627CD
:1053C00057FD6095762F86E993E00E94764780919D
:1053D000C00085FFFCCF8AE08093C600112371F5E1
:1053E000EAE8F6E007C08091C00085FFFCCF90930B
:1053F000C600319694919923B1F7E8E8F3E007C02D
:105400008091C00085FFFCCF9093C60031969491A7
:105410009923B1F78091C00085FFFCCF8AE080938B
:10542000C600EAE8F6E007C08091C00085FFFCCF27
:105430009093C600319694919923B1F74091AF03B0
:105440005091B0036091B1037091B2038FE793E084
:105450000E9471436091B3037091B4038091B503CE
:105460009091B6030E944B98AB01BC018CE793E08E
:105470000E9471436091B7037091B8038091B903A2
:105480009091BA030E945798AB01BC0189E793E061
:105490000E9471434091BB035091BC036091BD03D6
:1054A0007091BE0386E793E00E9471438091C00033
:1054B00085FFFCCF8AE08093C60080911E08882378
:1054C00009F446C0112371F5EAE8F6E007C08091BF
:1054D000C00085FFFCCF9093C6003196949199232C
:1054E000B1F7E3E6F3E007C08091C00085FFFCCF91
:1054F0009093C600319694919923B1F78091C000A2
:1055000085FFFCCF8AE08093C600EAE8F6E007C09A
:105510008091C00085FFFCCF9093C6003196949196
:105520009923B1F740913A0350913B0360913C03BA
:1055300070913D038AE593E00E9471438091C00021
:1055400085FFFCCF8AE08093C600112329F152C069
:10555000112309F04FC0EAE8F6E007C08091C000CF
:1055600085FFFCCF9093C600319694919923B1F7B3
:10557000EEE3F3E007C08091C00085FFFCCF90937D
:10558000C600319694919923B1F78091C00085FFB0
:10559000FCCF8AE08093C600EAE8F6E007C080917D
:1055A000C00085FFFCCF9093C6003196949199235B
:1055B000B1F7E9E2F3E007C08091C00085FFFCCFBE
:1055C0009093C600319694919923B1F78091C000D1
:1055D00085FFFCCF8AE08093C600EAE8F6E007C0CA
:1055E0008091C00085FFFCCF9093C60031969491C6
:1055F0009923B1F785E293E043E553E060E070E082
:105600000E94764740915D0350915E0360915F0375
:1056100070916003705882E293E00E947143809120
:10562000C00085FFFCCF8AE08093C6001F910895DB
:10563000DF93CF93CDB7DEB7E0970FB6F894DEBF18
:105640000FBECDBFDE011196E9E2F4E080E10190EA
:105650000D928150E1F7DE015196E9E1F4E080E13D
:1056600001900D928150E1F7DE019196E9E0F4E0BE
:1056700080E101900D928150E1F789819A81AB819F
:10568000BC818093D50A9093D60AA093D70AB09391
:10569000D80A89899A89AB89BC898093C50A909375
:1056A000C60AA093C70AB093C80A89A19AA1ABA160
:1056B000BCA18093E50A9093E60AA093E70AB09311
:1056C000E80A8D819E81AF81B8858093D90A909335
:1056D000DA0AA093DB0AB093DC0A8D899E89AF8930
:1056E000B88D8093C90A9093CA0AA093CB0AB0934D
:1056F000CC0A8DA19EA1AFA1B8A58093E90A909391
:10570000EA0AA093EB0AB093EC0A89859A85AB85E7
:10571000BC858093DD0A9093DE0AA093DF0AB093E4
:10572000E00A898D9A8DAB8DBC8D8093CD0A9093C4
:10573000CE0AA093CF0AB093D00A89A59AA5ABA5AB
:10574000BCA58093ED0A9093EE0AA093EF0AB09364
:10575000F00A8D859E85AF85B8898093E10A909384
:10576000E20AA093E30AB093E40A8D8D9E8DAF8D7B
:10577000B8A18093D10A9093D20AA093D30AB09390
:10578000D40A8DA59EA5AFA5B8A98093F10A9093E0
:10579000F20AA093F30AB093F40A0E94D96980E058
:1057A00090E0AAE7B4E48093F90A9093FA0AA093F0
:1057B000FB0AB093FC0A80E090E0AAEFB4E4809387
:1057C000FD0A9093FE0AA093FF0AB093000B80930A
:1057D000010B9093020BA093030BB093040B20E0FA
:1057E00030E040E050E02093F50A3093F60A409311
:1057F000F70A5093F80A80E29EE4A0E0B0E08093BC
:10580000C10A9093C20AA093C30AB093C40A20931A
:10581000110B3093120B4093130B5093140B80E039
:1058200090E0A0EAB1E48093050B9093060BA0935F
:10583000070BB093080B8093090B90930A0BA0936E
:105840000B0BB0930C0B80E090E0A0EAB0E48093E7
:105850000D0B90930E0BA0930F0BB093100B209396
:105860002708309328084093290850932A0820934A
:10587000230830932408409325085093260820934A
:105880001F0830932008409321085093220880E09D
:1058900090E0A0E0B0E480935D0390935E03A0935A
:1058A0005F03B093600320935208309353084093F2
:1058B00054085093550820934E0830934F08409356
:1058C00050085093510820934A0830934B08409356
:1058D0004C0850934D0880E090E0A8EBB2E4809330
:1058E000620390936303A0936403B093650380E025
:1058F00090E0A4E4B3E48093660390936703A093DD
:105900006803B093690380E090E0A8E4B3E4809377
:105910006A0390936B03A0936C03B0936D0360E0F4
:1059200070E088EB92E420E030E044E453E40E942D
:1059300096368EEB90E09093EC128093EB1287E317
:1059400090E09093EE128093ED122FEF30E03093C1
:10595000F0122093EF1286EE90E09093F212809373
:10596000F11286E490E09093F4128093F312309356
:10597000F6122093F5128AE999E9A1EBB1E480933C
:10598000AF039093B003A093B103B093B20361E768
:105990007DE38AE89FE30E9445986093B303709388
:1059A000B4038093B5039093B60360E070E084EE97
:1059B00092E40E9451986093B7037093B803809368
:1059C000B9039093BA0380E090E0A0E8BFE380932E
:1059D000BB039093BC03A093BD03B093BE030E948E
:1059E0009A9510921E0880E090E0A0E4B0E48093C5
:1059F0003A0390933B03A0933C03B0933D030E9472
:105A00000B38EAE8F6E007C08091C00085FFFCCFC4
:105A10009093C600319694919923B1F7E9E0F6E0AE
:105A200007C08091C00085FFFCCF9093C6003196DF
:105A300094919923B1F78091C00085FFFCCF8AE053
:105A40008093C600E0960FB6F894DEBF0FBECDBFC0
:105A5000CF91DF9108954F925F926F927F928F92D4
:105A60009F92AF92BF92CF92DF92EF92FF920F93ED
:105A70001F93DF93CF93CDB7DEB766970FB6F89439
:105A8000DEBF0FBECDBF80911A0290911B02A09184
:105A90001C02B0911D028F839887A987BA87FE01E7
:105AA000339604E610E0F999FECF12BD01BDF89AD5
:105AB00080B580830F5F1F4F0836110511F03196B6
:105AC000F2CFCE010796BE016D5F7F4F43E050E0FD
:105AD0000E942314009711F0ABDD9CC380E090E09E
