:100000000C9422110C944F110C944F110C944F111D
:100010000C944F110C944F110C944F110C944F11E0
:100020000C944F110C944F110C944F110C944F11D0
:100030000C944F110C94B1E80C944F110C944F1187
:100040000C944F110C94DD900C944F110C944F11A3
:100050000C944F110C944F110C948F9B0C94FEE454
:100060000C944F110C9405320C944F110C944F11B9
:100070000C944F110C944F110C944F110C944F1180
:100080000C944F110C944F110C944F110C944F1170
:100090000C944F110C944F110C944F110C9485E15A
:1000A0000C944F110C944F110C944F110C944F1150
:1000B0000C944F110C944F110C944F110C944F1140
:1000C0000C944F110C944F110C944F110C944F1130
:1000D0000C944F110C944F110C944F110C944F1120
:1000E0000C944F11084AD73B3BCE016E84BCBFFD38
:1000F000C12F3D6C74319ABD56833DDA3D00C77FF8
:1001000011BED9E4BB4C3E916BAAAABE0000008090
:100110003F05A84CCDB2D44EB93836A9020C50B91F
:10012000918688083CA6AAAA2ABE000000803F4DFE
:10013000383420582059205A20450043616E6E6F94
:100140007420656E746572207375626469723A20FA
:10015000004D3234004D3233202573006175746FC9
:1001600025692E67006572726F72207772697469F3
:100170006E6720746F2066696C65004E6F74205343
:1001800044207072696E74696E6700534420707207
:10019000696E74696E672062797465200044656CCD
:1001A0006574696F6E206661696C65642C204669B0
:1001B0006C653A200046696C652064656C65746501
:1001C000643A006F70656E206661696C65642C200E
:1001D00046696C653A200057726974696E672074CD
:1001E0006F2066696C653A20002E0A006F70656E9C
:1001F000206661696C65642C2046696C653A200054
:100200002E0A006F70656E206661696C65642C2033
:1002100046696C653A200046696C652073656C65BB
:1002200063746564002053697A653A200046696CFE
:1002300065206F70656E65643A20006F70656E2092
:100240006661696C65642C2046696C653A20004ED5
:100250006F772066726573682066696C653A200066
:100260004E6F7720646F696E672066696C653A200F
:10027000002220706F73002220706172656E743AE4
:100280002200535542524F5554494E452043414C4C
:100290004C207461726765743A22004B494C4C459E
:1002A000442E2000747279696E6720746F20636138
:1002B0006C6C207375622D67636F64652066696C72
:1002C0006573207769746820746F6F206D616E7933
:1002D000206C6576656C732E204D4158206C6576D8
:1002E000656C2069733A0053442063617264206F27
:1002F0006B006F70656E526F6F74206661696C651C
:100300006400766F6C756D652E696E697420666128
:10031000696C656400534420696E69742066616984
:100320006C00205A0020204D005A2D50726F6265DB
:10033000204F666673657420286D6D293A00466902
:100340006C616D656E742073657474696E67733A61
:100350002044697361626C65640020204D32303046
:1003600020543120440020204D32303020440046BB
:10037000696C616D656E742073657474696E677302
:100380003A0020430020440020490020204D333013
:10039000312050002043002044002049002050001C
:1003A00020204D333031204500504944207365747E
:1003B00074696E67733A0020460020420020204D89
:1003C000313435204D3120480020460020420020A5
:1003D000204D313435204D302048004D6174657218
:1003E00069616C2068656174757020706172616DFF
:1003F00065746572733A0020530020520020204D2E
:10040000363635204C0044656C7461207365747415
:10041000696E67733A204C3D64656C74615F646912
:1004200061676F6E616C5F726F642C20523D646512
:100430006C74615F7261646975732C20533D6465EF
:100440006C74615F7365676D656E74735F70657200
:100450005F7365636F6E6400205A0020590020208E
:100460004D363636205800456E6473746F702061C7
:10047000646A7573746D656E7420286D6D293A0019
:10048000205A0020590020204D3230362058004894
:100490006F6D65206F666673657420286D6D293AEF
:1004A00000204500205A002058002042002054001F
:1004B00020204D323035205300416476616E6365F3
:1004C00064207661726961626C65733A20533D4DB8
:1004D000696E20666565647261746520286D6D2F94
:1004E00073292C20543D4D696E2074726176656CC1
:1004F00020666565647261746520286D6D2F7329AF
:100500002C20423D6D696E696D756D207365676D58
:10051000656E742074696D6520286D73292C2058D0
:100520003D6D6178696D756D205859206A65726BF3
:1005300020286D6D2F73292C20205A3D6D6178691C
:100540006D756D205A206A65726B20286D6D2F7352
:10055000292C2020453D6D6178696D756D20452001
:100560006A65726B20286D6D2F732900205400205E
:10057000520020204D323034205000416363656CBE
:1005800065726174696F6E733A20503D7072696E66
:1005900074696E672C20523D7265747261637420B9
:1005A000616E6420543D74726176656C0020450074
:1005B000205A0020590020204D3230312058004D63
:1005C0006178696D756D20416363656C65726174F6
:1005D000696F6E20286D6D2F7332293A0020450017
:1005E000205A0020590020204D3230332058004D31
:1005F0006178696D756D2066656564726174657397
:1006000020286D6D2F73293A00204500205A0020C4
:10061000590020204D3932205800537465707320E2
:1006200070657220756E69743A0048617264636F18
:100630006465642044656661756C742053657474E8
:10064000696E6773204C6F61646564002062797421
:10065000657329002073746F726564207365747408
:10066000696E6773207265747269657665642028A7
:1006700000206279746573290053657474696E672C
:10068000732053746F7265642028004572726F7214
:100690002077726974696E6720746F2045455052E7
:1006A0004F4D21004572726F723A006563686F3A70
:1006B0000020496E76616C69642065787472756497
:1006C0006572200053544F505045442E2000507204
:1006D000696E7465722073746F70706564206475E0
:1006E0006520746F206572726F72732E2046697870
:1006F00020746865206572726F7220616E64207567
:100700007365204D39393920746F207265737461B7
:1007100072742E202854656D7065726174757265EF
:100720002069732072657365742E20536574206987
:100730007420616674657220726573746172746985
:100740006E6729005072696E7465722068616C74FE
:1007500065642E206B696C6C28292063616C6C6564
:100760006421004B494C4C45442E200020746F6F8F
:10077000206C6F6E6720657874727573696F6E2078
:1007800070726576656E7465640020636F6C6420BA
:10079000657874727573696F6E2070726576656EB8
:1007A000746564006F6B00526573656E643A200077
:1007B000536C6565702E2E2E00010101000034433C
:1007C00000003443000048430000A0400000A04067
:1007D0000000A040000000000000000000004843AE
:1007E0000000B4C20000B4C2000000000000B44227
:1007F0000000B4420000484328422961636B00288E
:100800004629726F6E74002852296967687400283F
:100810004C296566740052756E6E696E6720696E4C
:10082000204452592D52554E206D6F646500473259
:1008300039204175746F20426564204C6576656C83
:10084000696E670A003F2856296572626F736520DA
:100850004C6576656C20697320696D706C61757389
:1008600069626C652028302D34292E00486F6D6533
:1008700020582F59206265666F7265205A00486FB4
:100880006D6520582F59206265666F7265205A0089
:10089000205A3A200020593A200042656420583AF4
:1008A0002000205A3A200020593A20004265642056
:1008B000583A200044656C746120473253207265B9
:1008C0006164792E00526573756D696E6720707270
:1008D000696E74005761697420666F722075736564
:1008E000722E2E2E004E6F206D6F76652E00456E97
:1008F000642066696C65206C697374004265676981
:100900006E2066696C65206C697374002569206DC2
:10091000696E2C20256920736563004B494C4C455A
:10092000442E20002042403A0020403A00202F0070
:10093000205400202F0020423A00202F0020543A5B
:10094000006F6B0048656174696E6720646F6E6547
:100950002E003F0020573A0020453A00543A004804
:10096000656174696E672E2E2E0042656420646F87
:100970006E652E0020423A0020453A00543A00426B
:1009800065642048656174696E672E0044656C7407
:1009900061204732532072656164792E0044656C92
:1009A000746120473253204F66662E004649524DEF
:1009B000574152455F4E414D453A56312E302E300B
:1009C00034204649524D574152455F55524C3A6882
:1009D0007474703A2F2F6669726D776172652E7527
:1009E0006C74696D616B65722E636F6D2050524F30
:1009F000544F434F4C5F56455253494F4E3A312E58
:100A000030204D414348494E455F545950453A477F
:100A1000325370726F2045585452554445525F43CB
:100A20004F554E543A3220555549443A30303030C3
:100A3000303030302D303030302D303030302D30BF
:100A40003030302D303030303030303030303030A9
:100A50000A00205A3A0020593A0020436F756E74FC
:100A600020583A200020453A00205A3A0020593AAE
:100A700000583A007A5F6D61783A20007A5F6D69BC
:100A80006E3A2000795F6D61783A2000785F6D6181
:100A9000783A20004D31343520533C696E646578D6
:100AA0003E206F7574206F662072616E6765202826
:100AB000302D31290053657474696E67205472615A
:100AC00076656C20416363656C65726174696F6EF5
:100AD0003A200053657474696E67205265747261C0
:100AE000637420416363656C65726174696F6E3A0B
:100AF000200053657474696E67205072696E7420AB
:100B0000416363656C65726174696F6E3A2000536E
:100B1000657474696E67205072696E7420616E64CA
:100B20002054726176656C20416363656C65726107
:100B300074696F6E3A2000486F74656E64206F664A
:100B400066736574733A004D33303020533635394F
:100B500020503230300A4D3330302053363938206F
:100B600050323030004F6666736574206170706C6F
:100B70006965642E004D33303020533430205032BC
:100B80003030004572723A20546F6F2066617221D6
:100B900000546F6F206661722066726F6D207265FF
:100BA000666572656E636520706F696E74005A20A9
:100BB0004F6666736574203A20007A5F6D61783AFB
:100BC00020007A5F6D696E3A20005A204F66667386
:100BD0006574005A204F6666736574206F6B003F22
:100BE00050726F626520257320706F736974696F2E
:100BF0006E206F7574206F662072616E67652E0AB5
:100C000000220A00556E6B6E6F776E20636F6D6DFC
:100C1000616E643A202200256920686F7572732026
:100C20002569206D696E7574657300446F6E65206B
:100C30007072696E74696E672066696C65004B49F5
:100C40004C4C45442E200053544F505045442E20C8
:100C5000005072696E7465722073746F7070656491
:100C60002064756520746F206572726F72732E2018
:100C700046697820746865206572726F7220616EB3
:100C80006420757365204D39393920746F20726581
:100C900073746172742E202854656D70657261746E
:100CA0007572652069732072657365742E205365B3
:100CB0007420697420616674657220726573746152
:100CC0007274696E6729004E6F204C696E65204E04
:100CD000756D626572207769746820636865636BFF
:100CE00073756D2C204C617374204C696E653A20CD
:100CF000004E6F20436865636B73756D2077697470
:100D000068206C696E65206E756D6265722C204C72
:100D1000617374204C696E653A2000636865636B8B
:100D200073756D206D69736D617463682C204C61FF
:100D30007374204C696E653A20004C696E65204ED4
:100D4000756D626572206973206E6F74204C6173DB
:100D500074204C696E65204E756D6265722B312C66
:100D6000204C617374204C696E653A20004D31311E
:100D700030006F6B00446F6E6520736176696E673B
:100D80002066696C652E004D3239002020506C6160
:100D90006E6E657242756666657242797465733A05
:100DA00020002046726565204D656D6F72793A208E
:100DB000004649524D574152455F4E414D453A56C6
:100DC000312E302E3034204649524D574152455F26
:100DD00055524C3A687474703A2F2F6669726D7769
:100DE0006172652E756C74696D616B65722E636FCF
:100DF0006D2050524F544F434F4C5F56455253490C
:100E00004F4E3A312E30204D414348494E455F54B4
:100E10005950453A47325370726F204558545255D5
:100E20004445525F434F554E543A3220555549443C
:100E30003A30303030303030302D303030302D30AE
:100E40003030302D303030302D30303030303030A8
:100E500030303030300A004E6F7620313120323061
:100E6000313600436F6D70696C65643A2000284824
:100E70006F67616E2C2044656C74612900207C20B2
:100E8000417574686F723A20004E6F7620313120C0
:100E9000323031362031323A30303A303200204C64
:100EA00061737420557064617465643A2000205643
:100EB000312E302E3034004D61726C696E0020533B
:100EC0006F66747761726520526573657400205790
:100ED00061746368646F67205265736574002042B3
:100EE000726F776E206F7574205265736574002081
:100EF00045787465726E616C20526573657400503C
:100F00006F776572557000737461727400220065AA
:100F10006E7175657565696E6720220020746F6F4C
:100F2000206C6F6E6720657874727573696F6E20C0
:100F300070726576656E7465640020636F6C642002
:100F4000657874727573696F6E2070726576656E00
:100F5000746564007C3C3E5E2B3D3F2F5B5D3B2C0B
:100F60002A225C0045303A20005A3A2000593A20A3
:100F700000583A20004D53312C4D53322050696EA9
:100F8000730A004D383420582059205A2045002437
:100F9000F404D9201BC40C5C0E9804C4095F0265DC
:100FA000077101F405F900FB04B30048048700C190
:100FB0000369005803550003034500BE023A00844C
:100FC00002310053022A002902250004022000E415
:100FD000011C00C8011900AF01170098011400841A
:100FE000011300710110006101100051010E004356
:100FF000010D0036010B002B010B0020010B001529
:101000000109000C01090003010800FB000800F3BE
:10101000000800EB000700E4000600DE000600D830
:10102000000600D2000600CC000500C7000500C283
:10103000000500BD000400B9000400B5000400B1C3
:10104000000400AD000400A9000400A5000300A2F4
:101050000003009F0004009B00030098000300951C
:1010600000020093000300900003008D0002008B3B
:101070000003008800020086000200840003008153
:101080000002007F0002007D0002007B0002007968
:101090000002007700010076000200740002007276
:1010A000000100710002006F0002006D0001006C81
:1010B0000002006A0001006900020067000100668A
:1010C000000100650001006400020062000100618F
:1010D000000100600001005F0002005D0001005C93
:1010E0000001005B0001005A000100590001005896
:1010F0000001005700010056000100550001005496
:101100000001005300000053000100520001005193
:10111000000100500001004F0001004E0000004E91
:101120000001004D0001004C0001004B0000004B8D
:101130000001004A00010049000100480000004889
:101140000001004700010046000000460001004584
:10115000000000450001004400010043000000437E
:101160000001004200000042000100410000004177
:10117000000100400001003F0000003F0001003E70
:101180000000003E0001003D0000003D0001003C69
:101190000000003C0000003C0001003B0000003B60
:1011A0000001003A0000003A000100390000003957
:1011B000000100380000003800000038000100374E
:1011C0000000003700010036000000360000003645
:1011D000000100350000003500000035000100343A
:1011E0000000003400000034000100330000003330
:1011F0000000003300010032000000320000003225
:101200000001003100000031000000310001003019
:1012100000000030000000300001002F0000002F0F
:101220000000002F0000002F0001002E0000002E03
:101230000000002E0001002D0000002D0000002DF8
:101240000000002D0001002C0000002C0000002CEC
:101250000000002C0001002B0000002B0000002BE0
:101260000000002B0001002A0000002A0000002AD4
:101270000000002A000100290000002900000029C8
:1012800000000029000000290001002800000028BB
:1012900000000028000000280000002800010027AE
:1012A00000000027000000270000002700000027A2
:1012B0000001002600000026000000260000002695
:1012C0000000002600010025000000250000002588
:1012D000000000250000002500000025000100247A
:1012E000000000240000002400000024000000246E
:1012F0000001002300000023000000230000002361
:101300000000002300000023000000230001002251
:101310000000002200000022000000220000002245
:101320000000002200010021000000210000002137
:101330000000002100000021000000210000002129
:10134000000100200000002000000020000000201C
:10135000000000200000002000000020000000200D
:101360000001001F0000001F0000001F0000001F00
:101370000000001F0000001F0000001F0001001EF1
:101380000000001E0000001E0000001E00000024DF
:10139000F4D43050C38E20C2A24017828B70111239
:1013A0007A910D816CD90AA861E108C75866076176
:1013B0005143061E4B5D05C145A7041A411104099E
:1013C0003D9803713931034036DB0265339102D415
:1013D000305402802E1D02632CEE01752AC501B027
:1013E00028A001102781018F2564012B244B01E0E7
:1013F000223401AC211F018D200D01801FFC0084CF
:101400001EED00971DDF00B81CD200E61BC60020B1
:101410001BBC00641AB200B219A8000A19A0006A25
:10142000189900D117910040178B00B51684003130
:10143000167E00B31579003A157300C7146F005873
:10144000146A00EE1366008813630025135E00C75C
:10145000125B006C12570015125400C1115100703C
:10146000114F0021114B00D61049008D1047004646
:1014700010440002104200C00F4000800F3E0042A6
:101480000F3C00060F3B00CB0E3800930E37005C7C
:101490000E3500270E3400F30D3200C10D310090DF
:1014A0000D3000600D2E00320D2D00050D2C00D9E1
:1014B0000C2B00AE0C2900850C29005C0C27003594
:1014C0000C27000E0C2600E80B2400C40B2400A0FF
:1014D0000B23007D0B23005A0B2100390B21001830
:1014E0000B2000F80A1F00D90A1E00BB0A1E009D2F
:1014F0000A1D00800A1D00630A1C00470A1B002CFD
:101500000A1B00110A1A00F7091A00DD091900C4A4
:10151000091900AB091900920917007B091800632B
:101520000917004C09160036091600200916000A92
:10153000091500F5081500E0081400CC081400B8DF
:10154000081400A4081400900813007D0812006B12
:10155000081300580812004608120034081100232E
:101560000811001208110001081100F0071000E036
:10157000071000D0071000C0071000B0070F00A12F
:1015800007100091070E0083070F0074070F006516
:10159000070E0057070E0049070E003B070D002EEF
:1015A000070E0020070D0013070D0006070D00F9B8
:1015B000060C00ED060D00E0060C00D4060C00C879
:1015C000060C00BC060C00B0060C00A4060B00992B
:1015D000060C008D060B0082060B0077060B006CD4
:1015E000060B0061060A0057060B004C060A004273
:1015F000060A0038060A002E060A0024060A001A07
:10160000060A001006090007060A00FD050900F495
:10161000050900EB050900E2050900D9050900D01C
:10162000050900C7050900BE050900B5050800AD9C
:10163000050800A50509009C050800940508008C14
:10164000050800840508007C050800740508006C86
:10165000050700650508005D050700560508004EF2
:101660000507004705070040050800380507003159
:101670000507002A050700230507001C05060016BC
:101680000507000F0507000805060002050700FB17
:10169000040600F5040700EE040600E8040600E274
:1016A000040700DB040600D5040600CF040600C9C9
:1016B000040600C3040600BD040600B7040600B11A
:1016C000040500AC040600A6040600A00405009B67
:1016D00004060095040500900406008A04050085B0
:1016E000040500800406007A0405007504050070F6
:1016F0000405006B04050066040500610405005C38
:1017000004050057040500520405004D0405004877
:10171000040500430405003E0404003A04050035B6
:10172000040500300404002C0405002704040023F1
:101730000405001E0404001A040400160405001128
:101740000404000D0404000904050004040400005E
:10175000040400FC030400F8030400F4030400F094
:10176000030400EC030400E8030400E4030400E0C5
:10177000030400DC030400D8030400D4030400D0F5
:10178000030400CC030400C8030300C50303006581
:101790006E6473746F7073206869743A205A002005
:1017A0005A3A00656E6473746F7073206869743A96
:1017B00020590020593A00656E6473746F7073206D
:1017C0006869743A20580020583A00656E64737452
:1017D0006F7073206869743A20004572723A204D28
:1017E000494E54454D5020424544004D494E5445C4
:1017F0004D50207472696767657265640045727246
:101800003A204D415854454D5020424544004D41E9
:101810005854454D5020747269676765726564005D
:10182000626564002C2073797374656D2073746F26
:101830007070656421204865617465725F49443A3F
:1018400020004B494C4C45442E2000202D20496E51
:1018500076616C6964206578747275646572206E57
:10186000756D62657220210070012C0190012701C5
:10187000B0012201C0011D01F00118011002130185
:1018800030020E016002090190020401C002FF0053
:101890000003FA004003F5008003F000D003EB00E2
:1018A0002004E6007004E100E004DC004005D700FD
:1018B000C005D2004006CD00D006C8008007C30096
:1018C0003008BE00F008B900C009B400B00AAF008B
:1018D000B00BAA00D00CA500000EA000500F9B007A
:1018E000C01096005012910000148C00C0158700A3
:1018F000B0178200B0197D00D01B7800001E730065
:1019000040206E0090226900F024640040275F00B0
:1019100090295A00E02B5500102E500020304B002B
:1019200010324600E033410090353C00103737005C
:1019300070383200A0392D00B03A2800A03B2300B7
:10194000603C1E00103D1900903D1400103E0F0039
:10195000703E0A00C03E0500003F00004572723A2A
:10196000204D494E54454D50004D494E54454D5023
:1019700020747269676765726564004572723A2007
:101980004D415854454D50004D415854454D5020FF
:10199000747269676765726564004B642000236434
:1019A0006566696E65202044454641554C545F008C
:1019B0004B69200023646566696E652020444546B6
:1019C00041554C545F004B70200023646566696E7E
:1019D00065202044454641554C545F005049442001
:1019E0004175746F74756E652066696E697368659C
:1019F00064212050757420746865206C61737420B4
:101A00004B702C204B6920616E64204B6420636F07
:101A10006E7374616E74732066726F6D2062656C94
:101A20006F7720696E746F20436F6E666967757299
:101A30006174696F6E2E6800504944204175746F5F
:101A400074756E65206661696C6564212074696DCA
:101A5000656F75740020403A006F6B20543A006F38
:101A60006B20423A00504944204175746F74756E82
:101A700065206661696C6564212054656D706572CE
:101A8000617475726520746F6F20686967680020E3
:101A90004B643A2000204B693A2000204B703A20DA
:101AA0000020436C61737369632050494420002017
:101AB00054753A2000204B753A2000206D61783A29
:101AC0002000206D696E3A200020643A20002062D8
:101AD0006961733A20002D2D3A2D2D002D2D2D00FA
:101AE0005344002D2D2D2E2D2D000120000120000E
:101AF0000120004E6F2053442063617264005072D5
:101B0000696E742066726F6D2053440053746F7059
:101B1000207072696E7400526573756D6520707205
:101B2000696E74005061757365207072696E74001F
:101B3000436F6E74726F6C005072657061726500F5
:101B400054756E6500496E666F2073637265656ECD
:101B5000005072696E742066726F6D20534400509D
:101B600072696E742066726F6D20534400052E2ECC
:101B7000004D61696E004D3234004D3233202573C3
:101B800000526573746F7265206661696C7361667B
:101B900065004C6F6164206D656D6F7279005374E0
:101BA0006F7265206D656D6F72790046696C616D4D
:101BB000656E74004D6F74696F6E0054656D70656D
:101BC000726174757265004D61696E0046696C2EB4
:101BD000204469612E20320046696C2E20446961E0
:101BE0002E20320046696C2E204469612E2031007F
:101BF00046696C2E204469612E2031004F666600D4
:101C00004F6E20004520696E206D6D3300436F6E6E
:101C100074726F6C004573746570732F6D6D004541
:101C200073746570732F6D6D005A73746570732FC4
:101C30006D6D005A73746570732F6D6D00597374F8
:101C40006570732F6D6D005973746570732F6D6DB2
:101C5000005873746570732F6D6D005873746570E0
:101C6000732F6D6D00412D74726176656C00412D8E
:101C700074726176656C00412D7265747261637473
:101C800000412D7265747261637400416D6178204A
:101C90006500416D6178206500416D6178207A00B2
:101CA000416D6178207A00416D6178207900416D45
:101CB0006178207900416D6178207800416D61780C
:101CC0002078005654726176206D696E0056547209
:101CD0006176206D696E00566D696E00566D696E95
:101CE00000566D6178206500566D6178206500565C
:101CF0006D6178207A00566D6178207A00566D61AA
:101D000078207900566D6178207900566D617820D1
:101D10007800566D617820780056652D6A65726B83
:101D20000056652D6A65726B00567A2D6A65726B76
:101D300000567A2D6A65726B005678792D6A657245
:101D40006B005678792D6A65726B00416363656C30
:101D500000416363656C005A204F666673657400CA
:101D60005A204F666673657400436F6E74726F6CB1
:101D700000507265686561742041425320636F6E44
:101D800066005072656865617420504C4120636F35
:101D90006E66005049442D43005049442D43005085
:101DA00049442D44005049442D44005049442D4994
:101DB000005049442D49005049442D500050494499
:101DC0002D500020022046616374002002204661ED
:101DD0006374002002204D6178002002204D61785C
:101DE000002002204D696E002002204D696E004FD8
:101DF0006666004F6E20004175746F74656D7000EB
:101E000046616E2073706565640046616E20737074
:101E10006565640042656400426564004E6F7A7ACD
:101E20006C652032004E6F7A7A6C652032004E6FFE
:101E30007A7A6C65004E6F7A7A6C6500436F6E74C7
:101E4000726F6C0053746F7265206D656D6F72797F
:101E50000042656400426564004E6F7A7A6C6500EA
:101E60004E6F7A7A6C650046616E207370656564AA
:101E70000046616E2073706565640054656D706521
:101E80007261747572650053746F7265206D656D53
:101E90006F72790042656400426564004E6F7A7A21
:101EA0006C65004E6F7A7A6C650046616E207370C7
:101EB0006565640046616E207370656564005465F5
:101EC0006D7065726174757265004D3830005377BE
:101ED0006974636820706F776572206F6E004D388B
:101EE000310053776974636820706F776572206F73
:101EF000666600436F6F6C646F776E005072656842
:101F000065617420414253005072656865617420B8
:101F1000504C41004D38340044697361626C652057
:101F20007374657070657273004D6F7665206178AB
:101F3000697300473239004C6576656C20626564D0
:101F40000053657420686F6D65206F6666736574F5
:101F50007300473238004175746F20686F6D6500FB
:101F60004D61696E0050726568656174204142532D
:101F70002042656400507265686561742041425377
:101F800020416C6C00507265686561742041425359
:101F900020320050726568656174204142532031DF
:101FA0000050726570617265005072656865617499
:101FB00020504C4120426564005072656865617430
:101FC00020504C4120416C6C005072656865617412
:101FD00020504C4120320050726568656174205079
:101FE0004C4120310050726570617265004D6F7612
:101FF0006520302E316D6D004D6F766520316D6D31
:10200000004D6F76652031306D6D005072657061E6
:102010007265004578747275646572004D6F7665FF
:10202000205A004D6F76652059004D6F7665205817
:10203000004D6F766520617869730045787472751C
:10204000646572005A0059005800466C6F77203161
:1020500000466C6F77203100466C6F772030004669
:102060006C6F77203000466C6F7700466C6F77009E
:1020700046616E2073706565640046616E20737002
:102080006565640042656400426564004E6F7A7A5B
:102090006C652032004E6F7A7A6C652032004E6F8C
:1020A0007A7A6C65004E6F7A7A6C6500537065655C
:1020B00064005370656564004D61696E0043617230
:1020C000642072656D6F7665640043617264206997
:1020D0006E736572746564004D34323800000021FF
:1020E00000240027002A002D0030003300010100E9
:1020F00000040107010A0100002200250028002B2E
:10210000002E003100340002010000050108010B1F
:1021100001000020002300260029002C002F00329F
:10212000000001000003010601090105050505077E
:102130000508080808020202020A0A080804040442
:10214000040101010101010101030303030303036E
:1021500003040707070C0C0C0C0C0C0C0C020202FD
:102160000206060606060606060B0B0B0B0B0B0BF0
:102170000B0102102020080810204010204080028F
:1021800001020108040201010204081020408080BD
:102190004020100804020180040201804020100841
:1021A0000402010804020101020408102040800119
:1021B000020408102040800000090A02080B0C0DE0
:1021C00007060304010000000000000000000000FA
:1021D00000000000000000000000000000000000FF
:1021E00000000011100F00000000000000000000BF
:1021F0000000000000000000000000000002494E46
:1022000046494E4954594E414ECDCCCC3D0AD72378
:102210003C17B7D13877CC2B329595E6241FB14FB8
:102220000A000020410000C84200401C4620BCBEFD
:102230004CCA1B0E5AAEC59D74009932E1395EAD91
:10224000F4E0DC3911241FBECFEFD1E2DEBFCDBFF9
:1022500000E00CBF15E0A0E0B2E0E2EDF2EE01E03C
:102260000BBF02C007900D92A031B107D9F71BBE7A
:1022700014E1A0E1B5E001C01D92A739B107E1F773
:1022800012E2C2E4D2E204C02297FE010E940FF1E2
:10229000CA33D107C9F70E940BE80C945DF10C9486
:1022A0000000A0E0B0E0E7E5F1E10C942CF1EC01D6
:1022B0005B016115710519F0FB0191838083F99031
:1022C0008F2D90E00E9413F1892BC9F7FDE2FF16D4
:1022D00021F4F990EE24E39405C02BE2F21609F400
:1022E000F990EE248E0101501040C8016EEF71E2AA
:1022F00043E050E062D2892BF9F48E010E5F1F4F4C
:10230000C80161E072E245E050E057D2892B19F430
:102310008E01095F1F4FA114B10419F0F50111835B
:102320000083E0FC04C070E090E080E813C070E03F
:1023300090E080E86FEF07C1C80166E072E243E019
:1023400050E03BD2892B69F4A114B10429F470E068
:1023500090E080EC6FE7F7C02296F501D183C0834F
:10236000F6CF8824992440E050E060E070E0EF2D43
:10237000E053EA30A0F5F2E0EF2A8E2D90E09C01C8
:1023800028703070E2FE06C0232B79F50894811C7A
:10239000911C2BC0232B19F0089481089108DB01B4
:1023A000CA0112E0880F991FAA1FBB1F1A95D1F707
:1023B000480F591F6A1F7B1F440F551F661F771F49
:1023C0004E0F511D611D711D483929E9520729E938
:1023D000620729E1720748F084E0E82A06C0EE3F70
:1023E00031F4E3FC39C098E0E92AF990C0CFE53335
:1023F00011F0E53189F529912D3219F4E0E1EE2A49
:1024000005C02B3219F081E090E003C0299182E0F1
:1024100090E0E22FE053EA3018F0C81BD90B1CC043
:1024200020E030E0FCE020383F075CF4C901880F71
:10243000991F880F991F280F391F220F331F2E0F46
:10244000311DE991E053EA3068F3E4FE03C03095B2
:1024500021953F4F820E931ECE2CDD24E1FE07C056
:10246000A114B10421F02197F501D183C083CB01E0
:10247000BA010E9478ED7B018C01F3E0CF22DD24CC
:1024800023E0C216D10421F417FB109517F910951B
:1024900057016801C801B70120E030E040E050E09A
:1024A0000E94D8EC882309F44AC097FE0DC02DE1A4
:1024B000E22E22E2F22E9094819491089394C0E24D
:1024C000D0E000E010E012C095E3E92E92E2F92E90
:1024D000F6CFF7012591359145915491C601B5018B
:1024E0000E94B8EF5B016C018C1A9D0A8C169D0648
:1024F00084F7D595C7950F5F1F4F0630110529F05A
:102500008CEF9FEFE80EF91EF1CFC501D6017C01DB
:102510008D018C2D880F8D2D881F8F3F51F0C601A6
:10252000B50120E030E040E050E00E94D8EC882384
:1025300031F482E290E090939614809395147E2D6E
:102540009F2D802F612F272F392F482F562FB9010C
:10255000CA01CDB7DEB7ECE00C9448F12F923F9260
:102560005F926F927F928F929F92AF92BF92CF9223
:10257000DF92EF92FF920F931F93CF93DF938C0123
:102580001B01EA016115710519F0FB01918380833C
:10259000209749F0CE010297839728F020E030E0A1
:1025A00040E050E0F6C0F801A1908F018A2D90E044
:1025B0000E9413F1892BB9F7FDE2AF1631F4F8014F
:1025C000A1908F015524539407C0FBE2AF1619F474
:1025D000F801A1908F015524209719F0C031D10541
:1025E000C1F4F0E3AF1679F4F8018081883711F077
:1025F000883549F4F801A1800E5F1F4FF2E05F2A91
:10260000C0E1D0E006C0209721F480E3A816E9F4E9
:1026100027C0C830D10531F1C930D10524F4C2300A
:10262000D10531F50CC0CA30D10589F0C031D105D2
:10263000F9F4C12CD12CE12CB8E0FB2E28C0C12C20
:10264000D12CE12CA0E4FA2E22C0CAE0D0E0FCECB0
:10265000CF2EFCECDF2EFCECEF2EFCE0FF2E17C0A3
:10266000C8E0D0E0C12CD12CE12CE0E1FE2E0FC05F
:102670009E01442737FD4095542F60E070E080E0D4
:1026800090E80E94D0F0C901DA016C017D0120E0E0
:1026900030E040E050E060E03E01882477FC809428
:1026A000982C70EDB72EBA0CE9E0EB1570F48A2D7A
:1026B00081548A3118F499ECB92E06C08A2D8156BE
:1026C0008A3150F589EAB82EBA0C8B2D90E08C1720
:1026D0009D0714F56F3FE1F0C216D306E406F50638
:1026E000B0F0CA01B901A40193010E948AF09B01D4
:1026F000AC012B0D311D411D511D2130F0E03F0774
:10270000F0E04F07F0E85F0710F461E001C06FEF01
:10271000F801A1908F01C5CF2114310481F0662307
:1027200031F001501040F1011183008308C051FEC7
:102730001AC002501040F1011183008314C067FFDA
:1027400012C050FC05C02FEF3FEF4FEF5FE704C012
:1027500020E030E040E050E882E290E09093961470
:102760008093951416C050FE08C050954095309542
:1027700021953F4F4F4F5F4F0CC057FF0AC082E279
:1027800090E090939614809395142FEF3FEF4FEFC6
:102790005FE7B901CA01DF91CF911F910F91FF90BF
:1027A000EF90DF90CF90BF90AF909F908F907F90F1
:1027B0006F905F903F902F900895FB01DC01415096
:1027C000504088F08D9181341CF08B350CF4805E84
:1027D000659161341CF06B350CF4605E861B6111F1
:1027E00071F3990B0895881BFCCFFB01DC0141506C
:1027F000504048F005900D920020C9F701C01D928D
:1028000041505040E0F70895FB0155915523A9F040
:10281000BF01DC014D9145174111E1F759F4CD019C
:102820000590002049F04D9140154111C9F3FB017D
:102830004111EFCF81E090E001970895FB01DC01A9
:1028400004C08D910190801921F441505040C8F787
:10285000881B990B0895FB01DC0102C001900D92C9
:1028600041505040D8F70895FB01DC018D9181342F
:102870001CF08B350CF4805E619161341CF06B357B
:102880000CF4605E861B611189F3990B0895FB01BE
:10289000DC010D900020E9F7119701900D920020C6
:1028A000E1F70895FC018191861721F08823D9F77B
:1028B000992708953197CF010895FB01DC018D918F
:1028C000019080190110D9F3990B0895FB01DC01E7
:1028D00001900D920020E1F70895FB01DC014150C9
:1028E000504030F08D910190801919F40020B9F713
:1028F000881B990B0895FB01DC014150504048F0C2
:1029000001900D920020C9F701C01D924150504026
:10291000E0F70895AEE0B0E0E0E9F4E10C9434F1C2
:102920000E891F898EE08C831A8309838FEF9FE7BE
:102930009E838D839E01265E3F4FCE010196688D5A
:10294000798DA9010AD02F813885020F131FF80154
:1029500010822E96E4E00C9450F1ABE0B0E0E3EB93
:10296000F4E10C9426F13C012B015A01FC01178281
:102970001682838181FD03C06FEF7FEFB9C19AE0BA
:10298000892E1E010894211C311CF3012381F201C0
:1029900023FD859123FF81912F01882309F4A5C18F
:1029A000853239F423FD859123FF81912F018532F2
:1029B00021F490E0B301B7D1E8CF982FFF24EE24A3
:1029C0009924FFE1FF15D0F09B3269F09C3228F486
:1029D000903259F0933291F40EC09D3249F0903309
:1029E00069F441E024C052E0F52A84E0F82A28C0C6
:1029F00098E0F92A25C0E0E1FE2A22C0F7FC29C0B0
:102A0000892F80538A3070F4F6FE05C0989C902C74
:102A10001124980E15C0E89CE02C1124E80EF0E279
:102A2000FF2A0EC09E3229F4F6FC5FC140E4F42A6E
:102A300007C09C3619F450E8F52A02C0983649F4CC
:102A4000F20123FD959123FF91912F01992309F024
:102A5000B8CF892F8554833018F08052833038F4F2
:102A600044E050E0A40EB51E5FE359830FC09336D7
:102A700031F0933779F0933509F052C01FC0F5015A
:102A80008081898342E050E0A40EB51E610101E01F
:102A900010E011C0F501C080D180F6FC03C06FEFDB
:102AA0007FEF02C0692D70E042E050E0A40EB51E39
:102AB000C6012ED18C015FE7F52213C0F501C0805D
:102AC000D180F6FC03C06FEF7FEF02C0692D70E08C
:102AD00042E050E0A40EB51EC6010FD18C0150E8B3
:102AE000F52AF3FE06C018C080E290E0B3011BD1C6
:102AF000EA948E2D90E008171907B0F30DC0F60187
:102B0000F7FC8591F7FE81916F0190E0B3010BD145
:102B1000E110EA94015010400115110581F7E2C05F
:102B2000943611F0993661F5F7FE08C0F501208161
:102B300031814281538184E090E00AC0F5018081B7
:102B400091819C01442737FD4095542F82E090E00D
:102B5000A80EB91E9FE6F92257FF09C0509540956F
:102B6000309521953F4F4F4F5F4FE0E8FE2ACA0155
:102B7000B901A1012AE030E002D1D82ED2183FC01D
:102B8000953729F41F2D1F7E2AE030E01DC01F2D30
:102B9000197F9F3661F0903720F4983509F0A5C071
:102BA0000FC0903739F0983709F09FC004C028E073
:102BB00030E00AC0106114FD146020E130E004C070
:102BC00014FD166020E132E017FF08C0F5016081B6
:102BD00071818281938144E050E008C0F5018081D9
:102BE0009181BC0180E090E042E050E0A40EB51E6F
:102BF000A101C5D0D82ED2188FE7F82EF122F6FE0B
:102C00000BC05EEFF522D91438F4F4FE07C0F2FCD5
:102C100005C08FEEF82202C01D2D01C0192DF4FE53
:102C20000DC0FE01ED0DF11D8081803319F499EE88
:102C3000F92208C01F5FF2FE05C003C08F2D867801
:102C400009F01F5F0F2DF3FC13C0F0FE0EC01E1520
:102C500010F09D2C0AC09D2C9E0C911A1E2D05C0B3
:102C600080E290E0B3015FD01F5F1E15C8F304C07F
:102C70001E1510F4E11A01C0EE2404FF0EC080E31B
:102C800090E0B30150D002FF1BC001FD03C088E7F4
:102C900090E00EC088E590E00BC0802F867881F030
:102CA00001FF02C08BE201C080E2F7FC8DE290E000
:102CB000B30139D005C080E390E0B30134D09A94D9
:102CC000D914C8F3DA94F101ED0DF11D808190E083
:102CD000B30129D0DD20B1F705C080E290E0B30157
:102CE00022D0EA94EE20C9F750CEF30166817781B5
:102CF000CB012B96E2E10C9442F1FC01059061506E
:102D000070400110D8F7809590958E0F9F1F089501
:102D1000FC016150704001900110D8F780959095AA
:102D20008E0F9F1F08950F931F93CF93DF938C01F6
:102D3000EB018B8181FF1BC082FF0DC02E813F8183
:102D40008C819D812817390764F4E881F98101930A
:102D5000F983E88306C0E885F985802F1995892BCA
:102D600031F48E819F8101969F838E8302C00FEF85
:102D70001FEFC801DF91CF911F910F910895FA01C4
:102D8000AA27283051F1203181F1E8946F936E7FAA
:102D90006E5F7F4F8F4F9F4FAF4FB1E03ED0B4E09B
:102DA0003CD0670F781F891F9A1FA11D680F791FDC
:102DB0008A1F911DA11D6A0F711D811D911DA11DED
:102DC00020D009F468943F912AE0269F11243019FD
:102DD000305D3193DEF6CF010895462F4770405D98
:102DE0004193B3E00FD0C9F7F6CF462F4F70405D47
:102DF0004A3318F0495D31FD4052419302D0A9F7A2
:102E0000EACFB4E0A6959795879577956795BA959B
:102E1000C9F700976105710508959B01AC010A2E61
:102E200006945795479537952795BA95C9F7620F38
:102E3000731F841F951FA01D0895FC011282138229
:102E40000895FC018381882311F081E08283089535
:102E5000FC018281811112820895CF93DF93DC01FE
:102E6000FC01EB55FE4F808191810097C9F10197DC
:102E700091838083ED01CC5ADF4FFD01ED58FF4F68
:102E80008BE1019009928150E1F7FD01EE5AFF4F6D
:102E9000AF58BF4F8D919C911197A157B04091832E
:102EA0008083FD01ED58FF4F20E030E0AD014B5530
:102EB0005E4F10C02F5F3F4FEF01DF015F968BE148
:102EC0000D9009928150E1F7858D968D329791830F
:102ED0008083B196DA018D919C912817390750F3C0
:102EE000DF91CF910895FC0185E994E0918380837F
:102EF0008781882321F0CF0104960C94B78208952E
:102F0000CF92DF92EF92FF920F931F93DF93CF93B5
:102F1000CDB7DEB76F970FB6F894DEBF0FBECDBF4B
:102F20008C017B01095A1F4FD8018C910755104025
:102F3000882321F42FE2C22ED12C03C090E5C92EA4
:102F4000D12CC00ED11E85E994E09A8389831C821E
:102F50001B8218861D82B6016C5F7F4FCE010596DD
:102F6000A70121E00E949989882381F5EBEAF6E028
:102F700007C08091C00085FFFCCF9093C6003196BA
:102F800094919923B1F7EBE3F1E007C08091C00081
:102F900085FFFCCF9093C600319694919923B1F7A9
:102FA00009C08091C00085FFFCCF0894E11CF11C92
:102FB0009093C600F7019081992399F78091C00002
:102FC00085FFFCCF8AE08093C6005AC0F801EB551C
:102FD000FE4F208131812A30310508F040C02F5F3B
:102FE0003F4F3183208321503040F90185E0EE0FBF
:102FF000FF1F8A95E1F7E21BF30BED58FF4FE00F3F
:10300000F11F13C0AF01415E5F4FBF018BE1DB01D8
:103010000D90BD01DA010D92AD018150C1F7929181
:1030200082913296968F858F7F9721503040BFEFE7
:103030002E3F3B0739F7D801AD58BF4FF601349604
:103040008BE101900D928150E1F70F581F4FF6016F
:1030500082819381D8018D939C9301571040D801B0
:10306000AC5ABF4FFE0135968BE101900D92815015
:10307000E1F70E5A1F4F8B819C81F8019183808369
:10308000CE01019630DF6F960FB6F894DEBF0FBE0B
:10309000CDBFCF91DF911F910F91FF90EF90DF9007
:1030A000CF900895EF92FF920F931F938C013EEC07
:1030B000E32E31E0F32EE80EF91EC7010E946A826A
:1030C000C7010E94B782F801118210821F910F91EF
:1030D000FF90EF900895CF92DF92EF92FF920F93BF
:1030E0001F93CF93DF937C016B01DB010D900020D8
:1030F000E9F78D0101501040061B170BEEECF1E0D3
:10310000EE0EFF1ED7011C92E2E3FEEFEE0EFF1E55
:10311000CB016EE470E0C6DBEC01009731F4F801FE
:103120003197EC0DFD1D86010CC060E270E0BADB4A
:103130008C010F5F1F4FCE016AE270E0B3DBFC0130
:1031400031978DE081838AE082831382C7018653A1
:103150009E4FB8010E94AA8A8EEC91E0E80EF91EFB
:10316000D7018C91882309F1E4EAF6E007C0809149
:10317000C00085FFFCCF9093C600319694919923AF
:10318000B1F7E5E6F1E007C08091C00085FFFCCF14
:103190009093C600319694919923B1F78091C00025
:1031A00085FFFCCF8AE08093C600DF91CF911F910D
:1031B0000F91FF90EF90DF90CF900895CF93DF9322
:1031C000EC018B81882319F4EBE7F1E03AC0EBE8DE
:1031D000F1E007C08091C00085FFFCCF9093C6004E
:1031E000319694919923B1F7CD57DD4F488159819C
:1031F0006A817B81C358D24084E995E02AE030E0BF
:103200000E9432338091C00085FFFCCF8FE2809313
:10321000C600C558DD4F488159816A817B8184E9A8
:1032200095E02AE030E00E9432338091C00085FFB3
:10323000FCCF0EC08091C00085FFFCCF9093C600EC
:10324000319694919923B1F78091C00085FFFCCF0E
:103250008AE08093C600DF91CF9108952F923F922C
:103260004F925F926F927F928F929F92AF92BF9296
:10327000CF92DF92EF92FF920F931F93DF93CF9342
:10328000CDB7DEB7AC970FB6F894DEBF0FBECDBF9B
:103290005C014B01FC018381882309F41CC1C50139
:1032A00082539E4F0E94B782F50112821A8A1D8AAC
:1032B000198A188A85E994E09F878E875EE4C52E77
:1032C000D12CCA0CDB1C2FE230E0A20EB31EF6019B
:1032D000B182A08221ED3FEFA20EB31EF4018081E6
:1032E0008F3209F07EC0C4016FE270E0DBDA7C014E
:1032F0000894E11CF11C3E010894611C711C26011C
:1033000042E1242E312C2C0E3D1E66C0C7016FE217
:1033100070E0C8DA6C01009709F471C0E816F9068C
:1033200008F06DC08C010E191F09C301B701A80177
:10333000E2DA060D171DF8011082F30107C0809133
:10334000C00085FFFCCF31969093C60090819923F1
:10335000B1F78091C00085FFFCCFFAE0F093C60082
:10336000F201608171816115710519F460E070E00E
:1033700002C06C5F7F4FC101A30121E00E949989C7
:103380008823F9F4E3ECF1E007C08091C00085FFE9
:10339000FCCF9093C600319694919923B1F7FE012A
:1033A000319607C08091C00085FFFCCF3196909385
:1033B000C60090819923B1F78091C00085FFFCCFB2
:1033C00084C02EE030E02C0F3D1FF20131832083BA
:1033D00076010894E11CF11CE114F10409F096CF88
:1033E0000BC080E590E0A80EB91EF601B182A08264
:1033F00020EB3FEFA20EB31ED82C092D02C0DE2C0D
:103400000F2D8EE490E0A80EB91EF5018081918108
:1034100022EB3FEFA20EB31E009719F480E090E07C
:1034200001C004966D2D702F0E94658A882319F4BF
:10343000EDE9F1E034C0E5EBF1E007C08091C000B8
:1034400085FFFCCF9093C600319694919923B1F7F4
:103450008D2D902F9C01F90107C08091C00085FF40
:10346000FCCF31969093C60090819923B1F780915B
:10347000C00085FFFCCF8AE08093C60083E892E01D
:10348000A80EB91EF501108211821282138220C08B
:103490008091C00085FFFCCF9093C6003196949137
:1034A0009923B1F78D2D902F9C01F90107C08091D0
:1034B000C00085FFFCCF31969093C6009081992380
:1034C000B1F78091C00085FFFCCF8EE28093C600EB
:1034D000CE010E9608DDAC960FB6F894DEBF0FBE97
:1034E000CDBFCF91DF911F910F91FF90EF90DF90B3
:1034F000CF90BF90AF909F908F907F906F905F9094
:103500004F903F902F900895BF92CF92DF92EF920D
:10351000FF920F931F93CF93DF938C01EB018FE208
:103520008993EE24E394FF2475EAC72E71E0D72E29
:10353000C00ED11E6FE1B62E14C0FB9CC001112439
:103540008D589F4F800F911FBE010E94C78202C0FD
:103550002196E3948881882319F08CE88E15C0F7B2
:10356000F3942F2D30E0F6018081918128173907DF
:1035700020F3E7FC07C0C80182539E4FBE010E94A2
:10358000C78201C01882DF91CF911F910F91FF90E8
:10359000EF90DF90CF90BF900895EF92FF920F933E
:1035A0001F93CF93DF93EC011B828EA9882321F018
:1035B000CE01C3960E94B782E7EAEE2EE1E0FE2E2E
:1035C000EC0EFD1EC70160E045E30E946680882383
:1035D000F9F4EBEAF6E007C08091C00085FFFCCF6C
:1035E0009093C600319694919923B1F7E5E1F3E009
:1035F00007C08091C00085FFFCCF9093C600319634
:1036000094919923B1F78091C00085FFFCCF76C0DB
:103610008E0104551E4FC801B70141E00E943B8B4B
:10362000882331F5C801B70140E00E943B8B882315
:10363000F9F4E4EAF6E007C08091C00085FFFCCF12
:103640009093C600319694919923B1F7E2E0F3E0AC
:1036500007C08091C00085FFFCCF9093C6003196D3
:1036600094919923B1F78091C00085FFFCCF46C0AB
:10367000CE01C396B8010E949F858823F9F4E4EA3D
:10368000F6E007C08091C00085FFFCCF9093C60094
:10369000319694919923B1F7E2EFF2E007C080915F
:1036A000C00085FFFCCF9093C6003196949199237A
:1036B000B1F78091C00085FFFCCF20C081E08B83F3
:1036C000EBEAF6E007C08091C00085FFFCCF909345
:1036D000C600319694919923B1F7E7EEF2E007C066
:1036E0008091C00085FFFCCF9093C60031969491E5
:1036F0009923B1F78091C00085FFFCCF8AE08093C9
:10370000C600DE01AC5ABF4FFE01F3968BE101907B
:103710000D928150E1F789A99AA9CE5ADF4F99837A
:103720008883C255D040CE018F96C25BDF4F99830C
:103730008883DF91CF911F910F91FF90EF900895B3
:103740002F923F924F925F926F927F929F92AF9291
:10375000BF92CF92DF92EF92FF920F931F93DF936E
:10376000CF93CDB7DEB7CC5BD0400FB6F894DEBFB9
:103770000FBECDBF6C01662309F0DFC027E832E041
:10378000C20ED31ED6018C91E9E7FDEFCE0EDF1EEF
:10379000882309F4E3C02FE732E0C20ED31ED6011E
:1037A000ED90FD900D911C91E1E8FDEFCE0EDF1E36
:1037B0000E9446E5E616F7060807190708F4CEC08A
:1037C000BCC0C601EADED60113968C91882309F4A9
:1037D000C5C000D000D0EDB7FEB731967E01089489
:1037E000E11CF11CADB7BEB71296FC92EE92119798
:1037F0008CE591E093838283D6019D968D919C9177
:103800009E979583848386D88701EDB7FEB7369659
:103810000FB6F894FEBF0FBEEDBF57010AC0D80126
:103820008C91992787FD90950E941BF1F801819357
:103830008F01F50101900020E9F73197EA19FB09A2
:10384000802F8E198E175CF313E3A12EB12CAC0CD4
:10385000BD1CC50140E050E060E070E00E94A08126
:103860009924BBE0EB2EF12CEC0EFD1E2E010894EA
:10387000411C511CABE26A2E712C6C0E7D1EF5E5CD
:103880002F2EF1E03F2E3EC0D8018C9190E00E9497
:103890001BF1F80181938F01D7010D900020E9F70A
:1038A0001197AE19BF09802F8E198A176CF38C8976
:1038B0008E3741F1C701B20145E050E00ED80097C4
:1038C00009F500D000D0EDB7FEB73196ADB7BEB761
:1038D00012967C926E921197338222825582448294
:1038E00019D8EDB7FEB736960FB6F894FEBF0FBEE7
:1038F000EDBFC3010E94BC5281E591E00E94735E5E
:1039000099249394C501B70140E050E00E94C88417
:10391000181614F48701C0CF992041F48FEF9FEF60
:10392000D6019E969C938E939D9718C0F60185A50F
:1039300096A5019696A785A711C027E832E0C20E8A
:10394000D31ED6011C92E9E7FDEFCE0EDF1ED60195
:1039500013968C91882309F434CF3BCFC454DF4FA6
:103960000FB6F894DEBF0FBECDBFCF91DF911F9190
:103970000F91FF90EF90DF90CF90BF90AF909F900E
:103980007F906F905F904F903F902F9008952F926F
:103990003F924F925F926F927F928F929F92AF92DF
:1039A000BF92CF92DF92EF92FF920F931F93DF931C
:1039B000CF93CDB7DEB7C857D0400FB6F894DEBF6F
:1039C0000FBECDBF7C015B013A01E1963FAF2EAF48
:1039D000E1978DB79EB7E3969FAF8EAFE397E4E094
:1039E000F0E06E0E7F1EC7014296AF969FAF8EAF7E
:1039F000AF9725E0822E912C8E0C9F1CAD961FAEAA
:103A0000AD979CE4C92ED12CCC0EDD1EF701E857F2
:103A1000FD4FE996FFAFEEAFE9978AE8282E82E0E6
:103A2000382E2E0C3F1C0BE0402E512C4C0C5D1CF4
:103A30007DC1F6018385282F30E0A90148715070BF
:103A40004031510509F07EC1E996EEADFFADE99731
:103A5000808191818130910509F474C1029709F444
:103A600071C1FDB7E696FFAFE6978EB7E7968FAFC9
:103A7000E797F50101900020E9F7EA19FB093D9667
:103A80008DB79EB78E1B9F0B0FB6F8949EBF0FBECF
:103A90008DBF0DB71EB70F5F1F4FF601DE011196E8
:103AA0009081903239F08E2F8C19883011F48EE28B
:103AB0008D939D933196E415F50591F71C92F801CD
:103AC0001082F5018081882329F4C80160E072E04A
:103AD0000E944714E4960FAFE497E5961FAFE59771
:103AE000C801B5010E944714C801BE016F5F7F4F36
:103AF0000E944714C80160E072E00E9447141A8ACD
:103B00001D8A198A188A85E994E09F878E87CE01DD
:103B10004296B301AE014F5F5F4F21E00E94998949
:103B2000882309F03DC0E996EEADFFADE9978081AD
:103B30009181892BA9F5EBEAF6E007C08091C000DE
:103B400085FFFCCF9093C600319694919923B1F7ED
:103B5000E2E0F2E007C08091C00085FFFCCF319623
:103B60009093C60090819923B1F78091C00085FFA2
:103B7000FCCFFAE0F093C600FE01319607C08091B9
:103B8000C00085FFFCCF31969093C60090819923A9
:103B9000B1F78091C00085FFFCCF8AE08093C6001A
:103BA000DE01D196FE0172968BE101900D9281505B
:103BB000E1F78889998998AB8FA7E5E9F4E0FEA73A
:103BC000EDA7C701E4966FADE497E5967FADE59765
:103BD000AE01435D5F4F20E030E0D9DECE018D962F
:103BE00082D9CE010E967FD9E6962FADE697E7965D
:103BF0003FADE797C9010FB6F8949EBF0FBE8DBFCA
:103C000095C08E3209F492C0F70182898E3209F490
:103C10008DC023FD8BC080E04031510509F481E067
:103C2000F7018483882349F4F6018085873409F0FD
:103C30007DC081858E3709F479C0E996EEADFFAD80
:103C4000E997808191818130910531F08230910531
:103C5000E1F1892B41F06AC0F101808191810196E7
:103C60009183808363C0D401F6018081803241F06A
:103C70008E2F8C19883011F48EE28D9380818D9374
:103C80003196E415F50589F71C92F50107C080917E
:103C9000C00085FFFCCF31969093C6009081992398
:103CA000B1F7F40107C08091C00085FFFCCF3196C9
:103CB0009093C60090819923B1F78091C00085FF51
:103CC000FCCF9AE09093C60031C0D401F601808108
:103CD000803241F08E2F8C19883011F48EE28D9352
:103CE00080818D933196E415F50589F71C92E19654
:103CF000EEADFFADE197309739F0CF01B4010E94EE
:103D00003414892B61F423C0AD96FFADAD972F2FEE
:103D100030E0F1018081918128173907C1F0AD961B
:103D2000FFADAD97FF5FAD96FFAFAD97C301B60195
:103D3000AF964EAD5FADAF970E94C88418160CF4D5
:103D400078CE05C0F6018081882309F05ACFE3962A
:103D50008EAD9FADE3970FB6F8949EBF0FBE8DBF9B
:103D6000C858DF4F0FB6F894DEBF0FBECDBFCF915E
:103D7000DF911F910F91FF90EF90DF90CF90BF9058
:103D8000AF909F908F907F906F905F904F903F90FB
:103D90002F900895EF92FF920F931F93DF93CF938D
:103DA000CDB7DEB76F970FB6F894DEBF0FBECDBFAD
:103DB0007C018C01025B1F4F805B9F4FF801918358
:103DC000808328E832E0E20EF31E21E030E0F701C4
:103DD000219331937F011182108226E73DEFE20E9D
:103DE000F31E049640E050E060E070E00E94A08185
:103DF000F80120813181DE011596F90134968BE1BD
:103E000001900D928150E1F7F901828193819C83A9
:103E10008B8385E994E09A838983C70165E172E029
:103E20008E010F5F1F4FA80120E030E0B0DDC80118
:103E30005AD8F701E657FD4F808191816F960FB6F2
:103E4000F894DEBF0FBECDBFCF91DF911F910F91D0
:103E5000FF90EF900895CF92DF92EF92FF920F9331
:103E60001F93DF93CF93CDB7DEB76F970FB6F8945C
:103E7000DEBF0FBECDBF7C016A018C01025B1F4F0C
:103E8000805B9F4FF8019183808328E832E0E20E47
:103E9000F31E22E030E0F701219331937F0171831B
:103EA000608326E73DEFE20EF31E049640E050E00B
:103EB00060E070E00E94A081F80120813181DE0184
:103EC0001596F90134968BE101900D928150E1F73E
:103ED000F901828193819C838B8385E994E09A83A5
:103EE0008983C70165E172E08E010F5F1F4FA80152
:103EF00096014DDDC8010E9473176F960FB6F894B6
:103F0000DEBF0FBECDBFCF91DF911F910F91FF900C
:103F1000EF90DF90CF9008952F923F924F925F9253
:103F20006F927F928F929F92AF92BF92CF92DF92C9
:103F3000EF92FF920F931F93DF93CF93CDB7DEB72E
:103F4000AD970FB6F894DEBF0FBECDBF7C014B011D
:103F50004DA7DC0113968C91882309F41FC3E1ED72
:103F6000F1E0EE0EFF1ED7018C91EFE2FEEFEE0EB8
:103F7000FF1E882309F411C1222319F0EBEAF6E0B1
:103F8000E3C029EE31E0E20EF31ED7018C91E7E1A8
:103F9000FEEFEE0EFF1E882319F4EBEAF6E035C0C3
:103FA000E4EAF6E007C08091C00085FFFCCF909363
:103FB000C600319694919923B1F7E4EAF2E007C084
:103FC0008091C00085FFFCCF9093C60031969491FC
:103FD0009923B1F784E995E061E070E04AE050E0B0
:103FE0000E9481338091C00085FFFCCF8AE08093DE
:103FF000C6008BE992E00E94F839D0C28091C000DF
:1040000085FFFCCF9093C600319694919923B1F728
:10401000E2E8F2E007C08091C00085FFFCCF9093FA
:10402000C600319694919923B1F7F40107C08091AD
:10403000C00085FFFCCF31969093C60090819923F4
:10404000B1F7E7E7F2E007C08091C00085FFFCCF41
:104050009093C600319694919923B1F7C7012EEE43
:1040600031E0E20EF31EB7014FDA4BEF5FEFE40EE3
:10407000F51ED7019C91E7E1FEEFEE0EFF1E8DE8E5
:10408000989FF0011124E251FE4FEE0DFF1D07C075
:104090008091C00085FFFCCF31969093C60090813F
:1040A0009923B1F7E1E7F2E007C08091C00085FFF6
:1040B000FCCF9093C600319694919923B1F723E8F1
:1040C00032E0E20EF31ED7014D915D916D917C912E
:1040D000EDE7FDEFEE0EFF1E84E995E02AE030E00B
:1040E0000E9432338091C00085FFFCCF8AE080932C
:1040F000C600A70147515E4FDA012C91E22FF0E094
:10410000EE0FFF1FEE0FFF1FEE0DFF1DE651FE4FDE
:1041100083E892E0E80EF91ED701AD90BD90CD90F6
:10412000DC908DE79DEFE80EF91EA082B182C2827D
:10413000D3822F5FDA012C932AC08091C00085FFC3
:10414000FCCF9093C600319694919923B1F7E0E6A5
:10415000F2E007C08091C00085FFFCCF9093C600BD
:10416000319694919923B1F7F40107C08091C00072
:1041700085FFFCCF31969093C60090819923B1F7CB
:104180008091C00085FFFCCF8AE08093C600C70104
:1041900082539E4F0E94B78237C0E9EEF1E0EE0EE7
:1041A000FF1ED7011C92E7E1FEEFEE0EFF1EEBEAC9
:1041B000F6E007C08091C00085FFFCCF9093C60059
:1041C000319694919923B1F7EFE4F2E007C0809122
:1041D000C00085FFFCCF9093C6003196949199233F
:1041E000B1F7F40107C08091C00085FFFCCF319684
:1041F0009093C60090819923B1F78091C00085FF0C
:10420000FCCF8AE08093C600D70112961C921A8ACE
:104210001D8A198A188A85E994E09F878E87F7019D
:10422000E25BFF4F2FE230E0E20EF31EF182E0820C
:1042300041ED5FEFE40EF51ED4018C918F3209F051
:104240007FC064010894C11CD11C3E010894611C0C
:10425000711C2F0132E1232E312C2C0E3D1E6BC020
:10426000C6016FE270E00E9452145C01009709F4ED
:1042700073C0C816D90608F06FC08C010C191D094F
:10428000C301B601A8010E947B14060D171DF80199
:104290001082F30107C08091C00085FFFCCF3196EA
:1042A0009093C60090819923B1F78091C00085FF5B
:1042B000FCCFFAE0F093C600D2016D917C916115BC
:1042C000710519F460E070E002C06C5F7F4FC101BE
:1042D000A30121E00E949989882311F5EBE3F2E024
:1042E00007C08091C00085FFFCCF9093C600319637
:1042F00094919923B1F7FE01319607C08091C000D7
:1043000085FFFCCF31969093C60090819923B1F739
:104310008091C00085FFFCCF8EE28093C6003AC139
:104320002EE030E02C0F3D1FF20131832083650128
:104330000894C11CD11CC114D10409F091CF0AC04A
:1043400040E550E0E40EF51EF182E08280EB9FEF45
:10435000E80EF91E840101C08601F701E25BFF4F00
:104360009DA5992309F4B5C060817181611571051E
:1043700019F460E070E002C06C5F7F4FC7018253A8
:104380009E4FA80121E00E949989882319F4E3E057
:10439000F2E082C0AFEDB1E0EA0EFB1EF701408112
:1043A0005181628173812CE930E0E20EF31ED70166
:1043B0004D935D936D937C931397E5E8FDEFEE0EBF
:1043C000FF1EEDE2F2E007C08091C00085FFFCCF48
:1043D0009093C600319694919923B1F7F80107C0E4
:1043E0008091C00085FFFCCF31969093C6009081EC
:1043F0009923B1F7E5E2F2E007C08091C00085FFA4
:10440000FCCF9093C600319694919923B1F784E93B
:1044100095E02AE030E00E9432338091C00085FFB1
:10442000FCCF8AE08093C60023E832E0E20EF31E60
:10443000D7011D921D921D921C921397EDE7FDEF7F
:10444000EE0EFF1EE7E1F2E007C08091C00085FF9D
:10445000FCCF9093C600319694919923B1F7809147
:10446000C00085FFFCCF8AE08093C600C70160E0F2
:1044700070E0A801F0DCD70152968C91882309F4F2
:1044800085C087010E5E1F4F81C08091C00085FFEF
:10449000FCCF9093C600319694919923B1F7F8011F
:1044A00007C08091C00085FFFCCF31969093C60075
:1044B00090819923B1F7E0E0F2E007C08091C0005D
:1044C00085FFFCCF9093C600319694919923B1F764
:1044D00061C0608171816115710519F460E070E05F
:1044E00002C06C5F7F4FC70182539E4FA80126E533
:1044F0000E949989882339F5ECEEF1E007C080919C
:10450000C00085FFFCCF9093C6003196949199230B
:10451000B1F7F80107C08091C00085FFFCCF31964C
:104520009093C60090819923B1F7E9EEF1E007C0BE
:104530008091C00085FFFCCF9093C6003196949186
:104540009923B1F727C081E0F7018083E7EDF1E01F
:1045500007C08091C00085FFFCCF9093C6003196C4
:1045600094919923B1F7F40107C08091C00085FFB1
:10457000FCCF31969093C60090819923B1F780913A
:10458000C00085FFFCCF8AE08093C600C80160E0D0
:104590000E9408B0CE010E960E947317AD960FB61A
:1045A000F894DEBF0FBECDBFCF91DF911F910F9169
:1045B000FF90EF90DF90CF90BF90AF909F908F9043
:1045C0007F906F905F904F903F902F900895EF9263
:1045D000FF920F931F93CF93DF93EC010E94D09033
:1045E0008E0107511E4FD8018C91BEECEB2EB1E02D
:1045F000FB2EEC0EFD1E882399F1C7010E94B782A5
:10460000F8016081615060838DE8689FB0011124DA
:1046100062517E4F6C0F7D1FCE0141E021E07CDCBA
:10462000D801EC91F0E0EE0FFF1FEE0FFF1FEC0F33
:10463000FD1FE651FE4F4081518162817381CD574C
:10464000DD4F488359836A837B83C358D240C701B7
:104650000E94A0818B81882379F181E08A832CC01C
:10466000C7010E94B7821A828FE291E00E94735EB6
:104670008091530B882301F11092530B80914908CC
:10468000C82FD0E0CC0FDD1FCB55DD4E688179817E
:10469000882777FD8095982F0E947AED2091AC03B2
:1046A0003091AD034091AE035091AF030E94E6EE0E
:1046B000181614F419821882DF91CF911F910F916F
:1046C000FF90EF900895FC0181E08183CF0140E0ED
:1046D00021E022CCEF92FF920F931F93DF93CF93B1
:1046E000CDB7DEB76F970FB6F894DEBF0FBECDBF64
:1046F0007C0188E892E0E80EF91EF7011182108231
:1047000088E79DEFE80EF91E87010D5C1F4FC80179
:1047100040E050E060E070E00E94A081DE0115966C
:10472000F8018BE101900D928150E1F7F70181A929
:1047300092A99C838B8385E994E09A838983C7013E
:1047400065E172E08E010F5F1F4FA80120E030E0AD
:104750001ED9C8010E9473176F960FB6F894DEBF7A
:104760000FBECDBFCF91DF911F910F91FF90EF90C2
:104770000895CF93DF93EC011BAA1EAA1AAA19AAC7
:1047800085E994E098AB8FA7CC5ADF4F1882239627
:104790001882C755D040FE01E05BFF4FCE5ADF4F75
:1047A00019821882C255D04091838083DE01A159BD
:1047B000BF4FFD0120E030E0482F148217821382A2
:1047C000128240839183215E3F4F7F9681E02633A2
:1047D000380799F7C855DE4F89E1888323961882F8
:1047E000689618822B96188223961882C15DD14054
:1047F000FE01E653FE4FC453DE4F198218824083F8
:104800009183C155DF4F188219821A821B82289624
:10481000188219821A821B82C358D2401A821B82C4
:1048200018821982CB55DE4F19821882CC5BDF4F7C
:104830001882FD01C90111920197E9F7C256DF4FB5
:1048400081E08883C758D2401EA61DA60E9446E577
:10485000C158DD4F68577C4E8F4F9F4F68837983D7
:104860008A839B83DF91CF910895CF93DF93EC01EF
:10487000DB015AE03CC0288139819C91F999FECF37
:104880001FBA32BD21BD90BD0FB6F894FA9AF99ABD
:104890000FBEF999FECF32BD21BDF89A80B58917B8
:1048A00001F1EBEAF6E007C08091C00085FFFCCF84
:1048B0009093C600319694919923B1F7EBE8F6E016
:1048C00007C08091C00085FFFCCF9093C600319651
:1048D00094919923B1F78091C00085FFFCCF50934C
:1048E000C6002F5F3F4F39832883119641504423E0
:1048F00009F0C1CFDF91CF9108952F923F924F924F
:104900005F926F927F928F929F92AF92BF92CF925F
:10491000DF92EF92FF920F931F93DF93CF93CDB768
:10492000DEB7A1970FB6F894DEBF0FBECDBF0F2E36
:10493000F0E0CF2EF0E0DF2EF0E0EF2EF0E0FF2EE3
:10494000F02DCA86DB86EC86FD868091160290915A
:104950001702A0911802B09119028E879F87A88B29
:10496000B98B84E690E09D838C838E010C5F1F4F92
:10497000C801BE01625F7F4F44E077DFC80163E09A
:104980007BE040E172DFC80163EF7AE040E16DDF78
:10499000C80163E17BE040E168DFC80167E27BE0DA
:1049A00044E063DFC8016BE27BE044E05EDFC80106
:1049B0006FE27BE044E059DFC80163E27BE044E062
:1049C00054DFC8016FE37BE044E04FDFC8016FEEC6
:1049D0007AE044E04ADFC80163E37BE044E045DF7E
:1049E000C80167E37BE044E040DFC8016BE37BE0A4
:1049F00044E03BDFC8016DE378E04CE036DF83E064
:104A000089838A831B82C801BE016D5F7F4F41E0AD
:104A10002CDFC801BE016F5F7F4F41E026DFC80178
:104A2000BE016E5F7F4F41E020DFCA86DB86EC86E9
:104A3000FD86EE24FF244AE0C42ED12CCC0EDD1ED0
:104A400007C0C801B60144E010DF0894E11CF11C66
:104A50008A812981829FC0011124E816F9068CF30E
:104A6000C80167E673E044E000DFC80168E778E06A
:104A70004CE0FBDEC8016CE673E044E0F6DEC80102
:104A800060E773E044E0F1DEC80164E773E044E00E
:104A9000ECDEC80160E473E142E0E7DEC80162E4F5
:104AA00073E142E0E2DEC80164E473E142E0DDDE8E
:104AB000C80166E473E142E0D8DEC80168E473E14E
:104AC00042E0D3DEC8016AE473E142E0CEDEEE24C8
:104AD000FF2434E0C32ED12CCC0EDD1E0F2EF0E0CF
:104AE0004F2EF0E85F2EFBE36F2EF5E47F2EF02DC6
:104AF0002AE0222E312C2C0E3D1E0F2EF0E08F2EA0
:104B0000F0E09F2EF0E0AF2EF0E0BF2EF02D82E01F
:104B1000E816F104ACF4C60169EB73E044E0A5DEED
:104B2000C6016DEB73E044E0A0DEC60161EC73E00A
:104B300044E09BDEC60165EC73E044E096DE19C0FC
:104B40004A865B866C867D86C601B10144E08DDEB7
:104B50008A869B86AC86BD8603E010E004C0C60151
:104B6000B10144E082DE015010409FEF0F3F190772
:104B7000B1F70894E11CF11CE4E0EE16F10439F6FB
:104B800080E090E8ABE3B5E48A8B9B8BAC8BBD8B6C
:104B90008E8B9F8BA88FB98F8A8F9B8FAC8FBD8F89
:104BA0008E010C5F1F4FC801BE016E5E7F4F44E057
:104BB0005CDEC801BE016A5E7F4F44E056DEC8017C
:104BC000BE01665E7F4F44E050DE80E290E09F834E
:104BD0008E83C801BE016A5F7F4F42E046DE80E0FF
:104BE00090E0A0E8BFE38A879B87AC87BD879AE007
:104BF000892E912C8C0E9D1EC801B40144E035DE37
:104C0000C8016CE378E041E030DE8CE3C82E83E03D
:104C1000D82EEE24FF24B02E012FF2E0EF16F1047F
:104C20004CF4F60180819181A281B3818A879B87B0
:104C3000AC87BD878B2D902FB40144E016DE08941D
:104C4000E11CF11C84E090E0C80ED91E94E0E91646
:104C5000F10419F780911A0290911B02A0911C0295
:104C6000B0911D028E8F9F8FA8A3B9A384E690E018
:104C700099878887CE010896BE01625E7F4F44E027
:104C8000F4DDEBEAF6E007C08091C00085FFFCCFC1
:104C90009093C600319694919923B1F74C815D8130
:104CA000662757FD6095762F89E796E00E94904829
:104CB000E1E7F6E007C08091C00085FFFCCF90934C
:104CC000C600319694919923B1F78091C00085FF79
:104CD000FCCF8AE08093C600A1960FB6F894DEBFA1
:104CE0000FBECDBFCF91DF911F910F91FF90EF903D
:104CF000DF90CF90BF90AF909F908F907F906F90FC
:104D00005F904F903F902F900895CF92DF92EF9257
:104D1000FF920F931F93D82E882371F5EBEAF6E0EC
:104D200007C08091C00085FFFCCF9093C6003196EC
:104D300094919923B1F7EAE1F6E007C08091C000B1
:104D400085FFFCCF9093C600319694919923B1F7DB
:104D50008091C00085FFFCCF8AE08093C600EBEA1B
:104D6000F6E007C08091C00085FFFCCF9093C6009D
:104D7000319694919923B1F74091030B5091040B14
:104D80006091050B7091060B82E196E00E946A44E7
:104D90004091070B5091080B6091090B70910A0B21
:104DA0008FE096E00E946A4440910B0B50910C0BEF
:104DB00060910D0B70910E0B8CE096E00E946A449E
:104DC00040910F0B5091100B6091110B7091120BD1
:104DD00089E096E00E946A448091C00085FFFCCF84
:104DE0008AE08093C600DD2071F5EBEAF6E007C0AB
:104DF0008091C00085FFFCCF9093C60031969491BE
:104E00009923B1F7EFEEF5E007C08091C00085FF70
:104E1000FCCF9093C600319694919923B1F780917D
:104E2000C00085FFFCCF8AE08093C600EBEAF6E085
:104E300007C08091C00085FFFCCF9093C6003196DB
:104E400094919923B1F74091F30A5091F40A60913B
:104E5000F50A7091F60A86EE95E00E946A44409148
:104E6000F70A5091F80A6091F90A7091FA0A83EEF4
:104E700095E00E946A444091FB0A5091FC0A6091BF
:104E8000FD0A7091FE0A80EE95E00E946A4440910E
:104E9000FF0A5091000B6091010B7091020B8DED98
:104EA00095E00E946A448091C00085FFFCCF8AE0B3
:104EB0008093C600DD2071F5EBEAF6E007C0809133
:104EC000C00085FFFCCF9093C60031969491992342
:104ED000B1F7EFEBF5E007C08091C00085FFFCCF94
:104EE0009093C600319694919923B1F78091C000B8
:104EF00085FFFCCF8AE08093C600EBEAF6E007C0AE
:104F00008091C00085FFFCCF9093C60031969491AC
:104F10009923B1F74091130B5091140B6091150B2D
:104F20007091160B86EB95E00E9490484091170B0C
:104F30005091180B6091190B70911A0B83EB95E04F
:104F40000E94904840911B0B50911C0B60911D0BCF
:104F500070911E0B80EB95E00E94904840911F0BD2
:104F60005091200B6091210B7091220B8DEA95E0FE
:104F70000E9490488091C00085FFFCCF8AE080931A
:104F8000C600DD2071F5EBEAF6E007C08091C000B5
:104F900085FFFCCF9093C600319694919923B1F789
:104FA000EBE7F5E007C08091C00085FFFCCF909350
:104FB000C600319694919923B1F78091C00085FF86
:104FC000FCCF8AE08093C600EBEAF6E007C0809150
:104FD000C00085FFFCCF9093C60031969491992331
:104FE000B1F74091270B5091280B6091290B7091DC
:104FF0002A0B82E795E00E946A4440912B0B509166
:105000002C0B60912D0B70912E0B8FE695E00E947A
:105010006A4440912F0B5091300B6091310B70918D
:10502000320B8CE695E00E946A448091C00085FFB7
:10503000FCCF8AE08093C600DD2071F5EBEAF6E054
:1050400007C08091C00085FFFCCF9093C6003196C9
:1050500094919923B1F7E9EBF4E007C08091C00087
:1050600085FFFCCF9093C600319694919923B1F7B8
:105070008091C00085FFFCCF8AE08093C600EBEAF8
:10508000F6E007C08091C00085FFFCCF9093C6007A
:10509000319694919923B1F74091230B5091240BB1
:1050A0006091250B7091260B80EB94E00E946A447E
:1050B00040913F0B5091400B6091410B7091420B1E
:1050C0008DEA94E00E946A444091EF0A5091F00A00
:1050D0006091F10A7091F20A8AEA94E00E94904885
:1050E0004091330B5091340B6091350B7091360B1E
:1050F00087EA94E00E946A444091370B5091380B44
:105100006091390B70913A0B84EA94E00E946A44F2
:1051100040913B0B50913C0B60913D0B70913E0BCD
:1051200081EA94E00E946A448091C00085FFFCCF30
:105130008AE08093C600DD2071F5EBEAF6E007C057
:105140008091C00085FFFCCF9093C600319694916A
:105150009923B1F7EFE8F4E007C08091C00085FF24
:10516000FCCF9093C600319694919923B1F780912A
:10517000C00085FFFCCF8AE08093C600EBEAF6E032
:1051800007C08091C00085FFFCCF9093C600319688
:1051900094919923B1F740913D0850913E08609158
:1051A0003F087091400886E894E00E946A4440916C
:1051B000410850914208609143087091440883E887
:1051C00094E00E946A4440914508509146086091DD
:1051D00047087091480880E894E00E946A448091F2
:1051E000C00085FFFCCF8AE08093C600DD2071F50A
:1051F000EBEAF6E007C08091C00085FFFCCF9093FA
:10520000C600319694919923B1F7E7E6F4E007C020
:105210008091C00085FFFCCF9093C6003196949199
:105220009923B1F78091C00085FFFCCF8AE080937D
:10523000C600EBEAF6E007C08091C00085FFFCCF16
:105240009093C600319694919923B1F740917808D4
:105250005091790860917A0870917B088EE594E00E
:105260000E946A4440917C0850917D0860917E08BC
:1052700070917F088BE594E00E946A444091800819
:1052800050918108609182087091830888E594E0CC
:105290000E946A448091C00085FFFCCF8AE0809321
:1052A000C600DD20B1F4EBEAF6E007C08091C00053
:1052B00085FFFCCF9093C600319694919923B1F766
:1052C00008C08091C00085FFFCCF9093C600319646
:1052D00002C0E6E0F4E09491992399F78091C00030
:1052E00085FFFCCF8AE08093C600DD2069F4EBEAFD
:1052F000F6E007C08091C00085FFFCCF9093C60008
:10530000319694919923B1F74091700350917103B4
:1053100060917203709173038DEF93E00E946A4471
:1053200040916C0350916D0360916E0370916F0317
:105330008AEF93E00E946A44409174035091750390
:10534000609176037091770387EF93E00E946A443F
:105350008091C00085FFFCCF8AE08093C600DD20ED
:1053600071F5EBEAF6E007C08091C00085FFFCCF45
:105370009093C600319694919923B1F7EBEDF3E049
:1053800007C08091C00085FFFCCF9093C600319686
:1053900094919923B1F78091C00085FFFCCF8AE0FA
:1053A0008093C600EBEAF6E007C08091C00085FF5D
:1053B000FCCF9093C600319694919923B1F7409118
:1053C000401350914113662757FD6095762F8FEC5F
:1053D00093E00E94904840914213509143136627F6
:1053E00057FD6095762F8CEC93E00E949048409199
:1053F000441350914513662757FD6095762F89EC2D
:1054000093E00E9490488091C00085FFFCCF8AE025
:105410008093C600DD2069F4EBEAF6E007C08091D6
:10542000C00085FFFCCF9093C600319694919923DC
:10543000B1F74091461350914713662757FD609589
:10544000762F8DEB93E00E94904840914813509145
:105450004913662757FD6095762F8AEB93E00E94EB
:10546000904840914A1350914B13662757FD609521
:10547000762F87EB93E00E9490488091C00085FFD3
:10548000FCCF8AE08093C600DD2021F5EBEAF6E050
:1054900007C08091C00085FFFCCF9093C600319675
:1054A00094919923B1F7E9EAF3E007C08091C00035
:1054B00085FFFCCF9093C600319694919923B1F764
:1054C0008091C00085FFFCCF8AE08093C600EBEAA4
:1054D000F6E05DC0EE24FF2487015AE0C52E80EA85
:1054E00093E0B801A7010E9490484091B903509100
:1054F000BA036091BB037091BC038DE993E00E94F5
:105500006A446091BD037091BE038091BF03909186
:10551000C0030E940D9BAB01BC018AE993E00E948D
:105520006A446091C1037091C2038091C30390915A
:10553000C4030E94199BAB01BC0187E993E00E9460
:105540006A444091C5035091C6036091C7037091AE
:10555000C80384E993E00E946A448091C00085FFFB
:10556000FCCFC092C6000894E11CF11C011D111D66
:1055700082E0E816F1040105110509F44AC0AFCF35
:105580008091C00085FFFCCF9093C6003196949126
:105590009923B1F74091B9035091BA036091BB03CD
:1055A0007091BC038BE893E00E946A446091BD0354
:1055B0007091BE038091BF039091C0030E940D9B28
:1055C000AB01BC0188E893E00E946A446091C1038A
:1055D0007091C2038091C3039091C4030E94199BF0
:1055E000AB01BC0185E893E00E946A444091C50389
:1055F0005091C6036091C7037091C80382E893E09D
:105600000E946A448091C00085FFFCCF8AE08093AD
:10561000C60080913C08882309F468C0DD2071F53C
:10562000EBEAF6E007C08091C00085FFFCCF9093C5
:10563000C600319694919923B1F7EFE6F3E007C0E5
:105640008091C00085FFFCCF9093C6003196949165
:105650009923B1F78091C00085FFFCCF8AE0809349
:10566000C600EBEAF6E007C08091C00085FFFCCFE2
:105670009093C600319694919923B1F740913C03E1
:1056800050913D0360913E0370913F0386E693E0A5
:105690000E946A448091C00085FFFCCF8AE080931D
:1056A000C600DD2069F4EBEAF6E007C08091C00097
:1056B00085FFFCCF9093C600319694919923B1F762
:1056C0004091400350914103609142037091430324
:1056D0008AE593E00E946A448091C00085FFFCCF78
:1056E0008AE08093C600DD2029F152C0DD2009F058
:1056F0004FC0EBEAF6E007C08091C00085FFFCCF09
:105700009093C600319694919923B1F7EEE3F3E0BC
:1057100007C08091C00085FFFCCF9093C6003196F2
:1057200094919923B1F78091C00085FFFCCF8AE066
:105730008093C600EBEAF6E007C08091C00085FFC9
:10574000FCCF9093C600319694919923B1F7E9E28A
:10575000F3E007C08091C00085FFFCCF9093C600A6
:10576000319694919923B1F78091C00085FFFCCFC9
:105770008AE08093C600EBEAF6E007C08091C000A3
:1057800085FFFCCF9093C600319694919923B1F791
:1057900085E293E043E553E060E070E00E949048CA
:1057A00040916703509168036091690370916A03A7
:1057B000705882E293E00E946A448091C00085FFA5
:1057C000FCCF8AE08093C6001F910F91FF90EF906D
:1057D000DF90CF900895DF93CF93CDB7DEB7E097FA
:1057E0000FB6F894DEBF0FBECDBFDE011196E7E322
:1057F000F4E080E101900D928150E1F7DE015196D5
:10580000E7E2F4E080E101900D928150E1F7DE01E2
:105810009196E7E1F4E080E101900D928150E1F78B
:1058200089819A81AB81BC818093030B9093040B97
:10583000A093050BB093060B89899A89AB89BC8923
:105840008093F30A9093F40AA093F50AB093F60AB2
:1058500089A19AA1ABA1BCA18093130B9093140BC7
:10586000A093150BB093160B8D819E81AF81B885E7
:105870008093070B9093080BA093090BB0930A0B2E
:105880008D899E89AF89B88D8093F70A9093F80A25
:10589000A093F90AB093FA0A8DA19EA1AFA1B8A571
:1058A0008093170B9093180BA093190BB0931A0BBE
:1058B00089859A85AB85BC8580930B0B90930C0BE7
:1058C000A0930D0BB0930E0B898D9A8DAB8DBC8D73
:1058D0008093FB0A9093FC0AA093FD0AB093FE0A02
:1058E00089A59AA5ABA5BCA580931B0B90931C0B17
:1058F000A0931D0BB0931E0B8D859E85AF85B88937
:1059000080930F0B9093100BA093110BB093120B7D
:105910008D8D9E8DAF8DB8A18093FF0A9093000B63
:10592000A093010BB093020B8DA59EA5AFA5B8A9BE
:1059300080931F0B9093200BA093210BB093220B0D
:105940000E94306C80E090E0AAE7B4E48093270BDB
:105950009093280BA093290BB0932A0B80E090E042
:10596000AAEFB4E480932B0B90932C0BA0932D0BF8
:10597000B0932E0B80932F0B9093300BA093310B91
:10598000B093320B20E030E040E050E02093230B56
:105990003093240B4093250B5093260B80E29EE41A
:1059A000A0E0B0E08093EF0A9093F00AA093F10A90
:1059B000B093F20A20933F0B3093400B4093410B7E
:1059C0005093420B80E090E0A0EAB1E48093330B67
:1059D0009093340BA093350BB093360B8093370B19
:1059E0009093380BA093390BB0933A0B80E090E082
:1059F000A0EAB0E480933B0B90933C0BA0933D0B4B
:105A0000B0933E0B209345083093460840934708D7
:105A1000509348082093410830934208409343082C
:105A20005093440820933D0830933E0840933F082C
:105A30005093400880E090E0A0E0B0E480936703DA
:105A400090936803A0936903B0936A03209380083E
:105A500030938108409382085093830820937C08F8
:105A600030937D0840937E0850937F0820937808F8
:105A70003093790840937A0850937B0880E090E057
:105A8000A8EBB2E480936C0390936D03A0936E0334
:105A9000B0936F0380E090E0A4E4B3E480937003DC
:105AA00090937103A0937203B093730380E090E02E
:105AB000A8E4B3E48093740390937503A0937603F2
:105AC000B093770360E070E088EB92E420E030E090
:105AD00044E453E40E9477378EEB90E090934113B7
