:100000000C9427180C9454180C9454180C945418ED
:100010000C9454180C9454180C9454180C945418B0
:100020000C9454180C9454180C9454180C945418A0
:100030000C9454180C9403DA0C9454180C9454181F
:100040000C9454180C9451830C9454180C94541818
:100050000C9454180C9454180C94FA8D0C9478D673
:100060000C9454180C9416370C9454180C9454187F
:100070000C9454180C9454180C9454180C94541850
:100080000C9454180C9454180C9454180C94541840
:100090000C9454180C9454180C9454180C9407CFC6
:1000A0000C9454180C9454180C9454180C94541820
:1000B0000C9454180C9454180C9454180C94541810
:1000C0000C9454180C9454180C9454180C94541800
:1000D0000C9454180C9454180C9454180C945418F0
:1000E0000C945418084AD73B3BCE016E84BCBFFD2C
:1000F000C12F3D6C74319ABD56833DDA3D00C77FF8
:1001000011BED9E4BB4C3E916BAAAABE0000008090
:100110003F05A84CCDB2D44EB93836A9020C50B91F
:10012000918688083CA6AAAA2ABE000000803F4DFE
:10013000383420582059205A20450043616E6E6F94
:100140007420656E746572207375626469723A20FA
:10015000004D3234004D3233202573006175746FC9
:1001600025692E67006572726F72207772697469F3
:100170006E6720746F2066696C65004E6F74205343
:1001800044207072696E74696E6700534420707207
:10019000696E74696E672062797465200044656CCD
:1001A0006574696F6E206661696C65642C204669B0
:1001B0006C653A200046696C652064656C65746501
:1001C000643A006F70656E206661696C65642C200E
:1001D00046696C653A200057726974696E672074CD
:1001E0006F2066696C653A20002E0A006F70656E9C
:1001F000206661696C65642C2046696C653A200054
:100200002E0A006F70656E206661696C65642C2033
:1002100046696C653A200046696C652073656C65BB
:1002200063746564002053697A653A200046696CFE
:1002300065206F70656E65643A20006F70656E2092
:100240006661696C65642C2046696C653A20004ED5
:100250006F772066726573682066696C653A200066
:100260004E6F7720646F696E672066696C653A200F
:10027000002220706F73002220706172656E743AE4
:100280002200535542524F5554494E452043414C4C
:100290004C207461726765743A22004B494C4C459E
:1002A000442E2000747279696E6720746F20636138
:1002B0006C6C207375622D67636F64652066696C72
:1002C0006573207769746820746F6F206D616E7933
:1002D000206C6576656C732E204D4158206C6576D8
:1002E000656C2069733A0053442063617264206F27
:1002F0006B006F70656E526F6F74206661696C651C
:100300006400766F6C756D652E696E697420666128
:10031000696C656400534420696E69742066616984
:100320006C0046696C616D656E74207365747469E8
:100330006E67733A2044697361626C6564002020C3
:100340004D32303020440046696C616D656E74201A
:1003500073657474696E67733A002043002044002B
:1003600020490020204D3330312050005049442096
:1003700073657474696E67733A002046002042000A
:1003800020204D313435204D3120480020460020BA
:10039000420020204D313435204D302048004D6141
:1003A00074657269616C2068656174757020706134
:1003B00072616D65746572733A00205A00205900AD
:1003C00020204D323036205800486F6D65206F6612
:1003D0006673657420286D6D293A00204500205A07
:1003E0000020580020420020540020204D3230359B
:1003F000205300416476616E6365642076617269A2
:1004000061626C65733A20533D4D696E2066656587
:10041000647261746520286D6D2F73292C20543D02
:100420004D696E2074726176656C206665656472D4
:1004300061746520286D6D2F73292C20423D6D69F4
:100440006E696D756D207365676D656E7420746976
:100450006D6520286D73292C20583D6D6178696D7C
:10046000756D205859206A65726B20286D6D2F7349
:10047000292C20205A3D6D6178696D756D205A20B8
:100480006A65726B20286D6D2F73292C2020453DE5
:100490006D6178696D756D2045206A65726B2028E5
:1004A0006D6D2F73290020540020520020204D3202
:1004B0003034205000416363656C65726174696F0C
:1004C0006E733A20503D7072696E74696E672C20AD
:1004D000523D7265747261637420616E6420543D94
:1004E00074726176656C00204500205A0020590026
:1004F00020204D3230312058004D6178696D756D86
:1005000020416363656C65726174696F6E20286D4C
:100510006D2F7332293A00204500205A00205900DF
:1005200020204D3230332058004D6178696D756D53
:100530002066656564726174657320286D6D2F7324
:10054000293A00204500205A0020590020204D392A
:100550003220580053746570732070657220756E78
:1005600069743A0048617264636F6465642044652D
:100570006661756C742053657474696E6773204C82
:100580006F6164656400206279746573290020736B
:10059000746F7265642073657474696E677320721A
:1005A00065747269657665642028002062797465D7
:1005B00073290053657474696E67732053746F7286
:1005C00065642028004572726F72207772697469C1
:1005D0006E6720746F20454550524F4D2100457283
:1005E000726F723A006563686F3A0020496E7661F7
:1005F0006C69642065787472756465722000535468
:100600004F505045442E20005072696E7465722020
:1006100073746F707065642064756520746F2065F5
:1006200072726F72732E2046697820746865206537
:1006300072726F7220616E6420757365204D393956
:100640003920746F20726573746172742E2028547F
:10065000656D70657261747572652069732072656D
:100660007365742E20536574206974206166746507
:10067000722072657374617274696E6729005072BA
:10068000696E7465722068616C7465642E206B6994
:100690006C6C28292063616C6C656421004B494CAB
:1006A0004C45442E200020746F6F206C6F6E6720C5
:1006B000657874727573696F6E2070726576656E99
:1006C0007465640020636F6C642065787472757360
:1006D000696F6E2070726576656E746564006F6B0D
:1006E00000526573656E643A2000536C6565702E28
:1006F0002E2E00FFFFFF00005C4300005C43000063
:1007000048430000A0400000A0400000004000005E
:1007100000000000000000000000000000000000D9
:1007200000000000000000005C4300005C4300008B
:100730004843504933412050726F2072656164799B
:100740002E00526573756D696E67207072696E74E4
:10075000005761697420666F7220757365722E2E62
:100760002E004E6F206D6F76652E00456E642066FC
:10077000696C65206C69737400426567696E2066F8
:10078000696C65206C697374002569206D696E2C35
:1007900020256920736563004B494C4C45442E204D
:1007A000002042403A0020403A00202F0020540010
:1007B000202F0020423A00202F0020543A006F6B77
:1007C0000048656174696E6720646F6E652E003F36
:1007D0000020573A0020453A00543A0048656174B9
:1007E000696E672E2E2E0042656420646F6E652E42
:1007F0000020423A0020453A00543A004265642005
:1008000048656174696E672E00504933412050720B
:100810006F2072656164792E005049334120507217
:100820006F204F66662E004649524D574152455F34
:100830004E414D453A56312E302E30332056313B05
:1008400020537072696E7465722F6772626C206DCE
:10085000617368757020666F722067656E3620461A
:1008600049524D574152455F55524C3A6874747025
:100870003A2F2F6669726D776172652E756C746997
:100880006D616B65722E636F6D2050524F544F43F4
:100890004F4C5F56455253494F4E3A312E30204D02
:1008A000414348494E455F545950453A4933417098
:1008B000726F2045585452554445525F434F554E30
:1008C000543A3120555549443A3030303030303088
:1008D000302D303030302D303030302D3030303021
:1008E0002D3030303030303030303030300A002071
:1008F0005A3A0020593A0020436F756E7420583AD6
:10090000200020453A00205A3A0020593A00583A2F
:10091000007A5F6D61783A20007A5F6D696E3A20E7
:1009200000795F6D61783A2000795F6D696E3A20D9
:1009300000785F6D61783A2000785F6D696E3A20CB
:10094000004D31343520533C696E6465783E206F2C
:100950007574206F662072616E67652028302D31B6
:10096000290053657474696E672054726176656CF2
:1009700020416363656C65726174696F6E3A200033
:1009800053657474696E6720526574726163742074
:10099000416363656C65726174696F6E3A200053E0
:1009A000657474696E67205072696E742041636368
:1009B000656C65726174696F6E3A2000536574747A
:1009C000696E67205072696E7420616E6420547283
:1009D0006176656C20416363656C65726174696FF3
:1009E0006E3A20004D3330302053363539205032A6
:1009F00030300A4D333030205336393820503230C1
:100A000030004F6666736574206170706C69656450
:100A10002E004D33303020533430205032303000EF
:100A20004572723A20546F6F206661722100546FD4
:100A30006F206661722066726F6D207265666572E6
:100A4000656E636520706F696E7400220A00556ED2
:100A50006B6E6F776E20636F6D6D616E643A2022EE
:100A600000256920686F757273202569206D696E95
:100A70007574657300446F6E65207072696E746979
:100A80006E672066696C65004B494C4C45442E20CE
:100A90000053544F505045442E20005072696E74DC
:100AA00065722073746F707065642064756520745E
:100AB0006F206572726F72732E2046697820746899
:100AC00065206572726F7220616E64207573652097
:100AD0004D39393920746F20726573746172742EC8
:100AE000202854656D706572617475726520697334
:100AF0002072657365742E205365742069742061BB
:100B0000667465722072657374617274696E6729A8
:100B1000004E6F204C696E65204E756D62657220C7
:100B20007769746820636865636B73756D2C204CFE
:100B3000617374204C696E653A20004E6F204368E3
:100B400065636B73756D2077697468206C696E6579
:100B5000206E756D6265722C204C617374204C6937
:100B60006E653A2000636865636B73756D206D690F
:100B7000736D617463682C204C617374204C696ED2
:100B8000653A20004C696E65204E756D6265722075
:100B90006973206E6F74204C617374204C696E65AC
:100BA000204E756D6265722B312C204C6173742060
:100BB0004C696E653A20004D313130006F6B004456
:100BC0006F6E6520736176696E672066696C652E4D
:100BD000004D3239002020506C616E6E6572427596
:100BE0006666657242797465733A200020467265C4
:100BF00065204D656D6F72793A20004E6F76203119
:100C000031203230313600436F6D70696C65643A63
:100C1000200028486F67616E2C20676565657465E4
:100C200063682900207C20417574686F723A200047
:100C30004E6F7620313120323031362031313A3426
:100C4000323A333400204C617374205570646174FF
:100C500065643A200020312E302E33206465760002
:100C60004D61726C696E0020536F667477617265B6
:100C700020526573657400205761746368646F6700
:100C8000205265736574002042726F776E206F7515
:100C900074205265736574002045787465726E61C6
:100CA0006C20526573657400506F776572557000E3
:100CB0007374617274002200656E71756575656983
:100CC0006E6720220020746F6F206C6F6E67206546
:100CD0007874727573696F6E2070726576656E7464
:100CE00065640020636F6C64206578747275736945
:100CF0006F6E2070726576656E746564007C3C3E34
:100D00005E2B3D3F2F5B5D3B2C2A225C0045303A39
:100D100020005A3A2000593A2000583A20004D53FA
:100D2000312C4D53322050696E730A004D383420F7
:100D3000582059205A20450024F404D9201BC40C03
:100D40005C0E9804C4095F0265077101F405F9009F
:100D5000FB04B30048048700C10369005803550031
:100D600003034500BE023A008402310053022A0008
:100D70002902250004022000E4011C00C80119001A
:100D8000AF011700980114008401130071011000D5
:100D90006101100051010E0043010D0036010B00EE
:100DA0002B010B0020010B00150109000C010900AB
:100DB00003010800FB000800F3000800EB00070037
:100DC000E4000600DE000600D8000600D20006009F
:100DD000CC000500C7000500C2000500BD000400EE
:100DE000B9000400B5000400B1000400AD00040027
:100DF000A9000400A5000300A20003009F00040056
:100E00009B0003009800030095000200930003007C
:100E1000900003008D0002008B0003008800020098
:100E20008600020084000300810002007F000200AF
:100E30007D0002007B0002007900020077000100C3
:100E400076000200740002007200010071000200CE
:100E50006F0002006D0001006C0002006A000100DA
:100E600069000200670001006600010065000100E2
:100E700064000200620001006100010060000100E6
:100E80005F0002005D0001005C0001005B000100EA
:100E90005A000100590001005800010057000100EC
:100EA00056000100550001005400010053000000ED
:100EB00053000100520001005100010050000100E8
:100EC0004F0001004E0000004E0001004D000100E7
:100ED0004C0001004B0000004B0001004A000100E3
:100EE00049000100480000004800010047000100DF
:100EF00046000000460001004500000045000100DA
:100F000044000100430000004300010042000000D3
:100F100042000100410000004100010040000100CA
:100F20003F0000003F0001003E0000003E000100C5
:100F30003D0000003D0001003C0000003C000000BE
:100F40003C0001003B0000003B0001003A000000B3
:100F50003A000100390000003900010038000000AB
:100F600038000000380001003700000037000100A1
:100F70003600000036000000360001003500000099
:100F8000350000003500010034000000340000008E
:100F90003400010033000000330000003300010082
:100FA0003200000032000000320001003100000079
:100FB000310000003100010030000000300000006E
:100FC000300001002F0000002F0000002F00000063
:100FD0002F0001002E0000002E0000002E00010056
:100FE0002D0000002D0000002D0000002D0001004C
:100FF0002C0000002C0000002C0000002C00010040
:101000002B0000002B0000002B0000002B00010033
:101010002A0000002A0000002A0000002A00010027
:10102000290000002900000029000000290000001C
:10103000290001002800000028000000280000000E
:101040002800000028000100270000002700000001
:1010500027000000270000002700010026000000F4
:1010600026000000260000002600000026000100E7
:1010700025000000250000002500000025000000DC
:1010800025000000250001002400000024000000CD
:1010900024000000240000002400010023000000C0
:1010A00023000000230000002300000023000000B4
:1010B00023000000230001002200000022000000A5
:1010C0002200000022000000220000002200010097
:1010D000210000002100000021000000210000008C
:1010E000210000002100000021000100200000007C
:1010F0002000000020000000200000002000000070
:101100002000000020000000200001001F0000005F
:101110001F0000001F0000001F0000001F00000053
:101120001F0000001F0001001E0000001E00000044
:101130001E0000001E00000024F4D43050C38E2096
:10114000C2A24017828B7011127A910D816CD90A5C
:10115000A861E108C7586607615143061E4B5D054B
:10116000C145A7041A411104093D9803713931039F
:101170004036DB0265339102D4305402802E1D02CA
:10118000632CEE01752AC501B028A001102781014A
:101190008F2564012B244B01E0223401AC211F0177
:1011A0008D200D01801FFC00841EED00971DDF00C7
:1011B000B81CD200E61BC600201BBC00641AB2009B
:1011C000B219A8000A19A0006A189900D117910055
:1011D00040178B00B516840031167E00B3157900D8
:1011E0003A157300C7146F0058146A00EE136600B6
:1011F0008813630025135E00C7125B006C12570052
:1012000015125400C111510070114F0021114B00F3
:10121000D61049008D1047004610440002104200CD
:10122000C00F4000800F3E00420F3C00060F3B0005
:10123000CB0E3800930E37005C0E3500270E3400BD
:10124000F30D3200C10D3100900D3000600D2E0005
:10125000320D2D00050D2C00D90C2B00AE0C2900F1
:10126000850C29005C0C2700350C27000E0C26008D
:10127000E80B2400C40B2400A00B23007D0B2300EB
:101280005A0B2100390B2100180B2000F80A1F000F
:10129000D90A1E00BB0A1E009D0A1D00800A1D00FF
:1012A000630A1C00470A1B002C0A1B00110A1A00C3
:1012B000F7091A00DD091900C4091900AB09190062
:1012C000920917007B091800630917004C091600E2
:1012D00036091600200916000A091500F508150040
:1012E000E0081400CC081400B8081400A408140086
:1012F000900813007D0812006B08130058081200B4
:1013000046081200340811002308110012081100C9
:1013100001081100F0071000E0071000D0071000CE
:10132000C0071000B0070F00A107100091070E00C2
:1013300083070F0074070F0065070E0057070E00A4
:1013400049070E003B070D002E070E0020070D0079
:1013500013070D0006070D00F9060C00ED060D0041
:10136000E0060C00D4060C00C8060C00BC060C00FD
:10137000B0060C00A4060B0099060C008D060B00AD
:1013800082060B0077060B006C060B0061060A0054
:1013900057060B004C060A0042060A0038060A00EF
:1013A0002E060A0024060A001A060A001006090082
:1013B00007060A00FD050900F4050900EB05090010
:1013C000E2050900D9050900D0050900C705090093
:1013D000BE050900B5050800AD050800A505090012
:1013E0009C050800940508008C0508008405080089
:1013F0007C050800740508006C05070065050800F9
:101400005D050700560508004E0507004705070063
:101410004005080038050700310507002A050700C8
:10142000230507001C050600160507000F05070029
:101430000805060002050700FB040600F504070086
:10144000EE040600E8040600E2040700DB040600E0
:10145000D5040600CF040600C9040600C304060034
:10146000BD040600B7040600B1040500AC04060084
:10147000A6040600A00405009B04060095040500D0
:10148000900406008A040500850405008004060017
:101490007A04050075040500700405006B0405005E
:1014A00066040500610405005C040500570405009E
:1014B000520405004D0405004804050043040500DE
:1014C0003E0404003A04050035040500300404001D
:1014D0002C04050027040400230405001E04040056
:1014E0001A04040016040500110404000D0404008D
:1014F000090405000404040000040400FC030400C3
:10150000F8030400F4030400F0030400EC030400F7
:10151000E8030400E4030400E0030400DC03040027
:10152000D8030400D4030400D0030400CC03040057
:10153000C8030300C5030300656E6473746F7073A2
:10154000206869743A205A00205A3A00656E647324
:10155000746F7073206869743A20590020593A00FA
:10156000656E6473746F7073206869743A205800F4
:1015700020583A00656E6473746F707320686974E4
:101580003A20004572723A204D494E54454D502044
:10159000424544004D494E54454D50207472696790
:1015A0006765726564004572723A204D4158544532
:1015B0004D5020424544004D415854454D502074F3
:1015C000726967676572656400626564002C2073E8
:1015D000797374656D2073746F7070656421204831
:1015E00065617465725F49443A20004B494C4C4533
:1015F000442E2000202D20496E76616C69642065A0
:1016000078747275646572206E756D6265722021E2
:101610000070012C0190012701B0012201C0011DC1
:1016200001F00118011002130130020E01600209DD
:101630000190020401C002FF000003FA004003F51C
:10164000008003F000D003EB002004E6007004E10A
:1016500000E004DC004005D700C005D2004006CD04
:1016600000D006C8008007C3003008BE00F008B9EB
:1016700000C009B400B00AAF00B00BAA00D00CA59E
:1016800000000EA000500F9B00C010960050129159
:101690000000148C00C0158700B0178200B0197DBF
:1016A00000D01B7800001E730040206E009022695D
:1016B00000F024640040275F0090295A00E02B5579
:1016C00000102E500020304B0010324600E0334115
:1016D0000090353C001037370070383200A0392DAB
:1016E00000B03A2800A03B2300603C1E00103D19CA
:1016F00000903D1400103E0F00703E0A00C03E05F1
:1017000000003F00004572723A204D494E54454D4D
:1017100050004D494E54454D5020747269676765BD
:10172000726564004572723A204D415854454D50DF
:10173000004D415854454D50207472696767657279
:101740006564004B64200023646566696E65202033
:1017500044454641554C545F004B69200023646565
:1017600066696E65202044454641554C545F004BE8
:1017700070200023646566696E65202044454641FB
:10178000554C545F00504944204175746F74756E18
:10179000652066696E6973686564212050757420E0
:1017A000746865206C617374204B702C204B692029
:1017B000616E64204B6420636F6E7374616E74732A
:1017C0002066726F6D2062656C6F7720696E746F32
:1017D00020436F6E66696775726174696F6E2E68FB
:1017E00000504944204175746F74756E65206661C0
:1017F000696C6564212074696D656F7574002040A3
:101800003A006F6B20543A006F6B20423A00504907
:1018100044204175746F74756E65206661696C65EE
:1018200064212054656D70657261747572652074F1
:101830006F6F206869676800204B643A2000204B76
:10184000693A2000204B703A200020436C6173738A
:1018500069632050494420002054753A2000204BF1
:10186000753A2000206D61783A2000206D696E3A4B
:10187000200020643A200020626961733A20000051
:1018800000000000000000000000007FFFE00000FA
:10189000000000000000000000007000E0000000F8
:1018A000000000000000000000630C600000000069
:1018B0000000000000000000470E200000000000B3
:1018C000000000000000004F0F200000000000009A
:1018D0000000000000005F0FA000000000000000FA
:1018E00000000000005E07A07F80000000000000F4
:1018F00000410400406020FFC00000000000000024
:1019000020820040F020FFC0000000000000002006
:10191000820040F020FFC0000000000000004104F1
:10192000004060207F80000000000000008208006E
:101930005E07A07F80000000000000010410005F2F
:101940000FA0FFC0000000000000010410004F0FB6
:1019500020FFC000000000000000820800470E20A9
:10196000FFC000000000000000410400630C603F65
:1019700000000000000000000000007000E01E00F9
:1019800000000000000001FFFF807FFFE00C00006E
:10199000000000000001FFFF8000000000000000C8
:1019A00000000000000000007FFFE00000000000D9
:1019B000000000000000007000E0000000000000D7
:1019C00000000000000061F860000000000000005E
:1019D000000000000041F8200000000000000000AE
:1019E0000000000040F020000000000000000000A7
:1019F0000000004060200000000000000000000027
:101A000000005801A07F8000000000000000410499
:101A1000005C63A0FFC00000000000000020820006
:101A20005EF7A0FFC0000000000000002082005E02
:101A3000F7A0FFC0000000000000004104005C634C
:101A4000A07F80000000000000008208005801A074
:101A50007F8000000000000001041000406020FFB3
:101A6000C00000000000000104100040F020FFC092
:101A70000000000000000082080041F820FFC000C4
:101A800000000000000041040061F8603F00000019
:101A900000000000000000007000E01E00000000D8
:101AA00000000001FFFF807FFFE00C00000000004D
:101AB000000001FFFF800000002D2D2D2E2D2D0098
:101AC0002D2D2D002D2D2D002D2D2D002D2D3A2DC0
:101AD0002D00092000092000000000000000000087
:101AE00000000000000000000000000000000000F6
:101AF00000000000000000000000000000000000E6
:101B000000000000000000000000000000000000D5
:101B100000000000000000000000000000000000C5
:101B200000000000000000000000000000000000B5
:101B30000000000000000000000000000000FFF8AE
:101B40007C00000000000000000000000003FFFE19
:101B50007C0000000000000000000000000FFFFFFC
:101B6000FC0000000000000000000000001FFFFF5C
:101B7000FC0000000000000000000000003FFFFF2C
:101B8000FC0000000000000000000000007FFC0FCF
:101B9000FC0000000000000000000000007FE003E7
:101BA000FC0000000000000000000000007FE001D9
:101BB000FC0000000000000000000000007FC000EA
:101BC000FC0000000000000000000000007FCFFCCF
:101BD000FC0000000000000000000000007F8FFCFF
:101BE0007C0000000000000000000000007F8FFC6F
:101BF0007C0000000000000000000000007F8FFC5F
:101C00007C0000000000000000000000007F8E004B
:101C1000000000000000000000000000007F8E00B7
:101C2000000000000000000000000000007F8FFBAB
:101C3000FEFFF0000000000000000000007F8FFDAC
:101C4000FF7FF0000000000000000000007F8FFD1B
:101C5000FF7FF0000000000000000000007F8FFB0D
:101C6000FEFFF0000000000000000000007F8E007A
:101C70007C0F80000000000000000000007F8E004C
:101C80007C0F80000000000000000000007F8FFC3F
:101C90007C0F80000000000000000000007F8FFC2F
:101CA0007C0F80000000000000000000007FCFFCDF
:101CB000FC0F80000000000000000000007FCFFC4F
:101CC000FC0F80000000000000000000007FE00129
:101CD000FC0F80000000000000000000007FF807FB
:101CE000FC0F80000000000000000000007FFFFFEC
:101CF000FC0F80000000000000000000003FFFFF1C
:101D0000FC0F80000000000000000000001FFFFF2B
:101D1000FC0F800000000000000000000007FFFF33
:101D2000FC0F800000000000000000000000FFFE2B
:101D30007C0F8000000000000000000000003FF861
:101D40007C0F800000000000000000000000000088
:101D50000000000000000000000000000000000083
:101D60000000000000000000000000000000000073
:101D7000000000000000000000007FC1FE0FE1FE37
:101D8000FFE1FE1FEF0F00000001FFC7FE3FE3FE73
:101D9000FFE3FE3FEF0F00000001FFCFFE7FE7FEF5
:101DA000FFE7FE7FEF0F00000003FFDFFEFFEFFE07
:101DB000FFEFFEFFEF0F00000003C01E00F00F005A
:101DC0000E1F00F80F0F00000007C01E00F00F00EC
:101DD0000E1F00F00F0F00000007DFDFFEFFEFFE19
:101DE0000E1FFEF00FFF000000079FDFFEFFEFFE5B
:101DF0000E1FFEF00FFF000000079FDFFEFFEFFE4B
:101E00000E1FFEF00FFF00000007DFDFFEFFEFFEFA
:101E10000E1FFEF00FFF00000007C1DE00F00F00F4
:101E20000E1F00F00F0F00000003E1DE00F00F8036
:101E30000E1F00F80F0F00000003FFDFFEFFEFFE94
:101E40000E1FFEFFEF0F00000001FFCFFE7FE7FE39
:101E50000E0FFE7FEF0F00000000FFC7FE3FE3FE06
:101E60000E07FE3FEF0F000000007FC1FE1FE0FEE7
:101E70000E01FE0FEF0F0000000000000000000048
:101E80000000000000000000000000000000000052
:101E90000000000000000000000000000000000042
:101EA0000000000000000000000000000000000032
:101EB0000000000000000000000000000000000022
:101EC0000000000000000000000000000000000012
:101ED00000000000000000004E6F205344206361AA
:101EE0007264005072696E742066726F6D20534484
:101EF0000053746F70207072696E74005265737550
:101F00006D65207072696E74005061757365207024
:101F100072696E7400436F6E74726F6C00507265FC
:101F2000706172650054756E6500496E666F20734E
:101F3000637265656E005072696E742066726F6DB3
:101F4000205344005072696E742066726F6D205386
:101F50004400022E2E004D61696E004D3234004D5A
:101F6000323320257300526573746F726520666189
:101F7000696C73616665004C6F6164206D656D6F9F
:101F800072790053746F7265206D656D6F727900A0
:101F900046696C616D656E74004D6F74696F6E009B
:101FA00054656D7065726174757265004D61696E1E
:101FB0000046696C2E204469612E20310046696C10
:101FC0002E204469612E2031004F6666004F6E203E
:101FD000004520696E206D6D3300436F6E74726F23
:101FE0006C004573746570732F6D6D004573746577
:101FF00070732F6D6D005A73746570732F6D6D0063
:102000005A73746570732F6D6D00597374657073B6
:102010002F6D6D005973746570732F6D6D0058735B
:10202000746570732F6D6D005873746570732F6DC8
:102030006D00412D74726176656C00412D74726182
:1020400076656C00412D7265747261637400412D78
:102050007265747261637400416D6178206500413E
:102060006D6178206500416D6178207A00416D6175
:1020700078207A00416D6178207900416D61782087
:102080007900416D6178207800416D617820780099
:102090005654726176206D696E00565472617620D6
:1020A0006D696E00566D696E00566D696E00566DF5
:1020B0006178206500566D6178206500566D617805
:1020C000207A00566D6178207A00566D617820790B
:1020D00000566D6178207900566D61782078005641
:1020E0006D617820780056652D6A65726B005665C3
:1020F0002D6A65726B00567A2D6A65726B00567A8E
:102100002D6A65726B005678792D6A65726B005680
:1021100078792D6A65726B00416363656C00416379
:1021200063656C00436F6E74726F6C00507265680B
:102130006561742041425320636F6E660050726582
:102140006865617420504C4120636F6E6600504991
:10215000442D43005049442D43005049442D440030
:102160005049442D44005049442D49005049442DC4
:1021700049005049442D50005049442D500020083A
:1021800020466163740020082046616374002008C3
:10219000204D6178002008204D6178002008204DF6
:1021A000696E002008204D696E004F6666004F6E14
:1021B00020004175746F74656D700046616E207308
:1021C000706565640046616E2073706565640042E9
:1021D000656400426564004E6F7A7A6C65004E6FEC
:1021E0007A7A6C6500436F6E74726F6C0053746F13
:1021F0007265206D656D6F7279004265640042659D
:1022000064004E6F7A7A6C65004E6F7A7A6C650066
:1022100046616E2073706565640046616E20737060
:102220006565640054656D706572617475726500F2
:1022300053746F7265206D656D6F727900426564CD
:1022400000426564004E6F7A7A6C65004E6F7A7A50
:102250006C650046616E2073706565640046616E52
:102260002073706565640054656D70657261747586
:102270007265004D38300053776974636820706F61
:10228000776572206F6E004D383100537769746343
:102290006820706F776572206F666600436F6F6CA1
:1022A000646F776E005072656865617420414253B7
:1022B000005072656865617420504C41004D38349F
:1022C0000044697361626C65207374657070657237
:1022D00073004D6F766520617869730053657420D3
:1022E000686F6D65206F666673657473004732387A
:1022F000004175746F20686F6D65004D61696E00F7
:1023000050726568656174204142532042656400E3
:10231000507265686561742041425320416C6C00C5
:1023200050726568656174204142532031005072DB
:102330006570617265005072656865617420504C0B
:102340004120426564005072656865617420504C9C
:102350004120416C6C005072656865617420504C7E
:102360004120310050726570617265004D6F766575
:1023700020302E316D6D004D6F766520316D6D0012
:102380004D6F76652031306D6D00507265706172F1
:1023900065004578747275646572004D6F766520CE
:1023A0005A004D6F76652059004D6F7665205800B4
:1023B0004D6F766520617869730045787472756435
:1023C0006572005A0059005800466C6F7720300043
:1023D000466C6F77203000466C6F7700466C6F77E5
:1023E0000046616E2073706565640046616E2073FF
:1023F000706565640042656400426564004E6F7AF2
:102400007A6C65004E6F7A7A6C650053706565640E
:10241000005370656564004D61696E0043617264CC
:102420002072656D6F766564004361726420696E29
:10243000736572746564004D34323800000609001B
:10244000FE070192032120FFFF08FF07FF000000A5
:10245000060000010707060200808080808000805F
:10246000030202060105A0A0050707060000505060
:10247000F850F850500507070600002078A0702893
:10248000F020050707060000C0C810204098180576
:1024900007070600006090A040A8906802030306AA
:1024A0000104C040800307070601002040808080AF
:1024B00040200307070601008040202020408005BF
:1024C000050506000120A870A820050505060001E5
:1024D0002020F820200203030602FFC040800501EF
:1024E00001060003F8020202060200C0C00505054D
:1024F00006000108102040800507070600007088CC
:10250000888888887003070706010040C040404063
:1025100040E0050707060000708808708080F80515
:102520000707060000F81020100808F00507070646
:10253000000010305090F81010050707060000F852
:1025400080F008088870050707060000708080F09A
:10255000888870050707060000F808102020202052
:1025600005070706000070888870888870050707CF
:1025700006000070888878080870020505060200C9
:10258000C0C000C0C00206060602FFC0C000C040B6
:10259000800407070600001020408040201005033B
:1025A00003060002F800F804070706010080402037
:1025B00010204080050707060000708808102000E2
:1025C0002005070706000070880868A8A87005079E
:1025D00007060000708888F88888880507070600C5
:1025E00000F08888F08888F00507070600007088EA
:1025F0008080808870050707060000F0888888883A
:1026000088F0050707060000F88080F08080F80554
:102610000707060000F88080F08080800507070625
:102620000000708880B88888700507070600008859
:102630008888F888888801070706020080808080E3
:102640008080800507070600003810101010906089
:102650000507070600008890A0C0A090880507071E
:10266000060000808080808080F805070706000053
:1026700088D8A8888888880507070600008888C841
:10268000A8988888050707060000708888888888C9
:1026900070050707060000F08888F0808080050735
:1026A0000706000070888888A8906805070706005C
:1026B00000F08888F0A09088050707060000788061
:1026C00080700808F0050707060000F82020202089
:1026D00020200507070600008888888888887005FC
:1026E00007070600008888888888502005070706A5
:1026F00000008888888888A8500507070600008899
:102700008850205088880507070600008888885070
:10271000202020050707060000F80810204080F858
:10272000030707060100E08080808080E005050542
:102730000600018040201008030707060100E02082
:1027400020202020E0050303060004205088050116
:1027500001060000F8020202060205804005050598
:10276000060000700878887805070706000080805A
:10277000B0C88888F0050505060000708080887064
:102780000507070600000808689888887805050589
:102790000600007088F880700507070600003048C2
:1027A000E0404040400506060600FF708888780833
:1027B000700507070600008080B0C8888888010778
:1027C00007060200800080808080800308080601E0
:1027D000FF200020202020A04004070706000080E2
:1027E0008090A0C0A090030707060100C0404040B1
:1027F0004040E0050505060000D0A8A8A8A80505EA
:1028000005060000B0C88888880505050600007028
:10281000888888700506060600FFF08888F08080AA
:102820000506060600FF788888780808050505066D
:102830000000B0C88080800505050600007080702B
:1028400008F00407070600004040E0404040300523
:1028500005050600008888889868050505060000BB
:1028600088888850200505050600008888A8A8509B
:10287000050505060000885020508805060606005C
:10288000FF888888780870050505060000F8102084
:1028900040F8030707060100204040804040200127
:1028A000070706020080808080808080030707067B
:1028B000010080404020404080050202060002687E
:1028C000900000000600000000000600000000006C
:1028D00006000000000006000000000006000000E6
:1028E00000000600000000000600000000000600D6
:1028F00000000000060000000000060000000000CC
:1029000006000000000006000000000006000000B5
:1029100000000600000000000600000000000600A5
:10292000000000000600000000000600000000009B
:102930000600000000000600000000000600000085
:102940000000060000000000060000000000060075
:10295000000000000600000000000600000000006B
:102960000600000000000600000000000600000055
:102970000000060000000000060000000000060045
:10298000000000000600000000000600000107072C
:102990000602008000808080808005070706000016
:1029A0002070A8A0A870200507070600003040404E
:1029B000E04050A8050505060000887050708805A5
:1029C0000707060000885020F820F82001070706B6
:1029D00002008080800080808005080806000030AA
:1029E00048205050209060030101060107A0050710
:1029F00007060000F888B8B8B888F8050707060089
:102A000001700878887800F805050506000128504F
:102A1000A05028050303060001F808080202020678
:102A200002064080050707060000F888A88898A8D5
:102A3000F8050101060006F804040406000360908E
:102A400090600507070600002020F8202000F80409
:102A5000050506000360902040F00305050600030D
:102A6000E020E020E002020206020640800508089D
:102A70000600FF8888888898E88080050707060098
:102A80000078989878181818020202060202C0C04E
:102A90000202020602FF408003050506000340C053
:102AA0004040E0050707060001708888887000F83C
:102AB000050505060001A0502850A00507070600DF
:102AC000008890A858B808080507070600008890F5
:102AD000B848982038050808060000C040C048D80B
:102AE000380808050707060000200020408088708D
:102AF0000508080600004020007088F8888805084E
:102B0000080600001020007088F88888050808066C
:102B100000002050007088F888880508080600002A
:102B20006890007088F88888050808060000500042
:102B3000708888F8888805080806000020502070F2
:102B400088F888880507070600003860A0B8E0A06C
:102B5000B80508080600FF7088808088702060052E
:102B60000808060000402000F880F080F8050808FA
:102B7000060000081000F880F080F805080806003C
:102B800000205000F880F080F8050707060000508C
:102B900000F880F080F8030808060100804000E09B
:102BA000404040E0030808060100204000E04040AB
:102BB00040E003080806010040A000E0404040E07B
:102BC000030707060100A000E0404040E0050707BA
:102BD000060000704848E8484870050808060000EC
:102BE00068900088C8A8988805080806000040205A
:102BF0007088888888700508080600001020708892
:102C000088888870050808060000205000708888B1
:102C10008870050808060000689000708888887031
:102C2000050808060000500070888888887005052F
:102C30000506000188502050880508080600FF108E
:102C400070A8A8A8A87040050808060000402088C1
:102C50008888888870050808060000102088888801
:102C60008888700508080600002050008888888839
:102C7000700508080600005000888888888870055C
:102C8000080806000010208850202020200509098F
:102C90000600FFC040704848704040E00408080645
:102CA00001FF609090A09090E08005080806000069
:102CB0004020007008788878050808060000102079
:102CC0000070087888780508080600002050007019
:102CD0000878887805080806000068900070087871
:102CE0008878050707060000500070087888780586
:102CF000080806000020502070087888780506062D
:102D0000060000D02878A0A8500506060600FF702F
:102D10008088702060050808060000402000708848
:102D2000F880700508080600001020007088F88000
:102D3000700508080600002050007088F8807005B3
:102D4000070706000050007088F880700308080626
:102D5000010080400040C04040E003080806010038
:102D600020400040C04040E003080806010040A0A9
:102D70000040C04040E0030707060100A00040C03B
:102D80004040E0050707060000A040A010788870CA
:102D9000050808060000689000B0C8888888050803
:102DA0000806000040200070888888700508080622
:102DB0000000102000708888887005080806000050
:102DC0002050007088888870050808060000689008
:102DD000007088888870050707060000500070881A
:102DE0008888700505050600012000F80020050709
:102DF000070600FF1070A8A8A87040050808060084
:102E0000004020008888889868050808060000109F
:102E1000200088888898680508080600002050006F
:102E20008888889868050707060000500088888809
:102E300098680509090600FF102000888888F808AE
:102E4000700407070601FFC04060506040E00508BD
:102E5000080600FF5000888888780870000609007E
:102E6000FE000000000001090008FE00000508083F
:102E700006000040F0C88888987810050808060009
:102E800000C0F88888888888F805050506000120B4
:102E900030F830200508080600002070F8202020B7
:102EA00020E00509090600FF2070A8A8B8888870EE
:102EB000200509090600FFE080C0B0A828302828B6
:102EC0000509090600FFF8A88888888888A8F805F9
:102ED0000A0A0600FE205050505088A8A8887003A7
:102EE000030306000340A040000021002400270047
:102EF0002A002D0030003300010100000401070109
:102F00000A0100002200250028002B002E003100BD
:102F1000340002010000050108010B01000020003F
:102F20002300260029002C002F00320000010000A1
:102F3000030106010901050505050705080808083C
:102F4000020202020A0A0808040404040101010141
:102F5000010101010303030303030303040707073C
:102F60000C0C0C0C0C0C0C0C0202020206060606E1
:102F7000060606060B0B0B0B0B0B0B0B01021020AE
:102F8000200808102040102040800201020108049F
:102F90000201010204081020408080402010080433
:102FA000020180040201804020100804020108048C
:102FB00002010102040810204080010204081020D0
:102FC00040800000090A02080B0C0D0706030401EB
:102FD00000000000000000000000000000000000F1
:102FE00000000000000000000000000000001110C0
:102FF0000F000000000000000000000000000000C2
:10300000000000000000000002494E46494E4954AD
:10301000594E414ECDCCCC3D0AD7233C17B7D138C1
:1030200077CC2B329595E6241FB14F0A0000204142
:103030000000C84200401C4620BCBE4CCA1B0E5AB1
:10304000AEC59D74AA37E93C779E76CEE43C112448
:103050001FBECFEFD1E2DEBFCDBF00E00CBF14E05A
:10306000A0E0B2E0E6E7F5EC01E00BBF02C007909C
:103070000D92A638B107D9F71BBE15E1A6E8B4E05A
:1030800001C01D92A534B107E1F710E3CCE4D0E311
:1030900004C02297FE010E9461E2C434D107C9F73F
:1030A0000E947BD90C94AFE20C940000A0E0B0E049
:1030B000ECE5F8E10C947EE2EC015B016115710531
:1030C00019F0FB0191838083F9908F2D90E00E948D
:1030D00065E2892BC9F7FDE2FF1621F4F990EE2491
:1030E000E39405C02BE2F21609F4F990EE248E0168
:1030F00001501040C80169E070E343E050E062D243
:10310000892BF9F48E010E5F1F4FC8016CE070E34C
:1031100045E050E057D2892B19F48E01095F1F4F0B
:10312000A114B10419F0F50111830083E0FC04C07F
:1031300070E090E080E813C070E090E080E86FEF0E
:1031400007C1C80161E170E343E050E03BD2892B45
:1031500069F4A114B10429F470E090E080EC6FE709
:10316000F7C02296F501D183C083F6CF8824992435
:1031700040E050E060E070E0EF2DE053EA30A0F571
:10318000F2E0EF2A8E2D90E09C0128703070E2FE74
:1031900006C0232B79F50894811C911C2BC0232B8E
:1031A00019F0089481089108DB01CA0112E0880F28
:1031B000991FAA1FBB1F1A95D1F7480F591F6A1FE5
:1031C0007B1F440F551F661F771F4E0F511D611D3A
:1031D000711D483929E9520729E9620729E1720777
:1031E00048F084E0E82A06C0EE3F31F4E3FC39C041
:1031F00098E0E92AF990C0CFE53311F0E53189F57F
:1032000029912D3219F4E0E1EE2A05C02B3219F094
:1032100081E090E003C0299182E090E0E22FE0534A
:10322000EA3018F0C81BD90B1CC020E030E0FCE0ED
:1032300020383F075CF4C901880F991F880F991F38
:10324000280F391F220F331F2E0F311DE991E05334
:10325000EA3068F3E4FE03C0309521953F4F820EBB
:10326000931ECE2CDD24E1FE07C0A114B10421F091
:103270002197F501D183C083CB01BA010E94CADE38
:103280007B018C01F3E0CF22DD2423E0C216D104C0
:1032900021F417FB109517F9109557016801C80123
:1032A000B70120E030E040E050E00E942ADE8823B1
:1032B00009F44AC097FE0DC028E2E22E20E3F22E68
:1032C0009094819491089394C0E2D0E000E010E0E3
:1032D00012C090E4E92E90E3F92EF6CFF701259184
:1032E000359145915491C601B5010E940AE15B01F7
:1032F0006C018C1A9D0A8C169D0684F7D595C7958E
:103300000F5F1F4F0630110529F08CEF9FEFE80E7D
:10331000F91EF1CFC501D6017C018D018C2D880FDE
:103320008D2D881F8F3F51F0C601B50120E030E0A0
:1033300040E050E00E942ADE882331F482E290E0EF
:1033400090934415809343157E2D9F2D802F612FE0
:10335000272F392F482F562FB901CA01CDB7DEB715
:10336000ECE00C949AE22F923F925F926F927F92E0
:103370008F929F92AF92BF92CF92DF92EF92FF9285
:103380000F931F93CF93DF938C011B01EA0161150B
:10339000710519F0FB0191838083209749F0CE01DC
:1033A0000297839728F020E030E040E050E0F6C03C
:1033B000F801A1908F018A2D90E00E9465E2892B8F
:1033C000B9F7FDE2AF1631F4F801A1908F01552451
:1033D000539407C0FBE2AF1619F4F801A1908F01D6
:1033E0005524209719F0C031D105C1F4F0E3AF1690
:1033F00079F4F8018081883711F0883549F4F801B3
:10340000A1800E5F1F4FF2E05F2AC0E1D0E006C04E
:10341000209721F480E3A816E9F427C0C830D1052D
:1034200031F1C930D10524F4C230D10531F50CC0D9
:10343000CA30D10589F0C031D105F9F4C12CD12CA5
:10344000E12CB8E0FB2E28C0C12CD12CE12CA0E44B
:10345000FA2E22C0CAE0D0E0FCECCF2EFCECDF2E2E
:10346000FCECEF2EFCE0FF2E17C0C8E0D0E0C12C32
:10347000D12CE12CE0E1FE2E0FC09E01442737FD48
:103480004095542F60E070E080E090E80E9422E2D6
:10349000C901DA016C017D0120E030E040E050E03C
:1034A00060E03E01882477FC8094982C70EDB72E64
:1034B000BA0CE9E0EB1570F48A2D81548A3118F4C6
:1034C00099ECB92E06C08A2D81568A3150F589EAC9
:1034D000B82EBA0C8B2D90E08C179D0714F56F3F1A
:1034E000E1F0C216D306E406F506B0F0CA01B90150
:1034F000A40193010E94DCE19B01AC012B0D311D65
:10350000411D511D2130F0E03F07F0E04F07F0E88A
:103510005F0710F461E001C06FEFF801A1908F0127
:10352000C5CF2114310481F0662331F001501040E1
:10353000F1011183008308C051FE1AC002501040EF
:10354000F1011183008314C067FF12C050FC05C055
:103550002FEF3FEF4FEF5FE704C020E030E040E0A7
:1035600050E882E290E0909344158093431516C092
:1035700050FE08C050954095309521953F4F4F4FD4
:103580005F4F0CC057FF0AC082E290E09093441551
:10359000809343152FEF3FEF4FEF5FE7B901CA016B
:1035A000DF91CF911F910F91FF90EF90DF90CF901F
:1035B000BF90AF909F908F907F906F905F903F9063
:1035C0002F900895FB01DC014150504088F08D910F
:1035D00081341CF08B350CF4805E659161341CF0F5
:1035E0006B350CF4605E861B611171F3990B0895C5
:1035F000881BFCCFFB01DC014150504048F0059096
:103600000D920020C9F701C01D9241505040E0F7D3
:103610000895FB0155915523A9F0BF01DC014D919F
:1036200045174111E1F759F4CD010590002049F00B
:103630004D9140154111C9F3FB014111EFCF81E0DC
:1036400090E001970895FB01DC0104C08D91019089
:10365000801921F441505040C8F7881B990B0895F8
:10366000FB01DC0102C001900D9241505040D8F79F
:103670000895FB01DC018D9181341CF08B350CF435
:10368000805E619161341CF06B350CF4605E861BCA
:10369000611189F3990B0895FB01DC010D90002065
:1036A000E9F7119701900D920020E1F70895FC01D0
:1036B0008191861721F08823D9F7992708953197AA
:1036C000CF010895FB01DC018D910190801901105B
:1036D000D9F3990B0895FB01DC0101900D920020B4
:1036E000E1F70895FB01DC014150504030F08D912D
:1036F0000190801919F40020B9F7881B990B0895DF
:10370000FB01DC014150504048F001900D92002037
:10371000C9F701C01D9241505040E0F70895AEE056
:10372000B0E0E5E9FBE10C9486E20E891F898EE0AA
:103730008C831A8309838FEF9FE79E838D839E017D
:10374000265E3F4FCE010196688D798DA9010AD082
:103750002F813885020F131FF80110822E96E4E0A6
:103760000C94A2E2ABE0B0E0E8EBFBE10C9478E271
:103770003C012B015A01FC0117821682838181FDD5
:1037800003C06FEF7FEFB9C19AE0892E1E01089444
:10379000211C311CF3012381F20123FD859123FFBC
:1037A00081912F01882309F4A5C1853239F423FDC5
:1037B000859123FF81912F01853221F490E0B3019F
:1037C000B7D1E8CF982FFF24EE249924FFE1FF150D
:1037D000D0F09B3269F09C3228F4903259F0933249
:1037E00091F40EC09D3249F0903369F441E024C059
:1037F00052E0F52A84E0F82A28C098E0F92A25C08A
:10380000E0E1FE2A22C0F7FC29C0892F80538A30CC
:1038100070F4F6FE05C0989C902C1124980E15C0EB
:10382000E89CE02C1124E80EF0E2FF2A0EC09E3244
:1038300029F4F6FC5FC140E4F42A07C09C3619F471
:1038400050E8F52A02C0983649F4F20123FD95911B
:1038500023FF91912F01992309F0B8CF892F855427
:10386000833018F08052833038F444E050E0A40EE6
:10387000B51E5FE359830FC0933631F0933779F06B
:10388000933509F052C01FC0F5018081898342E061
:1038900050E0A40EB51E610101E010E011C0F50179
:1038A000C080D180F6FC03C06FEF7FEF02C0692DAE
:1038B00070E042E050E0A40EB51EC6012ED18C018E
:1038C0005FE7F52213C0F501C080D180F6FC03C08C
:1038D0006FEF7FEF02C0692D70E042E050E0A40E70
:1038E000B51EC6010FD18C0150E8F52AF3FE06C0C3
:1038F00018C080E290E0B3011BD1EA948E2D90E0D5
:1039000008171907B0F30DC0F601F7FC8591F7FE13
:1039100081916F0190E0B3010BD1E110EA94015065
:1039200010400115110581F7E2C0943611F0993667
:1039300061F5F7FE08C0F501208131814281538194
:1039400084E090E00AC0F501808191819C014427C8
:1039500037FD4095542F82E090E0A80EB91E9FE6F7
:10396000F92257FF09C050954095309521953F4F5A
:103970004F4F5F4FE0E8FE2ACA01B901A1012AE0DA
:1039800030E002D1D82ED2183FC0953729F41F2D30
:103990001F7E2AE030E01DC01F2D197F9F3661F089
:1039A000903720F4983509F0A5C00FC0903739F052
:1039B000983709F09FC004C028E030E00AC01061C9
:1039C00014FD146020E130E004C014FD166020E115
:1039D00032E017FF08C0F501608171818281938117
:1039E00044E050E008C0F50180819181BC0180E095
:1039F00090E042E050E0A40EB51EA101C5D0D82E43
:103A0000D2188FE7F82EF122F6FE0BC05EEFF522FA
:103A1000D91438F4F4FE07C0F2FC05C08FEEF8228A
:103A200002C01D2D01C0192DF4FE0DC0FE01ED0DCB
:103A3000F11D8081803319F499EEF92208C01F5FCF
:103A4000F2FE05C003C08F2D867809F01F5F0F2D91
:103A5000F3FC13C0F0FE0EC01E1510F09D2C0AC022
:103A60009D2C9E0C911A1E2D05C080E290E0B301A2
:103A70005FD01F5F1E15C8F304C01E1510F4E11AB5
:103A800001C0EE2404FF0EC080E390E0B30150D0EB
:103A900002FF1BC001FD03C088E790E00EC088E56F
:103AA00090E00BC0802F867881F001FF02C08BE28E
:103AB00001C080E2F7FC8DE290E0B30139D005C08F
:103AC00080E390E0B30134D09A94D914C8F3DA9427
:103AD000F101ED0DF11D808190E0B30129D0DD20D1
:103AE000B1F705C080E290E0B30122D0EA94EE2065
:103AF000C9F750CEF30166817781CB012B96E2E1C5
:103B00000C9494E2FC010590615070400110D8F7CC
:103B1000809590958E0F9F1F0895FC016150704015
:103B200001900110D8F7809590958E0F9F1F0895F2
:103B30000F931F93CF93DF938C01EB018B8181FF58
:103B40001BC082FF0DC02E813F818C819D81281773
:103B5000390764F4E881F9810193F983E88306C0A9
:103B6000E885F985802F1995892B31F48E819F8105
:103B700001969F838E8302C00FEF1FEFC801DF9174
:103B8000CF911F910F910895FA01AA27283051F182
:103B9000203181F1E8946F936E7F6E5F7F4F8F4F7E
:103BA0009F4FAF4FB1E03ED0B4E03CD0670F781FDD
:103BB000891F9A1FA11D680F791F8A1F911DA11DC2
:103BC0006A0F711D811D911DA11D20D009F46894FB
:103BD0003F912AE0269F11243019305D3193DEF6A3
:103BE000CF010895462F4770405D4193B3E00FD059
:103BF000C9F7F6CF462F4F70405D4A3318F0495D44
:103C000031FD4052419302D0A9F7EACFB4E0A69526
:103C10009795879577956795BA95C9F70097610548
:103C2000710508959B01AC010A2E0694579547959E
:103C300037952795BA95C9F7620F731F841F951F93
:103C4000A01D0895FC01128213820895FC01838156
:103C5000882311F081E082830895FC018281811123
:103C600012820895CF93DF93DC01FC01EB55FE4FE8
:103C7000808191810097C9F1019791838083ED0143
:103C8000CC5ADF4FFD01ED58FF4F8BE101900992B7
:103C90008150E1F7FD01EE5AFF4FAF58BF4F8D91B4
:103CA0009C911197A157B04091838083FD01ED58FD
:103CB000FF4F20E030E0AD014B555E4F10C02F5F4D
:103CC0003F4FEF01DF015F968BE10D90099281502C
:103CD000E1F7858D968D329791838083B196DA01D5
:103CE0008D919C912817390750F3DF91CF9108955A
:103CF000FC0181E594E0918380838781882321F012
:103D0000CF0104960C9445750895CF92DF92EF92FF
:103D1000FF920F931F93DF93CF93CDB7DEB76F97CB
:103D20000FB6F894DEBF0FBECDBF8C017B01095AE0
:103D30001F4FD8018C9107551040882321F42FE2A2
:103D4000C22ED12C03C090E5C92ED12CC00ED11E9D
:103D500081E594E09A8389831C821B8218861D82E8
:103D6000B6016C5F7F4FCE010596A70121E00E944E
:103D7000277C882381F5E5EEF5E007C08091C0003F
:103D800085FFFCCF9093C600319694919923B1F7AB
:103D9000EBE3F1E007C08091C00085FFFCCF90937A
:103DA000C600319694919923B1F709C08091C00063
:103DB00085FFFCCF0894E11CF11C9093C600F7012D
:103DC0009081992399F78091C00085FFFCCF8AE00C
:103DD0008093C6005AC0F801EB55FE4F2081318117
:103DE0002A30310508F040C02F5F3F4F31832083D8
:103DF00021503040F90185E0EE0FFF1F8A95E1F771
:103E0000E21BF30BED58FF4FE00FF11F13C0AF01A2
:103E1000415E5F4FBF018BE1DB010D90BD01DA0117
:103E20000D92AD018150C1F7929182913296968F99
:103E3000858F7F9721503040BFEF2E3F3B0739F7EA
:103E4000D801AD58BF4FF60134968BE101900D9229
:103E50008150E1F70F581F4FF60182819381D801FD
:103E60008D939C9301571040D801AC5ABF4FFE016F
:103E700035968BE101900D928150E1F70E5A1F4F5C
:103E80008B819C81F80191838083CE01019630DF84
:103E90006F960FB6F894DEBF0FBECDBFCF91DF9106
:103EA0001F910F91FF90EF90DF90CF900895EF92C8
:103EB000FF920F931F938C013EECE32E31E0F32E23
:103EC000E80EF91EC7010E94F874C7010E944575EB
:103ED000F801118210821F910F91FF90EF900895C9
:103EE000CF92DF92EF92FF920F931F93CF93DF93C6
:103EF0007C016B01DB010D900020E9F78D01015081
:103F00001040061B170BEEECF1E0EE0EFF1ED70182
:103F10001C92E2E3FEEFEE0EFF1ECB016EE470E0BA
:103F2000C6DBEC01009731F4F8013197EC0DFD1D73
:103F300086010CC060E270E0BADB8C010F5F1F4F9E
:103F4000CE016AE270E0B3DBFC0131978DE0818342
:103F50008AE082831382C70186539E4FB8010E9474
:103F6000387D8EEC91E0E80EF91ED7018C91882304
:103F700009F1EEEDF5E007C08091C00085FFFCCFB0
:103F80009093C600319694919923B1F7E5E6F1E05C
:103F900007C08091C00085FFFCCF9093C60031968A
:103FA00094919923B1F78091C00085FFFCCF8AE0FE
:103FB0008093C600DF91CF911F910F91FF90EF90FA
:103FC000DF90CF900895CF93DF93EC018B8188230E
:103FD00019F4EBE7F1E03AC0EBE8F1E007C08091BB
:103FE000C00085FFFCCF9093C60031969491992331
:103FF000B1F7CD57DD4F488159816A817B81C35824
:10400000D2408AE095E02AE030E00E944338809177
:10401000C00085FFFCCF8FE28093C600C558DD4FFE
:10402000488159816A817B818AE095E02AE030E00D
:104030000E9443388091C00085FFFCCF0EC0809164
:10404000C00085FFFCCF9093C600319694919923D0
:10405000B1F78091C00085FFFCCF8AE08093C60055
:10406000DF91CF9108952F923F924F925F926F927E
:104070007F928F929F92AF92BF92CF92DF92EF92F8
:10408000FF920F931F93DF93CF93CDB7DEB7AC971B
:104090000FB6F894DEBF0FBECDBF5C014B01FC0133
:1040A0008381882309F41CC1C50182539E4F0E945D
:1040B0004575F50112821A8A1D8A198A188A81E5C6
:1040C00094E09F878E875EE4C52ED12CCA0CDB1C42
:1040D0002FE230E0A20EB31EF601B182A08221EDE4
:1040E0003FEFA20EB31EF40180818F3209F07EC033
:1040F000C4016FE270E0DBDA7C010894E11CF11C82
:104100003E010894611C711C260142E1242E312CD1
:104110002C0E3D1E66C0C7016FE270E0C8DA6C016C
:10412000009709F471C0E816F90608F06DC08C011B
:104130000E191F09C301B701A801E2DA060D171D08
:10414000F8011082F30107C08091C00085FFFCCF09
:1041500031969093C60090819923B1F78091C00069
:1041600085FFFCCFFAE0F093C600F2016081718117
:104170006115710519F460E070E002C06C5F7F4F5B
:10418000C101A30121E00E94277C8823F9F4E3EC1C
:10419000F1E007C08091C00085FFFCCF9093C6007E
:1041A000319694919923B1F7FE01319607C0809121
:1041B000C00085FFFCCF31969093C6009081992373
:1041C000B1F78091C00085FFFCCF84C02EE030E0C5
:1041D0002C0F3D1FF2013183208376010894E11CEE
:1041E000F11CE114F10409F096CF0BC080E590E0DA
:1041F000A80EB91EF601B182A08220EB3FEFA20EFD
:10420000B31ED82C092D02C0DE2C0F2D8EE490E0B9
:10421000A80EB91EF5018081918122EB3FEFA20E1D
:10422000B31E009719F480E090E001C004966D2D54
:10423000702F0E94F37C882319F4EDE9F1E034C07B
:10424000E5EBF1E007C08091C00085FFFCCF9093C3
:10425000C600319694919923B1F78D2D902F9C0132
:10426000F90107C08091C00085FFFCCF3196909383
:10427000C60090819923B1F78091C00085FFFCCFE3
:104280008AE08093C60083E892E0A80EB91EF5018B
:10429000108211821282138220C08091C00085FF9B
:1042A000FCCF9093C600319694919923B1F78D2D50
:1042B000902F9C01F90107C08091C00085FFFCCFC1
:1042C00031969093C60090819923B1F78091C000F8
:1042D00085FFFCCF8EE28093C600CE010E9608DDEE
:1042E000AC960FB6F894DEBF0FBECDBFCF91DF9175
:1042F0001F910F91FF90EF90DF90CF90BF90AF9004
:104300009F908F907F906F905F904F903F902F90F5
:104310000895BF92CF92DF92EF92FF920F931F9377
:10432000CF93DF938C01EB018FE28993EE24E3942A
:10433000FF2475EAC72E71E0D72EC00ED11E6FE1A3
:10434000B62E14C0FB9CC00111248D589F4F800FC6
:10435000911FBE010E94557502C02196E394888189
:10436000882319F08CE88E15C0F7F3942F2D30E0D8
:10437000F601808191812817390720F3E7FC07C0F7
:10438000C80182539E4FBE010E94557501C018821C
:10439000DF91CF911F910F91FF90EF90DF90CF9021
:1043A000BF900895EF92FF920F931F93CF93DF93E7
:1043B000EC011B828EA9882321F0CE01C3960E94B6
:1043C0004575E7EAEE2EE1E0FE2EEC0EFD1EC7017C
:1043D00060E045E30E94F4728823F9F4E5EEF5E02D
:1043E00007C08091C00085FFFCCF9093C600319636
:1043F00094919923B1F7E5E1F3E007C08091C00003
:1044000085FFFCCF9093C600319694919923B1F724
:104410008091C00085FFFCCF76C08E0104551E4FF1
:10442000C801B70141E00E94C97D882331F5C80168
:10443000B70140E00E94C97D8823F9F4EEEDF5E074
:1044400007C08091C00085FFFCCF9093C6003196D5
:1044500094919923B1F7E2E0F3E007C08091C000A6
:1044600085FFFCCF9093C600319694919923B1F7C4
:104470008091C00085FFFCCF46C0CE01C396B80135
:104480000E942D788823F9F4EEEDF5E007C08091C5
:10449000C00085FFFCCF9093C6003196949199237C
:1044A000B1F7E2EFF2E007C08091C00085FFFCCFDA
:1044B0009093C600319694919923B1F78091C000F2
:1044C00085FFFCCF20C081E08B83E5EEF5E007C0DF
:1044D0008091C00085FFFCCF9093C60031969491E7
:1044E0009923B1F7E7EEF2E007C08091C00085FFA5
:1044F000FCCF9093C600319694919923B1F78091A7
:10450000C00085FFFCCF8AE08093C600DE01AC5A74
:10451000BF4FFE01F3968BE101900D928150E1F7C0
:1045200089A99AA9CE5ADF4F99838883C255D04072
:10453000CE018F96C25BDF4F99838883DF91CF9145
:104540001F910F91FF90EF9008952F923F924F92FD
:104550005F926F927F929F92AF92BF92CF92DF92C3
:10456000EF92FF920F931F93DF93CF93CDB7DEB7F8
:10457000CC5BD0400FB6F894DEBF0FBECDBF6C0150
:10458000662309F0DFC027E832E0C20ED31ED60151
:104590008C91E9E7FDEFCE0EDF1E882309F4E3C01E
:1045A0002FE732E0C20ED31ED601ED90FD900D91A3
:1045B0001C91E1E8FDEFCE0EDF1E0E94C0D6E6168C
:1045C000F7060807190708F4CEC0BCC0C601EADE2A
:1045D000D60113968C91882309F4C5C000D000D071
:1045E000EDB7FEB731967E010894E11CF11CADB722
:1045F000BEB71296FC92EE9211978CE591E09383F0
:104600008283D6019D968D919C919E9795838483FC
:1046100086D88701EDB7FEB736960FB6F894FEBF81
:104620000FBEEDBF57010AC0D8018C91992787FDB5
:1046300090950E946DE2F80181938F01F501019040
:104640000020E9F73197EA19FB09802F8E198E17A0
:104650005CF313E3A12EB12CAC0CBD1CC50140E0F2
:1046600050E060E070E00E942E749924BBE0EB2ED5
:10467000F12CEC0EFD1E2E010894411C511CABE2E6
:104680006A2E712C6C0E7D1EF5E52F2EF1E03F2E6B
:104690003EC0D8018C9190E00E946DE2F8018193B8
:1046A0008F01D7010D900020E9F71197AE19BF09CE
:1046B000802F8E198A176CF38C898E3741F1C701D0
:1046C000B20145E050E00ED8009709F500D000D0C7
:1046D000EDB7FEB73196ADB7BEB712967C926E922B
:1046E0001197338222825582448219D8EDB7FEB7E2
:1046F00036960FB6F894FEBF0FBEEDBFC3010E9401
:104700005A4A81E591E00E94AC5299249394C501E4
:10471000B70140E050E00E945677181614F4870164
:10472000C0CF992041F48FEF9FEFD6019E969C93C6
:104730008E939D9718C0F60185A596A5019696A71C
:1047400085A711C027E832E0C20ED31ED6011C9205
:10475000E9E7FDEFCE0EDF1ED60113968C9188237C
:1047600009F434CF3BCFC454DF4F0FB6F894DEBF0B
:104770000FBECDBFCF91DF911F910F91FF90EF90B2
:10478000DF90CF90BF90AF909F907F906F905F90A1
:104790004F903F902F9008952F923F924F925F92AB
:1047A0006F927F928F929F92AF92BF92CF92DF9241
:1047B000EF92FF920F931F93DF93CF93CDB7DEB7A6
:1047C000C857D0400FB6F894DEBF0FBECDBF7C01F6
:1047D0005B013A01E1963FAF2EAFE1978DB79EB7EF
:1047E000E3969FAF8EAFE397E4E0F0E06E0E7F1E9E
:1047F000C7014296AF969FAF8EAFAF9725E0822E4E
:10480000912C8E0C9F1CAD961FAEAD979CE4C92ECB
:10481000D12CCC0EDD1EF701E857FD4FE996FFAF16
:10482000EEAFE9978AE8282E82E0382E2E0C3F1C46
:104830000BE0402E512C4C0C5D1C7DC1F601838594
:10484000282F30E0A901487150704031510509F01E
:104850007EC1E996EEADFFADE9978081918181300F
:10486000910509F474C1029709F471C1FDB7E69688
:10487000FFAFE6978EB7E7968FAFE797F501019008
:104880000020E9F7EA19FB093D968DB79EB78E1B0C
:104890009F0B0FB6F8949EBF0FBE8DBF0DB71EB70E
:1048A0000F5F1F4FF601DE0111969081903239F0B3
:1048B0008E2F8C19883011F48EE28D939D93319652
:1048C000E415F50591F71C92F8011082F50180813D
:1048D000882329F4C80160E072E00E944C1BE49632
:1048E0000FAFE497E5961FAFE597C801B5010E94A9
:1048F0004C1BC801BE016F5F7F4F0E944C1BC8015B
:1049000060E072E00E944C1B1A8A1D8A198A188A7C
:1049100081E594E09F878E87CE014296B301AE0178
:104920004F5F5F4F21E00E94277C882309F03DC044
:10493000E996EEADFFADE99780819181892BA9F5CC
:10494000E5EEF5E007C08091C00085FFFCCF9093B5
:10495000C600319694919923B1F7E2E0F2E007C0E6
:104960008091C00085FFFCCF31969093C600908166
:104970009923B1F78091C00085FFFCCFFAE0F09356
:10498000C600FE01319607C08091C00085FFFCCFB4
:1049900031969093C60090819923B1F78091C00021
:1049A00085FFFCCF8AE08093C600DE01D196FE0130
:1049B00072968BE101900D928150E1F78889998977
:1049C00098AB8FA7E1E5F4E0FEA7EDA7C701E49659
:1049D0006FADE497E5967FADE597AE01435D5F4F20
:1049E00020E030E0D9DECE018D9682D9CE010E9640
:1049F0007FD9E6962FADE697E7963FADE797C901D9
:104A00000FB6F8949EBF0FBE8DBF95C08E3209F4CD
:104A100092C0F70182898E3209F48DC023FD8BC0CC
:104A200080E04031510509F481E0F7018483882357
:104A300049F4F6018085873409F07DC081858E3781
:104A400009F479C0E996EEADFFADE99780819181D7
:104A50008130910531F082309105E1F1892B41F0EF
:104A60006AC0F1018081918101969183808363C046
:104A7000D401F6018081803241F08E2F8C1988306C
:104A800011F48EE28D9380818D933196E415F505B6
:104A900089F71C92F50107C08091C00085FFFCCF0B
:104AA00031969093C60090819923B1F7F40107C025
:104AB0008091C00085FFFCCF31969093C600908115
:104AC0009923B1F78091C00085FFFCCF9AE09093C5
:104AD000C60031C0D401F6018081803241F08E2FB2
:104AE0008C19883011F48EE28D9380818D933196EC
:104AF000E415F50589F71C92E196EEADFFADE1975F
:104B0000309739F0CF01B4010E94391B892B61F431
:104B100023C0AD96FFADAD972F2F30E0F10180811E
:104B2000918128173907C1F0AD96FFADAD97FF5FB2
:104B3000AD96FFAFAD97C301B601AF964EAD5FAD79
:104B4000AF970E94567718160CF478CE05C0F60180
:104B50008081882309F05ACFE3968EAD9FADE3970D
:104B60000FB6F8949EBF0FBE8DBFC858DF4F0FB66B
:104B7000F894DEBF0FBECDBFCF91DF911F910F9193
:104B8000FF90EF90DF90CF90BF90AF909F908F906D
:104B90007F906F905F904F903F902F900895EF928D
:104BA000FF920F931F93DF93CF93CDB7DEB76F972D
:104BB0000FB6F894DEBF0FBECDBF7C018C01025B47
:104BC0001F4F805B9F4FF8019183808328E832E07C
:104BD000E20EF31E21E030E0F701219331937F01D3
:104BE0001182108226E73DEFE20EF31E049640E0AC
:104BF00050E060E070E00E942E74F8012081318165
:104C0000DE011596F90134968BE101900D928150E9
:104C1000E1F7F901828193819C838B8381E594E0A4
:104C20009A838983C70165E172E08E010F5F1F4F90
:104C3000A80120E030E0B0DDC8015AD8F701E657FE
:104C4000FD4F808191816F960FB6F894DEBF0FBE45
:104C5000CDBFCF91DF911F910F91FF90EF900895FD
:104C6000CF92DF92EF92FF920F931F93DF93CF9338
:104C7000CDB7DEB76F970FB6F894DEBF0FBECDBFCE
:104C80007C016A018C01025B1F4F805B9F4FF80122
:104C90009183808328E832E0E20EF31E22E030E0C8
:104CA000F701219331937F017183608326E73DEF04
:104CB000E20EF31E049640E050E060E070E00E94D7
:104CC0002E74F80120813181DE011596F9013496A8
:104CD0008BE101900D928150E1F7F901828193817E
:104CE0009C838B8381E594E09A838983C70165E186
:104CF00072E08E010F5F1F4FA80196014DDDC801C4
:104D00000E94781E6F960FB6F894DEBF0FBECDBF1F
:104D1000CF91DF911F910F91FF90EF90DF90CF9097
:104D200008952F923F924F925F926F927F928F924F
:104D30009F92AF92BF92CF92DF92EF92FF920F932A
:104D40001F93DF93CF93CDB7DEB7AD970FB6F8942F
:104D5000DEBF0FBECDBF7C014B014DA7DC0113961A
:104D60008C91882309F41FC3E1EDF1E0EE0EFF1EE4
:104D7000D7018C91EFE2FEEFEE0EFF1E882309F4BF
:104D800011C1222319F0E5EEF5E0E3C029EE31E090
:104D9000E20EF31ED7018C91E7E1FEEFEE0EFF1E4F
:104DA000882319F4E5EEF5E035C0EEEDF5E007C037
:104DB0008091C00085FFFCCF9093C60031969491FE
:104DC0009923B1F7E4EAF2E007C08091C00085FFC3
:104DD000FCCF9093C600319694919923B1F78AE065
:104DE00095E061E070E04AE050E00E9492388091E6
:104DF000C00085FFFCCF8AE08093C6008BE992E07B
:104E00000E94F83CD0C28091C00085FFFCCF9093F7
:104E1000C600319694919923B1F7E2E8F2E007C019
:104E20008091C00085FFFCCF9093C600319694918D
:104E30009923B1F7F40107C08091C00085FFFCCF32
:104E400031969093C60090819923B1F7E7E7F2E09D
:104E500007C08091C00085FFFCCF9093C6003196BB
:104E600094919923B1F7C7012EEE31E0E20EF31EC3
:104E7000B7014FDA4BEF5FEFE40EF51ED7019C91BF
:104E8000E7E1FEEFEE0EFF1E8DE8989FF001112482
:104E9000E251FE4FEE0DFF1D07C08091C00085FF5F
:104EA000FCCF31969093C60090819923B1F7E1E74A
:104EB000F2E007C08091C00085FFFCCF9093C60050
:104EC000319694919923B1F723E832E0E20EF31E74
:104ED000D7014D915D916D917C91EDE7FDEFEE0E67
:104EE000FF1E8AE095E02AE030E00E94433880917E
:104EF000C00085FFFCCF8AE08093C600A701475120
:104F00005E4FDA012C91E22FF0E0EE0FFF1FEE0F63
:104F1000FF1FEE0DFF1DE651FE4F83E892E0E80E05
:104F2000F91ED701AD90BD90CD90DC908DE79DEF3F
:104F3000E80EF91EA082B182C282D3822F5FDA010D
:104F40002C932AC08091C00085FFFCCF9093C600AF
:104F5000319694919923B1F7E0E6F2E007C0809191
:104F6000C00085FFFCCF9093C600319694919923A1
:104F7000B1F7F40107C08091C00085FFFCCF3196E6
:104F80009093C60090819923B1F78091C00085FF6E
:104F9000FCCF8AE08093C600C70182539E4F0E94D7
:104FA000457537C0E9EEF1E0EE0EFF1ED7011C9209
:104FB000E7E1FEEFEE0EFF1EE5EEF5E007C08091A3
:104FC000C00085FFFCCF9093C60031969491992341
:104FD000B1F7EFE4F2E007C08091C00085FFFCCF9D
:104FE0009093C600319694919923B1F7F40107C0CC
:104FF0008091C00085FFFCCF31969093C6009081D0
:105000009923B1F78091C00085FFFCCF8AE080939F
:10501000C600D70112961C921A8A1D8A198A188A0C
:1050200081E594E09F878E87F701E25BFF4F2FE2D7
:1050300030E0E20EF31EF182E08241ED5FEFE40E1C
:10504000F51ED4018C918F3209F07FC06401089461
:10505000C11CD11C3E010894611C711C2F0132E15E
:10506000232E312C2C0E3D1E6BC0C6016FE270E06A
:105070000E94571B5C01009709F473C0C816D9063B
:1050800008F06FC08C010C191D09C301B601A801FD
:105090000E94801B060D171DF8011082F30107C046
:1050A0008091C00085FFFCCF31969093C60090811F
:1050B0009923B1F78091C00085FFFCCFFAE0F0930F
:1050C000C600D2016D917C916115710519F460E003
:1050D00070E002C06C5F7F4FC101A30121E00E941C
:1050E000277C882311F5EBE3F2E007C08091C00034
:1050F00085FFFCCF9093C600319694919923B1F728
:10510000FE01319607C08091C00085FFFCCF31962B
:105110009093C60090819923B1F78091C00085FFDC
:10512000FCCF8EE28093C6003AC12EE030E02C0F17
:105130003D1FF2013183208365010894C11CD11CFD
:10514000C114D10409F091CF0AC040E550E0E40E4B
:10515000F51EF182E08280EB9FEFE80EF91E8401DC
:1051600001C08601F701E25BFF4F9DA5992309F479
:10517000B5C0608171816115710519F460E070E05E
:1051800002C06C5F7F4FC70182539E4FA80121E090
:105190000E94277C882319F4E3E0F2E082C0AFED9F
:1051A000B1E0EA0EFB1EF7014081518162817381FB
:1051B0002CE930E0E20EF31ED7014D935D936D9321
:1051C0007C931397E5E8FDEFEE0EFF1EEDE2F2E0B3
:1051D00007C08091C00085FFFCCF9093C600319638
:1051E00094919923B1F7F80107C08091C00085FF21
:1051F000FCCF31969093C60090819923B1F7E5E2F8
:10520000F2E007C08091C00085FFFCCF9093C600FC
:10521000319694919923B1F78AE095E02AE030E045
:105220000E9443388091C00085FFFCCF8AE08093C4
:10523000C60023E832E0E20EF31ED7011D921D9254
:105240001D921C921397EDE7FDEFEE0EFF1EE7E1B6
:10525000F2E007C08091C00085FFFCCF9093C600AC
:10526000319694919923B1F78091C00085FFFCCFCE
:105270008AE08093C600C70160E070E0A801F0DC1E
:10528000D70152968C91882309F485C087010E5E60
:105290001F4F81C08091C00085FFFCCF9093C60056
:1052A000319694919923B1F7F80107C08091C0001D
:1052B00085FFFCCF31969093C60090819923B1F77A
:1052C000E0E0F2E007C08091C00085FFFCCF909342
:1052D000C600319694919923B1F761C060817181C4
:1052E0006115710519F460E070E002C06C5F7F4FDA
:1052F000C70182539E4FA80126E50E94277C882380
:1053000039F5ECEEF1E007C08091C00085FFFCCFDD
:105310009093C600319694919923B1F7F80107C094
:105320008091C00085FFFCCF31969093C60090819C
:105330009923B1F7E9EEF1E007C08091C00085FF45
:10534000FCCF9093C600319694919923B1F727C072
:1053500081E0F7018083E7EDF1E007C08091C000B4
:1053600085FFFCCF9093C600319694919923B1F7B5
:10537000F40107C08091C00085FFFCCF3196909367
:10538000C60090819923B1F78091C00085FFFCCFC2
:105390008AE08093C600C80160E00E94C3A0CE01ED
:1053A0000E960E94781EAD960FB6F894DEBF0FBE23
:1053B000CDBFCF91DF911F910F91FF90EF90DF90C4
:1053C000CF90BF90AF909F908F907F906F905F90A5
:1053D0004F903F902F900895EF92FF920F931F935D
:1053E000CF93DF93EC010E9444838E0107511E4F3F
:1053F000D8018C91BEECEB2EB1E0FB2EEC0EFD1E25
:10540000882399F1C7010E944575F80160816150B8
:1054100060838DE8689FB001112462517E4F6C0F4C
:105420007D1FCE0141E021E07CDCD801EC91F0E071
:10543000EE0FFF1FEE0FFF1FEC0FFD1FE651FE4F9B
:105440004081518162817381CD57DD4F48835983FB
:105450006A837B83C358D240C7010E942E748B811C
:10546000882379F181E08A832CC0C7010E944575A9
:105470001A828FE291E00E94AC528091FD0988234C
:1054800001F11092FD098091CB07C82FD0E0CC0F1D
:10549000DD1FC15BDE4E68817981882777FD8095AD
:1054A000982F0E94CCDE20916103309162034091DD
:1054B0006303509164030E9438E0181614F41982B3
:1054C0001882DF91CF911F910F91FF90EF90089577
:1054D000FC0181E08183CF0140E021E022CCEF920A
:1054E000FF920F931F93DF93CF93CDB7DEB76F97E4
:1054F0000FB6F894DEBF0FBECDBF7C0188E892E006
:10550000E80EF91EF7011182108288E79DEFE80E80
:10551000F91E87010D5C1F4FC80140E050E060E0BC
:1055200070E00E942E74DE011596F8018BE1019067
:105530000D928150E1F7F70181A992A99C838B8399
:1055400081E594E09A838983C70165E172E08E0169
:105550000F5F1F4FA80120E030E01ED9C8010E9454
:10556000781E6F960FB6F894DEBF0FBECDBFCF91F9
:10557000DF911F910F91FF90EF900895CF93DF93EC
:10558000EC011BAA1EAA1AAA19AA81E594E098ABFD
:105590008FA7CC5ADF4F188223961882C755D04068
:1055A000FE01E05BFF4FCE5ADF4F19821882C255D1
:1055B000D04091838083DE01A159BF4FFD0120E0DF
:1055C00030E0482F14821782138212824083918325
:1055D000215E3F4F7F9681E02633380799F7C85503
:1055E000DE4F89E1888323961882689618822B966D
:1055F000188223961882C15DD140FE01E653FE4F0A
:10560000C453DE4F1982188240839183C155DF4F06
:10561000188219821A821B822896188219821A828D
:105620001B82C358D2401A821B8218821982CB5522
:10563000DE4F19821882CC5BDF4F1882FD01C90151
:1056400011920197E9F7C256DF4F81E08883C7586E
:10565000D2401EA61DA60E94C0D6C158DD4F685775
:105660007C4E8F4F9F4F688379838A839B83DF9122
:10567000CF910895CF93DF93EC01DB015AE03CC05A
:10568000288139819C91F999FECF1FBA32BD21BD85
:1056900090BD0FB6F894FA9AF99A0FBEF999FECF19
:1056A00032BD21BDF89A80B5891701F1E5EEF5E02C
:1056B00007C08091C00085FFFCCF9093C600319653
:1056C00094919923B1F7E5ECF5E007C08091C00013
:1056D00085FFFCCF9093C600319694919923B1F742
:1056E0008091C00085FFFCCF5093C6002F5F3F4FD5
:1056F0003983288311964150442309F0C1CFDF91AB
:10570000CF9108952F923F924F925F926F927F9226
:105710008F929F92AF92BF92CF92DF92EF92FF92C1
:105720000F931F93DF93CF93CDB7DEB7A5970FB637
:10573000F894DEBF0FBECDBF0F2EF0E0CF2EF0E00D
:10574000DF2EF0E0EF2EF0E0FF2EF02DCA86DB8694
:10575000EC86FD868091160290911702A0911802A6
:10576000B09119028E879F87A88BB98B84E690E051
:105770009D838C838E010C5F1F4FC801BE01625F49
:105780007F4F44E077DFC8016DEA79E040E172DFE6
:10579000C8016DE979E040E16DDFC8016DEB79E0AA
:1057A00040E168DFC80161ED79E044E063DFC801F2
:1057B00065ED79E044E05EDFC80169ED79E044E041
:1057C00059DFC8016DEC79E044E054DFC80169EEAF
:1057D00079E044E04FDFC80169E979E044E04ADF5D
:1057E000C8016DED79E044E045DFC80161EE79E084
:1057F00044E040DFC80165EE79E044E03BDFC801EA
:1058000063EB77E04CE036DF83E089838A831B8299
:10581000C801BE016D5F7F4F41E02CDFC801BE01B2
:105820006F5F7F4F41E026DFC801BE016E5F7F4F93
:1058300041E020DFCA86DB86EC86FD86EE24FF246D
:10584000D02EC12E8E01065F1F4F08C08D2D9C2DBE
:10585000B80144E00FDF0894E11CF11C8A81298122
:10586000829FC0011124E816F90684F30F2EF0E0A0
:10587000EF2EF0E0FF2EF0E00F2FF0E01F2FF02DC5
:10588000EA8AFB8A0C8B1D8B8D2D9C2DBE016E5ED2
:105890007F4F44E0EFDEEA86FB860C871D8706E03B
:1058A00010E044E0E42EF12CEC0EFD1E3AE0C32E95
:1058B000D12CCC0EDD1E04C0C701B60144E0DADEF7
:1058C000015010408FEF0F3F1807B1F7C70163EC8D
:1058D00071E142E0CFDEC70165EC71E142E0CADE72
:1058E000C70167EC71E142E0C5DEC70169EC71E117
:1058F00042E0C0DEC7016BEC71E142E0BBDEC701F4
:105900006DEC71E142E0B6DEEE24FF2424E0C22E0D
:10591000D12CCC0EDD1E0F2EF0E04F2EF0E85F2EC6
:10592000FBE36F2EF5E47F2EF02D9AE0292E312C2B
:105930002C0E3D1E0F2EF0E08F2EF0E09F2EF0E09B
:10594000AF2EF0E0BF2EF02DE114F104A9F4C60152
:105950006EE673E044E08EDEC60162E773E044E089
:1059600089DEC60166E773E044E084DEC6016AE7CB
:1059700073E044E07FDE19C04A865B866C867D86D4
:10598000C601B10144E076DE8A869B86AC86BD8680
:1059900003E010E004C0C601B10144E06BDE015039
:1059A00010408FEF0F3F1807B1F70894E11CF11C6E
:1059B00084E0E816F10441F680E090E8ABE3B5E45A
:1059C0008E8B9F8BA88FB98F8A8F9B8FAC8FBD8F4B
:1059D0008E8F9F8FA8A3B9A38E010C5F1F4FC801A4
:1059E000BE016A5E7F4F44E045DEC801BE01665ECF
:1059F0007F4F44E03FDEC801BE01625E7F4F44E05E
:105A000039DE80E290E09F838E83C801BE016A5F29
:105A10007F4F42E02FDE80E090E0A0E8BFE38A877E
:105A20009B87AC87BD878AE0A82EB12CAC0EBD1E2B
:105A3000C801B50144E01EDEC80162EB77E041E039
:105A400019DEEE24FF24D02E012FE114F10461F4BD
:105A500080913A0390913B03A0913C03B0913D03A8
:105A60008A879B87AC87BD878D2D902FB50144E039
:105A700001DE0894E11CF11C84E0E816F10429F72A
:105A800080911A0290911B02A0911C02B0911D02FC
:105A90008AA39BA3ACA3BDA384E690E099878887E3
:105AA000CE010896BE016E5D7F4F44E0E3DDE5EE7A
:105AB000F5E007C08091C00085FFFCCF9093C60041
:105AC000319694919923B1F74C815D81662757FDFA
:105AD0006095762F83EB95E00E949341EBEAF5E029
