:100000000C94A6110C94D7110C94D7110C94D71101
:100010000C94D7110C94D7110C94D7110C94D711C0
:100020000C94D7110C94D7110C94D7110C94D711B0
:100030000C94D7110C94D7110C94D7110C94D711A0
:100040000C94D7110C94FE850C94D7110C94D711F5
:100050000C94D7110C94D7110C942FAC0C94105114
:100060000C94D7110C943C390C94D7110C94D711E3
:100070000C94D7110C94D7110C94D7110C94D71160
:100080000C94D7110C94D7110C94D7110C94D71150
:100090000C94D7110C94D7110C94D7110C94D71140
:1000A0000C94D7110C94D7110C94D7110C94D71130
:1000B0000C94D7110C94D7110C94D7110C94D71120
:1000C0000C94D7110C94D7110C94D7110C94D71110
:1000D0000C94D7110C94D7110C94D7110C94D71100
:1000E0000C94D711FD4E004FEF4EF34EF94E374FA3
:1000F000044F084F0E4F124F164F1C4F204F244FE6
:10010000374F2A4F2E4F324F2C50315036504050DF
:100110004A50C35054505C5064506E5078508250D6
:1001200091509B50C350A550AF50B950084AD73B8F
:100130003BCE016E84BCBFFDC12F3D6C74319ABDB6
:1001400056833DDA3D00C77F11BED9E4BB4C3E91DA
:100150006BAAAABE000000803F05A84CCDB2D44EC9
:10016000B93836A9020C50B9918688083CA6AAAACB
:100170002ABE000000803F004E414E494E4954596E
:10018000494E46CDCCCC3D0AD7233C17B7D1387762
:10019000CC2B329595E6241FB14F0A000020410078
:1001A00000C84200401C4620BCBE4CCA1B0E5AAEC2
:1001B000C59D74434F4D4D554E49434154494F4E93
:1001C0000044525952554E004552524F5253004925
:1001D0004E464F004543484F0020746F6F206C6FB0
:1001E0006E6720657874727573696F6E20707265C2
:1001F00076656E7465640A0047322F47332062616A
:100200006420706172616D65746572730A00536C6D
:100210006565702E2E2E00473238205A20466F72A8
:1002200062696464656E0A00473238205A20466F5E
:100230007262696464656E00526573756D696E679C
:10024000207072696E74004131304D2072656164B6
:10025000792E00436C69636B20746F20726573752F
:100260006D652E2E2E004E6F206D6F76652E00452B
:100270006E642066696C65206C6973740A0042655F
:1002800067696E2066696C65206C6973740A004644
:10029000696C652064656C657465643A0044656CDE
:1002A0006574696F6E206661696C65642C204669AF
:1002B0006C653A20006F70656E206661696C6564DC
:1002C0002C2046696C653A20002569730025696D0C
:1002D00020256973002569682025696D20256973CB
:1002E00000256964202569682025696D20256973CA
:1002F0000025697920256964202569682025696DB4
:1003000020256973005072696E742074696D653AB6
:10031000200050726F7465637465642050696E0AC2
:1003200000452569202573004131304D20726561FB
:1003300064792E00D401CF01C801C101B3016F66F9
:10034000660044454255473A004B494C4C45442EC3
:1003500020004D3131332053006F6B004265642023
:10036000646F6E652E0020573A0042656420486530
:100370006174696E672E004131304D204F66662EE4
:1003800000454D455247454E43595F5041525345F4
:100390005200434153455F4C494748545F425249DC
:1003A0004748544E45535300544F47474C455F4CC4
:1003B000494748545300534F4654574152455F50A4
:1003C0004F574552004255494C445F5045524345B2
:1003D0004E54004C4556454C494E475F44415441AC
:1003E000005A5F50524F4245004155544F4C4556BC
:1003F000454C005052494E545F4A4F420050524FB4
:100400004752455353004155544F5245504F525453
:100410005F54454D5000564F4C554D45545249433D
:1004200000454550524F4D0053455249414C5F588D
:100430004F4E5F584F4646004649524D5741524530
:100440005F4E414D453A4D61726C696E20312E31DF
:100450002E3920284769746875622920534F5552F8
:1004600043455F434F44455F55524C3A687474703E
:10047000733A2F2F6769746875622E636F6D2F4D05
:1004800061726C696E4669726D776172652F4D613C
:10049000726C696E2050524F544F434F4C5F56451B
:1004A0005253494F4E3A312E30204D414348494E28
:1004B000455F545950453A4131304D2045585452CA
:1004C000554445525F434F554E543A312055554996
:1004D000443A63656465326132662D343161322D90
:1004E000343734382D396231322D63353563363245
:1004F0006633363766660A002F2F20007A5F6D69F3
:100500006E3A2000795F6D696E3A2000785F6D6900
:100510006E3A20005265706F7274696E6720656E66
:100520006473746F70207374617475730A004D3155
:10053000343520533C696E6465783E206F757420B5
:100540006F662072616E67652028302D31290A00A0
:100550005761726E696E673A204D697820666163F3
:10056000746F7273206D757374206164642075708C
:1005700020746F20312E302E205363616C696E67BA
:100580002E0A0053657474696E6720547261766533
:100590006C20416363656C65726174696F6E3A20AB
:1005A0000053657474696E67205265747261637478
:1005B00020416363656C65726174696F6E3A2000F7
:1005C00053657474696E67205072696E742041635C
:1005D00063656C65726174696F6E3A20005365746F
:1005E00074696E67205072696E7420616E64205465
:1005F000726176656C20416363656C6572617469D4
:100600006F6E3A2000205A00205900580020204DDB
:1006100061783A2000205A00205900580020204DCF
:10062000696E3A20004F6E20004F666600536F6679
:100630007420656E6473746F70733A200000012536
:10064000272318FF1F211D1CFF19171B1EFFFF0C5E
:100650000409FFFFFF2E2C0CFFFF312F3004400A4E
:10066000FF41FFFFFFFFFFFF20643A0020693A00CF
:1006700020703A0020643A0020693A0020703A0065
:100680004B64200023646566696E652020444546FE
:1006900041554C545F004B69200023646566696EC8
:1006A00065202044454641554C545F004B70200066
:1006B00023646566696E65202044454641554C5467
:1006C0005F00504944204175746F74756E652066F3
:1006D000696E69736865642120507574207468655B
:1006E000206C617374204B702C204B6920616E6408
:1006F000204B6420636F6E7374616E747320667236
:100700006F6D2062656C6F7720696E746F20436F28
:100710006E66696775726174696F6E2E680A005043
:100720004944204175746F74756E65206661696C0B
:100730006564212074696D656F75740A00504944C1
:10074000204175746F74756E65206661696C6564AF
:10075000212054656D706572617475726520746FC7
:100760006F20686967680A00204B643A2000204BBC
:10077000693A2000204B703A20000A20436C6173D4
:1007800073696320504944200A002054753A2000C0
:10079000204B753A2000206D61783A2000206D6969
:1007A0006E3A200020643A200020626961733A208A
:1007B0000043617365206C696768743A2000556E68
:1007C0006B6E6F776E20636F6D6D616E643A202281
:1007D000004C696E65204E756D62657220697320EC
:1007E0006E6F74204C617374204C696E65204E7579
:1007F0006D6265722B312C204C617374204C696ED4
:10080000653A20004B494C4C45442E200053544F30
:10081000505045442E20005072696E7465722073EA
:10082000746F707065642064756520746F206572E4
:10083000726F72732E204669782074686520657225
:10084000726F7220616E6420757365204D3939397D
:1008500020746F20726573746172742E2028546541
:100860006D7065726174757265206973207265734D
:1008700065742E20536574206974206166746572F6
:100880002072657374617274696E67290A004E6F15
:1008900020436865636B73756D2077697468206C9D
:1008A000696E65206E756D6265722C204C61737483
:1008B000204C696E653A2000636865636B73756DE3
:1008C000206D69736D617463682C204C61737420B2
:1008D0004C696E653A20004D313130004D333100A6
:1008E00047323820585900534420726561642065AE
:1008F00072726F720A00446F6E65207072696E7456
:10090000696E672066696C650A0020496E76616CC5
:100910006964206578747275646572200048656149
:1009200074696E6720646F6E652E0020573A00452B
:100930002569202573004131304D2072656164794D
:100940002E00205A3A0020593A0020436F756E74E9
:1009500020583A0020453A00205A3A0020593A00DF
:10096000583A003A004361703A004B494C4C4544B8
:100970002E2000202D20496E76616C6964206578F8
:10098000747275646572206E756D62657220210ADD
:10099000002D2D2D2D2D2D007C4D61726C696E7CEE
:1009A000002D2D2D2D2D2D00687474703A2F2F6D74
:1009B00061726C696E66772E6F726700687474700E
:1009C0003A2F2F6D61726C696E66772E6F726700B9
:1009D00020312E312E39007265636F76657279256C
:1009E00064002020506C616E6E65724275666665AB
:1009F0007242797465733A20002046726565204D15
:100A0000656D6F72793A2000436F6D70696C656433
:100A10003A204F637420313220323031380A0020BE
:100A20007C20417574686F723A20286E6F6E652C59
:100A30002064656661756C7420636F6E66696729F2
:100A40000A00323031382D31302D31322031343AF4
:100A5000303000204C61737420557064617465649B
:100A60003A2000312E312E390A004D61726C696EC8
:100A70000020536F667477617265205265736574E8
:100A80000A00205761746368646F6720526573655C
:100A9000740A002042726F776E206F757420526561
:100AA0007365740A002045787465726E616C20521B
:100AB000657365740A00506F77657255700A00732C
:100AC000746172740A006572726F72207772697451
:100AD000696E6720746F2066696C650A00456E64F4
:100AE00073746F7073202563202563202563202590
:100AF0006300205A3A0020593A0020583A00656EA7
:100B00006473746F7073206869743A2000473238D8
:100B100020580047636F203A2000473238205900A0
:100B20004732382058004D31303920543020532579
:100B300075004D3139302053257500446F6E6520A6
:100B4000736176696E672066696C652E0A004D32A6
:100B500039007C3C3E5E2B3D3F2F5B5D3B2C2A22C7
:100B60005C004D3130342053257500473932204523
:100B7000257500473932205A25752E2575004D35CB
:100B80003030004E4F202000596573202000526500
:100B900073756D65207072696E74203F0025753A1B
:100BA0002530327500253032753A25303275002DEA
:100BB0002D2D005344005A0000006D6978207065A7
:100BC0007263656E7400436172642072656D6F7646
:100BD0006564004361726420696E73657274656454
:100BE0000000002100240027002A002D00300033DF
:100BF0000001010000040107010A01000022002594
:100C00000028002B002E00310034000201000005F6
:100C10000108010B01000020002300260029002C00
:100C2000002F003200000100000301060109010548
:100C3000050505070508080808020202020A0A0855
:100C4000080404040401010101010101010303037B
:100C50000303030303040707070C0C0C0C0C0C0C18
:100C60000C0202020206060606060606060B0B0B1F
:100C70000B0B0B0B0B01021020200808102040105A
:100C80002040800201020108040201010204081050
:100C9000204080804020100804020180040201806E
:100CA0004020100804020108040201010204081097
:100CB000204080010204081020408000000A0B023E
:100CC000090C0D0E080703040100000000000000DD
:100CD0000000000000000000000000000000000014
:100CE00000000000000000121110000000000000D1
:100CF00000000000000000000000000000000000F4
:100D00000020746F6F206C6F6E6720657874727549
:100D100073696F6E2070726576656E7465640A0023
:100D200056652D6A65726B0056652D6A65726B009B
:100D300056652D6A65726B00567A2D6A65726B0076
:100D4000567A2D6A65726B0056792D6A65726B0052
:100D500056792D6A65726B0056792D6A65726B0043
:100D600056782D6A65726B0056782D6A65726B0035
:100D700056782D6A65726B004D6F74696F6E004511
:100D800073746570732F6D6D004573746570732F88
:100D90006D6D005A73746570732F6D6D005A7374A6
:100DA0006570732F6D6D005973746570732F6D6D61
:100DB000005973746570732F6D6D0058737465708E
:100DC000732F6D6D005873746570732F6D6D004DCA
:100DD0006F74696F6E0053746570732F6D6D004A88
:100DE00065726B00416363656C65726174696F6EF7
:100DF0000056656C6F6369747900436F6E74726F2F
:100E00006C0046696C616D656E74204F66660046C5
:100E1000696C616D656E74204F6E200046696C616F
:100E20006D656E74204F66660046696C616D656E17
:100E300074204F6E200046696C2E204469612E009C
:100E400046696C2E204469612E004F6666004F6E25
:100E500020004520696E206D6D3300436F6E747203
:100E60006F6C0043616E6E6F7420656E74657220E6
:100E70007375626469723A2000052E2E004D616917
:100E80006E00496E697469616C697A6520454550E8
:100E9000524F4D00436F6E74726F6C0052657374E5
:100EA0006F7265206661696C7361666500496E6981
:100EB0007469616C697A6520454550524F4D004C0C
:100EC0006F61642073657474696E67730053746F27
:100ED00072652073657474696E67730046696C612E
:100EE0006D656E74004D6F74696F6E0054656D7042
:100EF00065726174757265004D61696E005072654E
:100F0000686561742041425320636F6E66005072C1
:100F1000656865617420504C4120636F6E660050B7
:100F200049442D44005049442D44005049442D4922
:100F3000005049442D49005049442D500050494427
:100F40002D5000200220466163740020022046617B
:100F50006374002002204D6178002002204D6178EA
:100F6000002002204D6178002002204D696E002093
:100F700002204D696E002002204D696E004F6666AA
:100F8000004F6E20004175746F74656D700046618E
:100F90006E2073706565640046616E2073706565D0
:100FA000640042656400426564004E6F7A7A6C6545
:100FB000004E6F7A7A6C6500436F6E74726F6C00CE
:100FC00053746F72652073657474696E6773004241
:100FD000656400426564004E6F7A7A6C65004E6FFE
:100FE0007A7A6C650046616E2073706565640046B0
:100FF000616E2073706565640054656D7065726123
:101000007475726500526573656E643A20006F6B8B
:1010100000627573793A2070617573656420666F3C
:101020007220696E7075740A00627573793A207067
:10103000617573656420666F7220757365720A004E
:10104000627573793A2070726F63657373696E6746
:101050000A004B494C4C45442E20004B494C4C2037
:1010600063617573656420627920746F6F206D759C
:10107000636820696E6163746976652074696D6563
:10108000202D2063757272656E7420636F6D6D61C3
:101090006E643A2000506C656173652072657365FB
:1010A00074005052494E5445522048414C544544D6
:1010B000005072696E7465722068616C7465642E8C
:1010C000206B696C6C28292063616C6C6564210A53
:1010D00000000000000000000000000000576172E6
:1010E0006E696E673A20486F6D696E672042756D54
:1010F000702044697669736F72203C20310A0002C7
:1011000002040000A0400000A040000000400000D9
:101110005C4300005C4300008243FFFFFF53442018
:1011200063617264206F6B0A006F70656E526F6F3F
:1011300074206661696C65640A00766F6C756D6514
:101140002E696E6974206661696C65640A00534497
:1011500020696E6974206661696C0A006175746F3C
:1011600025692E67004D3234004D3233202573003F
:1011700057726974696E6720746F2066696C653A8E
:1011800020006F70656E206661696C65642C204676
:10119000696C653A20006F70656E206661696C65E8
:1011A000642C2046696C653A200046696C652073A2
:1011B000656C65637465640A002053697A653A203A
:1011C0000046696C65206F70656E65643A20006F3B
:1011D00070656E206661696C65642C2046696C657B
:1011E0003A20002066696C653A2000646F696E677A
:1011F000006672657368004E6F772000454E44208C
:10120000535542524F5554494E450A002220706FA3
:1012100073002220706172656E743A220053554249
:10122000524F5554494E452043414C4C20746172F5
:101230006765743A22004B494C4C45442E2000749B
:101240007279696E6720746F2063616C6C207375AE
:10125000622D67636F64652066696C6573207769CA
:10126000746820746F6F206D616E79206C6576658F
:101270006C732E204D4158206C6576656C20697327
:101280003A004572726F723A0024F4D43050C38E23
:1012900020C2A24017828B7011127A910D816CD9F5
:1012A0000AA861E108C7586607615143061E4B5DF5
:1012B00005C145A7041A411104093D98037139314C
:1012C000034036DB0265339102D4305402802E1D78
:1012D00002632CEE01752AC501B028A001102781F8
:1012E000018F2564012B244B01E0223401AC211F26
:1012F000018D200D01801FFC00841EED00971DDF75
:1013000000B81CD200E61BC600201BBC00641AB249
:1013100000B219A8000A19A0006A189900D1179103
:101320000040178B00B516840031167E00B3157986
:10133000003A157300C7146F0058146A00EE136664
:10134000008813630025135E00C7125B006C125700
:101350000015125400C111510070114F0021114BA2
:1013600000D61049008D104700461044000210427C
:1013700000C00F4000800F3E00420F3C00060F3BB4
:1013800000CB0E3800930E37005C0E3500270E346C
:1013900000F30D3200C10D3100900D3000600D2EB4
:1013A00000320D2D00050D2C00D90C2B00AE0C29A0
:1013B00000850C29005C0C2700350C27000E0C263C
:1013C00000E80B2400C40B2400A00B23007D0B239A
:1013D000005A0B2100390B2100180B2000F80A1FBE
:1013E00000D90A1E00BB0A1E009D0A1D00800A1DAE
:1013F00000630A1C00470A1B002C0A1B00110A1A72
:1014000000F7091A00DD091900C4091900AB091910
:1014100000920917007B091800630917004C091690
:101420000036091600200916000A091500F50815EE
:1014300000E0081400CC081400B8081400A4081434
:1014400000900813007D0812006B08130058081262
:101450000046081200340811002308110012081178
:101460000001081100F0071000E0071000D007107D
:1014700000C0071000B0070F00A107100091070E71
:101480000083070F0074070F0065070E0057070E53
:101490000049070E003B070D002E070E0020070D28
:1014A0000013070D0006070D00F9060C00ED060DF0
:1014B00000E0060C00D4060C00C8060C00BC060CAC
:1014C00000B0060C00A4060B0099060C008D060B5C
:1014D0000082060B0077060B006C060B0061060A03
:1014E0000057060B004C060A0042060A0038060A9E
:1014F000002E060A0024060A001A060A0010060931
:101500000007060A00FD050900F4050900EB0509BE
:1015100000E2050900D9050900D0050900C7050941
:1015200000BE050900B5050800AD050800A50509C0
:10153000009C050800940508008C05080084050837
:10154000007C050800740508006C050700650508A7
:10155000005D050700560508004E05070047050712
:10156000004005080038050700310507002A050777
:1015700000230507001C050600160507000F0507D8
:10158000000805060002050700FB040600F5040735
:1015900000EE040600E8040600E2040700DB04068F
:1015A00000D5040600CF040600C9040600C30406E3
:1015B00000BD040600B7040600B1040500AC040633
:1015C00000A6040600A00405009B0406009504057F
:1015D00000900406008A04050085040500800406C6
:1015E000007A04050075040500700405006B04050D
:1015F0000066040500610405005C0405005704054D
:1016000000520405004D040500480405004304058C
:10161000003E0404003A04050035040500300404CB
:10162000002C04050027040400230405001E040404
:10163000001A04040016040500110404000D04043B
:1016400000090405000404040000040400FC030471
:1016500000F8030400F4030400F0030400EC0304A6
:1016600000E8030400E4030400E0030400DC0304D6
:1016700000D8030400D4030400D0030400CC030406
:1016800000C8030300C503030024F404D9201BC4CD
:101690000C5C0E9804C4095F0265077101F405F93A
:1016A00000FB04B30048048700C1036900580355D8
:1016B0000003034500BE023A008402310053022AAF
:1016C000002902250004022000E4011C00C80119C1
:1016D00000AF01170098011400840113007101107C
:1016E000006101100051010E0043010D0036010B95
:1016F000002B010B0020010B00150109000C010952
:101700000003010800FB000800F3000800EB0007DD
:1017100000E4000600DE000600D8000600D2000645
:1017200000CC000500C7000500C2000500BD000494
:1017300000B9000400B5000400B1000400AD0004CD
:1017400000A9000400A5000300A20003009F0004FC
:10175000009B000300980003009500020093000323
:1017600000900003008D0002008B0003008800023F
:10177000008600020084000300810002007F000256
:10178000007D0002007B000200790002007700016A
:101790000076000200740002007200010071000275
:1017A000006F0002006D0001006C0002006A000181
:1017B0000069000200670001006600010065000189
:1017C000006400020062000100610001006000018D
:1017D000005F0002005D0001005C0001005B000191
:1017E000005A000100590001005800010057000193
:1017F0000056000100550001005400010053000094
:10180000005300010052000100510001005000018E
:10181000004F0001004E0000004E0001004D00018D
:10182000004C0001004B0000004B0001004A000189
:101830000049000100480000004800010047000185
:101840000046000000460001004500000045000180
:10185000004400010043000000430001004200007A
:101860000042000100410000004100010040000171
:10187000003F0000003F0001003E0000003E00016C
:10188000003D0000003D0001003C0000003C000065
:10189000003C0001003B0000003B0001003A00005A
:1018A000003A000100390000003900010038000052
:1018B0000038000000380001003700000037000148
:1018C0000036000000360000003600010035000040
:1018D0000035000000350001003400000034000035
:1018E0000034000100330000003300000033000129
:1018F0000032000000320000003200010031000020
:101900000031000000310001003000000030000014
:1019100000300001002F0000002F0000002F000009
:10192000002F0001002E0000002E0000002E0001FC
:10193000002D0000002D0000002D0000002D0001F2
:10194000002C0000002C0000002C0000002C0001E6
:10195000002B0000002B0000002B0000002B0001DA
:10196000002A0000002A0000002A0000002A0001CE
:1019700000290000002900000029000000290000C3
:1019800000290001002800000028000000280000B5
:1019900000280000002800010027000000270000A8
:1019A000002700000027000000270001002600009B
:1019B000002600000026000000260000002600018E
:1019C0000025000000250000002500000025000083
:1019D0000025000000250001002400000024000074
:1019E0000024000000240000002400010023000067
:1019F000002300000023000000230000002300005B
:101A0000002300000023000100220000002200004B
:101A1000002200000022000000220000002200013D
:101A20000021000000210000002100000021000032
:101A30000021000000210000002100010020000022
:101A40000020000000200000002000000020000016
:101A5000002000000020000000200001001F000006
:101A6000001F0000001F0000001F0000001F0000FA
:101A7000001F0000001F0001001E0000001E0000EB
:101A8000001E0000001E0000004D38342058205970
:101A9000205A20450025732C005A25752C45256CAD
:101AA000752C50256C752C5425752C4225752C00F1
:101AB0004131304D2072656164792E004572723A71
:101AC0004E6F2046696C616D656E7400466C6F7771
:101AD00000466C6F770046616E2073706565640028
:101AE00046616E20737065656400426564004265FE
:101AF00064004E6F7A7A6C65004E6F7A7A6C65007E
:101B00005370656564005370656564004D61696E6E
:101B1000005072656865617420504C4120456E64C8
:101B2000005072656865617420504C4120426564C4
:101B3000005072656865617420504C4100507265B8
:101B4000706172650050726568656174204142532E
:101B500020456E640050726568656174204142538F
:101B6000204265640050726568656174204142538B
:101B70000050726570617265004261636B004E6572
:101B8000787420636F726E6572005072656865616B
:101B90007420504C4100436F6F6C646F776E00503F
:101BA00072656865617420414253004469736162E3
:101BB0006C65207374657070657273004D38340005
:101BC0004C6576656C20636F726E6572730041754B
:101BD000746F20686F6D6500473238004D6F766511
:101BE0002061786973004D61696E00200D0A627989
:101BF0007465733B20637263206572726F7220009C
:101C0000200D0A62797465733B20637263206572EC
:101C1000726F722000726561642066696C65206E67
:101C2000616D653A2000726561642066696C6520AB
:101C30006469723A2000290A002062797465733B56
:101C4000206372632000706F7765726F6666207321
:101C5000746F7265642073657474696E6773207243
:101C60006574726965766564202800202863616C5C
:101C700063756C6174656429210A0020213D200090
:101C8000454550524F4D20435243206D69736D615D
:101C9000746368202D202873746F72656429200096
:101CA000290A002062797465733B20637263200007
:101CB0002073746F7265642073657474696E6773E2
:101CC00020726574726965766564202800204D6114
:101CD000726C696E3D563131290A002845455052D3
:101CE0004F4D3D00454550524F4D2076657273690A
:101CF0006F6E206D69736D61746368200048617256
:101D000064636F6465642044656661756C74205318
:101D1000657474696E6773204C6F616465640A0052
:101D2000B80B0000B80B0000320000008813000060
:101D30000000C8430000C8430000C843000034420C
:101D40009A99A0429A99A1420000C8430000AA4370
:101D50004D61782054656D703A20313530004D6901
:101D60006E2054656D703A203500544265643A45E2
:101D700050434F53203130304B004D617820546533
:101D80006D703A20323735004D696E2054656D70A4
:101D90003A20350054303A204550434F53203130DB
:101DA000304B005053553A2047656E6572696300A9
:101DB00050726F746F636F6C3A20312E3000426145
:101DC00075643A2032353030303000475432353681
:101DD000302056332E300045787472756465727306
:101DE0003A203100687474703A2F2F6D61726C69FB
:101DF0006E66772E6F7267004131304D00323031A0
:101E0000382D31302D31322031343A303000312EFE
:101E1000312E39004D61726C696E00546865726DC7
:101E20006973746F727300426F61726420496E66E9
:101E30006F005072696E74657220496E666F004D56
:101E400061696E006265640A002C207379737465A1
:101E50006D2073746F7070656421204865617465CE
:101E6000725F49443A200070012C0190012701B0B3
:101E7000012201C0011D01F00118011002130130FF
:101E8000020E016002090190020401C002FF00007D
:101E900003FA004003F5008003F000D003EB0020BC
:101EA00004E6007004E100E004DC004005D700C057
:101EB00005D2004006CD00D006C8008007C3003020
:101EC00008BE00F008B900C009B400B00AAF00B005
:101ED0000BAA00D00CA500000EA000500F9B00C064
:101EE0001096005012910000148C00C0158700B0AD
:101EF000178200B0197D00D01B7800001E730040CF
:101F0000206E0090226900F024640040275F00905A
:101F1000295A00E02B5500102E500020304B0010A5
:101F2000324600E033410090353C001037370070F6
:101F3000383200A0392D00B03A2800A03B230060C1
:101F40003C1E00103D1900903D1400103E0F007023
:101F50003E0A00C03E0500003F0000403FFBFF80FE
:101F60003FF6FFC03FF1FF4572723A204D494E5493
:101F7000454D5020424544004572723A204D494E2D
:101F800054454D50004D494E54454D502074726992
:101F9000676765726564004572723A204D41585416
:101FA000454D5020424544004572723A204D4158FB
:101FB00054454D50004D415854454D502074726960
:101FC00067676572656400202F002042403A002058
:101FD000403A0000000000010204040000001C1C44
:101FE0000C040404020100000000000408100000BA
:101FF000000000001C1F11111F000000061918032B
:10200000130C00040E1F041C000000000E13151119
:102010000E00001C10181705060500040A0A0A0A1B
:1020200011110E0C12120C00000000001F151115EA
:102030001F000043616E6E6F74206F70656E2073B9
:1020400075626469722000656E7175657565696E8B
:10205000672022006563686F3A004572726F7220D4
:1020600077726974696E6720746F20454550524FCE
:102070004D210A00290A002062797465733B2063B0
:102080007263200053657474696E67732053746FB4
:1020900072656420280077726974652066696C65D2
:1020A000206E616D653A2000290A0020627974650E
:1020B000733B206372632000706F7765726F666692
:1020C0002053746F7265642028006D6978207065F4
:1020D0007263656E7400000074656D706C61746588
:1020E0000074656D706C6174650066696C616D6526
:1020F0006E744C0066696C616D656E7452004D695A
:10210000786572005072696E7420706175736564D1
:1021100000005072696E742061626F7274656400B1
:102120004E6F2053442063617264005072696E7474
:102130002066726F6D2053440053746F702070726C
:10214000696E7400526573756D65207072696E7486
:10215000005061757365207072696E740041626F22
:102160007574205072696E746572004D697865727D
:1021700000436F6E74726F6C0050726570617265AF
:102180000054756E6500496E666F207363726565F5
:102190006E005654726176206D696E0056547261FD
:1021A00076206D696E005654726176206D696E00FE
:1021B000566D696E00566D696E00566D696E0056FB
:1021C0006D6178204500566D6178204500566D613F
:1021D00078204500566D6178205A00566D61782050
:1021E0005A00566D6178205A00566D61782059006A
:1021F000566D6178205900566D6178205900566DF2
:102200006178205800566D6178205800566D6178CD
:102210002058004D6F74696F6E00416D61782045E4
:1022200000416D6178204500416D6178205A004180
:102230006D6178205A00416D6178205900416D61CF
:1022400078205900416D6178205800416D617820F7
:102250005800412D74726176656C00412D74726175
:1022600076656C00412D7265747261637400412D56
:102270007265747261637400416363656C004163ED
:1022800063656C004D6F74696F6E0053442070720B
:10229000696E74696E67206279746520004E6F7490
:1022A000205344207072696E74696E670A000000E2
:1022B00048420000484200008040000000004D6F8E
:1022C00076652058004D6F76652059004D6F766514
:1022D000205A004578747275646572004D6F76659A
:1022E00020302E316D6D004D6F766520316D6D00A3
:1022F0004D6F76652031306D6D004D6F76652061D4
:10230000786973004578747275646572004D6F76F4
:1023100065205A004D6F76652059004D6F76652017
:1023200058004578747275646572004D6F7665204B
:102330005A004D6F76652059004D6F766520580024
:10234000507265706172650022D324D111241FBEC2
:10235000CFEFD1E2DEBFCDBF00E00CBF14E0A0E0C4
:10236000B2E0E4ECF5EC01E00BBF02C007900D9287
:10237000AE3DB107D9F727E1AEEDB4E001C01D9243
:10238000A037B207E1F711E1C5EAD1E100E006C0EC
:1023900021970109802FFE010E9411E2C43AD10762
:1023A00080E00807A9F70E941ACA0C94D1E20C94A5
:1023B00000002F923F924F925F926F927F928F9286
:1023C0009F92AF92BF92CF92DF92EF92FF920F93C4
:1023D0001F93CF93DF93CDB7DEB7CA58D1090FB69D
:1023E000F894DEBF0FBECDBF81E090E09093A00BCC
:1023F00080939F0B80911C0B8D3409F476C7843534
:1024000011F40C94F92A873411F00C94432B809129
:102410001A0B90911B0B8430910509F48EC554F46E
:1024200097FF02C00C945A2B20912602823091050E
:102430003CF521C08A35910509F4D5C62CF44C979A
:1024400009F4C1C50C945A2B8B35910509F4CFC6FC
:102450008C35910511F00C945A2B0E940CAF51E76A
:10246000252E52E0352E61E5E62E67E1F62E00E0DE
:10247000D12C10E0E6C621110C94612B0C945A2B40
:10248000222311F40C945A2B11E0029709F010E06A
:102490000E94C43182E50E947131882309F452C13F
:1024A0000E940F316B017C014090511750905217E0
:1024B000609053177090541720915517309156170C
:1024C00040915717509158172BAF3CAF4DAF5EAFAF
:1024D0008091B00B9091B10BA091B20BB091B30B66
:1024E00023968CAF9DAFAEAFBFAF23972091B40BB7
:1024F0003091B50B4091B60B5091B70B27962CAF8E
:102500003DAF4EAF5FAF279720E030E0A901C70194
:10251000B6010E94F3DA882309F4F5C4A3019201FD
:1025200023966CAD7DAD8EAD9FAD23970E94F3DAFF
:1025300081110FC02BAD3CAD4DAD5EAD27966CAD9E
:102540007DAD8EAD9FAD27970E94F3DA882309F405
:10255000DAC420E030E0A901C701B6010E94F3DA35
:10256000881F8827881F18130BC080E090E0A0E820
:10257000BFE367968CAF9DAFAEAFBFAF67970AC0A2
:1025800020E030E040E85FEB67962CAF3DAF4EAF08
:102590005FAF6797A301920123966CAD7DAD8EADC1
:1025A0009FAD23970E9409DF2F966CAF7DAF8EAF52
:1025B0009FAF2F972BAD3CAD4DAD5EAD27966CAD6B
:1025C0007DAD8EAD9FAD27970E9409DF63966CAFFE
:1025D0007DAF8EAF9FAF63972F962CAD3DAD4EADC7
:1025E0005FAD2F97CA01B9010E9458DB4B015C0116
:1025F00063962CAD3DAD4EAD5FAD6397CA01B90199
:102600000E9458DB9B01AC01C501B4010E940ADFA6
:102610000E9475E12B966CAF7DAF8EAF9FAF2B976D
:1026200020E030E040E05FE30E9458DB4B015C01BA
:10263000A7019601C701B6010E9458DB6B017C011E
:10264000A5019401C501B4010E9458DB9B01AC01B6
:10265000C701B6010E9409DF0E9475E19B01AC0130
:1026600067966CAD7DAD8EAD9FAD67970E9458DBD0
:102670004B015C0123962CAD3DAD4EAD5FAD239774
:10268000C301B2010E940ADF20E030E040E05FE3D6
:102690000E9458DB6B017C0163966CAD7DAD8EAD05
:1026A0009FAD639790582B962CAD3DAD4EAD5FAD71
:1026B0002B970E94E6DF9B01AC01C501B4010E948B
:1026C00058DB9B01AC01C701B6010E940ADFA301E0
:1026D00092010E9409DF6B017C0127962CAD3DAD74
:1026E0004EAD5FAD27976BAD7CAD8DAD9EAD0E94BD
:1026F0000ADF20E030E040E05FE30E9458DB2B017E
:102700003C012B962CAD3DAD4EAD5FAD2B972F967A
:102710006CAD7DAD8EAD9FAD2F970E94E6DF9B0126
:10272000AC01C501B4010E9458DB9B01AC01C3019F
:10273000B2010E940ADF2BAD3CAD4DAD5EAD0E94F3
:1027400009DF14C089E40E947131882329F00E94B6
:102750000F316B017C0103C0C12CD12C76018AE4BE
:102760000E9471318823F9F00E940F3127966CAFD7
:102770007DAF8EAF9FAF279720E030E0A901C70162
:10278000B6010E94F3DA81111EC020E030E0A901F9
:1027900027966CAD7DAD8EAD9FAD27970E94F3DA85
:1027A000811111C0B0C320E030E0A901C701B6011A
:1027B0000E94F3DA882309F4A6C327961CAE1DAE47
:1027C0001EAE1FAE2797D701C601B0588BAF9CAF86
:1027D000ADAFBEAF27962CAD3DAD4EAD5FAD2797EB
:1027E000505823962CAF3DAF4EAF5FAF23979C015F
:1027F000AD01BC01CD010E9458DB4B015C01239669
:102800002CAD3DAD4EAD5FAD2397CA01B9010E941D
:1028100058DB9B01AC01C501B4010E940ADF0E9494
:1028200075E1A7966CAF7DAF8EAF9FAFA7978091F4
:10283000511790915217A0915317B09154172B969E
:102840008CAF9DAFAEAFBFAF2B97A7019601BC0178
:10285000CD010E940ADF67966CAF7DAF8EAF9FAF50
:1028600067972091551730915617409157175091FF
:10287000581763962CAF3DAF4EAF5FAF6397279667
:102880002CAD3DAD4EAD5FAD279763966CAD7DAD84
:102890008EAD9FAD63970E940ADF6B966CAF7DAFE4
:1028A0008EAF9FAF6B978091B00B9091B10BA091C1
:1028B000B20BB091B30B6F968CAF9DAFAEAFBFAF05
:1028C0006F9767962CAD3DAD4EAD5FAD6797BC0180
:1028D000CD010E9409DF6B017C012091B40B309186
:1028E000B50B4091B60B5091B70BA3962CAF3DAFF3
:1028F0004EAF5FAFA3976B962CAD3DAD4EAD5FADC8
:102900006B97A3966CAD7DAD8EAD9FADA3970E94E6
:1029100009DF4B015C018091591790915A17A091E2
:102920005B17B0915C17AF968CAF9DAFAEAFBFAFEA
:10293000AF979C01AD016091B80B7091B90B80917C
:10294000BA0B9091BB0B0E9409DF2F966CAF7DAF45
:102950008EAF9FAF2F972091BC0B3091BD0B409154
:10296000BE0B5091BF0BAB962CAF3DAF4EAF5FAFE0
:10297000AB9780915D1790915E17A0915F17B09112
:102980006017E3968CAF9DAFAEAFBFAFE397A701E3
:1029900096016BAD7CAD8DAD9EAD0E9458DB2B01D9
:1029A0003C01A501940123966CAD7DAD8EAD9FAD2C
:1029B00023970E9458DB9B01AC01C301B2010E9426
:1029C0000ADF2B013C01A50194016BAD7CAD8DADFF
:1029D0009EAD0E9458DB4B015C01A7019601239636
:1029E0006CAD7DAD8EAD9FAD23970E9458DB9B01F2
:1029F000AC01C501B4010E9409DFA30192010E944C
:102A00007DDF6B017C0120E030E0A9010E94F3DA58
:102A100087FF0AC02BED3FE049EC50E4C701B60147
:102A20000E940ADF6B017C01112351F02BED3FE086
:102A300049EC50E4C701B6010E9409DF6B017C013B
:102A400020E030E0A901C701B6010E94F3DA81114C
:102A500028C06F962CAD3DAD4EAD5FAD6F972B96F8
:102A60006CAD7DAD8EAD9FAD2B970E94F3DA8111D9
:102A700018C0A3962CAD3DAD4EAD5FADA397639648
:102A80006CAD7DAD8EAD9FAD63970E94F3DA811181
:102A900008C0EBEDCE2EEFE0DE2EE9ECEE2EE0E40A
:102AA000FE2EA7962CAD3DAD4EAD5FADA797C701ED
:102AB000B6010E9458DB9B01AC010E9458DB4B0120
:102AC0005C012F962CAD3DAD4EAD5FAD2F97CA0189
:102AD000B9010E9458DB9B01AC01C501B4010E9401
:102AE0000ADF0E9475E14B015C012FE632E143E809
:102AF0005AE30E94F3DA87FD02C2C501B4010E94C5
:102B00007FE00E9453E01B01672B19F422242394D9
:102B1000312CB10180E090E00E94F7DA4B015C01BA
:102B20009B01AC01C701B6010E94E6DF2B966CAF9A
:102B30007DAF8EAF9FAF2B97A50194012F966CAD03
:102B40007DAD8EAD9FAD2F970E94E6DFA7966CAF4F
:102B50007DAF8EAF9FAFA797E3962CAD3DAD4EAD49
:102B60005FADE397AB966CAD7DAD8EAD9FADAB9792
:102B70000E9409DFA50194010E94E6DFAB966CAFCD
:102B80007DAF8EAF9FAFAB972B962CAD3DAD4EADCD
:102B90005FAD2B97CA01B9010E9458DB20E030E0FD
:102BA00040E05FE30E9458DB9B01AC0160E070E015
:102BB00080E89FE30E9409DF6F966CAF7DAF8EAF18
:102BC0009FAF6F97AF962CAD3DAD4EAD5FADAF975C
:102BD00029873A874B875C87E3968CAD9DADAEAD78
:102BE000BFADE3978D879E87AF87B88B6091240236
:102BF00070912502072E000C880B990B0E94F9DAC0
:102C000020916B0230916C0240916D0250916E02E6
:102C10000E9458DB2AE037ED43E25CE30E9458DB78
:102C200068A379A38AA39BA30E9404519B01AC01D2
:102C300028533F4F4F4F5F4FA3962CAF3DAF4EAF42
:102C40005FAFA3974BAC5CAC6DAC7EAC41E050E0A9
:102C500061965FAF4EAF619759E12C965FAF2C97AD
:102C60006196AEADBFAD6197A215B30509F437C14A
:102C70000E9457AE0E940451DC01CB01A3962CADFB
:102C80003DAD4EAD5FADA397821B930BA40BB50B6F
:102C9000B7FD10C00E9404519B01AC0128533F4F67
:102CA0004F4F5F4FA3962CAF3DAF4EAF5FAFA39793
:102CB0000E94D77A2C963FAD2C9731502C963FAF7F
:102CC0002C97332309F44BC06F962CAD3DAD4EAD20
:102CD0005FAD6F9723966CAD7DAD8EAD9FAD2397A5
:102CE0000E9458DB6B017C012B962CAD3DAD4EADA7
:102CF0005FAD2B97B201C3010E9458DBA70196017B
:102D00000E940ADF6B017C016F962CAD3DAD4EAD8C
:102D10005FAD6F97B201C3010E9458DB4B015C01AC
:102D20002B962CAD3DAD4EAD5FAD2B9723966CAD84
:102D30007DAD8EAD9FAD23970E9458DB9B01AC010A
:102D4000C501B4010E9409DF2B013C01C601D70176
:102D500023968CAF9DAFAEAFBFAF23975DC061969A
:102D60004EAD5FAD6197BA0180E090E00E94F7DA66
:102D70002B962CAD3DAD4EAD5FAD2B970E9458DB31
:102D80004B015C010E94E3DF6B017C01C501B401D2
:102D90000E946BE14B015C01A70196016BAD7CAD1C
:102DA0008DAD9EAD0E9458DB2B013C01A501940125
:102DB00027966CAD7DAD8EAD9FAD27970E9458DBF9
:102DC0009B01AC01C301B2010E940ADF2B013C014F
:102DD000A50194016BAD7CAD8DAD9EAD0E9458DB1D
:102DE0004B015C01A701960127966CAD7DAD8EADC0
:102DF0009FAD27970E9458DB9B01AC01C501B40130
:102E00000E9409DF23966CAF7DAF8EAF9FAF2397F3
:102E100059E12C965FAF2C979201A30167966CAD98
:102E20007DAD8EAD9FAD67970E940ADF69837A837F
:102E30008B839C8323962CAD3DAD4EAD5FAD239728
:102E40006B966CAD7DAD8EAD9FAD6B970E940ADF2A
:102E50006D837E838F839887A7962CAD3DAD4EAD55
:102E60005FADA79769857A858B859C850E940ADF6F
:102E700069877A878B879C87AB962CAD3DAD4EAD2D
:102E80005FADAB976D857E858F8598890E940ADF3F
:102E90006D877E878F87988B80917002882321F0C1
:102EA000CE0101960E942E79E12C8E01005E1F4F0B
:102EB0009E01235F3F4FAE01475F5F4FBE016B5FD7
:102EC0007F4FCE0101960E944B6861968EAD9FADFB
:102ED0006197019661969FAF8EAF6197C1CEE12C4D
:102EE0008E01005E1F4F2CEB3BE048EB5BE064EB98
:102EF0007BE080EB9BE00E944B680E949E320E9428
:102F0000A8320C945A2BE2E8F2E184918F010F5F12
:102F10001F4F882321F00E94B332F801F6CFE8EF6B
:102F2000F1E084918F010F5F1F4F882311F40C94FF
:102F30005A2B0E94B332F801F4CF80E50E94713120
:102F4000882329F00E94CF306B017C0103C0C12C83
:102F5000D12C760183E50E947131882361F00E94B3
:102F60000F3120E030E04AE754E40E9458DB0E9431
:102F700053E06B017C010E940CAF80912B02811108
:102F800005C060E08EE092E00E9483550E94A83266
:102F90008091A80B9091A90BA091AA0BB091AB0BBB
:102FA000C80ED91EEA1EFB1E0E940451DC01CB0193
:102FB0008C199D09AE09BF09B7FD02C00C945A2BAC
:102FC0000E94D77AF1CF0E940CAF80916B02909152
:102FD0006C02A0916D02B0916E028093E504909313
:102FE000E604A093E704B093E80480912402909152
:102FF00025029093E4048093E30484E690E09093A8
:103000002502809324020E94A83281E08093281434
:1030100088E50E944231E82E89E50E944231082F5E
:103020008AE50E944231F82EE11005C0011105C069
:1030300011E0182705C0011102C010E001C0182FCF
:1030400080E1E1E5F7E1A0EBBBE001900D928A950C
:10305000E1F7111104C0E11002C00023E1F180E0AA
:1030600090E0A0EAB0E48093B80B9093B90BA093E2
:10307000BA0BB093BB0B9C01AD01609159177091D5
:103080005A1780915B1790915C170E94F3DA87FFC3
:103090000FC019821A821B821C829E012F5F3F4F34
:1030A00048EB5BE065E577E181E597E10E9480C34D
:1030B000111105C0E11003C0011107C00CC080E070
:1030C00090E00E949D791123B9F381E090E00E9485
:1030D0009D79111103C0FF2009F45EC0809126067E
:1030E000882321F08091270681111DC060E088E2CD
:1030F00092E00E948355E4E5F0E284918F010F5F36
:103100001F4F882321F00E94B332F801F6CFE7E188
:10311000F2E084918F010F5F1F4F8823E9F10E9435
:10312000B332F801F6CF0E945B3080E090E0ACED66
:10313000B2E48093B00B9093B10BA093B20BB09319
:10314000B30B8093B40B9093B50BA093B60BB093D5
:10315000B70B8091591790915A17A0915B17B091B6
:103160005C178093B80B9093B90BA093BA0BB093F4
:10317000BB0B19821A821B821C829E012F5F3F4F5C
:1031800049E557E164EB7BE080EB9BE00E9480C364
:1031900082E090E00E949D790E945B30809127142C
:1031A000809328148091E5049091E604A091E704AF
:1031B000B091E80480936B0290936C02A0936D022F
:1031C000B0936E028091E3049091E4049093250201
:1031D000809324020E94A83283E080936F020E94B1
:1031E0007D380C945A2B1092E2040C945A2B81E0F7
:1031F0008093E2040C945A2B0E940F312B013C0166
:10320000D7012D913D914D915C910E9409DF4B01B9
:103210005C012DEB37E346E855EB0E9430E187FD7A
:1032200018C02DEB37E346E855E3C501B4010E9411
:10323000F3DA181674F01F5FF4E0EF0EF11C14308F
:10324000A1F0F10181911F010E947131882399F34E
:10325000D3CF133019F0DD24D39401C001E0F7017E
:103260004082518262827382E6CFDD2019F00E9493
:103270005B3037C00023A9F1C0905D17D0905E1776
:10328000E0905F17F09060172091C60A3091C70A4E
:103290004091C80A5091C90AC701B6010E9458DB83
:1032A0000E943BE1609321147093221480932314B5
:1032B00090932414C701B6010E944EE02FB7F894F2
:1032C00060938B1370938C1380938D1390938E1354
:1032D0002FBF109211141092121410921314109206
:1032E00014140E947D380C945A2B80911A0B9091E3
:1032F0001B0B8137910509F4DFC50CF0D5C08B3469
:10330000910509F4F1C40CF066C08831910509F407
:103310008FC2ECF58231910509F4BAC6FCF497FF2F
:1033200002C00C945A2B823091050CF499C141973C
:1033300011F00C945A2B60E086E692E00E948355CF
:103340004298179815982E989FB7F89480910B0182
:103350008D7F80930B019FBF0C945A2B8531910573
:1033600009F44BC23CF4449711F00C945A2BEEE74D
:10337000F2E000C28631910509F443C2479711F08B
:103380000C945A2BE091180BF091190B44C28C311C
:10339000910509F46AC264F48A31910509F453C2B3
:1033A0000CF05FC2109257140E9458C40C945A2B10
:1033B0008F31910509F4B2C32CF44E9709F45FC222
:1033C0000C945A2B8032910509F45CC38A9709F456
:1033D0004BC40C945A2B8836910509F491C40CF017
:1033E00044C08235910509F44AC634F58D349105FF
:1033F00009F482C40CF47CC48135910511F00C945D
:103400005A2B0E94A9AB0E940CAF0E947D7A1092A9
:1034100044171092431768EE73E080E090E00E943A
:10342000E0540E940CAF0E94E32F60E087E793E036
:103430000E9483550C945A2B8435910509F428C6B3
:103440000CF421C68535910509F426C68C35910505
:1034500011F00C945A2B91E7C92E92E0D92E2AEB49
:10346000E22E2AE0F22E10E032C68C36910509F4E5
:103470001FC53CF48A36910509F4CAC50CF464C52D
:10348000ECC58E36910509F48FC40CF4A1C58F36B6
:10349000910509F49CC48037910511F00C945A2BC6
:1034A00089E493E00E94867A8D3C910511F40C9496
:1034B00086240CF05BC08139910509F492C74CF564
:1034C0008637910509F4DDC6A4F48337910509F424
:1034D00084C60CF47CC68537910511F00C945A2BE8
:1034E00060E08091180B9091190B0E94A1550C94EB
:1034F0005A2B8837910509F467C70CF401C789373F
:10350000910509F468C78C38910509F401C50C943C
:103510005A2B8E3B910509F45FC57CF4833A9105E3
:1035200009F4D9C7843A910511F40C94B8228B3967
:10353000910511F00C945A2B24C5893C910511F486
:103540000C94DE233CF4883C910511F40C949823F0
:103550000C945A2B8B3C910511F40C94FF238C3C5A
:10356000910511F40C941C240C945A2B833621E001
:10357000920711F40C94AF2AA4F5823E910511F440
:103580000C94C0259CF48C3D910511F40C946C2591
:103590008D3D910511F40C947925833D910511F031
:1035A0000C945A2BE4E5F0E20C94F1248D3241E0C6
:1035B000940711F40C9413263CF48C32914011F4CE
:1035C0000C94EA250C945A2B8F32B1E09B0711F42E
:1035D0000C942E278033914011F40C94B1260C9456
:1035E0005A2B843FF1E09F0711F40C94A62ADCF4D7
:1035F000883931E0930781F14CF48039914011F022
:103600000C945A2B0E940CAF0C945A2B8939A1E0D0
:103610009A07F1F08A39914011F00C945A2B0E94CC
:1036200042320C945A2B863FE1E09E0711F40C9431
:10363000AC2A14F40C94A92A803A23E0920709F4E6
:1036400060C2873E934011F40C94E72A0C945A2BE5
:1036500006EF12E00C94982A07E113E00C94892AF3
:10366000A090180BB090190B80E50E94713188234F
:1036700059F00E94CF306B017C0111E0672B682B61
:10368000692B31F410E004C010E0C12CD12C76017C
:1036900083E50E9471318823F1F00E940F3120E010
:1036A00030E04AE754E40E9458DB0E9453E06B018B
:1036B0007C01111112C0672B682B692B71F4A114C6
:1036C000B10459F0D5018C91882339F061E0C5012E
:1036D0000E94A15507C0112391F360E083E592E0B9
:1036E0000E94835583E090E09093A00B80939F0B02
:1036F00081E080936F0A0E940CAF0E94A832C1142F
:10370000D104E104F104E9F08091A80B9091A90B98
:10371000A091AA0BB091AB0BC80ED91EEA1EFB1EDE
:103720000E940451DC01CB018C199D09AE09BF092F
:10373000B7FF1CC080916F0A8823C1F00E94D77A1E
:10374000EFCF80916F0A882319F00E94D77AF9CFC2
:10375000809147149091481460E0029719F487E42F
:1037600092E002C088E392E00E94835510926F0AB3
:103770000C945A2B84918F010F5F1F4F882321F0E7
:103780000E94B332F801F6CF1092DD161092DC16CB
:1037900040E050E0BA0180E994E10E949D3B8BE15A
:1037A000E0E9F4E1DE01159601900D928A95E1F7CA
:1037B00080918E1490918F149C838B838DEB92E07B
:1037C0009A83898340E050E0BE016F5F7F4F8AE4B7
:1037D00094E00E940CB1CE0101960E946B7AEFE654
:1037E000F2E084918F010F5F1F4F882311F40C9436
:1037F0005A2B0E94B332F801F4CF0E94F9830C9443
:103800005A2B10925714109258140C945A2B803241
:1038100009F41082319680818111F9CF40E061E096
:103820008091180B9091190B0E94AD800C945A2B2B
:1038300080915814882319F081E0809357140E94D6
:1038400040C30C945A2B80915814882311F40C9483
:103850005A2B83E50E94713181110C94ED2B0C944D
:103860005A2B0E9472C40C945A2B40E060E0809165
:10387000180B9091190B0E94AD800C945A2B8091DB
:103880005814882311F40C945A2B8AE296E10E9472
:10389000073F8AE296E10E94383F10925614109238
:1038A0005514E090180BF090190B80915814882350
:1038B00011F40C945A2B0E94E1AFFE0131966F0176
:1038C000CF010E9460B98CE894E19093AC1480938E
:1038D000AB14D7018C918F3209F060C06FE270E0B9
:1038E000C7010E945FE28C010F5F1F4F09F45CC0AB
:1038F0006FE270E0C8010E945FE25C01009709F48A
:1039000054C00817190708F050C04C01801A910ADA
:10391000A401B801CE0180960E9488E2E0E2F0E0C6
:10392000EC0FFD1FE80DF91D10828E01005E1F4F88
:10393000F80181918F01882319F00E94B332F8CFEA
:103940008AE00E94B3326091AB147091AC1461159F
:10395000710511F06C5F7F4F21E0AE01405E5F4F5B
:10396000CE0105960E942541811112C0BE01605E04
:103970007F4F85EB92E00E949C668EE20E94B332FC
:103980008AE00E94B332C6010E946B7A0C945A2BD3
:10399000D092AC14C092AB148501A6CF8DEA94E10D
:1039A0009093AC148093AB1487016091AB14709129
:1039B000AC146115710511F06C5F7F4F18A21BA24A
:1039C00022E0A801CE0180960E942541811102C00B
:1039D000F12C14C0CE0180960E944FAF8823C1F312
:1039E00061E0CE0180960E94B93E009789F325EEF2
:1039F000DC012C931BA20E94EF39F82ECE01809699
:103A00000E943332FF2009F1EFE8F2E084917F0158
:103A1000BFEFEB1AFB0A882321F00E94B332F701B3
:103A2000F5CFF80181918F01882319F00E94B332FC
:103A3000F8CF8AE00E94B332109288141092891451
:103A400010928A1410928B1418C0EDE9F2E0849160
:103A50007F012FEFE21AF20A882321F00E94B3328D
:103A6000F701F5CFD8018D918D01882319F00E94BF
:103A7000B332F8CF8EE20E94B332C6010E946B7A55
:103A80000C945A2B8091571481110E940CAF809195
:103A90005814882311F40C945A2B80E50E9471313C
:103AA000882319F00E94003103C080E50E94423152
:103AB000182F482F61E08091180B9091190B0E94EC
:103AC000AD8083E50E947131882381F00E94DF3050
:103AD000AB01BC01409388145093891460938A14FD
:103AE00070938B148AE296E10E949D3B809158145A
:103AF000882319F081E08093571411110C945A2BEC
:103B00009ECE8091180B9091190B21E020935614B2
:103B100040E060E00E94AD800C945A2B0E94D6B029
:103B20004CE3C42ED12CE12CF12CA70196010E946C
:103B3000CEDE762E672ECA01B901A70196010E943A
:103B4000CEDE6B017C01CA01B90128E130E040E022
:103B500050E00E94CEDE4B015C01C9016DE671E0D0
:103B60000E94CEE18E010F5F1F4F6115710599F024
:103B70006F927F92DF92CF929F928F929F938F93BB
:103B80007F936F9381EF92E09F938F931F930F9397
:103B90000E948CDA12C00097B1F06F927F92DF9290
:103BA000CF929F928F929F938F9381EE92E09F93FB
:103BB0008F931F930F930E948CDA0FB6F894DEBF99
:103BC0000FBECDBF36C081149104A104B10479F0B9
:103BD0006F927F92DF92CF929F928F9285ED92E0CB
:103BE0009F938F931F930F930E948CDAE6CFC1149B
:103BF000D104E104F10469F06F927F92DF92CF92D9
:103C00008DEC92E09F938F931F930F930E948CDA19
:103C1000D4CF6F927F9289EC92E09F938F931F9302
:103C20000F930E948CDA0F900F900F900F900F90CF
:103C30000F9060E0C8010E94A155E4E5F0E2849194
:103C40007F019FEFE91AF90A882321F00E94B3321D
:103C5000F701F5CFB80185E093E00E949C668AE009
:103C60000E94B3320C945A2B83E50E947131882351
:103C700011F40C945A2B0E94EF30E82E80E50E943C
:103C80007131882341F00E94DF308B0177FF02C041
:103C90000C945A2B02C006E010E0902FEDE3F6E002
:103CA0008BE28E0F2491921729F031968E13FACF62
:103CB0000C94FD2BE2E8F2E184918F010F5F1F4F1E
:103CC000882321F00E94B332F801F6CFE2E1F3E05D
:103CD00084918F010F5F1F4F882311F40C945A2B8E
:103CE0000E94B332F801F4CF0E9440C30C945A2BC7
:103CF0000E9458C40C945A2B0E94ECAF0C945A2B7F
:103D000088E690E00E94BF3581110C945A2B809177
:103D1000900A83FF02C00C945A2B83E50E947131F4
:103D2000882309F43DC00E940F310E944EE0709339
:103D30004817609347170E940F3120E030E04AEAAD
:103D400052E40E94F3DA18163CF00E94ECAF60E0F7
:103D500088E293E00E9483550E940F3120912B0A44
:103D600030912C0A40912D0A50912E0A0E9430E188
:103D70001816B4F487E393E09F938F9380919F1379
:103D800090E001969F938F9381E293E09F938F93AE
:103D90001F920E9425C30FB6F894DEBF0FBECDBFA1
:103DA0000E94C4660C945A2B8EE40E9471318823C1
:103DB00011F40C945A2B0E94DF306093CA0B70935D
:103DC000CB0B8093CC0B9093CD0B0C945A2B83E5AB
:103DD0000E944231882359F083E50E947131882383
:103DE00019F00E94EF3001C080E08093900AE4E572
:103DF000F0E284918F010F5F1F4F882321F00E9412
:103E0000B332F801F6CFE2E4F3E084918F010F5F63
:103E10001F4F882321F00E94B332F801F6CF809122
:103E2000900A8823A1F134E3C32E33E0D32EE12C92
:103E3000F12C20E08091900A90E00E2C02C0959524
:103E400087950A94E2F780FF17C0BB24B394B20EA3
:103E5000222319F08CE20E94B332F60125913491AD
:103E6000F901849189010F5F1F4F882321F00E947F
:103E7000B3329801F5CF2B2DFFEFEF1AFF0A32E096
:103E8000C30ED11C45E0E416F104A1F60CC0EEE32C
:103E9000F3E084918F010F5F1F4F882321F00E9470
:103EA000B332F801F6CF8AE00E94B3320C945A2B59
:103EB000109268020C945A2B83E50E94713188237A
:103EC00069F00E94EF308D3320F4809314020C943B
:103ED0005A2B8CE3809314020C945A2BE4E5F0E205
:103EE00084918F010F5F1F4F882321F00E94B3320E
:103EF000F801F6CF4091140250E060E070E082E5F6
:103F000093E00E942C668AE00E94B3320C945A2BF4
:103F10008091900A83FF02C00C945A2B83E50E9483
:103F20007131882311F40C945A2B0E940F310E9496
:103F30004EE06739710514F066E970E0709346173A
:103F4000609345170C945A2B89E690E00E94BF3588
:103F5000811111C0E9E5F3E084918F010F5F1F4FDC
:103F6000882321F00E94B332F801F6CF0E941DABE6
:103F70008AE00E94B3321092A00B10929F0B0C9417
:103F80002A2F83E50E947131882311F40C945A2B57
:103F90000E94EF30182F8D3308F01CE31093A50B0F
:103FA0000E9404516B017C01212F30E0A8EEB3E0A8
:103FB0000E94FADEC60ED71EE81EF91EC092A10BA3
:103FC000D092A20BE092A30BF092A40B0C945A2B6C
:103FD0000E9452360C945A2B8091900A83FF02C0A3
:103FE0000C945A2B60E08AE693E00E94835583E5A7
:103FF0000E94713124968FAF249781110C94132C59
:1040000082E50E94713181110C94132C0C945A2B6F
:1040100080E50E947131811108C083E50E947131F1
:10402000811109C03FEF20E00AC00E94EF308111EA
:104030000C945A2BF2CF0E94DF30362F272F832F7C
:10404000922F8F3F910519F010F08FEF90E0909331
:104050004417809343170C945A2B80E50E947131CA
:10406000811106C010924417109243170C945A2BDA
:104070000E94DF30672B11F00C945A2BF3CF109273
:10408000E1040C945A2B81E08093E1040C945A2BA8
:104090000E947D310C945A2B83E50E944231882383
:1040A00011F40C945A2B0E940F3120E030E04AE7C3
:1040B00054E40E9458DB0E9453E06093AC0B709371
:1040C000AD0B8093AE0B9093AF0B0C945A2BD60193
:1040D0008D916D010E944231882309F46DC0133027
:1040E00009F063C00E940F314B015C0120E030E019
:1040F00040EA51E40E94F3DA87FF4EC0A501940123
:104100006091C60A7091C70A8091C80A9091C90A45
:104110000E94E6DF2B013C019B01AC016091B60AD5
:104120007091B70A8091B80A9091B90A0E9458DB41
:104130006093B60A7093B70A8093B80A9093B90A4D
:10414000A301920160910E1770910F1780911017C3
:10415000909111170E9458DB60930E1770930F1700
:10416000809310179093111760919D0A70919E0A89
:1041700080919F0A9091A00A0E94F7DAA301920110
:104180000E9458DB0E9453E060939D0A70939E0A40
:1041900080939F0A9093A00A8092C60A9092C70AC1
:1041A000A092C80AB092C90A07C00E940F31F70155
:1041B00060837183828393831F5FF4E0EF0EF11CB1
:1041C000143009F084CF0E9421680C945A2B0E946D
:1041D0000CAF0E947D380C945A2BE8E3F4E08491F4
:1041E0008F010F5F1F4F882321F00E94B332F80127
:1041F000F6CF60E088E294E00E94133661E081E24D
:1042000094E00E94133661E086E194E00E94133648
:1042100061E086E094E00E94133660E08DEF93E069
:104220000E94133661E083EF93E00E94133660E052
:1042300089EE93E00E94133660E081EE93E00E94E5
:10424000133660E083ED93E00E94133660E085EC66
:1042500093E00E94133660E086EB93E00E941336F1
:1042600061E088EA93E00E94133661E082E993E01E
:104270000E94133660E081E893E00E9413360C94AC
:104280005A2B85E40E947131882319F00E94003175
:1042900003C085E40E944231882361F0E4E5F0E246
:1042A00084918F010F5F1F4F882321F00E94B3324A
:1042B000F801F6CF81E40E947131882319F00E9441
:1042C000003103C081E40E944231882361F0E8EFAD
:1042D000F4E084918F010F5F1F4F882321F00E942B
:1042E000B332F801F6CF0091180B1091190BD801D9
:1042F0008D918D01882309F4D6CD0E94B332F7CF7A
:10430000E4E1F5E084918F010F5F1F4F882321F0D6
:104310000E94B332F801F6CFECE0F5E084918F0112
:104320000F5F1F4F882321F00E94B332F801F6CFB0
:10433000029B03C003EE12E002C008EE12E0F80197
:1043400081918F01882319F00E94B332F8CF8AE05F
:104350000E94B332E4E0F5E084918F010F5F1F4FBC
:10436000882321F00E94B332F801F6CF069B03C0E8
:1043700003EE12E002C008EE12E0D8018D918D012B
:10438000882319F00E94B332F8CF8AE00E94B3323A
:10439000ECEFF4E084918F010F5F1F4F882321F031
:1043A0000E94B332F801F6CF379B03C003EE12E050
:1043B00002C008EE12E0F80181918F01882309F410
:1043C00072CD0E94B332F7CF81E08093281480939E
:1043D00027140C945A2B10922814109227140C9422
:1043E0005A2B83E50E947131882319F00E94DF3037
:1043F00002C060E070E08B01112702301105D4F09B
:10440000E2E8F2E184918F010F5F1F4F882321F0D2
:104410000E94B332F801F6CFEEE2F5E084918F010D
:104420000F5F1F4F882311F40C945A2B0E94B33254
:10443000F801F4CF88E40E9471318823A9F00E942A
:10444000DF306A3A71053CF06530F1E07F072CF00F
:1044500064E071E002C06AEA70E0F801EE0FFF1F4D
:10446000EA51F54F7183608386E40E94713188239D
:10447000A9F00E94DF30F801EE0FFF1FE651F54F63
:10448000718360836F3F710519F014F06FEF70E076
:1044900077FF02C060E070E07183608382E40E9475
:1044A0007131882311F40C945A2B0E94DF3065304F
:1044B000710534F0683871052CF067E870E002C0CF
:1044C00065E070E0000F111FF801EE51F54F7183A8
:1044D00060830C945A2B83E50E947131882349F044
:1044E0000E94DF308B016230710514F00C945A2B5E
:1044F00002C000E010E080E50E947131882359F08D
:104500000E940F316B017C0120E030E0A9010E9484
:10451000F3DA87FF04C060E070E0CB011CC02DEB34
:1045200037E346E855EBC701B6010E9430E187FD4D
:104530000AC02DEB37E346E855E3C701B6010E94F8
:10454000F3DA181644F7A701960160E070E080E8FE
:104550009FE30E94E6DF000F111F000F111FF801FB
:10456000EC59FA4F60837183828393830C945A2BA6
:1045700083E50E947131882349F00E94DF308B016E
:104580006031710514F00C945A2B02C000E010E069
:10459000C0906405D0906505E0906605F0906705D1
:1045A0002DEB37E346E855EBC701B6010E9430E139
:1045B00087FF09C0A701960160E070E080E89FE3F3
:1045C0000E94E6DF0DC02DEB37E346E855E3C70157
:1045D000B6010E94F3DA18166CF360E070E0CB01CC
:1045E00020E030E0A9010E940ADF4B015C01C0908D
:1045F0006805D0906905E0906A05F0906B052DEB99
:1046000037E346E855EBC701B6010E9430E187FF6A
:104610000BC0A701960160E070E080E89FE30E9474
:10462000E6DF9B01AC010DC02DEB37E346E855E317
:10463000C701B6010E94F3DA18165CF320E030E0FF
:10464000A901C501B4010E940ADF4B015C0120E011
:1046500030E040E85FE30E9409DF6B017C012DEB55
:1046600037E346E855EB0E9430E187FF03C0E0E501
:10467000F5E00EC02DEB37E346E855E3C701B60180
:104680000E94F3DA18169CF332C00E94B332F7018D
:1046900084917F012FEFE21AF20A8111F6CFA50172
:1046A0009401609164057091650580916605909113
:1046B00067050E9458DB60936405709365058093DD
:1046C000660590936705A501940160916805709156
:1046D000690580916A0590916B050E9458DB609393
:1046E00068057093690580936A0590936B05E3E014
:1046F000000F111FEA95E1F7F801E459FA4F809194
:10470000640590916505A0916605B0916705808369
:104710009183A283B3838091680590916905A091EC
:104720006A05B0916B0584839583A683B783C2C75E
:1047300088EC90E00E94BF358111BCC784E40E94E0
:1047400042318823C1F10E940F3111E020E030E0B6
:10475000A9010E94F3DA811101C010E01093CF0A81
:10476000112349F10E940F31E0919F1334E0E39F40
:10477000F0011124E553F54F6083718382839383A5
:1047800020E030E0A9016091CB0A7091CC0A8091C1
:10479000CD0A9091CE0A0E94F3DA81110CC080E01C
:1047A00090E0A0EEBFE38093CB0A9093CC0AA09355
:1047B000CD0AB093CE0A0E944A587CC762E1E62E29
:1047C00067E1F62E01E712E074E0D72ED00ED80193
:1047D0008D918D010E944231882349F00E940F3152
:1047E0000E9453E0F7016083718382839383F4E036
:1047F000EF0EF11CD012EBCF0E94F4665BC742E0D3
:10480000E42E47E1F42E01E712E054E0D52ED00E5D
:10481000D8018D918D010E944231882339F00E9488
:104820000F31F7016083718382839383F4E0EF0E8D
:10483000F11CD012EDCF3EC783E50E9442318823A0
:10484000D9F00E940F31AB01BC0140932A1750935D
:104850002B1760932C1770932D17409322175093AA
:10486000231760932417709325178DED95E00E9410
:1048700066668AE00E94B33280E50E944231882356
:1048800099F00E940F31AB01BC0140932A1750935D
:104890002B1760932C1770932D1780EC95E00E94D6
:1048A00066668AE00E94B33282E50E944231882324
:1048B00099F00E940F31AB01BC0140932617509331
:1048C0002717609328177093291781EA95E00E94B3
:1048D00066668AE00E94B33284E50E9442318823F2
:1048E00009F4E8C60E940F31AB01BC0140932217C6
:1048F00050932317609324177093251783E895E04E
:104900000E9466668AE00E94B332D4C683E50E94A4
:104910004231882351F00E940F316093FE1670934C
:10492000FF16809300179093011784E50E9442318F
:10493000882351F00E940F316093FA167093FB1692
:104940008093FC169093FD1682E40E9442318823E6
:1049500051F00E94CF3060938C0A70938D0A80933F
:104960008E0A90938F0A88E50E944231882351F085
:104970000E940F316093AA0A7093AB0A8093AC0A2D
:104980009093AD0A89E50E944231882351F00E943C
:104990000F316093AE0A7093AF0A8093B00A909380
:1049A000B10A8AE50E944231882351F00E940F31FA
:1049B0006093B20A7093B30A8093B40A9093B50AD5
:1049C00085E40E944231882309F474C60E940F31A5
:1049D0006093B60A7093B70A8093B80A9093B90AA5
:1049E00069C684918F010F5F1F4F882321F00E94B9
:1049F000B332F801F6CF83E50E944231882321F0DB
:104A00000E94003180937002EDE2F6E084918F0104
:104A10000F5F1F4F882321F00E94B332F801F6CFB9
:104A200080917002811103C0E9E2F6E002C0E5E284
:104A3000F6E084918F010F5F1F4F882321F00E94C1
:104A4000B332F801F6CFEDE1F6E084918F010F5F0C
:104A50001F4F882321F00E94B332F801F6CF40E0C7
:104A600050E0BA018BE196E00E94666640E050E0BB
:104A7000BA0188E196E00E94666640E050E0BA0123
:104A800085E196E00E946666EDE0F6E084918F0194
:104A90000F5F1F4F882321F00E94B332F801F6CF39
:104AA00040E050E06CE573E48BE096E00E946666BF
:104AB00040E050E06CE573E488E096E00E946666B2
:104AC00040E050E062E873E485E096E00E946666AC
:104AD0008AE00E94B332EEC583E50E9471318823DB
:104AE00009F4E8C50E94DF30709325026093240228
:104AF000E1C58DED90E00E94BF358111DBC583E5F6
:104B00000E947131882309F4D5C500919F1310E0EC
:104B10000E94DF30000F111FF801EE5DFD4F718321
:104B2000608380919F1390E08C01000F111F000F94
:104B3000111F9801225E3D4F7901880F991FFC01DA
:104B4000EE5DFD4F60817181072E000C880B990B83
:104B50000E94F9DA2AE037ED43E25CE30E9458DB79
:104B6000F801EC59FC4E20813181428153810E9431
:104B700058DBD7016D937D938D939C9313979AC5C2
:104B800080E50E944231882309F494C50E94DF30F9
:104B90006B017C0183E50E947131882321F00E9422
:104BA000DF308B0102C00FEF1FEFC80101960397A2
:104BB00008F080C5D7FC7EC59C2DEDE3F6E08BE2C6
:104BC0008E0F2491921709F475C531968E13F9CF83
:104BD0000C94022F83E50E947131882319F00E9402
:104BE000DF3002C064E071E079A368A380E50E9431
:104BF0007131882339F00E94DF306938B3E17B07D7
:104C000030F402C068EE73E07A83698304C088E8F8
:104C100093E19A838983BE01605E7F4FCE01019646
:104C20000E94808547C585E40E947131811110C0C2
:104C300080E50E944231882391F00E940F316093F9
:104C4000D50A7093D60A8093D70A9093D80A07C0E2
:104C50000E94EF30882361F3E2E8F2E171C089E459
:104C60000E944231882381F00E940F312CEA35ECFA
:104C700047E25EE30E9458DB6093DD0A7093DE0A30
:104C80008093DF0A9093E00A84E40E9442318823F3
:104C900081F00E940F312CEA35EC47E25EE30E947E
:104CA000E6DF6093D90A7093DA0A8093DB0A909367
:104CB000DC0AE4E5F0E284918F010F5F1F4F882347
:104CC00021F00E94B332F801F6CF4091D50A5091FD
:104CD000D60A6091D70A7091D80A80E796E00E94C0
:104CE00066662CEA35EC47E25EE36091DD0A70917E
:104CF000DE0A8091DF0A9091E00A0E94E6DFAB01B4
:104D0000BC018CE696E00E9449662CEA35EC47E24D
:104D10005EE36091D90A7091DA0A8091DB0A909182
:104D2000DC0A0E9458DBAB01BC0188E696E00E94D9
:104D300049668AE00E94B332BDC40E94B332F801D2
:104D400084918F010F5F1F4F8111F7CF02E413E0B1
:104D5000F80181918F01882309F4A5C80E94B3321C
:104D6000F7CF80E50E944231882351F00E940F3135
:104D700060939713709398138093991390939A1359
:104D800089E40E944231882381F00E940F312CEA8D
:104D900035EC47E25EE30E9458DB60939313709317
:104DA0009413809395139093961384E40E94423158
:104DB000882381F00E940F312CEA35EC47E25EE354
:104DC0000E94E6DF60938F1370939013809391138A
:104DD00090939213E4E5F0E284918F010F5F1F4FEF
:104DE000882321F00E94B332F801F6CF4091971347
:104DF000509198136091991370919A138CE796E0F3
:104E00000E9466662CEA35EC47E25EE360919313FC
:104E10007091941380919513909196130E94E6DF00
:104E2000AB01BC0188E796E00E9449662CEA35ECAC
:104E300047E25EE360918F1370919013809191131C
:104E4000909192130E9458DBAB01BC0184E796E07D
:104E50000E9449668AE00E94B3322CC485E40E9415
:104E60007131882321F00E94DF307B0102C0E12CE8
:104E7000F12C83E40E947131882331F00E94DF30ED
:104E8000EA966FAFEA9704C025E0EA962FAFEA975B
:104E900085E50E947131882319F00E94003103C01A
:104EA00085E50E944231CC57DF4F8883C458D040FB
:104EB000F7FC07C0812C912C06E1A02E03E4B02E54
:104EC00006C0812C912C1CE8A12E12E4B12E83E5A2
:104ED0000E947131882321F00E940F314B015C0147
:104EE000E114F10411F410929F130E9404512B015C
:104EF0003C0181E08E0D823018F403E513E00CC014
:104F000006E613E0D8018D918D01882311F40C94ED
:104F1000531F0E94B332F6CFF80181918F0188238D
:104F200019F00E94B332F8CFEBAE8AE00E94B332A0
:104F30000E94A9ABFBADF7FF04C08FE780939E13DF
:104F400007C0EE2DEE0CFF0BE356FC4E8FE780837F
:104F5000C501B4010E944EE0072E000C880B990B8E
:104F60000E94F9DA64966FAF649768967FAF68978E
:104F70006C968FAF6C97A0969FAFA09781E08093BF
:104F80006802C458DF4F488259826A827B82CC57BC
:104F9000D040CB57DF4F488259826A827B82C55806
:104FA000D040AC961FAEAC9720E4E0962FAFE097D0
:104FB0003CE1A4963FAFA49746E4A8964FAFA897CC
:104FC000E4961FAEE497E5961FAEE597E6961FAE12
:104FD000E697E7961FAEE79763961CAE1DAE1EAE32
:104FE0001FAE63972F961CAE1DAE1EAE1FAE2F9741
:104FF000C12CD12C7601AFE78A2E912CA12CB12C9B
:105000008FE790E0A0E0B0E027968CAF9DAFAEAF09
:10501000BFAF2797C058DF4F188219821A821B82B0
:10502000C058D04091E0EC969FAFEC9729961FAE08
:105030001EAE299710E0212C312C00E0ABAD8A2F59
:10504000AA0F990BFC01E356FC4EC757DF4FF983BB
:10505000E883C958D040880F991F880F991F9C0179
:10506000255D354FE9963FAF2EAFE997EA964FADF4
:10507000EA97042E000C550BEB965FAF4EAFEB9703
:1050800080916802882309F424C10E940451239668
:105090006CAF7DAF8EAF9FAF239780919B1388231A
:1050A00009F4F3C00E9435AE5BAD57FF09C0109103
:1050B0002F0A2090300A3090310A0091320A0DC038
:1050C000E996AEADBFADE9971C9111962C90119762
:1050D00012963C90129713960C91212F322D432D4E
:1050E000502FE4966FADE497E5967FADE597E69691
:1050F0008FADE697E7969FADE7970E94F3DA87FFBB
:105100000CC0E4961FAFE497E5962FAEE597E696C0
:105110003FAEE697E7960FAFE797212F322D432D4D
:10512000502FAC966FADAC97E0967FADE097A4960C
:105130008FADA497A8969FADA8970E9430E118164E
:1051400064F4AC961FAFAC97E0962FAEE097A496B0
:105150003FAEA497A8960FAFA897EC96BFADEC977B
:1051600064962FAD649768963FAD68976C964FAD87
:105170006C97A0965FADA097612F722D832D902F15
:10518000BB2309F464C00E9430E118160CF07DC006
:1051900023964CAD5DAD6EAD7FAD23974419550997
:1051A00066097709DB01CA0188589341A109B10951
:1051B000B7FD6BC027968CAD9DADAEADBFAD27974B
:1051C00088199909AA09BB09EBADB595A7959795DB
:1051D0008795E7FF03C080939E1307C0C757DF4F33
:1051E000E881F981C958D0408083C058DF4F488397
:1051F00059836A837B83C058D0406496FFAD64971F
:10520000E496FFAFE49768962FAD6897E5962FAFC9
:10521000E5976C963FAD6C97E6963FAFE697A09604
:105220004FADA097E7964FAFE79723968CAD9DAD16
:10523000AEADBFAD2397C458DF4F88839983AA834F
:10524000BB83CC57D040EC961FAEEC971EC00E949B
:10525000F3DA87FF1AC023968CAD9DADAEADBFAD1E
:105260002397C458DF4F288139814A815B81CC570D
:10527000D040821B930BA40BB50BAC01BD01485869
:1052800053416109710977FF27C420E030E040EA0B
:1052900051E464966FAD649768967FAD68976C969D
:1052A0008FAD6C97A0969FADA0970E940ADF9B01DF
:1052B000AC01612F722D832D902F0E9430E11816C2
:1052C0007CF4EDE3F7E084918F010F5F1F4F8111B4
:1052D00003C00E94A9ABEEC10E94B332F801F3CF24
:1052E00023968CAD9DADAEADBFAD2397CB57DF4FB1
:1052F000288139814A815B81C558D040821B930B3C
:10530000A40BB50BB7FD17C00E941DAB8AE00E942D
:10531000B33223968CAD9DADAEADBFAD2397805318
:10532000984FAF4FBF4FCB57DF4F88839983AA83E6
:10533000BB83C558D04023968CAD9DADAEADBFADFF
:105340002397880F991FAA1FBB1FC458DF4F2881BE
:1053500039814A815B81CC57D040821B930BA40BCF
:10536000B50B84199509A609B70981389F44A24154
:10537000B10568F0EFE1F7E084918F010F5F1F4FF7
:10538000882309F4A6CF0E94B332F801F5CF2996FD
:105390004EAD5FAD2997EB968EAD9FADEB97841721
:1053A00095070CF0B3C0E2ECF6E084918F010F5F3B
:1053B0001F4F882321F00E94B332F801F6CF9BAD36
:1053C00097FD03C00AE414E002C002EF12E0B80146
:1053D00080EB96E00E949C66B701A6018CEA96E0FD
:1053E0000E9466668AE00E94B332B8018AE996E0BC
:1053F0000E949C662F964CAD5DAD6EAD7FAD2F9734
:1054000086E996E00E9466668AE00E94B332B8019F
:1054100084E896E00E949C6663964CAD5DAD6EADEF
:105420007FAD639780E896E00E9466668AE00E94FE
:10543000B332CC57DF4FA881C458D040AA2309F417
:1054400039C1BBADB7FF31C0C0929713D09298134A
:10545000E0929913F0929A132CEA35EC47E25EE35E
:105460002F966CAD7DAD8EAD9FAD2F970E9458DB12
:105470006093931370939413809395139093961362
:105480002CEA35EC47E25EE363966CAD7DAD8EAD04
:105490009FAD63970E94E6DF60938F137093901324
:1054A000809391139093921305C1C092D50AD09224
:1054B000D60AE092D70AF092D80A2CEA35EC47E2F5
:1054C0005EE32F966CAD7DAD8EAD9FAD2F970E94A4
:1054D00058DB6093DD0A7093DE0A8093DF0A9093B5
:1054E000E00A2CEA35EC47E25EE363966CAD7DADF5
:1054F0008EAD9FAD63970E94E6DF6093D90A7093EB
:10550000DA0A8093DB0A9093DC0AD4C00E94B1557A
:10551000B7CDF80181918F01882319F00E94B33231
:10552000F8CF8AE00E94B33281E08093CA0AC2C0F9
:10553000D8018D918D01882319F00E94B332F8CFE4
:105540008AE00E94B3321092CA0AB4C00E9406B424
:10555000B1C00E943199AEC00E940398ABC080E5F3
:10556000C0D6882329F03BD68093EC0511E001C01A
:1055700010E083E5B6D6882321F042D68093ED056E
:1055800001C01111FBD4E4E5F0E284918F010F5FBB
:105590001F4F882319F0E7D7F801F7CF8091ED0569
:1055A00081110BC00FE813E0F80181918F0188236E
:1055B00011F40C94531FD7D7F7CF6091EC0570E02E
:1055C00081EB97E00E9483668AE0CDD773C081E0CB
:1055D000809326021092611783E583D6882311F009
:1055E0000FD602C083E54ED6811164C00E945C7D57
:1055F00061C0E0911A0BF0911B0BFE2E2FE02E17CD
:1056000008F1FF2783E0EE0FFF1F8A95E1F7E459C9
:10561000FA4F80819181A281B38180936405909338
:105620006505A0936605B093670584819581A68181
:10563000B7818093680590936905A0936A05B0933C
:105640006B0538C0E4E5F0E284918F010F5F1F4FD6
:10565000882319F088D7F801F7CF84E584D76F2D18
:1056600070E080E090E04AE00E94593580E27BD70C
:1056700002E413E0D8018D918D01882311F40C947C
:10568000531F71D7F7CFE4E5F0E284918F010F5FEC
:105690001F4F882319F067D7F801F7CF6091A60B49
:1056A0007091A70B8EEB97E00E949C6682E25BD71D
:1056B0008AE059D71092A00B10929F0B0E943D7D5B
:1056C000C9C362D680917002882321F080EB9BE0F1
:1056D0000E942E793DD78091900A83FD50C0C090E2
:1056E000BC0BD090BD0BE090BE0BF090BF0B809038
:1056F0005D1790905E17A0905F17B0906017A5019E
:105700009401C701B6010E94F3DA882309F437C077
:10571000A5019401C701B6010E9409DF9F7720917E
:105720001E0230911F0240912002509121020E94DE
:1057300058DB20E030E048E453E40E9430E11816E2
:10574000F4F4C0925D17D0925E17E0925F17F0926A
:105750006017E4E5F0E284918F010F5F1F4F88230B
:1057600019F001D7F801F7CFE9EDF1E084918F014D
:105770000F5F1F4F882319F0F6D6F801F7CF60911D
:10578000240270912502072E000C880B990B0E94B1
:10579000F9DA20916B0230916C0240916D025091C8
:1057A0006E020E9458DB2AE037ED43E25CE30E9480
:1057B00058DB69837A838B839C83E12C8E010F5F96
:1057C0001F4F2CEB3BE048EB5BE064EB7BE080EBB6
:1057D0009BE00E944B68B2D66DCFF1D4AB01BC0107
:1057E000409388145093891460938A1470938B1497
:1057F0008AE296E10E949D3B5DCF61E0802F0E948E
:10580000C94F6E2D802F0E94874FF12CB701802F3A
:105810000E9405500930110509F04CCFF092441751
:10582000E092431747CFFBD40E944EE067397105E1
:1058300014F066E970E07093461760934517EFD453
:1058400020E030E040EA50E40E9430E1181614F401
:105850000E9440C381E08093680210929F132396B8
:105860001CAE1DAE1EAE1FAE23972B961CAE1DAEFA
:105870001EAE1FAE2B971BAE2C961FAE2C975CE373
:1058800060965FAF60978CE164968FAF649796E403
:1058900068969FAF6897E12CF12C00E81FEB812CF4
:1058A000912C54016091451770914617072E000CFA
:1058B000880B990B0E94F9DA762E672E582E492E06
:1058C000262F372F482F592FB701C8010E94F3DA2E
:1058D000882321F120912F0A3091300A4091310A1A
:1058E0005091320A672D762D852D942D0E94F3DA82
:1058F000881F8827881F8BAF2496AFAD2497AA23D3
:1059000089F0882379F080916802882309F4D2CE47
:1059100060E08CE593E00E948355CCCE7E2C6F2C0A
:10592000502E412E0E9404516B017C01DC01CB0101
:105930002B962CAD3DAD4EAD5FAD2B97821B930BDF
:10594000A40BB50BB7FD39C0D701C60188519C4FD8
:10595000AF4FBF4F2B968CAF9DAFAEAFBFAF2B9766
:105960000E941DABE6E6F3E084918F010F5F1F4FAD
:10597000882319F0F8D5F801F7CF81149104A10418
:10598000B104B9F0D501C401805F984DAF4FBF4F4E
:10599000BC01CD016C197D098E099F0928EE33E009
:1059A00040E050E00E94CEDECA01B9010E94F93504
:1059B00002C08FE3D8D58AE0D6D50E94D77AC8D561
:1059C00020902F0A3090300A0091310A1091320A4B
:1059D0009101A801672D762D852D942D0E9409DF58
:1059E0009F7781149104A104B10449F420E030E0D0
:1059F00040E85FE30E94F3DA87FF0BC008C020E0B5
:105A000030E040E450E40E9430E1181614F44601FE
:105A100057019BAD992309F443C023962CAD3DADAE
:105A20004EAD5FAD2397211531054105510541F07C
:105A3000D701C601821B930BA40BB50BB7FD30C079
:105A40009101A8012C966FAD2C9760967FAD609761
:105A500064968FAD649768969FAD68970E9409DF42
:105A600020E030E040EC5FE30E94F3DA87FD4BCFAB
:105A7000D701C601805A9541AF4FBF4F23968CAFD7
:105A80009DAFAEAFBFAF23972C962FAE2C976096ED
:105A90003FAE609764960FAF649768961FAF6897A4
:105AA00080916802882309F42ECF81149104A10407
:105AB000B10429F4E72CF62C052D142DF3CE90E13A
:105AC000C91A97E2D90AE108F108C818D908EA0802
:105AD000FB08F7FE18CFEECF29964EAD5FAD2997A4
