:100000000C944D150C947E150C947E150C947E1555
:100010000C947E150C947E150C947E150C947E1514
:100020000C947E150C947E150C947E150C947E1504
:100030000C947E150C94418F0C947E150C947E15B7
:100040000C947E150C94D7430C947E150C947E155D
:100050000C947E150C947E150C941AF50C94399121
:100060000C947E150C944E360C947E150C947E15D3
:100070000C947E150C947E150C947E150C947E15B4
:100080000C947E150C947E150C947E150C947E15A4
:100090000C947E150C947E150C947E150C947E1594
:1000A0000C947E150C947E150C947E150C947E1584
:1000B0000C947E150C947E150C947E150C947E1574
:1000C0000C947E150C947E150C947E150C947E1564
:1000D0000C947E150C947E150C947E150C947E1554
:1000E0000C947E15888E8B8E7A8E7E8E848EC28E38
:1000F0008F8E938E998E9D8EA18EA78EAB8EAF8E96
:10010000C28EB58EB98EBD8E55905A905F90699013
:100110007390EC907D9085908D909790A190AB908E
:10012000BA90C490EC90CE90D890E290084AD73B19
:100130003BCE016E84BCBFFDC12F3D6C74319ABDB6
:1001400056833DDA3D00C77F11BED9E4BB4C3E91DA
:100150006BAAAABE000000803F05A84CCDB2D44EC9
:10016000B93836A9020C50B9918688083CA6AAAACB
:100170002ABE000000803F000D941C080D94370734
:100180004E414E494E495459494E46CDCCCC3D0A7C
:10019000D7233C17B7D13877CC2B329595E6241F5F
:1001A000B14F0A000020410000C84200401C462018
:1001B000BCBE4CCA1B0E5AAEC59D7447322F473386
:1001C0002062616420706172616D65746572730A8A
:1001D00000536C6565702E2E2E00206F6620004D3A
:1001E000424C2047323920706F696E7420005920CC
:1001F0006F7574206F662072616E67652028312DDF
:1002000033292E0A0058206F7574206F66207261A2
:100210006E67652028312D33292E0A004D657368DD
:100220002070726F62696E6720646F6E652E0A00BF
:100230005374617274206D6573682070726F6269A7
:100240006E67207769746820224732392053312243
:100250002066697273742E0A004732380A473239B1
:100260002053320047323920533200537461746591
:100270003A20004D65736820626564206C65766580
:100280006C696E6720686173206E6F2064617461B1
:100290002E0A0053206F7574206F662072616E679E
:1002A000652028302D35292E0A004D657368207091
:1002B0006F696E742063616E6E6F74206265207268
:1002C00065736F6C7665640A00526573756D696E4F
:1002D00067207072696E74004131304D2072656123
:1002E00064792E00436C69636B20746F20726573B0
:1002F000756D652E2E2E004E6F206D6F76652E006B
:10030000456E642066696C65206C6973740A0042EE
:100310006567696E2066696C65206C6973740A0094
:1003200046696C652064656C657465643A00446573
:100330006C6574696F6E206661696C65642C20461B
:10034000696C653A20006F70656E206661696C6546
:10035000642C2046696C653A20005072696E7420E6
:1003600074696D653A2000000125272318FF1F21BD
:100370001D1CFF19171B1EFFFF0C0409FFFFFF2E9A
:100380002C0CFFFF312F3004400AFF41FFFFFFFF1D
:10039000FFFF50726F7465637465642050696E0A64
:1003A000006F6E2E0A006F66662E0A0047323620F6
:1003B000446562756720006D0046696C616D656E0D
:1003C0007420757365643A200053746174733A2025
:1003D000002C204C6F6E67657374206A6F623A2040
:1003E00000546F74616C2074696D653A2000537419
:1003F0006174733A20002C204661696C65643A2070
:10040000002C2046696E69736865643A200050725A
:10041000696E74733A200053746174733A20004B10
:10042000494C4C45442E20004D3131332053006F50
:100430006B0048656174696E6720646F6E652E009D
:1004400020573A00452569202573004131304D2061
:1004500072656164792E0042656420646F6E652E5A
:100460000020573A004265642048656174696E67F0
:100470002E004131304D204F66662E00454D4552CD
:1004800047454E43595F50415253455200434153F3
:10049000455F4C494748545F4252494748544E458E
:1004A000535300544F47474C455F4C4947485453BA
:1004B00000534F4654574152455F504F57455200E5
:1004C0004255494C445F50455243454E54004C45BB
:1004D00056454C494E475F44415441005A5F505283
:1004E0004F4245004155544F4C4556454C005052E3
:1004F000494E545F4A4F420050524F475245535362
:10050000004155544F5245504F52545F54454D5041
:1005100000564F4C554D45545249430045455052A5
:100520004F4D0053455249414C5F584F4E5F584F15
:100530004646004649524D574152455F4E414D4552
:100540003A4D61726C696E20312E312E3920284768
:1005500069746875622920534F555243455F434F74
:1005600044455F55524C3A68747470733A2F2F6744
:1005700069746875622E636F6D2F4D61726C696E60
:100580004669726D776172652F4D61726C696E207C
:1005900050524F544F434F4C5F56455253494F4E64
:1005A0003A312E30204D414348494E455F54595011
:1005B000453A4131304D2045585452554445525FDB
:1005C000434F554E543A3120555549443A6365647A
:1005D00065326132662D343161322D343734382D35
:1005E000396231322D6335356336326633363766DC
:1005F000660A002F2F20007A5F6D696E3A2000791D
:100600005F6D696E3A2000785F6D696E3A20005226
:1006100065706F7274696E6720656E6473746F7055
:10062000207374617475730A004B64200023646541
:1006300066696E65202044454641554C545F004B29
:1006400069200023646566696E6520204445464143
:10065000554C545F004B70200023646566696E65DD
:10066000202044454641554C545F005049442041A8
:1006700075746F74756E652066696E6973686564FC
:10068000212050757420746865206C617374204B50
:10069000702C204B6920616E64204B6420636F6E68
:1006A0007374616E74732066726F6D2062656C6F17
:1006B0007720696E746F20436F6E6669677572612B
:1006C00074696F6E2E680A00504944204175746F3A
:1006D00074756E65206661696C6564212074696D4E
:1006E000656F75740A00504944204175746F7475C4
:1006F0006E65206661696C6564212054656D706566
:1007000072617475726520746F6F20686967680A1A
:1007100000204B643A2000204B693A2000204B70A7
:100720003A20000A20436C61737369632050494486
:10073000200A002054753A2000204B753A200020F2
:100740006D61783A2000206D696E3A200020643A8D
:10075000200020626961733A20004F66660A0046F5
:10076000616465204865696768742000426564209B
:100770004C6576656C696E6720004661696C6564DE
:1007800020746F20656E61626C6520426564204C48
:100790006576656C696E670A004D65736820426511
:1007A00064204C6576656C20646174613A0A004D82
:1007B00065736820706F696E742063616E6E6F740C
:1007C000206265207265736F6C7665640A004D3433
:1007D000323120696E636F7272656374207061726A
:1007E000616D657465722075736167650A004361A8
:1007F0007365206C696768743A2000556E6B6E6F84
:10080000776E20636F6D6D616E643A2022004D65D6
:1008100073682056616C69646174696F6E205374EB
:100820006F707065642E00696E206D6F76655F7401
:100830006F282920666565645F76616C7565206642
:100840006F722058593A004C656176696E6720478F
:100850003236004732362048656174696E67204E33
:100860006F7A7A6C652E004732362048656174696C
:100870006E67204265642E00446F6E652050726979
:100880006D696E6700446F6E65205072696D696EA8
:1008900067004669786564204C656E67746820500F
:1008A00072696D652E00557365722D436F6E74729B
:1008B0006F6C6C6564205072696D65002C206579E1
:1008C0003D0029202D3E202865783D002C2073799D
:1008D0003D0020436F6E6E656374696E67207769B3
:1008E000746820766572746963616C206C696E65EA
:1008F000202873783D002C2065793D0029202D3E6D
:10090000202865783D002C2073793D0020436F6ED0
:100910006E656374696E67207769746820686F72AA
:10092000697A6F6E74616C206C696E6520287378CB
:100930003D004C656176696E6720473236002C2099
:1009400079693D00202020446F696E6720636972D9
:10095000636C652061743A202878693D003F5370CC
:100960006563696669656420582C5920636F6F72EE
:1009700064696E617465206F7574206F6620626FA4
:10098000756E64732E0A003F285229657065617484
:100990002076616C7565206E6F7420706C61757364
:1009A00069626C653B206D757374206265206174AB
:1009B000206C6561737420312E0A003F53706563AB
:1009C0006966696564206E6F7A7A6C652074656DFE
:1009D0007065726174757265206E6F7420706C61E1
:1009E000757369626C652E0A003F537065636966B2
:1009F0006965642066696C616D656E742073697ADF
:100A000065206E6F7420706C61757369626C652E01
:100A10000A003F5370656369666965642070726996
:100A20006D65206C656E677468206E6F7420706CE5
:100A300061757369626C652E0A003F537065636966
:100A400066696564206E6F7A7A6C652073697A6571
:100A5000206E6F7420706C61757369626C652E0A0C
:100A6000003F5370656369666965642052657472FE
:100A7000616374696F6E204D756C7469706C696523
:100A800072206E6F7420706C61757369626C652E74
:100A90000A003F52657472616374696F6E204D7510
:100AA0006C7469706C696572206D75737420626511
:100AB000207370656369666965642E0A003F537030
:100AC00065636966696564206C6179657220686533
:100AD00069676874206E6F7420706C6175736962E9
:100AE0006C652E0A003F5370656369666965642012
:100AF0006265642074656D706572617475726520DD
:100B00006E6F7420706C61757369626C652E0A007B
:100B100047323620636F6D6D616E6420737461724D
:100B20007465642E2057616974696E6720666F7200
:100B3000206865617465722873292E0A004B494C40
:100B40004C45442E2000202D20496E76616C69644E
:100B5000206578747275646572206E756D62657259
:100B600020210A002D2D2D2D2D2D007C4D61726C24
:100B7000696E7C002D2D2D2D2D2D00687474703A1A
:100B80002F2F6D61726C696E66772E6F72670068C9
:100B90007474703A2F2F6D61726C696E66772E6F68
:100BA00072670020312E312E39007265636F7665D1
:100BB00072792564002020506C616E6E65724275FA
:100BC0006666657242797465733A200020467265E4
:100BD00065204D656D6F72793A2000436F6D7069C5
:100BE0006C65643A204F63742031332032303138E1
:100BF0000A00207C20417574686F723A20286E6F5D
:100C00006E652C2064656661756C7420636F6E661A
:100C10006967290A00323031382D31302D313320C7
:100C200032323A303000204C617374205570646168
:100C30007465643A2000312E312E390A004D6172FC
:100C40006C696E0020536F6674776172652052651F
:100C50007365740A00205761746368646F6720527B
:100C6000657365740A002042726F776E206F757429
:100C70002052657365740A002045787465726E6150
:100C80006C2052657365740A00506F7765725570F9
:100C90000A0073746172740A006572726F72207751
:100CA000726974696E6720746F2066696C650A00EA
:100CB000456E6473746F707320256320256320254F
:100CC0006320256300205A3A0020593A0020583A00
:100CD00000656E6473746F7073206869743A2000E5
:100CE00047323820580047636F203A200047323897
:100CF0002059004732382058004D313039205430C7
:100D000020532575004D3139302053257500446F2F
:100D10006E6520736176696E672066696C652E0A60
:100D2000004D32390024F4D43050C38E20C2A2408A
:100D300017828B7011127A910D816CD90AA861E12A
:100D400008C7586607615143061E4B5D05C145A79C
:100D5000041A411104093D9803713931034036DB0F
:100D60000265339102D4305402802E1D02632CEEB2
:100D700001752AC501B028A001102781018F2564C3
:100D8000012B244B01E0223401AC211F018D200DE9
:100D900001801FFC00841EED00971DDF00B81CD2EF
:100DA00000E61BC600201BBC00641AB200B219A8E2
:100DB000000A19A0006A189900D117910040178BFA
:100DC00000B516840031167E00B31579003A15730C
:100DD00000C7146F0058146A00EE1366008813638E
:100DE0000025135E00C7125B006C125700151254E9
:100DF00000C111510070114F0021114B00D6104954
:100E0000008D1047004610440002104200C00F4001
:100E100000800F3E00420F3C00060F3B00CB0E3817
:100E200000930E37005C0E3500270E3400F30D32B0
:100E300000C10D3100900D3000600D2E00320D2DDF
:100E400000050D2C00D90C2B00AE0C2900850C29B7
:100E5000005C0C2700350C27000E0C2600E80B2444
:100E600000C40B2400A00B23007D0B23005A0B2190
:100E700000390B2100180B2000F80A1F00D90A1EA8
:100E800000BB0A1E009D0A1D00800A1D00630A1C8B
:100E900000470A1B002C0A1B00110A1A00F7091A46
:100EA00000DD091900C4091900AB091900920917DE
:100EB000007B091800630917004C09160036091653
:100EC00000200916000A091500F5081500E00814AD
:100ED00000CC081400B8081400A4081400900813EB
:100EE000007D0812006B0813005808120046081213
:100EF0000034081100230811001208110001081124
:100F000000F0071000E0071000D0071000C0071025
:100F100000B0070F00A107100091070E0083070F14
:100F20000074070F0065070E0057070E0049070EF3
:100F3000003B070D002E070E0020070D0013070DC4
:100F40000006070D00F9060C00ED060D00E0060C8A
:100F500000D4060C00C8060C00BC060C00B0060C41
:100F600000A4060B0099060C008D060B0082060BF0
:100F70000077060B006C060B0061060A0057060B93
:100F8000004C060A0042060A0038060A002E060A2D
:100F90000024060A001A060A001006090007060ABD
:100FA00000FD050900F4050900EB050900E205094B
:100FB00000D9050900D0050900C7050900BE0509CB
:100FC00000B5050800AD050800A50509009C050849
:100FD00000940508008C050800840508007C0508BD
:100FE00000740508006C050700650508005D05072D
:100FF00000560508004E0507004705070040050894
:101000000038050700310507002A050700230507FA
:10101000001C050600160507000F05070008050659
:101020000002050700FB040600F5040700EE0406B5
:1010300000E8040600E2040700DB040600D504060D
:1010400000CF040600C9040600C3040600BD040660
:1010500000B7040600B1040500AC040600A60406AF
:1010600000A00405009B04060095040500900406FA
:10107000008A04050085040500800406007A040542
:101080000075040500700405006B04050066040586
:1010900000610405005C04050057040500520405C6
:1010A000004D04050048040500430405003E040407
:1010B000003A04050035040500300404002C040542
:1010C0000027040400230405001E0404001A04047D
:1010D0000016040500110404000D040400090405B1
:1010E000000404040000040400FC030400F80304EA
:1010F00000F4030400F0030400EC030400E803041C
:1011000000E4030400E0030400DC030400D803044B
:1011100000D4030400D0030400CC030400C803037C
:1011200000C503030024F404D9201BC40C5C0E98F2
:1011300004C4095F0265077101F405F900FB04B3FB
:101140000048048700C103690058035500030345A4
:1011500000BE023A008402310053022A002902250F
:101160000004022000E4011C00C8011900AF0117AF
:101170000098011400840113007101100061011036
:101180000051010E0043010D0036010B002B010B35
:101190000020010B00150109000C010900030108E2
:1011A00000FB000800F3000800EB000700E4000665
:1011B00000DE000600D8000600D2000600CC0005C4
:1011C00000C7000500C2000500BD000400B900040E
:1011D00000B5000400B1000400AD000400A9000443
:1011E00000A5000300A20003009F0004009B000371
:1011F0000098000300950002009300030090000394
:10120000008D0002008B00030088000200860002AF
:101210000084000300810002007F0002007D0002C4
:10122000007B0002007900020077000100760002D6
:10123000007400020072000100710002006F0002E1
:10124000006D0001006C0002006A000100690002EC
:1012500000670001006600010065000100640002F3
:10126000006200010061000100600001005F0002F7
:10127000005D0001005C0001005B0001005A0001FC
:1012800000590001005800010057000100560001FC
:1012900000550001005400010053000000530001FC
:1012A000005200010051000100500001004F0001F8
:1012B000004E0000004E0001004D0001004C0001F6
:1012C000004B0000004B0001004A000100490001F2
:1012D00000480000004800010047000100460000EF
:1012E00000460001004500000045000100440001E7
:1012F00000430000004300010042000000420001E2
:10130000004100000041000100400001003F0000DA
:10131000003F0001003E0000003E0001003D0000D3
:10132000003D0001003C0000003C0000003C0001CA
:10133000003B0000003B0001003A0000003A0001C1
:1013400000390000003900010038000000380000BA
:1013500000380001003700000037000100360000AF
:1013600000360000003600010035000000350000A6
:10137000003500010034000000340000003400019A
:101380000033000000330000003300010032000091
:101390000032000000320001003100000031000086
:1013A000003100010030000000300000003000017A
:1013B000002F0000002F0000002F0000002F000170
:1013C000002E0000002E0000002E0001002D000065
:1013D000002D0000002D0000002D0001002C000059
:1013E000002C0000002C0000002C0001002B00004D
:1013F000002B0000002B0000002B0001002A000041
:10140000002A0000002A0000002A00010029000034
:101410000029000000290000002900000029000127
:10142000002800000028000000280000002800001C
:10143000002800010027000000270000002700000E
:101440000027000000270001002600000026000001
:1014500000260000002600000026000100250000F4
:1014600000250000002500000025000000250000E8
:1014700000250001002400000024000000240000DA
:1014800000240000002400010023000000230000CD
:1014900000230000002300000023000000230000C0
:1014A00000230001002200000022000000220000B2
:1014B00000220000002200000022000100210000A4
:1014C0000021000000210000002100000021000098
:1014D0000021000000210001002000000020000089
:1014E000002000000020000000200000002000007C
:1014F0000020000000200001001F0000001F00006D
:10150000001F0000001F0000001F0000001F00005F
:10151000001F0001001E0000001E0000001E000051
:10152000001E0000004D383420582059205A204514
:101530000025732C005A25752C45256C752C5025DB
:101540006C752C5425752C4225752C004131304D7D
:101550002072656164792E004572723A4E6F2046A2
:10156000696C616D656E74004572726F722077727E
:101570006974696E6720746F20454550524F4D2144
:101580000A00290A002062797465733B2063726344
:10159000200053657474696E67732053746F7265AD
:1015A0006420280077726974652066696C65206E16
:1015B000616D653A2000290A002062797465733BE9
:1015C000206372632000706F7765726F66662053C8
:1015D000746F72656420280000006D697820706562
:1015E0007263656E74006D69782070657263656EF4
:1015F0007400000074656D706C6174650074656DD5
:10160000706C6174650066696C616D656E744C0028
:1016100066696C616D656E7452004D697865720023
:101620005072696E74207061757365640000507249
:10163000696E742061626F72746564004E6F20532E
:10164000442063617264005072696E742066726F28
:101650006D2053440053746F70207072696E740073
:10166000526573756D65207072696E740050617596
:101670007365207072696E740041626F75742050DA
:1016800072696E746572004D6978657200436F6EA1
:1016900074726F6C00507265706172650054756E83
:1016A0006500496E666F2073637265656E00466CF7
:1016B0006F7700466C6F770046616E2073706565CA
:1016C000640046616E207370656564004265640065
:1016D000426564004E6F7A7A6C65004E6F7A7A6C60
:1016E0006500426564205A00426564205A005370C8
:1016F000656564005370656564004D61696E002026
:101700000D0A62797465733B20637263206572729F
:101710006F722000200D0A62797465733B2063723A
:1017200063206572726F7220007265616420666961
:101730006C65206E616D653A20007265616420669B
:10174000696C65206469723A2000290A0020627978
:101750007465733B206372632000706F7765726FEE
:1017600066662073746F7265642073657474696E45
:10177000677320726574726965766564202800203D
:101780002863616C63756C6174656429210A0020AB
:10179000213D2000454550524F4D20435243206D7E
:1017A00069736D61746368202D202873746F72658E
:1017B00064292000290A002062797465733B206344
:1017C000726320002073746F726564207365747493
:1017D000696E677320726574726965766564202826
:1017E00000204D61726C696E3D563131290A002826
:1017F000454550524F4D3D00454550524F4D207686
:10180000657273696F6E206D69736D6174636820B2
:101810000048617264636F64656420446566617545
:101820006C742053657474696E6773204C6F6164C7
:1018300065640A00B80B0000B80B00004B00000004
:10184000881300000000C8430000C8430000C843DC
:10185000000034429A99A0429A99A1420000C843DC
:101860000000AA434D657368204C6576656C696E0F
:1018700067004578747275646572733A2031006848
:101880007474703A2F2F6D61726C696E66772E6F6B
:101890007267004131304D00323031382D31302DFA
:1018A00031332032323A303000312E312E39004D72
:1018B00061726C696E005072696E74657220537447
:1018C00061747300546865726D6973746F7273002C
:1018D000426F61726420496E666F005072696E7467
:1018E000657220496E666F004D61696E00436172DA
:1018F000642072656D6F766564004361726420696F
:101900006E7365727465640053746570732F6D6DCA
:10191000004A65726B00416363656C65726174694E
:101920006F6E0056656C6F6369747900436F6E74F7
:10193000726F6C0046696C616D656E74204F6666EF
:101940000046696C616D656E74204F6E20004669BB
:101950006C616D656E74204F66660046696C616DE2
:10196000656E74204F6E200046696C2E20446961BC
:101970002E0046696C2E204469612E004F66660079
:101980004F6E20004520696E206D6D3300436F6EF1
:1019900074726F6C0043616E6E6F7420656E746557
:1019A00072207375626469723A2000052E2E004D14
:1019B00061696E0000457874727564656420746FA7
:1019C00074616C3A2000256C642E25696D00004C12
:1019D0006F6E67657374206A6F622074696D653A13
:1019E000200000546F74616C207072696E742074F2
:1019F000696D653A2000436F6D706C657465643A7B
:101A000020005072696E7420436F756E743A200026
:101A10004D61782054656D703A20313530004D6944
:101A20006E2054656D703A203500544265643A4525
:101A300050434F53203130304B004D617820546576
:101A40006D703A20323735004D696E2054656D70E7
:101A50003A20350054303A204550434F532031301E
:101A6000304B005053553A2047656E6572696300EC
:101A700050726F746F636F6C3A20312E3000426188
:101A800075643A20323530303030004754323536C4
:101A9000302056332E30004D31343520533C696EA2
:101AA0006465783E206F7574206F662072616E6782
:101AB000652028302D31290A00205A3A0020593A51
:101AC0000020436F756E7420583A0020453A00207C
:101AD0005A3A0020593A00583A003A004361703AA5
:101AE0000053657474696E672054726176656C206A
:101AF000416363656C65726174696F6E3A2000536F
:101B0000657474696E6720526574726163742041F4
:101B10006363656C65726174696F6E3A200053652A
:101B20007474696E67205072696E742041636365D6
:101B30006C65726174696F6E3A20005365747469E4
:101B40006E67205072696E7420616E6420547261F9
:101B500076656C20416363656C65726174696F6E54
:101B60003A2000205A00205900580020204D61786A
:101B70003A2000205A00205900580020204D696E5C
:101B80003A20004F6E20004F666600536F66742047
:101B9000656E6473746F70733A200020643A00209D
:101BA000693A0020703A0020643A0020693A002027
:101BB000703A0043290A0061626C656420286D69EF
:101BC0006E2074656D702000436F6C6420657874BE
:101BD0007275646573206172652000496E6974696D
:101BE000616C697A6520454550524F4D00436F6ED8
:101BF00074726F6C00526573746F726520666169F0
:101C00006C73616665004C6F616420736574746900
:101C10006E677300496E697469616C697A65204505
:101C20004550524F4D0053746F7265207365747444
:101C3000696E67730046696C616D656E74004D6F07
:101C400074696F6E0054656D70657261747572654C
:101C5000004D61696E005072656865617420414293
:101C60005320636F6E660050726568656174205022
:101C70004C4120636F6E66005049442D440050492A
:101C8000442D44005049442D49005049442D4900F9
:101C90005049442D50005049442D50002002204608
:101CA0006163740020022046616374002002204DAD
:101CB0006178002002204D6178002002204D61787B
:101CC000002002204D696E002002204D696E002028
:101CD00002204D696E004F6666004F6E2000417510
:101CE000746F74656D700046616E20737065656415
:101CF0000046616E20737065656400426564004251
:101D00006564004E6F7A7A6C65004E6F7A7A6C6506
:101D100000436F6E74726F6C0053746F7265207342
:101D2000657474696E67730042656400426564009F
:101D30004E6F7A7A6C65004E6F7A7A6C65004661F8
:101D40006E2073706565640046616E207370656512
:101D5000640054656D706572617475726500000091
:101D60002100240027002A002D003000330001014B
:101D70000000040107010A010000220025002800DC
:101D80002B002E0031003400020100000501080183
:101D90000B01000020002300260029002C002F004A
:101DA00032000001000003010601090105050505D7
:101DB000070508080808020202020A0A08080404C3
:101DC00004040101010101010101030303030303F1
:101DD0000303040707070C0C0C0C0C0C0C0C020280
:101DE000020206060606060606060B0B0B0B0B0B7D
:101DF0000B0B01021020200808102040102040800A
:101E000002010201080402010102040810204080BE
:101E1000804020100804020180040201804020104C
:101E20000804020108040201010204081020408095
:101E3000010204081020408000000A0B02090C0D6A
:101E40000E0807030401000000000000000000006D
:101E50000000000000000000000000000000000082
:101E6000000000001211100000000000000000003F
:101E70000000000000000000000000000000022040
:101E8000746F6F206C6F6E672065787472757369FC
:101E90006F6E2070726576656E7465640A002063EB
:101EA0006F6C6420657874727573696F6E207072E0
:101EB0006576656E7465640A004D313034205325B3
:101EC00075004739322045257500473932205A259B
:101ED000752E2575004D353030004E4F20200059AD
:101EE0006573202000526573756D65207072696E90
:101EF00074203F0025753A25303275002530327543
:101F00003A25303275002D2D2D005344005A0050D3
:101F100072656865617420504C4120456E640050C4
:101F200072656865617420504C41204265640050C0
:101F300072656865617420504C4100507265706133
:101F40007265005072656865617420414253204596
:101F50006E6400507265686561742041425320428E
:101F60006564005072656865617420414253005099
:101F7000726570617265004261636B004E657874D2
:101F800020636F726E6572004C6576656C696E6772
:101F900020446F6E6521004D6F7665205A004732F0
:101FA00039205332004E65787420506F696E74008A
:101FB0002569202F202575004732392053310047ED
:101FC000323920533200436C69636B20746F2042B6
:101FD0006567696E00486F6D696E672058595A00D1
:101FE0004732380053746F72652073657474696E7C
:101FF0006773004C6F61642073657474696E6773F6
:10200000004C6576656C20636F726E657273004C70
:102010006576656C2062656400426564205A004202
:102020006564205A00466164652048656967687484
:10203000004661646520486569676874004F66669C
:10204000004F6E2000426564204C6576656C696EB9
:1020500067005072657061726500256973002569BB
:102060006D20256973002569682025696D20256923
:102070007300256964202569682025696D2025691C
:102080007300256979202569642025696820256900
:102090006D20256973004C696E65204E756D626513
:1020A00072206973206E6F74204C617374204C69C8
:1020B0006E65204E756D6265722B312C204C6173FC
:1020C00074204C696E653A20004B494C4C45442EB7
:1020D000200053544F505045442E20005072696EDA
:1020E0007465722073746F70706564206475652008
:1020F000746F206572726F72732E20466978207437
:102100006865206572726F7220616E6420757365F8
:10211000204D39393920746F20726573746172747F
:102120002E202854656D7065726174757265206922
:10213000732072657365742E205365742069742052
:1021400061667465722072657374617274696E671A
:10215000290A004E6F20436865636B73756D2077A5
:10216000697468206C696E65206E756D6265722C8D
:10217000204C617374204C696E653A200063686579
:10218000636B73756D206D69736D617463682C206A
:102190004C617374204C696E653A20004D313130CA
:1021A000004D3331004732382058590053442072D3
:1021B000656164206572726F720A00446F6E6520FB
:1021C0007072696E74696E672066696C650A0020BA
:1021D000496E76616C6964206578747275646572A5
:1021E0002000526573656E643A20006F6B002074A6
:1021F0006F6F206C6F6E6720657874727573696F8E
:102200006E2070726576656E7465640A0020636F77
:102210006C6420657874727573696F6E2070726576
:1022200076656E7465640A00627573793A20706130
:102230007573656420666F7220696E7075740A002C
:10224000627573793A2070617573656420666F7288
:1022500020757365720A00627573793A2070726F27
:1022600063657373696E670A004B494C4C45442E95
:1022700020004B494C4C2063617573656420627982
:1022800020746F6F206D75636820696E6163746977
:1022900076652074696D65202D2063757272656E98
:1022A0007420636F6D6D616E643A2000506C6561DF
:1022B0007365207265736574005052494E544552DF
:1022C0002048414C544544005072696E7465722038
:1022D00068616C7465642E206B696C6C28292063BE
:1022E000616C6C6564210A000000000000000000C1
:1022F000000000005761726E696E673A20486F6D8A
:10230000696E672042756D702044697669736F72DB
:10231000203C20310A000202040000A0400000A07E
:10232000400000004000006A4300006A4300008251
:1023300043FFFFFF7C3C3E5E2B3D3F2F5B5D3B2C14
:102340002A225C005654726176206D696E005654E4
:10235000726176206D696E005654726176206D69E7
:102360006E00566D696E00566D696E00566D696E31
:1023700000566D6178204500566D61782045005605
:102380006D6178204500566D6178205A00566D6168
:1023900078205A00566D6178205A00566D61782079
:1023A0005900566D6178205900566D6178205900AA
:1023B000566D6178205800566D6178205800566D32
:1023C00061782058004D6F74696F6E00416D6178BF
:1023D000204500416D6178204500416D6178205AAB
:1023E00000416D6178205A00416D617820590041AB
:1023F0006D6178205900416D6178205800416D6110
:1024000078205800412D74726176656C00412D74FE
:10241000726176656C00412D72657472616374003F
:10242000412D7265747261637400416363656C0071
:10243000416363656C004D6F74696F6E0056652D66
:102440006A65726B0056652D6A65726B0056652D64
:102450006A65726B00567A2D6A65726B00567A2D2A
:102460006A65726B0056792D6A65726B0056792D1C
:102470006A65726B0056792D6A65726B0056782D0D
:102480006A65726B0056782D6A65726B0056782DFE
:102490006A65726B004D6F74696F6E004573746589
:1024A00070732F6D6D004573746570732F6D6D00C3
:1024B0005A73746570732F6D6D005A737465707301
:1024C0002F6D6D005973746570732F6D6D005973A6
:1024D000746570732F6D6D005873746570732F6D14
:1024E0006D005873746570732F6D6D004D6F746956
:1024F0006F6E0050726568656174204142530050F0
:1025000072656865617420504C4100436F6F6C6464
:102510006F776E0044697361626C652073746570D7
:1025200070657273004D383400426564204C6576E6
:10253000656C696E6700486F6D65205A00473238D8
:10254000205A00486F6D65205900473238205900E5
:10255000486F6D6520580047323820580041757427
:102560006F20686F6D6500473238004D6F766520CB
:1025700061786973004D61696E004D6F7665205812
:10258000004D6F76652059004D6F7665205A0045E5
:1025900078747275646572004D6F766520302E31E7
:1025A0006D6D004D6F766520316D6D004D6F7665F8
:1025B0002031306D6D004D6F766520617869730054
:1025C0004578747275646572004D6F7665205A00A7
:1025D0004D6F76652059004D6F766520580045781F
:1025E000747275646572004D6F7665205A004D6F88
:1025F00076652059004D6F766520580050726570E1
:1026000061726500434F4D4D554E49434154494F0A
:102610004E0044525952554E004552524F525300AB
:10262000494E464F004543484F005761726E696EF0
:10263000673A204D697820666163746F7273206D0C
:102640007573742061646420757020746F20312E5E
:10265000302E205363616C696E672E0A0047323852
:10266000205A20466F7262696464656E0A004732C0
:1026700038205A20466F7262696464656E00206E6D
:102680006F7420656E74657265642E0A000A4D656C
:1026900061737572656420706F696E74733A0A00B5
:1026A0005A206F66667365743A20004E756D205827
:1026B0002C593A20332C330A004525692025730014
:1026C0004131304D2072656164792E002526202627
:1026D0001926122604266F66660044454255473A7D
:1026E0000000004842000048420000804000000016
:1026F0000053442063617264206F6B0A006F706541
:102700006E526F6F74206661696C65640A00766F43
:102710006C756D652E696E6974206661696C65649F
:102720000A00534420696E6974206661696C0A006E
:102730006175746F25692E67004D3234004D323358
:102740002025730057726974696E6720746F206664
:10275000696C653A20006F70656E206661696C6512
:10276000642C2046696C653A20006F70656E2066A7
:1027700061696C65642C2046696C653A2000466985
:102780006C652073656C65637465640A0020536929
:102790007A653A200046696C65206F70656E6564E5
:1027A0003A20006F70656E206661696C65642C204C
:1027B00046696C653A20002066696C653A200064C1
:1027C0006F696E67006672657368004E6F772000F0
:1027D000454E4420535542524F5554494E450A00E8
:1027E0002220706F73002220706172656E743A222D
:1027F00000535542524F5554494E452043414C4C8D
:10280000207461726765743A22004B494C4C454410
:102810002E2000747279696E6720746F2063616C7A
:102820006C207375622D67636F64652066696C65E3
:1028300073207769746820746F6F206D616E7920E2
:102840006C6576656C732E204D4158206C657665FD
:102850006C2069733A004572726F723A0043616E80
:102860006E6F74206F70656E20737562646972207C
:1028700000656E7175657565696E67202200656318
:10288000686F3A0070012C0190012701B00122010C
:10289000C0011D01F00118011002130130020E01E8
:1028A0006002090190020401C002FF000003FA0067
:1028B0004003F5008003F000D003EB002004E600A5
:1028C0007004E100E004DC004005D700C005D20040
:1028D0004006CD00D006C8008007C3003008BE0007
:1028E000F008B900C009B400B00AAF00B00BAA00EC
:1028F000D00CA500000EA000500F9B00C010960049
:102900005012910000148C00C0158700B01782008F
:10291000B0197D00D01B7800001E730040206E00AF
:1029200090226900F024640040275F0090295A003B
:10293000E02B5500102E500020304B001032460086
:10294000E033410090353C001037370070383200DA
:10295000A0392D00B03A2800A03B2300603C1E00A7
:10296000103D1900903D1400103E0F00703E0A000B
:10297000C03E0500003F0000403FFBFF803FF6FFE8
:10298000C03FF1FF4572723A204D494E54454D50BB
:1029900020424544004572723A204D494E54454DFF
:1029A00050004D494E54454D50207472696767651B
:1029B000726564004572723A204D415854454D503D
:1029C00020424544004572723A204D415854454DCD
:1029D00050004D415854454D5020747269676765E9
:1029E00072656400202F002042403A0020403A00E7
:1029F00000000000010204040000001C1C0C040480
:102A000004020100000000000408100000000000A3
:102A1000001C1F11111F00000006191803130C00E1
:102A2000040E1F041C000000000E1315110E000000
:102A30001C10181705060500040A0A0A0A11110ECF
:102A40000C12120C00000000001F1511151F0000D1
:102A50005344207072696E74696E67206279746580
:102A600020004E6F74205344207072696E74696E3A
:102A7000670A006265640A002C2073797374656DBF
:102A80002073746F7070656421204865617465728D
:102A90005F49443A2000BC00BE0011241FBECFEFA6
:102AA000D1E2DEBFCDBF00E00CBF14E0A0E0B2E099
:102AB000ECE6F0E302E00BBF02C007900D92AC3FE2
:102AC000B107D9F728E1ACEFB4E001C01D92AE3EEA
:102AD000B207E1F715E1CCE4D5E100E006C02197AB
:102AE0000109802FFE010F945F17CB34D10780E0DE
:102AF0000807A9F70E94E9FE0D9425180C94000020
:102B00002F923F924F925F926F927F928F929F92FD
:102B1000AF92BF92CF92DF92EF92FF920F931F93EB
:102B2000CF93DF93CDB7DEB7CE58D1090FB6F89467
:102B3000DEBF0FBECDBF81E090E09093071280937F
:102B400006128091E7188D3411F40C94EC1E843534
:102B500011F40C94F22D873411F00C943A2E8091DC
:102B6000E5189091E6188A31910509F43EC67CF487
:102B7000843091053CF48230910594F597FF29C08B
:102B80000C94512E049709F4EAC50C94512E8A3204
:102B9000910511F40C945D1E4CF48C31910509F4EF
:102BA00028C64D9709F42AC60C94512E8B359105F1
:102BB00011F40C94081E8C35910511F40C940D1E23
:102BC0008A35910511F00C94512E109201050C9448
:102BD000512E80917D0281110C94582E0C94512E0F
:102BE00020917D02222311F40C94512E11E00297C2
:102BF00009F010E00E9430E282E50E940D37882340
:102C000009F45CC10E94A7366B017C014090C81298
:102C10005090C9126090CA127090CB122091CC12C1
:102C20003091CD124091CE125091CF1223962CAFFD
:102C30003DAF4EAF5FAF23978091EC129091ED12B4
:102C4000A091EE12B091EF1227968CAF9DAFAEAF70
:102C5000BFAF27972091F0123091F1124091F212FC
:102C60005091F3122B962CAF3DAF4EAF5FAF2B9729
:102C700020E030E0A901C701B6010F94F90F8823C5
:102C800009F453C5A301920127966CAD7DAD8EADBD
:102C90009FAD27970F94F90F811111C023962CAD8A
:102CA0003DAD4EAD5FAD23972B966CAD7DAD8EAD3A
:102CB0009FAD2B970F94F90F882309F436C520E0B8
:102CC00030E0A901C701B6010F94F90F881F8827CA
:102CD000881F18130BC080E090E0A0E8BFE36B965C
:102CE0008CAF9DAFAEAFBFAF6B970AC020E030E0B6
:102CF00040E85FEB6B962CAF3DAF4EAF5FAF6B978D
:102D0000A301920127966CAD7DAD8EAD9FAD279747
:102D10000F94621463966CAF7DAF8EAF9FAF6397D5
:102D200023962CAD3DAD4EAD5FAD23972B966CAD8C
:102D30007DAD8EAD9FAD2B970F94621467966CAFEF
:102D40007DAF8EAF9FAF679763962CAD3DAD4EAD17
:102D50005FAD6397CA01B9010F945E104B015C012E
:102D600067962CAD3DAD4EAD5FAD6797CA01B90119
:102D70000F945E109B01AC01C501B4010F94631464
:102D80000F94CE162F966CAF7DAF8EAF9FAF2F975F
:102D900020E030E040E05FE30F945E104B015C0107
:102DA000A7019601C701B6010F945E106B017C016B
:102DB000A5019401C501B4010F945E109B01AC0103
:102DC000C701B6010F9462140F94CE169B01AC019B
:102DD0006B966CAD7DAD8EAD9FAD6B970F945E1015
:102DE0004B015C0127962CAD3DAD4EAD5FAD2797F5
:102DF000C301B2010F94631420E030E040E05FE3D0
:102E00000F945E106B017C0167966CAD7DAD8EAD4D
:102E10009FAD679790582F962CAD3DAD4EAD5FADF1
:102E20002F970F943F159B01AC01C501B4010F947E
:102E30005E109B01AC01C701B6010F946314A3019E
:102E400092010F9462146B017C012B962CAD3DAD69
:102E50004EAD5FAD2B9723966CAD7DAD8EAD9FAD26
:102E600023970F94631420E030E040E05FE30F9479
:102E70005E102B013C012F962CAD3DAD4EAD5FADEC
:102E80002F9763966CAD7DAD8EAD9FAD63970F941C
:102E90003F159B01AC01C501B4010F945E109B016D
:102EA000AC01C301B2010F94631423962CAD3DAD68
:102EB0004EAD5FAD23970F94621414C089E40E9455
:102EC0000D37882329F00E94A7366B017C0103C0CF
:102ED000C12CD12C76018AE40E940D378823F9F0A9
:102EE0000E94A7362B966CAF7DAF8EAF9FAF2B970E
:102EF00020E030E0A901C701B6010F94F90F81115C
:102F00001EC020E030E0A9012B966CAD7DAD8EADEA
:102F10009FAD2B970F94F90F811111C006C420E0CB
:102F200030E0A901C701B6010F94F90F882309F415
:102F3000FCC32B961CAE1DAE1EAE1FAE2B97D70149
:102F4000C601B05823968CAF9DAFAEAFBFAF2397ED
:102F50002B962CAD3DAD4EAD5FAD2B9750582796BF
:102F60002CAF3DAF4EAF5FAF27979C01AD01BC01C9
:102F7000CD010F945E104B015C0127962CAD3DAD49
:102F80004EAD5FAD2797CA01B9010F945E109B014A
:102F9000AC01C501B4010F9463140F94CE16AB9627
:102FA0006CAF7DAF8EAF9FAFAB978091C812909101
:102FB000C912A091CA12B091CB122F968CAF9DAFBF
:102FC000AEAFBFAF2F97A7019601BC01CD010F9403
:102FD00063146B966CAF7DAF8EAF9FAF6B972091F4
:102FE000CC123091CD124091CE125091CF126796F3
:102FF0002CAF3DAF4EAF5FAF67972B962CAD3DAD7D
:103000004EAD5FAD2B9767966CAD7DAD8EAD9FAD30
:1030100067970F9463146F966CAF7DAF8EAF9FAFC1
:103020006F978091EC129091ED12A091EE12B091F9
:10303000EF12A3968CAF9DAFAEAFBFAFA3976B96C9
:103040002CAD3DAD4EAD5FAD6B97BC01CD010F9486
:1030500062146B017C012091F0123091F1124091C9
:10306000F2125091F312A7962CAF3DAF4EAF5FAF67
:10307000A7976F962CAD3DAD4EAD5FAD6F97A79600
:103080006CAD7DAD8EAD9FADA7970F9462144B01D3
:103090005C018091D0129091D112A091D212B09186
:1030A000D312E3968CAF9DAFAEAFBFAFE3979C0159
:1030B000AD016091F4127091F5128091F612909129
:1030C000F7120F94621463966CAF7DAF8EAF9FAF13
:1030D00063972091F8123091F9124091FA125091B1
:1030E000FB12AF962CAF3DAF4EAF5FAFAF97809165
:1030F000D4129091D512A091D612B091D712E79622
:103100008CAF9DAFAEAFBFAFE797A70196012396F7
:103110006CAD7DAD8EAD9FAD23970F945E102B01EE
:103120003C01A501940127966CAD7DAD8EAD9FADA0
:1031300027970F945E109B01AC01C301B2010F945D
:1031400063142B013C01A501940123966CAD7DAD68
:103150008EAD9FAD23970F945E104B015C01A701CC
:10316000960127966CAD7DAD8EAD9FAD27970F94E0
:103170005E109B01AC01C501B4010F946214A30160
:1031800092010F94D6146B017C0120E030E0A9017C
:103190000F94F90F87FF0AC02BED3FE049EC50E494
:1031A000C701B6010F9463146B017C01112351F028
:1031B0002BED3FE049EC50E4C701B6010F946214D7
:1031C0006B017C0120E030E0A901C701B6010F943A
:1031D000F90F811128C0A3962CAD3DAD4EAD5FAD6A
:1031E000A3972F966CAD7DAD8EAD9FAD2F970F94AD
:1031F000F90F811118C0A7962CAD3DAD4EAD5FAD56
:10320000A79767966CAD7DAD8EAD9FAD67970F9418
:10321000F90F811108C04BEDC42E4FE0D42E49ECBC
:10322000E42E40E4F42EAB962CAD3DAD4EAD5FAD3B
:10323000AB97C701B6010F945E109B01AC010F94D0
:103240005E104B015C0163962CAD3DAD4EAD5FADA4
:103250006397CA01B9010F945E109B01AC01C501CF
:10326000B4010F9463140F94CE164B015C012FE64A
:1032700032E143E85AE30F94F90F87FD52C2C501CA
:10328000B4010F94D8150F94AC151B01672B19F4DA
:1032900022242394312CB10180E090E00F94FD0FA3
:1032A0004B015C019B01AC01C701B6010F943F15B6
:1032B0002F966CAF7DAF8EAF9FAF2F97A501940176
:1032C00063966CAD7DAD8EAD9FAD63970F943F154A
:1032D000AB966CAF7DAF8EAF9FAFAB97E7962CAD43
:1032E0003DAD4EAD5FADE797AF966CAD7DAD8EADAC
:1032F0009FADAF970F946214A50194010F943F15F1
:10330000AF966CAF7DAF8EAF9FAFAF972F962CADC2
:103310003DAD4EAD5FAD2F97CA01B9010F945E1060
:1033200020E030E040E05FE30F945E109B01AC01D1
:1033300060E070E080E89FE30F946214A3966CAFA6
:103340007DAF8EAF9FAFA397E3962CAD3DAD4EAD55
:103350005FADE39729873A874B875C87E7968CAD0B
:103360009DADAEADBFADE7978D879E87AF87B88B1C
:103370006091180270911902072E000C880B990BAE
:103380000F94FF0F209135023091360240913702A1
:10339000509138020F945E102AE037ED43E25CE36F
:1033A0000F945E106BAF7CAF8DAF9EAF0E942D91DE
:1033B0009B01AC0128533F4F4F4F5F4FA7962CAF57
:1033C0003DAF4EAF5FAFA7974FAC21965FAC219753
:1033D00022966FAC229723967FAC239741E050E072
:1033E00065965FAF4EAF659759E160965FAF6097A6
:1033F0006596AEADBFAD6597A215B30509F457C18B
:103400000E9401FC0E942D91DC01CB01A7962CADFE
:103410003DAD4EAD5FADA797821B930BA40BB50BD3
:10342000B7FD10C00E942D919B01AC0128533F4F66
:103430004F4F5F4FA7962CAF3DAF4EAF5FAFA797F3
:103440000E94F3C260963FAD6097315060963FAFE7
:103450006097332309F44BC0A3962CAD3DAD4EAD20
:103460005FADA39727966CAD7DAD8EAD9FAD2797D1
:103470000F945E106B017C012F962CAD3DAD4EADCF
:103480005FAD2F97B201C3010F945E10A7019601A3
:103490000F9463146B017C01A3962CAD3DAD4EAD32
:1034A0005FADA397B201C3010F945E104B015C01A5
:1034B0002F962CAD3DAD4EAD5FAD2F9727966CADE1
:1034C0007DAD8EAD9FAD27970F945E109B01AC0133
:1034D000C501B4010F9462142B013C01C601D70150
:1034E00027968CAF9DAFAEAFBFAF279761C06596F3
:1034F0004EAD5FAD6597BA0180E090E00F94FD0F8F
:103500002F962CAD3DAD4EAD5FAD2F970F945E1055
:103510004B015C010F943C156B017C01C501B401AA
:103520000F94C4164B015C01A701960123966CAD64
:103530007DAD8EAD9FAD23970F945E102B013C01A6
:10354000A50194012B966CAD7DAD8EAD9FAD2B97F3
:103550000F945E109B01AC01C301B2010F94631480
:103560002B013C01A501940123966CAD7DAD8EAD80
:103570009FAD23970F945E104B015C01A70196014C
:103580002B966CAD7DAD8EAD9FAD2B970F945E10DD
:103590009B01AC01C501B4010F94621427966CAF76
:1035A0007DAF8EAF9FAF279759E160965FAF609771
:1035B0009201A3016B966CAD7DAD8EAD9FAD6B9707
:1035C0000F94631469837A838B839C8327962CAD35
:1035D0003DAD4EAD5FAD27976F966CAD7DAD8EADB9
:1035E0009FAD6F970F9463146D837E838F8398874D
:1035F000AB962CAD3DAD4EAD5FADAB9769857A8591
:103600008B859C850F94631469877A878B879C8749
:10361000AF962CAD3DAD4EAD5FADAF976D857E8560
:103620008F8598890F9463146D877E878F87988B19
:1036300080913402882321F0CE0101960E941DD191
:1036400089819A81AB81BC8188A399A3AAA3BBA3DA
:103650008D819E81AF81B8858CA39DA3AEA3BFA3AE
:1036600089859A85AB85BC8588A799A7AAA7BBA79A
:10367000CE0180960E942B35E12C8E01055C1F4FF8
:103680009E01235F3F4FAE01485D5F4FBE016C5D01
:103690007F4FCE0180960E942BA665968EAD9FAD82
:1036A0006597019665969FAF8EAF6597A1CE809185
:1036B000EC129091ED12A091EE12B091EF1288A34E
:1036C00099A3AAA3BBA38091F0129091F112A091AB
:1036D000F212B091F3128CA39DA3AEA3BFA380916D
:1036E000F4129091F512A091F612B091F71288A7FA
:1036F00099A7AAA7BBA7CE0180960E942B35E12CE3
:103700008E01055C1F4F28EF32E1AE01485D5F4F2F
:10371000BE016C5D7F4FCE0180960E942BA60E9459
:1037200060380E9433350C94512EE6E5F8E284911E
:103730008F010F5F1F4F882321F00E943E35F80153
:10374000F6CFEBEBF1E084918F010F5F1F4F8823E1
:1037500011F40C94512E0E943E35F801F4CF80E50F
:103760000E940D37882329F00E94DDC06B017C0187
:1037700003C0C12CD12C760183E50E940D3788232C
:1037800061F00E94A73620E030E04AE754E40F944D
:103790005E100F94AC156B017C010E9468FD809156
:1037A0003902811105C060E081ED91E00E947896B8
:1037B0000E94333580910F1290911012A091111236
:1037C000B0911212C80ED91EEA1EFB1E0E942D9146
:1037D000DC01CB018C199D09AE09BF09B7FD02C000
:1037E0000C94512E0E94F3C2F1CF0E946A380C94BF
:1037F000512E80E00E9461E40C94512E83E50E94DA
:103800000D37882321F00E948736282F01C020E041
:10381000022F10E00630110570F0E3E9F2E0849128
:103820008F010F5F1F4F882311F40C94512E0E94BB
:103830003E35F801F4CF223009F44CC028F422239D
:1038400071F0213089F1C5C1243009F4B3C108F405
:1038500049C1253009F0BDC10E948CE5BAC18091F3
:10386000D710882399F08091DC10811103C068EF94
:1038700072E002C064EF72E08BE692E00E94554D68
:103880008AE00E943E350F945807A3C1E3E7F2E0B7
:1038900084917F01BFEFEB1AFB0A882309F499C1D9
:1038A0000E943E35F701F4CF0E949F6610920102FC
:1038B000109200028091D610811103C089E592E038
:1038C00002C084E692E090930F1580930E150E943B
:1038D00096BD7FC1409100025091010257FF0EC07A
:1038E000E0E3F2E084918F010F5F1F4F882311F412
:1038F0000C94512E0E943E35F801F4CF411551052C
:1039000029F480913402809302052FC08FEF840F39
:1039100063E00F942B1780FF02C0291B922F292FE1
:10392000990F330BF901EE0FFF1FE20FF31FE80FA2
:10393000F11D87FDFA95EE0FFF1FEE0FFF1FE851F7
:10394000F04F8091D0129091D112A091D212B091EB
:10395000D31280839183A283B383809102058093E5
:103960003402493051050CF072C0842F63E00F948B
:103970002B1780FF03C022E0291B922F4091D01209
:103980005091D1126091D2127091D3124BAF5CAFB3
:103990006DAF7EAF19821A821B821C8240E050E01C
:1039A00060E870E448A359A36AA37BA3E4E08E0215
:1039B00090011124A901435A5A4E6A0154E095021C
:1039C00090011124C90187599A4E7C019E012F5FF5
:1039D0003F4FAE01405E5F4FB6010E9453EB19822C
:1039E0001A821B821C829E012F5F3F4FAE01455CF5
:1039F0005F4F6CEC72E188EC92E10E9453EBF701AF
:103A000080819181A281B3818093C8129093C91261
:103A1000A093CA12B093CB12F60180819181A2814A
:103A2000B3818093CC129093CD12A093CE12B09319
:103A3000CF121092D6101092340280910002909111
:103A4000010201969093010280930002C2C080E0BF
:103A500090E0A0E8B0E48093D0129093D112A093AC
:103A6000D212B093D3120E94EBBC0E9468FD8FEF7C
:103A70009FEF9093010280930002ECE1F2E08491C9
:103A80007F012FEFE21AF20A882321F00E943E35CF
:103A9000F701F5CF83E992E09A83898384E6E82EE3
:103AA000F12CF9A2E8A2BE016F5F7F4FCE01809694
:103AB0000E9472F28AEB92E09A838983F9A2E8A2CB
:103AC000BE016F5F7F4FCE0180960E9472F281E04F
:103AD0008093D7100E9461E481E00E9446E4109236
:103AE000D61077C088E50E940D378823B1F00E9478
:103AF0007736FF24FA94F60E32E03F15A8F4E5E09D
:103B0000F2E084918F010F5F1F4F882311F40C9412
:103B1000512E0E943E35F801F4CF88E50E943E35D3
:103B20000F940C080C94512E89E50E940D378823C0
:103B3000B1F00E947736EE24EA94E60E42E04E158C
:103B4000A8F4EEEEF1E084918F010F5F1F4F882300
:103B500011F40C94512E0E943E35F801F4CF89E502
:103B60000E943E350F940C080C94512E8AE50E9459
:103B70000D378823C1F00E94A7362F2D30E0F901C0
:103B8000EE0FFF1FE20FF31FEE0DF11DE7FCFA959C
:103B9000EE0FFF1FEE0FFF1FE851F04F60837183A0
:103BA0008283938316C08AE50E943E350F940C08E9
:103BB0000C94512E8AE50E940D378823A1F30E94B0
:103BC000A7366093D8107093D9108093DA10909331
:103BD000DB100150110902301105B0F460910002B0
:103BE000709101026A30710514F069E070E08FEDA8
:103BF00091E00E943C4D69E070E08AED91E00E9406
:103C00003C4D8AE00E943E350E94C6850C94512EA0
:103C100081E0809301050C94512E0E9468FD72E8AA
:103C2000272E72E0372EE8ECEE2EE2E1FE2E00E0C9
:103C3000D12C10E0D1018D911D010E940D378823F8
:103C400059F10E94A7362B013C01F70120813181F7
:103C5000428153810F9462144B015C012DEB37E3D9
:103C600046E855EB0F94891687FD0AC02DEB37E324
:103C700046E855E3C501B4010F94F90F181664F432
:103C8000133019F0DD24D39401C001E0D7014D9227
:103C90005D926D927C9213971F5FB4E0EB0EF11C66
:103CA000143041F6DD2019F00E9496C0ADCF0023FC
:103CB00009F4AACF0E948EE9A7CF80917D028823C4
:103CC00011F40C94512E89E40E940D37F82E8823AC
:103CD00021F00E947736062F01C000E08AE40E949E
:103CE0000D37E82E882331F00E947736162FF11019
:103CF00004C00AC010E0FF20B1F0033010F40C94AF
:103D00002033EAEAF2E003C01330D8F70CC0849104
:103D10008F010F5F1F4F882311F40C94512E0E94C6
:103D20003E35F801F4CF0E941937FF2091F024E0CE
:103D30000202F0011124E759FA4E80819181A2819B
:103D4000B3818093EC129093ED12A093EE12B09396
:103D5000EF12EE2091F034E01302F0011124E35A47
:103D6000FA4E80819181A281B3818093F012909369
:103D7000F112A093F212B093F31280E50E940D3776
:103D8000882319F00E94983603C080E50E94DE3631
:103D900086E40E940D378823D9F00E94A7366B0174
:103DA0007C0120E030E0A9010F948916181684F4F4
:103DB00020E030E040E752E4C701B6010F943F1520
:103DC00060933502709336028093370290933802E5
:103DD0000E942FC60C94512E8091E5189091E61800
:103DE0008237910509F4F5C70CF0F2C08B349105C8
:103DF00009F4D7C40CF076C08831910509F4C0C22B
:103E0000ECF58231910509F415C7FCF497FF02C067
:103E10000C94512E823091050CF4CAC1419711F0D7
:103E20000C94512E60E087EF92E00E9478964298C1
:103E3000179815982E989FB7F89480910B018D7F55
:103E400080930B019FBF0C94512E8531910509F48D
:103E50007CC23CF4449711F00C94512EEFE0F3E057
:103E600031C28631910509F474C2479711F00C9460
:103E7000512EE091E318F091E41875C28E3191054E
:103E800009F4A3C2C4F48A31910509F48CC20CF47C
:103E900082C28B31910509F494C24C9711F00C94B5
:103EA000512E40E060E08091E3189091E4180E9468
:103EB00081EE0C94512E8032910509F49DC30CF4CF
:103EC000E7C38A32910509F40FC4C19711F00C942D
:103ED000512EF090FC0481E0F826F092FC04ECEA0C
:103EE000F3E042C48836910509F47BC50CF048C064
:103EF0008235910509F495C654F58D34910509F480
:103F00005AC40CF452C48E34910509F458C4813556
:103F1000910511F00C94512E0E9486F60E9468FDC6
:103F20000E949AC2109266181092651868EE73E0AB
:103F300080E090E00E9481950E9468FD0E9477BD1C
:103F400060E082E794E00E9478960C94512E8435CC
:103F5000910509F46FC60CF468C68535910509F41E
:103F6000A0C68C35910511F00C94512E32E8C32E69
:103F700032E0D32E48EDE42E42E1F42E10E0AAC642
:103F80008D36910509F4DCC59CF48A36910509F457
:103F900011C60CF491C58B36910509F430C68C36E8
:103FA000910511F00C94512E109211020C94512E87
:103FB0008F36910509F42CC50CF417C5803791058F
:103FC00009F42AC58137910509F42EC50C94512EA8
:103FD0008C3D910511F40C944E280CF074C0833A7A
:103FE000910511F40C94F427C4F58837910509F470
:103FF000F2C7CCF48537910509F441C744F48337FF
:10400000910511F00C94512EE3E3F5E0E7C68637F5
:10401000910509F43CC78737910511F00C94512E96
:10402000EFE0F6E076C78C38910509F429C55CF419
:104030008937910511F00C94512E1092761510923B
:1040400075150C94512E8139910509F4CAC78B3925
:10405000910509F44EC50C94512E893C910511F43B
:104060000C944528ACF4853A910511F40C9442283F
:1040700014F40C943F288E3B910509F47FC5883CCD
:10408000910511F00C94512E0E9439850C94512EFB
:104090008C3C910509F4FCC74CF48B3C910511F064
:1040A0000C94512E0E94F2840C94512E8D3C91055B
:1040B00009F4F1C7833D910511F00C94512E0E9433
:1040C000A4830C94512E883941E0940709F46CC004
:1040D000C4F58E32A1E09A0709F4F6C7E4F4823EF3
:1040E000910509F4E8C74CF48D3D910511F00C944D
:1040F000512E0E945A830C94512E8C32E1E09E077F
:1041000009F4DCC78D32914011F00C94512E0E94BD
:104110002D820C94512E803321E0920709F4D1C7EF
:104120000CF4D5C7833641E0940711F40C94A12D0B
:104130008039914011F00C94512E0E9468FD0C942E
:10414000512E843FA1E09A0711F40C94982D9CF411
:104150008A39E1E09E0709F463C414F1843A21E04E
:10416000920711F40C94E42B853A914011F40C94CD
:10417000BA2C0C94512E863F41E0940711F40C9414
:104180009E2D14F40C949B2D803AA3E09A0709F419
:1041900072C2873E934011F40C94DD2D0C94512E85
:1041A0000FE013E00C94D62B00E313E00C94C72B24
:1041B000A090E318B090E41880E50E940D378823A2
:1041C00059F00E94DDC06B017C0111E0672B682B68
:1041D000692B31F410E004C010E0C12CD12C760121
:1041E00083E50E940D378823F1F00E94A73620E076
:1041F00030E04AE754E40F945E100F94AC156B0165
:104200007C01111112C0672B682B692B71F4A1146A
:10421000B10459F0F5018081882339F061E0C501CE
:104220000E94979607C0112391F360E084EE92E01C
:104230000E94789683E090E0909307128093061294
:1042400081E080931F100E9468FD0E943335C114E5
:10425000D104E104F104E9F080910F129091101261
:10426000A0911112B0911212C80ED91EEA1EFB1EA7
:104270000E942D91DC01CB018C199D09AE09BF096B
:10428000B7FF1CC080911F108823C1F00E94F3C2A9
:10429000EFCF80911F10882319F00E94F3C2F9CF4D
:1042A000809195159091961560E0029719F488ED2C
:1042B00092E002C089EC92E00E94789610921F1062
:1042C0000C94512E84918F010F5F1F4F882321F092
:1042D0000E943E35F801F6CF10924618109245180C
:1042E00040E050E0BA0189EF95E10E948D568BE1E4
:1042F000E9EFF5E1DE01159601900D928A95E1F75F
:104300008091F7159091F8159C838B8380EE92E055
:104310009A83898340E050E0BE016F5F7F4F80EC5D
:1043200094E00E9437ECCE0101960E9489C2E0E041
:10433000F3E084918F010F5F1F4F882311F40C94D9
:10434000512E0E943E35F801F4CF0E94ABE70C9449
:10435000512E1092C0151092C1150C94512E80321E
:1043600009F41082319680818111F9CF40E061E03B
:104370008091E3189091E4180E9481EE0C94512EE4
:104380008091C115882319F081E08093C0150E94A7
:104390007CF70C94512E1092C01585E995E10E948E
:1043A00008FD0C94512E8091C115882311F40C94B2
:1043B000512E83E50E940D3781110C945D2E0C94D3
:1043C000512E0E94D8F70C94512E8091C11588234C
:1043D00011F40C94512E83E997E10E944C5683E925
:1043E00097E10E94A3CA1092BF151092BE15E090EB
:1043F000E318F090E4188091C115882311F40C940F
:10440000512E0E9476EE1D8218861C821B8280EE41
:1044100092E09A83898385EF95E1909315168093B6
:104420001416D7018C918F3209F067C06FE270E0EB
:10443000C7010F94B3178C010F5F1F4FFE01319618
:104440004F010115110509F45EC06FE270E0C8016B
:104450000F94B3176C01009709F456C00817190799
:1044600008F052C05C01A01AB10AA501B801CE0142
:1044700080960F94DC17E0E2F0E0EC0FFD1FEA0DF0
:10448000FB1D10828E01005E1F4FD8018D918D01A2
:10449000882319F00E943E35F8CF8AE00E943E350D
:1044A00060911416709115166115710511F06C5F0D
:1044B0007F4F21E0AE01405E5F4FCE0105960E9426
:1044C0002FD0811112C0BE01605E7F4F86E493E061
:1044D0000E94554D8EE20E943E358AE00E943E3594
:1044E000C4010E9489C20C94512E9092151680929C
:1044F000141686010F5F1F4FA4CF86E196E19093BB
:104500001516809314168701609114167091151674
:104510006115710511F06C5F7F4F18A21BA222E09C
:10452000A801CE0180960E942FD0811102C0F12CEB
:104530001EC0CE0180960E94CFF28823C1F36CA5E5
:104540007DA58EA59FA541E00E943B54882379F369
:10455000E8A9B0E2EB9FF0011124EE5FFC4E30972A
:1045600031F385EE80831BA20E94FB53F82ECE010F
:1045700080960E94ADC1FF2009F1E0E2F3E0849152
:104580007F012FEFE21AF20A882321F00E943E35C4
:10459000F701F5CFD8018D918D01882319F00E9484
:1045A0003E35F8CF8AE00E943E351092F115109208
:1045B000F2151092F3151092F41518C0EEE2F3E024
:1045C00084917F01BFEFEB1AFB0A882321F00E9440
:1045D0003E35F701F5CFF80181918F01882319F05D
:1045E0000E943E35F8CF8EE20E943E35CE01019604
:1045F0000E9489C20C94512E8091C01581110E9495
:1046000068FD8091C115882311F40C94512E80E52A
:104610000E940D37882319F00E94983603C080E568
:104620000E94DE36182F482F61E08091E3189091A8
:10463000E4180E9481EE83E50E940D37882381F003
:104640000E947736AB01BC014093F1155093F215EF
:104650006093F3157093F41583E997E10E948D56EA
:104660008091C115882319F081E08093C015111144
:104670000C94512E8CCE8091E3189091E41821E097
:104680002093BF1540E060E00E9481EE0C94512E13
:1046900085E995E10E94DBFC68A379A38AA39BA32B
:1046A000BE016F5F7F4FCE0180960E94EDC060E03B
:1046B000CE0101960E949796EEE7F8E284918F0171
:1046C0000F5F1F4F882321F00E943E35F801F6CF7F
:1046D000BE016F5F7F4F8AE593E00E94554D8AE0EF
:1046E0000E943E350C94512E83E50E940D3788239D
:1046F00011F40C94512E0E948736E82E80E50E941A
:104700000D37882341F00E9477368B0177FF02C076
:104710000C94512E02C006E010E0902FE7E6F3E083
:104720008BE28E0F2491921729F031968E13FACFD7
:104730000C946E2EE6E5F8E284918F010F5F1F4F17
:10474000882321F00E943E35F801F6CFE2E9F3E03C
:1047500084918F010F5F1F4F882311F40C94512E09
:104760000E943E35F801F4CF84918F010F5F1F4FF7
:10477000882321F00E943E35F801F6CFF11003C0E6
:10478000E6EAF3E002C0E1EAF3E084918F010F5F13
:104790001F4F882311F40C94512E0E943E35F801CE
:1047A000F4CF0E947CF70C94512E85E995E10E948C
:1047B00008FD0C94512E0E9424F10C94512E83E597
:1047C0000E940D37882359F00E9477366E347105A8
:1047D00031F485E995E10E944EA40C94512E18A263
:1047E00019A21AA21BA2E7E1F4E084918F010F5FE6
:1047F0001F4F882321F00E943E35F801F6CFEEE0EE
:10480000F4E084918F010F5F1F4F882321F00E94F5
:104810003E35F801F6CF6091A3157091A41580E0A4
:1048200090E04AE00E944535E1E0F4E084918F0198
:104830000F5F1F4F882321F00E943E35F801F6CF0D
:104840006091A5157091A61580E090E04AE00E9465
:104850004535E6EFF3E084918F010F5F1F4F88230A
:1048600021F00E943E35F801F6CF6091A3157091BA
:10487000A4158091A5159091A615681B790B8091C0
:10488000951590919615019721E030E0029710F070
:1048900020E030E0621B730B80E090E04AE00E9471
:1048A00045358AE00E943E35EEEEF3E084918F01BB
:1048B0000F5F1F4F882321F00E943E35F801F6CF8D
:1048C0008091A7159091A815A091A915B091AA154E
:1048D00088A399A3AAA3BBA3BE016F5F7F4FCE019C
:1048E00080960E94EDC0E1EEF3E084918F010F5FAE
:1048F0001F4F811106C09E012F5F3F4F7901890133
:1049000004C00E943E35F801F0CFD8018D918D0191
:10491000882319F00E943E35F8CF8091AB15909115
:10492000AC15A091AD15B091AE1588A399A3AAA31B
:10493000BBA3BE016F5F7F4FCE0180960E94EDC08A
:10494000E1EDF3E084918F010F5F1F4F882321F089
:104950000E943E35F801F6CFF70181917F0188234F
:1049600019F00E943E35F8CF8AE00E943E35E9EC0E
:10497000F3E084918F010F5F1F4F882321F00E9485
:104980003E35F801F6CFE9EBF3E084918F010F5F3C
:104990001F4F882321F00E943E35F801F6CF20E01A
:1049A00030E04AE754E46091AF157091B015809102
:1049B000B1159091B2150F943F1542E00E94C53594
:1049C000E7EBF3E084918F010F5F1F4F882321F005
:1049D0000E943E35F801F6CF8AE00E943E350C94E5
:1049E000512E0E947EE00C94512E8EE40E940D37D1
:1049F000882311F40C94512E0E9477366093FE1296
:104A00007093FF1280930013909301130C94512E16
:104A10000E9407E00C94512E8FE194E00E94A3C203
:104A20000E9417810C94512E83E50E940D37882334
:104A300069F00E9487368D3320F480932F020C9406
:104A4000512E8CE380932F020C94512EEEE7F8E266
:104A500084918F010F5F1F4F882321F00E943E3504
:104A6000F801F6CF40912F0250E060E070E088E25C
:104A700094E00E94E54C8AE00E943E350C94512E51
:104A80008091831083FF02C00C94512E83E50E9415
:104A90000D37882311F40C94512E0E94A7360F94E1
:104AA000A7156739710514F066E970E0709368180E
:104AB000609367180C94512E89E690E00E9437BDF0
:104AC000811111C0EFE2F4E084918F010F5F1F4F5D
:104AD000882321F00E943E35F801F6CF0E948EF423
:104AE0008AE00E943E3510920712109206120C9432
:104AF000263383E50E940D37882311F40C94512E40
:104B00000E948736182F8D3308F01CE310930C1287
:104B10000E942D916B017C01212F30E0A8EEB3E0C3
:104B20000F945314C60ED71EE81EF91EC092081229
:104B3000D0920912E0920A12F0920B120C94512EAC
:104B40008DE690E00E9437BD81110C94512E80912A
:104B5000831083FF02C00C94512E83E50E940D3711
:104B600028968FAF289781110C94832E82E50E949E
:104B70000D3781110C94832E0C94512E809183104B
:104B800083FF02C00C94512E60E085E694E00E9401
:104B9000789683E50E940D3728968FAF289781116C
:104BA0000C940D3082E50E940D3781110C940D306C
:104BB0000C94512E80E50E940D37811108C083E5C9
:104BC0000E940D37811109C03FEF20E00AC00E940A
:104BD000873681110C94512EF2CF0E947736362FF2
:104BE000272F832F922F8F3F910519F010F08FEF11
:104BF00090E090936618809365180C94512E80E590
:104C00000E940D37811106C0109266181092651827
:104C10000C94512E0E947736672B11F00C94512E74
:104C2000F3CF109200050C94512E81E08093000583
:104C30000C94512E83E50E940D378823A1F00E9429
:104C4000A73620E030E04AE754E40F945E100F945A
:104C5000AC156093300270933102809332029093CE
:104C600033020C94512E88E50E94DE3681110C949B
:104C7000683189E50E94DE3681110C9468318AE53D
:104C80000E94DE3681110C94683185E40E94DE3684
:104C900081110C9468310E9468FD0E949AC20C94A4
:104CA000512E83E50E94DE36882309F4FAC70E945C
:104CB000A73620E030E04AE754E40F945E100F94EA
:104CC000AC15609313127093141280931512909385
:104CD0001612E7C7D6018D916D010E94DE3688233A
:104CE00009F46DC0133009F063C00E94A7364B0170
:104CF0005C0120E030E040EA51E40F94F90F87FFB7
:104D00004EC0A50194016091E4127091E51280916A
:104D1000E6129091E7120F943F152B013C019B0185
:104D2000AC016091991270919A1280919B129091AE
:104D30009C120F945E106093991270939A12809354
:104D40009B1290939C12A301920160916D1270913D
:104D50006E1280916F12909170120F945E1060939A
:104D60006D1270936E1280936F1290937012609117
:104D700090107091911080919210909193100F94D7
:104D8000FD0FA30192010F945E100F94AC15609378
:104D90009010709391108093921090939310809242
:104DA000E4129092E512A092E612B092E71207C0C8
:104DB0000E94A736F70160837183828393831F5F0C
:104DC000F4E0EF0EF11C143009F084CF0E94C0A56E
:104DD00068C70E9468FD0E94C68563C784918F01E1
:104DE0000F5F1F4F882321F00E943E35F801F6CF58
:104DF00060E083E295E00E94828561E08CE195E0CD
:104E00000E94828561E081E195E00E94828561E0F7
:104E100081E095E00E94828560E088EF94E00E9446
:104E2000828561E08EEE94E00E94828560E084EEEF
:104E300094E00E94828560E08CED94E00E9482857F
:104E400061E08EEC94E00E94828560E080EC94E06A
:104E50000E94828560E081EB94E00E94828561E09F
:104E600083EA94E00E94828561E08DE894E00E94EC
:104E7000828560E08CE794E00E94828512C760E042
:104E80008091E3189091E4180E9497960AC785E4F0
:104E90000E940D37882319F00E94983603C085E4DC
:104EA0000E94DE36882361F0EEE7F8E284918F01FC
:104EB0000F5F1F4F882321F00E943E35F801F6CF87
:104EC00081E40E940D37882319F00E94983603C0B0
:104ED00081E40E94DE36882361F0E3EFF5E08491FF
:104EE0008F010F5F1F4F882321F00E943E35F8018C
:104EF000F6CF0091E3181091E418D8018D918D013F
:104F0000882319F00E943E35F8CF8AE00E943E3592
:104F1000C8C684918F010F5F1F4F882321F00E9424
:104F20003E35F801F6CFE7E0F6E084918F010F5FA0
:104F30001F4F882321F00E943E35F801F6CF029BD7
:104F400003C00CEF12E002C001E013E0F801819110
:104F50008F01882319F00E943E35F8CF8AE00E9425
:104F60003E35EFEFF5E084918F010F5F1F4F8823EF
:104F700021F00E943E35F801F6CF069B03C00CEFEE
:104F800012E002C001E013E0D8018D918D01882369
:104F900019F00E943E35F8CF8AE00E943E35E7EFD7
:104FA000F5E084918F010F5F1F4F882321F00E944D
:104FB0003E35F801F6CF379B03C00CEF12E002C07C
:104FC00001E013E0F80181918F01882309F49DCF5E
:104FD0000E943E35F7CF81E080937615809375155A
:104FE00060C60E9494865DC683E50E940D378823C3
:104FF00041F00E9477368B01623071050CF051C68A
:1050000002C000E010E080E50E940D37882359F0CF
:105010000E94A7366B017C0120E030E0A9010F94CB
:10502000F90F87FF04C060E070E0CB011CC02DEBDE
:1050300037E346E855EBC701B6010F94891687FDA3
:105040000AC02DEB37E346E855E3C701B6010F94DC
:10505000F90F181644F7A701960160E070E080E8A8
:105060009FE30F943F15000F111F000F111FF80150
:10507000E158FA4F608371838283938312C60E9442
:10508000D0800FC60E9493E10CC60E94148509C609
:105090000E94898406C60E941F8403C683E50E947D
:1050A0000D37882309F4FDC50E94773670931902E5
:1050B00060931802F6C50E94FF82F3C50E94CA825F
:1050C000F0C50E94AE81EDC50E945881EAC585E415
:1050D0000E940D37882321F00E9477367B0102C0A1
:1050E000E12CF12C83E40E940D37882331F00E94DB
:1050F0007736EE966FAFEE9704C025E0EE962FAFB1
:10510000EE9785E50E940D37882319F00E949836A6
:1051100003C085E50E94DE36C857DF4F8883C85834
:10512000D040F7FC07C0812C912C06E1A02E03E4AF
:10513000B02E06C0812C912C1CE8A12E12E4B12EB9
:1051400083E50E940D37882321F00E94A7364B018A
:105150005C01E114F10411F410924F180E942D919A
:105160002B013C0181E08E0D823018F40BE513E039
:105170000BC00EE613E0D8018D918D01882309F450
:10518000C4CE0E943E35F7CFF80181918F0188236C
:1051900019F00E943E35F8CFEFAE8AE00E943E350E
:1051A0000E9486F6FFADF7FF04C08FE780934E188C
:1051B00007C0EE2DEE0CFF0BE35BF74E8FE780830D
:1051C000C501B4010F94A715072E000C880B990B8D
:1051D0000F94FF0F68966FAF68976C967FAF6C97D0
:1051E000A0968FAFA097A4969FAFA49781E08093DD
:1051F0001102C058DF4F488259826A827B82C058B0
:10520000D040C757DF4F488259826A827B82C95893
:10521000D040E0961FAEE09720E4E4962FAFE497ED
:105220003CE1A8963FAFA89746E4AC964FAFAC9749
:10523000E8961FAEE897E9961FAEE997EA961FAE8B
:10524000EA97EB961FAEEB9767961CAE1DAE1EAEAF
:105250001FAE679763961CAE1DAE1EAE1FAE639762
:10526000C12CD12C7601AFE78A2E912CA12CB12C28
:105270008FE790E0A0E0B0E02B968CAF9DAFAEAF93
:10528000BFAF2B97CC57DF4F188219821A821B822F
:10529000C458D04091E0C158DF4F9883CF57D040D9
:1052A0002D961FAE1EAE2D9710E0212C312C00E064
:1052B000AFAD8A2FAA0F990BFC01E35BF74EC357E2
:1052C000DF4FF983E883CD58D040880F991F880FAE
:1052D000991F9C012D553F4EED963FAF2EAFED9798
:1052E000EE964FADEE97042E000C550BEF965FAF88
:1052F0004EAFEF9780911102882309F428C10E94D4
:105300002D9127966CAF7DAF8EAF9FAF2797809181
:105310004B18882309F4F7C00E943FF75FAD57FF91
:1053200009C01091A7102090A8103090A9100091EA
:10533000AA100DC0ED96AEADBFADED971C911196C4
:105340002C90119712963C90129713960C91212F46
:10535000322D432D502FE8966FADE897E9967FAD3B
:10536000E997EA968FADEA97EB969FADEB970F948E
:10537000F90F87FF0CC0E8961FAFE897E9962FAEAC
:10538000E997EA963FAEEA97EB960FAFEB97212F9E
:10539000322D432D502FE0966FADE097E4967FAD10
:1053A000E497A8968FADA897AC969FADAC970F9455
:1053B0008916181664F4E0961FAFE097E4962FAEB6
:1053C000E497A8963FAEA897AC960FAFAC97C1589C
:1053D000DF4FB881CF57D04068962FAD68976C9655
:1053E0003FAD6C97A0964FADA097A4965FADA497E4
:1053F000612F722D832D902FBB2309F466C00F946B
:10540000891618160CF07FC027964CAD5DAD6EADB9
:105410007FAD27974419550966097709DB01CA0151
:1054200088589341A109B109B7FD6DC02B968CAD89
:105430009DADAEADBFAD2B9788199909AA09BB09DF
:10544000EFADB595A79597958795E7FF03C0809336
:105450004E1807C0C357DF4FE881F981CD58D040BF
:105460008083CC57DF4F488359836A837B83C4583A
:10547000D0406896FFAD6897E896FFAFE8976C96C6
:105480002FAD6C97E9962FAFE997A0963FADA09707
:10549000EA963FAFEA97A4964FADA497EB964FAF2D
:1054A000EB9727968CAD9DADAEADBFAD2797C0589D
:1054B000DF4F88839983AA83BB83C058D040C158EB
:1054C000DF4F1882CF57D0401EC00F94F90F87FFCF
:1054D0001AC027968CAD9DADAEADBFAD2797C05815
:1054E000DF4F288139814A815B81C058D040821BBF
:1054F000930BA40BB50BAC01BD0148585341610996
:10550000710977FF04C720E030E040EA51E4689673
:105510006FAD68976C967FAD6C97A0968FADA09796
:10552000A4969FADA4970F9463149B01AC01612FC7
:10553000722D832D902F0F94891618167CF4E6EEA9
:10554000F6E084918F010F5F1F4F811103C00E940D
:1055500086F6A7C30E943E35F801F3CF27968CAD9F
:105560009DADAEADBFAD2797C757DF4F28813981BD
:105570004A815B81C958D040821B930BA40BB50BA9
:10558000B7FD17C00E948EF48AE00E943E35279630
:105590008CAD9DADAEADBFAD27978053984FAF4F4B
:1055A000BF4FC757DF4F88839983AA83BB83C958EE
:1055B000D04027968CAD9DADAEADBFAD2797880F7F
:1055C000991FAA1FBB1FC058DF4F288139814A810C
:1055D0005B81C058D040821B930BA40BB50B841980
:1055E0009509A609B70981389F44A241B10568F021
:1055F000E8ECF6E084918F010F5F1F4F882309F4D8
:10560000A6CF0E943E35F801F5CF2D964EAD5FAD89
:105610002D97EF968EAD9FADEF97841795070CF001
:10562000B3C0EBE6F6E084918F010F5F1F4F882334
:1056300021F00E943E35F801F6CF9FAD97FD03C0E3
:1056400000EC14E002C00BE013E0B80189E596E03D
:105650000E94554DB701A60185E596E00E941F4DB9
:105660008AE00E943E35B80183E496E00E94554DE1
:1056700063964CAD5DAD6EAD7FAD63978FE396E005
:105680000E941F4D8AE00E943E35B8018DE296E0EF
:105690000E94554D67964CAD5DAD6EAD7FAD679781
:1056A00089E296E00E941F4D8AE00E943E35C8576D
:1056B000DF4FA881C858D040AA2309F4F2C2BFAD79
:1056C000B7FF31C0C0928F18D0929018E092911815
:1056D000F09292182CEA35EC47E25EE363966CADEB
:1056E0007DAD8EAD9FAD63970F945E1060938B1868
:1056F00070938C1880938D1890938E182CEA35EC4B
:1057000047E25EE367966CAD7DAD8EAD9FAD67976A
:105710000F943F15609387187093881880938918A9
:1057200090938A18BEC2C0923A10D0923B10E09279
:105730003C10F0923D102CEA35EC47E25EE36396B4
:105740006CAD7DAD8EAD9FAD63970F945E10609391
:1057500042107093431080934410909345102CEAAC
:1057600035EC47E25EE367966CAD7DAD8EAD9FADE7
:1057700067970F943F1560933E1070933F1080938E
:105780004010909341108DC20E943975B3CDF8013D
:1057900081918F01882319F00E943E35F8CF8AE06D
:1057A0000E943E3581E080932E107BC2D8018D91FE
:1057B0008D01882319F00E943E35F8CF8AE00E94BF
:1057C0003E3510922E106DC28091C8129091C91270
:1057D000A091CA12B091CB1289839A83AB83BC8308
:1057E0008091CC129091CD12A091CE12B091CF1297
:1057F0008D839E83AF83B8878091D0129091D11210
:10580000A091D212B091D31289879A87AB87BC87B7
:1058100086E50E94DE36882391F08091D710882398
:1058200071F0E9E9F7E084918F010F5F1F4F882342
:1058300021F00E943E35F801F6CF0F9458078AE513
:105840000E94DE36882329F00E94A73640E00E949D
:105850006DE383E50E94DE36882331F00E9498369E
:10586000182F0E9446E401C010E0F090DC101111E6
:1058700003C0EEE7F8E21AC0F110FBCFE6E5F8E26C
:1058800084918F010F5F1F4F882321F00E943E35C6
:10589000F801F6CFEAE7F7E084918F010F5F1F4F21
:1058A000882339F30E943E35F801F6CF84918F01A9
:1058B0000F5F1F4F882321F00E943E35F801F6CF7D
:1058C000F11003C068EF72E002C064EF72E08CE692
:1058D00097E00E94554D8AE00E943E35EEE7F8E2DF
:1058E00084918F010F5F1F4F882321F00E943E3566
:1058F000F801F6CFEFE5F7E084918F010F5F1F4FBE
:10590000882321F00E943E35F801F6CFC090DD10CB
:10591000D090DE10E090DF10F090E01020E030E05A
:10592000A901C701B6010F94891618164CF442E07C
:10593000C701B6010E94C5358AE00E943E350CC001
:10594000EAE5F7E084918F010F5F1F4F882321F074
:105950000E943E35F801F6CF4CE050E068EC72E171
:10596000CE0101960F947F17892B09F49AC10E94EA
:10597000C68597C188E50E94DE36B82E89E40E946C
:10598000DE36A82E882319F00E9477361AC0BB2075
:10599000D1F00E94A73620E030E040E251E40F94BD
:1059A000621420E030E046E552E40F9463142AE1EB
:1059B0003FE149E15CE30F945E100F94A71563305B
:1059C00010F4F62E02C0FF24FA9489E50E94DE3618
:1059D000E82E8AE40E94DE36182F882319F00E94F0
:1059E00077361AC0EE20D1F00E94A73620E030E0D2
:1059F00040E251E40F94621420E030E046E552E4C6
:105A00000F9463142AE13FE149E15CE30F945E10D7
:105A10000F94A715633010F4062F01C00FEF8AE52D
:105A20000E94DE36C82E811105C081E50E94DE3657
:105A3000D82E01C0D12CA11001C010E0212F30E0E0
:105A4000B11002C090E001C09E2D290F311D213000
:105A5000310519F0E6E5F8E205C0C11019C0D11012
:105A600017C0F8CF84918F010F5F1F4F882321F05B
:105A70000E943E35F801F6CFEEECF7E084918F01FD
:105A80000F5F1F4F882309F40CC1F8D7F801F6CF38
:105A9000F7FE03C0E6E5F8E205C007FF15C0FACF40
:105AA000EDD7F80184918F010F5F1F4F8111F8CF5F
:105AB000EFEAF7E084918F010F5F1F4F882309F40D
:105AC000F0C0DCD7F801F6CF0E94A736A02F000F58
:105AD000BB0B0F2DFF0C110BDD2091F0F801EE0F29
