:100000000C942A150C945B150C945B150C945B15E1
:100010000C945B150C945B150C945B150C945B15A0
:100020000C945B150C945B150C945B150C945B1590
:100030000C945B150C945B150C945B150C945B1580
:100040000C945B150C942E8F0C945B150C945B1523
:100050000C945B150C945B150C94F0D80C94314502
:100060000C945B150C9458350C945B150C945B1533
:100070000C945B150C945B150C945B150C945B1540
:100080000C946AE80C945B150C945B150C945B154E
:100090000C945B150C945B150C945B150C945B1520
:1000A0000C945B150C945B150C943DE80C945B155B
:1000B0000C945B150C945B150C945B150C9410E878
:1000C0000C945B150C945B150C945B150C945B15F0
:1000D0000C945B150C945B150C945B150C945B15E0
:1000E0000C945B151E432143104314431A43584399
:1000F000254329432F43334337433D43414345433E
:1001000058434B434F4353434D4452445744614437
:100110006B44E44475447D4485448F449944A3442E
:10012000B244BC44E444C644D044DA44084AD73B11
:100130003BCE016E84BCBFFDC12F3D6C74319ABDB6
:1001400056833DDA3D00C77F11BED9E4BB4C3E91DA
:100150006BAAAABE000000803F05A84CCDB2D44EC9
:10016000B93836A9020C50B9918688083CA6AAAACB
:100170002ABE000000803F000D9450070D940C0330
:100180004E414E494E495459494E46CDCCCC3D0A7C
:10019000D7233C17B7D13877CC2B329595E6241F5F
:1001A000B14F0A000020410000C84200401C462018
:1001B000BCBE4CCA1B0E5AAEC59D74434F4D4D5527
:1001C0004E49434154494F4E0044525952554E00F6
:1001D0004552524F525300494E464F004543484FF7
:1001E0000047322F47332062616420706172616D75
:1001F00065746572730A00536C6565702E2E2E004F
:10020000473238205A20466F7262696464656E0A0C
:1002100000473238205A20466F7262696464656E06
:1002200000205A3A200020593A20004265642058A4
:100230003A20004D65736820706F696E74206361A9
:100240006E6E6F74206265207265736F6C76656484
:100250000A00526573756D696E67207072696E74FD
:10026000004131304D2072656164792E00436C6924
:10027000636B20746F20726573756D652E2E2E0072
:100280004E6F206D6F76652E00456E642066696C3A
:1002900065206C6973740A00426567696E2066693F
:1002A0006C65206C6973740A002569730025696D9B
:1002B00020256973002569682025696D20256973EB
:1002C00000256964202569682025696D20256973EA
:1002D0000025697920256964202569682025696DD4
:1002E00020256973005072696E742074696D653AD7
:1002F0002000000125272318FF1F211D1CFF1917AF
:100300001B1EFFFF0C0409FFFFFF2E2C0CFFFF310B
:100310002F3004400AFF41FFFFFFFFFFFF50726FC5
:100320007465637465642050696E0A006F6E2E0AEE
:10033000006F66662E0A0047323620446562756794
:100340002000452569202573004131304D2072651C
:100350006164792E00DC01D701D001C901BB016FB6
:1003600066660044454255473A004B494C4C45446B
:100370002E20004D3131332053006F6B00486561F2
:1003800074696E6720646F6E652E0020573A0045D1
:100390002569202573004131304D207265616479F3
:1003A0002E0042656420646F6E652E0020573A006F
:1003B0004265642048656174696E672E0041313082
:1003C0004D204F66662E00454D455247454E4359D8
:1003D0005F50415253455200434153455F4C49479A
:1003E00048545F4252494748544E45535300544F76
:1003F00047474C455F4C494748545300534F465478
:10040000574152455F504F574552004255494C4461
:100410005F50455243454E54004C4556454C494E5D
:10042000475F44415441005A5F50524F424500419A
:1004300055544F4C4556454C005052494E545F4A16
:100440004F420050524F4752455353004155544F6D
:100450005245504F52545F54454D5000564F4C55E5
:100460004D455452494300454550524F4D00534568
:100470005249414C5F584F4E5F584F4646004649DF
:10048000524D574152455F4E414D453A4D61726C58
:10049000696E20312E312E392028476974687562C3
:1004A0002920534F555243455F434F44455F5552B2
:1004B0004C3A68747470733A2F2F67697468756268
:1004C0002E636F6D2F4D61726C696E4669726D7728
:1004D0006172652F4D61726C696E2050524F544F9E
:1004E000434F4C5F56455253494F4E3A312E3020C0
:1004F0004D414348494E455F545950453A4131308A
:100500004D2045585452554445525F434F554E5423
:100510003A3120555549443A636564653261326623
:100520002D343161322D343734382D396231322D4A
:100530006335356336326633363766660A002F2FE9
:1005400020007A5F6D696E3A2000795F6D696E3ABE
:100550002000785F6D696E3A20005265706F72748A
:10056000696E6720656E6473746F70207374617454
:1005700075730A004D31343520533C696E646578DB
:100580003E206F7574206F662072616E676520284B
:10059000302D31290A005761726E696E673A204D1D
:1005A000697820666163746F7273206D757374204F
:1005B00061646420757020746F20312E302E2053BA
:1005C00063616C696E672E0A004B642000236465CA
:1005D00066696E65202044454641554C545F004B8A
:1005E00069200023646566696E65202044454641A4
:1005F000554C545F004B70200023646566696E653E
:10060000202044454641554C545F00504944204108
:1006100075746F74756E652066696E69736865645C
:10062000212050757420746865206C617374204BB0
:10063000702C204B6920616E64204B6420636F6EC8
:100640007374616E74732066726F6D2062656C6F77
:100650007720696E746F20436F6E6669677572618B
:1006600074696F6E2E680A00504944204175746F9A
:1006700074756E65206661696C6564212074696DAE
:10068000656F75740A00504944204175746F747524
:100690006E65206661696C6564212054656D7065C6
:1006A00072617475726520746F6F20686967680A7B
:1006B00000204B643A2000204B693A2000204B7008
:1006C0003A20000A20436C617373696320504944E7
:1006D000200A002054753A2000204B753A20002053
:1006E0006D61783A2000206D696E3A200020643AEE
:1006F000200020626961733A20004F66660A004656
:1007000061646520486569676874200042656420FB
:100710004C6576656C696E6720004661696C65643E
:1007200020746F20656E61626C6520426564204CA8
:100730006576656C696E670A004D65736820706F39
:10074000696E742063616E6E6F74206265207265DD
:10075000736F6C7665640A004D34323120696E63C4
:100760006F727265637420706172616D6574657219
:100770002075736167650A003A2000207A5F6D6911
:100780006E3A20202D3230207A5F6D61783A202039
:1007900032300A0050726F6265205A204F666673CD
:1007A00065740043617365206C696768743A200062
:1007B000556E6B6E6F776E20636F6D6D616E643A10
:1007C0002022004B494C4C45442E2000202D20492E
:1007D0006E76616C696420657874727564657220E8
:1007E0006E756D62657220210A002D2D2D2D2D2D27
:1007F000007C4D61726C696E7C002D2D2D2D2D2D90
:1008000000687474703A2F2F6D61726C696E667730
:100810002E6F726700687474703A2F2F6D61726C5E
:10082000696E66772E6F72670020312E312E390087
:100830007265636F766572792564002020506C6163
:100840006E6E657242756666657242797465733A5A
:1008500020002046726565204D656D6F72793A20E3
:1008600000436F6D70696C65643A204F637420318A
:100870003120323031380A00207C20417574686F95
:10088000723A20286E6F6E652C2064656661756C07
:100890007420636F6E666967290A00323031382D23
:1008A00031302D31322031323A303000204C6173FA
:1008B0007420557064617465643A2000312E312EC5
:1008C000390A004D61726C696E0020536F6674774F
:1008D0006172652052657365740A00205761746304
:1008E00068646F672052657365740A002042726FF6
:1008F000776E206F75742052657365740A00204509
:10090000787465726E616C2052657365740A00506C
:100910006F77657255700A0073746172740A0065AE
:1009200072726F722077726974696E6720746F20BB
:1009300066696C650A00456E6473746F7073202578
:100940006320256320256320256300205A3A002078
:10095000593A0020583A00656E6473746F707320C2
:100960006869743A200047323820580047636F2086
:100970003A20004732382059004732382058004D7D
:1009800031303920543020532575004D3139302015
:1009900053257500446F6E6520736176696E67201C
:1009A00066696C652E0A004D3239004D657368200A
:1009B00056616C69646174696F6E2053746F7070F6
:1009C00065642E00696E206D6F76655F746F2829EF
:1009D00020666565645F76616C756520666F722060
:1009E00058593A004C656176696E67204732360087
:1009F0004732362048656174696E67204E6F7A7A97
:100A00006C652E004732362048656174696E672038
:100A10004265642E00446F6E65205072696D696E88
:100A20006700446F6E65205072696D696E6700469D
:100A300069786564204C656E677468205072696DD2
:100A4000652E00557365722D436F6E74726F6C6CFA
:100A50006564205072696D65002C2065793D002920
:100A6000202D3E202865783D002C2073793D002004
:100A7000436F6E6E656374696E6720776974682072
:100A8000766572746963616C206C696E6520287389
:100A9000783D002C2065793D0029202D3E202865D9
:100AA000783D002C2073793D0020436F6E6E6563A6
:100AB00074696E67207769746820686F72697A6FED
:100AC0006E74616C206C696E65202873783D004CF3
:100AD000656176696E6720473236002C2079693D62
:100AE00000202020446F696E6720636972636C6523
:100AF0002061743A202878693D003F53706563692E
:100B00006669656420582C5920636F6F7264696E42
:100B1000617465206F7574206F6620626F756E64F6
:100B2000732E0A003F285229657065617420766132
:100B30006C7565206E6F7420706C61757369626C82
:100B4000653B206D757374206265206174206C654F
:100B500061737420312E0A003F53706563696669C2
:100B60006564206E6F7A7A6C652074656D7065724D
:100B70006174757265206E6F7420706C6175736935
:100B8000626C652E0A003F5370656369666965642F
:100B90002066696C616D656E742073697A65206E7C
:100BA0006F7420706C61757369626C652E0A003F0A
:100BB000537065636966696564207072696D65204C
:100BC0006C656E677468206E6F7420706C617573ED
:100BD00069626C652E0A003F5370656369666965DA
:100BE00064206E6F7A7A6C652073697A65206E6F07
:100BF0007420706C61757369626C652E0A003F53D6
:100C000070656369666965642052657472616374B6
:100C1000696F6E204D756C7469706C696572206EB9
:100C20006F7420706C61757369626C652E0A003F89
:100C300052657472616374696F6E204D756C74696E
:100C4000706C696572206D757374206265207370B5
:100C5000656369666965642E0A003F537065636960
:100C600066696564206C617965722068656967688A
:100C700074206E6F7420706C61757369626C652E80
:100C80000A003F5370656369666965642062656444
:100C90002074656D7065726174757265206E6F7415
:100CA00020706C61757369626C652E0A004732367C
:100CB00020636F6D6D616E6420737461727465641E
:100CC0002E2057616974696E6720666F72206865AF
:100CD000617465722873292E0A0043617264207260
:100CE000656D6F766564004361726420696E73653B
:100CF000727465640000002100240027002A002D82
:100D0000003000330001010000040107010A010066
:100D1000002200250028002B002E003100340002A4
:100D2000010000050108010B01000020002300263E
:100D30000029002C002F00320000010000030106F2
:100D40000109010505050507050808080802020252
:100D5000020A0A0808040404040101010101010156
:100D6000010303030303030303040707070C0C0C2D
:100D70000C0C0C0C0C020202020606060606060605
:100D8000060B0B0B0B0B0B0B0B01021020200808A2
:100D900010204010204080020102010804020101DD
:100DA00002040810204080804020100804020180C6
:100DB000040201804020100804020108040201011D
:100DC0000204081020408001020408102040800026
:100DD000000A0B02090C0D0E0807030401000000B5
:100DE0000000000000000000000000000000000003
:100DF00000000000000000000000001211100000C0
:100E000000000000000000000000000000000000E2
:100E1000000000000056652D6A65726B0056652D56
:100E20006A65726B0056652D6A65726B00567A2D85
:100E30006A65726B00567A2D6A65726B0056792D61
:100E40006A65726B0056792D6A65726B0056792D52
:100E50006A65726B0056782D6A65726B0056782D44
:100E60006A65726B0056782D6A65726B004D6F74FF
:100E7000696F6E004573746570732F6D6D004573F7
:100E8000746570732F6D6D005A73746570732F6D78
:100E90006D005A73746570732F6D6D0059737465AE
:100EA00070732F6D6D005973746570732F6D6D00C5
:100EB0005873746570732F6D6D005873746570731B
:100EC0002F6D6D004D6F74696F6E00537465707394
:100ED0002F6D6D004A65726B00416363656C6572CE
:100EE0006174696F6E0056656C6F63697479005A3E
:100EF000204F6666736574005A204F66667365748A
:100F000000436F6E74726F6C0046696C616D656E44
:100F100074204F66660046696C616D656E74204F83
:100F20006E200046696C616D656E74204F666600C8
:100F300046696C616D656E74204F6E200046696C69
:100F40002E204469612E0046696C2E204469612E72
:100F5000004F6666004F6E20004520696E206D6D63
:100F60003300436F6E74726F6C0043616E6E6F740A
:100F700020656E746572207375626469723A200030
:100F8000052E2E004D61696E0042696C696E6561C7
:100F900072204C6576656C696E6720477269643AA9
:100FA0000A0020706F736974696F6E206F7574200A
:100FB0006F662072616E67652E0A003F50726F6225
:100FC000652000486F6D65202573257325732066A5
:100FD00069727374002066697273740A005A00594A
:100FE000005800486F6D6520002028445259525522
:100FF0004E2900473239204175746F2042656420C4
:101000004C6576656C696E670028422961636B00E8
:10101000284629726F6E7400285229696768740027
:10102000284C29656674003F2856296572626F73E3
:1010300065206C6576656C20697320696D706C61E4
:10104000757369626C652028302D34292E0A0042A0
:101050006164205A2076616C75650A004E6F2062CB
:10106000696C696E65617220677269640A0046691D
:101070006C652064656C657465643A0044656C65F4
:1010800074696F6E206661696C65642C2046696CBA
:10109000653A20006F70656E206661696C65642C2E
:1010A0002046696C653A2000000000000000000046
:1010B000000000000000484200004842000080405C
:1010C000000000005761726E696E673A20486F6DCC
:1010D000696E672042756D702044697669736F721E
:1010E000203C20310A000202040000A0400000A0C1
:1010F000400000004000005C4300005C43000082B0
:1011000043FFFFFF7C3C3E5E2B3D3F2F5B5D3B2C56
:101110002A225C00466C6F7700466C6F7700466150
:101120006E2073706565640046616E20737065653E
:10113000640042656400426564004E6F7A7A6C65B3
:10114000004E6F7A7A6C6500537065656400537069
:10115000656564004D61696E005072656865617413
:1011600020504C4120456E64005072656865617482
:1011700020504C412042656400507265686561747E
:1011800020504C410050726570617265005072656C
:101190006865617420414253204265640050726565
:1011A000686561742041425320456E640050726549
:1011B00068656174204142530050726570617265C8
:1011C000004261636B004E65787420636F726E65D8
:1011D00072004D32383020503020533136300042CA
:1011E0004C546F7563682053656C662D5465737439
:1011F000004D3238302050302053313230005072A0
:10120000656865617420414253005072656865618C
:101210007420504C4100436F6F6C646F776E0044D4
:10122000697361626C6520737465707065727300B8
:101230004D3834004C6576656C20636F726E657254
:101240007300526573657420424C546F7563680077
:10125000426564204C6576656C696E67004732387C
:101260000A473239004175746F20686F6D65004719
:101270003238004D6F76652061786973004D616981
:101280006E00496E697469616C697A6520454550E4
:10129000524F4D00436F6E74726F6C0052657374E1
:1012A0006F7265206661696C7361666500496E697D
:1012B0007469616C697A6520454550524F4D004C08
:1012C0006F61642073657474696E67730053746F23
:1012D00072652073657474696E677300424C546F55
:1012E0007563680046696C616D656E74004D6F745E
:1012F000696F6E0054656D7065726174757265001A
:101300004D61696E00507265686561742041425399
:1013100020636F6E66005072656865617420504C82
:101320004120636F6E66005049442D44005049448B
:101330002D44005049442D49005049442D49005046
:1013400049442D50005049442D5000200220466150
:1013500063740020022046616374002002204D6106
:1013600078002002204D6178002002204D61780035
:101370002002204D696E002002204D696E0020027F
:10138000204D696E004F6666004F6E2000417574F7
:101390006F74656D700046616E20737065656400E2
:1013A00046616E2073706565640042656400426545
:1013B00064004E6F7A7A6C65004E6F7A7A6C6500C5
:1013C000436F6E74726F6C0053746F726520736537
:1013D0007474696E67730042656400426564004E10
:1013E0006F7A7A6C65004E6F7A7A6C650046616E32
:1013F0002073706565640046616E20737065656476
:101400000054656D70657261747572650045727225
:101410006F722077726974696E6720746F2045451A
:1014200050524F4D210A00290A00206279746573D9
:101430003B20637263200053657474696E67732088
:1014400053746F7265642028004C696E65204E7578
:101450006D626572206973206E6F74204C617374C5
:10146000204C696E65204E756D6265722B312C20A3
:101470004C617374204C696E653A20004B494C4CAA
:1014800045442E200053544F505045442E200050C8
:1014900072696E7465722073746F70706564206415
:1014A000756520746F206572726F72732E204669A5
:1014B0007820746865206572726F7220616E642096
:1014C000757365204D39393920746F2072657374D6
:1014D0006172742E202854656D7065726174757226
:1014E000652069732072657365742E2053657420BE
:1014F00069742061667465722072657374617274B8
:10150000696E67290A004E6F20436865636B7375C7
:101510006D2077697468206C696E65206E756D62E8
:1015200065722C204C617374204C696E653A200002
:10153000636865636B73756D206D69736D6174634A
:10154000682C204C617374204C696E653A20004D04
:10155000313130004D333100473238205859005373
:10156000442072656164206572726F720A00446F74
:101570006E65207072696E74696E672066696C654D
:101580000A0020496E76616C696420657874727512
:10159000646572200053544F505045442E20005033
:1015A00072696E7465722073746F70706564206404
:1015B000756520746F206572726F72732E20466994
:1015C0007820746865206572726F7220616E642085
:1015D000757365204D39393920746F2072657374C5
:1015E0006172742E202854656D7065726174757215
:1015F000652069732072657365742E2053657420AD
:1016000069742061667465722072657374617274A6
:10161000696E67290A0053544F502063616C6C65F2
:10162000642062656361757365206F6620424C5467
:101630006F756368206572726F72202D20726573FA
:10164000746172742077697468204D3939390A00E1
:1016500000006D69782070657263656E74006D6955
:10166000782070657263656E7400000074656D703B
:101670006C6174650074656D706C61746500666999
:101680006C616D656E744C0066696C616D656E743D
:1016900052004D697865720053746F7720424C5444
:1016A0006F756368004D3238302050302053393028
:1016B000004465706C6F7920424C546F756368000C
:1016C0004D3238302050302053313000424C546F6E
:1016D0007563682053656C662D54657374004D32D4
:1016E00038302050302053313230005265736574E9
:1016F00020424C546F756368004D323830205030B2
:101700002053313630004D61696E005072696E743D
:101710002070617573656400005072696E74206199
:10172000626F72746564004E6F205344206361726F
:1017300064005072696E742066726F6D20534400AD
:1017400053746F70207072696E740041626F7574AB
:10175000205072696E74657200526573756D6520F4
:101760007072696E74005061757365207072696E75
:1017700074004D6978657200436F6E74726F6C000F
:10178000507265706172650054756E6500496E66D1
:101790006F2073637265656E0024F4D43050C38E7D
:1017A00020C2A24017828B7011127A910D816CD9E0
:1017B0000AA861E108C7586607615143061E4B5DE0
:1017C00005C145A7041A411104093D980371393137
:1017D000034036DB0265339102D4305402802E1D63
:1017E00002632CEE01752AC501B028A001102781E3
:1017F000018F2564012B244B01E0223401AC211F11
:10180000018D200D01801FFC00841EED00971DDF5F
:1018100000B81CD200E61BC600201BBC00641AB234
:1018200000B219A8000A19A0006A189900D11791EE
:101830000040178B00B516840031167E00B3157971
:10184000003A157300C7146F0058146A00EE13664F
:10185000008813630025135E00C7125B006C1257EB
:101860000015125400C111510070114F0021114B8D
:1018700000D61049008D1047004610440002104267
:1018800000C00F4000800F3E00420F3C00060F3B9F
:1018900000CB0E3800930E37005C0E3500270E3457
:1018A00000F30D3200C10D3100900D3000600D2E9F
:1018B00000320D2D00050D2C00D90C2B00AE0C298B
:1018C00000850C29005C0C2700350C27000E0C2627
:1018D00000E80B2400C40B2400A00B23007D0B2385
:1018E000005A0B2100390B2100180B2000F80A1FA9
:1018F00000D90A1E00BB0A1E009D0A1D00800A1D99
:1019000000630A1C00470A1B002C0A1B00110A1A5C
:1019100000F7091A00DD091900C4091900AB0919FB
:1019200000920917007B091800630917004C09167B
:101930000036091600200916000A091500F50815D9
:1019400000E0081400CC081400B8081400A408141F
:1019500000900813007D0812006B0813005808124D
:101960000046081200340811002308110012081163
:101970000001081100F0071000E0071000D0071068
:1019800000C0071000B0070F00A107100091070E5C
:101990000083070F0074070F0065070E0057070E3E
:1019A0000049070E003B070D002E070E0020070D13
:1019B0000013070D0006070D00F9060C00ED060DDB
:1019C00000E0060C00D4060C00C8060C00BC060C97
:1019D00000B0060C00A4060B0099060C008D060B47
:1019E0000082060B0077060B006C060B0061060AEE
:1019F0000057060B004C060A0042060A0038060A89
:101A0000002E060A0024060A001A060A001006091B
:101A10000007060A00FD050900F4050900EB0509A9
:101A200000E2050900D9050900D0050900C705092C
:101A300000BE050900B5050800AD050800A50509AB
:101A4000009C050800940508008C05080084050822
:101A5000007C050800740508006C05070065050892
:101A6000005D050700560508004E050700470507FD
:101A7000004005080038050700310507002A050762
:101A800000230507001C050600160507000F0507C3
:101A9000000805060002050700FB040600F5040720
:101AA00000EE040600E8040600E2040700DB04067A
:101AB00000D5040600CF040600C9040600C30406CE
:101AC00000BD040600B7040600B1040500AC04061E
:101AD00000A6040600A00405009B0406009504056A
:101AE00000900406008A04050085040500800406B1
:101AF000007A04050075040500700405006B0405F8
:101B00000066040500610405005C04050057040537
:101B100000520405004D0405004804050043040577
:101B2000003E0404003A04050035040500300404B6
:101B3000002C04050027040400230405001E0404EF
:101B4000001A04040016040500110404000D040426
:101B500000090405000404040000040400FC03045C
:101B600000F8030400F4030400F0030400EC030491
:101B700000E8030400E4030400E0030400DC0304C1
:101B800000D8030400D4030400D0030400CC0304F1
:101B900000C8030300C503030024F404D9201BC4B8
:101BA0000C5C0E9804C4095F0265077101F405F925
:101BB00000FB04B30048048700C1036900580355C3
:101BC0000003034500BE023A008402310053022A9A
:101BD000002902250004022000E4011C00C80119AC
:101BE00000AF011700980114008401130071011067
:101BF000006101100051010E0043010D0036010B80
:101C0000002B010B0020010B00150109000C01093C
:101C10000003010800FB000800F3000800EB0007C8
:101C200000E4000600DE000600D8000600D2000630
:101C300000CC000500C7000500C2000500BD00047F
:101C400000B9000400B5000400B1000400AD0004B8
:101C500000A9000400A5000300A20003009F0004E7
:101C6000009B00030098000300950002009300030E
:101C700000900003008D0002008B0003008800022A
:101C8000008600020084000300810002007F000241
:101C9000007D0002007B0002007900020077000155
:101CA0000076000200740002007200010071000260
:101CB000006F0002006D0001006C0002006A00016C
:101CC0000069000200670001006600010065000174
:101CD0000064000200620001006100010060000178
:101CE000005F0002005D0001005C0001005B00017C
:101CF000005A00010059000100580001005700017E
:101D0000005600010055000100540001005300007E
:101D10000053000100520001005100010050000179
:101D2000004F0001004E0000004E0001004D000178
:101D3000004C0001004B0000004B0001004A000174
:101D40000049000100480000004800010047000170
:101D5000004600000046000100450000004500016B
:101D60000044000100430000004300010042000065
:101D7000004200010041000000410001004000015C
:101D8000003F0000003F0001003E0000003E000157
:101D9000003D0000003D0001003C0000003C000050
:101DA000003C0001003B0000003B0001003A000045
:101DB000003A00010039000000390001003800003D
:101DC0000038000000380001003700000037000133
:101DD000003600000036000000360001003500002B
:101DE0000035000000350001003400000034000020
:101DF0000034000100330000003300000033000114
:101E0000003200000032000000320001003100000A
:101E100000310000003100010030000000300000FF
:101E200000300001002F0000002F0000002F0000F4
:101E3000002F0001002E0000002E0000002E0001E7
:101E4000002D0000002D0000002D0000002D0001DD
:101E5000002C0000002C0000002C0000002C0001D1
:101E6000002B0000002B0000002B0000002B0001C5
:101E7000002A0000002A0000002A0000002A0001B9
:101E800000290000002900000029000000290000AE
:101E900000290001002800000028000000280000A0
:101EA0000028000000280001002700000027000093
:101EB0000027000000270000002700010026000086
:101EC0000026000000260000002600000026000179
:101ED000002500000025000000250000002500006E
:101EE000002500000025000100240000002400005F
:101EF0000024000000240000002400010023000052
:101F00000023000000230000002300000023000045
:101F10000023000000230001002200000022000036
:101F20000022000000220000002200000022000128
:101F3000002100000021000000210000002100001D
:101F4000002100000021000000210001002000000D
:101F50000020000000200000002000000020000001
:101F6000002000000020000000200001001F0000F1
:101F7000001F0000001F0000001F0000001F0000E5
:101F8000001F0000001F0001001E0000001E0000D6
:101F9000001E0000001E0000004D3834205820595B
:101FA000205A20450025732C005A25752C45256C98
:101FB000752C50256C752C5425752C4225752C00DC
:101FC0004131304D2072656164792E004572723A5C
:101FD0004E6F2046696C616D656E74004D31303412
:101FE0002053257500473932204525750047393281
:101FF000205A25752E2575004D353030004E4F2066
:102000002000596573202000526573756D6520703E
:1020100072696E74203F0025753A253032750025AF
:102020003032753A25303275002D2D2D0053440085
:102030005A00205A3A0020593A0020436F756E74B6
:1020400020583A0020453A00205A3A0020593A00D8
:10205000583A003A004361703A0053657474696EEF
:10206000672054726176656C20416363656C6572AC
:102070006174696F6E3A200053657474696E6720ED
:102080005265747261637420416363656C6572614B
:1020900074696F6E3A200053657474696E672050DE
:1020A00072696E7420416363656C65726174696FF7
:1020B0006E3A200053657474696E67205072696EC1
:1020C0007420616E642054726176656C2041636394
:1020D000656C65726174696F6E3A2000205A002049
:1020E0005900580020204D61783A2000205A0020E5
:1020F0005900580020204D696E3A20004F6E200094
:102100004F666600536F667420656E6473746F70FB
:10211000733A2000206F7574206F662072616E67BD
:10212000650A00536572766F20003A2000205365DF
:1021300072766F200020643A0020693A0020703ADD
:102140000020643A0020693A0020703A004D61781E
:102150002054656D703A20313530004D696E205441
:10216000656D703A203500544265643A4550434FDE
:1021700053203130304B004D61782054656D703AFA
:1021800020323735004D696E2054656D703A203528
:102190000054303A204550434F53203130304B00EB
:1021A0005053553A2047656E657269630050726FEF
:1021B000746F636F6C3A20312E3000426175643A5F
:1021C00020323530303030004754323536302056EA
:1021D000332E300042696C696E656172204C657601
:1021E000656C696E67004578747275646572733AE0
:1021F000203100687474703A2F2F6D61726C696EB3
:1022000066772E6F7267004131304D0032303138C1
:102210002D31302D31322031323A303000312E31F3
:102220002E39004D61726C696E00546865726D697B
:1022300073746F727300426F61726420496E666FCF
:10224000005072696E74657220496E666F004D6150
:10225000696E00526573656E643A20006F6B0020F2
:10226000746F6F206C6F6E67206578747275736918
:102270006F6E2070726576656E7465640A006275B3
:1022800073793A2070617573656420666F72206996
:102290006E7075740A00627573793A207061757397
:1022A000656420666F7220757365720A00627573CB
:1022B000793A2070726F63657373696E670A004BB9
:1022C000494C4C45442E20004B494C4C20636175D1
:1022D00073656420627920746F6F206D7563682068
:1022E000696E6163746976652074696D65202D205F
:1022F00063757272656E7420636F6D6D616E643AA2
:102300002000506C656173652072657365740050C0
:1023100052494E5445522048414C54454400507255
:10232000696E7465722068616C7465642E206B69D7
:102330006C6C28292063616C6C6564210A00207430
:102340006F6F206C6F6E6720657874727573696F3C
:102350006E2070726576656E7465640A00777269C6
:1023600074652066696C65206E616D653A20002990
:102370000A002062797465733B20637263200070E9
:102380006F7765726F66662053746F72656420287C
:1023900000200D0A62797465733B206372632065C7
:1023A00072726F722000200D0A62797465733B208F
:1023B000637263206572726F7220007265616420BF
:1023C00066696C65206E616D653A200072656164B6
:1023D0002066696C65206469723A2000290A002031
:1023E00062797465733B206372632000706F776558
:1023F000726F66662073746F72656420736574749F
:10240000696E6773207265747269657665642028E9
:1024100000202863616C63756C6174656429210A0E
:102420000020213D2000454550524F4D204352434E
:10243000206D69736D61746368202D202873746F3B
:10244000726564292000290A002062797465733B53
:102450002063726320002073746F7265642073655B
:102460007474696E677320726574726965766564E9
:10247000202800204D61726C696E3D563131290A69
:102480000028454550524F4D3D00454550524F4D57
:102490002076657273696F6E206D69736D61746308
:1024A0006820004D3234004D3233202573005772BE
:1024B0006974696E6720746F2066696C653A2000E4
:1024C0006F70656E206661696C65642C2046696C6E
:1024D000653A20006F70656E206661696C65642CDA
:1024E0002046696C653A200046696C652073656C0E
:1024F00065637465640A002053697A653A20004672
:10250000696C65206F70656E65643A20006F706558
:102510006E206661696C65642C2046696C653A20A2
:10252000002066696C653A2000646F696E6700661A
:1025300072657368004E6F772000454E44205355F6
:1025400042524F5554494E450A002220706F730085
:102550002220706172656E743A2200535542524FC8
:102560005554494E452043414C4C20746172676577
:10257000743A22004B494C4C45442E200074727929
:10258000696E6720746F2063616C6C207375622DB7
:1025900067636F64652066696C657320776974682A
:1025A00020746F6F206D616E79206C6576656C7339
:1025B0002E204D4158206C6576656C2069733A0079
:1025C0004572726F723A0043616E6E6F74206F7065
:1025D000656E2073756264697220005344206361E4
:1025E0007264206F6B0A006F70656E526F6F74209B
:1025F0006661696C65640A00766F6C756D652E693D
:102600006E6974206661696C65640A0053442069D0
:102610006E6974206661696C0A006175746F256962
:102620002E670070012C0190012701B0012201C02A
:10263000011D01F00118011002130130020E0160AA
:1026400002090190020401C002FF000003FA0040E9
:1026500003F5008003F000D003EB002004E60070D7
:1026600004E100E004DC004005D700C005D20040D2
:1026700006CD00D006C8008007C3003008BE00F0B9
:1026800008B900C009B400B00AAF00B00BAA00D06E
:102690000CA500000EA000500F9B00C0109600502B
:1026A00012910000148C00C0158700B0178200B092
:1026B000197D00D01B7800001E730040206E009032
:1026C000226900F024640040275F0090295A00E04E
:1026D0002B5500102E500020304B0010324600E0E9
:1026E00033410090353C001037370070383200A07D
:1026F000392D00B03A2800A03B2300603C1E00109A
:102700003D1900903D1400103E0F00703E0A00C0BD
:102710003E0500003F0000403FFBFF803FF6FFC04A
:102720003FF1FF4572723A204D494E54454D5020BD
:10273000424544004572723A204D494E54454D5031
:10274000004D494E54454D5020747269676765725B
:102750006564004572723A204D415854454D5020F1
:10276000424544004572723A204D415854454D50FF
:10277000004D415854454D50207472696767657229
:10278000656400202F002042403A0020403A0000BB
:10279000000000010204040000001C1C0C040404DE
:1027A000020100000000000408100000000000000A
:1027B0001C1F11111F00000006191803130C000440
:1027C0000E1F041C000000000E1315110E00001C4B
:1027D00010181705060500040A0A0A0A11110E0C42
:1027E00012120C00000000001F1511151F000050F0
:1027F000726F62696E67206661696C65640A005079
:10280000726F62696E67206661696C656400205A48
:102810003A200020593A200042656420583A2000AE
:102820005344207072696E74696E672062797465B2
:1028300020004E6F74205344207072696E74696E6C
:10284000670A00656E7175657565696E672022009F
:102850006563686F3A005654726176206D696E0048
:102860005654726176206D696E00565472617620FE
:102870006D696E00566D696E00566D696E00566D1D
:10288000696E00566D6178204500566D617820456F
:1028900000566D6178204500566D6178205A0056CB
:1028A0006D6178205A00566D6178205A00566D612E
:1028B00078205900566D6178205900566D61782056
:1028C0005900566D6178205800566D617820580087
:1028D000566D61782058004D6F74696F6E00416DC0
:1028E0006178204500416D6178204500416D617837
:1028F000205A00416D6178205A00416D617820595D
:1029000000416D6178205900416D61782058004187
:102910006D6178205800412D74726176656C0041BC
:102920002D74726176656C00412D726574726163FD
:102930007400412D72657472616374004163636554
:102940006C00416363656C004D6F74696F6E004D80
:102950006F76652058004D6F76652059004D6F7673
:1029600065205A004578747275646572004D6F7603
:102970006520302E316D6D004D6F766520316D6DA7
:10298000004D6F76652031306D6D004D6F7665209E
:1029900061786973004578747275646572004D6F73
:1029A0007665205A004D6F76652059004D6F76652B
:1029B0002058004578747275646572004D6F7665B5
:1029C000205A004D6F76652059004D6F766520586E
:1029D00000507265706172650048617264636F6473
:1029E00065642044656661756C7420536574746910
:1029F0006E6773204C6F616465640A00B80B000059
:102A0000B80B000032000000881300000000C8432B
:102A10000000C8430000C843000034429A99A04215
:102A20009A99A1420000C8430000AA436265640A63
:102A3000002C2073797374656D2073746F707065EA
:102A40006421204865617465725F49443A20000042
:102A5000BC00BE0011241FBECFEFD1E2DEBFCDBF50
:102A600000E00CBF15E0A0E0B2E0E0E9FCE202E02B
:102A70000BBF02C007900D92A231B107D9F729E12F
:102A8000A2E1B5E001C01D92AA31B207E1F715E15C
:102A9000C9E2D5E100E006C021970109802FFE01BF
:102AA0000F947D15C832D10780E00807A9F70E946E
:102AB000FFF90D9437160C9400002F923F924F921D
:102AC0005F926F927F928F929F92AF92BF92CF92BE
:102AD000DF92EF92FF920F931F93CF93DF93CDB7C7
:102AE000DEB7C158D1090FB6F894DEBF0FBECDBF17
:102AF00081E090E090939F1180939E118091CD187A
:102B00008D3411F40C94D71D843511F40C94922D4E
:102B1000873411F00C94DC2D8091CB189091CC1857
:102B20008C31910509F4E4C5B4F4843091053CF48A
:102B300082309105B4F597FF2DC00C94F32D8430AD
:102B4000910509F48FC54A9711F00C94F32D0E945A
:102B500074370C94F32D8A32910509F467C74CF44D
:102B60008D31910509F49AC64E9709F49BC60C94D1
:102B7000F32D8B35910509F404C78C35910509F4C3
:102B800005C78A35910511F00C94F32D10921705A5
:102B90000C94F32D8091860281110C94FA2D0C94E3
:102BA000F32D20918602222311F40C94F32D11E0D1
:102BB000029709F010E00E94795682E50E941736CC
:102BC000882309F43CC10E94B1356B017C0140901F
:102BD00052125090531260905412709055122091DE
:102BE000561230915712409158125091591228ABF9
:102BF00039AB4AAB5BAB8091761290917712A09182
:102C00007812B09179128CAB9DABAEABBFAB20917B
:102C10007A1230917B1240917C1250917D1228AF34
:102C200039AF4AAF5BAF20E030E0A901C701B60180
:102C30000F94490E882309F4FBC4A30192016CA9E7
:102C40007DA98EA99FA90F94490E81110DC028A9B5
:102C500039A94AA95BA968AD79AD8AAD9BAD0F943E
:102C6000490E882309F4E4C420E030E0A901C7013B
:102C7000B6010F94490E881F8827881F18130BC0B0
:102C800080E090E0A0E8BFE32C968CAF9DAFAEAFA4
:102C9000BFAF2C970AC020E030E040E85FEB2C96F5
:102CA0002CAF3DAF4EAF5FAF2C97A30192016CA943
:102CB0007DA98EA99FA90F94811224966CAF7DAF38
:102CC0008EAF9FAF249728A939A94AA95BA968ADFF
:102CD00079AD8AAD9BAD0F94811228966CAF7DAF14
:102CE0008EAF9FAF289724962CAD3DAD4EAD5FAD16
:102CF0002497CA01B9010F94AE0E4B015C012896CE
:102D00002CAD3DAD4EAD5FAD2897CA01B9010F9412
:102D1000AE0E9B01AC01C501B4010F9482120F9459
:102D2000ED146CAF7DAF8EAF9FAF20E030E040E0A0
:102D30005FE30F94AE0E4B015C01A7019601C70142
:102D4000B6010F94AE0E6B017C01A5019401C50183
:102D5000B4010F94AE0E9B01AC01C701B6010F94F4
:102D600081120F94ED149B01AC012C966CAD7DADDE
:102D70008EAD9FAD2C970F94AE0E4B015C012CA92C
:102D80003DA94EA95FA9C301B2010F94821220E0B0
:102D900030E040E05FE30F94AE0E6B017C012896BB
:102DA0006CAD7DAD8EAD9FAD289790582CAD3DADEF
:102DB0004EAD5FAD0F945E139B01AC01C501B40134
:102DC0000F94AE0E9B01AC01C701B6010F948212A5
:102DD000A30192010F9481126B017C0128AD39ADE2
:102DE0004AAD5BAD68A979A98AA99BA90F94821203
:102DF00020E030E040E05FE30F94AE0E2B013C0199
:102E00002CAD3DAD4EAD5FAD24966CAD7DAD8EADC0
:102E10009FAD24970F945E139B01AC01C501B401D3
:102E20000F94AE0E9B01AC01C301B2010F9482124C
:102E300028A939A94AA95BA90F94811214C089E471
:102E40000E941736882329F00E94B1356B017C015E
:102E500003C0C12CD12C76018AE40E941736882346
:102E6000D9F00E94B13568AF79AF8AAF9BAF20E04F
:102E700030E0A901C701B6010F94490E81111AC0B3
:102E800020E030E0A90168AD79AD8AAD9BAD0F942B
:102E9000490E81110FC0CCC320E030E0A901C70169
:102EA000B6010F94490E882309F4C2C318AE19AEB7
:102EB0001AAE1BAED701C601B05888AB99ABAAAB0E
:102EC000BBAB28AD39AD4AAD5BAD50582CAB3DAB7B
:102ED0004EAB5FAB9C01AD01BC01CD010F94AE0EBA
:102EE0004B015C012CA93DA94EA95FA9CA01B901FA
:102EF0000F94AE0E9B01AC01C501B4010F94821278
:102F00000F94ED146C966CAF7DAF8EAF9FAF6C9746
:102F10008091521290915312A0915412B091551277
:102F20008CAF9DAFAEAFBFAFA7019601BC01CD0185
:102F30000F9482122C966CAF7DAF8EAF9FAF2C9703
:102F400020915612309157124091581250915912B7
:102F500028962CAF3DAF4EAF5FAF289728AD39AD67
:102F60004AAD5BAD28966CAD7DAD8EAD9FAD28971B
:102F70000F94821260966CAF7DAF8EAF9FAF60975B
:102F80008091761290917712A0917812B091791277
:102F900064968CAF9DAFAEAFBFAF64972C962CAD4F
:102FA0003DAD4EAD5FAD2C97BC01CD010F948112AC
:102FB0006B017C0120917A1230917B1240917C123E
:102FC00050917D1268962CAF3DAF4EAF5FAF6897C2
:102FD00060962CAD3DAD4EAD5FAD609768966CAD23
:102FE0007DAD8EAD9FAD68970F9481124B015C0152
:102FF00080915A1290915B12A0915C12B0915D1277
:10300000A4968CAF9DAFAEAFBFAFA4979C01AD01AE
:1030100060917E1270917F12809180129091811246
:103020000F94811224966CAF7DAF8EAF9FAF249723
:103030002091821230918312409184125091851216
:10304000A0962CAF3DAF4EAF5FAFA09780915E12C0
:1030500090915F12A0916012B0916112A8968CAF0E
:103060009DAFAEAFBFAFA897A701960168A979A998
:103070008AA99BA90F94AE0E2B013C01A5019401D6
:103080006CA97DA98EA99FA90F94AE0E9B01AC01DE
:10309000C301B2010F9482122B013C01A5019401DE
:1030A00068A979A98AA99BA90F94AE0E4B015C016E
:1030B000A70196016CA97DA98EA99FA90F94AE0EB8
:1030C0009B01AC01C501B4010F948112A3019201CF
:1030D0000F94F5126B017C0120E030E0A9010F9400
:1030E000490E87FF0AC02BED3FE049EC50E4C701D1
:1030F000B6010F9482126B017C01112351F02BED6C
:103100003FE049EC50E4C701B6010F9481126B0116
:103110007C0120E030E0A901C701B6010F94490EFF
:10312000811126C064962CAD3DAD4EAD5FAD649768
:103130006CAD7DAD8EAD9FAD0F94490E811118C061
:1031400068962CAD3DAD4EAD5FAD689728966CADE1
:103150007DAD8EAD9FAD28970F94490E811108C0AB
:103160001BEDC12E1FE0D12E19ECE12E10E4F12E43
:103170006C962CAD3DAD4EAD5FAD6C97C701B60101
:103180000F94AE0E9B01AC010F94AE0E4B015C018F
:1031900024962CAD3DAD4EAD5FAD2497CA01B9016B
:1031A0000F94AE0E9B01AC01C501B4010F948212C5
:1031B0000F94ED144B015C012FE632E143E85AE332
:1031C0000F94490E87FD30C2C501B4010F94F71367
:1031D0000F94CB131B01672B19F422242394312C59
:1031E000B10180E090E00F944D0E4B015C019B011A
:1031F000AC01C701B6010F945E136CAF7DAF8EAF0B
:103200009FAFA501940124966CAD7DAD8EAD9FADB1
:1032100024970F945E136C966CAF7DAF8EAF9FAF0B
:103220006C97A8962CAD3DAD4EAD5FADA897A0961E
:103230006CAD7DAD8EAD9FADA0970F948112A501B1
:1032400094010F945E13A0966CAF7DAF8EAF9FAFCD
:10325000A0972CAD3DAD4EAD5FADCA01B9010F9445
:10326000AE0E20E030E040E05FE30F94AE0E9B0135
:10327000AC0160E070E080E89FE30F9481126496F7
:103280006CAF7DAF8EAF9FAF6497A4962CAD3DAD74
:103290004EAD5FADA49729873A874B875C87A89688
:1032A0008CAD9DADAEADBFADA8978D879E87AF8726
:1032B000B88B6091120270911302072E000C880BDC
:1032C000990B0F944F0E20913F0230914002409194
:1032D0004102509142020F94AE0E2AE037ED43E2D4
:1032E0005CE30F94AE0E6CA77DA78EA79FA70E94EC
:1032F00025459B01AC0128533F4F4F4F5F4F6896C8
:103300002CAF3DAF4EAF5FAF689748A859A86AA8E9
:103310007BA841E050E026965FAF4EAF269759E17B
:1033200021965FAF21972696AEADBFAD2697A21529
:10333000B30509F43FC10E9436DB0E942545DC013C
:10334000CB0168962CAD3DAD4EAD5FAD6897821B4D
:10335000930BA40BB50BB7FD10C00E9425459B0134
:10336000AC0128533F4F4F4F5F4F68962CAF3DAF96
:103370004EAF5FAF68970E940BAF21963FAD21978C
:10338000315021963FAF2197332309F441C0649611
:103390002CAD3DAD4EAD5FAD64976CA97DA98EA9F6
:1033A0009FA90F94AE0E6B017C012CAD3DAD4EADCF
:1033B0005FADB201C3010F94AE0EA70196010F9449
:1033C00082126B017C0164962CAD3DAD4EAD5FADBC
:1033D0006497B201C3010F94AE0E4B015C012CAD9A
:1033E0003DAD4EAD5FAD6CA97DA98EA99FA90F948F
:1033F000AE0E9B01AC01C501B4010F9481122B01EB
:103400003C01C601D7018CAB9DABAEABBFAB55C089
:1034100026964EAD5FAD2697BA0180E090E00F94FE
:103420004D0E2CAD3DAD4EAD5FAD0F94AE0E4B01CC
:103430005C010F945B136B017C01C501B4010F9417
:10344000E3144B015C01A701960168A979A98AA937
:103450009BA90F94AE0E2B013C01A501940168AD10
:1034600079AD8AAD9BAD0F94AE0E9B01AC01C3014B
:10347000B2010F9482122B013C01A501940168A9AD
:1034800079A98AA99BA90F94AE0E4B015C01A701F3
:10349000960168AD79AD8AAD9BAD0F94AE0E9B01E0
:1034A000AC01C501B4010F9481126CAB7DAB8EAB46
:1034B0009FAB59E121965FAF21979201A3012C9612
:1034C0006CAD7DAD8EAD9FAD2C970F94821269834C
:1034D0007A838B839C832CA93DA94EA95FA9609612
:1034E0006CAD7DAD8EAD9FAD60970F9482126D83F4
:1034F0007E838F8398876C962CAD3DAD4EAD5FADCE
:103500006C9769857A858B859C850F948212698773
:103510007A878B879C87A0962CAD3DAD4EAD5FAD75
:10352000A0976D857E858F8598890F9482126D870F
:103530007E878F87988B80918102882321F0CE012E
:1035400001960E94766589819A81AB81BC8188A3AE
:1035500099A3AAA3BBA38D819E81AF81B8858CA3BB
:103560009DA3AEA3BFA389859A85AB85BC8588A79B
:1035700099A7AAA7BBA7CE0180960E946684E12CDA
:103580008E01045D1F4F9E01235F3F4FAE01485DDA
:103590005F4FBE016C5D7F4FCE0180960E94C7EAEF
:1035A00026968EAD9FAD2697019626969FAF8EAF3D
:1035B0002697B9CE8091761290917712A0917812C9
:1035C000B091791288A399A3AAA3BBA380917A1280
:1035D00090917B12A0917C12B0917D128CA39DA33F
:1035E000AEA3BFA380917E1290917F12A091801212
:1035F000B091811288A799A7AAA7BBA7CE018096F0
:103600000E946684E12C8E01045D1F4F22E832E1A6
:10361000AE01485D5F4FBE016C5D7F4FCE0180966D
:103620000E94C7EA0E946A370E946E840C94F32DB0
:10363000E0ECF5E284918F010F5F1F4F882321F0AA
:103640000E943935F801F6CFE1EEF1E084918F0167
:103650000F5F1F4F882311F40C94F32D0E9439350E
:10366000F801F4CF80E50E941736882329F00E94E4
:1036700047846B017C0103C0C12CD12C760183E50A
:103680000E941736882361F00E94B13520E030E0B7
:103690004AE754E40F94AE0E0F94CB136B017C01F8
:1036A0000E94BAF980914402811105C060E087EF61
:1036B00091E00E94B3490E946E848091A71190917D
:1036C000A811A091A911B091AA11C80ED91EEA1E85
:1036D000FB1E0E942545DC01CB018C199D09AE091A
:1036E000BF09B7FD02C00C94F32D0E940BAFF1CFC0
:1036F0000E94BAF980E00E940A840E94928411E03C
:103700001093251588E50E94E835E82E89E50E948A
:10371000E835082F8AE50E94E835F82EE11004C04C
:10372000011104C0182705C0011102C010E001C03A
:10373000182F0E942336111104C0E11002C000238B
:10374000C1F180E090E0A0EAB0E480937E12909313
:103750007F12A0938012B09381129C01AD01609101
:103760005A1270915B1280915C1290915D120F94CD
:10377000490E87FF0BC019821A821B821C82BE0170
:103780006F5F7F4F8EE792E10E941380111105C099
:10379000E11003C0011107C00CC080E090E00E945E
:1037A00055641123B9F381E090E00E945564111132
:1037B00003C0FF2009F463C08091E005882321F055
:1037C0008091E10581111EC060E081E192E00E94DC
:1037D000B349E0E5F8E284918F010F5F1F4F882322
:1037E00021F00E943935F801F6CFE0E0F2E0849153
:1037F0008F010F5F1F4F882309F441C00E943935A4
:10380000F801F5CF0E94C38380E090E0ACEDB2E414
:1038100080937A1290937B12A0937C12B0937D12C6
:1038200080915A1290915B12A0915C12B0915D123E
:1038300080937E1290937F12A0938012B093811296
:1038400080E090E0A3E1B3E4809376129093771246
:10385000A0937812B093791219821A821B821C826B
:103860009E012F5F3F4F4AE552E16AE772E186E72A
:1038700092E10E942E7F82E090E00E9455640E94B7
:10388000C38380912415809325150E94798483E059
:10389000809343020E9493A50C94F32D0E945A58E2
:1038A0000C94F32DC0905212D0905312E090541209
:1038B000F090551288E50E941736811109C020E06A
:1038C00030E044E152E4C701B6010F94811202C016
:1038D0000E94B13568A379A38AA39BA3C090561216
:1038E000D0905712E0905812F090591289E50E943A
:1038F0001736811108C020E030E0A901C701B601E8
:103900000F94821202C00E94B1356B017C01698361
:103910007A838B839C8388A099A0AAA0BBA02FE662
:1039200032E143E85AEBC501B4010F94A81487FFB4
:1039300002C00C94F32D22E430E047E353E4C501C8
:10394000B4010F94490E181614F40C94F32D2FE6BD
:1039500032E143E85AEBC701B6010F94A81487FF80
:1039600002C00C94F32D22E430E04CE553E4C7018F
:10397000B6010F94490E181614F40C94F32D0C9400
:10398000FF2D81E0809317050C94F32D0E94BAF966
:10399000FBE82F2EF2E03F2EA2E5EA2EA2E1FA2E5E
:1039A00000E0D12C10E0F10181911F010E94173637
:1039B000882351F10E94B1352B013C01D7012D9193
:1039C0003D914D915C910F9481124B015C012DEB67
:1039D00037E346E855EB0F94A81487FD0AC02DEB9A
:1039E00037E346E855E3C501B4010F94490E1816B4
:1039F0005CF4133019F0DD24D39401C001E0F70129
:103A000040825182628273821F5FF4E0EF0EF11CEC
:103A1000143049F6DD2019F00E94C38303C0011160
:103A20000E947CD50E9493A50C94F32D8091860270
:103A3000882311F40C94F32D89E40E941736182F73
:103A4000882321F00E948135E62E01C0E12C8AE412
:103A50000E941736F82E882331F00E948135062FF8
:103A6000111104C00BC000E01123B9F022E02E15A3
:103A700010F00C941933E3E3F2E003C00330D8F7FD
:103A80000CC084918F010F5F1F4F882311F40C9499
:103A9000F32D0E943935F801F4CF0E94233611230B
:103AA000F1F020912512309126124E2D4203B001E3
:103AB000439F700D11242091211230912212620F28
:103AC000731F072E000C880B990B0F944F0E6093F9
:103AD0007612709377128093781290937912FF2068
:103AE000E9F020912712309128120203B001039FC0
:103AF000700D11248091231290912412680F791F68
:103B0000072E000C880B990B0F944F0E60937A12BE
:103B100070937B1280937C1290937D1280E50E94BB
:103B20001736882319F00E94A23503C080E50E9451
:103B3000E8358823C1F01123B1F020E030E044E102
:103B400052E4609176127091771280917812909180
:103B500079120F9482126093761270937712809389
:103B600078129093791286E40E9417368823D9F050
:103B70000E94B1356B017C0120E030E0A9010F9477
:103B8000A814181684F420E030E040E752E4C7019E
:103B9000B6010F945E1360933F02709340028093CE
:103BA0004102909342020E9471B10C94F32D8091D6
:103BB000CB189091CC188537910509F483C70CF088
:103BC000BEC08C34910509F44EC40CF056C0893146
:103BD000910509F4CFC21CF58431910509F45AC24C
:103BE0007CF48131910509F442C22CF4029708F467
:103BF000B4C10C94F32D429709F431C60C94F32D03
:103C00008631910509F48FC20CF489C28731910580
:103C100009F48FC2489709F4A2C20C94F32D8F3196
:103C2000910509F415C394F48B31910509F4B6C2DA
:103C30000CF4A6C28C31910509F4B4C24E9711F070
:103C40000C94F32D0E9442550C94F32D8A32910569
:103C500009F4A4C32CF4809709F4AEC20C94F32D9C
:103C60008133910509F4DAC38B34910511F00C947A
:103C7000F32D0E941EDC0C94F32D8A36910509F475
:103C800098C5B4F58435910509F4E9C5E4F48135A6
:103C9000910509F4C5C54CF48D34910511F00C94CF
:103CA000F32D0E945DE00C94F32D8235910509F40B
:103CB000D2C58335910511F00C94F32D81E08093EA
:103CC00016050C94F32D8C35910509F41AC634F4BD
:103CD0008535910509F4FAC50C94F32D88369105C4
:103CE00009F4C5C38936910509F4E9C40C94F32D90
:103CF0008F36910509F422C484F48C36910509F4B9
:103D00008EC40CF47BC58D36910509F41CC58E3626
:103D1000910509F400C40C94F32D8137910509F441
:103D200086C40CF480C48237910509F473C68337C6
:103D3000910511F00C94F32DEEE7F4E071C6883193
:103D400051E0950711F40C942D280CF074C08E3BB3
:103D5000910509F414C57CF58C38910509F493C4D8
:103D6000ACF48737910509F4F5C60CF4B4C688376E
:103D7000910509F453C78937910511F00C94F32D7F
:103D800010922515109224150C94F32D8B39910562
:103D900009F4B2C434F48139910509F445C70C948F
:103DA000F32D833A910509F4B7C7843A910509F4D4
:103DB000FEC70C94F32D8D3C910511F40C94D6277D
:103DC000ECF4893C910511F40C94B6274CF4883C32
:103DD000910511F00C94F32D0E9406A50C94F32D7F
:103DE0008B3C910511F40C94B9278C3C910511F092
:103DF0000C94F32D0E9478A40C94F32D8C3D910526
:103E000011F40C94D9274CF4833D910511F00C94D6
:103E1000F32D0E9493A30C94F32D8D3D910511F485
:103E20000C94E627823E910511F00C94F32D0E942C
:103E300038A30C94F32D8939B1E09B0709F489C0AC
:103E40000CF045C08336F1E09F0711F40C94402D2F
:103E5000FCF48D3231E0930711F40C9430284CF4CB
:103E60008C32914011F00C94F32D0E9436A20C94E8
:103E7000F32D8F32A1E09A0711F40C94332880338C
:103E8000914011F00C94F32D0E941AA10C94F32D83
:103E90008139E1E09E0711F40C94612B4CF48039D8
:103EA000914011F00C94F32D0E94BAF90C94F32D6B
:103EB000823931E0930711F40C94652B88399140D5
:103EC00011F00C94F32D05E413E00C94692B853F5D
:103ED00051E0950711F40C94E42CFCF4843AB1E021
:103EE0009B0711F40C94862B4CF48A39914011F005
:103EF0000C94F32D0E94E4A00C94F32D853A21E05C
:103F0000920711F40C94512C843F914011F00C94C1
:103F1000F32D0E9454740C94F32D833543E09407E1
:103F200011F40C94E72C4CF4863F914011F00C9462
:103F3000F32D0E94C0F30C94F32D803AB3E09B075D
:103F400009F479C1873E934011F40C947D2D0C94B3
:103F5000F32D04E213E00C94782BA090C918B090D4
:103F6000CA1880E50E941736882359F00E944784BA
:103F70006B017C0111E0672B682B692B31F410E099
:103F800004C010E0C12CD12C760183E50E941736C5
:103F90008823F1F00E94B13520E030E04AE754E494
:103FA0000F94AE0E0F94CB136B017C01111112C054
:103FB000672B682B692B71F4A114B10459F0D5015A
:103FC0008C91882339F061E0C5010E94D14907C076
:103FD000112391F360E08DE692E00E94B34983E003
:103FE00090E090939F1180939E1181E08093640AEA
:103FF0000E94BAF90E946E84C114D104E104F10454
:10400000E9F08091A7119091A811A091A911B09108
:10401000AA11C80ED91EEA1EFB1E0E942545DC010E
:10402000CB018C199D09AE09BF09B7FF1CC0809157
:10403000640A8823C1F00E940BAFEFCF8091640A1D
:10404000882319F00E940BAFF9CF8091B41590919D
:10405000B51560E0029719F481E692E002C082E5AE
:1040600092E00E94B3491092640A0C94F32D60E030
:1040700080E892E00E94B3494298179815982E98CC
:104080009FB7F89480910B018D7F80930B019FBFA8
:104090000C94F32DE8E9F2E084918F010F5F1F4F3C
:1040A000882321F00E943935F801F6CF10924A1882
:1040B0001092491840E050E0BA018DEF95E10E945E
:1040C000D97B8BE1EDEFF5E1DE01159601900D92C4
:1040D0008A95E1F78091FB159091FC159C838B8369
:1040E00085EF92E09A83898340E050E0BE016F5FE4
:1040F0007F4F86EE94E00E9498CCCE0101960E94FC
:10410000E565E9E8F2E084918F010F5F1F4F882396
:1041100011F40C94F32D0E943935F801F4CF0E946C
:1041200099D30C94F32D1092C4151092C5150C94CC
:10413000F32DE091C918F091CA188081882329F0E5
:10414000803209F410823196F8CF40E061E080912E
:10415000C9189091CA180E94E2CE0C94F32D809158
:10416000C515882319F081E08093C4150E941EDCD8
:104170000C94F32D1092C4150E94E1DC0C94F32DE5
:104180008091C515882311F40C94F32D83E50E94CA
:10419000173681110C94532E0C94F32D0E94FBDCE6
:1041A0000C94F32D40E060E08091C9189091CA18FA
:1041B0000E94E2CE0C94F32D8091C41581110E94CF
:1041C000BAF98091C515882311F40C94F32D80E57C
:1041D0000E941736882319F00E94A23503C080E59B
:1041E0000E94E835182F482F61E08091C9189091FE
:1041F000CA180E94E2CE83E50E941736882381F018
:104200000E948135AB01BC014093F5155093F61522
:104210006093F7157093F81587E997E10E94D97BB1
:104220008091C515882319F081E08093C415111180
:104230000C94F32D9BCF8091C9189091CA1821E05E
:104240002093C31540E060E00E94E2CE0C94F32D71
:104250000E947AE1ECE3CE2ED12CE12CF12CA701C7
:1042600096010F942412762E672ECA01B901A70178
:1042700096010F9424126B017C01CA01B90128E157
:1042800030E040E050E00F9424124B015C01C90182
:104290006DE671E00F9456158E010F5F1F4F61158B
:1042A000710599F06F927F92DF92CF929F928F92D9
:1042B0009F938F937F936F9381ED92E09F938F9362
:1042C0001F930F930F94E20D12C00097B1F06F92FD
:1042D0007F92DF92CF929F928F929F938F9381ECE8
:1042E00092E09F938F931F930F930F94E20D0FB65D
:1042F000F894DEBF0FBECDBF36C081149104A10477
:10430000B10479F06F927F92DF92CF929F928F9259
:1043100085EB92E09F938F931F930F930F94E20D81
:10432000E6CFC114D104E104F10469F06F927F92E9
:10433000DF92CF928DEA92E09F938F931F930F931A
:104340000F94E20DD4CF6F927F9289EA92E09F930F
:104350008F931F930F930F94E20D0F900F900F9078
:104360000F900F900F9060E0C8010E94D149E0E5E6
:10437000F8E284917F019FEFE91AF90A882321F07E
:104380000E943935F701F5CFB80185EE92E00E9421
:1043900007E98AE00E9439350C94F32D83E50E94E9
:1043A0001736882311F40C94F32D0E949135E82ED2
:1043B00080E50E941736882341F00E9481358B01E9
:1043C00077FF02C00C94F32D02C006E010E0902F9E
:1043D000E2EFF2E08BE28E0F2491921729F03196F2
:1043E0008E13FACF0C94632EE0ECF5E284918F01EA
:1043F0000F5F1F4F882321F00E943935F801F6CF57
:10440000EDE1F3E084918F010F5F1F4F882311F4DA
:104410000C94F32D0E943935F801F4CFF090120579
:1044200081E0F826F0921205E7E3F3E084918F0132
:104430000F5F1F4F882321F00E943935F801F6CF16
:10444000F11003C0E1E3F3E002C0ECE2F3E0849199
:104450008F010F5F1F4F882311F40C94F32D0E94DE
:104460003935F801F4CF0E94E1DC0C94F32D88E695
:1044700090E00E94198581110C94F32D809185188C
:1044800083FF02C00C94F32D83E50E941736882326
:1044900009F43DC00E94B1350F94C6137093CA143D
:1044A0006093C9140E94B13520E030E04AEA52E43A
:1044B0000F94490E18163CF00E945DE060E089E41C
:1044C00093E00E94B3490E94B1352091DB103091F6
:1044D000DC104091DD105091DE100F94A8141816D6
:1044E000B4F485E693E09F938F9380919C1490E0C1
:1044F00001969F938F9382E493E09F938F931F92F3
:104500000E9403DC0FB6F894DEBF0FBECDBF0F9440
:1045100070080C94F32D8EE40E941736882311F452
:104520000C94F32D0E948135609388127093891248
:1045300080938A1290938B120C94F32D83E50E9442
:10454000E835882359F083E50E941736882319F04F
:104550000E94913501C080E080938518E0E5F8E283
:1045600084918F010F5F1F4F882321F00E943935FE
:10457000F801F6CFE3E6F3E084918F010F5F1F4F60
:10458000882321F00E943935F801F6CF80918518F3
:104590008823A1F155E5C52E53E0D52EE12CF12C51
:1045A00020E08091851890E00E2C02C095958795AB
:1045B0000A94E2F780FF17C0BB24B394B20E222303
:1045C00019F08CE20E943935F60125913491F901F8
:1045D000849189010F5F1F4F882321F00E94393594
:1045E0009801F5CF2B2DFFEFEF1AFF0A32E0C30E33
:1045F000D11C45E0E416F104A1F60CC0EFE5F3E0B0
:1046000084918F010F5F1F4F882321F00E9439355D
:10461000F801F6CF8AE00E9439350C94F32D109200
:1046200020020C94F32D8AE693E00E94BAAE83E553
:104630000E941736882369F00E9491358D3320F44B
:10464000809330020C94F32D8CE3809330020C9411
:10465000F32DE0E5F8E284918F010F5F1F4F88236F
:1046600021F00E943935F801F6CF4091300250E038
:1046700060E070E083E793E00E9497E88AE00E94A0
:1046800039350C94F32D8091851883FF02C00C946A
:10469000F32D83E50E941736882311F40C94F32D33
:1046A0000E94B1350F94C6136739710514F066E99D
:1046B00070E07093C8146093C7140C94F32D89E6CE
:1046C00090E00E941985811111C0EAE7F3E084911E
:1046D0008F010F5F1F4F882321F00E943935F801A9
:1046E000F6CF0E9464D88AE00E94393510929F115B
:1046F00010929E110C941F3383E50E941736882375
:1047000011F40C94F32D0E949135182F8D3308F07D
:104710001CE31093A4110E9425456B017C01212FFD
:1047200030E0A8EEB3E00F947212C60ED71EE81E5A
:10473000F91EC092A011D092A111E092A211F092A4
:10474000A3110C94F32D8DE690E00E941985811140
:104750000C94F32D8091851883FF02C00C94F32DE7
:1047600083E50E94173688AF81110C94792E82E57B
:104770000E94173681110C94792E0C94F32D8091A0
:10478000851883FF02C00C94F32D60E080EB93E06A
:104790000E94B34983E50E94173688AF81110C94BB
:1047A000F42F82E50E94173681110C94F42F0C949B
:1047B000F32D80E50E941736811108C083E50E9421
:1047C0001736811109C03FEF20E00AC00E949135E1
:1047D00081110C94F32DF2CF0E948135362F272FB3
:1047E000832F922F8F3F910519F010F08FEF90E0FB
:1047F0009093C6148093C5140C94F32D80E50E9409
:104800001736811106C01092C6141092C5140C946C
:10481000F32D0E948135672B11F00C94F32DF3CF0B
:104820000E945BDA0E94BAF90E94B1AE1092C614DF
:104830001092C51468EE73E080E090E00E94014998
:104840000E94BAF90E94A68060E08DEB93E00E947E
:10485000B3490C94F32D109216050C94F32D83E5B7
:104860000E9417368823A1F00E94B13520E030E085
:104870004AE754E40F94AE0E0F94CB1360933102C9
:104880007093320280933302909334020C94F32D90
:1048900088E50E94E83581110C94433189E50E9436
:1048A000E83581110C9443318AE50E94E835811185
:1048B0000C94433185E40E94E83581110C94433116
:1048C0000E94BAF90E94B1AE0C94F32D83E50E94C8
:1048D000E835882311F40C94F32D0E94B13520E0C3
:1048E00030E04AE754E40F94AE0E0F94CB1360937C
:1048F000AB117093AC118093AD119093AE110C94E9
:10490000F32D9BE8C92E92E0D92E22E6E22E22E179
:10491000F22E10E0D6018D916D010E94E8358823BA
:1049200009F46DC0133009F063C00E94B1354B012A
:104930005C0120E030E040EA51E40F94490E87FF2B
:104940004EC0A501940160916E1270916F1280911A
:104950007012909171120F945E132B013C019B0118
:10496000AC0160918D0A70918E0A80918F0A9091AE
:10497000900A0F94AE0E60938D0A70938E0A809306
:104980008F0A9093900AA30192016091631870912D
:10499000641880916518909166180F94AE0E60931C
:1049A00063187093641880936518909366186091EB
:1049B00096187091971880919818909199180F9463
:1049C0004D0EA30192010F94AE0E0F94CB13609382
:1049D00096187093971880939818909399188092CE
:1049E0006E1290926F12A0927012B092711207C064
:1049F0000E94B135F70160837183828393831F5FC7
:104A0000F4E0EF0EF11C143009F084CF0E945CEA50
:104A10000C94F32D0E94BAF90E9493A50C94F32DE7
:104A200084918F010F5F1F4F882321F00E94393539
:104A3000F801F6CF60E08EE694E00E944FA561E0B9
:104A400087E694E00E944FA561E08CE594E00E9427
:104A50004FA561E08CE494E00E944FA560E083E400
:104A600094E00E944FA561E089E394E00E944FA585
:104A700061E08FE294E00E944FA561E087E294E05C
:104A80000E944FA561E089E194E00E944FA560E09B
:104A90008BE094E00E944FA560E08CEF93E00E94D1
:104AA0004FA561E08EEE93E00E944FA561E088ED96
:104AB00093E00E944FA560E087EC93E00E944FA531
:104AC0000C94F32D60E08091C9189091CA180E944F
:104AD000D1490C94F32D85E40E941736882319F0F0
:104AE0000E94A23503C085E40E94E835882361F066
:104AF000E0E5F8E284918F010F5F1F4F882321F0DA
:104B00000E943935F801F6CF81E40E9417368823D8
:104B100019F00E94A23503C081E40E94E835882381
:104B200061F0EEE3F5E084918F010F5F1F4F882362
:104B300021F00E943935F801F6CF0091C918109183
:104B4000CA18D8018D918D01882309F463CD0E9484
:104B50003935F7CFEAE5F5E084918F010F5F1F4FFC
:104B6000882321F00E943935F801F6CFE2E5F5E01F
:104B700084918F010F5F1F4F882321F00E943935E8
:104B8000F801F6CF029B03C009E013E002C00EE07B
:104B900013E0F80181918F01882319F00E943935C3
:104BA000F8CF8AE00E943935EAE4F5E084918F017C
:104BB0000F5F1F4F882321F00E943935F801F6CF8F
:104BC000069B03C009E013E002C00EE013E0D80129
:104BD0008D918D01882319F00E943935F8CF8AE034
:104BE0000E943935E2E4F5E084918F010F5F1F4F99
:104BF000882321F00E943935F801F6CF379903C098
:104C000009E013E002C00EE013E0F80181918F018A
:104C1000882309F4FFCC0E943935F7CF81E08093D7
:104C2000251580932415DFC783E50E941736882356
:104C300021F00E948135FB0102C0E0E0F0E08F012D
:104C4000112702301105CCF0E0ECF5E284918F01E0
:104C50000F5F1F4F882321F00E943935F801F6CFEE
:104C6000E4E7F5E084918F010F5F1F4F882309F47B
:104C7000BAC70E943935F801F5CF88E40E9417368B
:104C80008823A9F00E9481356A3A71053CF06530AD
:104C9000F1E07F072CF064E071E002C06AEA70E0A6
:104CA000F801EE0FFF1FE954F54F7183608386E42E
:104CB0000E9417368823A9F00E948135F801EE0F73
:104CC000FF1FE554F54F718360836F3F710519F045
:104CD00014F06FEF70E077FF02C060E070E0718366
:104CE000608382E40E941736882309F47CC70E94FF
:104CF00081356530710534F0683871052CF067E84E
:104D000070E002C065E070E0F801EE0FFF1FED54A7
:104D1000F54F7183608367C783E50E941736882348
:104D200041F00E9481358B01623071050CF05BC748
:104D300002C000E010E080E50E941736882359F099
:104D40000E94B1356B017C0120E030E0A9010F9495
:104D5000490E87FF04C060E070E0CB011CC02DEB62
:104D600037E346E855EBC701B6010F94A81487FD59
:104D70000AC02DEB37E346E855E3C701B6010F94AF
:104D8000490E181644F7A701960160E070E080E82C
:104D90009FE30F945E13000F111F000F111FF80106
:104DA000E25EFA4F60837183828393831CC783E53D
:104DB0000E941736882341F00E9481358B016031B3
:104DC00071050CF010C702C000E010E0C0901E0595
:104DD000D0901F05E0902005F09021052DEB37E3E2
:104DE00046E855EBC701B6010F94A81487FF09C028
:104DF000A701960160E070E080E89FE30F945E13E6
:104E00000DC02DEB37E346E855E3C701B6010F941B
:104E1000490E18166CF360E070E0CB0120E030E042
:104E2000A9010F9482124B015C01C0902205D09021
:104E30002305E0902405F09025052DEB37E346E8A7
:104E400055EBC701B6010F94A81487FF0BC0A7014B
:104E5000960160E070E080E89FE30F945E139B0191
:104E6000AC010DC02DEB37E346E855E3C701B601B1
:104E70000F94490E18165CF320E030E0A901C5013B
:104E8000B4010F9482124B015C0120E030E040E855
:104E90005FE30F9481126B017C012DEB37E346E851
:104EA00055EB0F94A81487FF03C0E6E9F5E00EC0A8
:104EB0002DEB37E346E855E3C701B6010F94490EE1
:104EC00018169CF332C00E943935F70184917F0196
:104ED0002FEFE21AF20A8111F6CFA5019401609139
:104EE0001E0570911F0580912005909121050F945A
:104EF000AE0E60931E0570931F058093200590935E
:104F00002105A501940160912205709123058091EE
:104F10002405909125050F94AE0E609322057093A1
:104F20002305809324059093250563E0000F111F4E
:104F30006A95E1F7F801EA5DFA4F80911E059091BC
:104F40001F05A0912005B091210580839183A28344
:104F5000B3838091220590912305A0912405B091FF
:104F6000250584839583A683B7833DC60E94E1A46B
:104F70003AC647E5E42E48E1F42E0BE812E054E08F
:104F8000D52ED00ED8018D918D010E94E835882351
:104F900039F00E94B135F701608371838283938376
:104FA000F4E0EF0EF11CD012EDCF1DC60E940EA44E
:104FB0001AC683E50E941736882309F414C60E9496
:104FC000813570931302609312020DC68DED90E04F
:104FD0000E941985811107C683E50E941736882330
:104FE00009F401C600919C1410E00E948135000F65
:104FF000111FF801E05FFD4F7183608380919C1465
:1050000090E08C01000F111F000F111F9801245F09
:105010003D4F7901880F991FFC01E05FFD4F6081D2
:105020007181072E000C880B990B0F944F0E2AE00C
:1050300037ED43E25CE30F94AE0EF801E456F54F12
:1050400020813181428153810F94AE0ED7016D933F
:105050007D938D939C931397C6C50E946BA2C3C585
:105060000E9499A1C0C585E40E941736882321F0CB
:105070000E9481357B0102C0E12CF12C83E40E9467
:105080001736882331F00E948135AF966FAFAF9706
:1050900004C025E0AF962FAFAF9785E50E94173685
:1050A000882319F00E94A23503C085E50E94E835E7
:1050B000EA968FAFEA97F7FC07C0812C912C06E1A6
:1050C000A02E03E4B02E06C0812C912C1CE8A12E4A
:1050D00012E4B12E83E50E941736882321F00E9446
:1050E000B1354B015C01E114F10411F410929C14F0
:1050F0000E9425452B013C0181E08E0D823018F481
:1051000000E713E00BC003E813E0D8018D918D0197
:10511000882309F47FCA0E943935F7CFF8018191BD
:105120008F01882319F00E943935F8CFE8AA8AE068
:105130000E9439350E945BDAF8A9F7FF04C08FE7B7
:1051400080939B1407C0EE2DEE0CFF0BE656FB4E32
:105150008FE78083C501B4010F94C613072E000C9E
:10516000880B990B0F944F0E29966FAF29972D96A8
:105170007FAF2D9761968FAF619765969FAF6597CB
:1051800081E080932002E5964CAE5DAE6EAE7FAEC0
:10519000E597EE964CAE5DAE6EAE7FAEEE97A19605
:1051A0001FAEA19720E4A5962FAFA5973CE1699685
:1051B0003FAF699746E46D964FAF6D97A9961FAEC6
:1051C000A997AA961FAEAA97AB961FAEAB97AC96BF
:1051D0001FAEAC9728961CAE1DAE1EAE1FAE289714
:1051E00024961CAE1DAE1EAE1FAE2497C12CD12C32
:1051F0007601AFE78A2E912CA12CB12C8FE790E09D
:10520000A0E0B0E088AF99AFAAAFBBAFE9961CAE03
:105210001DAE1EAE1FAEE99791E0E1969FAFE197FC
:105220001DAE1CAE10E0212C312C00E0A8A98A2F65
:10523000AA0F990BFC01E656FB4EC258DF4FF983CB
:10524000E883CE57D040880F991F880F991F9C0183
:1052500025523F4EAE963FAF2EAFAE97AF964FADB5
:10526000AF97042E000C550BE0965FAF4EAFE09762
:1052700080912002882309F414C10E9425456CAB5B
:105280007DAB8EAB9FAB80919814882309F4E5C069
:105290000E9414DB58A957FF09C01091DF1020901D
:1052A000E0103090E1100091E2100DC0AE96AEAD6E
:1052B000BFADAE971C9111962C90119712963C9011
:1052C000129713960C91212F322D432D502FA99612
:1052D0006FADA997AA967FADAA97AB968FADAB9706
:1052E000AC969FADAC970F94490E87FF0CC0A99662
:1052F0001FAFA997AA962FAEAA97AB963FAEAB97D2
:10530000AC960FAFAC97212F322D432D502FA19685
:105310006FADA197A5967FADA59769968FAD69975B
:105320006D969FAD6D970F94A814181664F4A1960E
:105330001FAFA197A5962FAEA59769963FAE699727
:105340006D960FAF6D97E196BFADE19729962FADA2
:1053500029972D963FAD2D9761964FAD6197659634
:105360005FAD6597612F722D832D902FBB2309F4BC
:105370005AC00F94A81418160CF06FC04CA95DA960
:105380006EA97FA94419550966097709DB01CA018D
:1053900088589341A109B109B7FD5FC088AD99ADA7
:1053A000AAADBBAD88199909AA09BB09E8A9B595A9
:1053B000A79597958795E7FF03C080939B1407C037
:1053C000C258DF4FE881F981CE57D0408083E996FB
:1053D0004CAF5DAF6EAF7FAFE9972996FFAD2997D0
:1053E000A996FFAFA9972D962FAD2D97AA962FAF0F
:1053F000AA9761963FAD6197AB963FAFAB97659625
:105400004FAD6597AC964FAFAC978CA99DA9AEA94F
:10541000BFA9E5968CAF9DAFAEAFBFAFE597E19664
:105420001FAEE1971AC00F94490E87FF16C08CA9D2
:105430009DA9AEA9BFA9E5962CAD3DAD4EAD5FAD22
:10544000E597821B930BA40BB50BAC01BD0148582B
:1054500053416109710977FF35C720E030E040EA28
:1054600051E429966FAD29972D967FAD2D976196C2
:105470008FAD619765969FAD65970F9482129B01E2
:10548000AC01612F722D832D902F0F94A814181644
:105490007CF4E6E8F6E084918F010F5F1F4F8111E5
:1054A00003C00E945BDA9FC30E943935F801F3CF35
:1054B0008CA99DA9AEA9BFA9EE962CAD3DAD4EAD70
:1054C0005FADEE97821B930BA40BB50BB7FD13C01A
:1054D0000E9464D88AE00E9439358CA99DA9AEA9A2
:1054E000BFA98053984FAF4FBF4FEE968CAF9DAF83
:1054F000AEAFBFAFEE978CA99DA9AEA9BFA9880F8B
:10550000991FAA1FBB1FE5962CAD3DAD4EAD5FADFB
:10551000E597821B930BA40BB50B84199509A6097B
:10552000B70981389F44A241B10568F0E8E6F6E08A
:1055300084918F010F5F1F4F882309F4B2CF0E941F
:105540003935F801F5CF4CAD5DADE0968EAD9FAD30
:10555000E097841795070CF0B1C0EBE0F6E084917A
:105560008F010F5F1F4F882321F00E943935F8010A
:10557000F6CF98A997FD03C006EE14E002C008E13B
:1055800013E0B80189EF95E00E9407E9B701A60191
:1055900085EF95E00E94D1E88AE00E943935B80194
:1055A00083EE95E00E9407E924964CAD5DAD6EADAB
:1055B0007FAD24978FED95E00E94D1E88AE00E94AC
:1055C0003935B8018DEC95E00E9407E928964CAD7D
:1055D0005DAD6EAD7FAD289789EC95E00E94D1E876
:1055E0008AE00E943935EA96AFADEA97AA2309F41A
:1055F000FAC2B8A9B7FF31C0C092DE18D092DF1846
:10560000E092E018F092E1182CEA35EC47E25EE314
:1056100024966CAD7DAD8EAD9FAD24970F94AE0EEC
:105620006093DA187093DB188093DC189093DD1880
:105630002CEA35EC47E25EE328966CAD7DAD8EAD8D
:105640009FAD28970F945E136093D6187093D71868
:105650008093D8189093D918C6C2C092A60AD09247
:10566000A70AE092A80AF092A90A2CEA35EC47E2D0
:105670005EE324966CAD7DAD8EAD9FAD24970F9407
:10568000AE0E6093AE0A7093AF0A8093B00A909307
:10569000B10A2CEA35EC47E25EE328966CAD7DADAD
:1056A0008EAD9FAD28970F945E136093AA0A7093F6
:1056B000AB0A8093AC0A9093AD0A95C20E94E1496F
:1056C000D7CD81E00E941A808EC280E00E941A80AD
:1056D0008AC2F80181918F01882319F00E9439351F
:1056E000F8CF8AE00E94393581E08093910A7BC22D
:1056F000D8018D918D01882319F00E943935F8CF9A
:105700008AE00E9439351092910A6DC2809152123E
:1057100090915312A0915412B091551289839A839B
:10572000AB83BC838091561290915712A09158126E
:10573000B09159128D839E83AF83B88780915A129E
:1057400090915B12A0915C12B0915D1289879A874B
:10575000AB87BC8786E50E94E835882341F08091BD
:10576000251290912612892B11F00F9479028AE567
:105770000E94E835882321F00E94B1350E9423DF82
:1057800083E50E94E835882331F00E94A235182F66
:105790000E940A8401C010E0F090DB14111103C0D4
:1057A000E0E5F8E21AC0F110FBCFE0ECF5E28491FD
:1057B0008F010F5F1F4F882321F00E943935F801B8
:1057C000F6CFEAE1F7E084918F010F5F1F4F882346
:1057D00039F30E943935F801F6CF84918F010F5FBC
:1057E0001F4F882321F00E943935F801F6CFF110C0
:1057F00003C060E273E002C06CE173E08CE097E00C
:105800000E9407E98AE00E943935E0E5F8E28491D8
:105810008F010F5F1F4F882321F00E943935F80157
:10582000F6CFEFEFF6E084918F010F5F1F4F8823D3
:1058300021F00E943935F801F6CFC090DC14D090E9
:10584000DD14E090DE14F090DF1420E030E0A901D8
:10585000C701B6010F94A81418164CF442E0C70112
:10586000B6010E9473858AE00E9439350CC0EAEFC8
:10587000F6E084918F010F5F1F4F882321F00E9473
:105880003935F801F6CF4CE050E062E572E1CE0127
:1058900001960F949115892B09F4A5C10E9493A537
:1058A000A2C189E40E941736882321F00E94813525
:1058B000062F01C00FEF8AE40E941736882321F0DB
:1058C0000E948135162F01C01FEF8AE50E94E8353E
:1058D000F82E811105C081E50E94E835D82E01C05F
:1058E000D12C07FD02C017FF03C0E0ECF5E205C0B4
:1058F000F1101AC0D11018C0F8CF84918F010F5F3A
:105900001F4F882321F00E943935F801F6CFE8E5D2
:10591000F7E084918F010F5F1F4F882309F463C163
:105920000E943935F801F5CF033018F0E0ECF5E2CC
:1059300006C01330D8F716C00E943935F80184919B
:105940008F010F5F1F4F8111F7CFE9E3F7E08491DB
:105950008F010F5F1F4F882309F445C10E9439351D
:10596000F801F5CFE02E000FFF08012F110F110BEA
:105970000E94B135D701AA0FBB1FDD2081F0FD01C8
:10598000EE0DFF1DE00FF11FEE0FFF1FEE0FFF1FCB
:10599000E350FE4E208131814281538103C020E0DB
:1059A00030E0A901EA0EFB1E0E0D1F1D000F111F96
:1059B000000F111F03501E4E0F948212F8016083D6
:1059C0007183828393830FC10E94B5C50CC1E0E54A
:1059D000F8E284918F010F5F1F4F882321F00E940E
:1059E0003935F801F6CFE4E9F7E084918F010F5FD4
:1059F0001F4F882321F00E943935F801F6CF8AE540
:105A00000E94E835882369F10E94B1356B017C0161
:105A100020E030E040EA51EC0F94A81487FF03C067
:105A2000EBE7F7E013C020E030E040EA51E4C701C3
:105A3000B6010F94490E18169CF3C092E014D09250
:105A4000E114E092E214F092E3140BC084918F0110
:105A50000F5F1F4F882309F4C6C00E943935F80133
:105A6000F5CF4091E0145091E1146091E2147091EF
:105A7000E31488E797E00E94D1E88AE0FAD7B3C040
:105A800080E50E941736882331F00E94913580937B
:105A9000A70511E001C010E083E50E9417368823B6
:105AA00029F00E94A2358093A80501C011110E941F
:105AB000D3A0E0E5F8E284918F010F5F1F4F8823A8
:105AC00019F0D7D7F801F7CF8091A80581110BC045
:105AD0000CEA13E0D8018D918D01882311F40C9408
