:100000000C94B00E0C94DD0E0C94DD0E0C94DD0EF1
:100010000C94DD0E0C94DD0E0C94DD0E0C94DD0EB4
:100020000C94DD0E0C94DD0E0C94DD0E0C94DD0EA4
:100030000C94DD0E0C942EDA0C94DD0E0C94DD0E77
:100040000C94DD0E0C94B67B0C94DD0E0C94DD0E3E
:100050000C94DD0E0C94DD0E0C9472840C947BD603
:100060000C94DD0E0C94FC2B0C94DD0E0C94DD0E28
:100070000C94DD0E0C94DD0E0C94DD0E0C94DD0E54
:100080000C94DD0E0C94DD0E0C94DD0E0C94DD0E44
:100090000C94DD0E0C94DD0E0C94DD0E0C9402D34A
:1000A0000C94DD0E0C94DD0E0C94DD0E0C94DD0E24
:1000B0000C94DD0E0C94DD0E0C94DD0E0C94DD0E14
:1000C0000C94DD0E0C94DD0E0C94DD0E0C94DD0E04
:1000D0000C94DD0E0C94DD0E0C94DD0E0C94DD0EF4
:1000E0000C94DD0E084AD73B3BCE016E84BCBFFDAD
:1000F000C12F3D6C74319ABD56833DDA3D00C77FF8
:1001000011BED9E4BB4C3E916BAAAABE0000008090
:100110003F05A84CCDB2D44EB93836A9020C50B91F
:10012000918688083CA6AAAA2ABE000000803F4DFE
:10013000383420582059205A20450043616E6E6F94
:100140007420656E746572207375626469723A20FA
:10015000004D3234004D3233202573006175746FC9
:1001600025692E67006572726F72207772697469F3
:100170006E6720746F2066696C65004E6F74205343
:1001800044207072696E74696E67002F00534420BA
:100190007072696E74696E67206279746520002ED2
:1001A0000044656C6574696F6E206661696C656496
:1001B0002C2046696C653A200046696C65206465B0
:1001C0006C657465643A002E006F70656E20666120
:1001D000696C65642C2046696C653A200057726929
:1001E00074696E6720746F2066696C653A20002E12
:1001F000006F70656E206661696C65642C204669CD
:100200006C653A20002E006F70656E206661696C27
:1002100065642C2046696C653A200046696C65204F
:1002200073656C6563746564002053697A653A2070
:100230000046696C65206F70656E65643A20002E1B
:10024000006F70656E206661696C65642C2046697C
:100250006C653A20004E6F77206672657368206681
:10026000696C653A20004E6F7720646F696E672075
:1002700066696C653A20002220706F73002220703E
:100280006172656E743A2200535542524F5554497B
:100290004E452043414C4C207461726765743A228C
:1002A00000747279696E6720746F2063616C6C20D2
:1002B0007375622D67636F64652066696C65732072
:1002C0007769746820746F6F206D616E79206C653A
:1002D00076656C732E204D4158206C6576656C20D8
:1002E00069733A0053442063617264206F6B006F3E
:1002F00070656E526F6F74206661696C656400761C
:100300006F6C756D652E696E6974206661696C65C8
:100310006400534420696E6974206661696C00480A
:10032000617264636F6465642044656661756C74B2
:100330002053657474696E6773204C6F61646564E3
:100340000053746F7265642073657474696E6773AB
:1003500020726574726965766564002044002049E6
:10036000002020204D33303120500050494420736C
:10037000657474696E67733A00205A002059002032
:10038000204D323036205800486F6D65206F66660C
:1003900073657420286D6D293A00204500205A00AD
:1003A00020580020420020540020204D32303520BB
:1003B0005300416476616E636564207661726961A1
:1003C000626C65733A20533D4D696E2066656564C5
:1003D0007261746520286D6D2F73292C20543D4D5A
:1003E000696E2074726176656C2066656564726101
:1003F000746520286D6D2F73292C20423D6D696E28
:10040000696D756D207365676D656E742074696DB7
:100410006520286D73292C20583D6D6178696D75B4
:100420006D205859206A65726B20286D6D2F7329D5
:100430002C20205A3D6D6178696D756D205A206AB7
:1004400065726B20286D6D2F73292C2020453D6D22
:100450006178696D756D2045206A65726B20286D25
:100460006D2F73290020540020204D32303420534A
:1004700000416363656C65726174696F6E3A205305
:100480003D616363656C65726174696F6E2C2054A5
:100490003D7265747261637420616363656C65723B
:1004A0006174696F6E00204500205A0020590020B9
:1004B000204D3230312058004D6178696D756D20C6
:1004C000416363656C65726174696F6E20286D6D40
:1004D0002F7332293A00204500205A00205900206D
:1004E000204D3230332058004D6178696D756D2094
:1004F00066656564726174657320286D6D2F73295C
:100500003A00204500205A0020590020204D393261
:1005100020580053746570732070657220756E6981
:10052000743A0053657474696E67732053746F7204
:100530006564004572726F723A006563686F3A00D5
:1005400053544F505045442E20005072696E7465CC
:10055000722073746F707065642064756520746FA9
:10056000206572726F72732E2046697820746865F8
:10057000206572726F7220616E6420757365204D04
:1005800039393920746F20726573746172742E204A
:100590002854656D70657261747572652069732089
:1005A00072657365742E20536574206974206166CA
:1005B0007465722072657374617274696E67290064
:1005C0004B494C4C45442E20005072696E74657244
:1005D0002068616C7465642E206B696C6C2829201E
:1005E00063616C6C656421006F6B00526573656EAE
:1005F000643A20002200556E6B6E6F776E20636F39
:100600006D6D616E643A2022004368616E676520FB
:1006100066696C616D656E74005A204F666673651D
:1006200074203A20007A5F6D61783A20007A5F6D1D
:10063000696E3A20005A204F6666736574005A202E
:100640004F6666736574206F6B007A5F6D696E3AF2
:100650002000795F6D696E3A2000785F6D696E3AAF
:100660002000205A3A0020593A0020436F756E74DA
:1006700020583A200020453A00205A3A0020593AA2
:1006800000583A000A000A20686172647761726556
:100690003A004649524D574152455F4E414D453A09
:1006A00056312E302E30342020537072696E7465AE
:1006B000722F6772626C206D617368757020666F4F
:1006C000722067656E36204649524D574152455F4C
:1006D00055524C3A68747470733A2F2F6769746876
:1006E00075622E636F6D2F556C74696D616B6572E9
:1006F0002F4D61726C696E2050524F544F434F4CD6
:100700005F56455253494F4E3A312E30204D4143AA
:1007100048494E455F545950453A493370726F57B6
:100720002045585452554445525F434F554E543A14
:100730003120555549443A30303030303030302D4A
:10074000303030302D303030302D303030302D30B2
:1007500030303030303030303030300A00504933B3
:100760002050726F205720204F66662E005049336C
:100770002050726F2057202072656164792E0042EC
:10078000656420646F6E652E0020423A0020453A71
:1007900000543A004265642048656174696E672EB2
:1007A0000048656174696E6720646F6E652E002075
:1007B000573A0020453A00543A0048656174696E22
:1007C000672E2E2E002042403A0020403A00202F73
:1007D000003A00205400202F0020423A00202F0031
:1007E0006F6B20543A002569206D696E2C202569B5
:1007F0002073656300456E642066696C65206C69D2
:10080000737400426567696E2066696C65206C6967
:100810007374004E6F206D6F76652E005049332043
:1008200050726F2057202072656164792E005265E6
:1008300073756D696E67207072696E7400576169B7
:100840007420666F7220757365722E2E2E00536CA5
:100850006565702E2E2E00FFFFFF00005243000042
:100860003943000043430000A0400000A0400000C6
:100870000040000000000000000000000000000038
:1008800000000000000000000000000052430000D3
:10089000394300004343256920686F757273202532
:1008A00069206D696E7574657300446F6E652070A4
:1008B00072696E74696E672066696C650053544F87
:1008C000505045442E20005072696E74657220733A
:1008D000746F707065642064756520746F20657234
:1008E000726F72732E204669782074686520657275
:1008F000726F7220616E6420757365204D393939CD
:1009000020746F20726573746172742E2028546590
:100910006D7065726174757265206973207265739C
:1009200065742E2053657420697420616674657245
:100930002072657374617274696E6729004E6F204E
:100940004C696E65204E756D6265722077697468BA
:1009500020636865636B73756D2C204C6173742024
:100960004C696E653A20004E6F20436865636B7377
:10097000756D2077697468206C696E65206E756D81
:100980006265722C204C617374204C696E653A204C
:1009900000636865636B73756D206D69736D617459
:1009A00063682C204C617374204C696E653A20009A
:1009B0004C696E65204E756D626572206973206E9C
:1009C0006F74204C617374204C696E65204E756D98
:1009D0006265722B312C204C617374204C696E65FA
:1009E0003A20004D31313000446F6E6520736176DE
:1009F000696E672066696C652E006F6B004D323939
:100A0000002020506C616E6E65724275666665727C
:100A100042797465733A20002046726565204D6501
:100A20006D6F72793A20004E6F762032342032306A
:100A3000313700436F6D70696C65643A2000286738
:100A4000656565746563682C20493320636F6E6645
:100A500069672900207C20417574686F723A200014
:100A60004E6F7620323420323031372031333A31F4
:100A7000313A333300204C617374205570646174D3
:100A800065643A2000312E302E3034004D61726C96
:100A9000696E0020536F66747761726520526573CA
:100AA000657400205761746368646F6720526573D2
:100AB0006574002042726F776E206F7574205265E6
:100AC000736574002045787465726E616C205265A0
:100AD00073657400506F776572557000737461723E
:100AE00074002200656E717565696E6720220022B0
:100AF00000656E717565696E6720220020746F6FE6
:100B0000206C6F6E6720657874727573696F6E20E4
:100B100070726576656E7465640020636F6C642026
:100B2000657874727573696F6E2070726576656E24
:100B3000746564007C3C3E5E2B3D3F2F5B5D3B2C2F
:100B40002A225C0045303A20005A3A2000593A20C7
:100B500000583A20004D53312C4D53322050696ECD
:100B6000730A0024F404D9201BC40C5C0E9804C43E
:100B7000095F0265077101F405F900FB04B3004841
:100B8000048700C10369005803550003034500BEF4
:100B9000023A008402310053022A0029022500048F
:100BA000022000E4011C00C8011900AF01170098E1
:100BB0000114008401130071011000610110005143
:100BC000010E0043010D0036010B002B010B00202C
:100BD000010B00150109000C01090003010800FBCD
:100BE000000800F3000800EB000700E4000600DE48
:100BF000000600D8000600D2000600CC000500C7A1
:100C0000000500C2000500BD000400B9000400B5E5
:100C1000000400B1000400AD000400A9000400A518
:100C2000000300A20003009F0004009B0003009843
:100C30000003009500020093000300900003008D64
:100C40000002008B0003008800020086000200847E
:100C5000000300810002007F0002007D0002007B93
:100C600000020079000200770001007600020074A3
:100C700000020072000100710002006F0002006DAE
:100C80000001006C0002006A0001006900020067B8
:100C900000010066000100650001006400020062BE
:100CA00000010061000100600001005F0002005DC2
:100CB0000001005C0001005B0001005A00010059C6
:100CC00000010058000100570001005600010055C6
:100CD00000010054000100530000005300010052C5
:100CE00000010051000100500001004F0001004EC2
:100CF0000000004E0001004D0001004C0001004BBF
:100D00000000004B0001004A0001004900010048BA
:100D100000000048000100470001004600000046B6
:100D200000010045000000450001004400010043AF
:100D300000000043000100420000004200010041A9
:100D400000000041000100400001003F0000003FA2
:100D50000001003E0000003E0001003D0000003D9B
:100D60000001003C0000003C0000003C0001003B92
:100D70000000003B0001003A0000003A0001003989
:100D80000000003900010038000000380000003881
:100D90000001003700000037000100360000003677
:100DA000000000360001003500000035000000356D
:100DB0000001003400000034000000340001003362
:100DC0000000003300000033000100320000003258
:100DD000000000320001003100000031000000314D
:100DE0000001003000000030000000300001002F42
:100DF0000000002F0000002F0000002F0001002E37
:100E00000000002E0000002E0001002D0000002D2B
:100E10000000002D0000002D0001002C0000002C1F
:100E20000000002C0000002C0001002B0000002B13
:100E30000000002B0000002B0001002A0000002A07
:100E40000000002A0000002A0001002900000029FB
:100E500000000029000000290000002900010028EE
:100E600000000028000000280000002800000028E2
:100E700000010027000000270000002700000027D5
:100E800000000027000100260000002600000026C8
:100E900000000026000000260001002500000025BB
:100EA00000000025000000250000002500000025AE
:100EB00000010024000000240000002400000024A1
:100EC0000000002400010023000000230000002394
:100ED0000000002300000023000000230000002386
:100EE0000001002200000022000000220000002279
:100EF000000000220000002200010021000000216B
:100F0000000000210000002100000021000000215D
:100F1000000000210001002000000020000000204F
:100F20000000002000000020000000200000002041
:100F3000000000200001001F0000001F0000001F33
:100F40000000001F0000001F0000001F0000001F25
:100F50000001001E0000001E0000001E0000001E18
:100F600000000024F4D43050C38E20C2A240178267
:100F70008B7011127A910D816CD90AA861E108C7B2
:100F8000586607615143061E4B5D05C145A7041A0B
:100F9000411104093D9803713931034036DB026584
:100FA000339102D4305402802E1D02632CEE017561
:100FB0002AC501B028A001102781018F2564012BCB
:100FC000244B01E0223401AC211F018D200D018052
:100FD0001FFC00841EED00971DDF00B81CD200E648
:100FE0001BC600201BBC00641AB200B219A8000A7C
:100FF00019A0006A189900D117910040178B00B50D
:1010000016840031167E00B31579003A157300C7B7
:10101000146F0058146A00EE1366008813630025ED
:10102000135E00C7125B006C12570015125400C10A
:1010300011510070114F0021114B00D61049008D45
:101040001047004610440002104200C00F400080CC
:101050000F3E00420F3C00060F3B00CB0E380093C2
:101060000E37005C0E3500270E3400F30D3200C140
:101070000D3100900D3000600D2E00320D2D000559
:101080000D2C00D90C2B00AE0C2900850C29005C1E
:101090000C2700350C27000E0C2600E80B2400C49A
:1010A0000B2400A00B23007D0B23005A0B210039D9
:1010B0000B2100180B2000F80A1F00D90A1E00BBE4
:1010C0000A1E009D0A1D00800A1D00630A1C0047BD
:1010D0000A1B002C0A1B00110A1A00F7091A00DD6E
:1010E000091900C4091900AB091900920917007BFE
:1010F000091800630917004C09160036091600206C
:101100000916000A091500F5081500E0081400CCBE
:10111000081400B8081400A4081400900813007DF7
:101120000812006B08130058081200460812003419
:10113000081100230811001208110001081100F025
:10114000071000E0071000D0071000C0071000B023
:10115000070F00A107100091070E0083070F00740E
:10116000070F0065070E0057070E0049070E003BEA
:10117000070D002E070E0020070D0013070D0006B7
:10118000070D00F9060C00ED060D00E0060C00D47A
:10119000060C00C8060C00BC060C00B0060C00A42F
:1011A000060B0099060C008D060B0082060B0077DB
:1011B000060B006C060B0061060A0057060B004C7C
:1011C000060A0042060A0038060A002E060A002413
:1011D000060A001A060A001006090007060A00FDA2
:1011E000050900F4050900EB050900E2050900D92D
:1011F000050900D0050900C7050900BE050900B5AD
:10120000050800AD050800A50509009C0508009427
:101210000508008C050800840508007C050800749A
:101220000508006C050700650508005D0507005608
:101230000508004E0507004705070040050800386F
:10124000050700310507002A050700230507001CD4
:10125000050600160507000F050700080506000231
:10126000050700FB040600F5040700EE040600E88D
:10127000040600E2040700DB040600D5040600CFE4
:10128000040600C9040600C3040600BD040600B736
:10129000040600B1040500AC040600A6040600A084
:1012A0000405009B04060095040500900406008ACE
:1012B00004050085040500800406007A0405007515
:1012C000040500700405006B040500660405006158
:1012D0000405005C04050057040500520405004D98
:1012E00004050048040500430405003E0404003AD8
:1012F00004050035040500300404002C0405002713
:10130000040400230405001E0404001A040400164B
:10131000040500110404000D040400090405000480
:1013200004040000040400FC030400F8030400F4B7
:10133000030400F0030400EC030400E8030400E4E9
:10134000030400E0030400DC030400D8030400D419
:10135000030400D0030400CC030400C8030300C549
:10136000030300656E6473746F7073206869743A68
:10137000205A00205A3A00656E6473746F707320AF
:101380006869743A20590020593A00656E64737494
:101390006F7073206869743A20580020583A0065CD
:1013A0006E6473746F7073206869743A20004572BC
:1013B000723A204D415854454D5020424544005406
:1013C000656D7065726174757265206865617465BC
:1013D0006420626564207377697463686564206F54
:1013E00066662E204D415854454D502074726967F1
:1013F0006765726564202121004572723A204D496B
:101400004E54454D50003A204578747275646572AB
:10141000207377697463686564206F66662E204D5B
:10142000494E54454D502074726967676572656412
:101430002021004572723A204D415854454D5000CC
:101440003A204578747275646572207377697463A5
:10145000686564206F66662E204D415854454D5096
:1014600020747269676765726564202100202D20F1
:10147000496E76616C696420657874727564657212
:10148000206E756D62657220210070012C01900143
:101490002701B0012201C0011D01F0011801100255
:1014A000130130020E016002090190020401C00222
:1014B000FF000003FA004003F5008003F000D003B2
:1014C000EB002004E6007004E100E004DC004005CD
:1014D000D700C005D2004006CD00D006C800800766
:1014E000C3003008BE00F008B900C009B400B00A5B
:1014F000AF00B00BAA00D00CA500000EA000500F4A
:101500009B00C01096005012910000148C00C01572
:101510008700B0178200B0197D00D01B7800001E34
:10152000730040206E0090226900F0246400402780
:101530005F0090295A00E02B5500102E50002030FB
:101540004B0010324600E033410090353C0010372C
:10155000370070383200A0392D00B03A2800A03B87
:101560002300603C1E00103D1900903D1400103E09
:101570000F00703E0A00C03E0500003F00005049C9
:1015800044204175746F74756E652066696E697369
:10159000686564212050757420746865206C6173DF
:1015A00074204B702C204B6920616E64204B6420AA
:1015B000636F6E7374616E74732066726F6D2061F9
:1015C000626F766520696E746F20436F6E6669671F
:1015D00075726174696F6E2E6800504944204175C0
:1015E000746F74756E65206661696C656421207422
:1015F000696D656F75740020403A006F6B20543A36
:10160000006F6B20423A00504944204175746F745A
:10161000756E65206661696C6564212054656D7026
:101620006572617475726520746F6F206869676890
:1016300000204B643A2000204B693A2000204B7078
:101640003A200020436C6173736963205049442041
:10165000002054753A2000204B753A2000206D611F
:10166000783A2000206D696E3A200020643A20000C
:1016700020626961733A20002D2D3A2D2D002D2D09
:101680002D00534400205900012000012000416238
:101690006F7574004E6F2053442063617264005074
:1016A00072696E742066726F6D2053440053746FBC
:1016B00070207072696E7400526573756D6520706C
:1016C00072696E74005061757365207072696E7412
:1016D00000436F6E74726F6C00507265706172655A
:1016E0000054756E6500496E666F207363726565A0
:1016F0006E004D61696E00052E2E004D61696E0011
:101700004D3234004D3233202573004D383420588B
:101710002059205A204500526573746F7265206607
:1017200061696C73616665004C6F6164206D656D05
:101730006F72790053746F7265206D656D6F727989
:101740000046696C616D656E74004D6F74696F6EF3
:101750000054656D7065726174757265004D6169E4
:101760006E0046696C2E204469612E203100466966
:101770006C2E204469612E2031004F6666004F6E4A
:1017800020004F6666004F6E20004520696E206D78
:101790006D3300436F6E74726F6C004573746570C7
:1017A000732F6D6D004573746570732F6D6D005AE6
:1017B00073746570732F6D6D005A73746570732F39
:1017C0006D6D005973746570732F6D6D005973746E
:1017D0006570732F6D6D005873746570732F6D6D28
:1017E000005873746570732F6D6D00412D726574B0
:1017F0007261637400412D7265747261637400419B
:101800006D6178206500416D6178206500416D61F2
:1018100078207A00416D6178207A00416D617820EE
:101820007900416D6178207900416D617820780000
:10183000416D61782078005654726176206D696E32
:10184000005654726176206D696E00566D696E00A7
:10185000566D696E00566D6178206500566D617831
:10186000206500566D6178207A00566D6178207A87
:1018700000566D6178207900566D617820790056A8
:101880006D6178207800566D617820780056652D5E
:101890006A65726B0056652D6A65726B00567A2D0B
:1018A0006A65726B00567A2D6A65726B005678799C
:1018B0002D6A65726B005678792D6A65726B0041EE
:1018C0006363656C00416363656C00436F6E7472A3
:1018D0006F6C0050726568656174204142532063EB
:1018E0006F6E66005072656865617420504C4120CF
:1018F000636F6E66005049442D43005049442D43A8
:10190000005049442D44005049442D44005049445E
:101910002D49005049442D49005049442D50005054
:1019200049442D50002002204661637400200220AB
:1019300046616374002002204D6178002002204D32
:101940006178002002204D696E002002204D696EF2
:10195000004F6666004F6E20004F6666004F6E2097
:10196000004175746F74656D700046616E20737010
:101970006565640046616E2073706565640042654C
:101980006400426564004E6F7A7A6C65004E6F7A2F
:101990007A6C6500436F6E74726F6C0053746F7273
:1019A00065206D656D6F7279004265640042656403
:1019B000004E6F7A7A6C65004E6F7A7A6C650046DD
:1019C000616E2073706565640046616E207370659A
:1019D00065640054656D706572617475726500535D
:1019E000746F7265206D656D6F7279004265640079
:1019F000426564004E6F7A7A6C65004E6F7A7A6C3D
:101A0000650046616E2073706565640046616E20F6
:101A100073706565640054656D706572617475728C
:101A200065004D6F76652061786973004D38300030
:101A300053776974636820706F776572206F6E00EA
:101A40004D38310053776974636820706F77657221
:101A5000206F666600436F6F6C646F776E00507224
:101A60006568656174204142530050726568656124
:101A70007420504C410053657420686F6D65206F71
:101A800066667365747300473238004175746F2061
:101A9000686F6D65004D38340044697361626C6530
:101AA000207374657070657273004D61696E004DCE
:101AB0006F766520302E316D6D004D6F766520316B
:101AC0006D6D004D6F76652031306D6D0050726523
:101AD00070617265004578747275646572004D6F4F
:101AE0007665205A004D6F76652059004D6F7665FA
:101AF0002058004D6F7665206178697300457874D1
:101B00007275646572005A00590058005072656819
:101B100065617420414253204265640050726568DB
:101B200065617420414253203100507265706172CA
:101B300065005072656865617420504C41204265B3
:101B400064005072656865617420504C412031001A
:101B500050726570617265004D36303000436861C7
:101B60006E67652066696C616D656E7400466C6FAA
:101B700077203000466C6F77203000466C6F77001E
:101B8000466C6F770046616E207370656564004631
:101B9000616E20737065656400426564004265642F
:101BA000004E6F7A7A6C65004E6F7A7A6C650053DE
:101BB00070656564005370656564004D61696E0011
:101BC000436172642072656D6F7665640043617273
:101BD0006420696E736572746564004D3330302023
:101BE000533639382050323030004D3330302053A6
:101BF00036353920503230300000002100240027D3
:101C0000002A002D0030003300010100000401070C
:101C1000010A0100002200250028002B002E0031BF
:101C200000340002010000050108010B0100002042
:101C3000002300260029002C002F003200000100A4
:101C40000003010601090105050505070508080847
:101C500008020202020A0A0808040404040101013D
:101C60000101010101030303030303030304070745
:101C7000070C0C0C0C0C0C0C0C02020202060606E3
:101C800006060606060B0B0B0B0B0B0B0B010210CB
:101C90002020080810204010204080020102010886
:101CA0000402010102040810204080804020100836
:101CB000040201800402018040201008040201088F
:101CC00004020101020408102040800102040810EF
:101CD0002040800000090A02080B0C0D07060304CF
:101CE00001000000000000000000000000000000F3
:101CF00000000000000000000000000000000011D3
:101D0000100F0000000000000000000000000000B4
:101D100000000000000000000002494E46494E4904
:101D200054594E414ECDCCCC3D0AD7233C17B7D1A8
:101D30003877CC2B329595E6241FB14F0A0000204E
:101D4000410000C84200401C4620BCBE4CCA1B0ECD
:101D50005AAEC59D7400902C452FE9C671D2402F14
:101D600011241FBECFEFD1E2DEBFCDBF00E00CBF1C
:101D700015E0A0E0B2E0ECECF5EC01E00BBF02C036
:101D800007900D92A431B107D9F71BBE13E1A4E16E
:101D9000B5E001C01D92A239B107E1F71DE1CEE522
:101DA000DDE104C02297FE010E948CE2C635D10716
:101DB000C9F70E9488D90C94DAE20C940000A0E0E4
:101DC000B0E0E5EEFEE00C94A9E2EC015B016115E8
:101DD000710519F0FB0191838083F9908F2D90E0BC
:101DE0000E9490E2892BC9F7FDE2FF1621F4F990D9
:101DF000EE24E39405C02BE2F21609F4F990EE24E8
:101E00008E0101501040C8016AE17DE143E050E0DD
:101E100072D2892BF9F48E010E5F1F4FC8016DE15C
:101E20007DE145E050E067D2892B19F48E01095F0E
:101E30001F4FA114B10419F0F50111830083E0FCD8
:101E400004C070E090E080E813C070E090E080E8AB
:101E50006FEF07C1C80162E27DE143E050E04BD281
:101E6000892B69F4A114B10429F470E090E080ECAE
:101E70006FE7F7C02296F501D183C083F6CF88249F
:101E8000992440E050E060E070E0EF2DE053EA304C
:101E9000A0F5F2E0EF2A8E2D90E09C0128703070C2
:101EA000E2FE06C0232B79F50894811C911C2BC0FF
:101EB000232B19F0089481089108DB01CA0112E074
:101EC000880F991FAA1FBB1F1A95D1F7480F591FDA
:101ED0006A1F7B1F440F551F661F771F4E0F511D32
:101EE000611D711D483929E9520729E9620729E175
:101EF000720748F084E0E82A06C0EE3F31F4E3FCC4
:101F000039C098E0E92AF990C0CFE53311F0E53106
:101F100089F529912D3219F4E0E1EE2A05C02B3222
:101F200019F081E090E003C0299182E090E0E22F77
:101F3000E053EA3018F0C81BD90B1CC020E030E099
:101F4000FCE020383F075CF4C901880F991F880F17
:101F5000991F280F391F220F331F2E0F311DE991B2
:101F6000E053EA3068F3E4FE03C0309521953F4F1B
:101F7000820E931ECE2CDD24E1FE07C0A114B10415
:101F800021F02197F501D183C083CB01BA010E94D2
:101F9000F5DE7B018C01F3E0CF22DD2423E0C216C5
:101FA000D10421F417FB109517F91095570168011A
:101FB000C801B70120E030E040E050E00E9455DE6B
:101FC000882309F44AC097FE0DC029E3E22E2DE1D3
:101FD000F22E9094819491089394C0E2D0E000E0B6
:101FE00010E012C091E5E92E9DE1F92EF6CFF70140
:101FF0002591359145915491C601B5010E9435E175
:102000005B016C018C1A9D0A8C169D0684F7D59590
:10201000C7950F5F1F4F0630110529F08CEF9FEF1A
:10202000E80EF91EF1CFC501D6017C018D018C2D82
:10203000880F8D2D881F8F3F51F0C601B50120E01C
:1020400030E040E050E00E9455DE882331F482E227
:1020500090E090939113809390137E2D9F2D802F6D
:10206000612F272F392F482F562FB901CA01CDB71D
:10207000DEB7ECE00C94C5E22F923F925F926F9234
:102080007F928F929F92AF92BF92CF92DF92EF9208
:10209000FF920F931F93CF93DF938C011B01EA01F3
:1020A0006115710519F0FB0191838083209749F038
:1020B000CE010297839728F020E030E040E050E026
:1020C000F6C0F801A1908F018A2D90E00E9490E265
:1020D000892BB9F7FDE2AF1631F4F801A1908F0119
:1020E0005524539407C0FBE2AF1619F4F801A190F0
:1020F0008F015524209719F0C031D105C1F4F0E3C8
:10210000AF1679F4F8018081883711F0883549F4E9
:10211000F801A1800E5F1F4FF2E05F2AC0E1D0E01E
:1021200006C0209721F480E3A816E9F427C0C83040
:10213000D10531F1C930D10524F4C230D10531F5D2
:102140000CC0CA30D10589F0C031D105F9F4C12CD9
:10215000D12CE12CB8E0FB2E28C0C12CD12CE12CD5
:10216000A0E4FA2E22C0CAE0D0E0FCECCF2EFCECBA
:10217000DF2EFCECEF2EFCE0FF2E17C0C8E0D0E015
:10218000C12CD12CE12CE0E1FE2E0FC09E01442792
:1021900037FD4095542F60E070E080E090E80E94A9
:1021A0004DE2C901DA016C017D0120E030E040E040
:1021B00050E060E03E01882477FC8094982C70ED1C
:1021C000B72EBA0CE9E0EB1570F48A2D81548A31F0
:1021D00018F499ECB92E06C08A2D81568A3150F533
:1021E00089EAB82EBA0C8B2D90E08C179D0714F558
:1021F0006F3FE1F0C216D306E406F506B0F0CA015F
:10220000B901A40193010E9407E29B01AC012B0DCF
:10221000311D411D511D2130F0E03F07F0E04F0717
:10222000F0E85F0710F461E001C06FEFF801A190E2
:102230008F01C5CF2114310481F0662331F00150A4
:102240001040F1011183008308C051FE1AC00250F2
:102250001040F1011183008314C067FF12C050FCCD
:1022600005C02FEF3FEF4FEF5FE704C020E030E005
:1022700040E050E882E290E09093911380939013B5
:1022800016C050FE08C050954095309521953F4F9F
:102290004F4F5F4F0CC057FF0AC082E290E090930F
:1022A0009113809390132FEF3FEF4FEF5FE7B9014A
:1022B000CA01DF91CF911F910F91FF90EF90DF90B6
:1022C000CF90BF90AF909F908F907F906F905F90D6
:1022D0003F902F900895FB01DC0105900D920020A6
:1022E000E1F70895FC0105900020E9F780959095AD
:1022F0008E0F9F1F0895FB01DC014150504088F074
:102300008D9181341CF08B350CF4805E65916134C5
:102310001CF06B350CF4605E861B611171F3990B38
:102320000895881BFCCFFB01DC014150504048F070
:1023300005900D920020C9F701C01D9241505040F8
:10234000E0F70895FB0155915523A9F0BF01DC0189
:102350004D9145174111E1F759F4CD010590002049
:1023600049F04D9140154111C9F3FB014111EFCFE7
:1023700081E090E001970895FB01DC0104C08D919C
:102380000190801921F441505040C8F7881B990BE7
:102390000895FB01DC0102C001900D9241505040B4
:1023A000D8F70895FB01DC018D9181341CF08B3549
:1023B0000CF4805E619161341CF06B350CF4605E4E
:1023C000861B611189F3990B0895FB01DC010D90C7
:1023D0000020E9F7119701900D920020E1F7089590
:1023E000FC018191861721F08823D9F79927089558
:1023F0003197CF010895FB01DC018D910190801987
:102400000110D9F3990B0895FB01DC0101900D92A5
:102410000020E1F70895FB01DC014150504030F00D
:102420008D910190801919F40020B9F7881B990B40
:102430000895FB01DC014150504048F001900D929D
:102440000020C9F701C01D9241505040E0F70895A7
:10245000AEE0B0E0EEE2F2E10C94B1E20E891F8949
:102460008EE08C831A8309838FEF9FE79E838D8391
:102470009E01265E3F4FCE010196688D798DA901A0
:102480000AD02F813885020F131FF80110822E9673
:10249000E4E00C94CDE2ABE0B0E0E1E5F2E10C94D5
:1024A000A3E23C012B015A01FC01178216828381B1
:1024B00081FD03C06FEF7FEFB9C19AE0892E1E0145
:1024C0000894211C311CF3012381F20123FD859125
:1024D00023FF81912F01882309F4A5C1853239F4A6
:1024E00023FD859123FF81912F01853221F490E016
:1024F000B301B7D1E8CF982FFF24EE249924FFE150
:10250000FF15D0F09B3269F09C3228F4903259F0DC
:10251000933291F40EC09D3249F0903369F441E05A
:1025200024C052E0F52A84E0F82A28C098E0F92A6D
:1025300025C0E0E1FE2A22C0F7FC29C0892F805384
:102540008A3070F4F6FE05C0989C902C1124980EE9
:1025500015C0E89CE02C1124E80EF0E2FF2A0EC022
:102560009E3229F4F6FC5FC140E4F42A07C09C3691
:1025700019F450E8F52A02C0983649F4F20123FD17
:10258000959123FF91912F01992309F0B8CF892FBD
:102590008554833018F08052833038F444E050E0A2
:1025A000A40EB51E5FE359830FC0933631F0933705
:1025B00079F0933509F052C01FC0F50180818983FD
:1025C00042E050E0A40EB51E610101E010E011C030
:1025D000F501C080D180F6FC03C06FEF7FEF02C031
:1025E000692D70E042E050E0A40EB51EC6012ED168
:1025F0008C015FE7F52213C0F501C080D180F6FCA5
:1026000003C06FEF7FEF02C0692D70E042E050E041
:10261000A40EB51EC6010FD18C0150E8F52AF3FEB9
:1026200006C018C080E290E0B3011BD1EA948E2D61
:1026300090E008171907B0F30DC0F601F7FC85917B
:10264000F7FE81916F0190E0B3010BD1E110EA94A4
:10265000015010400115110581F7E2C0943611F0C8
:10266000993661F5F7FE08C0F5012081318142817C
:10267000538184E090E00AC0F501808191819C0142
:10268000442737FD4095542F82E090E0A80EB91EF4
:102690009FE6F92257FF09C0509540953095219546
:1026A0003F4F4F4F5F4FE0E8FE2ACA01B901A10139
:1026B0002AE030E002D1D82ED2183FC0953729F455
:1026C0001F2D1F7E2AE030E01DC01F2D197F9F3671
:1026D00061F0903720F4983509F0A5C00FC090370D
:1026E00039F0983709F09FC004C028E030E00AC0F4
:1026F000106114FD146020E130E004C014FD166088
:1027000020E132E017FF08C0F5016081718182810C
:10271000938144E050E008C0F50180819181BC01C3
:1027200080E090E042E050E0A40EB51EA101C5D0CB
:10273000D82ED2188FE7F82EF122F6FE0BC05EEFEE
:10274000F522D91438F4F4FE07C0F2FC05C08FEE70
:10275000F82202C01D2D01C0192DF4FE0DC0FE018E
:10276000ED0DF11D8081803319F499EEF92208C036
:102770001F5FF2FE05C003C08F2D867809F01F5F32
:102780000F2DF3FC13C0F0FE0EC01E1510F09D2C93
:102790000AC09D2C9E0C911A1E2D05C080E290E06F
:1027A000B3015FD01F5F1E15C8F304C01E1510F4DF
:1027B000E11A01C0EE2404FF0EC080E390E0B301F3
:1027C00050D002FF1BC001FD03C088E790E00EC09F
:1027D00088E590E00BC0802F867881F001FF02C071
:1027E0008BE201C080E2F7FC8DE290E0B30139D0CA
:1027F00005C080E390E0B30134D09A94D914C8F3B3
:10280000DA94F101ED0DF11D808190E0B30129D042
:10281000DD20B1F705C080E290E0B30122D0EA9458
:10282000EE20C9F750CEF30166817781CB012B965C
:10283000E2E10C94BFE2FC01059061507040011090
:10284000D8F7809590958E0F9F1F0895FC016150D9
:10285000704001900110D8F7809590958E0F9F1FC2
:1028600008950F931F93CF93DF938C01EB018B811E
:1028700081FF1BC082FF0DC02E813F818C819D8115
:102880002817390764F4E881F9810193F983E88313
:1028900006C0E885F985802F1995892B31F48E8142
:1028A0009F8101969F838E8302C00FEF1FEFC801A7
:1028B000DF91CF911F910F910895FA01AA27283037
:1028C00051F1203181F1E8946F936E7F6E5F7F4FFD
:1028D0008F4F9F4FAF4FB1E03ED0B4E03CD0670F79
:1028E000781F891F9A1FA11D680F791F8A1F911DCC
:1028F000A11D6A0F711D811D911DA11D20D009F41C
:1029000068943F912AE0269F11243019305D31935D
:10291000DEF6CF010895462F4770405D4193B3E046
:102920000FD0C9F7F6CF462F4F70405D4A3318F0ED
:10293000495D31FD4052419302D0A9F7EACFB4E09E
:10294000A6959795879577956795BA95C9F7009756
:102950006105710508959B01AC010A2E06945795F7
:10296000479537952795BA95C9F7620F731F841F4E
:10297000951FA01D0895FC01128213820895FC0189
:102980008381882311F081E082830895FC01828194
:10299000811112820895CF93DF93DC01FC01EB5586
:1029A000FE4F808191810097C9F1019791838083C7
:1029B000ED01CC5ADF4FFD01ED58FF4F8BE1019047
:1029C00009928150E1F7FD01EE5AFF4FAF58BF4F1A
:1029D0008D919C911197A157B04091838083FD0107
:1029E000ED58FF4F20E030E0AD014B555E4F10C079
:1029F0002F5F3F4FEF01DF015F968BE10D90099252
:102A00008150E1F7858D968D329791838083B196C1
:102A1000DA018D919C912817390750F3DF91CF91FE
:102A20000895FC018FE994E0918380838781882356
:102A300021F0CF0104960C94D06D0895CF92DF92CF
:102A4000EF92FF920F931F93DF93CF93CDB7DEB733
:102A50006F970FB6F894DEBF0FBECDBF8C016B0130
:102A6000095A1F4FD8018C9107551040882321F433
:102A70002FE2E22EF12C03C090E5E92EF12CE00EBE
:102A8000F11E8FE994E09A8389831C821B82188649
:102A90001D82B7016C5F7F4FCE010596A60121E034
:102AA0000E94BC74882391F5EAE3F5E0949108C094
:102AB0008091C00085FFFCCF9093C6003196949121
:102AC0009923B1F7EBE3F1E0949108C08091C00045
:102AD00085FFFCCF9093C600319694919923B1F76E
:102AE00009C08091C00085FFFCCF0894C11CD11C97
:102AF0009093C600F6019081992399F78091C000C8
:102B000085FFFCCF8AE08093C6005AC0F801EB55E0
:102B1000FE4F208131812A30310508F040C02F5FFF
:102B20003F4F3183208321503040F90185E0EE0F83
:102B3000FF1F8A95E1F7E21BF30BED58FF4FE00F03
:102B4000F11F13C0AF01415E5F4FBF018BE1DB019D
:102B50000D90BD01DA010D92AD018150C1F7929146
:102B600082913296968F858F7F9721503040BFEFAC
:102B70002E3F3B0739F7D801AD58BF4FF7013496C8
:102B80008BE101900D928150E1F70F581F4FF70133
:102B900082819381D8018D939C9301571040D80175
:102BA000AC5ABF4FFE0135968BE101900D928150DA
:102BB000E1F70E5A1F4F8B819C81F801918380832E
:102BC000CE0101962EDF6F960FB6F894DEBF0FBED2
:102BD000CDBFCF91DF911F910F91FF90EF90DF90CC
:102BE000CF900895EF92FF920F931F938C013EECCC
:102BF000E32E31E0F32EE80EF91EC7010E94816D2D
:102C0000C7010E94D06DF801108211821F910F91AF
:102C1000FF90EF900895CF92DF92EF92FF920F9383
:102C20001F93CF93DF937C016B01DB010D9000209C
:102C3000E9F78D0101501040061B170BEEECF1E097
:102C4000EE0EFF1ED7011C92E2E3FEEFEE0EFF1E1A
:102C5000CB016EE470E0C4DBEC01009731F4F801C5
:102C60003197EC0DFD1D86010CC060E270E0B8DB11
:102C70008C010F5F1F4FCE016AE270E0B1DBFC01F7
:102C800031978DE081838AE082831382C701865366
:102C90009E4FB8010E94CD758EEC91E0E80EF91EB2
:102CA000D7018C91882319F1E3E3F5E0949108C0F2
:102CB0008091C00085FFFCCF9093C600319694911F
:102CC0009923B1F7E5E6F1E0949108C08091C00046
:102CD00085FFFCCF9093C600319694919923B1F76C
:102CE0008091C00085FFFCCF8AE08093C600DF9111
:102CF000CF911F910F91FF90EF90DF90CF900895AB
:102D0000CF93DF93EC018B81882309F43BC0EDE87E
:102D1000F1E0949108C08091C00085FFFCCF9093B2
:102D2000C600319694919923B1F7CD57DD4F488174
:102D300059816A817B81C358D24088E995E02AE0B5
:102D400030E00E94292DEBE8F1E0949108C08091D9
:102D5000C00085FFFCCF9093C600319694919923D3
:102D6000B1F7C558DD4F488159816A817B8188E977
:102D700095E02AE030E00E94292D8091C00085FF77
:102D8000FCCF12C0EBE7F1E0949108C08091C00045
:102D900085FFFCCF9093C600319694919923B1F7AB
:102DA0008091C00085FFFCCF8AE08093C600DF9150
:102DB000CF9108952F923F924F925F926F927F92A0
:102DC0008F929F92AF92BF92CF92DF92EF92FF923B
:102DD0000F931F93DF93CF93CDB7DEB7AC970FB6AA
:102DE000F894DEBF0FBECDBF5C014B01FC018381B7
:102DF000882309F43BC1C50182539E4F0E94D06DC8
:102E0000F50112821A8A1D8A198A188A8FE994E0BC
:102E10009F878E875EE4C52ED12CCA0CDB1C2FE267
:102E200030E0A20EB31EF601B182A08221ED3FEF89
:102E3000A20EB31EF40180818F3209F08DC0C4014F
:102E40006FE270E0CDDA7C010894E11CF11C3E01D8
:102E50000894611C711C260142E1242E312C2C0E99
:102E60003D1E75C0C7016FE270E0BADA6C010097D1
:102E700009F480C0E816F90608F07CC08C010E1930
:102E80001F09C301B701A801D4DA060D171DF80107
:102E90001082F30107C08091C00085FFFCCF3196FE
:102EA0009093C60090819923B1F78091C00085FF6F
:102EB000FCCFFAE0F093C600F201608171816115E8
:102EC000710519F460E070E002C06C5F7F4FC101D2
:102ED000A30121E00E94BC74882371F5E9ECF1E0C4
:102EE000949108C08091C00085FFFCCF9093C600EC
:102EF000319694919923B1F7FE01319607C08091E4
:102F0000C00085FFFCCF31969093C6009081992335
:102F1000B1F7E7ECF1E0949108C08091C00085FF23
:102F2000FCCF9093C600319694919923B1F780918C
:102F3000C00085FFFCCF94C02EE030E02C0F3D1F79
:102F4000F2013183208376010894E11CF11CE11425
:102F5000F10409F087CF0BC080E590E0A80EB91E00
:102F6000F601B182A08220EB3FEFA20EB31ED82C57
:102F7000092D02C0DE2C0F2D8EE490E0A80EB91EA4
:102F8000F5018081918122EB3FEFA20EB31E0097E5
:102F900019F480E090E001C004966D2D702F0E941E
:102FA0008875882371F1E9EBF1E0949108C0809174
:102FB000C00085FFFCCF9093C60031969491992371
:102FC000B1F78D2D902F9C01F90107C08091C000B1
:102FD00085FFFCCF31969093C60090819923B1F77D
:102FE0008091C00085FFFCCF8AE08093C60083E813
:102FF00092E0A80EB91EF50110821182128213828E
:1030000032C0E1EAF1E0949108C08091C00085FFF0
:10301000FCCF9093C600319694919923B1F78D2DF2
:10302000902F9C01F90107C08091C00085FFFCCF63
:1030300031969093C60090819923B1F7EFE9F1E0C2
:10304000949108C08091C00085FFFCCF9093C6008A
:10305000319694919923B1F78091C00085FFFCCF00
:103060008AE08093C600CE010E96DBDCAC960FB6EC
:10307000F894DEBF0FBECDBFCF91DF911F910F91AE
:10308000FF90EF90DF90CF90BF90AF909F908F9088
:103090007F906F905F904F903F902F900895BF92D8
:1030A000CF92DF92EF92FF920F931F93CF93DF9314
:1030B0008C01EB018FE28993EE24E394FF2475EAFF
:1030C000C72E71E0D72EC00ED11E6FE1B62E14C0F0
:1030D000FB9CC00111248D589F4F800F911FBE0192
:1030E0000E94E06D02C02196E3948881882319F044
:1030F0008CE88E15C0F7F3942F2D30E0F601808117
:1031000091812817390720F3E7FC07C0C8018253D3
:103110009E4FBE010E94E06D01C01882DF91CF91E9
:103120001F910F91FF90EF90DF90CF90BF90089587
:10313000EF92FF920F931F93CF93DF938C01FC01CB
:10314000138286A9882321F0C801C3960E94D06DFE
:10315000E7EAEE2EE1E0FE2EE00EF11EC70160E090
:1031600045E30E947D6B882309F5EAE3F5E094913D
:1031700008C08091C00085FFFCCF9093C6003196B7
:1031800094919923B1F7E2E1F3E0949108C0809122
:10319000C00085FFFCCF9093C6003196949199238F
:1031A000B1F78091C00085FFFCCF7DC0E801C45518
:1031B000DE4FCE01B70141E00E945E76882341F5E3
:1031C000CE01B70140E00E945E76882309F5E3E373
:1031D000F5E0949108C08091C00085FFFCCF9093EA
:1031E000C600319694919923B1F7EFEFF2E09491F4
:1031F00008C08091C00085FFFCCF9093C600319637
:1032000094919923B1F78091C00085FFFCCF4BC00A
:10321000C801C396BE010E94C270882309F5E3E38A
:10322000F5E0949108C08091C00085FFFCCF909399
:10323000C600319694919923B1F7EFEEF2E09491A4
:1032400008C08091C00085FFFCCF9093C6003196E6
:1032500094919923B1F78091C00085FFFCCF23C0E2
:1032600081E0F8018383EAE3F5E0949108C080915E
:10327000C00085FFFCCF9093C600319694919923AE
:10328000B1F7E4EEF2E0949108C08091C00085FFB0
:10329000FCCF9093C600319694919923B1F7809119
:1032A000C00085FFFCCF8AE08093C600D801AC5AED
:1032B000BF4FF801F3968BE101900D928150E1F739
:1032C000F80181A992A90E5A1F4FF80191838083BA
:1032D00002551040C8018F96025B1F4FF801918381
:1032E0008083DF91CF911F910F91FF90EF90089510
:1032F0002F923F924F925F926F927F929F92AF92E6
:10330000BF92CF92DF92EF92FF920F931F93DF93C2
:10331000CF93CDB7DEB7CC55D0400FB6F894DEBF13
:103320000FBECDBF6C01662311F527E832E0C20E57
:10333000D31ED6018C91E9E7FDEFCE0EDF1E882368
:1033400009F4E2C02FE732E0C20ED31ED601ED90A1
:10335000FD900D911C91E1E8FDEFCE0EDF1E0E9465
:10336000C3D6E616F7060807190708F4CDC027E804
:1033700032E0C20ED31ED6011C92E9E7FDEFCE0E5D
:10338000DF1ED60113968C91882339F4C601D0DE56
:10339000F6018381882309F4B7C000D000D0EDB7CF
:1033A000FEB731967E010894E11CF11CADB7BEB7A3
:1033B0001296FC92EE9211978CE591E093838283B2
:1033C000D6019D968D919C919E979583848340D83C
:1033D0008701EDB7FEB736960FB6F894FEBF0FBE65
:1033E000EDBF57010AC0D8018C91992787FD9095B0
:1033F0000E9498E2F80181938F01F501019000206D
:10340000E9F73197EA19FB09802F8E198E175CF3C3
:1034100013E3A12EB12CAC0CBD1CC50140E050E063
:1034200060E070E00E94B76C9924BDE3EB2EF12CB4
:10343000EC0EFD1E2E010894411C511CAFE16A2EBA
:10344000712C6C0E7D1EF5E52F2EF1E03F2E42C053
:10345000D8018C9190E00E9498E2F80181938F014D
:10346000D7010D900020E9F71197AE19BF09802F01
:103470008E198A176CF327968FAD27978E3751F1E7
:10348000C701B20145E050E00E940B12009711F510
:1034900000D000D0EDB7FEB73196ADB7BEB71296EB
:1034A0007C926E92119733822282558244820E94CE
:1034B0002812EDB7FEB736960FB6F894FEBF0FBED2
:1034C000EDBFC3010E94755181E591E00E94FC505F
:1034D00099249394C501B70140E050E00E94E16F48
:1034E000181614F48701BCCF992041F48FEF9FEF99
:1034F000D6019E969C938E939D9706C0F60185A556
:1035000096A5019696A785A7C45ADF4F0FB6F894E3
:10351000DEBF0FBECDBFCF91DF911F910F91FF9006
:10352000EF90DF90CF90BF90AF909F907F906F9083
:103530005F904F903F902F9008952F923F924F921F
:103540005F926F927F928F929F92AF92BF92CF9233
:10355000DF92EF92FF920F931F93DF93CF93CDB73C
:10356000DEB7CF58D0400FB6F894DEBF0FBECDBF48
:103570008C012B016A01C757DF4F39832883C95853
:10358000D04084E090E0C80ED91EF8017196C9576A
:10359000DF4FF983E883C758D04044E0642E712C94
:1035A000600E711ECA57DF4F1882C658D04036E6EB
:1035B000E32EF12CEC0EFD1EC7010B96C557DF4F15
:1035C00099838883CB58D04028E8822E22E0922E1F
:1035D000800E911E9AE8A92E92E0B92EA00EB11E7F
:1035E00087E4282E312C2C0E3D1EF1013496C35752
:1035F000DF4FF983E883CD58D040EAE3F5E08491CA
:10360000C157DF4F8883CF58D04053C1F70183851E
:10361000482F50E0BA01687170706031710509F08F
:1036200056C1F401208131812130310509F44FC1A7
:103630002230310509F44BC1F701DE01119690816A
:10364000903239F08E2F8E19883011F48EE28D93DE
:103650009D933196C557DF4F88819981CB58D040D3
:10366000E817F90761F71C921E86F2018081882312
:1036700031F4CE010E9660E072E00E94E511CE01B9
:103680000E96B2010E94E511CE010E96BE016F5F4B
:103690007F4F0E94E511CE010E9660E072E00E941D
:1036A000E5111CA61FA61BA61AA68FE994E099A7F0
:1036B00088A7CE018C96B601AE014F5F5F4F21E027
:1036C0000E94BC74882309F03FC0F401808191817D
:1036D000892BD1F5C157DF4F9881CF58D040EAE30D
:1036E000F5E008C08091C00085FFFCCF9093C60034
:1036F000319694919923B1F7E2E0F2E007C080910E
:10370000C00085FFFCCF31969093C600908199232D
:10371000B1F78091C00085FFFCCFFAE0F093C600BE
:10372000FE01319607C08091C00085FFFCCF319625
:103730009093C60090819923B1F78091C00085FFD6
:10374000FCCF8AE08093C600C357DF4FA881B981C0
:10375000CD58D040FE01BC968BE101900D92815076
:10376000E1F78AA59BA5F101938382838FE994E019
:1037700091838083C801BE01625F7F4FA10120E079
:1037800030E0DBDEC1014DD9CE0188964AD991C027
:103790009E3209F48EC09F3509F48BC0F8019189DF
:1037A0009E3209F486C09F3509F483C043FD81C071
:1037B00080E06031710509F481E0F80184A7882375
:1037C00049F4F7018085873409F073C081858E370D
:1037D00009F46FC0D301F7018081803241F08E2F50
:1037E0008E19883011F48EE28D9380818D933196FD
:1037F000C557DF4F88819981CB58D040E817F9072A
:1038000059F71C92F40180819181009701F5F20132
:1038100007C08091C00085FFFCCF31969093C60011
:1038200090819923B1F7F30107C08091C00085FF13
:10383000FCCF31969093C60090819923B1F7809187
:10384000C00085FFFCCFFAE0F093C60032C08130A3
:10385000910539F4F50180819181019691838083EE
:1038600028C0029731F5C757DF4F88819981C95821
:10387000D040009731F0B3010E94D211892B71F42E
:103880002BC0CA57DF4F9881C658D040292F30E04F
:10389000F5018081918128173907F1F0CA57DF4F70
:1038A000F881C658D040FF5FCA57DF4FF883C6582B
:1038B000D040C601B701C957DF4F48815981C75869
:1038C000D0400E94E16F18160CF4A0CE05C0F7019D
:1038D0009081992309F05CCFC157DF4F0FB6F89460
:1038E000DEBF0FBECDBFCF91DF911F910F91FF9033
:1038F000EF90DF90CF90BF90AF909F908F907F9090
:103900006F905F904F903F902F900895EF92FF92AD
:103910000F931F93DF93CF93CDB7DEB76F970FB69B
:10392000F894DEBF0FBECDBF7C018C01025B1F4F40
:10393000805B9F4FF8019183808328E832E0E20E9C
:10394000F31E21E030E0F701219331937F011182D2
:10395000108226E73DEFE20EF31E049640E050E0B1
:1039600060E070E00E94B76CF80120813181DE01D7
:103970001596F90134968BE101900D928150E1F793
:10398000F901828193819C838B838FE994E09A83F0
:103990008983C70165E172E08E010F5F1F4FA801A7
:1039A00020E030E0CADDC8013CD8F701E657FD4F02
:1039B000808191816F960FB6F894DEBF0FBECDBFA8
:1039C000CF91DF911F910F91FF90EF900895CF92CB
:1039D000DF92EF92FF920F931F93DF93CF93CDB7B8
:1039E000DEB76F970FB6F894DEBF0FBECDBF7C0178
:1039F0006A018C01025B1F4F805B9F4FF80191832E
:103A0000808328E832E0E20EF31E22E030E0F70186
:103A1000219331937F017183608326E73DEFE20EAE
:103A2000F31E049640E050E060E070E00E94B76C46
:103A3000F80120813181DE011596F90134968BE180
:103A400001900D928150E1F7F901828193819C836D
:103A50008B838FE994E09A838983C70165E172E0E3
:103A60008E010F5F1F4FA801960167DDC8010E94FC
:103A700011156F960FB6F894DEBF0FBECDBFCF9174
:103A8000DF911F910F91FF90EF90DF90CF900895FD
:103A90002F923F924F925F926F927F928F929F925E
:103AA000AF92BF92CF92DF92EF92FF920F931F934C
:103AB000DF93CF93CDB7DEB7AD970FB6F894DEBFE7
:103AC0000FBECDBF7C013B014DA7DC0113968C914D
:103AD000882309F450C3E1EDF1E0EE0EFF1ED7019B
:103AE0008C91EFE2FEEFEE0EFF1E882309F418C161
:103AF000222309F0E0C029EE31E0E20EF31ED701E7
:103B00008C91E7E1FEEFEE0EFF1E882371F1E3E3F7
:103B1000F5E0949108C08091C00085FFFCCF9093A0
:103B2000C600319694919923B1F7E1EAF2E09491BD
:103B300008C08091C00085FFFCCF9093C6003196ED
:103B400094919923B1F788E995E061E070E04AE04B
:103B500050E00E94782D8091C00085FFFCCF8AE064
:103B60008093C6000E94DB2F06C3EAE3F5E0949140
:103B700008C08091C00085FFFCCF9093C6003196AD
:103B800094919923B1F7E8E8F2E0949108C080910C
:103B9000C00085FFFCCF9093C60031969491992385
:103BA000B1F7F30107C08091C00085FFFCCF3196CB
:103BB0009093C60090819923B1F7EDE7F2E09491DC
:103BC00008C08091C00085FFFCCF9093C60031965D
:103BD00094919923B1F7C7012EEE31E0E20EF31E66
:103BE000B7015DDA4BEF5FEFE40EF51ED7019C9154
:103BF000E7E1FEEFEE0EFF1E8DE8989FF001112425
:103C0000E251FE4FEE0DFF1D07C08091C00085FF01
:103C1000FCCF31969093C60090819923B1F7E7E7E6
:103C2000F2E0949108C08091C00085FFFCCF909392
:103C3000C600319694919923B1F723E832E0E20E61
:103C4000F31ED7014D915D916D917C91EDE7FDEFF4
:103C5000EE0EFF1E88E995E02AE030E00E94292D53
:103C60008091C00085FFFCCF8AE08093C600A70149
:103C700047515E4FDA012C91E22FF0E0EE0FFF1F6B
:103C8000EE0FFF1FEE0DFF1DE651FE4F83E892E0A1
:103C9000E80EF91ED701AD90BD90CD90DC908DE778
:103CA0009DEFE80EF91EA082B182C282D3822F5FFF
:103CB000DA012C932FC0EAE3F5E0949108C08091DB
:103CC000C00085FFFCCF9093C60031969491992354
:103CD000B1F7E6E6F2E0949108C08091C00085FF5C
:103CE000FCCF9093C600319694919923B1F7F301DC
:103CF00007C08091C00085FFFCCF31969093C6002D
:103D000090819923B1F78091C00085FFFCCF8AE0B4
:103D10008093C600C70182539E4F0E94D06D39C068
:103D2000E9EEF1E0EE0EFF1ED7011C92E7E1FEEF97
:103D3000EE0EFF1EEAE3F5E0949108C08091C0000A
:103D400085FFFCCF9093C600319694919923B1F7EB
:103D5000E5E5F2E0949108C08091C00085FFFCCFBA
:103D60009093C600319694919923B1F7F30107C05F
:103D70008091C00085FFFCCF31969093C600908162
:103D80009923B1F78091C00085FFFCCF8AE0809332
:103D9000C600D70112961C921A8A1D8A198A188A9F
:103DA0008FE994E09F878E876EE4A62EB12CAE0C2F
:103DB000BF1CEFE2F0E0EE0EFF1ED501ED92FC928B
:103DC000E1EDFFEFEE0EFF1ED3018C918F3209F073
:103DD00090C0C3016FE270E00E94F0116C01089482
:103DE000C11CD11C4E010894811C911C250152E17B
:103DF000252E312C2C0E3D1E77C0C6016FE270E0DF
:103E00000E94F0115C01009709F480C0C816D90621
:103E100008F07CC08C010C191D09C401B601A80171
:103E20000E941912080D191DF8011082F40107C033
:103E30008091C00085FFFCCF31969093C6009081A1
:103E40009923B1F78091C00085FFFCCFFAE0F09391
:103E5000C600D2016D917C916115710519F460E085
:103E600070E002C06C5F7F4FC101A40121E00E949D
:103E7000BC74882371F5E1E4F2E0949108C080916C
:103E8000C00085FFFCCF9093C60031969491992392
:103E9000B1F7FE01319607C08091C00085FFFCCFCD
:103EA00031969093C60090819923B1F7EFE3F2E049
:103EB000949108C08091C00085FFFCCF9093C6000C
:103EC000319694919923B1F78091C00085FFFCCF82
:103ED00023C12EE030E02C0F3D1FF20131832083FF
:103EE00065010894C11CD11CC114D10409F085CF0F
:103EF0000BC040E550E0E40EF51ED501ED92FC92BA
:103F0000E0EBFFEFEE0EFF1E830101C08601F7011B
:103F1000E25BFF4F2DA5222309F4BFC060817181B0
:103F20006115710519F460E070E002C06C5F7F4FAD
:103F3000C70182539E4FA80121E00E94BC748823D0
:103F400009F47EC04FED51E0E40EF51ED7014D910E
:103F50005D916D917C91ECE9F0E0EE0EFF1ED701D2
:103F60004D935D936D937C931397E5E8FDEFEE0E13
:103F7000FF1EE1E3F2E0949108C08091C00085FF4C
:103F8000FCCF9093C600319694919923B1F7F80134
:103F900007C08091C00085FFFCCF31969093C6008A
:103FA00090819923B1F7E9E2F2E0949108C0809101
:103FB000C00085FFFCCF9093C60031969491992361
:103FC000B1F788E995E02AE030E00E94292D809140
:103FD000C00085FFFCCF8AE08093C60023E832E072
:103FE000E20EF31ED7011D921D921D921C92139793
:103FF000EDE7FDEFEE0EFF1EEBE1F2E0949108C05D
:104000008091C00085FFFCCF9093C60031969491BB
:104010009923B1F78091C00085FFFCCF8AE080939F
:10402000C600C70160E070E0A801D1DCD70151965D
:104030008C91882309F498C087010F5E1F4F94C0AC
:10404000E7E0F2E0949108C08091C00085FFFCCFCA
:104050009093C600319694919923B1F7F80107C067
:104060008091C00085FFFCCF31969093C60090816F
:104070009923B1F7E5E0F2E0949108C08091C00087
:1040800085FFFCCF9093C600319694919923B1F7A8
:104090008091C00085FFFCCF3FC0608171816115B8
:1040A000710519F460E070E002C06C5F7F4FC701DA
:1040B00082539E4FA80126E50E94BC74882381F597
:1040C000E1EFF1E0949108C08091C00085FFFCCF42
:1040D0009093C600319694919923B1F7F80107C0E7
:1040E0008091C00085FFFCCF31969093C6009081EF
:1040F0009923B1F7EFEEF1E0949108C08091C000F0
:1041000085FFFCCF9093C600319694919923B1F727
:104110008091C00085FFFCCF8AE08093C60027C055
:1041200081E0F7018083EDEDF1E0949108C080918A
:10413000C00085FFFCCF9093C600319694919923DF
:10414000B1F7F30107C08091C00085FFFCCF319625
:104150009093C60090819923B1F78091C00085FFAC
:10416000FCCF8AE08093C600C8010E9438C7CE0108
:104170000E960E941115AD960FB6F894DEBF0FBED5
:10418000CDBFCF91DF911F910F91FF90EF90DF9006
:10419000CF90BF90AF909F908F907F906F905F90E7
:1041A0004F903F902F900895EF92FF920F931F939F
:1041B000CF93DF93EC010E949B7B8E0107511E4F32
:1041C000D8018C91BEECEB2EB1E0FB2EEC0EFD1E67
:1041D000882399F1C7010E94D06DF8016081615078
:1041E00060838DE8689FB001112462517E4F6C0F8F
:1041F0007D1FCE0141E021E04BDCD801EC91F0E0E5
:10420000EE0FFF1FEE0FFF1FEC0FFD1FE651FE4FDD
:104210004081518162817381CD57DD4F488359833D
:104220006A837B83C358D240C7010E94B76C8B81DD
:10423000882389F181E08A832EC00E94797BC7019F
:104240000E94D06D1A828FE291E00E94FC50809112
:10425000A60A882301F11092A60A80915D08C82F52
:10426000D0E0CC0FDD1FC751DE4E688179818827F1
:1042700077FD8095982F0E94F7DE2091EF03309113
:10428000F0034091F1035091F2030E9463E018168D
:1042900014F419821882DF91CF911F910F91FF9032
:1042A000EF900895FC0181E08183CF0140E021E09F
:1042B000EFCBEF92FF920F931F93DF93CF93CDB786
:1042C000DEB76F970FB6F894DEBF0FBECDBF7C018F
:1042D00088E892E0E80EF91EF7011182108288E763
:1042E0009DEFE80EF91E87010D5C1F4FC80140E0ED
:1042F00050E060E070E00E94B76CDE011596F801B6
:104300008BE101900D928150E1F7F70181A992A90B
:104310009C838B838FE994E09A838983C70165E14D
:1043200072E08E010F5F1F4FA80120E030E005D939
:10433000C8010E9411156F960FB6F894DEBF0FBE2C
:10434000CDBFCF91DF911F910F91FF90EF90089516
:104350000F931F93CF93DF93DC01D3961C92D397D7
:10436000D6961C92D697D2961C921E92D1978FE920
:1043700094E0D0969C938E939F97AC5ABF4F1C921B
:1043800013961C92A755B040FD01E05BFF4FAE5A5B
:10439000BF4F11961C921E92A255B040918380830C
:1043A000ED01C159DF4FFE0120E030E0482F1482BB
:1043B00017821382128240839183215E3F4F7F9642
:1043C00081E02633380799F7A855BE4F89E18C93D1
:1043D00013961C9258961C921B961C9213961C9234
:1043E000A15DB140FD01E653FE4FA453BE4F1196AF
:1043F0001C921E9240839183A155BF4F1D921D9226
:104400001D921C92139718961D921D921D921C923C
:104410001397A358B24012961C92129713961C92AF
:1044200013971C9211961C9211978D0101581D4FE4
:10443000F8011082118212821382AB55BE4F119681
:104440001C921E92AC5BBF4F1C92FE01C9011192DF
:104450000197E9F7A256BF4F81E08C93A758B2406D
:104460009E961C921E929D970E94C3D668577C4EC2
:104470008F4F9F4FF8016083718382839383DF9115
:10448000CF911F910F910895DF93CF93CDB7DEB7F2
:104490002A970FB6F894DEBF0FBECDBF80911602EB
:1044A00090911702A0911802B09119028B839C83FE
:1044B000AD83BE83FE01339624E630E08081F99916
:1044C000FECF1FBA32BD21BD80BD0FB6F894FA9A57
:1044D000F99A0FBE2F5F3F4F2836310511F0319604
:1044E000EDCFEAE4FAE08081F999FECF1FBA32BD40
:1044F00021BD80BD0FB6F894FA9AF99A0FBE2F5FCE
:104500003F4F2837310511F03196EDCFEAE3FAE05D
:104510008081F999FECF1FBA32BD21BD80BD0FB693
:10452000F894FA9AF99A0FBE2F5F3F4F2838310559
:1045300011F03196EDCFEAE5FAE08081F999FECFEE
:104540001FBA32BD21BD80BD0FB6F894FA9AF99A10
:104550000FBE2F5F3F4F2839310511F03196EDCF57
:10456000EEE6FAE08081F999FECF1FBA32BD21BD97
:1045700080BD0FB6F894FA9AF99A0FBE2F5F3F4F9D
:104580002C39310511F03196EDCFE2E7FAE0808168
:10459000F999FECF1FBA32BD21BD80BD0FB6F89488
:1045A000FA9AF99A0FBE2F5F3F4F203A310511F06A
:1045B0003196EDCFEAE6FAE08081F999FECF1FBA95
:1045C00032BD21BD80BD0FB6F894FA9AF99A0FBE9C
:1045D0002F5F3F4F243A310511F03196EDCFE2E8DD
:1045E000FAE08081F999FECF1FBA32BD21BD80BDAE
:1045F0000FB6F894FA9AF99A0FBE2F5F3F4F283AF8
:10460000310511F03196EDCFE6E3FAE08081F999BA
:10461000FECF1FBA32BD21BD80BD0FB6F894FA9A05
:10462000F99A0FBE2F5F3F4F2C3A310511F03196AA
:10463000EDCFE6E7FAE08081F999FECF1FBA32BDEF
:1046400021BD80BD0FB6F894FA9AF99A0FBE2F5F7C
:104650003F4F203B310511F03196EDCFEAE7FAE00C
:104660008081F999FECF1FBA32BD21BD80BD0FB642
:10467000F894FA9AF99A0FBE2F5F3F4F243B310509
:1046800011F03196EDCFEEE7FAE08081F999FECF97
:104690001FBA32BD21BD80BD0FB6F894FA9AF99ABF
:1046A0000FBE2F5F3F4F283B310511F03196EDCF04
:1046B000EEE3F8E08081F999FECF1FBA32BD21BD4B
:1046C00080BD0FB6F894FA9AF99A0FBE2F5F3F4F4C
:1046D000243C310511F03196EDCFEBE3F2E180811E
:1046E000F999FECF1FBA32BD21BD80BD0FB6F89437
:1046F000FA9AF99A0FBE2F5F3F4F263C310511F011
:104700003196EDCFEDE3F2E18081F999FECF1FBA4A
:1047100032BD21BD80BD0FB6F894FA9AF99A0FBE4A
:104720002F5F3F4F283C310511F03196EDCFEFE37D
:10473000F2E18081F999FECF1FBA32BD21BD80BD63
:104740000FB6F894FA9AF99A0FBE2F5F3F4F2A3CA2
:10475000310511F03196EDCFE1E4F2E18081F99974
:10476000FECF1FBA32BD21BD80BD0FB6F894FA9AB4
:10477000F99A0FBE2F5F3F4F2C3C310511F0319657
:10478000EDCFE3E4F2E18081F999FECF1FBA32BDAB
:1047900021BD80BD0FB6F894FA9AF99A0FBE2F5F2B
:1047A0003F4F2E3C310511F03196EDCFE5E4F2E1BB
:1047B0008081F999FECF1FBA32BD21BD80BD0FB6F1
:1047C000F894FA9AF99A0FBE2F5F3F4F203D3105BA
:1047D00011F03196EDCFE9E5F8E08081F999FECF4F
:1047E0001FBA32BD21BD80BD0FB6F894FA9AF99A6E
:1047F0000FBE2F5F3F4F243D310511F03196EDCFB5
:10480000E0E0F4E08081F999FECF1FBA32BD21BD0E
:1048100080BD0FB6F894FA9AF99A0FBE2F5F3F4FFA
:10482000283D310511F03196EDCFE4E0F4E08081D0
:10483000F999FECF1FBA32BD21BD80BD0FB6F894E5
:10484000FA9AF99A0FBE2F5F3F4F2C3D310511F0B8
:104850003196EDCFE8E0F4E08081F999FECF1FBA00
:1048600032BD21BD80BD0FB6F894FA9AF99A0FBEF9
:104870002F5F3F4F203E310511F03196EDCF80E2A2
:1048800090E09A838983FE0131968081F999FECF69
:104890001FBA32BD21BD80BD0FB6F894FA9AF99ABD
:1048A0000FBE213E310521F0319621EE30E0EDCFF3
:1048B00020912D08F999FECF1FBA82EE90E092BDAB
:1048C00081BD20BD0FB6F894FA9AF99A0FBEE5EBB8
:1048D000F3E083EE90E02081F999FECF1FBA92BDFC
:1048E00081BD20BD0FB6F894FA9AF99A0FBE0196D1
:1048F000873E910511F03196EECFE4EDF3E0208193
:10490000F999FECF1FBA92BD81BD20BD0FB6F894B4
:10491000FA9AF99A0FBE0196883F910511F03196E7
:10492000EECFE5EEF3E02081F999FECF1FBA92BDFC
:1049300081BD20BD0FB6F894FA9AF99A0FBE8D3F4B
:10494000910519F001963196EECF80911A0290915F
:104950001B02A0911C02B0911D028F839887A9872A
:10496000BA87FE01379684E690E02081F999FECF60
:104970001FBA92BD81BD20BD0FB6F894FA9AF99A7C
:104980000FBE8736910519F001963196EECFEAE316
:10499000F5E0949108C08091C00085FFFCCF909312
:1049A000C600319694919923B1F7E3E2F5E0949132
:1049B00008C08091C00085FFFCCF9093C60031965F
:1049C00094919923B1F78091C00085FFFCCF8AE0D4
:1049D0008093C6002A960FB6F894DEBF0FBECDBFF7
:1049E000CF91DF910895DF93CF93CDB7DEB7E097F6
:1049F0000FB6F894DEBF0FBECDBFDE011196EFE417
:104A0000F4E080E101900D928150E1F7DE015196D2
:104A1000EFE3F4E080E101900D928150E1F7DE01D7
:104A20009196EFE2F4E080E101900D928150E1F780
:104A300089819A81AB81BC8180934A0A90934B0A09
:104A4000A0934C0AB0934D0A89899A89AB89BC8995
:104A500080933A0A90933B0AA0933C0AB0933D0A94
:104A600089A19AA1ABA1BCA180935A0A90935B0A39
:104A7000A0935C0AB0935D0A8D819E81AF81B88559
:104A800080934E0A90934F0AA093500AB093510A14
:104A90008D899E89AF89B88D80933E0A90933F0A95
:104AA000A093400AB093410A8DA19EA1AFA1B8A5E1
:104AB00080935E0A90935F0AA093600AB093610AA4
:104AC00089859A85AB85BC858093520A9093530A59
:104AD000A093540AB093550A898D9A8DAB8DBC8DE5
:104AE0008093420A9093430AA093440AB093450AE4
:104AF00089A59AA5ABA5BCA58093620A9093630A89
:104B0000A093640AB093650A8D859E85AF85B889A8
:104B10008093560A9093570AA093580AB093590A63
:104B20008D8D9E8DAF8DB8A18093460A9093470AD4
:104B3000A093480AB093490A8DA59EA5AFA5B8A930
:104B40008093660A9093670AA093680AB093690AF3
:104B50000E94935880E090E0AAE7B4E480936E0A44
:104B600090936F0AA093700AB093710A80E090E06E
:104B7000AAEFB4E48093720A9093730AA093740A24
:104B8000B093750A20E030E040E050E020936A0ADC
:104B900030936B0A40936C0A50936D0A80E29EE456
:104BA000A0E0B0E08093360A9093370AA093380AC9
:104BB000B093390A2093820A3093830A4093840A7F
:104BC0005093850A80E090E0A0EAB1E48093760AF1
:104BD0009093770AA093780AB093790A8DEC9CECB5
:104BE000ACECBEE380937A0A90937B0AA0937C0A94
:104BF000B0937D0A80E090E0A0EAB0E480937E0A62
:104C000090937F0AA093800AB093810A209346086C
:104C1000309347084093480850934908209342082E
:104C200030934308409344085093450820933E082E
:104C300030933F08409340085093410884EB90E044
:104C400090933C1280933B1286E490E090933E1246
:104C500080933D122FEF30E03093401220933F12AB
:104C600080EF90E0909342128093411284E690E0AE
:104C7000909344128093431230934612209345122E
:104C80008AE999E9A1EBB1E48093000490930104CF
:104C9000A0930204B093030461E77DE38AE89FE3F5
:104CA0000E94A88360930404709305048093060413
:104CB0009093070460E070E084EE92E40E94B48375
:104CC000609308047093090480930A0490930B0482
:104CD0000E94C68280E090E0A0E8BFE380930C04CD
:104CE00090930D04A0930E04B0930F0410922D081E
:104CF00080E090E0A0E4B0E48093B5039093B60325
:104D0000A093B703B093B8030E94872FEAE3F5E0BE
:104D1000949108C08091C00085FFFCCF9093C6009D
:104D2000319694919923B1F7EFE1F3E0949108C0A3
:104D30008091C00085FFFCCF9093C600319694917E
:104D40009923B1F78091C00085FFFCCF8AE0809362
:104D5000C600E0960FB6F894DEBF0FBECDBFCF9170
:104D6000DF9108950F931F93DF93CF93CDB7DEB7F5
:104D70002A970FB6F894DEBF0FBECDBF80911A02FE
:104D800090911B02A0911C02B0911D028F83988705
:104D9000A987BA87FE01339604E610E0F999FECFA1
:104DA00012BD01BDF89A80B580830F5F1F4F083692
:104DB000110511F03196F2CFCE010796BE016D5F5D
:104DC0007F4F43E050E00E940B12009709F0D5C1DD
:104DD000EAE4FAE0F999FECF12BD01BDF89A80B578
:104DE00080830F5F1F4F0837110511F03196F2CF06
:104DF000EAE3FAE0F999FECF12BD01BDF89A80B559
:104E000080830F5F1F4F0838110511F03196F2CFE4
:104E1000EAE5FAE0F999FECF12BD01BDF89A80B536
:104E200080830F5F1F4F0839110511F03196F2CFC3
:104E30000E949358EEE6FAE0F999FECF12BD01BD4B
:104E4000F89A80B580830F5F1F4F0C39110511F060
:104E50003196F2CFE2E7FAE0F999FECF12BD01BD3B
:104E6000F89A80B580830F5F1F4F003A110511F04B
:104E70003196F2CFEAE6FAE0F999FECF12BD01BD14
:104E8000F89A80B580830F5F1F4F043A110511F027
:104E90003196F2CFE2E8FAE0F999FECF12BD01BDFA
:104EA000F89A80B580830F5F1F4F083A110511F003
:104EB0003196F2CFE6E3FAE0F999FECF12BD01BDDB
:104EC000F89A80B580830F5F1F4F0C3A110511F0DF
:104ED0003196F2CFE6E7FAE0F999FECF12BD01BDB7
:104EE000F89A80B580830F5F1F4F003B110511F0CA
:104EF0003196F2CFEAE7FAE0F999FECF12BD01BD93
:104F0000F89A80B580830F5F1F4F043B110511F0A5
:104F10003196F2CFEEE7FAE0F999FECF12BD01BD6E
:104F2000F89A80B580830F5F1F4F083B110511F081
:104F30003196F2CFEEE3F8E0F999FECF12BD01BD54
:104F4000F89A80B580830F5F1F4F043C110511F064
:104F50003196F2CFEBE3F2E1F999FECF12BD01BD3C
:104F6000F89A80B580830F5F1F4F063C110511F042
:104F70003196F2CFEDE3F2E1F999FECF12BD01BD1A
:104F8000F89A80B580830F5F1F4F083C110511F020
:104F90003196F2CFEFE3F2E1F999FECF12BD01BDF8
:104FA000F89A80B580830F5F1F4F0A3C110511F0FE
:104FB0003196F2CFE1E4F2E1F999FECF12BD01BDE5
:104FC000F89A80B580830F5F1F4F0C3C110511F0DC
:104FD0003196F2CFE3E4F2E1F999FECF12BD01BDC3
:104FE000F89A80B580830F5F1F4F0E3C110511F0BA
:104FF0003196F2CFE5E4F2E1F999FECF12BD01BDA1
:10500000F89A80B580830F5F1F4F003D110511F0A6
:105010003196F2CFE9E5F8E0F999FECF12BD01BD76
:10502000F89A80B580830F5F1F4F043D110511F082
:105030003196F2CFE0E0F4E0F999FECF12BD01BD68
:10504000F89A80B580830F5F1F4F083D110511F05E
:105050003196F2CFE4E0F4E0F999FECF12BD01BD44
:10506000F89A80B580830F5F1F4F0C3D110511F03A
:105070003196F2CFE8E0F4E0F999FECF12BD01BD20
:10508000F89A80B580830F5F1F4F003E110511F025
:105090003196F2CFFE013196F999FECF12BD01BDD6
:1050A000F89A80B58083013E110521F0319601EE1A
:1050B00010E0F2CFF999FECF82EE90E092BD81BD73
:1050C000F89A80B580932D08E5EBF3E023EE30E00D
:1050D000F999FECF32BD21BDF89A80B580832F5F4C
:1050E0003F4F273E310511F03196F2CFE4EDF3E06A
:1050F000F999FECF32BD21BDF89A80B580832F5F2C
:105100003F4F283F310511F03196F2CFE5EEF3E045
:10511000F999FECF32BD21BDF89A80B580832D3F2D
:10512000310521F02F5F3F4F3196F2CFF0D60E942C
:10513000C682EAE3F5E0949108C08091C00085FF43
:10514000FCCF9093C600319694919923B1F7E1E496
:10515000F3E0949108C08091C00085FFFCCF90934C
:10516000C600319694919923B1F78091C00085FFD4
:10517000FCCF8AE08093C60001C035DC2A960FB6CA
:10518000F894DEBF0FBECDBFCF91DF911F910F917D
:105190000895CF93DF93CAE3D5E0FE01949108C050
:1051A0008091C00085FFFCCF9093C600319694910A
:1051B0009923B1F7E3E1F5E0949108C08091C00034
:1051C00085FFFCCF9093C600319694919923B1F757
:1051D0008091C00085FFFCCF8AE08093C600FE016D
:1051E0009491EAE3F5E008C08091C00085FFFCCF10
:1051F0009093C600319694919923B1F740914A0A51
:1052000050914B0A60914C0A70914D0A8BE095E0E9
:105210000E94B63340914E0A50914F0A6091500A55
:105220007091510A88E095E00E94B6334091520A8D
:105230005091530A6091540A7091550A85E095E0A7
:105240000E94B6334091560A5091570A6091580A0D
:105250007091590A82E095E00E94B633EEE1F2E0E7
:1052600007C08091C00085FFFCCF31969093C600A7
:1052700090819923B1F78091C00085FFFCCF8AE02F
:105280008093C600FE019491EAE3F5E008C08091A6
:10529000C00085FFFCCF9093C6003196949199236E
:1052A000B1F7E8EEF4E0949108C08091C00085FF6A
:1052B000FCCF9093C600319694919923B1F78091D9
:1052C000C00085FFFCCF8AE08093C600FE01949168
:1052D000EAE3F5E008C08091C00085FFFCCF909321
:1052E000C600319694919923B1F740913A0A5091B2
:1052F0003B0A60913C0A70913D0A8FED94E00E9458
:10530000B63340913E0A50913F0A6091400A709135
:10531000410A8CED94E00E94B6334091420A5091CC
:10532000430A6091440A7091450A89ED94E00E9415
:10533000B6334091460A5091470A6091480A7091ED
:10534000490A86ED94E00E94B633EEE1F2E007C030
:105350008091C00085FFFCCF31969093C60090816C
:105360009923B1F78091C00085FFFCCF8AE080933C
:10537000C600FE019491EAE3F5E008C08091C00008
:1053800085FFFCCF9093C600319694919923B1F795
:10539000E8EBF4E0949108C08091C00085FFFCCF59
:1053A0009093C600319694919923B1F78091C000F3
:1053B00085FFFCCF8AE08093C600FE019491EAE36A
:1053C000F5E008C08091C00085FFFCCF9093C60037
:1053D000319694919923B1F740915A0A50915B0A02
:1053E00060915C0A70915D0A8FEA94E00E94C83374
:1053F00040915E0A50915F0A6091600A7091610A63
:105400008CEA94E00E94C8334091620A5091630A8A
:105410006091640A7091650A89EA94E00E94C83339
:105420004091660A5091670A6091680A7091690A12
:1054300086EA94E00E94C833EEE1F2E007C0809172
:10544000C00085FFFCCF31969093C60090819923D0
:10545000B1F78091C00085FFFCCF8AE08093C60041
:10546000FE019491EAE3F5E008C08091C00085FF59
:10547000FCCF9093C600319694919923B1F7E1E760
:10548000F4E0949108C08091C00085FFFCCF909318
:10549000C600319694919923B1F78091C00085FFA1
:1054A000FCCF8AE08093C600FE019491EAE3F5E028
:1054B00008C08091C00085FFFCCF9093C600319654
:1054C00094919923B1F740916E0A50916F0A6091BF
:1054D000700A7091710A88E694E00E94B633409198
:1054E000720A5091730A6091740A7091750A85E688
:1054F00094E00E94B633EEE1F2E007C08091C00074
:1055000085FFFCCF31969093C60090819923B1F727
:105510008091C00085FFFCCF8AE08093C600FE0129
:105520009491EAE3F5E008C08091C00085FFFCCFCC
:105530009093C600319694919923B1F7E2EBF3E092
:10554000949108C08091C00085FFFCCF9093C60065
:10555000319694919923B1F78091C00085FFFCCFDB
:105560008AE08093C600FE019491EAE3F5E008C06A
:105570008091C00085FFFCCF9093C6003196949136
:105580009923B1F740916A0A50916B0A60916C0AB5
:1055900070916D0A89EA93E00E94B6334091820AC5
:1055A0005091830A6091840A7091850A86EA93E09B
:1055B0000E94B6334091360A5091370A6091380AFA
:1055C0007091390A83EA93E00E94C8334091760AC9
:1055D0005091770A6091780A7091790A80EA93E095
:1055E0000E94B63340917A0A50917B0A60917C0AFE
:1055F00070917D0A8DE993E00E94B63340917E0A56
:1056000050917F0A6091800A7091810A8AE993E043
:105610000E94B633EEE1F2E007C08091C00085FF42
:10562000FCCF31969093C60090819923B1F7809179
:10563000C00085FFFCCF8AE08093C600FE019491F4
:10564000EAE3F5E008C08091C00085FFFCCF9093AD
:10565000C600319694919923B1F7E8E8F3E094916C
:1056600008C08091C00085FFFCCF9093C6003196A2
:1056700094919923B1F78091C00085FFFCCF8AE017
:105680008093C600FE019491EAE3F5E008C08091A2
:10569000C00085FFFCCF9093C6003196949199236A
:1056A000B1F740913E0850913F08609140087091D9
:1056B00041088FE793E00E94B63340914208509131
:1056C000430860914408709145088CE793E00E947C
:1056D000B633409146085091470860914808709150
:1056E000490889E793E00E94B633EEE1F2E007C093
:1056F0008091C00085FFFCCF31969093C6009081C9
:105700009923B1F78091C00085FFFCCF8AE0809398
:10571000C600FE019491EAE3F5E008C08091C00064
:1057200085FFFCCF9093C600319694919923B1F7F1
:10573000EBE6F3E0949108C08091C00085FFFCCFB8
:105740009093C600319694919923B1F78091C0004F
:1057500085FFFCCF8AE08093C600FE019491EAE3C6
:10576000F5E008C08091C00085FFFCCF9093C60093
:10577000319694919923B1F740910004509101041E
:10578000609102047091030481E693E0EFD7609189
:1057900004047091050480910604909107040E940E
:1057A000AE83AB01BC018EE593E0E0D760910804C5
:1057B0007091090480910A0490910B040E94BA83AD
:1057C000AB01BC018BE593E0D1D7EEE1F2E007C07D
:1057D0008091C00085FFFCCF31969093C6009081E8
:1057E0009923B1F78091C00085FFFCCF8AE08093B8
:1057F000C600DF91CF9108951F920F920FB60F92BE
:105800000BB60F9211242F933F934F938F939F9337
:10581000EF93FF934091C600E0919405F0919505B8
:1058200031969F012F773070319780919605909136
:1058300097052817390739F0EC5EFA4F408330930B
:10584000950520939405FF91EF919F918F914F9132
:105850003F912F910F900BBE0F900FBE0F901F9096
:1058600018959A01AB01203081EE380780E0480797
:1058700080E0580749F182E08093C00060E079E061
:105880008DE390E00E946FE2215030404040504054
:10589000CA01B90122E030E040E050E00E946FE22E
:1058A0003093C5002093C4008091C1008061809333
:1058B000C1008091C10088608093C1008091C100C7
:1058C00080688093C10008951092C00020E130E00C
:1058D000E7CF20919605309197058091940590919E
:1058E00095058217930719F42FEF3FEF0EC0F901CA
:1058F000EC5EFA4F80812F5F3F4F2F7730703093EF
:10590000970520939605282F30E0C90108958091CE
:105910009605909197059093950580939405089529
:1059200008952F923F924F925F926F927F928F9243
:105930009F92AF92BF92CF92DF92EF92FF920F931E
:105940001F93DF93CF93CDB7DEB7A0970FB6F89430
:10595000DEBF0FBECDBF1C016A017B0141155105A1
:105960006105710541F440E350E060E070E020E043
:1059700030E08BD055C0882499245401422E552400
:105980006624772401E010E00C0F1D1F080D191D7F
:10599000C701B601A30192010E944DE2F8016083A4
:1059A0000894811C911CA11CB11CC701B601A30164
:1059B00092010E944DE2C901DA016C017D01C1141E
:1059C000D104E104F104F1F681E0E82EF12CEC0EB3
:1059D000FD1EE80CF91C3E010894611C711CD501E8
:1059E000C4010197A109B1096C01C818D90815C0F3
:1059F000F601EE0DFF1D40814A3010F4405D01C0FC
:105A0000495C552747FD5095652F752FC10120E052
:105A100030E03BD00894E108F1086E147F0441F7B0
:105A2000A0960FB6F894DEBF0FBECDBFCF91DF9129
:105A30001F910F91FF90EF90DF90CF90BF90AF90AC
:105A40009F908F907F906F905F904F903F902F909E
:105A500008952115310539F48091C00085FFFCCFF0
:105A60004093C60008955DCFEF92FF920F931F936E
:105A70009A01E62EFF2400E010E0B801A701E9DF5B
:105A80001F910F91FF90EF900895EF92FF920F9367
:105A90001F93CF93DF93EC017A018B012115310520
:105AA00039F48091C00085FFFCCFE092C60019C098
:105AB0002A303105A9F477FF0FC04DE250E060E0D5
:105AC00070E020E030E0E1DF10950095F094E09484
:105AD000E11CF11C011D111DCE01B801A7012AE036
