:100000000C94F80E0C94250F0C94250F0C94250FCE
:100010000C94250F0C94250F0C94250F0C94250F90
:100020000C94250F0C94250F0C94250F0C94250F80
:100030000C94250F0C9447E20C94250F0C94250F7B
:100040000C94250F0C942C7E0C94250F0C94250FEA
:100050000C94250F0C94250F0C941F870C9494DEA0
:100060000C94250F0C94732C0C94250F0C94250FD5
:100070000C94250F0C94250F0C94250F0C94250F30
:100080000C94250F0C94250F0C94250F0C94250F20
:100090000C94250F0C94250F0C94250F0C941BDB4E
:1000A0000C94250F0C94250F0C94250F0C94250F00
:1000B0000C94250F0C94250F0C94250F0C94250FF0
:1000C0000C94250F0C94250F0C94250F0C94250FE0
:1000D0000C94250F0C94250F0C94250F0C94250FD0
:1000E0000C94250F084AD73B3BCE016E84BCBFFD64
:1000F000C12F3D6C74319ABD56833DDA3D00C77FF8
:1001000011BED9E4BB4C3E916BAAAABE0000008090
:100110003F05A84CCDB2D44EB93836A9020C50B91F
:10012000918688083CA6AAAA2ABE000000803F4DFE
:10013000383420582059205A20450043616E6E6F94
:100140007420656E746572207375626469723A20FA
:10015000004D3234004D3233202573006175746FC9
:1001600025692E67006572726F72207772697469F3
:100170006E6720746F2066696C65004E6F74205343
:1001800044207072696E74696E67002F00534420BA
:100190007072696E74696E67206279746520002ED2
:1001A0000044656C6574696F6E206661696C656496
:1001B0002C2046696C653A200046696C65206465B0
:1001C0006C657465643A002E006F70656E20666120
:1001D000696C65642C2046696C653A200057726929
:1001E00074696E6720746F2066696C653A20002E12
:1001F000006F70656E206661696C65642C204669CD
:100200006C653A20002E006F70656E206661696C27
:1002100065642C2046696C653A200046696C65204F
:1002200073656C6563746564002053697A653A2070
:100230000046696C65206F70656E65643A20002E1B
:10024000006F70656E206661696C65642C2046697C
:100250006C653A20004E6F77206672657368206681
:10026000696C653A20004E6F7720646F696E672075
:1002700066696C653A20002220706F73002220703E
:100280006172656E743A2200535542524F5554497B
:100290004E452043414C4C207461726765743A228C
:1002A00000747279696E6720746F2063616C6C20D2
:1002B0007375622D67636F64652066696C65732072
:1002C0007769746820746F6F206D616E79206C653A
:1002D00076656C732E204D4158206C6576656C20D8
:1002E00069733A0053442063617264206F6B006F3E
:1002F00070656E526F6F74206661696C656400761C
:100300006F6C756D652E696E6974206661696C65C8
:100310006400534420696E6974206661696C00480A
:10032000617264636F6465642044656661756C74B2
:100330002053657474696E6773204C6F61646564E3
:100340000053746F7265642073657474696E6773AB
:1003500020726574726965766564002044002049E6
:10036000002020204D33303120500050494420736C
:10037000657474696E67733A00205A002059002032
:10038000204D323036205800486F6D65206F66660C
:1003900073657420286D6D293A00204500205A00AD
:1003A00020580020420020540020204D32303520BB
:1003B0005300416476616E636564207661726961A1
:1003C000626C65733A20533D4D696E2066656564C5
:1003D0007261746520286D6D2F73292C20543D4D5A
:1003E000696E2074726176656C2066656564726101
:1003F000746520286D6D2F73292C20423D6D696E28
:10040000696D756D207365676D656E742074696DB7
:100410006520286D73292C20583D6D6178696D75B4
:100420006D205859206A65726B20286D6D2F7329D5
:100430002C20205A3D6D6178696D756D205A206AB7
:1004400065726B20286D6D2F73292C2020453D6D22
:100450006178696D756D2045206A65726B20286D25
:100460006D2F73290020540020204D32303420534A
:1004700000416363656C65726174696F6E3A205305
:100480003D616363656C65726174696F6E2C2054A5
:100490003D7265747261637420616363656C65723B
:1004A0006174696F6E00204500205A0020590020B9
:1004B000204D3230312058004D6178696D756D20C6
:1004C000416363656C65726174696F6E20286D6D40
:1004D0002F7332293A00204500205A00205900206D
:1004E000204D3230332058004D6178696D756D2094
:1004F00066656564726174657320286D6D2F73295C
:100500003A00204500205A0020590020204D393261
:1005100020580053746570732070657220756E6981
:10052000743A0053657474696E67732053746F7204
:100530006564004572726F723A006563686F3A00D5
:1005400053544F505045442E20005072696E7465CC
:10055000722073746F707065642064756520746FA9
:10056000206572726F72732E2046697820746865F8
:10057000206572726F7220616E6420757365204D04
:1005800039393920746F20726573746172742E204A
:100590002854656D70657261747572652069732089
:1005A00072657365742E20536574206974206166CA
:1005B0007465722072657374617274696E67290064
:1005C0004B494C4C45442E20005072696E74657244
:1005D0002068616C7465642E206B696C6C2829201E
:1005E00063616C6C656421006F6B00526573656EAE
:1005F000643A20002200556E6B6E6F776E20636F39
:100600006D6D616E643A2022004368616E676520FB
:1006100066696C616D656E74005A204F666673651D
:1006200074203A20007A5F6D61783A20007A5F6D1D
:10063000696E3A20005A204F6666736574005A202E
:100640004F6666736574206F6B00486F74656E64E7
:10065000206F6666736574733A007A5F6D696E3AEF
:100660002000795F6D696E3A2000785F6D696E3A9F
:100670002000205A3A0020593A0020436F756E74CA
:1006800020583A200020453A00205A3A0020593A92
:1006900000583A000A000A20686172647761726546
:1006A0003A004649524D574152455F4E414D453AF9
:1006B00056312E302E303420537072696E7465724C
:1006C0002F6772626C206D617368757020666F723F
:1006D0002067656E36204649524D574152455F5559
:1006E000524C3A68747470733A2F2F676974687546
:1006F000622E636F6D2F556C74696D616B65722F1F
:100700004D61726C696E2050524F544F434F4C5F95
:1007100056455253494F4E3A312E30204D414348B1
:10072000494E455F545950453A493370726F4320E2
:1007300045585452554445525F434F554E543A32F2
:1007400020555549443A30303030303030302D303B
:100750003030302D303030302D303030302D3030A2
:10076000303030303030303030300A0050493320B3
:1007700050726F204320204F66662E005049332070
:1007800050726F2043202072656164792E004265AB
:100790006420646F6E652E0020423A0020453A00C6
:1007A000543A004265642048656174696E672E00A2
:1007B00048656174696E6720646F6E652E0020570E
:1007C0003A0020453A00543A0048656174696E6702
:1007D0002E2E2E002042403A0020403A00202F00CA
:1007E0003A00205400202F0020423A00202F006FB2
:1007F0006B20543A002569206D696E2C20256920F4
:1008000073656300456E642066696C65206C69736E
:100810007400426567696E2066696C65206C697357
:1008200074004E6F206D6F76652E00504933205056
:10083000726F2043202072656164792E00526573C7
:10084000756D696E67207072696E740057616974A6
:1008500020666F7220757365722E2E2E00536C65A4
:1008600065702E2E2E00FFFFFF0000524300005245
:1008700043000034430000A0400000A040000000FE
:100880004000000000000000000000000000000028
:100890000000000000000000000000524300005271
:1008A0004300003443256920686F75727320256901
:1008B000206D696E7574657300446F6E652070728B
:1008C000696E74696E672066696C650053544F5099
:1008D0005045442E20005072696E74657220737406
:1008E0006F707065642064756520746F2065727226
:1008F0006F72732E20466978207468652065727265
:100900006F7220616E6420757365204D393939200E
:10091000746F20726573746172742E202854656D33
:100920007065726174757265206973207265736594
:10093000742E20536574206974206166746572207A
:1009400072657374617274696E6729004E6F204C12
:10095000696E65204E756D626572207769746820D6
:10096000636865636B73756D2C204C617374204CE8
:10097000696E653A20004E6F20436865636B73753E
:100980006D2077697468206C696E65206E756D6284
:1009900065722C204C617374204C696E653A20009E
:1009A000636865636B73756D206D69736D617463E6
:1009B000682C204C617374204C696E653A20004CA1
:1009C000696E65204E756D626572206973206E6F69
:1009D00074204C617374204C696E65204E756D6295
:1009E00065722B312C204C617374204C696E653A12
:1009F00020004D31313000446F6E6520736176699F
:100A00006E672066696C652E006F6B004D32390091
:100A10002020506C616E6E6572427566666572422A
:100A2000797465733A20002046726565204D656DC6
:100A30006F72793A20004E6F762032332032303197
:100A40003700436F6D70696C65643A2000286765F4
:100A50006565746563682C20493320636F6E666931
:100A6000672900207C20417574686F723A20004E1F
:100A70006F7620323320323031372031373A3431FB
:100A80003A343700204C617374205570646174658A
:100A9000643A2000312E302E3034004D61726C6982
:100AA0006E0020536F6674776172652052657365BE
:100AB0007400205761746368646F672052657365C2
:100AC00074002042726F776E206F757420526573C8
:100AD0006574002045787465726E616C2052657390
:100AE000657400506F77657255700073746172742D
:100AF000002200656E717565696E67202200220014
:100B0000656E717565696E6720220020746F6F20B5
:100B10006C6F6E6720657874727573696F6E207084
:100B2000726576656E7465640020636F6C64206521
:100B30007874727573696F6E2070726576656E7405
:100B40006564007C3C3E5E2B3D3F2F5B5D3B2C2A69
:100B5000225C0045303A20005A3A2000593A2000E1
:100B6000583A20004D53312C4D53322050696E734A
:100B70000A0024F404D9201BC40C5C0E9804C40998
:100B80005F0265077101F405F900FB04B300480436
:100B90008700C10369005803550003034500BE02E6
:100BA0003A008402310053022A002902250004027F
:100BB0002000E4011C00C8011900AF0117009801D2
:100BC0001400840113007101100061011000510133
:100BD0000E0043010D0036010B002B010B0020011C
:100BE0000B00150109000C01090003010800FB00BE
:100BF0000800F3000800EB000700E4000600DE0038
:100C00000600D8000600D2000600CC000500C70090
:100C10000500C2000500BD000400B9000400B500D5
:100C20000400B1000400AD000400A9000400A50008
:100C30000300A20003009F0004009B000300980033
:100C400003009500020093000300900003008D0054
:100C500002008B000300880002008600020084006E
:100C60000300810002007F0002007D0002007B0083
:100C70000200790002007700010076000200740093
:100C8000020072000100710002006F0002006D009E
:100C900001006C0002006A000100690002006700A8
:100CA00001006600010065000100640002006200AE
:100CB000010061000100600001005F0002005D00B2
:100CC00001005C0001005B0001005A0001005900B6
:100CD00001005800010057000100560001005500B6
:100CE00001005400010053000000530001005200B5
:100CF000010051000100500001004F0001004E00B2
:100D000000004E0001004D0001004C0001004B00AE
:100D100000004B0001004A000100490001004800AA
:100D200000004800010047000100460000004600A6
:100D3000010045000000450001004400010043009F
:100D40000000430001004200000042000100410099
:100D5000000041000100400001003F0000003F0092
:100D600001003E0000003E0001003D0000003D008B
:100D700001003C0000003C0000003C0001003B0082
:100D800000003B0001003A0000003A000100390079
:100D90000000390001003800000038000000380071
:100DA0000100370000003700010036000000360067
:100DB000000036000100350000003500000035005D
:100DC0000100340000003400000034000100330052
:100DD0000000330000003300010032000000320048
:100DE000000032000100310000003100000031003D
:100DF00001003000000030000000300001002F0032
:100E000000002F0000002F0000002F0001002E0026
:100E100000002E0000002E0001002D0000002D001B
:100E200000002D0000002D0001002C0000002C000F
:100E300000002C0000002C0001002B0000002B0003
:100E400000002B0000002B0001002A0000002A00F7
:100E500000002A0000002A000100290000002900EB
:100E600000002900000029000000290001002800DE
:100E700000002800000028000000280000002800D2
:100E800001002700000027000000270000002700C5
:100E900000002700010026000000260000002600B8
:100EA00000002600000026000100250000002500AB
:100EB000000025000000250000002500000025009E
:100EC0000100240000002400000024000000240091
:100ED0000000240001002300000023000000230084
:100EE0000000230000002300000023000000230076
:100EF0000100220000002200000022000000220069
:100F0000000022000000220001002100000021005A
:100F1000000021000000210000002100000021004D
:100F2000000021000100200000002000000020003F
:100F30000000200000002000000020000000200031
:100F40000000200001001F0000001F0000001F0023
:100F500000001F0000001F0000001F0000001F0015
:100F600001001E0000001E0000001E0000001E0008
:100F7000000024F4D43050C38E20C2A24017828BCC
:100F80007011127A910D816CD90AA861E108C758D5
:100F90006607615143061E4B5D05C145A7041A4112
:100FA0001104093D9803713931034036DB02653382
:100FB0009102D4305402802E1D02632CEE01752A5A
:100FC000C501B028A001102781018F2564012B24C1
:100FD0004B01E0223401AC211F018D200D01801F47
:100FE000FC00841EED00971DDF00B81CD200E61B3C
:100FF000C600201BBC00641AB200B219A8000A196E
:10100000A0006A189900D117910040178B00B516FF
:10101000840031167E00B31579003A157300C714A9
:101020006F0058146A00EE136600881363002513DE
:101030005E00C7125B006C12570015125400C111FC
:10104000510070114F0021114B00D61049008D1036
:1010500047004610440002104200C00F4000800FBD
:101060003E00420F3C00060F3B00CB0E3800930EB3
:1010700037005C0E3500270E3400F30D3200C10D31
:101080003100900D3000600D2E00320D2D00050D49
:101090002C00D90C2B00AE0C2900850C29005C0C0F
:1010A0002700350C27000E0C2600E80B2400C40B8B
:1010B0002400A00B23007D0B23005A0B2100390BC9
:1010C0002100180B2000F80A1F00D90A1E00BB0AD5
:1010D0001E009D0A1D00800A1D00630A1C00470AAD
:1010E0001B002C0A1B00110A1A00F7091A00DD095F
:1010F0001900C4091900AB091900920917007B09EE
:101100001800630917004C0916003609160020095B
:1011100016000A091500F5081500E0081400CC08AF
:101120001400B8081400A4081400900813007D08E7
:1011300012006B0813005808120046081200340809
:101140001100230811001208110001081100F00716
:101150001000E0071000D0071000C0071000B00713
:101160000F00A107100091070E0083070F007407FE
:101170000F0065070E0057070E0049070E003B07DA
:101180000D002E070E0020070D0013070D000607A7
:101190000D00F9060C00ED060D00E0060C00D4066B
:1011A0000C00C8060C00BC060C00B0060C00A4061F
:1011B0000B0099060C008D060B0082060B007706CB
:1011C0000B006C060B0061060A0057060B004C066C
:1011D0000A0042060A0038060A002E060A00240603
:1011E0000A001A060A001006090007060A00FD0593
:1011F0000900F4050900EB050900E2050900D9051D
:101200000900D0050900C7050900BE050900B5059C
:101210000800AD050800A50509009C050800940517
:1012200008008C050800840508007C05080074058A
:1012300008006C050700650508005D0507005605F8
:1012400008004E050700470507004005080038055F
:101250000700310507002A050700230507001C05C4
:101260000600160507000F05070008050600020521
:101270000700FB040600F5040700EE040600E8047E
:101280000600E2040700DB040600D5040600CF04D4
:101290000600C9040600C3040600BD040600B70426
:1012A0000600B1040500AC040600A6040600A00474
:1012B00005009B04060095040500900406008A04BE
:1012C000050085040500800406007A040500750405
:1012D0000500700405006B04050066040500610448
:1012E00005005C04050057040500520405004D0488
:1012F000050048040500430405003E0404003A04C8
:10130000050035040500300404002C040500270402
:101310000400230405001E0404001A04040016043B
:101320000500110404000D04040009040500040470
:10133000040000040400FC030400F8030400F403A8
:101340000400F0030400EC030400E8030400E403D9
:101350000400E0030400DC030400D8030400D40309
:101360000400D0030400CC030400C8030300C50339
:101370000300656E6473746F7073206869743A203B
:101380005A00205A3A00656E6473746F7073206857
:1013900069743A20590020593A00656E6473746F7D
:1013A0007073206869743A20580020583A00656EBE
:1013B0006473746F7073206869743A2000457272A8
:1013C0003A204D415854454D502042454400546503
:1013D0006D706572617475726520686561746564AD
:1013E00020626564207377697463686564206F6642
:1013F000662E204D415854454D50207472696767E0
:1014000065726564202121004572723A204D494E73
:1014100054454D50003A20457874727564657220C9
:101420007377697463686564206F66662E204D4922
:101430004E54454D5020747269676765726564202B
:1014400021004572723A204D415854454D50003AA2
:101450002045787472756465722073776974636867
:101460006564206F66662E204D415854454D5020CE
:10147000747269676765726564202100202D2049B8
:101480006E76616C6964206578747275646572202B
:101490006E756D62657220210070012C019001272C
:1014A00001B0012201C0011D01F001180110021359
:1014B0000130020E016002090190020401C002FF26
:1014C000000003FA004003F5008003F000D003EBB6
:1014D000002004E6007004E100E004DC004005D7D1
:1014E00000C005D2004006CD00D006C8008007C36A
:1014F000003008BE00F008B900C009B400B00AAF5F
:1015000000B00BAA00D00CA500000EA000500F9B4D
:1015100000C01096005012910000148C00C0158776
:1015200000B0178200B0197D00D01B7800001E7338
:101530000040206E0090226900F024640040275F84
:101540000090295A00E02B5500102E500020304BFF
:101550000010324600E033410090353C0010373730
:101560000070383200A0392D00B03A2800A03B238B
:1015700000603C1E00103D1900903D1400103E0F0D
:1015800000703E0A00C03E0500003F000050494484
:10159000204175746F74756E652066696E69736835
:1015A0006564212050757420746865206C617374C3
:1015B000204B702C204B6920616E64204B642063AB
:1015C0006F6E7374616E74732066726F6D206162EA
:1015D0006F766520696E746F20436F6E66696775FC
:1015E000726174696F6E2E680050494420417574B1
:1015F0006F74756E65206661696C6564212074691D
:101600006D656F75740020403A006F6B20543A008E
:101610006F6B20423A00504944204175746F7475D5
:101620006E65206661696C6564212054656D706526
:1016300072617475726520746F6F206869676800E5
:10164000204B643A2000204B693A2000204B703A2E
:10165000200020436C61737369632050494420006B
:101660002054753A2000204B753A2000206D617897
:101670003A2000206D696E3A200020643A20002054
:10168000626961733A20002D2D3A2D2D002D2D2DEC
:101690000053440001200001200001200041626F3E
:1016A0007574004E6F205344206361726400507261
:1016B000696E742066726F6D2053440053746F70AE
:1016C000207072696E7400526573756D652070725A
:1016D000696E74005061757365207072696E740074
:1016E000436F6E74726F6C0050726570617265004A
:1016F00054756E6500496E666F2073637265656E22
:10170000004D61696E00052E2E004D61696E004D21
:101710003234004D3233202573004D3834205820A8
:1017200059205A204500526573746F7265206661B6
:10173000696C73616665004C6F6164206D656D6FE7
:1017400072790053746F7265206D656D6F727900E8
:1017500046696C616D656E74004D6F74696F6E00E3
:1017600054656D7065726174757265004D61696E66
:101770000046696C2E204469612E20320046696C57
:101780002E204469612E20320046696C2E20446967
:10179000612E20310046696C2E204469612E203173
:1017A000004F6666004F6E20004F6666004F6E2049
:1017B000004520696E206D6D3300436F6E74726F4B
:1017C0006C004573746570732F6D6D00457374659F
:1017D00070732F6D6D005A73746570732F6D6D008B
:1017E0005A73746570732F6D6D00597374657073DF
:1017F0002F6D6D005973746570732F6D6D00587384
:10180000746570732F6D6D005873746570732F6DF0
:101810006D00412D7265747261637400412D7265B3
:10182000747261637400416D6178206500416D617F
:1018300078206500416D6178207A00416D617820E3
:101840007A00416D6178207900416D6178207900DE
:10185000416D6178207800416D61782078005654A0
:10186000726176206D696E005654726176206D69E2
:101870006E00566D696E00566D696E00566D61782A
:10188000206500566D6178206500566D6178207A7C
:1018900000566D6178207A00566D61782079005687
:1018A0006D6178207900566D6178207800566D6101
:1018B0007820780056652D6A65726B0056652D6A32
:1018C00065726B00567A2D6A65726B00567A2D6AC6
:1018D00065726B005678792D6A65726B005678795F
:1018E0002D6A65726B00416363656C0041636365DB
:1018F0006C00436F6E74726F6C0050726568656146
:10190000742041425320636F6E66005072656865B3
:10191000617420504C4120636F6E66005049442D25
:1019200043005049442D43005049442D4400504940
:10193000442D44005049442D49005049442D49004C
:101940005049442D50005049442D5000200220465B
:101950006163740020022046616374002002204D00
:101960006178002002204D6178002002204D696ED0
:10197000002002204D696E004F6666004F6E200009
:101980004F6666004F6E20004175746F74656D7010
:101990000046616E2073706565640046616E207359
:1019A000706565640042656400426564004E6F7A4C
:1019B0007A6C6532004E6F7A7A6C6532004E6F7ABF
:1019C0007A6C65004E6F7A7A6C6500436F6E747244
:1019D0006F6C0053746F7265206D656D6F72790066
:1019E00042656400426564004E6F7A7A6C65004E11
:1019F0006F7A7A6C650046616E207370656564006D
:101A000046616E2073706565640054656D70657223
:101A100061747572650053746F7265206D656D6FCA
:101A200072790042656400426564004E6F7A7A6C98
:101A300065004E6F7A7A6C650046616E2073706542
:101A400065640046616E2073706565640054656D61
:101A50007065726174757265004D6F76652061788E
:101A60006973004D38300053776974636820706F74
:101A7000776572206F6E004D38310053776974635B
:101A80006820706F776572206F666600436F6F6CB9
:101A9000646F776E005072656865617420414253CF
:101AA000005072656865617420504C410053657444
:101AB00020686F6D65206F666673657473004732CA
:101AC00038004175746F20686F6D65004D383400C3
:101AD00044697361626C65207374657070657273BC
:101AE000004D61696E004D6F766520302E316D6D51
:101AF000004D6F766520316D6D004D6F766520313C
:101B0000306D6D0050726570617265004578747259
:101B100075646572004D6F7665205A004D6F76656D
:101B20002059004D6F76652058004D6F7665206115
:101B3000786973004578747275646572005A00594B
:101B4000005800507265686561742041425320421C
:101B5000656400507265686561742041425320419C
:101B60006C6C00507265686561742041425320328C
:101B70000050726568656174204142532031005005
:101B8000726570617265005072656865617420509D
:101B90004C41204265640050726568656174205054
:101BA0004C4120416C6C0050726568656174205036
:101BB0004C412032005072656865617420504C4180
:101BC00020310050726570617265004D3630300012
:101BD0004368616E67652066696C616D656E74004F
:101BE000466C6F77203100466C6F77203100466C71
:101BF0006F77203000466C6F77203000466C6F772F
:101C000000466C6F770046616E20737065656400F6
:101C100046616E20737065656400426564004265CC
:101C200064004E6F7A7A6C6532004E6F7A7A6C651A
:101C300032004E6F7A7A6C65004E6F7A7A6C65006E
:101C40005370656564005370656564004D61696E2D
:101C500000436172642072656D6F76656400436154
:101C6000726420696E736572746564004D33303040
:101C700020533639382050323030004D3330302048
:101C80005336353920503230300000002100240016
:101C900027002A002D00300033000101000004015C
:101CA00007010A0100002200250028002B002E0059
:101CB0003100340002010000050108010B010000A1
:101CC00020002300260029002C002F0032000001F4
:101CD00000000301060109010505050507050808BF
:101CE0000808020202020A0A0808040404040101A6
:101CF00001010101010103030303030303030407BB
:101D000007070C0C0C0C0C0C0C0C02020202060651
:101D10000606060606060B0B0B0B0B0B0B0B010244
:101D200010202008081020401020408002010201ED
:101D300008040201010204081020408080402010A5
:101D400008040201800402018040201008040201FE
:101D50000804020101020408102040800102040866
:101D6000102040800000090A02080B0C0D07060332
:101D7000040100000000000000000000000000005E
:101D80000000000000000000000000000000000053
:101D900011100F0000000000000000000000000013
:101DA0000000000000000000000002494E46494EBD
:101DB0004954594E414ECDCCCC3D0AD7233C17B7A0
:101DC000D13877CC2B329595E6241FB14F0A00000D
:101DD00020410000C84200401C4620BCBE4CCA1B2B
:101DE0000E5AAEC59D74072DBC2F46CD8ADAB72F8B
:101DF00011241FBECFEFD1E2DEBFCDBF00E00CBF8C
:101E000015E0A0E0B2E0EEEFF5ED01E00BBF02C09F
:101E100007900D92A433B107D9F71BBE13E1A4E3D9
:101E2000B5E001C01D92A13FB107E1F71DE1CEEE83
:101E3000DDE104C02297FE010E94A5EAC63ED1075B
:101E4000C9F70E94A1E10C94F3EA0C940000A0E011
:101E5000B0E0EDE2FFE00C94C2EAEC015B01611539
:101E6000710519F0FB0191838083F9908F2D90E02B
:101E70000E94A9EA892BC9F7FDE2FF1621F4F99027
:101E8000EE24E39405C02BE2F21609F4F990EE2457
:101E90008E0101501040C8016BEA7DE143E050E043
:101EA00072D2892BF9F48E010E5F1F4FC8016EEAC2
:101EB0007DE145E050E067D2892B19F48E01095F7E
:101EC0001F4FA114B10419F0F50111830083E0FC48
:101ED00004C070E090E080E813C070E090E080E81B
:101EE0006FEF07C1C80163EB7DE143E050E04BD2E7
:101EF000892B69F4A114B10429F470E090E080EC1E
:101F00006FE7F7C02296F501D183C083F6CF88240E
:101F1000992440E050E060E070E0EF2DE053EA30BB
:101F2000A0F5F2E0EF2A8E2D90E09C012870307031
:101F3000E2FE06C0232B79F50894811C911C2BC06E
:101F4000232B19F0089481089108DB01CA0112E0E3
:101F5000880F991FAA1FBB1F1A95D1F7480F591F49
:101F60006A1F7B1F440F551F661F771F4E0F511DA1
:101F7000611D711D483929E9520729E9620729E1E4
:101F8000720748F084E0E82A06C0EE3F31F4E3FC33
:101F900039C098E0E92AF990C0CFE53311F0E53176
:101FA00089F529912D3219F4E0E1EE2A05C02B3292
:101FB00019F081E090E003C0299182E090E0E22FE7
:101FC000E053EA3018F0C81BD90B1CC020E030E009
:101FD000FCE020383F075CF4C901880F991F880F87
:101FE000991F280F391F220F331F2E0F311DE99122
:101FF000E053EA3068F3E4FE03C0309521953F4F8B
:10200000820E931ECE2CDD24E1FE07C0A114B10484
:1020100021F02197F501D183C083CB01BA010E9441
:102020000EE77B018C01F3E0CF22DD2423E0C21612
:10203000D10421F417FB109517F910955701680189
:10204000C801B70120E030E040E050E00E946EE6B9
:10205000882309F44AC097FE0DC02AECE22E2DE138
:10206000F22E9094819491089394C0E2D0E000E025
:1020700010E012C092EEE92E9DE1F92EF6CFF701A5
:102080002591359145915491C601B5010E944EE9C3
:102090005B016C018C1A9D0A8C169D0684F7D59500
:1020A000C7950F5F1F4F0630110529F08CEF9FEF8A
:1020B000E80EF91EF1CFC501D6017C018D018C2DF2
:1020C000880F8D2D881F8F3F51F0C601B50120E08C
:1020D00030E040E050E00E946EE6882331F482E276
:1020E00090E09093F0138093EF137E2D9F2D802F1F
:1020F000612F272F392F482F562FB901CA01CDB78D
:10210000DEB7ECE00C94DEEA2F923F925F926F9282
:102110007F928F929F92AF92BF92CF92DF92EF9277
:10212000FF920F931F93CF93DF938C011B01EA0162
:102130006115710519F0FB0191838083209749F0A7
:10214000CE010297839728F020E030E040E050E095
:10215000F6C0F801A1908F018A2D90E00E94A9EAB3
:10216000892BB9F7FDE2AF1631F4F801A1908F0188
:102170005524539407C0FBE2AF1619F4F801A1905F
:102180008F015524209719F0C031D105C1F4F0E337
:10219000AF1679F4F8018081883711F0883549F459
:1021A000F801A1800E5F1F4FF2E05F2AC0E1D0E08E
:1021B00006C0209721F480E3A816E9F427C0C830B0
:1021C000D10531F1C930D10524F4C230D10531F542
:1021D0000CC0CA30D10589F0C031D105F9F4C12C49
:1021E000D12CE12CB8E0FB2E28C0C12CD12CE12C45
:1021F000A0E4FA2E22C0CAE0D0E0FCECCF2EFCEC2A
:10220000DF2EFCECEF2EFCE0FF2E17C0C8E0D0E084
:10221000C12CD12CE12CE0E1FE2E0FC09E01442701
:1022200037FD4095542F60E070E080E090E80E9418
:1022300066EAC901DA016C017D0120E030E040E08E
:1022400050E060E03E01882477FC8094982C70ED8B
:10225000B72EBA0CE9E0EB1570F48A2D81548A315F
:1022600018F499ECB92E06C08A2D81568A3150F5A2
:1022700089EAB82EBA0C8B2D90E08C179D0714F5C7
:102280006F3FE1F0C216D306E406F506B0F0CA01CE
:10229000B901A40193010E9420EA9B01AC012B0D1E
:1022A000311D411D511D2130F0E03F07F0E04F0787
:1022B000F0E85F0710F461E001C06FEFF801A19052
:1022C0008F01C5CF2114310481F0662331F0015014
:1022D0001040F1011183008308C051FE1AC0025062
:1022E0001040F1011183008314C067FF12C050FC3D
:1022F00005C02FEF3FEF4FEF5FE704C020E030E075
:1023000040E050E882E290E09093F0138093EF1366
:1023100016C050FE08C050954095309521953F4F0E
:102320004F4F5F4F0CC057FF0AC082E290E090937E
:10233000F0138093EF132FEF3FEF4FEF5FE7B901FB
:10234000CA01DF91CF911F910F91FF90EF90DF9025
:10235000CF90BF90AF909F908F907F906F905F9045
:102360003F902F900895FB01DC0105900D92002015
:10237000E1F70895FC0105900020E9F7809590951C
:102380008E0F9F1F0895FB01DC014150504088F0E3
:102390008D9181341CF08B350CF4805E6591613435
:1023A0001CF06B350CF4605E861B611171F3990BA8
:1023B0000895881BFCCFFB01DC014150504048F0E0
:1023C00005900D920020C9F701C01D924150504068
:1023D000E0F70895FB0155915523A9F0BF01DC01F9
:1023E0004D9145174111E1F759F4CD0105900020B9
:1023F00049F04D9140154111C9F3FB014111EFCF57
:1024000081E090E001970895FB01DC0104C08D910B
:102410000190801921F441505040C8F7881B990B56
:102420000895FB01DC0102C001900D924150504023
:10243000D8F70895FB01DC018D9181341CF08B35B8
:102440000CF4805E619161341CF06B350CF4605EBD
:10245000861B611189F3990B0895FB01DC010D9036
:102460000020E9F7119701900D920020E1F70895FF
:10247000FC018191861721F08823D9F799270895C7
:102480003197CF010895FB01DC018D9101908019F6
:102490000110D9F3990B0895FB01DC0101900D9215
:1024A0000020E1F70895FB01DC014150504030F07D
:1024B0008D910190801919F40020B9F7881B990BB0
:1024C0000895FB01DC014150504048F001900D920D
:1024D0000020C9F701C01D9241505040E0F7089517
:1024E000AEE0B0E0E6E7F2E10C94CAEA0E891F899B
:1024F0008EE08C831A8309838FEF9FE79E838D8301
:102500009E01265E3F4FCE010196688D798DA9010F
:102510000AD02F813885020F131FF80110822E96E2
:10252000E4E00C94E6EAABE0B0E0E9E9F2E10C9417
:10253000BCEA3C012B015A01FC01178216828381FF
:1025400081FD03C06FEF7FEFB9C19AE0892E1E01B4
:102550000894211C311CF3012381F20123FD859194
:1025600023FF81912F01882309F4A5C1853239F415
:1025700023FD859123FF81912F01853221F490E085
:10258000B301B7D1E8CF982FFF24EE249924FFE1BF
:10259000FF15D0F09B3269F09C3228F4903259F04C
:1025A000933291F40EC09D3249F0903369F441E0CA
:1025B00024C052E0F52A84E0F82A28C098E0F92ADD
:1025C00025C0E0E1FE2A22C0F7FC29C0892F8053F4
:1025D0008A3070F4F6FE05C0989C902C1124980E59
:1025E00015C0E89CE02C1124E80EF0E2FF2A0EC092
:1025F0009E3229F4F6FC5FC140E4F42A07C09C3601
:1026000019F450E8F52A02C0983649F4F20123FD86
:10261000959123FF91912F01992309F0B8CF892F2C
:102620008554833018F08052833038F444E050E011
:10263000A40EB51E5FE359830FC0933631F0933774
:1026400079F0933509F052C01FC0F501808189836C
:1026500042E050E0A40EB51E610101E010E011C09F
:10266000F501C080D180F6FC03C06FEF7FEF02C0A0
:10267000692D70E042E050E0A40EB51EC6012ED1D7
:102680008C015FE7F52213C0F501C080D180F6FC14
:1026900003C06FEF7FEF02C0692D70E042E050E0B1
:1026A000A40EB51EC6010FD18C0150E8F52AF3FE29
:1026B00006C018C080E290E0B3011BD1EA948E2DD1
:1026C00090E008171907B0F30DC0F601F7FC8591EB
:1026D000F7FE81916F0190E0B3010BD1E110EA9414
:1026E000015010400115110581F7E2C0943611F038
:1026F000993661F5F7FE08C0F501208131814281EC
:10270000538184E090E00AC0F501808191819C01B1
:10271000442737FD4095542F82E090E0A80EB91E63
:102720009FE6F92257FF09C05095409530952195B5
:102730003F4F4F4F5F4FE0E8FE2ACA01B901A101A8
:102740002AE030E002D1D82ED2183FC0953729F4C4
:102750001F2D1F7E2AE030E01DC01F2D197F9F36E0
:1027600061F0903720F4983509F0A5C00FC090377C
:1027700039F0983709F09FC004C028E030E00AC063
:10278000106114FD146020E130E004C014FD1660F7
:1027900020E132E017FF08C0F5016081718182817C
:1027A000938144E050E008C0F50180819181BC0133
:1027B00080E090E042E050E0A40EB51EA101C5D03B
:1027C000D82ED2188FE7F82EF122F6FE0BC05EEF5E
:1027D000F522D91438F4F4FE07C0F2FC05C08FEEE0
:1027E000F82202C01D2D01C0192DF4FE0DC0FE01FE
:1027F000ED0DF11D8081803319F499EEF92208C0A6
:102800001F5FF2FE05C003C08F2D867809F01F5FA1
:102810000F2DF3FC13C0F0FE0EC01E1510F09D2C02
:102820000AC09D2C9E0C911A1E2D05C080E290E0DE
:10283000B3015FD01F5F1E15C8F304C01E1510F44E
:10284000E11A01C0EE2404FF0EC080E390E0B30162
:1028500050D002FF1BC001FD03C088E790E00EC00E
:1028600088E590E00BC0802F867881F001FF02C0E0
:102870008BE201C080E2F7FC8DE290E0B30139D039
:1028800005C080E390E0B30134D09A94D914C8F322
:10289000DA94F101ED0DF11D808190E0B30129D0B2
:1028A000DD20B1F705C080E290E0B30122D0EA94C8
:1028B000EE20C9F750CEF30166817781CB012B96CC
:1028C000E2E10C94D8EAFC010590615070400110DF
:1028D000D8F7809590958E0F9F1F0895FC01615049
:1028E000704001900110D8F7809590958E0F9F1F32
:1028F00008950F931F93CF93DF938C01EB018B818E
:1029000081FF1BC082FF0DC02E813F818C819D8184
:102910002817390764F4E881F9810193F983E88382
:1029200006C0E885F985802F1995892B31F48E81B1
:102930009F8101969F838E8302C00FEF1FEFC80116
:10294000DF91CF911F910F910895FA01AA272830A6
:1029500051F1203181F1E8946F936E7F6E5F7F4F6C
:102960008F4F9F4FAF4FB1E03ED0B4E03CD0670FE8
:10297000781F891F9A1FA11D680F791F8A1F911D3B
:10298000A11D6A0F711D811D911DA11D20D009F48B
:1029900068943F912AE0269F11243019305D3193CD
:1029A000DEF6CF010895462F4770405D4193B3E0B6
:1029B0000FD0C9F7F6CF462F4F70405D4A3318F05D
:1029C000495D31FD4052419302D0A9F7EACFB4E00E
:1029D000A6959795879577956795BA95C9F70097C6
:1029E0006105710508959B01AC010A2E0694579567
:1029F000479537952795BA95C9F7620F731F841FBE
:102A0000951FA01D0895FC01128213820895FC01F8
:102A10008381882311F081E082830895FC01828103
:102A2000811112820895CF93DF93DC01FC01EB55F5
:102A3000FE4F808191810097C9F101979183808336
:102A4000ED01CC5ADF4FFD01ED58FF4F8BE10190B6
:102A500009928150E1F7FD01EE5AFF4FAF58BF4F89
:102A60008D919C911197A157B04091838083FD0176
:102A7000ED58FF4F20E030E0AD014B555E4F10C0E8
:102A80002F5F3F4FEF01DF015F968BE10D900992C1
:102A90008150E1F7858D968D329791838083B19631
:102AA000DA018D919C912817390750F3DF91CF916E
:102AB0000895FC0189EB94E09183808387818823CA
:102AC00021F0CF0104960C9436700895CF92DF92D6
:102AD000EF92FF920F931F93DF93CF93CDB7DEB7A3
:102AE0006F970FB6F894DEBF0FBECDBF8C016B01A0
:102AF000095A1F4FD8018C9107551040882321F4A3
:102B00002FE2E22EF12C03C090E5E92EF12CE00E2D
:102B1000F11E89EB94E09A8389831C821B821886BC
:102B20001D82B7016C5F7F4FCE010596A60121E0A3
:102B30000E942277882391F5EAE3F5E0949108C09A
:102B40008091C00085FFFCCF9093C6003196949190
:102B50009923B1F7EBE3F1E0949108C08091C000B4
:102B600085FFFCCF9093C600319694919923B1F7DD
:102B700009C08091C00085FFFCCF0894C11CD11C06
:102B80009093C600F6019081992399F78091C00037
:102B900085FFFCCF8AE08093C6005AC0F801EB5550
:102BA000FE4F208131812A30310508F040C02F5F6F
:102BB0003F4F3183208321503040F90185E0EE0FF3
:102BC000FF1F8A95E1F7E21BF30BED58FF4FE00F73
:102BD000F11F13C0AF01415E5F4FBF018BE1DB010D
:102BE0000D90BD01DA010D92AD018150C1F79291B6
:102BF00082913296968F858F7F9721503040BFEF1C
:102C00002E3F3B0739F7D801AD58BF4FF701349637
:102C10008BE101900D928150E1F70F581F4FF701A2
:102C200082819381D8018D939C9301571040D801E4
:102C3000AC5ABF4FFE0135968BE101900D92815049
:102C4000E1F70E5A1F4F8B819C81F801918380839D
:102C5000CE0101962EDF6F960FB6F894DEBF0FBE41
:102C6000CDBFCF91DF911F910F91FF90EF90DF903B
:102C7000CF900895EF92FF920F931F938C013EEC3B
:102C8000E32E31E0F32EE80EF91EC7010E94E76F34
:102C9000C7010E943670F801108211821F910F91B6
:102CA000FF90EF900895CF92DF92EF92FF920F93F3
:102CB0001F93CF93DF937C016B01DB010D9000200C
:102CC000E9F78D0101501040061B170BEEECF1E007
:102CD000EE0EFF1ED7011C92E2E3FEEFEE0EFF1E8A
:102CE000CB016EE470E0C4DBEC01009731F4F80135
:102CF0003197EC0DFD1D86010CC060E270E0B8DB81
:102D00008C010F5F1F4FCE016AE270E0B1DBFC0166
:102D100031978DE081838AE082831382C7018653D5
:102D20009E4FB8010E9433788EEC91E0E80EF91EB8
:102D3000D7018C91882319F1E3E3F5E0949108C061
:102D40008091C00085FFFCCF9093C600319694918E
:102D50009923B1F7E5E6F1E0949108C08091C000B5
:102D600085FFFCCF9093C600319694919923B1F7DB
:102D70008091C00085FFFCCF8AE08093C600DF9180
:102D8000CF911F910F91FF90EF90DF90CF9008951A
:102D9000CF93DF93EC018B81882309F43BC0EDE8EE
:102DA000F1E0949108C08091C00085FFFCCF909322
:102DB000C600319694919923B1F7CD57DD4F4881E4
:102DC00059816A817B81C358D24088EB95E02AE023
:102DD00030E00E94A02DEBE8F1E0949108C08091D2
:102DE000C00085FFFCCF9093C60031969491992343
:102DF000B1F7C558DD4F488159816A817B8188EBE5
:102E000095E02AE030E00E94A02D8091C00085FF6F
:102E1000FCCF12C0EBE7F1E0949108C08091C000B4
:102E200085FFFCCF9093C600319694919923B1F71A
:102E30008091C00085FFFCCF8AE08093C600DF91BF
:102E4000CF9108952F923F924F925F926F927F920F
:102E50008F929F92AF92BF92CF92DF92EF92FF92AA
:102E60000F931F93DF93CF93CDB7DEB7AC970FB619
:102E7000F894DEBF0FBECDBF5C014B01FC01838126
:102E8000882309F43BC1C50182539E4F0E943670CE
:102E9000F50112821A8A1D8A198A188A89EB94E030
:102EA0009F878E875EE4C52ED12CCA0CDB1C2FE2D7
:102EB00030E0A20EB31EF601B182A08221ED3FEFF9
:102EC000A20EB31EF40180818F3209F08DC0C401BF
:102ED0006FE270E0CDDA7C010894E11CF11C3E0148
:102EE0000894611C711C260142E1242E312C2C0E09
:102EF0003D1E75C0C7016FE270E0BADA6C01009741
:102F000009F480C0E816F90608F07CC08C010E199F
:102F10001F09C301B701A801D4DA060D171DF80176
:102F20001082F30107C08091C00085FFFCCF31966D
:102F30009093C60090819923B1F78091C00085FFDE
:102F4000FCCFFAE0F093C600F20160817181611557
:102F5000710519F460E070E002C06C5F7F4FC10141
:102F6000A30121E00E942277882371F5E9ECF1E0CA
:102F7000949108C08091C00085FFFCCF9093C6005B
:102F8000319694919923B1F7FE01319607C0809153
:102F9000C00085FFFCCF31969093C60090819923A5
:102FA000B1F7E7ECF1E0949108C08091C00085FF93
:102FB000FCCF9093C600319694919923B1F78091FC
:102FC000C00085FFFCCF94C02EE030E02C0F3D1FE9
:102FD000F2013183208376010894E11CF11CE11495
:102FE000F10409F087CF0BC080E590E0A80EB91E70
:102FF000F601B182A08220EB3FEFA20EB31ED82CC7
:10300000092D02C0DE2C0F2D8EE490E0A80EB91E13
:10301000F5018081918122EB3FEFA20EB31E009754
:1030200019F480E090E001C004966D2D702F0E948D
:10303000EE77882371F1E9EBF1E0949108C080917B
:10304000C00085FFFCCF9093C600319694919923E0
:10305000B1F78D2D902F9C01F90107C08091C00020
:1030600085FFFCCF31969093C60090819923B1F7EC
:103070008091C00085FFFCCF8AE08093C60083E882
:1030800092E0A80EB91EF5011082118212821382FD
:1030900032C0E1EAF1E0949108C08091C00085FF60
:1030A000FCCF9093C600319694919923B1F78D2D62
:1030B000902F9C01F90107C08091C00085FFFCCFD3
:1030C00031969093C60090819923B1F7EFE9F1E032
:1030D000949108C08091C00085FFFCCF9093C600FA
:1030E000319694919923B1F78091C00085FFFCCF70
:1030F0008AE08093C600CE010E96DBDCAC960FB65C
:10310000F894DEBF0FBECDBFCF91DF911F910F911D
:10311000FF90EF90DF90CF90BF90AF909F908F90F7
:103120007F906F905F904F903F902F900895BF9247
:10313000CF92DF92EF92FF920F931F93CF93DF9383
:103140008C01EB018FE28993EE24E394FF2475EA6E
:10315000C72E71E0D72EC00ED11E6FE1B62E14C05F
:10316000FB9CC00111248D589F4F800F911FBE0101
:103170000E94467002C02196E3948881882319F04A
:103180008CE88E15C0F7F3942F2D30E0F601808186
:1031900091812817390720F3E7FC07C0C801825343
:1031A0009E4FBE010E94467001C01882DF91CF91F0
:1031B0001F910F91FF90EF90DF90CF90BF900895F7
:1031C000EF92FF920F931F93CF93DF938C01FC013B
:1031D000138286A9882321F0C801C3960E94367005
:1031E000E7EAEE2EE1E0FE2EE00EF11EC70160E000
:1031F00045E30E94E36D882309F5EAE3F5E0949145
:1032000008C08091C00085FFFCCF9093C600319626
:1032100094919923B1F7E2E1F3E0949108C0809191
:10322000C00085FFFCCF9093C600319694919923FE
:10323000B1F78091C00085FFFCCF7DC0E801C45587
:10324000DE4FCE01B70141E00E94C478882341F5EA
:10325000CE01B70140E00E94C478882309F5E3E37A
:10326000F5E0949108C08091C00085FFFCCF909359
:10327000C600319694919923B1F7EFEFF2E0949163
:1032800008C08091C00085FFFCCF9093C6003196A6
:1032900094919923B1F78091C00085FFFCCF4BC07A
:1032A000C801C396BE010E942873882309F5E3E391
:1032B000F5E0949108C08091C00085FFFCCF909309
:1032C000C600319694919923B1F7EFEEF2E0949114
:1032D00008C08091C00085FFFCCF9093C600319656
:1032E00094919923B1F78091C00085FFFCCF23C052
:1032F00081E0F8018383EAE3F5E0949108C08091CE
:10330000C00085FFFCCF9093C6003196949199231D
:10331000B1F7E4EEF2E0949108C08091C00085FF1F
:10332000FCCF9093C600319694919923B1F7809188
:10333000C00085FFFCCF8AE08093C600D801AC5A5C
:10334000BF4FF801F3968BE101900D928150E1F7A8
:10335000F80181A992A90E5A1F4FF8019183808329
:1033600002551040C8018F96025B1F4FF8019183F0
:103370008083DF91CF911F910F91FF90EF9008957F
:103380002F923F924F925F926F927F929F92AF9255
:10339000BF92CF92DF92EF92FF920F931F93DF9332
:1033A000CF93CDB7DEB7CC55D0400FB6F894DEBF83
:1033B0000FBECDBF6C01662311F527E832E0C20EC7
:1033C000D31ED6018C91E9E7FDEFCE0EDF1E8823D8
:1033D00009F4E2C02FE732E0C20ED31ED601ED9011
:1033E000FD900D911C91E1E8FDEFCE0EDF1E0E94D5
:1033F000DCDEE616F7060807190708F4CDC027E853
:1034000032E0C20ED31ED6011C92E9E7FDEFCE0ECC
:10341000DF1ED60113968C91882339F4C601D0DEC5
:10342000F6018381882309F4B7C000D000D0EDB73E
:10343000FEB731967E010894E11CF11CADB7BEB712
:103440001296FC92EE9211978CE591E09383828321
:10345000D6019D968D919C919E979583848340D8AB
:103460008701EDB7FEB736960FB6F894FEBF0FBED4
:10347000EDBF57010AC0D8018C91992787FD90951F
:103480000E94B1EAF80181938F01F50101900020BB
:10349000E9F73197EA19FB09802F8E198E175CF333
:1034A00013E3A12EB12CAC0CBD1CC50140E050E0D3
:1034B00060E070E00E941D6F9924BDE3EB2EF12CBB
:1034C000EC0EFD1E2E010894411C511CAFE16A2E2A
:1034D000712C6C0E7D1EF5E52F2EF1E03F2E42C0C3
:1034E000D8018C9190E00E94B1EAF80181938F019C
:1034F000D7010D900020E9F71197AE19BF09802F71
:103500008E198A176CF327968FAD27978E3751F156
:10351000C701B20145E050E00E945312009711F537
:1035200000D000D0EDB7FEB73196ADB7BEB712965A
:103530007C926E92119733822282558244820E943D
:103540007012EDB7FEB736960FB6F894FEBF0FBEF9
:10355000EDBFC3010E94B45381E591E00E943B534B
:1035600099249394C501B70140E050E00E9447724E
:10357000181614F48701BCCF992041F48FEF9FEF08
:10358000D6019E969C938E939D9706C0F60185A5C5
:1035900096A5019696A785A7C45ADF4F0FB6F89453
:1035A000DEBF0FBECDBFCF91DF911F910F91FF9076
:1035B000EF90DF90CF90BF90AF909F907F906F90F3
:1035C0005F904F903F902F9008952F923F924F928F
:1035D0005F926F927F928F929F92AF92BF92CF92A3
:1035E000DF92EF92FF920F931F93DF93CF93CDB7AC
:1035F000DEB7CF58D0400FB6F894DEBF0FBECDBFB8
:103600008C012B016A01C757DF4F39832883C958C2
:10361000D04084E090E0C80ED91EF8017196C957D9
:10362000DF4FF983E883C758D04044E0642E712C03
:10363000600E711ECA57DF4F1882C658D04036E65A
:10364000E32EF12CEC0EFD1EC7010B96C557DF4F84
:1036500099838883CB58D04028E8822E22E0922E8E
:10366000800E911E9AE8A92E92E0B92EA00EB11EEE
:1036700087E4282E312C2C0E3D1EF1013496C357C1
:10368000DF4FF983E883CD58D040EAE3F5E0849139
:10369000C157DF4F8883CF58D04053C1F70183858E
:1036A000482F50E0BA01687170706031710509F0FF
:1036B00056C1F401208131812130310509F44FC117
:1036C0002230310509F44BC1F701DE0111969081DA
:1036D000903239F08E2F8E19883011F48EE28D934E
:1036E0009D933196C557DF4F88819981CB58D04043
:1036F000E817F90761F71C921E86F2018081882382
:1037000031F4CE010E9660E072E00E942D12CE01DF
:103710000E96B2010E942D12CE010E96BE016F5F71
:103720007F4F0E942D12CE010E9660E072E00E9443
:103730002D121CA61FA61BA61AA689EB94E099A71A
:1037400088A7CE018C96B601AE014F5F5F4F21E096
:103750000E942277882309F03FC0F4018081918183
:10376000892BD1F5C157DF4F9881CF58D040EAE37C
:10377000F5E008C08091C00085FFFCCF9093C600A3
:10378000319694919923B1F7E2E0F2E007C080917D
:10379000C00085FFFCCF31969093C600908199239D
:1037A000B1F78091C00085FFFCCFFAE0F093C6002E
:1037B000FE01319607C08091C00085FFFCCF319695
:1037C0009093C60090819923B1F78091C00085FF46
:1037D000FCCF8AE08093C600C357DF4FA881B98130
:1037E000CD58D040FE01BC968BE101900D928150E6
:1037F000E1F78AA59BA5F1019383828389EB94E08D
:1038000091838083C801BE01625F7F4FA10120E0E8
:1038100030E0DBDEC1014DD9CE0188964AD991C096
:103820009E3209F48EC09F3509F48BC0F80191894E
:103830009E3209F486C09F3509F483C043FD81C0E0
:1038400080E06031710509F481E0F80184A78823E4
:1038500049F4F7018085873409F073C081858E377C
:1038600009F46FC0D301F7018081803241F08E2FBF
:103870008E19883011F48EE28D9380818D9331966C
:10388000C557DF4F88819981CB58D040E817F90799
:1038900059F71C92F40180819181009701F5F201A2
:1038A00007C08091C00085FFFCCF31969093C60081
:1038B00090819923B1F7F30107C08091C00085FF83
:1038C000FCCF31969093C60090819923B1F78091F7
:1038D000C00085FFFCCFFAE0F093C60032C0813013
:1038E000910539F4F501808191810196918380835E
:1038F00028C0029731F5C757DF4F88819981C95891
:10390000D040009731F0B3010E941A12892B71F454
:103910002BC0CA57DF4F9881C658D040292F30E0BE
:10392000F5018081918128173907F1F0CA57DF4FDF
:10393000F881C658D040FF5FCA57DF4FF883C6589A
:10394000D040C601B701C957DF4F48815981C758D8
:10395000D0400E94477218160CF4A0CE05C0F701A3
:103960009081992309F05CCFC157DF4F0FB6F894CF
:10397000DEBF0FBECDBFCF91DF911F910F91FF90A2
:10398000EF90DF90CF90BF90AF909F908F907F90FF
:103990006F905F904F903F902F900895EF92FF921D
:1039A0000F931F93DF93CF93CDB7DEB76F970FB60B
:1039B000F894DEBF0FBECDBF7C018C01025B1F4FB0
:1039C000805B9F4FF8019183808328E832E0E20E0C
:1039D000F31E21E030E0F701219331937F01118242
:1039E000108226E73DEFE20EF31E049640E050E021
:1039F00060E070E00E941D6FF80120813181DE01DE
:103A00001596F90134968BE101900D928150E1F702
:103A1000F901828193819C838B8389EB94E09A8363
:103A20008983C70165E172E08E010F5F1F4FA80116
:103A300020E030E0CADDC8013CD8F701E657FD4F71
:103A4000808191816F960FB6F894DEBF0FBECDBF17
:103A5000CF91DF911F910F91FF90EF900895CF923A
:103A6000DF92EF92FF920F931F93DF93CF93CDB727
:103A7000DEB76F970FB6F894DEBF0FBECDBF7C01E7
:103A80006A018C01025B1F4F805B9F4FF80191839D
:103A9000808328E832E0E20EF31E22E030E0F701F6
:103AA000219331937F017183608326E73DEFE20E1E
:103AB000F31E049640E050E060E070E00E941D6F4D
:103AC000F80120813181DE011596F90134968BE1F0
:103AD00001900D928150E1F7F901828193819C83DD
:103AE0008B8389EB94E09A838983C70165E172E057
:103AF0008E010F5F1F4FA801960167DDC8010E946C
:103B000059156F960FB6F894DEBF0FBECDBFCF919B
:103B1000DF911F910F91FF90EF90DF90CF9008956C
:103B20002F923F924F925F926F927F928F929F92CD
:103B3000AF92BF92CF92DF92EF92FF920F931F93BB
:103B4000DF93CF93CDB7DEB7AD970FB6F894DEBF56
:103B50000FBECDBF7C013B014DA7DC0113968C91BC
:103B6000882309F450C3E1EDF1E0EE0EFF1ED7010A
:103B70008C91EFE2FEEFEE0EFF1E882309F418C1D0
:103B8000222309F0E0C029EE31E0E20EF31ED70156
:103B90008C91E7E1FEEFEE0EFF1E882371F1E3E367
:103BA000F5E0949108C08091C00085FFFCCF909310
:103BB000C600319694919923B1F7E1EAF2E094912D
:103BC00008C08091C00085FFFCCF9093C60031965D
:103BD00094919923B1F788EB95E061E070E04AE0B9
:103BE00050E00E94EF2D8091C00085FFFCCF8AE05D
:103BF0008093C6000E94633006C3EAE3F5E0949127
:103C000008C08091C00085FFFCCF9093C60031961C
:103C100094919923B1F7E8E8F2E0949108C080917B
:103C2000C00085FFFCCF9093C600319694919923F4
:103C3000B1F7F30107C08091C00085FFFCCF31963A
:103C40009093C60090819923B1F7EDE7F2E094914B
:103C500008C08091C00085FFFCCF9093C6003196CC
:103C600094919923B1F7C7012EEE31E0E20EF31ED5
:103C7000B7015DDA4BEF5FEFE40EF51ED7019C91C3
:103C8000E7E1FEEFEE0EFF1E8DE8989FF001112494
:103C9000E251FE4FEE0DFF1D07C08091C00085FF71
:103CA000FCCF31969093C60090819923B1F7E7E756
:103CB000F2E0949108C08091C00085FFFCCF909302
:103CC000C600319694919923B1F723E832E0E20ED1
:103CD000F31ED7014D915D916D917C91EDE7FDEF64
:103CE000EE0EFF1E88EB95E02AE030E00E94A02D4A
:103CF0008091C00085FFFCCF8AE08093C600A701B9
:103D000047515E4FDA012C91E22FF0E0EE0FFF1FDA
:103D1000EE0FFF1FEE0DFF1DE651FE4F83E892E010
:103D2000E80EF91ED701AD90BD90CD90DC908DE7E7
:103D30009DEFE80EF91EA082B182C282D3822F5F6E
:103D4000DA012C932FC0EAE3F5E0949108C080914A
:103D5000C00085FFFCCF9093C600319694919923C3
:103D6000B1F7E6E6F2E0949108C08091C00085FFCB
:103D7000FCCF9093C600319694919923B1F7F3014B
:103D800007C08091C00085FFFCCF31969093C6009C
:103D900090819923B1F78091C00085FFFCCF8AE024
:103DA0008093C600C70182539E4F0E94367039C06F
:103DB000E9EEF1E0EE0EFF1ED7011C92E7E1FEEF07
:103DC000EE0EFF1EEAE3F5E0949108C08091C0007A
:103DD00085FFFCCF9093C600319694919923B1F75B
:103DE000E5E5F2E0949108C08091C00085FFFCCF2A
:103DF0009093C600319694919923B1F7F30107C0CF
:103E00008091C00085FFFCCF31969093C6009081D1
:103E10009923B1F78091C00085FFFCCF8AE08093A1
:103E2000C600D70112961C921A8A1D8A198A188A0E
:103E300089EB94E09F878E876EE4A62EB12CAE0CA2
:103E4000BF1CEFE2F0E0EE0EFF1ED501ED92FC92FA
:103E5000E1EDFFEFEE0EFF1ED3018C918F3209F0E2
:103E600090C0C3016FE270E00E9438126C010894A8
:103E7000C11CD11C4E010894811C911C250152E1EA
:103E8000252E312C2C0E3D1E77C0C6016FE270E04E
:103E90000E9438125C01009709F480C0C816D90648
:103EA00008F07CC08C010C191D09C401B601A801E1
:103EB0000E946112080D191DF8011082F40107C05B
:103EC0008091C00085FFFCCF31969093C600908111
:103ED0009923B1F78091C00085FFFCCFFAE0F09301
:103EE000C600D2016D917C916115710519F460E0F5
:103EF00070E002C06C5F7F4FC101A40121E00E940D
:103F00002277882371F5E1E4F2E0949108C0809172
:103F1000C00085FFFCCF9093C60031969491992301
:103F2000B1F7FE01319607C08091C00085FFFCCF3C
:103F300031969093C60090819923B1F7EFE3F2E0B8
:103F4000949108C08091C00085FFFCCF9093C6007B
:103F5000319694919923B1F78091C00085FFFCCFF1
:103F600023C12EE030E02C0F3D1FF201318320836E
:103F700065010894C11CD11CC114D10409F085CF7E
:103F80000BC040E550E0E40EF51ED501ED92FC9229
:103F9000E0EBFFEFEE0EFF1E830101C08601F7018B
:103FA000E25BFF4F2DA5222309F4BFC06081718120
:103FB0006115710519F460E070E002C06C5F7F4F1D
:103FC000C70182539E4FA80121E00E9422778823D7
:103FD00009F47EC04FED51E0E40EF51ED7014D917E
:103FE0005D916D917C91ECE9F0E0EE0EFF1ED70142
:103FF0004D935D936D937C931397E5E8FDEFEE0E83
:10400000FF1EE1E3F2E0949108C08091C00085FFBB
:10401000FCCF9093C600319694919923B1F7F801A3
:1040200007C08091C00085FFFCCF31969093C600F9
:1040300090819923B1F7E9E2F2E0949108C0809170
:10404000C00085FFFCCF9093C600319694919923D0
:10405000B1F788EB95E02AE030E00E94A02D809136
:10406000C00085FFFCCF8AE08093C60023E832E0E1
:10407000E20EF31ED7011D921D921D921C92139702
:10408000EDE7FDEFEE0EFF1EEBE1F2E0949108C0CC
:104090008091C00085FFFCCF9093C600319694912B
:1040A0009923B1F78091C00085FFFCCF8AE080930F
:1040B000C600C70160E070E0A801D1DCD7015196CD
:1040C0008C91882309F498C087010F5E1F4F94C01C
:1040D000E7E0F2E0949108C08091C00085FFFCCF3A
:1040E0009093C600319694919923B1F7F80107C0D7
:1040F0008091C00085FFFCCF31969093C6009081DF
:104100009923B1F7E5E0F2E0949108C08091C000F6
:1041100085FFFCCF9093C600319694919923B1F717
:104120008091C00085FFFCCF3FC060817181611527
:10413000710519F460E070E002C06C5F7F4FC70149
:1041400082539E4FA80126E50E942277882381F59D
:10415000E1EFF1E0949108C08091C00085FFFCCFB1
:104160009093C600319694919923B1F7F80107C056
:104170008091C00085FFFCCF31969093C60090815E
:104180009923B1F7EFEEF1E0949108C08091C0005F
:1041900085FFFCCF9093C600319694919923B1F797
:1041A0008091C00085FFFCCF8AE08093C60027C0C5
:1041B00081E0F7018083EDEDF1E0949108C08091FA
:1041C000C00085FFFCCF9093C6003196949199234F
:1041D000B1F7F30107C08091C00085FFFCCF319695
:1041E0009093C60090819923B1F78091C00085FF1C
:1041F000FCCF8AE08093C600C8010E9495CDCE0115
:104200000E960E945915AD960FB6F894DEBF0FBEFC
:10421000CDBFCF91DF911F910F91FF90EF90DF9075
:10422000CF90BF90AF909F908F907F906F905F9056
:104230004F903F902F900895EF92FF920F931F930E
:10424000CF93DF93EC010E94097E8E0107511E4F30
:10425000D8018C91BEECEB2EB1E0FB2EEC0EFD1ED6
:10426000882399F1C7010E943670F801608161507E
:1042700060838DE8689FB001112462517E4F6C0FFE
:104280007D1FCE0141E021E04BDCD801EC91F0E054
:10429000EE0FFF1FEE0FFF1FEC0FFD1FE651FE4F4D
:1042A0004081518162817381CD57DD4F48835983AD
:1042B0006A837B83C358D240C7010E941D6F8B81E4
:1042C000882389F181E08A832EC00E94E77DC7019F
:1042D0000E9436701A828FE291E00E943B538091D7
:1042E000D60A882301F11092D60A80918D08C82F32
:1042F000D0E0CC0FDD1FC75EDD4E68817981882755
:1043000077FD8095982F0E9410E72091FD03309152
:10431000FE034091FF03509100040E947CE81816B0
:1043200014F419821882DF91CF911F910F91FF90A1
:10433000EF900895FC0181E08183CF0140E021E00E
:10434000EFCBEF92FF920F931F93DF93CF93CDB7F5
:10435000DEB76F970FB6F894DEBF0FBECDBF7C01FE
:1043600088E892E0E80EF91EF7011182108288E7D2
:104370009DEFE80EF91E87010D5C1F4FC80140E05C
:1043800050E060E070E00E941D6FDE011596F801BC
:104390008BE101900D928150E1F7F70181A992A97B
:1043A0009C838B8389EB94E09A838983C70165E1C1
:1043B00072E08E010F5F1F4FA80120E030E005D9A9
:1043C000C8010E9459156F960FB6F894DEBF0FBE54
:1043D000CDBFCF91DF911F910F91FF90EF90089586
:1043E0000F931F93CF93DF93DC01D3961C92D39747
:1043F000D6961C92D697D2961C921E92D19789EB94
:1044000094E0D0969C938E939F97AC5ABF4F1C928A
:1044100013961C92A755B040FD01E05BFF4FAE5ACA
:10442000BF4F11961C921E92A255B040918380837B
:10443000ED01C159DF4FFE0120E030E0482F14822A
:1044400017821382128240839183215E3F4F7F96B1
:1044500081E02633380799F7A855BE4F89E18C9340
:1044600013961C9258961C921B961C9213961C92A3
:10447000A15DB140FD01E653FE4FA453BE4F11961E
:104480001C921E9240839183A155BF4F1D921D9295
:104490001D921C92139718961D921D921D921C92AC
:1044A0001397A358B24012961C92129713961C921F
:1044B00013971C9211961C9211978D0101581D4F54
:1044C000F8011082118212821382AB55BE4F1196F1
:1044D0001C921E92AC5BBF4F1C92FE01C90111924F
:1044E0000197E9F7A256BF4F81E08C93A758B240DD
:1044F0009E961C921E929D970E94DCDE68577C4E11
:104500008F4F9F4FF8016083718382839383DF9184
:10451000CF911F910F910895DF93CF93CDB7DEB761
:104520002A970FB6F894DEBF0FBECDBF809116025A
:1045300090911702A0911802B09119028B839C836D
:10454000AD83BE83FE01339624E630E08081F99985
:10455000FECF1FBA32BD21BD80BD0FB6F894FA9AC6
:10456000F99A0FBE2F5F3F4F2836310511F0319673
:10457000EDCFEAE7FAE08081F999FECF1FBA32BDAC
:1045800021BD80BD0FB6F894FA9AF99A0FBE2F5F3D
:104590003F4F2837310511F03196EDCFEAE6FAE0CA
:1045A0008081F999FECF1FBA32BD21BD80BD0FB603
:1045B000F894FA9AF99A0FBE2F5F3F4F28383105C9
:1045C00011F03196EDCFEAE8FAE08081F999FECF5B
:1045D0001FBA32BD21BD80BD0FB6F894FA9AF99A80
:1045E0000FBE2F5F3F4F2839310511F03196EDCFC7
:1045F000EEE9FAE08081F999FECF1FBA32BD21BD04
:1046000080BD0FB6F894FA9AF99A0FBE2F5F3F4F0C
:104610002C39310511F03196EDCFE2EAFAE08081D4
:10462000F999FECF1FBA32BD21BD80BD0FB6F894F7
:10463000FA9AF99A0FBE2F5F3F4F203A310511F0D9
:104640003196EDCFEAE9FAE08081F999FECF1FBA01
:1046500032BD21BD80BD0FB6F894FA9AF99A0FBE0B
:104660002F5F3F4F243A310511F03196EDCFE2EB49
:10467000FAE08081F999FECF1FBA32BD21BD80BD1D
:104680000FB6F894FA9AF99A0FBE2F5F3F4F283A67
:10469000310511F03196EDCFE6E6FAE08081F99927
:1046A000FECF1FBA32BD21BD80BD0FB6F894FA9A75
:1046B000F99A0FBE2F5F3F4F2C3A310511F031961A
:1046C000EDCFE6EAFAE08081F999FECF1FBA32BD5C
:1046D00021BD80BD0FB6F894FA9AF99A0FBE2F5FEC
:1046E0003F4F203B310511F03196EDCFEAEAFAE079
:1046F0008081F999FECF1FBA32BD21BD80BD0FB6B2
:10470000F894FA9AF99A0FBE2F5F3F4F243B310578
:1047100011F03196EDCFEEEAFAE08081F999FECF03
:104720001FBA32BD21BD80BD0FB6F894FA9AF99A2E
:104730000FBE2F5F3F4F283B310511F03196EDCF73
:10474000EEE5F8E08081F999FECF1FBA32BD21BDB8
:1047500080BD0FB6F894FA9AF99A0FBE2F5F3F4FBB
:10476000243C310511F03196EDCFEAE9F2E1808188
:10477000F999FECF1FBA32BD21BD80BD0FB6F894A6
:10478000FA9AF99A0FBE2F5F3F4F263C310511F080
:104790003196EDCFECE9F2E18081F999FECF1FBAB5
:1047A00032BD21BD80BD0FB6F894FA9AF99A0FBEBA
:1047B0002F5F3F4F283C310511F03196EDCFEEE9E8
:1047C000F2E18081F999FECF1FBA32BD21BD80BDD3
:1047D0000FB6F894FA9AF99A0FBE2F5F3F4F2A3C12
:1047E000310511F03196EDCFE0EAF2E18081F999DF
:1047F000FECF1FBA32BD21BD80BD0FB6F894FA9A24
:10480000F99A0FBE2F5F3F4F2C3C310511F03196C6
:10481000EDCFE2EAF2E18081F999FECF1FBA32BD15
:1048200021BD80BD0FB6F894FA9AF99A0FBE2F5F9A
:104830003F4F2E3C310511F03196EDCFE4EAF2E125
:104840008081F999FECF1FBA32BD21BD80BD0FB660
:10485000F894FA9AF99A0FBE2F5F3F4F203D310529
:1048600011F03196EDCFE9E7F8E08081F999FECFBC
:104870001FBA32BD21BD80BD0FB6F894FA9AF99ADD
:104880000FBE2F5F3F4F243D310511F03196EDCF24
:10489000EEE0F4E08081F999FECF1FBA32BD21BD70
:1048A00080BD0FB6F894FA9AF99A0FBE2F5F3F4F6A
:1048B000283D310511F03196EDCFE2E1F4E0808141
:1048C000F999FECF1FBA32BD21BD80BD0FB6F89455
:1048D000FA9AF99A0FBE2F5F3F4F2C3D310511F028
:1048E0003196EDCFE6E1F4E08081F999FECF1FBA71
:1048F00032BD21BD80BD0FB6F894FA9AF99A0FBE69
:104900002F5F3F4F203E310511F03196EDCF80E211
:1049100090E09A838983FE0131968081F999FECFD8
:104920001FBA32BD21BD80BD0FB6F894FA9AF99A2C
:104930000FBE213E310521F0319621EE30E0EDCF62
:1049400020914D08F999FECF1FBA82EE90E092BDFA
:1049500081BD20BD0FB6F894FA9AF99A0FBEEBEB21
:10496000F3E083EE90E02081F999FECF1FBA92BD6B
:1049700081BD20BD0FB6F894FA9AF99A0FBE019640
:10498000873E910511F03196EECFEFEBF3E02081F9
:10499000F999FECF1FBA92BD81BD20BD0FB6F89424
:1049A000FA9AF99A0FBE01968B3E910511F0319655
:1049B000EECFE2EEF3E02081F999FECF1FBA92BD6F
:1049C00081BD20BD0FB6F894FA9AF99A0FBE0196F0
:1049D0008C3F910511F03196EECFE3EFF3E02081AB
:1049E000F999FECF1FBA92BD81BD20BD0FB6F894D4
:1049F000FA9AF99A0FBE21E08130920719F00196D8
:104A00003196EDCF80911A0290911B02A0911C0269
:104A1000B0911D028F839887A987BA87FE013796C8
:104A200084E690E02081F999FECF1FBA92BD81BD46
:104A300020BD0FB6F894FA9AF99A0FBE8736910501
:104A400019F001963196EECFEAE3F5E0949108C0B3
:104A50008091C00085FFFCCF9093C6003196949161
:104A60009923B1F7E3E2F5E0949108C08091C0008A
:104A700085FFFCCF9093C600319694919923B1F7AE
:104A80008091C00085FFFCCF8AE08093C6002A9603
:104A90000FB6F894DEBF0FBECDBFCF91DF91089562
:104AA000DF93CF93CDB7DEB7E0970FB6F894DEBFB4
:104AB0000FBECDBFDE011196E1E6F4E080E101908A
:104AC0000D928150E1F7DE015196E1E5F4E080E1DD
:104AD00001900D928150E1F7DE019196E1E4F4E05E
:104AE00080E101900D928150E1F789819A81AB813B
:104AF000BC8180937A0A90937B0AA0937C0AB0933E
:104B00007D0A89899A89AB89BC8980936A0A9093C6
:104B10006B0AA0936C0AB0936D0A89A19AA1ABA10C
:104B2000BCA180938A0A90938B0AA0938C0AB093BD
:104B30008D0A8D819E81AF81B88580937E0A909386
:104B40007F0AA093800AB093810A8D899E89AF89DC
:104B5000B88D80936E0A90936F0AA093700AB093F9
:104B6000710A8DA19EA1AFA1B8A580938E0A9093E2
:104B70008F0AA093900AB093910A89859A85AB8594
:104B8000BC858093820A9093830AA093840AB09391
:104B9000850A898D9A8DAB8DBC8D8093720A909316
:104BA000730AA093740AB093750A89A59AA5ABA558
:104BB000BCA58093920A9093930AA093940AB09311
:104BC000950A8D859E85AF85B8898093860A9093D6
:104BD000870AA093880AB093890A8D8D9E8DAF8D28
:104BE000B8A18093760A9093770AA093780AB0933D
:104BF000790A8DA59EA5AFA5B8A98093960A909332
:104C0000970AA093980AB093990A0E94D25A80E01A
:104C100090E0AAE7B4E480939E0A90939F0AA09341
:104C2000A00AB093A10A80E090E0AAEFB4E48093D8
:104C3000A20A9093A30AA093A40AB093A50A20E025
:104C400030E040E050E020939A0A30939B0A409372
:104C50009C0A50939D0A80E29EE4A0E0B0E080931D
:104C6000660A9093670AA093680AB093690A209332
:104C7000B20A3093B30A4093B40A5093B50A80E065
:104C800090E0A0EAB1E48093A60A9093A70AA093CB
:104C9000A80AB093A90A8DEC9CECACECBEE380931F
:104CA000AA0A9093AB0AA093AC0AB093AD0A80E035
:104CB00090E0A0EAB0E48093AE0A9093AF0AA0938C
:104CC000B00AB093B10A2093660830936708409306
:104CD00068085093690820936208309363084093F2
:104CE00064085093650820935E0830935F084093F2
:104CF00060085093610884EB90E090939B1280933E
:104D00009A1286E490E090939D1280939C122FEF6C
:104D100030E030939F1220939E1280EF90E09093AA
:104D2000A1128093A01284E690E09093A312809346
:104D3000A2123093A5122093A4128AE999E9A1EB5B
:104D4000B1E480930E0490930F04A0931004B093E9
:104D5000110461E77DE38AE89FE30E945586609332
:104D6000120470931304809314049093150460E06C
:104D700070E084EE92E40E94618660931604709362
:104D8000170480931804909319040E94608580E0B2
:104D900090E0A0E8BFE380931A0490931B04A093D3
:104DA0001C04B0931D0410924D0880E090E0A0E434
:104DB000B0E48093BB039093BC03A093BD03B09376
:104DC000BE038093BF039093C003A093C103B0932D
:104DD000C2030E94FE2FEAE3F5E0949108C080919F
:104DE000C00085FFFCCF9093C60031969491992323
:104DF000B1F7EFE1F3E0949108C08091C00085FF26
:104E0000FCCF9093C600319694919923B1F780918D
:104E1000C00085FFFCCF8AE08093C600E0960FB605
:104E2000F894DEBF0FBECDBFCF91DF9108950F93F1
:104E30001F93DF93CF93CDB7DEB72A970FB6F894C1
:104E4000DEBF0FBECDBF80911A0290911B02A091D0
:104E50001C02B0911D028F839887A987BA87FE0133
:104E6000339604E610E0F999FECF12BD01BDF89A21
:104E700080B580830F5F1F4F0836110511F0319602
:104E8000F2CFCE010796BE016D5F7F4F43E050E049
:104E90000E945312009709F0E6C1EAE7FAE0F99997
:104EA000FECF12BD01BDF89A80B580830F5F1F4F02
:104EB0000837110511F03196F2CFEAE6FAE0F999D8
:104EC000FECF12BD01BDF89A80B580830F5F1F4FE2
:104ED0000838110511F03196F2CFEAE8FAE0F999B5
:104EE000FECF12BD01BDF89A80B580830F5F1F4FC2
:104EF0000839110511F03196F2CF0E94D25AEEE92D
:104F0000FAE0F999FECF12BD01BDF89A80B5808311
:104F10000F5F1F4F0C39110511F03196F2CFE2EA05
:104F2000FAE0F999FECF12BD01BDF89A80B58083F1
:104F30000F5F1F4F003A110511F03196F2CFEAE9E9
:104F4000FAE0F999FECF12BD01BDF89A80B58083D1
:104F50000F5F1F4F043A110511F03196F2CFE2EBCB
:104F6000FAE0F999FECF12BD01BDF89A80B58083B1
:104F70000F5F1F4F083A110511F03196F2CFE6E6A8
:104F8000FAE0F999FECF12BD01BDF89A80B5808391
:104F90000F5F1F4F0C3A110511F03196F2CFE6EA80
:104FA000FAE0F999FECF12BD01BDF89A80B5808371
:104FB0000F5F1F4F003B110511F03196F2CFEAEA67
:104FC000FAE0F999FECF12BD01BDF89A80B5808351
:104FD0000F5F1F4F043B110511F03196F2CFEEEA3F
:104FE000FAE0F999FECF12BD01BDF89A80B5808331
:104FF0000F5F1F4F083B110511F03196F2CFEEE520
:10500000F8E0F999FECF12BD01BDF89A80B5808312
:105010000F5F1F4F043C110511F03196F2CFEAE902
:10502000F2E1F999FECF12BD01BDF89A80B58083F7
:105030000F5F1F4F063C110511F03196F2CFECE9DE
:10504000F2E1F999FECF12BD01BDF89A80B58083D7
:105050000F5F1F4F083C110511F03196F2CFEEE9BA
:10506000F2E1F999FECF12BD01BDF89A80B58083B7
:105070000F5F1F4F0A3C110511F03196F2CFE0EAA5
:10508000F2E1F999FECF12BD01BDF89A80B5808397
:105090000F5F1F4F0C3C110511F03196F2CFE2EA81
:1050A000F2E1F999FECF12BD01BDF89A80B5808377
:1050B0000F5F1F4F0E3C110511F03196F2CFE4EA5D
:1050C000F2E1F999FECF12BD01BDF89A80B5808357
:1050D0000F5F1F4F003D110511F03196F2CFE9E748
:1050E000F8E0F999FECF12BD01BDF89A80B5808332
:1050F0000F5F1F4F043D110511F03196F2CFEEE026
:10510000F4E0F999FECF12BD01BDF89A80B5808315
:105110000F5F1F4F083D110511F03196F2CFE2E10C
:10512000F4E0F999FECF12BD01BDF89A80B58083F5
:105130000F5F1F4F0C3D110511F03196F2CFE6E1E4
:10514000F4E0F999FECF12BD01BDF89A80B58083D5
:105150000F5F1F4F003E110511F03196F2CFFE0197
:105160003196F999FECF12BD01BDF89A80B58083C2
:10517000013E110521F0319601EE10E0F2CFF999D0
:10518000FECF82EE90E092BD81BDF89A80B580930B
:105190004D08EBEBF3E023EE30E0F999FECF32BDA2
:1051A00021BDF89A80B580832F5F3F4F273E3105A0
:1051B00011F03196F2CFEFEBF3E0F999FECF32BD6B
:1051C00021BDF89A80B580832F5F3F4F2B3E31057C
:1051D00011F03196F2CFE2EEF3E0F999FECF32BD55
:1051E00021BDF89A80B580832F5F3F4F2C3F31055A
:1051F00011F03196F2CFE3EFF3E0F999FECF32BD33
:1052000021BDF89A80B5808381E02130380721F0F4
:105210002F5F3F4F3196F1CFF1D60E946085EAE3D0
:10522000F5E0949108C08091C00085FFFCCF909379
:10523000C600319694919923B1F7E1E4F3E094919B
:1052400008C08091C00085FFFCCF9093C6003196C6
:1052500094919923B1F78091C00085FFFCCF8AE03B
:105260008093C60001C01CDC2A960FB6F894DEBFFE
:105270000FBECDBFCF91DF911F910F910895CF93B6
:10528000DF93CAE3D5E0FE01949108C08091C0008D
:1052900085FFFCCF9093C600319694919923B1F786
:1052A000E3E1F5E0949108C08091C00085FFFCCF58
:1052B0009093C600319694919923B1F78091C000E4
:1052C00085FFFCCF8AE08093C600FE019491EAE35B
:1052D000F5E008C08091C00085FFFCCF9093C60028
:1052E000319694919923B1F740917A0A50917B0AB3
:1052F00060917C0A70917D0A8BE095E00E944634B3
:1053000040917E0A50917F0A6091800A7091810AD3
:1053100088E095E00E9446344091820A5091830AC9
:105320006091840A7091850A85E095E00E94463478
:105330004091860A5091870A6091880A7091890A83
:1053400082E095E00E944634EEE1F2E007C08091F1
:10535000C00085FFFCCF31969093C60090819923C1
:10536000B1F78091C00085FFFCCF8AE08093C60032
:10537000FE019491EAE3F5E008C08091C00085FF4A
:10538000FCCF9093C600319694919923B1F7E8EE43
:10539000F4E0949108C08091C00085FFFCCF909309
:1053A000C600319694919923B1F78091C00085FF92
:1053B000FCCF8AE08093C600FE019491EAE3F5E019
:1053C00008C08091C00085FFFCCF9093C600319645
:1053D00094919923B1F740916A0A50916B0A6091B8
:1053E0006C0A70916D0A8FED94E00E9446344091F2
:1053F0006E0A50916F0A6091700A7091710A8CED7B
:1054000094E00E9446344091720A5091730A609170
:10541000740A7091750A89ED94E00E9446344091B7
:10542000760A5091770A6091780A7091790A86ED30
:1054300094E00E944634EEE1F2E007C08091C000A3
:1054400085FFFCCF31969093C60090819923B1F7E8
:105450008091C00085FFFCCF8AE08093C600FE01EA
:105460009491EAE3F5E008C08091C00085FFFCCF8D
:105470009093C600319694919923B1F7E8EBF4E04C
:10548000949108C08091C00085FFFCCF9093C60026
:10549000319694919923B1F78091C00085FFFCCF9C
:1054A0008AE08093C600FE019491EAE3F5E008C02B
:1054B0008091C00085FFFCCF9093C60031969491F7
:1054C0009923B1F740918A0A50918B0A60918C0A16
:1054D00070918D0A8FEA94E00E94583440918E0AB0
:1054E00050918F0A6091900A7091910A8CEA94E031
:1054F0000E9458344091920A5091930A6091940A04
:105500007091950A89EA94E00E9458344091960A75
:105510005091970A6091980A7091990A86EA94E0EE
:105520000E945834EEE1F2E007C08091C00085FF90
:10553000FCCF31969093C60090819923B1F780916A
:10554000C00085FFFCCF8AE08093C600FE019491E5
:10555000EAE3F5E008C08091C00085FFFCCF90939E
:10556000C600319694919923B1F7E1E7F4E0949164
:1055700008C08091C00085FFFCCF9093C600319693
:1055800094919923B1F78091C00085FFFCCF8AE008
:105590008093C600FE019491EAE3F5E008C0809193
:1055A000C00085FFFCCF9093C6003196949199235B
:1055B000B1F740919E0A50919F0A6091A00A7091A4
:1055C000A10A88E694E00E9446344091A20A5091D4
:1055D000A30A6091A40A7091A50A85E694E00E944E
:1055E0004634EEE1F2E007C08091C00085FFFCCFB9
:1055F00031969093C60090819923B1F78091C000B5
:1056000085FFFCCF8AE08093C600FE019491EAE317
:10561000F5E008C08091C00085FFFCCF9093C600E4
:10562000319694919923B1F7E2EBF3E0949108C09D
:105630008091C00085FFFCCF9093C6003196949175
:105640009923B1F78091C00085FFFCCF8AE0809359
:10565000C600FE019491EAE3F5E008C08091C00025
:1056600085FFFCCF9093C600319694919923B1F7B2
:1056700040919A0A50919B0A60919C0A70919D0AF0
:1056800089EA93E00E9446344091B20A5091B30AED
:105690006091B40A7091B50A86EA93E00E9446349C
:1056A0004091660A5091670A6091680A7091690A90
:1056B00083EA93E00E9458344091A60A5091A70AC9
:1056C0006091A80A7091A90A80EA93E00E9446348A
:1056D0004091AA0A5091AB0A6091AC0A7091AD0A50
:1056E0008DE993E00E9446344091AE0A5091AF0A92
:1056F0006091B00A7091B10A8AE993E00E94463441
:10570000EEE1F2E007C08091C00085FFFCCF31964A
:105710009093C60090819923B1F78091C00085FFD6
:10572000FCCF8AE08093C600FE019491EAE3F5E0A5
:1057300008C08091C00085FFFCCF9093C6003196D1
:1057400094919923B1F7E8E8F3E0949108C080912F
:10575000C00085FFFCCF9093C600319694919923A9
:10576000B1F78091C00085FFFCCF8AE08093C6002E
:10577000FE019491EAE3F5E008C08091C00085FF46
:10578000FCCF9093C600319694919923B1F7409144
:105790005E0850915F0860916008709161088FE722
:1057A00093E00E94463440916208509163086091F2
:1057B0006408709165088CE793E00E94463440913C
:1057C000660850916708609168087091690889E7D8
:1057D00093E00E944634EEE1F2E007C08091C00001
:1057E00085FFFCCF31969093C60090819923B1F745
:1057F0008091C00085FFFCCF8AE08093C600FE0147
:105800009491EAE3F5E008C08091C00085FFFCCFE9
:105810009093C600319694919923B1F7EBE6F3E0AB
:10582000949108C08091C00085FFFCCF9093C60082
:10583000319694919923B1F78091C00085FFFCCFF8
:105840008AE08093C600FE019491EAE3F5E008C087
:105850008091C00085FFFCCF9093C6003196949153
:105860009923B1F740910E0450910F0460911004F8
:105870007091110481E693E00E9446346091120415
:105880007091130480911404909115040E945B861A
:10589000AB01BC018EE593E0F9D7609116047091DD
:1058A000170480911804909119040E946786AB0137
:1058B000BC018BE593E0EAD7EEE1F2E007C080910E
:1058C000C00085FFFCCF31969093C600908199234C
:1058D000B1F78091C00085FFFCCF8AE08093C600BD
:1058E000DF91CF9108951F920F920FB60F920BB6D2
:1058F0000F9211242F933F934F938F939F93EF9386
:10590000FF934091C600E091B405F091B505319642
:105910009F012F77307031978091B6059091B70530
:105920002817390739F0EC5CFA4F40833093B505FE
:105930002093B405FF91EF919F918F914F913F91EB
:105940002F910F900BBE0F900FBE0F901F901895C8
:105950009A01AB01203081EE380780E0480780E0F3
:10596000580749F182E08093C00060E079E08DE360
:1059700090E00E9488EA2150304040405040CA01E7
:10598000B90122E030E040E050E00E9488EA309324
:10599000C5002093C4008091C10080618093C10044
:1059A0008091C10088608093C1008091C1008068AF
:1059B0008093C10008951092C00020E130E0E7CF4D
:1059C0002091B6053091B7058091B4059091B50549
:1059D0008217930719F42FEF3FEF0EC0F901EC5C2B
:1059E000FA4F80812F5F3F4F2F7730703093B7058C
:1059F0002093B605282F30E0C90108958091B6059F
:105A00009091B7059093B5058093B40508950895D6
:105A10002F923F924F925F926F927F928F929F92BE
:105A2000AF92BF92CF92DF92EF92FF920F931F93AC
:105A3000DF93CF93CDB7DEB7A0970FB6F894DEBF54
:105A40000FBECDBF1C016A017B01411551056105E7
:105A5000710541F440E350E060E070E020E030E0A8
:105A60008BD055C0882499245401422E5524662495
:105A7000772401E010E00C0F1D1F080D191DC70150
:105A8000B601A30192010E9466EAF80160830894BE
:105A9000811C911CA11CB11CC701B601A30192017C
:105AA0000E9466EAC901DA016C017D01C114D104CA
:105AB000E104F104F1F681E0E82EF12CEC0EFD1E7C
:105AC000E80CF91C3E010894611C711CD501C4014D
:105AD0000197A109B1096C01C818D90815C0F601D0
